{
  "_format": "hh-sol-artifact-1",
  "contractName": "ProposalTemplates",
  "sourceName": "contracts/verifiers/ProposalTemplates.sol",
  "abi": [
    {
      "anonymous": false,
      "inputs": [
        {
          "indexed": false,
          "internalType": "uint256",
          "name": "pType",
          "type": "uint256"
        }
      ],
      "name": "AddedTemplate",
      "type": "event"
    },
    {
      "anonymous": false,
      "inputs": [
        {
          "indexed": false,
          "internalType": "uint256",
          "name": "pType",
          "type": "uint256"
        }
      ],
      "name": "ErasedTemplate",
      "type": "event"
    },
    {
      "anonymous": false,
      "inputs": [
        {
          "indexed": true,
          "internalType": "address",
          "name": "previousOwner",
          "type": "address"
        },
        {
          "indexed": true,
          "internalType": "address",
          "name": "newOwner",
          "type": "address"
        }
      ],
      "name": "OwnershipTransferred",
      "type": "event"
    },
    {
      "constant": false,
      "inputs": [
        {
          "internalType": "uint256",
          "name": "pType",
          "type": "uint256"
        },
        {
          "internalType": "string",
          "name": "name",
          "type": "string"
        },
        {
          "internalType": "address",
          "name": "verifier",
          "type": "address"
        },
        {
          "internalType": "enum Proposal.ExecType",
          "name": "executable",
          "type": "uint8"
        },
        {
          "internalType": "uint256",
          "name": "minVotes",
          "type": "uint256"
        },
        {
          "internalType": "uint256",
          "name": "minAgreement",
          "type": "uint256"
        },
        {
          "internalType": "uint256[]",
          "name": "opinionScales",
          "type": "uint256[]"
        },
        {
          "internalType": "uint256",
          "name": "minVotingDuration",
          "type": "uint256"
        },
        {
          "internalType": "uint256",
          "name": "maxVotingDuration",
          "type": "uint256"
        },
        {
          "internalType": "uint256",
          "name": "minStartDelay",
          "type": "uint256"
        },
        {
          "internalType": "uint256",
          "name": "maxStartDelay",
          "type": "uint256"
        }
      ],
      "name": "addTemplate",
      "outputs": [],
      "payable": false,
      "stateMutability": "nonpayable",
      "type": "function"
    },
    {
      "constant": false,
      "inputs": [
        {
          "internalType": "uint256",
          "name": "pType",
          "type": "uint256"
        }
      ],
      "name": "eraseTemplate",
      "outputs": [],
      "payable": false,
      "stateMutability": "nonpayable",
      "type": "function"
    },
    {
      "constant": true,
      "inputs": [
        {
          "internalType": "uint256",
          "name": "pType",
          "type": "uint256"
        }
      ],
      "name": "exists",
      "outputs": [
        {
          "internalType": "bool",
          "name": "",
          "type": "bool"
        }
      ],
      "payable": false,
      "stateMutability": "view",
      "type": "function"
    },
    {
      "constant": true,
      "inputs": [
        {
          "internalType": "uint256",
          "name": "pType",
          "type": "uint256"
        }
      ],
      "name": "get",
      "outputs": [
        {
          "internalType": "string",
          "name": "name",
          "type": "string"
        },
        {
          "internalType": "address",
          "name": "verifier",
          "type": "address"
        },
        {
          "internalType": "enum Proposal.ExecType",
          "name": "executable",
          "type": "uint8"
        },
        {
          "internalType": "uint256",
          "name": "minVotes",
          "type": "uint256"
        },
        {
          "internalType": "uint256",
          "name": "minAgreement",
          "type": "uint256"
        },
        {
          "internalType": "uint256[]",
          "name": "opinionScales",
          "type": "uint256[]"
        },
        {
          "internalType": "uint256",
          "name": "minVotingDuration",
          "type": "uint256"
        },
        {
          "internalType": "uint256",
          "name": "maxVotingDuration",
          "type": "uint256"
        },
        {
          "internalType": "uint256",
          "name": "minStartDelay",
          "type": "uint256"
        },
        {
          "internalType": "uint256",
          "name": "maxStartDelay",
          "type": "uint256"
        }
      ],
      "payable": false,
      "stateMutability": "view",
      "type": "function"
    },
    {
      "constant": false,
      "inputs": [],
      "name": "initialize",
      "outputs": [],
      "payable": false,
      "stateMutability": "nonpayable",
      "type": "function"
    },
    {
      "constant": true,
      "inputs": [],
      "name": "isOwner",
      "outputs": [
        {
          "internalType": "bool",
          "name": "",
          "type": "bool"
        }
      ],
      "payable": false,
      "stateMutability": "view",
      "type": "function"
    },
    {
      "constant": true,
      "inputs": [],
      "name": "owner",
      "outputs": [
        {
          "internalType": "address",
          "name": "",
          "type": "address"
        }
      ],
      "payable": false,
      "stateMutability": "view",
      "type": "function"
    },
    {
      "constant": false,
      "inputs": [],
      "name": "renounceOwnership",
      "outputs": [],
      "payable": false,
      "stateMutability": "nonpayable",
      "type": "function"
    },
    {
      "constant": false,
      "inputs": [
        {
          "internalType": "address",
          "name": "newOwner",
          "type": "address"
        }
      ],
      "name": "transferOwnership",
      "outputs": [],
      "payable": false,
      "stateMutability": "nonpayable",
      "type": "function"
    },
    {
      "constant": true,
      "inputs": [
        {
          "internalType": "uint256",
          "name": "pType",
          "type": "uint256"
        },
        {
          "internalType": "address",
          "name": "propAddr",
          "type": "address"
        }
      ],
      "name": "verifyProposalContract",
      "outputs": [
        {
          "internalType": "bool",
          "name": "",
          "type": "bool"
        }
      ],
      "payable": false,
      "stateMutability": "view",
      "type": "function"
    },
    {
      "constant": true,
      "inputs": [
        {
          "internalType": "uint256",
          "name": "pType",
          "type": "uint256"
        },
        {
          "internalType": "enum Proposal.ExecType",
          "name": "executable",
          "type": "uint8"
        },
        {
          "internalType": "uint256",
          "name": "minVotes",
          "type": "uint256"
        },
        {
          "internalType": "uint256",
          "name": "minAgreement",
          "type": "uint256"
        },
        {
          "internalType": "uint256[]",
          "name": "opinionScales",
          "type": "uint256[]"
        },
        {
          "internalType": "uint256",
          "name": "start",
          "type": "uint256"
        },
        {
          "internalType": "uint256",
          "name": "minEnd",
          "type": "uint256"
        },
        {
          "internalType": "uint256",
          "name": "maxEnd",
          "type": "uint256"
        }
      ],
      "name": "verifyProposalParams",
      "outputs": [
        {
          "internalType": "bool",
          "name": "",
          "type": "bool"
        }
      ],
      "payable": false,
      "stateMutability": "view",
      "type": "function"
    },
    {
      "constant": true,
      "inputs": [],
      "name": "version",
      "outputs": [
        {
          "internalType": "bytes3",
          "name": "",
          "type": "bytes3"
        }
      ],
      "payable": false,
      "stateMutability": "pure",
      "type": "function"
    }
  ],
  "bytecode": "0x608060405234801561001057600080fd5b50611785806100206000396000f3fe608060405234801561001057600080fd5b50600436106100b45760003560e01c80638f32d59b116100715780638f32d59b146101625780639507d39a1461016a578063afa6f86114610298578063d294ed2814610396578063f2fde38b146103c2578063f3f4ef79146103e8576100b4565b806318663d3e146100b95780634f558e79146100d857806354fd4d5014610109578063715018a61461012e5780638129fc1c146101365780638da5cb5b1461013e575b600080fd5b6100d6600480360360208110156100cf57600080fd5b5035610480565b005b6100f5600480360360208110156100ee57600080fd5b50356105b7565b604080519115158252519081900360200190f35b6101116105e1565b604080516001600160e81b03199092168252519081900360200190f35b6100d66105ec565b6100d661067d565b610146610728565b604080516001600160a01b039092168252519081900360200190f35b6100f5610737565b6101876004803603602081101561018057600080fd5b5035610748565b60405180806020018b6001600160a01b03166001600160a01b031681526020018a60028111156101b357fe5b60ff1681526020018981526020018881526020018060200187815260200186815260200185815260200184815260200183810383528d818151815260200191508051906020019080838360005b83811015610218578181015183820152602001610200565b50505050905090810190601f1680156102455780820380516001836020036101000a031916815260200191505b508381038252885181528851602091820191808b01910280838360005b8381101561027a578181015183820152602001610262565b505050509050019c5050505050505050505050505060405180910390f35b6100d660048036036101608110156102af57600080fd5b813591908101906040810160208201356401000000008111156102d157600080fd5b8201836020820111156102e357600080fd5b8035906020019184600183028401116401000000008311171561030557600080fd5b919390926001600160a01b038335169260ff6020820135169260408201359260608301359260a08101906080013564010000000081111561034557600080fd5b82018360208201111561035757600080fd5b8035906020019184602083028401116401000000008311171561037957600080fd5b9193509150803590602081013590604081013590606001356108cf565b6100f5600480360360408110156103ac57600080fd5b50803590602001356001600160a01b0316610c5b565b6100d6600480360360208110156103d857600080fd5b50356001600160a01b0316610ea8565b6100f560048036036101008110156103ff57600080fd5b81359160ff6020820135169160408201359160608101359181019060a08101608082013564010000000081111561043557600080fd5b82018360208201111561044757600080fd5b8035906020019184602083028401116401000000008311171561046957600080fd5b919350915080359060208101359060400135610ef8565b610488610737565b6104c7576040805162461bcd60e51b81526020600482018190526024820152600080516020611703833981519152604482015290519081900360640190fd5b6104d0816105b7565b61051a576040805162461bcd60e51b81526020600482015260166024820152751d195b5c1b185d1948191bd95cdb89dd08195e1a5cdd60521b604482015290519081900360640190fd5b6000818152606660205260408120906105338282611554565b6001820180546001600160a81b031916905560006002830181905560038301819055610563906004840190611598565b5060006005820181905560068201819055600782018190556008909101556040805182815290517f87e0fd43c1fec1e0224b48faa87a5a3acc6a280c89d8c8964247612edde9f1de9181900360200190a150565b6000818152606660205260409020546002600019610100600184161502019091160415155b919050565b6219981960e91b5b90565b6105f4610737565b610633576040805162461bcd60e51b81526020600482018190526024820152600080516020611703833981519152604482015290519081900360640190fd5b6033546040516000916001600160a01b0316907f8be0079c531659141344cd1fd0a4f28419497f9722a3daafe3b4186f6b6457e0908390a3603380546001600160a01b0319169055565b600054610100900460ff16806106965750610696611355565b806106a4575060005460ff16155b6106df5760405162461bcd60e51b815260040180806020018281038252602e815260200180611723602e913960400191505060405180910390fd5b600054610100900460ff1615801561070a576000805460ff1961ff0019909116610100171660011790555b6107133361135b565b8015610725576000805461ff00191690555b50565b6033546001600160a01b031690565b6033546001600160a01b0316331490565b606060008060008060606000806000806000606660008d81526020019081526020016000209050806000018160010160009054906101000a90046001600160a01b03168260010160149054906101000a900460ff1683600201548460030154856004018660050154876006015488600701548960080154898054600181600116156101000203166002900480601f0160208091040260200160405190810160405280929190818152602001828054600181600116156101000203166002900480156108545780601f1061082957610100808354040283529160200191610854565b820191906000526020600020905b81548152906001019060200180831161083757829003601f168201915b50505050509950848054806020026020016040519081016040528092919081815260200182805480156108a657602002820191906000526020600020905b815481526020019060010190808311610892575b505050505094509a509a509a509a509a509a509a509a509a509a50509193959799509193959799565b6108d7610737565b610916576040805162461bcd60e51b81526020600482018190526024820152600080516020611703833981519152604482015290519081900360640190fd5b60008d81526066602052604090208b610963576040805162461bcd60e51b815260206004820152600a602482015269656d707479206e616d6560b01b604482015290519081900360640190fd5b61096c8e6105b7565b156109be576040805162461bcd60e51b815260206004820152601760248201527f74656d706c61746520616c726561647920657869737473000000000000000000604482015290519081900360640190fd5b85610a01576040805162461bcd60e51b815260206004820152600e60248201526d656d707479206f70696e696f6e7360901b604482015290519081900360640190fd5b610a3d87878080602002602001604051908101604052809392919081815260200183836020028082843760009201919091525061144d92505050565b610a8e576040805162461bcd60e51b815260206004820152601760248201527f77726f6e67206f72646572206f66206f70696e696f6e73000000000000000000604482015290519081900360640190fd5b86866000198101818110610a9e57fe5b9050602002013560001415610af2576040805162461bcd60e51b8152602060048201526015602482015274616c6c206f70696e696f6e7320617265207a65726f60581b604482015290519081900360640190fd5b610afa6114a7565b891115610b3f576040805162461bcd60e51b815260206004820152600e60248201526d06d696e566f746573203e20312e360941b604482015290519081900360640190fd5b610b476114a7565b881115610b90576040805162461bcd60e51b815260206004820152601260248201527106d696e41677265656d656e74203e20312e360741b604482015290519081900360640190fd5b6001810180546001600160a01b0319166001600160a01b038d16179055610bb8818e8e6115b6565b506001810180548b919060ff60a01b1916600160a01b836002811115610bda57fe5b02179055506002810189905560038101889055610bfb600482018888611634565b5060058101859055600681018490556007810183905560088101829055604080518f815290517f37b429de7dec0c03380cac539f6d885acadf427c45d9a92906576cae9739925d9181900360200190a15050505050505050505050505050565b6000610c66836105b7565b610c7257506000610ea2565b610c7a61166e565b6000848152606660209081526040918290208251815460026001821615610100026000190190911604601f810184900490930281016101609081019094526101408101838152909391928492849190840182828015610d1a5780601f10610cef57610100808354040283529160200191610d1a565b820191906000526020600020905b815481529060010190602001808311610cfd57829003601f168201915b505050918352505060018201546001600160a01b0381166020830152604090910190600160a01b900460ff166002811115610d5157fe5b6002811115610d5c57fe5b8152602001600282015481526020016003820154815260200160048201805480602002602001604051908101604052809291908181526020018280548015610dc357602002820191906000526020600020905b815481526020019060010190808311610daf575b50505050508152602001600582015481526020016006820154815260200160078201548152602001600882015481525050905060006001600160a01b031681602001516001600160a01b03161415610e1f576001915050610ea2565b60208082015160408051631a529da560e31b8152600481018890526001600160a01b0387811660248301529151919092169263d294ed289260448082019391829003018186803b158015610e7257600080fd5b505afa158015610e86573d6000803e3d6000fd5b505050506040513d6020811015610e9c57600080fd5b50519150505b92915050565b610eb0610737565b610eef576040805162461bcd60e51b81526020600482018190526024820152600080516020611703833981519152604482015290519081900360640190fd5b610725816114b3565b600042841015610f0a57506000611348565b81831115610f1a57506000611348565b82841115610f2a57506000611348565b838303848303428603610f3c8d6105b7565b610f4c5760009350505050611348565b610f5461166e565b60008e8152606660209081526040918290208251815460026001821615610100026000190190911604601f810184900490930281016101609081019094526101408101838152909391928492849190840182828015610ff45780601f10610fc957610100808354040283529160200191610ff4565b820191906000526020600020905b815481529060010190602001808311610fd757829003601f168201915b505050918352505060018201546001600160a01b0381166020830152604090910190600160a01b900460ff16600281111561102b57fe5b600281111561103657fe5b815260200160028201548152602001600382015481526020016004820180548060200260200160405190810160405280929190818152602001828054801561109d57602002820191906000526020600020905b815481526020019060010190808311611089575b505050505081526020016005820154815260200160068201548152602001600782015481526020016008820154815250509050806040015160028111156110e057fe5b8d60028111156110ec57fe5b146110fe576000945050505050611348565b80606001518c1015611117576000945050505050611348565b61111f6114a7565b8c1115611133576000945050505050611348565b80608001518b101561114c576000945050505050611348565b6111546114a7565b8b1115611168576000945050505050611348565b60a0810151518914611181576000945050505050611348565b60005b898110156111d2578160a00151818151811061119c57fe5b60200260200101518b8b838181106111b057fe5b90506020020135146111ca57600095505050505050611348565b600101611184565b508060c001518410156111ec576000945050505050611348565b8060e00151831115611205576000945050505050611348565b80610100015182101561121f576000945050505050611348565b806101200151821115611239576000945050505050611348565b60208101516001600160a01b0316611258576001945050505050611348565b80602001516001600160a01b031663f3f4ef798f8f8f8f8f8f8f8f8f6040518a63ffffffff1660e01b8152600401808a815260200189600281111561129957fe5b60ff168152602001888152602001878152602001806020018581526020018481526020018381526020018281038252878782818152602001925060200280828437600081840152601f19601f8201169050808301925050509a505050505050505050505060206040518083038186803b15801561131557600080fd5b505afa158015611329573d6000803e3d6000fd5b505050506040513d602081101561133f57600080fd5b50519450505050505b9998505050505050505050565b303b1590565b600054610100900460ff16806113745750611374611355565b80611382575060005460ff16155b6113bd5760405162461bcd60e51b815260040180806020018281038252602e815260200180611723602e913960400191505060405180910390fd5b600054610100900460ff161580156113e8576000805460ff1961ff0019909116610100171660011790555b603380546001600160a01b0319166001600160a01b0384811691909117918290556040519116906000907f8be0079c531659141344cd1fd0a4f28419497f9722a3daafe3b4186f6b6457e0908290a38015611449576000805461ff00191690555b5050565b600060015b825181101561149e5782818151811061146757fe5b602002602001015183600183038151811061147e57fe5b602002602001015111156114965760009150506105dc565b600101611452565b50600192915050565b670de0b6b3a764000090565b6001600160a01b0381166114f85760405162461bcd60e51b81526004018080602001828103825260268152602001806116dd6026913960400191505060405180910390fd5b6033546040516001600160a01b038084169216907f8be0079c531659141344cd1fd0a4f28419497f9722a3daafe3b4186f6b6457e090600090a3603380546001600160a01b0319166001600160a01b0392909216919091179055565b50805460018160011615610100020316600290046000825580601f1061157a5750610725565b601f01602090049060005260206000209081019061072591906116c2565b508054600082559060005260206000209081019061072591906116c2565b828054600181600116156101000203166002900490600052602060002090601f016020900481019282601f106115f75782800160ff19823516178555611624565b82800160010185558215611624579182015b82811115611624578235825591602001919060010190611609565b506116309291506116c2565b5090565b8280548282559060005260206000209081019282156116245791602002820182811115611624578235825591602001919060010190611609565b60408051610140810182526060815260006020820181905290918201908152602001600081526020016000815260200160608152602001600081526020016000815260200160008152602001600081525090565b6105e991905b8082111561163057600081556001016116c856fe4f776e61626c653a206e6577206f776e657220697320746865207a65726f20616464726573734f776e61626c653a2063616c6c6572206973206e6f7420746865206f776e6572436f6e747261637420696e7374616e63652068617320616c7265616479206265656e20696e697469616c697a6564a265627a7a72315820be3b643281a8c6d8605a0a5e67f2ed54e00380c4d6985990e58000a18bada86364736f6c63430005110032",
  "linkReferences": {},
  "deployedLinkReferences": {}
}