{
  "_format": "hh-sol-artifact-1",
  "contractName": "SFC",
  "sourceName": "contracts/sfc/SFC.sol",
  "abi": [
    {
      "anonymous": false,
      "inputs": [
        {
          "indexed": true,
          "internalType": "uint256",
          "name": "validatorID",
          "type": "uint256"
        },
        {
          "indexed": false,
          "internalType": "uint256",
          "name": "status",
          "type": "uint256"
        }
      ],
      "name": "ChangedValidatorStatus",
      "type": "event"
    },
    {
      "anonymous": false,
      "inputs": [
        {
          "indexed": true,
          "internalType": "address",
          "name": "delegator",
          "type": "address"
        },
        {
          "indexed": true,
          "internalType": "uint256",
          "name": "toValidatorID",
          "type": "uint256"
        },
        {
          "indexed": false,
          "internalType": "uint256",
          "name": "lockupExtraReward",
          "type": "uint256"
        },
        {
          "indexed": false,
          "internalType": "uint256",
          "name": "lockupBaseReward",
          "type": "uint256"
        },
        {
          "indexed": false,
          "internalType": "uint256",
          "name": "unlockedReward",
          "type": "uint256"
        }
      ],
      "name": "ClaimedRewards",
      "type": "event"
    },
    {
      "anonymous": false,
      "inputs": [
        {
          "indexed": true,
          "internalType": "uint256",
          "name": "validatorID",
          "type": "uint256"
        },
        {
          "indexed": true,
          "internalType": "address",
          "name": "auth",
          "type": "address"
        },
        {
          "indexed": false,
          "internalType": "uint256",
          "name": "createdEpoch",
          "type": "uint256"
        },
        {
          "indexed": false,
          "internalType": "uint256",
          "name": "createdTime",
          "type": "uint256"
        }
      ],
      "name": "CreatedValidator",
      "type": "event"
    },
    {
      "anonymous": false,
      "inputs": [
        {
          "indexed": true,
          "internalType": "uint256",
          "name": "validatorID",
          "type": "uint256"
        },
        {
          "indexed": false,
          "internalType": "uint256",
          "name": "deactivatedEpoch",
          "type": "uint256"
        },
        {
          "indexed": false,
          "internalType": "uint256",
          "name": "deactivatedTime",
          "type": "uint256"
        }
      ],
      "name": "DeactivatedValidator",
      "type": "event"
    },
    {
      "anonymous": false,
      "inputs": [
        {
          "indexed": true,
          "internalType": "address",
          "name": "delegator",
          "type": "address"
        },
        {
          "indexed": true,
          "internalType": "uint256",
          "name": "toValidatorID",
          "type": "uint256"
        },
        {
          "indexed": false,
          "internalType": "uint256",
          "name": "amount",
          "type": "uint256"
        }
      ],
      "name": "Delegated",
      "type": "event"
    },
    {
      "anonymous": false,
      "inputs": [
        {
          "indexed": true,
          "internalType": "address",
          "name": "previousAddress",
          "type": "address"
        },
        {
          "indexed": true,
          "internalType": "address",
          "name": "newAddress",
          "type": "address"
        }
      ],
      "name": "GovernanceUpdated",
      "type": "event"
    },
    {
      "anonymous": false,
      "inputs": [
        {
          "indexed": true,
          "internalType": "address",
          "name": "receiver",
          "type": "address"
        },
        {
          "indexed": false,
          "internalType": "uint256",
          "name": "amount",
          "type": "uint256"
        },
        {
          "indexed": false,
          "internalType": "string",
          "name": "justification",
          "type": "string"
        }
      ],
      "name": "InflatedFTM",
      "type": "event"
    },
    {
      "anonymous": false,
      "inputs": [
        {
          "indexed": true,
          "internalType": "address",
          "name": "delegator",
          "type": "address"
        },
        {
          "indexed": true,
          "internalType": "uint256",
          "name": "validatorID",
          "type": "uint256"
        },
        {
          "indexed": false,
          "internalType": "uint256",
          "name": "duration",
          "type": "uint256"
        },
        {
          "indexed": false,
          "internalType": "uint256",
          "name": "amount",
          "type": "uint256"
        }
      ],
      "name": "LockedUpStake",
      "type": "event"
    },
    {
      "anonymous": false,
      "inputs": [
        {
          "indexed": true,
          "internalType": "address",
          "name": "previousOwner",
          "type": "address"
        },
        {
          "indexed": true,
          "internalType": "address",
          "name": "newOwner",
          "type": "address"
        }
      ],
      "name": "OwnershipTransferred",
      "type": "event"
    },
    {
      "anonymous": false,
      "inputs": [
        {
          "indexed": true,
          "internalType": "address",
          "name": "delegator",
          "type": "address"
        },
        {
          "indexed": true,
          "internalType": "uint256",
          "name": "validatorID",
          "type": "uint256"
        },
        {
          "indexed": false,
          "internalType": "uint256",
          "name": "amount",
          "type": "uint256"
        }
      ],
      "name": "RefundedSlashedLegacyDelegation",
      "type": "event"
    },
    {
      "anonymous": false,
      "inputs": [
        {
          "indexed": true,
          "internalType": "address",
          "name": "delegator",
          "type": "address"
        },
        {
          "indexed": true,
          "internalType": "uint256",
          "name": "toValidatorID",
          "type": "uint256"
        },
        {
          "indexed": false,
          "internalType": "uint256",
          "name": "lockupExtraReward",
          "type": "uint256"
        },
        {
          "indexed": false,
          "internalType": "uint256",
          "name": "lockupBaseReward",
          "type": "uint256"
        },
        {
          "indexed": false,
          "internalType": "uint256",
          "name": "unlockedReward",
          "type": "uint256"
        }
      ],
      "name": "RestakedRewards",
      "type": "event"
    },
    {
      "anonymous": false,
      "inputs": [
        {
          "indexed": true,
          "internalType": "address",
          "name": "delegator",
          "type": "address"
        },
        {
          "indexed": true,
          "internalType": "uint256",
          "name": "toValidatorID",
          "type": "uint256"
        },
        {
          "indexed": true,
          "internalType": "uint256",
          "name": "wrID",
          "type": "uint256"
        },
        {
          "indexed": false,
          "internalType": "uint256",
          "name": "amount",
          "type": "uint256"
        }
      ],
      "name": "Undelegated",
      "type": "event"
    },
    {
      "anonymous": false,
      "inputs": [
        {
          "indexed": true,
          "internalType": "address",
          "name": "delegator",
          "type": "address"
        },
        {
          "indexed": true,
          "internalType": "uint256",
          "name": "validatorID",
          "type": "uint256"
        },
        {
          "indexed": false,
          "internalType": "uint256",
          "name": "amount",
          "type": "uint256"
        },
        {
          "indexed": false,
          "internalType": "uint256",
          "name": "penalty",
          "type": "uint256"
        }
      ],
      "name": "UnlockedStake",
      "type": "event"
    },
    {
      "anonymous": false,
      "inputs": [
        {
          "indexed": false,
          "internalType": "uint256",
          "name": "value",
          "type": "uint256"
        }
      ],
      "name": "UpdatedBaseRewardPerSec",
      "type": "event"
    },
    {
      "anonymous": false,
      "inputs": [
        {
          "indexed": false,
          "internalType": "uint256",
          "name": "contractCommission",
          "type": "uint256"
        }
      ],
      "name": "UpdatedContractCommission",
      "type": "event"
    },
    {
      "anonymous": false,
      "inputs": [
        {
          "indexed": false,
          "internalType": "uint256",
          "name": "maxDelegationRatio",
          "type": "uint256"
        }
      ],
      "name": "UpdatedMaxDelegationRatio",
      "type": "event"
    },
    {
      "anonymous": false,
      "inputs": [
        {
          "indexed": false,
          "internalType": "uint256",
          "name": "maxLockupDuration",
          "type": "uint256"
        }
      ],
      "name": "UpdatedMaxLockupDuration",
      "type": "event"
    },
    {
      "anonymous": false,
      "inputs": [
        {
          "indexed": false,
          "internalType": "uint256",
          "name": "minLockupDuration",
          "type": "uint256"
        }
      ],
      "name": "UpdatedMinLockupDuration",
      "type": "event"
    },
    {
      "anonymous": false,
      "inputs": [
        {
          "indexed": false,
          "internalType": "uint256",
          "name": "minSelfStake",
          "type": "uint256"
        }
      ],
      "name": "UpdatedMinSelfStake",
      "type": "event"
    },
    {
      "anonymous": false,
      "inputs": [
        {
          "indexed": false,
          "internalType": "uint256",
          "name": "blocksNum",
          "type": "uint256"
        },
        {
          "indexed": false,
          "internalType": "uint256",
          "name": "period",
          "type": "uint256"
        }
      ],
      "name": "UpdatedOfflinePenaltyThreshold",
      "type": "event"
    },
    {
      "anonymous": false,
      "inputs": [
        {
          "indexed": true,
          "internalType": "uint256",
          "name": "validatorID",
          "type": "uint256"
        },
        {
          "indexed": false,
          "internalType": "uint256",
          "name": "refundRatio",
          "type": "uint256"
        }
      ],
      "name": "UpdatedSlashingRefundRatio",
      "type": "event"
    },
    {
      "anonymous": false,
      "inputs": [
        {
          "indexed": false,
          "internalType": "uint256",
          "name": "unlockedRewardRatio",
          "type": "uint256"
        }
      ],
      "name": "UpdatedUnlockedRewardRatio",
      "type": "event"
    },
    {
      "anonymous": false,
      "inputs": [
        {
          "indexed": false,
          "internalType": "uint256",
          "name": "validatorCommission",
          "type": "uint256"
        }
      ],
      "name": "UpdatedValidatorCommission",
      "type": "event"
    },
    {
      "anonymous": false,
      "inputs": [
        {
          "indexed": false,
          "internalType": "uint256",
          "name": "Value",
          "type": "uint256"
        }
      ],
      "name": "UpdatedWithdrawalPeriodEpoch",
      "type": "event"
    },
    {
      "anonymous": false,
      "inputs": [
        {
          "indexed": false,
          "internalType": "uint256",
          "name": "withValuedrawalPeriodTime",
          "type": "uint256"
        }
      ],
      "name": "UpdatedWithdrawalPeriodTime",
      "type": "event"
    },
    {
      "anonymous": false,
      "inputs": [
        {
          "indexed": true,
          "internalType": "address",
          "name": "delegator",
          "type": "address"
        },
        {
          "indexed": true,
          "internalType": "uint256",
          "name": "toValidatorID",
          "type": "uint256"
        },
        {
          "indexed": true,
          "internalType": "uint256",
          "name": "wrID",
          "type": "uint256"
        },
        {
          "indexed": false,
          "internalType": "uint256",
          "name": "amount",
          "type": "uint256"
        }
      ],
      "name": "Withdrawn",
      "type": "event"
    },
    {
      "constant": false,
      "inputs": [
        {
          "internalType": "uint256",
          "name": "validatorID",
          "type": "uint256"
        },
        {
          "internalType": "bool",
          "name": "syncPubkey",
          "type": "bool"
        }
      ],
      "name": "_syncValidator",
      "outputs": [],
      "payable": false,
      "stateMutability": "nonpayable",
      "type": "function"
    },
    {
      "constant": true,
      "inputs": [],
      "name": "activeProposals",
      "outputs": [
        {
          "internalType": "uint256",
          "name": "",
          "type": "uint256"
        }
      ],
      "payable": false,
      "stateMutability": "view",
      "type": "function"
    },
    {
      "constant": true,
      "inputs": [],
      "name": "baseRewardPerSecond",
      "outputs": [
        {
          "internalType": "uint256",
          "name": "",
          "type": "uint256"
        }
      ],
      "payable": false,
      "stateMutability": "view",
      "type": "function"
    },
    {
      "constant": false,
      "inputs": [
        {
          "internalType": "uint256",
          "name": "toValidatorID",
          "type": "uint256"
        }
      ],
      "name": "claimRewards",
      "outputs": [],
      "payable": false,
      "stateMutability": "nonpayable",
      "type": "function"
    },
    {
      "constant": true,
      "inputs": [],
      "name": "contractCommission",
      "outputs": [
        {
          "internalType": "uint256",
          "name": "",
          "type": "uint256"
        }
      ],
      "payable": false,
      "stateMutability": "view",
      "type": "function"
    },
    {
      "constant": false,
      "inputs": [
        {
          "internalType": "bytes",
          "name": "pubkey",
          "type": "bytes"
        }
      ],
      "name": "createValidator",
      "outputs": [],
      "payable": true,
      "stateMutability": "payable",
      "type": "function"
    },
    {
      "constant": true,
      "inputs": [],
      "name": "currentEpoch",
      "outputs": [
        {
          "internalType": "uint256",
          "name": "",
          "type": "uint256"
        }
      ],
      "payable": false,
      "stateMutability": "view",
      "type": "function"
    },
    {
      "constant": true,
      "inputs": [],
      "name": "currentSealedEpoch",
      "outputs": [
        {
          "internalType": "uint256",
          "name": "",
          "type": "uint256"
        }
      ],
      "payable": false,
      "stateMutability": "view",
      "type": "function"
    },
    {
      "constant": false,
      "inputs": [
        {
          "internalType": "uint256",
          "name": "validatorID",
          "type": "uint256"
        },
        {
          "internalType": "uint256",
          "name": "status",
          "type": "uint256"
        }
      ],
      "name": "deactivateValidator",
      "outputs": [],
      "payable": false,
      "stateMutability": "nonpayable",
      "type": "function"
    },
    {
      "constant": false,
      "inputs": [
        {
          "internalType": "uint256",
          "name": "toValidatorID",
          "type": "uint256"
        }
      ],
      "name": "delegate",
      "outputs": [],
      "payable": true,
      "stateMutability": "payable",
      "type": "function"
    },
    {
      "constant": true,
      "inputs": [
        {
          "internalType": "uint256",
          "name": "epoch",
          "type": "uint256"
        },
        {
          "internalType": "uint256",
          "name": "validatorID",
          "type": "uint256"
        }
      ],
      "name": "getEpochAccumulatedOriginatedTxsFee",
      "outputs": [
        {
          "internalType": "uint256",
          "name": "",
          "type": "uint256"
        }
      ],
      "payable": false,
      "stateMutability": "view",
      "type": "function"
    },
    {
      "constant": true,
      "inputs": [
        {
          "internalType": "uint256",
          "name": "epoch",
          "type": "uint256"
        },
        {
          "internalType": "uint256",
          "name": "validatorID",
          "type": "uint256"
        }
      ],
      "name": "getEpochAccumulatedRewardPerToken",
      "outputs": [
        {
          "internalType": "uint256",
          "name": "",
          "type": "uint256"
        }
      ],
      "payable": false,
      "stateMutability": "view",
      "type": "function"
    },
    {
      "constant": true,
      "inputs": [
        {
          "internalType": "uint256",
          "name": "epoch",
          "type": "uint256"
        },
        {
          "internalType": "uint256",
          "name": "validatorID",
          "type": "uint256"
        }
      ],
      "name": "getEpochAccumulatedUptime",
      "outputs": [
        {
          "internalType": "uint256",
          "name": "",
          "type": "uint256"
        }
      ],
      "payable": false,
      "stateMutability": "view",
      "type": "function"
    },
    {
      "constant": true,
      "inputs": [
        {
          "internalType": "uint256",
          "name": "epoch",
          "type": "uint256"
        },
        {
          "internalType": "uint256",
          "name": "validatorID",
          "type": "uint256"
        }
      ],
      "name": "getEpochOfflineBlocks",
      "outputs": [
        {
          "internalType": "uint256",
          "name": "",
          "type": "uint256"
        }
      ],
      "payable": false,
      "stateMutability": "view",
      "type": "function"
    },
    {
      "constant": true,
      "inputs": [
        {
          "internalType": "uint256",
          "name": "epoch",
          "type": "uint256"
        },
        {
          "internalType": "uint256",
          "name": "validatorID",
          "type": "uint256"
        }
      ],
      "name": "getEpochOfflineTime",
      "outputs": [
        {
          "internalType": "uint256",
          "name": "",
          "type": "uint256"
        }
      ],
      "payable": false,
      "stateMutability": "view",
      "type": "function"
    },
    {
      "constant": true,
      "inputs": [
        {
          "internalType": "uint256",
          "name": "epoch",
          "type": "uint256"
        },
        {
          "internalType": "uint256",
          "name": "validatorID",
          "type": "uint256"
        }
      ],
      "name": "getEpochReceivedStake",
      "outputs": [
        {
          "internalType": "uint256",
          "name": "",
          "type": "uint256"
        }
      ],
      "payable": false,
      "stateMutability": "view",
      "type": "function"
    },
    {
      "constant": true,
      "inputs": [
        {
          "internalType": "uint256",
          "name": "",
          "type": "uint256"
        }
      ],
      "name": "getEpochSnapshot",
      "outputs": [
        {
          "internalType": "uint256",
          "name": "endTime",
          "type": "uint256"
        },
        {
          "internalType": "uint256",
          "name": "epochFee",
          "type": "uint256"
        },
        {
          "internalType": "uint256",
          "name": "totalBaseRewardWeight",
          "type": "uint256"
        },
        {
          "internalType": "uint256",
          "name": "totalTxRewardWeight",
          "type": "uint256"
        },
        {
          "internalType": "uint256",
          "name": "baseRewardPerSecond",
          "type": "uint256"
        },
        {
          "internalType": "uint256",
          "name": "totalStake",
          "type": "uint256"
        },
        {
          "internalType": "uint256",
          "name": "totalSupply",
          "type": "uint256"
        }
      ],
      "payable": false,
      "stateMutability": "view",
      "type": "function"
    },
    {
      "constant": true,
      "inputs": [
        {
          "internalType": "uint256",
          "name": "epoch",
          "type": "uint256"
        }
      ],
      "name": "getEpochValidatorIDs",
      "outputs": [
        {
          "internalType": "uint256[]",
          "name": "",
          "type": "uint256[]"
        }
      ],
      "payable": false,
      "stateMutability": "view",
      "type": "function"
    },
    {
      "constant": true,
      "inputs": [],
      "name": "getGovernance",
      "outputs": [
        {
          "internalType": "address",
          "name": "",
          "type": "address"
        }
      ],
      "payable": false,
      "stateMutability": "view",
      "type": "function"
    },
    {
      "constant": true,
      "inputs": [
        {
          "internalType": "address",
          "name": "delegator",
          "type": "address"
        },
        {
          "internalType": "uint256",
          "name": "toValidatorID",
          "type": "uint256"
        }
      ],
      "name": "getLockedStake",
      "outputs": [
        {
          "internalType": "uint256",
          "name": "",
          "type": "uint256"
        }
      ],
      "payable": false,
      "stateMutability": "view",
      "type": "function"
    },
    {
      "constant": true,
      "inputs": [
        {
          "internalType": "address",
          "name": "",
          "type": "address"
        },
        {
          "internalType": "uint256",
          "name": "",
          "type": "uint256"
        }
      ],
      "name": "getLockupInfo",
      "outputs": [
        {
          "internalType": "uint256",
          "name": "lockedStake",
          "type": "uint256"
        },
        {
          "internalType": "uint256",
          "name": "fromEpoch",
          "type": "uint256"
        },
        {
          "internalType": "uint256",
          "name": "endTime",
          "type": "uint256"
        },
        {
          "internalType": "uint256",
          "name": "duration",
          "type": "uint256"
        }
      ],
      "payable": false,
      "stateMutability": "view",
      "type": "function"
    },
    {
      "constant": true,
      "inputs": [
        {
          "internalType": "uint256",
          "name": "validatorID",
          "type": "uint256"
        }
      ],
      "name": "getSelfStake",
      "outputs": [
        {
          "internalType": "uint256",
          "name": "",
          "type": "uint256"
        }
      ],
      "payable": false,
      "stateMutability": "view",
      "type": "function"
    },
    {
      "constant": true,
      "inputs": [
        {
          "internalType": "address",
          "name": "",
          "type": "address"
        },
        {
          "internalType": "uint256",
          "name": "",
          "type": "uint256"
        }
      ],
      "name": "getStake",
      "outputs": [
        {
          "internalType": "uint256",
          "name": "",
          "type": "uint256"
        }
      ],
      "payable": false,
      "stateMutability": "view",
      "type": "function"
    },
    {
      "constant": true,
      "inputs": [
        {
          "internalType": "address",
          "name": "",
          "type": "address"
        },
        {
          "internalType": "uint256",
          "name": "",
          "type": "uint256"
        }
      ],
      "name": "getStashedLockupRewards",
      "outputs": [
        {
          "internalType": "uint256",
          "name": "lockupExtraReward",
          "type": "uint256"
        },
        {
          "internalType": "uint256",
          "name": "lockupBaseReward",
          "type": "uint256"
        },
        {
          "internalType": "uint256",
          "name": "unlockedReward",
          "type": "uint256"
        }
      ],
      "payable": false,
      "stateMutability": "view",
      "type": "function"
    },
    {
      "constant": true,
      "inputs": [
        {
          "internalType": "address",
          "name": "delegator",
          "type": "address"
        },
        {
          "internalType": "uint256",
          "name": "toValidatorID",
          "type": "uint256"
        }
      ],
      "name": "getUnlockedStake",
      "outputs": [
        {
          "internalType": "uint256",
          "name": "",
          "type": "uint256"
        }
      ],
      "payable": false,
      "stateMutability": "view",
      "type": "function"
    },
    {
      "constant": true,
      "inputs": [
        {
          "internalType": "uint256",
          "name": "",
          "type": "uint256"
        }
      ],
      "name": "getValidator",
      "outputs": [
        {
          "internalType": "uint256",
          "name": "status",
          "type": "uint256"
        },
        {
          "internalType": "uint256",
          "name": "deactivatedTime",
          "type": "uint256"
        },
        {
          "internalType": "uint256",
          "name": "deactivatedEpoch",
          "type": "uint256"
        },
        {
          "internalType": "uint256",
          "name": "receivedStake",
          "type": "uint256"
        },
        {
          "internalType": "uint256",
          "name": "createdEpoch",
          "type": "uint256"
        },
        {
          "internalType": "uint256",
          "name": "createdTime",
          "type": "uint256"
        },
        {
          "internalType": "address",
          "name": "auth",
          "type": "address"
        }
      ],
      "payable": false,
      "stateMutability": "view",
      "type": "function"
    },
    {
      "constant": true,
      "inputs": [
        {
          "internalType": "address",
          "name": "",
          "type": "address"
        }
      ],
      "name": "getValidatorID",
      "outputs": [
        {
          "internalType": "uint256",
          "name": "",
          "type": "uint256"
        }
      ],
      "payable": false,
      "stateMutability": "view",
      "type": "function"
    },
    {
      "constant": true,
      "inputs": [
        {
          "internalType": "uint256",
          "name": "",
          "type": "uint256"
        }
      ],
      "name": "getValidatorPubkey",
      "outputs": [
        {
          "internalType": "bytes",
          "name": "",
          "type": "bytes"
        }
      ],
      "payable": false,
      "stateMutability": "view",
      "type": "function"
    },
    {
      "constant": true,
      "inputs": [
        {
          "internalType": "address",
          "name": "",
          "type": "address"
        },
        {
          "internalType": "uint256",
          "name": "",
          "type": "uint256"
        },
        {
          "internalType": "uint256",
          "name": "",
          "type": "uint256"
        }
      ],
      "name": "getWithdrawalRequest",
      "outputs": [
        {
          "internalType": "uint256",
          "name": "epoch",
          "type": "uint256"
        },
        {
          "internalType": "uint256",
          "name": "time",
          "type": "uint256"
        },
        {
          "internalType": "uint256",
          "name": "amount",
          "type": "uint256"
        }
      ],
      "payable": false,
      "stateMutability": "view",
      "type": "function"
    },
    {
      "constant": false,
      "inputs": [
        {
          "internalType": "uint256",
          "name": "sealedEpoch",
          "type": "uint256"
        },
        {
          "internalType": "uint256",
          "name": "_totalSupply",
          "type": "uint256"
        },
        {
          "internalType": "address",
          "name": "nodeDriver",
          "type": "address"
        },
        {
          "internalType": "address",
          "name": "owner",
          "type": "address"
        },
        {
          "internalType": "address",
          "name": "governance",
          "type": "address"
        }
      ],
      "name": "initialize",
      "outputs": [],
      "payable": false,
      "stateMutability": "nonpayable",
      "type": "function"
    },
    {
      "constant": true,
      "inputs": [
        {
          "internalType": "address",
          "name": "delegator",
          "type": "address"
        },
        {
          "internalType": "uint256",
          "name": "toValidatorID",
          "type": "uint256"
        }
      ],
      "name": "isLockedUp",
      "outputs": [
        {
          "internalType": "bool",
          "name": "",
          "type": "bool"
        }
      ],
      "payable": false,
      "stateMutability": "view",
      "type": "function"
    },
    {
      "constant": true,
      "inputs": [],
      "name": "isOwner",
      "outputs": [
        {
          "internalType": "bool",
          "name": "",
          "type": "bool"
        }
      ],
      "payable": false,
      "stateMutability": "view",
      "type": "function"
    },
    {
      "constant": true,
      "inputs": [
        {
          "internalType": "uint256",
          "name": "validatorID",
          "type": "uint256"
        }
      ],
      "name": "isSlashed",
      "outputs": [
        {
          "internalType": "bool",
          "name": "",
          "type": "bool"
        }
      ],
      "payable": false,
      "stateMutability": "view",
      "type": "function"
    },
    {
      "constant": true,
      "inputs": [],
      "name": "lastValidatorID",
      "outputs": [
        {
          "internalType": "uint256",
          "name": "",
          "type": "uint256"
        }
      ],
      "payable": false,
      "stateMutability": "view",
      "type": "function"
    },
    {
      "constant": false,
      "inputs": [
        {
          "internalType": "uint256",
          "name": "toValidatorID",
          "type": "uint256"
        },
        {
          "internalType": "uint256",
          "name": "lockupDuration",
          "type": "uint256"
        },
        {
          "internalType": "uint256",
          "name": "amount",
          "type": "uint256"
        }
      ],
      "name": "lockStake",
      "outputs": [],
      "payable": false,
      "stateMutability": "nonpayable",
      "type": "function"
    },
    {
      "constant": true,
      "inputs": [],
      "name": "maxDelegatedRatio",
      "outputs": [
        {
          "internalType": "uint256",
          "name": "",
          "type": "uint256"
        }
      ],
      "payable": false,
      "stateMutability": "view",
      "type": "function"
    },
    {
      "constant": true,
      "inputs": [],
      "name": "maxLockupDuration",
      "outputs": [
        {
          "internalType": "uint256",
          "name": "",
          "type": "uint256"
        }
      ],
      "payable": false,
      "stateMutability": "view",
      "type": "function"
    },
    {
      "constant": true,
      "inputs": [],
      "name": "minLockupDuration",
      "outputs": [
        {
          "internalType": "uint256",
          "name": "",
          "type": "uint256"
        }
      ],
      "payable": false,
      "stateMutability": "view",
      "type": "function"
    },
    {
      "constant": true,
      "inputs": [],
      "name": "minSelfStake",
      "outputs": [
        {
          "internalType": "uint256",
          "name": "",
          "type": "uint256"
        }
      ],
      "payable": false,
      "stateMutability": "view",
      "type": "function"
    },
    {
      "constant": false,
      "inputs": [
        {
          "internalType": "address payable",
          "name": "receiver",
          "type": "address"
        },
        {
          "internalType": "uint256",
          "name": "amount",
          "type": "uint256"
        },
        {
          "internalType": "string",
          "name": "justification",
          "type": "string"
        }
      ],
      "name": "mintFTM",
      "outputs": [],
      "payable": false,
      "stateMutability": "nonpayable",
      "type": "function"
    },
    {
      "constant": true,
      "inputs": [],
      "name": "offlinePenaltyThreshold",
      "outputs": [
        {
          "internalType": "uint256",
          "name": "blocksNum",
          "type": "uint256"
        },
        {
          "internalType": "uint256",
          "name": "time",
          "type": "uint256"
        }
      ],
      "payable": false,
      "stateMutability": "view",
      "type": "function"
    },
    {
      "constant": true,
      "inputs": [],
      "name": "owner",
      "outputs": [
        {
          "internalType": "address",
          "name": "",
          "type": "address"
        }
      ],
      "payable": false,
      "stateMutability": "view",
      "type": "function"
    },
    {
      "constant": true,
      "inputs": [
        {
          "internalType": "address",
          "name": "delegator",
          "type": "address"
        },
        {
          "internalType": "uint256",
          "name": "toValidatorID",
          "type": "uint256"
        }
      ],
      "name": "pendingRewards",
      "outputs": [
        {
          "internalType": "uint256",
          "name": "",
          "type": "uint256"
        }
      ],
      "payable": false,
      "stateMutability": "view",
      "type": "function"
    },
    {
      "constant": false,
      "inputs": [
        {
          "internalType": "uint256",
          "name": "toValidatorID",
          "type": "uint256"
        },
        {
          "internalType": "uint256",
          "name": "lockupDuration",
          "type": "uint256"
        },
        {
          "internalType": "uint256",
          "name": "amount",
          "type": "uint256"
        }
      ],
      "name": "relockStake",
      "outputs": [],
      "payable": false,
      "stateMutability": "nonpayable",
      "type": "function"
    },
    {
      "constant": false,
      "inputs": [],
      "name": "renounceOwnership",
      "outputs": [],
      "payable": false,
      "stateMutability": "nonpayable",
      "type": "function"
    },
    {
      "constant": false,
      "inputs": [
        {
          "internalType": "uint256",
          "name": "toValidatorID",
          "type": "uint256"
        }
      ],
      "name": "restakeRewards",
      "outputs": [],
      "payable": false,
      "stateMutability": "nonpayable",
      "type": "function"
    },
    {
      "constant": true,
      "inputs": [
        {
          "internalType": "address",
          "name": "delegator",
          "type": "address"
        },
        {
          "internalType": "uint256",
          "name": "validatorID",
          "type": "uint256"
        }
      ],
      "name": "rewardsStash",
      "outputs": [
        {
          "internalType": "uint256",
          "name": "",
          "type": "uint256"
        }
      ],
      "payable": false,
      "stateMutability": "view",
      "type": "function"
    },
    {
      "constant": false,
      "inputs": [
        {
          "internalType": "uint256[]",
          "name": "offlineTime",
          "type": "uint256[]"
        },
        {
          "internalType": "uint256[]",
          "name": "offlineBlocks",
          "type": "uint256[]"
        },
        {
          "internalType": "uint256[]",
          "name": "uptimes",
          "type": "uint256[]"
        },
        {
          "internalType": "uint256[]",
          "name": "originatedTxsFee",
          "type": "uint256[]"
        }
      ],
      "name": "sealEpoch",
      "outputs": [],
      "payable": false,
      "stateMutability": "nonpayable",
      "type": "function"
    },
    {
      "constant": false,
      "inputs": [
        {
          "internalType": "uint256[]",
          "name": "nextValidatorIDs",
          "type": "uint256[]"
        }
      ],
      "name": "sealEpochValidators",
      "outputs": [],
      "payable": false,
      "stateMutability": "nonpayable",
      "type": "function"
    },
    {
      "constant": false,
      "inputs": [
        {
          "internalType": "uint256",
          "name": "_contractCommission",
          "type": "uint256"
        }
      ],
      "name": "setContractCommission",
      "outputs": [],
      "payable": false,
      "stateMutability": "nonpayable",
      "type": "function"
    },
    {
      "constant": false,
      "inputs": [
        {
          "internalType": "address",
          "name": "delegator",
          "type": "address"
        },
        {
          "internalType": "uint256",
          "name": "toValidatorID",
          "type": "uint256"
        },
        {
          "internalType": "uint256",
          "name": "stake",
          "type": "uint256"
        },
        {
          "internalType": "uint256",
          "name": "lockedStake",
          "type": "uint256"
        },
        {
          "internalType": "uint256",
          "name": "lockupFromEpoch",
          "type": "uint256"
        },
        {
          "internalType": "uint256",
          "name": "lockupEndTime",
          "type": "uint256"
        },
        {
          "internalType": "uint256",
          "name": "lockupDuration",
          "type": "uint256"
        },
        {
          "internalType": "uint256",
          "name": "earlyUnlockPenalty",
          "type": "uint256"
        },
        {
          "internalType": "uint256",
          "name": "rewards",
          "type": "uint256"
        }
      ],
      "name": "setGenesisDelegation",
      "outputs": [],
      "payable": false,
      "stateMutability": "nonpayable",
      "type": "function"
    },
    {
      "constant": false,
      "inputs": [
        {
          "internalType": "address",
          "name": "auth",
          "type": "address"
        },
        {
          "internalType": "uint256",
          "name": "validatorID",
          "type": "uint256"
        },
        {
          "internalType": "bytes",
          "name": "pubkey",
          "type": "bytes"
        },
        {
          "internalType": "uint256",
          "name": "status",
          "type": "uint256"
        },
        {
          "internalType": "uint256",
          "name": "createdEpoch",
          "type": "uint256"
        },
        {
          "internalType": "uint256",
          "name": "createdTime",
          "type": "uint256"
        },
        {
          "internalType": "uint256",
          "name": "deactivatedEpoch",
          "type": "uint256"
        },
        {
          "internalType": "uint256",
          "name": "deactivatedTime",
          "type": "uint256"
        }
      ],
      "name": "setGenesisValidator",
      "outputs": [],
      "payable": false,
      "stateMutability": "nonpayable",
      "type": "function"
    },
    {
      "constant": false,
      "inputs": [
        {
          "internalType": "uint256",
          "name": "_maxDelegationRatio",
          "type": "uint256"
        }
      ],
      "name": "setMaxDelegation",
      "outputs": [],
      "payable": false,
      "stateMutability": "nonpayable",
      "type": "function"
    },
    {
      "constant": false,
      "inputs": [
        {
          "internalType": "uint256",
          "name": "_maxLockupDuration",
          "type": "uint256"
        }
      ],
      "name": "setMaxLockupDuration",
      "outputs": [],
      "payable": false,
      "stateMutability": "nonpayable",
      "type": "function"
    },
    {
      "constant": false,
      "inputs": [
        {
          "internalType": "uint256",
          "name": "_minLockupDuration",
          "type": "uint256"
        }
      ],
      "name": "setMinLockupDuration",
      "outputs": [],
      "payable": false,
      "stateMutability": "nonpayable",
      "type": "function"
    },
    {
      "constant": false,
      "inputs": [
        {
          "internalType": "uint256",
          "name": "_minSelfStake",
          "type": "uint256"
        }
      ],
      "name": "setMinSelfStake",
      "outputs": [],
      "payable": false,
      "stateMutability": "nonpayable",
      "type": "function"
    },
    {
      "constant": false,
      "inputs": [
        {
          "internalType": "uint256",
          "name": "_unlockedReward",
          "type": "uint256"
        }
      ],
      "name": "setUnlockedRewardRatio",
      "outputs": [],
      "payable": false,
      "stateMutability": "nonpayable",
      "type": "function"
    },
    {
      "constant": false,
      "inputs": [
        {
          "internalType": "uint256",
          "name": "_validatorCommission",
          "type": "uint256"
        }
      ],
      "name": "setValidatorCommission",
      "outputs": [],
      "payable": false,
      "stateMutability": "nonpayable",
      "type": "function"
    },
    {
      "constant": false,
      "inputs": [
        {
          "internalType": "uint256",
          "name": "_withdrawalPeriodEpochs",
          "type": "uint256"
        }
      ],
      "name": "setWithdrawalPeriodEpoch",
      "outputs": [],
      "payable": false,
      "stateMutability": "nonpayable",
      "type": "function"
    },
    {
      "constant": false,
      "inputs": [
        {
          "internalType": "uint256",
          "name": "_withdrawalPeriodTime",
          "type": "uint256"
        }
      ],
      "name": "setWithdrawalPeriodTime",
      "outputs": [],
      "payable": false,
      "stateMutability": "nonpayable",
      "type": "function"
    },
    {
      "constant": true,
      "inputs": [
        {
          "internalType": "uint256",
          "name": "",
          "type": "uint256"
        }
      ],
      "name": "slashingRefundRatio",
      "outputs": [
        {
          "internalType": "uint256",
          "name": "",
          "type": "uint256"
        }
      ],
      "payable": false,
      "stateMutability": "view",
      "type": "function"
    },
    {
      "constant": true,
      "inputs": [],
      "name": "stakeTokenizerAddress",
      "outputs": [
        {
          "internalType": "address",
          "name": "",
          "type": "address"
        }
      ],
      "payable": false,
      "stateMutability": "view",
      "type": "function"
    },
    {
      "constant": false,
      "inputs": [
        {
          "internalType": "address",
          "name": "delegator",
          "type": "address"
        },
        {
          "internalType": "uint256",
          "name": "toValidatorID",
          "type": "uint256"
        }
      ],
      "name": "stashRewards",
      "outputs": [],
      "payable": false,
      "stateMutability": "nonpayable",
      "type": "function"
    },
    {
      "constant": true,
      "inputs": [
        {
          "internalType": "address",
          "name": "",
          "type": "address"
        },
        {
          "internalType": "uint256",
          "name": "",
          "type": "uint256"
        }
      ],
      "name": "stashedRewardsUntilEpoch",
      "outputs": [
        {
          "internalType": "uint256",
          "name": "",
          "type": "uint256"
        }
      ],
      "payable": false,
      "stateMutability": "view",
      "type": "function"
    },
    {
      "constant": true,
      "inputs": [],
      "name": "totalActiveStake",
      "outputs": [
        {
          "internalType": "uint256",
          "name": "",
          "type": "uint256"
        }
      ],
      "payable": false,
      "stateMutability": "view",
      "type": "function"
    },
    {
      "constant": true,
      "inputs": [],
      "name": "totalSlashedStake",
      "outputs": [
        {
          "internalType": "uint256",
          "name": "",
          "type": "uint256"
        }
      ],
      "payable": false,
      "stateMutability": "view",
      "type": "function"
    },
    {
      "constant": true,
      "inputs": [],
      "name": "totalStake",
      "outputs": [
        {
          "internalType": "uint256",
          "name": "",
          "type": "uint256"
        }
      ],
      "payable": false,
      "stateMutability": "view",
      "type": "function"
    },
    {
      "constant": true,
      "inputs": [],
      "name": "totalSupply",
      "outputs": [
        {
          "internalType": "uint256",
          "name": "",
          "type": "uint256"
        }
      ],
      "payable": false,
      "stateMutability": "view",
      "type": "function"
    },
    {
      "constant": false,
      "inputs": [
        {
          "internalType": "address",
          "name": "newOwner",
          "type": "address"
        }
      ],
      "name": "transferOwnership",
      "outputs": [],
      "payable": false,
      "stateMutability": "nonpayable",
      "type": "function"
    },
    {
      "constant": false,
      "inputs": [
        {
          "internalType": "uint256",
          "name": "toValidatorID",
          "type": "uint256"
        },
        {
          "internalType": "uint256",
          "name": "wrID",
          "type": "uint256"
        },
        {
          "internalType": "uint256",
          "name": "amount",
          "type": "uint256"
        }
      ],
      "name": "undelegate",
      "outputs": [],
      "payable": false,
      "stateMutability": "nonpayable",
      "type": "function"
    },
    {
      "constant": false,
      "inputs": [
        {
          "internalType": "uint256",
          "name": "toValidatorID",
          "type": "uint256"
        },
        {
          "internalType": "uint256",
          "name": "amount",
          "type": "uint256"
        }
      ],
      "name": "unlockStake",
      "outputs": [
        {
          "internalType": "uint256",
          "name": "",
          "type": "uint256"
        }
      ],
      "payable": false,
      "stateMutability": "nonpayable",
      "type": "function"
    },
    {
      "constant": true,
      "inputs": [],
      "name": "unlockedRewardRatio",
      "outputs": [
        {
          "internalType": "uint256",
          "name": "",
          "type": "uint256"
        }
      ],
      "payable": false,
      "stateMutability": "view",
      "type": "function"
    },
    {
      "constant": false,
      "inputs": [
        {
          "internalType": "uint256",
          "name": "value",
          "type": "uint256"
        }
      ],
      "name": "updateBaseRewardPerSecond",
      "outputs": [],
      "payable": false,
      "stateMutability": "nonpayable",
      "type": "function"
    },
    {
      "constant": false,
      "inputs": [
        {
          "internalType": "address",
          "name": "_governance",
          "type": "address"
        }
      ],
      "name": "updateGovernanceContract",
      "outputs": [],
      "payable": false,
      "stateMutability": "nonpayable",
      "type": "function"
    },
    {
      "constant": false,
      "inputs": [
        {
          "internalType": "uint256",
          "name": "blocksNum",
          "type": "uint256"
        },
        {
          "internalType": "uint256",
          "name": "time",
          "type": "uint256"
        }
      ],
      "name": "updateOfflinePenaltyThreshold",
      "outputs": [],
      "payable": false,
      "stateMutability": "nonpayable",
      "type": "function"
    },
    {
      "constant": false,
      "inputs": [
        {
          "internalType": "uint256",
          "name": "validatorID",
          "type": "uint256"
        },
        {
          "internalType": "uint256",
          "name": "refundRatio",
          "type": "uint256"
        }
      ],
      "name": "updateSlashingRefundRatio",
      "outputs": [],
      "payable": false,
      "stateMutability": "nonpayable",
      "type": "function"
    },
    {
      "constant": false,
      "inputs": [
        {
          "internalType": "address",
          "name": "addr",
          "type": "address"
        }
      ],
      "name": "updateStakeTokenizerAddress",
      "outputs": [],
      "payable": false,
      "stateMutability": "nonpayable",
      "type": "function"
    },
    {
      "constant": false,
      "inputs": [
        {
          "internalType": "int256",
          "name": "diff",
          "type": "int256"
        }
      ],
      "name": "updateTotalSupply",
      "outputs": [],
      "payable": false,
      "stateMutability": "nonpayable",
      "type": "function"
    },
    {
      "constant": true,
      "inputs": [],
      "name": "validatorCommission",
      "outputs": [
        {
          "internalType": "uint256",
          "name": "",
          "type": "uint256"
        }
      ],
      "payable": false,
      "stateMutability": "view",
      "type": "function"
    },
    {
      "constant": true,
      "inputs": [],
      "name": "version",
      "outputs": [
        {
          "internalType": "bytes3",
          "name": "",
          "type": "bytes3"
        }
      ],
      "payable": false,
      "stateMutability": "pure",
      "type": "function"
    },
    {
      "constant": false,
      "inputs": [
        {
          "internalType": "uint256",
          "name": "toValidatorID",
          "type": "uint256"
        },
        {
          "internalType": "uint256",
          "name": "wrID",
          "type": "uint256"
        }
      ],
      "name": "withdraw",
      "outputs": [],
      "payable": false,
      "stateMutability": "nonpayable",
      "type": "function"
    },
    {
      "constant": true,
      "inputs": [],
      "name": "withdrawalPeriodEpochs",
      "outputs": [
        {
          "internalType": "uint256",
          "name": "",
          "type": "uint256"
        }
      ],
      "payable": false,
      "stateMutability": "view",
      "type": "function"
    },
    {
      "constant": true,
      "inputs": [],
      "name": "withdrawalPeriodTime",
      "outputs": [
        {
          "internalType": "uint256",
          "name": "",
          "type": "uint256"
        }
      ],
      "payable": false,
      "stateMutability": "view",
      "type": "function"
    }
  ],
  "bytecode": "0x608060405234801561001057600080fd5b5061604580620000216000396000f3fe6080604052600436106104945760003560e01c80637667180811610260578063bd14d90711610144578063d9a7c1f9116100c1578063e261641a11610085578063e261641a146113c1578063e2f8c336146113f1578063e4af78be14611481578063ebdf104c146114ab578063f2fde38b14611616578063f78bf1101461164957610494565b8063d9a7c1f91461129b578063dc31e1af146112b0578063de67f215146112e0578063df00c92214611316578063e08d7e661461134657610494565b8063cc8343aa11610108578063cc8343aa146111a3578063cefe9c18146111d5578063cfd47663146111ff578063cfdbb7cd14611238578063d75629cf1461127157610494565b8063bd14d907146110ef578063c3de580e14611125578063c5f530af1461114f578063c65ee0e114611164578063c7be95de1461118e57610494565b8063a198d229116101dd578063ad9a4b5c116101a1578063ad9a4b5c14610f68578063b5d8962714610f92578063b6d9edd514610ffd578063b810e41114611027578063b82b842714611060578063b88a37e21461107557610494565b8063a198d22914610e49578063a2f6e6bc14610e79578063a5a470ad14610eac578063a778651514610f1a578063a86a056f14610f2f57610494565b80638cddb015116102245780638cddb01514610d565780638da5cb5b14610d8f5780638f32d59b14610da457806396c7ee4614610dcd5780639fa6dd3514610e2c57610494565b80637667180814610c485780637cacb1d614610c5d578063854873e114610c725780638b0e9f3f14610d115780638b1a0d1114610d2657610494565b8063346bdcfb1161038757806358f95b8011610304578063650acd66116102c8578063650acd6614610b4f578063670322f814610b645780636ca6d6bc14610b9d5780636f49866314610bc75780636faf60a014610c00578063715018a614610c3357610494565b806358f95b8014610a8c5780635e2308d214610abc5780635fab23a814610ad15780636099ecb214610ae657806361e53fcc14610b1f57610494565b80634f7c4efb1161034b5780634f7c4efb146109215780634f864df4146109515780634feb92f31461098757806354fd4d5014610a305780635601fe0114610a6257610494565b8063346bdcfb146107ea57806339b80c00146108145780633fbfd4df146108765780634055f273146108c7578063441a3e70146108f157610494565b806318f628d4116104155780632709275e116103d95780632709275e14610753578063289b3c0d1461076857806328f731481461077d5780632cedb097146107925780632d2646ed146107c057610494565b806318f628d41461061c5780631d3ac42c146106815780631e702f83146106b15780631f270152146106e15780632265f2841461073e57610494565b80630d7b26091161045c5780630d7b2609146105735780630e559d8214610588578063109c3d27146105b957806312622d0e146105ce57806318160ddd1461060757610494565b80630135b1db1461049957806303c91ccd146104de57806308c368741461050a5780630962ef79146105345780630d4955e31461055e575b600080fd5b3480156104a557600080fd5b506104cc600480360360208110156104bc57600080fd5b50356001600160a01b0316611673565b60408051918252519081900360200190f35b3480156104ea57600080fd5b506105086004803603602081101561050157600080fd5b5035611685565b005b34801561051657600080fd5b506105086004803603602081101561052d57600080fd5b503561169a565b34801561054057600080fd5b506105086004803603602081101561055757600080fd5b5035611766565b34801561056a57600080fd5b506104cc6118a6565b34801561057f57600080fd5b506104cc6118b1565b34801561059457600080fd5b5061059d6118ba565b604080516001600160a01b039092168252519081900360200190f35b3480156105c557600080fd5b506104cc6118c9565b3480156105da57600080fd5b506104cc600480360360408110156105f157600080fd5b506001600160a01b03813516906020013561194c565b34801561061357600080fd5b506104cc6119d5565b34801561062857600080fd5b50610508600480360361012081101561064057600080fd5b506001600160a01b038135169060208101359060408101359060608101359060808101359060a08101359060c08101359060e08101359061010001356119db565b34801561068d57600080fd5b506104cc600480360360408110156106a457600080fd5b5080359060200135611b3b565b3480156106bd57600080fd5b50610508600480360360408110156106d457600080fd5b5080359060200135611d13565b3480156106ed57600080fd5b506107206004803603606081101561070457600080fd5b506001600160a01b038135169060208101359060400135611db1565b60408051938452602084019290925282820152519081900360600190f35b34801561074a57600080fd5b506104cc611de3565b34801561075f57600080fd5b506104cc611df6565b34801561077457600080fd5b5061059d611e13565b34801561078957600080fd5b506104cc611e22565b34801561079e57600080fd5b506107a7611e28565b6040805192835260208301919091528051918290030190f35b3480156107cc57600080fd5b50610508600480360360208110156107e357600080fd5b5035611e32565b3480156107f657600080fd5b506105086004803603602081101561080d57600080fd5b5035611e44565b34801561082057600080fd5b5061083e6004803603602081101561083757600080fd5b5035611eb0565b604080519788526020880196909652868601949094526060860192909252608085015260a084015260c0830152519081900360e00190f35b34801561088257600080fd5b50610508600480360360a081101561089957600080fd5b508035906020810135906001600160a01b036040820135811691606081013582169160809091013516611ef2565b3480156108d357600080fd5b50610508600480360360208110156108ea57600080fd5b5035612003565b3480156108fd57600080fd5b506105086004803603604081101561091457600080fd5b5080359060200135612015565b34801561092d57600080fd5b506105086004803603604081101561094457600080fd5b5080359060200135612412565b34801561095d57600080fd5b506105086004803603606081101561097457600080fd5b5080359060208101359060400135612544565b34801561099357600080fd5b5061050860048036036101008110156109ab57600080fd5b6001600160a01b0382351691602081013591810190606081016040820135600160201b8111156109da57600080fd5b8201836020820111156109ec57600080fd5b803590602001918460018302840111600160201b83111715610a0d57600080fd5b9193509150803590602081013590604081013590606081013590608001356127bc565b348015610a3c57600080fd5b50610a45612862565b604080516001600160e81b03199092168252519081900360200190f35b348015610a6e57600080fd5b506104cc60048036036020811015610a8557600080fd5b503561286c565b348015610a9857600080fd5b506104cc60048036036040811015610aaf57600080fd5b50803590602001356128a2565b348015610ac857600080fd5b506104cc6128bf565b348015610add57600080fd5b506104cc6128d6565b348015610af257600080fd5b506104cc60048036036040811015610b0957600080fd5b506001600160a01b0381351690602001356128dc565b348015610b2b57600080fd5b506104cc60048036036040811015610b4257600080fd5b508035906020013561291a565b348015610b5b57600080fd5b506104cc61293b565b348015610b7057600080fd5b506104cc60048036036040811015610b8757600080fd5b506001600160a01b038135169060200135612941565b348015610ba957600080fd5b5061050860048036036020811015610bc057600080fd5b5035612982565b348015610bd357600080fd5b506104cc60048036036040811015610bea57600080fd5b506001600160a01b038135169060200135612994565b348015610c0c57600080fd5b5061050860048036036020811015610c2357600080fd5b50356001600160a01b03166129fe565b348015610c3f57600080fd5b50610508612aa1565b348015610c5457600080fd5b506104cc612b32565b348015610c6957600080fd5b506104cc612b3b565b348015610c7e57600080fd5b50610c9c60048036036020811015610c9557600080fd5b5035612b41565b6040805160208082528351818301528351919283929083019185019080838360005b83811015610cd6578181015183820152602001610cbe565b50505050905090810190601f168015610d035780820380516001836020036101000a031916815260200191505b509250505060405180910390f35b348015610d1d57600080fd5b506104cc612bdc565b348015610d3257600080fd5b5061050860048036036040811015610d4957600080fd5b5080359060200135612be2565b348015610d6257600080fd5b5061050860048036036040811015610d7957600080fd5b506001600160a01b038135169060200135612c72565b348015610d9b57600080fd5b5061059d612cc0565b348015610db057600080fd5b50610db9612ccf565b604080519115158252519081900360200190f35b348015610dd957600080fd5b50610e0660048036036040811015610df057600080fd5b506001600160a01b038135169060200135612ce0565b604080519485526020850193909352838301919091526060830152519081900360800190f35b61050860048036036020811015610e4257600080fd5b5035612d12565b348015610e5557600080fd5b506104cc60048036036040811015610e6c57600080fd5b5080359060200135612d1d565b348015610e8557600080fd5b5061050860048036036020811015610e9c57600080fd5b50356001600160a01b0316612d3e565b61050860048036036020811015610ec257600080fd5b810190602081018135600160201b811115610edc57600080fd5b820183602082011115610eee57600080fd5b803590602001918460018302840111600160201b83111715610f0f57600080fd5b509092509050612da7565b348015610f2657600080fd5b506104cc612f29565b348015610f3b57600080fd5b506104cc60048036036040811015610f5257600080fd5b506001600160a01b038135169060200135612f40565b348015610f7457600080fd5b5061050860048036036020811015610f8b57600080fd5b5035612f5d565b348015610f9e57600080fd5b50610fbc60048036036020811015610fb557600080fd5b5035612f6f565b604080519788526020880196909652868601949094526060860192909252608085015260a08401526001600160a01b031660c0830152519081900360e00190f35b34801561100957600080fd5b506105086004803603602081101561102057600080fd5b5035612fb5565b34801561103357600080fd5b506107206004803603604081101561104a57600080fd5b506001600160a01b038135169060200135613095565b34801561106c57600080fd5b506104cc6130c1565b34801561108157600080fd5b5061109f6004803603602081101561109857600080fd5b50356130c7565b60408051602080825283518183015283519192839290830191858101910280838360005b838110156110db5781810151838201526020016110c3565b505050509050019250505060405180910390f35b3480156110fb57600080fd5b506105086004803603606081101561111257600080fd5b508035906020810135906040013561312c565b34801561113157600080fd5b50610db96004803603602081101561114857600080fd5b503561313f565b34801561115b57600080fd5b506104cc613156565b34801561117057600080fd5b506104cc6004803603602081101561118757600080fd5b5035613166565b34801561119a57600080fd5b506104cc613178565b3480156111af57600080fd5b50610508600480360360408110156111c657600080fd5b5080359060200135151561317e565b3480156111e157600080fd5b50610508600480360360208110156111f857600080fd5b5035613360565b34801561120b57600080fd5b506104cc6004803603604081101561122257600080fd5b506001600160a01b038135169060200135613372565b34801561124457600080fd5b50610db96004803603604081101561125b57600080fd5b506001600160a01b03813516906020013561338f565b34801561127d57600080fd5b506105086004803603602081101561129457600080fd5b5035613425565b3480156112a757600080fd5b506104cc613437565b3480156112bc57600080fd5b506104cc600480360360408110156112d357600080fd5b508035906020013561343d565b3480156112ec57600080fd5b506105086004803603606081101561130357600080fd5b508035906020810135906040013561345e565b34801561132257600080fd5b506104cc6004803603604081101561133957600080fd5b50803590602001356134fb565b34801561135257600080fd5b506105086004803603602081101561136957600080fd5b810190602081018135600160201b81111561138357600080fd5b82018360208201111561139557600080fd5b803590602001918460208302840111600160201b831117156113b657600080fd5b50909250905061351c565b3480156113cd57600080fd5b506104cc600480360360408110156113e457600080fd5b50803590602001356135f6565b3480156113fd57600080fd5b506105086004803603606081101561141457600080fd5b6001600160a01b0382351691602081013591810190606081016040820135600160201b81111561144357600080fd5b82018360208201111561145557600080fd5b803590602001918460018302840111600160201b8311171561147657600080fd5b509092509050613617565b34801561148d57600080fd5b50610508600480360360208110156114a457600080fd5b5035613716565b3480156114b757600080fd5b50610508600480360360808110156114ce57600080fd5b810190602081018135600160201b8111156114e857600080fd5b8201836020820111156114fa57600080fd5b803590602001918460208302840111600160201b8311171561151b57600080fd5b919390929091602081019035600160201b81111561153857600080fd5b82018360208201111561154a57600080fd5b803590602001918460208302840111600160201b8311171561156b57600080fd5b919390929091602081019035600160201b81111561158857600080fd5b82018360208201111561159a57600080fd5b803590602001918460208302840111600160201b831117156115bb57600080fd5b919390929091602081019035600160201b8111156115d857600080fd5b8201836020820111156115ea57600080fd5b803590602001918460208302840111600160201b8311171561160b57600080fd5b509092509050613728565b34801561162257600080fd5b506105086004803603602081101561163957600080fd5b50356001600160a01b0316613904565b34801561165557600080fd5b506105086004803603602081101561166c57600080fd5b5035613954565b606a6020526000908152604090205481565b61168e33613966565b611697816139e0565b50565b336116a3615d45565b6116ad8284613a1b565b602081015181519192506000916116c99163ffffffff613b0f16565b90506116ec83856116e7856040015185613b0f90919063ffffffff16565b613b69565b6001600160a01b0383166000818152607460209081526040808320888452825291829020805485019055845185820151868401518451928352928201528083019190915290518692917f4119153d17a36f9597d40e3ab4148d03261a439dddbec4e91799ab7159608e26919081900360600190a350505050565b3361176f615d45565b6117798284613a1b565b90506000826001600160a01b03166117b683604001516117aa85602001518660000151613b0f90919063ffffffff16565b9063ffffffff613b0f16565b604051600081818185875af1925050503d80600081146117f2576040519150601f19603f3d011682016040523d82523d6000602084013e6117f7565b606091505b5050905080611842576040805162461bcd60e51b81526020600482015260126024820152714661696c656420746f2073656e642046544d60701b604482015290519081900360640190fd5b83836001600160a01b03167fc1d8eb6e444b89fb8ff0991c19311c070df704ccb009e210d1462d5b2410bf4584600001518560200151866040015160405180848152602001838152602001828152602001935050505060405180910390a350505050565b60815461016d025b90565b608054600e0290565b6085546001600160a01b031681565b600080606660009054906101000a90046001600160a01b03166001600160a01b0316635584c4f96040518163ffffffff1660e01b815260040160206040518083038186803b15801561191a57600080fd5b505afa15801561192e573d6000803e3d6000fd5b505050506040513d602081101561194457600080fd5b505191505090565b6000611958838361338f565b61198657506001600160a01b03821660009081526073602090815260408083208484529091529020546119cf565b6001600160a01b0383166000818152607460209081526040808320868452825280832054938352607382528083208684529091529020546119cc9163ffffffff613c6616565b90505b92915050565b60775481565b6119e433613ca8565b611a1f5760405162461bcd60e51b8152600401808060200182810382526029815260200180615e966029913960400191505060405180910390fd5b611a2a898989613cbc565b6001600160a01b03891660009081526070602090815260408083208b84529091529020600201819055611a5c87613e21565b8515611b305786861115611aa15760405162461bcd60e51b815260040180806020018281038252602c815260200180615fe5602c913960400191505060405180910390fd5b6001600160a01b03891660008181526074602090815260408083208c845282528083208a8155600181018a90556002810189905560038101889055848452607583528184208d855283529281902086905580518781529182018a9052805192938c9390927f138940e95abffcd789b497bf6188bba3afa5fbd22fb5c42c2f6018d1bf0f4e7892908290030190a3505b505050505050505050565b336000818152607460209081526040808320868452909152812090919083611b98576040805162461bcd60e51b815260206004820152600b60248201526a1e995c9bc8185b5bdd5b9d60aa1b604482015290519081900360640190fd5b611ba2828661338f565b611be3576040805162461bcd60e51b815260206004820152600d60248201526c06e6f74206c6f636b656420757609c1b604482015290519081900360640190fd5b8054841115611c39576040805162461bcd60e51b815260206004820152601760248201527f6e6f7420656e6f756768206c6f636b6564207374616b65000000000000000000604482015290519081900360640190fd5b611c438286613ea6565b611c8f576040805162461bcd60e51b81526020600482015260186024820152776f75747374616e64696e67207346544d2062616c616e636560401b604482015290519081900360640190fd5b611c998286613f48565b506000611cac8387878560000154614113565b825486900383559050611cc0838783614244565b85836001600160a01b03167fef6c0c14fe9aa51af36acd791464dec3badbde668b63189b47bfa4e25be9b2b98784604051808381526020018281526020019250505060405180910390a395945050505050565b611d1c33613ca8565b611d575760405162461bcd60e51b8152600401808060200182810382526029815260200180615e966029913960400191505060405180910390fd5b80611d98576040805162461bcd60e51b815260206004820152600c60248201526b77726f6e672073746174757360a01b604482015290519081900360640190fd5b611da28282614394565b611dad82600061317e565b5050565b607260209081526000938452604080852082529284528284209052825290208054600182015460029092015490919083565b6000611ded6144be565b607c5402905090565b60006064611e026144be565b607e540281611e0d57fe5b04905090565b6066546001600160a01b031690565b606e5481565b607954607a549091565b611e3b33613966565b611697816144ca565b611e4c612ccf565b611e8b576040805162461bcd60e51b81526020600482018190526024820152600080516020615ee0833981519152604482015290519081900360640190fd5b60008112611ea0576077805482019055611697565b6077805460008390039003905550565b607860205280600052604060002060009150905080600701549080600801549080600901549080600a01549080600b01549080600c01549080600d0154905087565b600054610100900460ff1680611f0b5750611f0b614505565b80611f19575060005460ff16155b611f545760405162461bcd60e51b815260040180806020018281038252602e815260200180615f00602e913960400191505060405180910390fd5b600054610100900460ff16158015611f7f576000805460ff1961ff0019909116610100171660011790555b611f888361450b565b611f91826145fc565b6068869055606780546001600160a01b0319166001600160a01b03861617905560778590556755cfe697852e904c6076556103e86079556203f480607a55611fd76146e7565b6000878152607860205260409020600701558015611ffb576000805461ff00191690555b505050505050565b61200c33613966565b611697816146eb565b3361201e615d45565b506001600160a01b0381166000908152607260209081526040808320868452825280832085845282529182902082516060810184528154808252600183015493820193909352600290910154928101929092526120ba576040805162461bcd60e51b81526020600482015260156024820152741c995c5d595cdd08191bd95cdb89dd08195e1a5cdd605a1b604482015290519081900360640190fd5b6120c48285613ea6565b612110576040805162461bcd60e51b81526020600482015260186024820152776f75747374616e64696e67207346544d2062616c616e636560401b604482015290519081900360640190fd5b6020808201518251600087815260699093526040909220600101549091901580159061214c575060008681526069602052604090206001015482115b1561216d575050600084815260696020526040902060018101546002909101545b6121756130c1565b820161217f6146e7565b10156121cb576040805162461bcd60e51b81526020600482015260166024820152751b9bdd08195b9bdd59da081d1a5b59481c185cdcd95960521b604482015290519081900360640190fd5b6121d361293b565b81016121dd612b32565b1015612230576040805162461bcd60e51b815260206004820152601860248201527f6e6f7420656e6f7567682065706f636873207061737365640000000000000000604482015290519081900360640190fd5b6001600160a01b03841660009081526072602090815260408083208984528252808320888452909152812060020154906122698861313f565b9050600061228b8383608460008d815260200190815260200160002054614726565b6001600160a01b03881660009081526072602090815260408083208d845282528083208c845290915281208181556001810182905560020155606f805482019055905080831161231b576040805162461bcd60e51b81526020600482015260166024820152751cdd185ad9481a5cc8199d5b1b1e481cdb185cda195960521b604482015290519081900360640190fd5b60006001600160a01b038816612337858463ffffffff613c6616565b604051600081818185875af1925050503d8060008114612373576040519150601f19603f3d011682016040523d82523d6000602084013e612378565b606091505b50509050806123c3576040805162461bcd60e51b81526020600482015260126024820152714661696c656420746f2073656e642046544d60701b604482015290519081900360640190fd5b888a896001600160a01b03167f75e161b3e824b114fc1a33274bd7091918dd4e639cede50b78b15a4eea956a21876040518082815260200191505060405180910390a450505050505050505050565b61241a612ccf565b612459576040805162461bcd60e51b81526020600482018190526024820152600080516020615ee0833981519152604482015290519081900360640190fd5b6124628261313f565b6124b3576040805162461bcd60e51b815260206004820152601760248201527f76616c696461746f722069736e277420736c6173686564000000000000000000604482015290519081900360640190fd5b6124bb6144be565b8111156124f95760405162461bcd60e51b8152600401808060200182810382526021815260200180615f736021913960400191505060405180910390fd5b6000828152608460209081526040918290208390558151838152915184927f047575f43f09a7a093d94ec483064acfc61b7e25c0de28017da442abf99cb91792908290030190a25050565b3361254f8185613f48565b5060008211612593576040805162461bcd60e51b815260206004820152600b60248201526a1e995c9bc8185b5bdd5b9d60aa1b604482015290519081900360640190fd5b61259d818561194c565b8211156125f1576040805162461bcd60e51b815260206004820152601960248201527f6e6f7420656e6f75676820756e6c6f636b6564207374616b6500000000000000604482015290519081900360640190fd5b6125fb8185613ea6565b612647576040805162461bcd60e51b81526020600482015260186024820152776f75747374616e64696e67207346544d2062616c616e636560401b604482015290519081900360640190fd5b6001600160a01b03811660009081526072602090815260408083208784528252808320868452909152902060020154156126be576040805162461bcd60e51b81526020600482015260136024820152727772494420616c72656164792065786973747360681b604482015290519081900360640190fd5b6126c9818584614244565b6001600160a01b038116600090815260726020908152604080832087845282528083208684529091529020600201829055612702612b32565b6001600160a01b038216600090815260726020908152604080832088845282528083208784529091529020556127366146e7565b6001600160a01b0382166000908152607260209081526040808320888452825280832087845290915281206001019190915561277390859061317e565b8284826001600160a01b03167fd3bb4e423fbea695d16b982f9f682dc5f35152e5411646a8a5a79a6b02ba8d57856040518082815260200191505060405180910390a450505050565b6127c533613ca8565b6128005760405162461bcd60e51b8152600401808060200182810382526029815260200180615e966029913960400191505060405180910390fd5b612848898989898080601f0160208091040260200160405190810160405280939291908181526020018383808284376000920191909152508b92508a91508990508888614788565b606c54881115611b3057606c889055505050505050505050565b6219981960e91b90565b6000818152606960209081526040808320600601546001600160a01b03168352607382528083208484529091529020545b919050565b600091825260786020908152604080842092845291905290205490565b600060646128cb6144be565b607f540281611e0d57fe5b606f5481565b60006128e6615d45565b6128f08484614937565b805160208201516040830151929350612912926117aa9163ffffffff613b0f16565b949350505050565b60009182526078602090815260408084209284526001909201905290205490565b60825490565b600061294d838361338f565b612959575060006119cf565b506001600160a01b03919091166000908152607460209081526040808320938352929052205490565b61298b33613966565b611697816149a5565b600061299e615d45565b506001600160a01b0383166000908152607060209081526040808320858452825291829020825160608101845281548082526001830154938201849052600290920154938101849052926129129290916117aa919063ffffffff613b0f16565b612a06612ccf565b612a45576040805162461bcd60e51b81526020600482018190526024820152600080516020615ee0833981519152604482015290519081900360640190fd5b6066546040516001600160a01b038084169216907f434a2db650703b36c824e745330d6397cdaa9ee2cc891a4938ae853e1c50b68d90600090a3606680546001600160a01b0319166001600160a01b0392909216919091179055565b612aa9612ccf565b612ae8576040805162461bcd60e51b81526020600482018190526024820152600080516020615ee0833981519152604482015290519081900360640190fd5b6033546040516000916001600160a01b0316907f8be0079c531659141344cd1fd0a4f28419497f9722a3daafe3b4186f6b6457e0908390a3603380546001600160a01b0319169055565b60685460010190565b60685481565b606b6020908152600091825260409182902080548351601f600260001961010060018616150201909316929092049182018490048402810184019094528084529091830182828015612bd45780601f10612ba957610100808354040283529160200191612bd4565b820191906000526020600020905b815481529060010190602001808311612bb757829003601f168201915b505050505081565b606d5481565b612bea612ccf565b612c29576040805162461bcd60e51b81526020600482018190526024820152600080516020615ee0833981519152604482015290519081900360640190fd5b607a8190556079829055604080518381526020810183905281517f702756a07c05d0bbfd06fc17b67951a5f4deb7bb6b088407e68a58969daf2a34929181900390910190a15050565b612c7c8282613f48565b611dad576040805162461bcd60e51b815260206004820152601060248201526f0dcdee8d0d2dcce40e8de40e6e8c2e6d60831b604482015290519081900360640190fd5b6033546001600160a01b031690565b6033546001600160a01b0316331490565b607460209081526000928352604080842090915290825290208054600182015460028301546003909301549192909184565b611697338234613b69565b60009182526078602090815260408084209284526005909201905290205490565b612d46612ccf565b612d85576040805162461bcd60e51b81526020600482018190526024820152600080516020615ee0833981519152604482015290519081900360640190fd5b608580546001600160a01b0319166001600160a01b0392909216919091179055565b612daf613156565b341015612dfd576040805162461bcd60e51b8152602060048201526017602482015276696e73756666696369656e742073656c662d7374616b6560481b604482015290519081900360640190fd5b8015801590612e0d575060428111155b612e4d576040805162461bcd60e51b815260206004820152600c60248201526b656d707479207075626b657960a01b604482015290519081900360640190fd5b6000805b6004811015612e9057838382810160031901818110612e6c57fe5b909101356001600160f81b031916159050612e88578160010191505b600101612e51565b5060008111612ed7576040805162461bcd60e51b815260206004820152600e60248201526d696e76616c6964207075626b657960901b604482015290519081900360640190fd5b612f173384848080601f0160208091040260200160405190810160405280939291908181526020018383808284376000920191909152506149e092505050565b612f2433606c5434613b69565b505050565b60006064612f356144be565b607d540281611e0d57fe5b607160209081526000928352604080842090915290825290205481565b612f6633613966565b61169781614a0b565b606960205260009081526040902080546001820154600283015460038401546004850154600586015460069096015494959394929391929091906001600160a01b031687565b612fbd612ccf565b612ffc576040805162461bcd60e51b81526020600482018190526024820152600080516020615ee0833981519152604482015290519081900360640190fd5b6801c985c8903591eb2081111561305a576040805162461bcd60e51b815260206004820152601b60248201527f746f6f206c617267652072657761726420706572207365636f6e640000000000604482015290519081900360640190fd5b60768190556040805182815290517f8cd9dae1bbea2bc8a5e80ffce2c224727a25925130a03ae100619a8861ae23969181900360200190a150565b607560209081526000928352604080842090915290825290208054600182015460029092015490919083565b60835490565b60008181526078602090815260409182902060060180548351818402810184019094528084526060939283018282801561312057602002820191906000526020600020905b81548152602001906001019080831161310c575b50505050509050919050565b3361313981858585614a46565b50505050565b600090815260696020526040902054608016151590565b607b54670de0b6b3a76400000290565b60846020526000908152604090205481565b606c5481565b61318782614cf8565b6131d2576040805162461bcd60e51b81526020600482015260176024820152761d985b1a59185d1bdc88191bd95cdb89dd08195e1a5cdd604a1b604482015290519081900360640190fd5b600082815260696020526040902060038101549054156131f0575060005b6067546040805163520337df60e11b8152600481018690526024810184905290516001600160a01b039092169163a4066fbe9160448082019260009290919082900301818387803b15801561324457600080fd5b505af1158015613258573d6000803e3d6000fd5b5050505081801561326857508015155b15612f24576067546000848152606b602052604090819020815163242a6e3f60e01b81526004810187815260248201938452825460026000196001831615610100020190911604604483018190526001600160a01b039095169463242a6e3f948994939091606490910190849080156133225780601f106132f757610100808354040283529160200191613322565b820191906000526020600020905b81548152906001019060200180831161330557829003601f168201915b50509350505050600060405180830381600087803b15801561334357600080fd5b505af1158015613357573d6000803e3d6000fd5b50505050505050565b61336933613966565b61169781614d0f565b607360209081526000928352604080842090915290825290205481565b6001600160a01b0382166000908152607460209081526040808320848452909152812060020154158015906133e657506001600160a01b038316600090815260746020908152604080832085845290915290205415155b80156119cc57506001600160a01b038316600090815260746020908152604080832085845290915290206002015461341c6146e7565b11159392505050565b61342e33613966565b61169781614d4a565b60765481565b60009182526078602090815260408084209284526003909201905290205490565b338161349f576040805162461bcd60e51b815260206004820152600b60248201526a1e995c9bc8185b5bdd5b9d60aa1b604482015290519081900360640190fd5b6134a9818561338f565b156134ef576040805162461bcd60e51b81526020600482015260116024820152700616c7265616479206c6f636b656420757607c1b604482015290519081900360640190fd5b61313981858585614a46565b60009182526078602090815260408084209284526002909201905290205490565b61352533613ca8565b6135605760405162461bcd60e51b8152600401808060200182810382526029815260200180615e966029913960400191505060405180910390fd5b60006078600061356e612b32565b8152602001908152602001600020905060008090505b828110156135e757600084848381811061359a57fe5b60209081029290920135600081815260698452604080822060030154948890529020839055600c8601549093506135d891508263ffffffff613b0f16565b600c8501555050600101613584565b50613139600682018484615d66565b60009182526078602090815260408084209284526004909201905290205490565b61361f612ccf565b61365e576040805162461bcd60e51b81526020600482018190526024820152600080516020615ee0833981519152604482015290519081900360640190fd5b61366783613e21565b6040516001600160a01b0385169084156108fc029085906000818181858888f1935050505015801561369d573d6000803e3d6000fd5b50836001600160a01b03167f9eec469b348bcf64bbfb60e46ce7b160e2e09bf5421496a2cdbc43714c28b8ad84848460405180848152602001806020018281038252848482818152602001925080828437600083820152604051601f909101601f1916909201829003965090945050505050a250505050565b61371f33613966565b61169781614d85565b61373133613ca8565b61376c5760405162461bcd60e51b8152600401808060200182810382526029815260200180615e966029913960400191505060405180910390fd5b60006078600061377a612b32565b815260200190815260200160002090506060816006018054806020026020016040519081016040528092919081815260200182805480156137da57602002820191906000526020600020905b8154815260200190600101908083116137c6575b5050505050905061386182828c8c80806020026020016040519081016040528093929190818152602001838360200280828437600081840152601f19601f820116905080830192505050505050508b8b80806020026020016040519081016040528093929190818152602001838360200280828437600092019190915250614dc092505050565b6138d0828288888080602002602001604051908101604052809392919081815260200183836020028082843760009201919091525050604080516020808c0282810182019093528b82529093508b92508a918291850190849080828437600092019190915250614ed692505050565b6138d8612b32565b6068556138e36146e7565b600783015550607654600b820155607754600d909101555050505050505050565b61390c612ccf565b61394b576040805162461bcd60e51b81526020600482018190526024820152600080516020615ee0833981519152604482015290519081900360640190fd5b6116978161551c565b61395d33613966565b611697816155bd565b61396e611e13565b6001600160a01b0316816001600160a01b031614806139a55750613990612cc0565b6001600160a01b0316816001600160a01b0316145b6116975760405162461bcd60e51b8152600401808060200182810382526045815260200180615f2e6045913960600191505060405180910390fd5b607c8190556040805182815290517fd3b49810855efc7d611424cd0a8cc519b92cf2e97bd3516921dff1a19b101e359181900360200190a150565b613a23615d45565b613a2d8383613f48565b50506001600160a01b038216600090815260706020908152604080832084845282528083208151606081018352815480825260018301549482018590526002909201549281018390529392613a8b926117aa9163ffffffff613b0f16565b905080613ace576040805162461bcd60e51b815260206004820152600c60248201526b7a65726f207265776172647360a01b604482015290519081900360640190fd5b6001600160a01b038416600090815260706020908152604080832086845290915281208181556001810182905560020155613b0881613e21565b5092915050565b6000828201838110156119cc576040805162461bcd60e51b815260206004820152601b60248201527f536166654d6174683a206164646974696f6e206f766572666c6f770000000000604482015290519081900360640190fd5b613b7282614cf8565b613bbd576040805162461bcd60e51b81526020600482015260176024820152761d985b1a59185d1bdc88191bd95cdb89dd08195e1a5cdd604a1b604482015290519081900360640190fd5b60008281526069602052604090205415613c17576040805162461bcd60e51b815260206004820152601660248201527576616c696461746f722069736e27742061637469766560501b604482015290519081900360640190fd5b613c22838383613cbc565b613c2b826155f8565b612f245760405162461bcd60e51b8152600401808060200182810382526029815260200180615fbc6029913960400191505060405180910390fd5b60006119cc83836040518060400160405280601e81526020017f536166654d6174683a207375627472616374696f6e206f766572666c6f770000815250615640565b6067546001600160a01b0390811691161490565b60008111613cff576040805162461bcd60e51b815260206004820152600b60248201526a1e995c9bc8185b5bdd5b9d60aa1b604482015290519081900360640190fd5b613d098383613f48565b506001600160a01b0383166000908152607360209081526040808320858452909152902054613d3e908263ffffffff613b0f16565b6001600160a01b0384166000908152607360209081526040808320868452825280832093909355606990522060030154613d7e818363ffffffff613b0f16565b600084815260696020526040902060030155606d54613da3908363ffffffff613b0f16565b606d55600083815260696020526040902054613dd057606e54613dcc908363ffffffff613b0f16565b606e555b613ddb83821561317e565b60408051838152905184916001600160a01b038716917f9a8f44850296624dadfd9c246d17e47171d35727a181bd090aa14bbbe00238bb9181900360200190a350505050565b606754604080516366e7ea0f60e01b81523060048201526024810184905290516001600160a01b03909216916366e7ea0f9160448082019260009290919082900301818387803b158015613e7457600080fd5b505af1158015613e88573d6000803e3d6000fd5b5050607754613ea0925090508263ffffffff613b0f16565b60775550565b6085546000906001600160a01b0316613ec1575060016119cf565b608554604080516321d585c360e01b81526001600160a01b03868116600483015260248201869052915191909216916321d585c3916044808301926020929190829003018186803b158015613f1557600080fd5b505afa158015613f29573d6000803e3d6000fd5b505050506040513d6020811015613f3f57600080fd5b50519392505050565b6000613f52615d45565b613f5c84846156d7565b9050613f678361580f565b6001600160a01b03851660008181526071602090815260408083208884528252808320949094559181526070825282812086825282528290208251606081018452815481526001820154928101929092526002015491810191909152613fcd908261586a565b6001600160a01b038516600081815260706020908152604080832088845282528083208551815585830151600180830191909155958201516002918201559383526075825280832088845282529182902082516060810184528154815294810154918501919091529091015490820152614047908261586a565b6001600160a01b03851660009081526075602090815260408083208784528252918290208351815590830151600182015591015160029091015561408b848461338f565b6140ee576001600160a01b0384166000818152607460209081526040808320878452825280832083815560018082018590556002808301869055600390920185905594845260758352818420888552909252822082815592830182905591909101555b60208101511515806141005750805115155b8061291257506040015115159392505050565b6001600160a01b0384166000908152607560209081526040808320868452909152812054819061415b90849061414f908763ffffffff6158dc16565b9063ffffffff61593516565b6001600160a01b03871660009081526075602090815260408083208984529091528120600101549192509061419c90859061414f908863ffffffff6158dc16565b6001600160a01b03881660009081526075602090815260408083208a8452909152902054909150600282048301906141d49084613c66565b6001600160a01b03891660009081526075602090815260408083208b84529091529020908155600101546142089083613c66565b6001600160a01b03891660009081526075602090815260408083208b84529091529020600101558581106142395750845b979650505050505050565b6001600160a01b03831660009081526073602090815260408083208584528252808320805485900390556069909152902060030154614289908263ffffffff613c6616565b600083815260696020526040902060030155606d546142ae908263ffffffff613c6616565b606d556000828152606960205260409020546142db57606e546142d7908263ffffffff613c6616565b606e555b60006142e68361286c565b9050801561438d576142f6613156565b811015614344576040805162461bcd60e51b8152602060048201526017602482015276696e73756666696369656e742073656c662d7374616b6560481b604482015290519081900360640190fd5b61434d836155f8565b6143885760405162461bcd60e51b8152600401808060200182810382526029815260200180615fbc6029913960400191505060405180910390fd5b613139565b6131398360015b6000828152606960205260409020541580156143af57508015155b156143dc57600082815260696020526040902060030154606e546143d89163ffffffff613c6616565b606e555b600082815260696020526040902054811115611dad5760008281526069602052604090208181556002015461448457614413612b32565b60008381526069602052604090206002015561442d6146e7565b6000838152606960209081526040918290206001810184905560020154825190815290810192909252805184927fac4801c32a6067ff757446524ee4e7a373797278ac3c883eac5c693b4ad72e4792908290030190a25b60408051828152905183917fcd35267e7654194727477d6c78b541a553483cff7f92a055d17868d3da6e953e919081900360200190a25050565b670de0b6b3a764000090565b607d8190556040805182815290517f969e21e21af49053b3bfee796b627ebc26e10328889e90a47da2f1205d3e8f139181900360200190a150565b303b1590565b600054610100900460ff16806145245750614524614505565b80614532575060005460ff16155b61456d5760405162461bcd60e51b815260040180806020018281038252602e815260200180615f00602e913960400191505060405180910390fd5b600054610100900460ff16158015614598576000805460ff1961ff0019909116610100171660011790555b603380546001600160a01b0319166001600160a01b0384811691909117918290556040519116906000907f8be0079c531659141344cd1fd0a4f28419497f9722a3daafe3b4186f6b6457e0908290a38015611dad576000805461ff00191690555050565b600054610100900460ff16806146155750614615614505565b80614623575060005460ff16155b61465e5760405162461bcd60e51b815260040180806020018281038252602e815260200180615f00602e913960400191505060405180910390fd5b600054610100900460ff16158015614689576000805460ff1961ff0019909116610100171660011790555b606680546001600160a01b0319166001600160a01b0384169081179091556040516000907f434a2db650703b36c824e745330d6397cdaa9ee2cc891a4938ae853e1c50b68d908290a38015611dad576000805461ff00191690555050565b4290565b60808190556040805182815290517f31d33f23d1e7fe45f7e898c070587ff0f2f519674e5e2a12f90b3a17c77f6ad19181900360200190a150565b600082158061473c57506147386144be565b8210155b1561474957506000614781565b61477460016117aa6147596144be565b61414f866147656144be565b8a91900363ffffffff6158dc16565b9050838111156147815750825b9392505050565b6001600160a01b0388166000908152606a6020526040902054156147f3576040805162461bcd60e51b815260206004820152601860248201527f76616c696461746f7220616c7265616479206578697374730000000000000000604482015290519081900360640190fd5b6001600160a01b0388166000818152606a602090815260408083208b90558a8352606982528083208981556004810189905560058101889055600181018690556002810187905560060180546001600160a01b031916909417909355606b8152919020875161486492890190615db1565b50876001600160a01b0316877f49bca1ed2666922f9f1690c26a569e1299c2a715fe57647d77e81adfabbf25bf8686604051808381526020018281526020019250505060405180910390a381156148f0576040805183815260208101839052815189927fac4801c32a6067ff757446524ee4e7a373797278ac3c883eac5c693b4ad72e47928290030190a25b841561492d5760408051868152905188917fcd35267e7654194727477d6c78b541a553483cff7f92a055d17868d3da6e953e919081900360200190a25b5050505050505050565b61493f615d45565b614947615d45565b61495184846156d7565b6001600160a01b03851660009081526070602090815260408083208784528252918290208251606081018452815481526001820154928101929092526002015491810191909152909150612912908261586a565b60828190556040805182815290517f2f273767369d76e1ecbee32ed26135f390df620f085feb7a6f2e3dd51985bd5f9181900360200190a150565b606c805460010190819055612f2483828460006149fb612b32565b614a036146e7565b600080614788565b607e8190556040805182815290517f12420e865335c7cfb225296eb0adaca14bfb1de93b3731ed1e0434746a4d91249181900360200190a150565b614a50848461194c565b811115614a97576040805162461bcd60e51b815260206004820152601060248201526f6e6f7420656e6f756768207374616b6560801b604482015290519081900360640190fd5b60008381526069602052604090205415614af1576040805162461bcd60e51b815260206004820152601660248201527576616c696461746f722069736e27742061637469766560501b604482015290519081900360640190fd5b614af96118b1565b8210158015614b0f5750614b0b6118a6565b8211155b614b55576040805162461bcd60e51b815260206004820152601260248201527134b731b7b93932b1ba10323ab930ba34b7b760711b604482015290519081900360640190fd5b6000614b63836117aa6146e7565b6000858152606960205260409020600601549091506001600160a01b039081169086168114614bf1576001600160a01b0381166000908152607460209081526040808320888452909152902060020154821115614bf15760405162461bcd60e51b8152600401808060200182810382526028815260200180615f946028913960400191505060405180910390fd5b614bfb8686613f48565b506001600160a01b038616600090815260746020908152604080832088845290915290206003810154851015614c78576040805162461bcd60e51b815260206004820152601f60248201527f6c6f636b7570206475726174696f6e2063616e6e6f7420646563726561736500604482015290519081900360640190fd5b8054614c8a908563ffffffff613b0f16565b8155614c94612b32565b600182015560028101839055600381018590556040805186815260208101869052815188926001600160a01b038b16927f138940e95abffcd789b497bf6188bba3afa5fbd22fb5c42c2f6018d1bf0f4e78929081900390910190a350505050505050565b600090815260696020526040902060050154151590565b607f8190556040805182815290517fcda2f8a6b9050afa9ac1f8d6ff9a123894f76a5530c6c29636332c995a1f97159181900360200190a150565b607b8190556040805182815290517fe9a0db1369c39eb7fc2ed3d7e122f9ee60952b075329b1e84bce8843367210f49181900360200190a150565b60838190556040805182815290517f9e85e6207a28e085f027a9b979cad850f4c36a581dd42c119e856c04b92d96119181900360200190a150565b60005b8351811015614ecf57607954828281518110614ddb57fe5b6020026020010151118015614e055750607a54838281518110614dfa57fe5b602002602001015110155b15614e4657614e28848281518110614e1957fe5b60200260200101516008614394565b614e46848281518110614e3757fe5b6020026020010151600061317e565b828181518110614e5257fe5b6020026020010151856004016000868481518110614e6c57fe5b6020026020010151815260200190815260200160002081905550818181518110614e9257fe5b6020026020010151856005016000868481518110614eac57fe5b602090810291909101810151825281019190915260400160002055600101614dc3565b5050505050565b614ede615e1f565b6040518060c001604052808551604051908082528060200260200182016040528015614f14578160200160208202803883390190505b508152602001600081526020018551604051908082528060200260200182016040528015614f4c578160200160208202803883390190505b508152602001600081526020016000815260200160008152509050600060786000614f866001614f7a612b32565b9063ffffffff613c6616565b81526020810191909152604001600020600160808401526007810154909150614fad6146e7565b1115614fc7578060070154614fc06146e7565b0360808301525b60005b85518110156150cf576000826003016000888481518110614fe757fe5b6020026020010151815260200190815260200160002054905060008090508186848151811061501257fe5b60200260200101511115615039578186848151811061502d57fe5b60200260200101510390505b846080015187848151811061504a57fe5b602002602001015182028161505b57fe5b048560400151848151811061506c57fe5b6020026020010181815250506150a68560400151848151811061508b57fe5b60200260200101518660600151613b0f90919063ffffffff16565b606086015260a08501516150c0908263ffffffff613b0f16565b60a08601525050600101614fca565b5060005b85518110156151a05782608001518582815181106150ed57fe5b6020026020010151846080015187848151811061510657fe5b60200260200101518a60000160008b878151811061512057fe5b6020026020010151815260200190815260200160002054028161513f57fe5b04028161514857fe5b048360000151828151811061515957fe5b6020026020010181815250506151938360000151828151811061517857fe5b60200260200101518460200151613b0f90919063ffffffff16565b60208401526001016150d3565b5060005b85518110156154f45760006151dc8460800151607654866000015185815181106151ca57fe5b60200260200101518760200151615977565b905061521861520b8560a00151866040015185815181106151f957fe5b602002602001015187606001516159b8565b829063ffffffff613b0f16565b9050600087838151811061522857fe5b6020908102919091018101516000818152606990925260408220600601549092506001600160a01b0316906152648461525f612f29565b615a15565b6001600160a01b0383166000908152607360209081526040808320878452909152902054909150801561540b5760008161529e8587612941565b8402816152a757fe5b0490508083036152b5615d45565b6001600160a01b03861660009081526074602090815260408083208a84529091529020600301546152e7908490615a32565b90506152f1615d45565b6152fc836000615a32565b6001600160a01b03881660009081526070602090815260408083208c84528252918290208251606081018452815481526001820154928101929092526002015491810191909152909150615351908383615b23565b6001600160a01b03881660008181526070602090815260408083208d84528252808320855181558583015160018083019190915595820151600291820155938352607582528083208d8452825291829020825160608101845281548152948101549185019190915290910154908201526153cc908383615b23565b6001600160a01b03881660009081526075602090815260408083208c845282529182902083518155908301516001820155910151600290910155505050505b60008481526069602052604081206003015483870391811561543d57816154306144be565b84028161543957fe5b0490505b808a600101600089815260200190815260200160002054018f6001016000898152602001908152602001600020819055508b898151811061547a57fe5b60200260200101518f6003016000898152602001908152602001600020819055508c89815181106154a757fe5b60200260200101518a600201600089815260200190815260200160002054018f600201600089815260200190815260200160002081905550505050505050505080806001019150506151a4565b505060a081015160088601556020810151600986015560600151600a90940193909355505050565b6001600160a01b0381166155615760405162461bcd60e51b8152600401808060200182810382526026815260200180615e706026913960400191505060405180910390fd5b6033546040516001600160a01b038084169216907f8be0079c531659141344cd1fd0a4f28419497f9722a3daafe3b4186f6b6457e090600090a3603380546001600160a01b0319166001600160a01b0392909216919091179055565b60818190556040805182815290517fd830c33dec392daf6dfeac9834107217392396bc333bcbb92e6c1c1a5e8726319181900360200190a150565b60006156256156056144be565b61414f615610611de3565b6156198661286c565b9063ffffffff6158dc16565b60008381526069602052604090206003015411159050919050565b600081848411156156cf5760405162461bcd60e51b81526004018080602001828103825283818151815260200191508051906020019080838360005b8381101561569457818101518382015260200161567c565b50505050905090810190601f1680156156c15780820380516001836020036101000a031916815260200191505b509250505060405180910390fd5b505050900390565b6156df615d45565b6001600160a01b03831660009081526071602090815260408083208584529091528120549061570d8461580f565b9050600061571b8686615b3e565b9050818111156157285750805b828110156157335750815b6001600160a01b0386166000818152607460209081526040808320898452825280832093835260738252808320898452909152812054825490919061577f90839063ffffffff613c6616565b9050600061579384600001548a8988615bfd565b905061579d615d45565b6157ab828660030154615a32565b90506157b9838b8a89615bfd565b91506157c3615d45565b6157ce836000615a32565b90506157dc858c898b615bfd565b92506157e6615d45565b6157f1846000615a32565b90506157fe838383615b23565b9d9c50505050505050505050505050565b6000818152606960205260408120600201541561586257600082815260696020526040902060020154606854101561584a575060685461289d565b5060008181526069602052604090206002015461289d565b505060685490565b615872615d45565b6040805160608101909152825184518291615893919063ffffffff613b0f16565b81526020016158b384602001518660200151613b0f90919063ffffffff16565b81526020016158d384604001518660400151613b0f90919063ffffffff16565b90529392505050565b6000826158eb575060006119cf565b828202828482816158f857fe5b04146119cc5760405162461bcd60e51b8152600401808060200182810382526021815260200180615ebf6021913960400191505060405180910390fd5b60006119cc83836040518060400160405280601a81526020017f536166654d6174683a206469766973696f6e206279207a65726f000000000000815250615c60565b60008261598657506000612912565b6000615998868663ffffffff6158dc16565b90506159ae8361414f838763ffffffff6158dc16565b9695505050505050565b6000826159c757506000614781565b60006159dd8361414f878763ffffffff6158dc16565b9050615a0c6159ea6144be565b61414f6159f5611df6565b6159fd6144be565b8591900363ffffffff6158dc16565b95945050505050565b60006119cc615a226144be565b61414f858563ffffffff6158dc16565b615a3a615d45565b604051806060016040528060008152602001600081526020016000815250905081600014615af5576000615a6c6128bf565b615a746144be565b0390506000615a94615a846118a6565b61414f848763ffffffff6158dc16565b90506000615abd615aa36144be565b61414f84615aaf6128bf565b8a910163ffffffff6158dc16565b9050615ae2615aca6144be565b61414f615ad56128bf565b899063ffffffff6158dc16565b6020850181905290038352506119cf9050565b615b18615b006144be565b61414f615b0b6128bf565b869063ffffffff6158dc16565b604082015292915050565b615b2b615d45565b612912615b38858561586a565b8361586a565b6001600160a01b0382166000908152607460209081526040808320848452909152812060010154606854615b73858583615cc5565b15615b815791506119cf9050565b615b8c858584615cc5565b615b9b576000925050506119cf565b80821115615bae576000925050506119cf565b80821015615be157600281830104615bc7868683615cc5565b15615bd757806001019250615bdb565b8091505b50615bae565b80615bf1576000925050506119cf565b60001901949350505050565b6000818310615c0e57506000612912565b600083815260786020818152604080842088855260019081018352818520548786529383528185208986520190915290912054614239615c4c6144be565b61414f89615619858763ffffffff613c6616565b60008183615caf5760405162461bcd60e51b815260206004820181815283516024840152835190928392604490910191908501908083836000831561569457818101518382015260200161567c565b506000838581615cbb57fe5b0495945050505050565b6001600160a01b0383166000908152607460209081526040808320858452909152812060010154821080159061291257506001600160a01b0384166000908152607460209081526040808320868452909152902060020154615d2683615d30565b1115949350505050565b60009081526078602052604090206007015490565b60405180606001604052806000815260200160008152602001600081525090565b828054828255906000526020600020908101928215615da1579160200282015b82811115615da1578235825591602001919060010190615d86565b50615dad929150615e55565b5090565b828054600181600116156101000203166002900490600052602060002090601f016020900481019282601f10615df257805160ff1916838001178555615da1565b82800160010185558215615da1579182015b82811115615da1578251825591602001919060010190615e04565b6040518060c001604052806060815260200160008152602001606081526020016000815260200160008152602001600081525090565b6118ae91905b80821115615dad5760008155600101615e5b56fe4f776e61626c653a206e6577206f776e657220697320746865207a65726f206164647265737363616c6c6572206973206e6f7420746865204e6f64654472697665724175746820636f6e7472616374536166654d6174683a206d756c7469706c69636174696f6e206f766572666c6f774f776e61626c653a2063616c6c6572206973206e6f7420746865206f776e6572436f6e747261637420696e7374616e63652068617320616c7265616479206265656e20696e697469616c697a65645346433a20746869732066756e6374696f6e20697320636f6e74726f6c6c656420627920746865206f776e657220616e6420676f7665726e616e636520636f6e74726163746d757374206265206c657373207468616e206f7220657175616c20746f20312e3076616c696461746f72206c6f636b757020706572696f642077696c6c20656e64206561726c69657276616c696461746f7227732064656c65676174696f6e73206c696d69742069732065786365656465646c6f636b6564207374616b652069732067726561746572207468616e207468652077686f6c65207374616b65a265627a7a723158205d56bd7ac21c4dbb22032bec90a0fcca2f273fd28b15f628dc9f1d2da244402e64736f6c63430005110032",
  "linkReferences": {},
  "deployedLinkReferences": {}
}