{
  "_format": "hh-sol-artifact-1",
  "contractName": "SFC",
  "sourceName": "contracts/sfc/SFC.sol",
  "abi": [
    {
      "anonymous": false,
      "inputs": [
        {
          "indexed": true,
          "internalType": "uint256",
          "name": "validatorID",
          "type": "uint256"
        },
        {
          "indexed": false,
          "internalType": "uint256",
          "name": "status",
          "type": "uint256"
        }
      ],
      "name": "ChangedValidatorStatus",
      "type": "event"
    },
    {
      "anonymous": false,
      "inputs": [
        {
          "indexed": true,
          "internalType": "address",
          "name": "delegator",
          "type": "address"
        },
        {
          "indexed": true,
          "internalType": "uint256",
          "name": "toValidatorID",
          "type": "uint256"
        },
        {
          "indexed": false,
          "internalType": "uint256",
          "name": "lockupExtraReward",
          "type": "uint256"
        },
        {
          "indexed": false,
          "internalType": "uint256",
          "name": "lockupBaseReward",
          "type": "uint256"
        },
        {
          "indexed": false,
          "internalType": "uint256",
          "name": "unlockedReward",
          "type": "uint256"
        }
      ],
      "name": "ClaimedRewards",
      "type": "event"
    },
    {
      "anonymous": false,
      "inputs": [
        {
          "indexed": true,
          "internalType": "uint256",
          "name": "validatorID",
          "type": "uint256"
        },
        {
          "indexed": true,
          "internalType": "address",
          "name": "auth",
          "type": "address"
        },
        {
          "indexed": false,
          "internalType": "uint256",
          "name": "createdEpoch",
          "type": "uint256"
        },
        {
          "indexed": false,
          "internalType": "uint256",
          "name": "createdTime",
          "type": "uint256"
        }
      ],
      "name": "CreatedValidator",
      "type": "event"
    },
    {
      "anonymous": false,
      "inputs": [
        {
          "indexed": true,
          "internalType": "uint256",
          "name": "validatorID",
          "type": "uint256"
        },
        {
          "indexed": false,
          "internalType": "uint256",
          "name": "deactivatedEpoch",
          "type": "uint256"
        },
        {
          "indexed": false,
          "internalType": "uint256",
          "name": "deactivatedTime",
          "type": "uint256"
        }
      ],
      "name": "DeactivatedValidator",
      "type": "event"
    },
    {
      "anonymous": false,
      "inputs": [
        {
          "indexed": true,
          "internalType": "address",
          "name": "delegator",
          "type": "address"
        },
        {
          "indexed": true,
          "internalType": "uint256",
          "name": "toValidatorID",
          "type": "uint256"
        },
        {
          "indexed": false,
          "internalType": "uint256",
          "name": "amount",
          "type": "uint256"
        }
      ],
      "name": "Delegated",
      "type": "event"
    },
    {
      "anonymous": false,
      "inputs": [
        {
          "indexed": true,
          "internalType": "address",
          "name": "previousAddress",
          "type": "address"
        },
        {
          "indexed": true,
          "internalType": "address",
          "name": "newAddress",
          "type": "address"
        }
      ],
      "name": "GovernanceUpdated",
      "type": "event"
    },
    {
      "anonymous": false,
      "inputs": [
        {
          "indexed": true,
          "internalType": "address",
          "name": "receiver",
          "type": "address"
        },
        {
          "indexed": false,
          "internalType": "uint256",
          "name": "amount",
          "type": "uint256"
        },
        {
          "indexed": false,
          "internalType": "string",
          "name": "justification",
          "type": "string"
        }
      ],
      "name": "InflatedFTM",
      "type": "event"
    },
    {
      "anonymous": false,
      "inputs": [
        {
          "indexed": true,
          "internalType": "address",
          "name": "delegator",
          "type": "address"
        },
        {
          "indexed": true,
          "internalType": "uint256",
          "name": "validatorID",
          "type": "uint256"
        },
        {
          "indexed": false,
          "internalType": "uint256",
          "name": "duration",
          "type": "uint256"
        },
        {
          "indexed": false,
          "internalType": "uint256",
          "name": "amount",
          "type": "uint256"
        }
      ],
      "name": "LockedUpStake",
      "type": "event"
    },
    {
      "anonymous": false,
      "inputs": [
        {
          "indexed": true,
          "internalType": "address",
          "name": "previousOwner",
          "type": "address"
        },
        {
          "indexed": true,
          "internalType": "address",
          "name": "newOwner",
          "type": "address"
        }
      ],
      "name": "OwnershipTransferred",
      "type": "event"
    },
    {
      "anonymous": false,
      "inputs": [
        {
          "indexed": true,
          "internalType": "address",
          "name": "delegator",
          "type": "address"
        },
        {
          "indexed": true,
          "internalType": "uint256",
          "name": "validatorID",
          "type": "uint256"
        },
        {
          "indexed": false,
          "internalType": "uint256",
          "name": "amount",
          "type": "uint256"
        }
      ],
      "name": "RefundedSlashedLegacyDelegation",
      "type": "event"
    },
    {
      "anonymous": false,
      "inputs": [
        {
          "indexed": true,
          "internalType": "address",
          "name": "delegator",
          "type": "address"
        },
        {
          "indexed": true,
          "internalType": "uint256",
          "name": "toValidatorID",
          "type": "uint256"
        },
        {
          "indexed": false,
          "internalType": "uint256",
          "name": "lockupExtraReward",
          "type": "uint256"
        },
        {
          "indexed": false,
          "internalType": "uint256",
          "name": "lockupBaseReward",
          "type": "uint256"
        },
        {
          "indexed": false,
          "internalType": "uint256",
          "name": "unlockedReward",
          "type": "uint256"
        }
      ],
      "name": "RestakedRewards",
      "type": "event"
    },
    {
      "anonymous": false,
      "inputs": [
        {
          "indexed": true,
          "internalType": "address",
          "name": "delegator",
          "type": "address"
        },
        {
          "indexed": true,
          "internalType": "uint256",
          "name": "toValidatorID",
          "type": "uint256"
        },
        {
          "indexed": true,
          "internalType": "uint256",
          "name": "wrID",
          "type": "uint256"
        },
        {
          "indexed": false,
          "internalType": "uint256",
          "name": "amount",
          "type": "uint256"
        }
      ],
      "name": "Undelegated",
      "type": "event"
    },
    {
      "anonymous": false,
      "inputs": [
        {
          "indexed": true,
          "internalType": "address",
          "name": "delegator",
          "type": "address"
        },
        {
          "indexed": true,
          "internalType": "uint256",
          "name": "validatorID",
          "type": "uint256"
        },
        {
          "indexed": false,
          "internalType": "uint256",
          "name": "amount",
          "type": "uint256"
        },
        {
          "indexed": false,
          "internalType": "uint256",
          "name": "penalty",
          "type": "uint256"
        }
      ],
      "name": "UnlockedStake",
      "type": "event"
    },
    {
      "anonymous": false,
      "inputs": [
        {
          "indexed": false,
          "internalType": "uint256",
          "name": "value",
          "type": "uint256"
        }
      ],
      "name": "UpdatedBaseRewardPerSec",
      "type": "event"
    },
    {
      "anonymous": false,
      "inputs": [
        {
          "indexed": false,
          "internalType": "uint256",
          "name": "contractCommission",
          "type": "uint256"
        }
      ],
      "name": "UpdatedContractCommission",
      "type": "event"
    },
    {
      "anonymous": false,
      "inputs": [
        {
          "indexed": false,
          "internalType": "uint256",
          "name": "maxDelegationRatio",
          "type": "uint256"
        }
      ],
      "name": "UpdatedMaxDelegationRatio",
      "type": "event"
    },
    {
      "anonymous": false,
      "inputs": [
        {
          "indexed": false,
          "internalType": "uint256",
          "name": "maxLockupDuration",
          "type": "uint256"
        }
      ],
      "name": "UpdatedMaxLockupDuration",
      "type": "event"
    },
    {
      "anonymous": false,
      "inputs": [
        {
          "indexed": false,
          "internalType": "uint256",
          "name": "minLockupDuration",
          "type": "uint256"
        }
      ],
      "name": "UpdatedMinLockupDuration",
      "type": "event"
    },
    {
      "anonymous": false,
      "inputs": [
        {
          "indexed": false,
          "internalType": "uint256",
          "name": "minSelfStake",
          "type": "uint256"
        }
      ],
      "name": "UpdatedMinSelfStake",
      "type": "event"
    },
    {
      "anonymous": false,
      "inputs": [
        {
          "indexed": false,
          "internalType": "uint256",
          "name": "blocksNum",
          "type": "uint256"
        },
        {
          "indexed": false,
          "internalType": "uint256",
          "name": "period",
          "type": "uint256"
        }
      ],
      "name": "UpdatedOfflinePenaltyThreshold",
      "type": "event"
    },
    {
      "anonymous": false,
      "inputs": [
        {
          "indexed": true,
          "internalType": "uint256",
          "name": "validatorID",
          "type": "uint256"
        },
        {
          "indexed": false,
          "internalType": "uint256",
          "name": "refundRatio",
          "type": "uint256"
        }
      ],
      "name": "UpdatedSlashingRefundRatio",
      "type": "event"
    },
    {
      "anonymous": false,
      "inputs": [
        {
          "indexed": false,
          "internalType": "uint256",
          "name": "unlockedRewardRatio",
          "type": "uint256"
        }
      ],
      "name": "UpdatedUnlockedRewardRatio",
      "type": "event"
    },
    {
      "anonymous": false,
      "inputs": [
        {
          "indexed": false,
          "internalType": "uint256",
          "name": "validatorCommission",
          "type": "uint256"
        }
      ],
      "name": "UpdatedValidatorCommission",
      "type": "event"
    },
    {
      "anonymous": false,
      "inputs": [
        {
          "indexed": false,
          "internalType": "uint256",
          "name": "Value",
          "type": "uint256"
        }
      ],
      "name": "UpdatedWithdrawalPeriodEpoch",
      "type": "event"
    },
    {
      "anonymous": false,
      "inputs": [
        {
          "indexed": false,
          "internalType": "uint256",
          "name": "withValuedrawalPeriodTime",
          "type": "uint256"
        }
      ],
      "name": "UpdatedWithdrawalPeriodTime",
      "type": "event"
    },
    {
      "anonymous": false,
      "inputs": [
        {
          "indexed": true,
          "internalType": "address",
          "name": "delegator",
          "type": "address"
        },
        {
          "indexed": true,
          "internalType": "uint256",
          "name": "toValidatorID",
          "type": "uint256"
        },
        {
          "indexed": true,
          "internalType": "uint256",
          "name": "wrID",
          "type": "uint256"
        },
        {
          "indexed": false,
          "internalType": "uint256",
          "name": "amount",
          "type": "uint256"
        }
      ],
      "name": "Withdrawn",
      "type": "event"
    },
    {
      "constant": false,
      "inputs": [
        {
          "internalType": "uint256",
          "name": "validatorID",
          "type": "uint256"
        },
        {
          "internalType": "bool",
          "name": "syncPubkey",
          "type": "bool"
        }
      ],
      "name": "_syncValidator",
      "outputs": [],
      "payable": false,
      "stateMutability": "nonpayable",
      "type": "function"
    },
    {
      "constant": true,
      "inputs": [],
      "name": "activeProposals",
      "outputs": [
        {
          "internalType": "uint256",
          "name": "",
          "type": "uint256"
        }
      ],
      "payable": false,
      "stateMutability": "view",
      "type": "function"
    },
    {
      "constant": true,
      "inputs": [],
      "name": "baseRewardPerSecond",
      "outputs": [
        {
          "internalType": "uint256",
          "name": "",
          "type": "uint256"
        }
      ],
      "payable": false,
      "stateMutability": "view",
      "type": "function"
    },
    {
      "constant": false,
      "inputs": [
        {
          "internalType": "uint256",
          "name": "toValidatorID",
          "type": "uint256"
        }
      ],
      "name": "claimRewards",
      "outputs": [],
      "payable": false,
      "stateMutability": "nonpayable",
      "type": "function"
    },
    {
      "constant": true,
      "inputs": [],
      "name": "contractCommission",
      "outputs": [
        {
          "internalType": "uint256",
          "name": "",
          "type": "uint256"
        }
      ],
      "payable": false,
      "stateMutability": "view",
      "type": "function"
    },
    {
      "constant": false,
      "inputs": [
        {
          "internalType": "bytes",
          "name": "pubkey",
          "type": "bytes"
        }
      ],
      "name": "createValidator",
      "outputs": [],
      "payable": true,
      "stateMutability": "payable",
      "type": "function"
    },
    {
      "constant": true,
      "inputs": [],
      "name": "currentEpoch",
      "outputs": [
        {
          "internalType": "uint256",
          "name": "",
          "type": "uint256"
        }
      ],
      "payable": false,
      "stateMutability": "view",
      "type": "function"
    },
    {
      "constant": true,
      "inputs": [],
      "name": "currentSealedEpoch",
      "outputs": [
        {
          "internalType": "uint256",
          "name": "",
          "type": "uint256"
        }
      ],
      "payable": false,
      "stateMutability": "view",
      "type": "function"
    },
    {
      "constant": false,
      "inputs": [
        {
          "internalType": "uint256",
          "name": "validatorID",
          "type": "uint256"
        },
        {
          "internalType": "uint256",
          "name": "status",
          "type": "uint256"
        }
      ],
      "name": "deactivateValidator",
      "outputs": [],
      "payable": false,
      "stateMutability": "nonpayable",
      "type": "function"
    },
    {
      "constant": false,
      "inputs": [
        {
          "internalType": "uint256",
          "name": "toValidatorID",
          "type": "uint256"
        }
      ],
      "name": "delegate",
      "outputs": [],
      "payable": true,
      "stateMutability": "payable",
      "type": "function"
    },
    {
      "constant": true,
      "inputs": [
        {
          "internalType": "uint256",
          "name": "epoch",
          "type": "uint256"
        },
        {
          "internalType": "uint256",
          "name": "validatorID",
          "type": "uint256"
        }
      ],
      "name": "getEpochAccumulatedOriginatedTxsFee",
      "outputs": [
        {
          "internalType": "uint256",
          "name": "",
          "type": "uint256"
        }
      ],
      "payable": false,
      "stateMutability": "view",
      "type": "function"
    },
    {
      "constant": true,
      "inputs": [
        {
          "internalType": "uint256",
          "name": "epoch",
          "type": "uint256"
        },
        {
          "internalType": "uint256",
          "name": "validatorID",
          "type": "uint256"
        }
      ],
      "name": "getEpochAccumulatedRewardPerToken",
      "outputs": [
        {
          "internalType": "uint256",
          "name": "",
          "type": "uint256"
        }
      ],
      "payable": false,
      "stateMutability": "view",
      "type": "function"
    },
    {
      "constant": true,
      "inputs": [
        {
          "internalType": "uint256",
          "name": "epoch",
          "type": "uint256"
        },
        {
          "internalType": "uint256",
          "name": "validatorID",
          "type": "uint256"
        }
      ],
      "name": "getEpochAccumulatedUptime",
      "outputs": [
        {
          "internalType": "uint256",
          "name": "",
          "type": "uint256"
        }
      ],
      "payable": false,
      "stateMutability": "view",
      "type": "function"
    },
    {
      "constant": true,
      "inputs": [
        {
          "internalType": "uint256",
          "name": "epoch",
          "type": "uint256"
        },
        {
          "internalType": "uint256",
          "name": "validatorID",
          "type": "uint256"
        }
      ],
      "name": "getEpochOfflineBlocks",
      "outputs": [
        {
          "internalType": "uint256",
          "name": "",
          "type": "uint256"
        }
      ],
      "payable": false,
      "stateMutability": "view",
      "type": "function"
    },
    {
      "constant": true,
      "inputs": [
        {
          "internalType": "uint256",
          "name": "epoch",
          "type": "uint256"
        },
        {
          "internalType": "uint256",
          "name": "validatorID",
          "type": "uint256"
        }
      ],
      "name": "getEpochOfflineTime",
      "outputs": [
        {
          "internalType": "uint256",
          "name": "",
          "type": "uint256"
        }
      ],
      "payable": false,
      "stateMutability": "view",
      "type": "function"
    },
    {
      "constant": true,
      "inputs": [
        {
          "internalType": "uint256",
          "name": "epoch",
          "type": "uint256"
        },
        {
          "internalType": "uint256",
          "name": "validatorID",
          "type": "uint256"
        }
      ],
      "name": "getEpochReceivedStake",
      "outputs": [
        {
          "internalType": "uint256",
          "name": "",
          "type": "uint256"
        }
      ],
      "payable": false,
      "stateMutability": "view",
      "type": "function"
    },
    {
      "constant": true,
      "inputs": [
        {
          "internalType": "uint256",
          "name": "",
          "type": "uint256"
        }
      ],
      "name": "getEpochSnapshot",
      "outputs": [
        {
          "internalType": "uint256",
          "name": "endTime",
          "type": "uint256"
        },
        {
          "internalType": "uint256",
          "name": "epochFee",
          "type": "uint256"
        },
        {
          "internalType": "uint256",
          "name": "totalBaseRewardWeight",
          "type": "uint256"
        },
        {
          "internalType": "uint256",
          "name": "totalTxRewardWeight",
          "type": "uint256"
        },
        {
          "internalType": "uint256",
          "name": "baseRewardPerSecond",
          "type": "uint256"
        },
        {
          "internalType": "uint256",
          "name": "totalStake",
          "type": "uint256"
        },
        {
          "internalType": "uint256",
          "name": "totalSupply",
          "type": "uint256"
        }
      ],
      "payable": false,
      "stateMutability": "view",
      "type": "function"
    },
    {
      "constant": true,
      "inputs": [
        {
          "internalType": "uint256",
          "name": "epoch",
          "type": "uint256"
        }
      ],
      "name": "getEpochValidatorIDs",
      "outputs": [
        {
          "internalType": "uint256[]",
          "name": "",
          "type": "uint256[]"
        }
      ],
      "payable": false,
      "stateMutability": "view",
      "type": "function"
    },
    {
      "constant": true,
      "inputs": [],
      "name": "getGovernance",
      "outputs": [
        {
          "internalType": "address",
          "name": "",
          "type": "address"
        }
      ],
      "payable": false,
      "stateMutability": "view",
      "type": "function"
    },
    {
      "constant": true,
      "inputs": [
        {
          "internalType": "address",
          "name": "delegator",
          "type": "address"
        },
        {
          "internalType": "uint256",
          "name": "toValidatorID",
          "type": "uint256"
        }
      ],
      "name": "getLockedStake",
      "outputs": [
        {
          "internalType": "uint256",
          "name": "",
          "type": "uint256"
        }
      ],
      "payable": false,
      "stateMutability": "view",
      "type": "function"
    },
    {
      "constant": true,
      "inputs": [
        {
          "internalType": "address",
          "name": "",
          "type": "address"
        },
        {
          "internalType": "uint256",
          "name": "",
          "type": "uint256"
        }
      ],
      "name": "getLockupInfo",
      "outputs": [
        {
          "internalType": "uint256",
          "name": "lockedStake",
          "type": "uint256"
        },
        {
          "internalType": "uint256",
          "name": "fromEpoch",
          "type": "uint256"
        },
        {
          "internalType": "uint256",
          "name": "endTime",
          "type": "uint256"
        },
        {
          "internalType": "uint256",
          "name": "duration",
          "type": "uint256"
        }
      ],
      "payable": false,
      "stateMutability": "view",
      "type": "function"
    },
    {
      "constant": true,
      "inputs": [
        {
          "internalType": "uint256",
          "name": "validatorID",
          "type": "uint256"
        }
      ],
      "name": "getSelfStake",
      "outputs": [
        {
          "internalType": "uint256",
          "name": "",
          "type": "uint256"
        }
      ],
      "payable": false,
      "stateMutability": "view",
      "type": "function"
    },
    {
      "constant": true,
      "inputs": [
        {
          "internalType": "address",
          "name": "",
          "type": "address"
        },
        {
          "internalType": "uint256",
          "name": "",
          "type": "uint256"
        }
      ],
      "name": "getStake",
      "outputs": [
        {
          "internalType": "uint256",
          "name": "",
          "type": "uint256"
        }
      ],
      "payable": false,
      "stateMutability": "view",
      "type": "function"
    },
    {
      "constant": true,
      "inputs": [
        {
          "internalType": "address",
          "name": "",
          "type": "address"
        },
        {
          "internalType": "uint256",
          "name": "",
          "type": "uint256"
        }
      ],
      "name": "getStashedLockupRewards",
      "outputs": [
        {
          "internalType": "uint256",
          "name": "lockupExtraReward",
          "type": "uint256"
        },
        {
          "internalType": "uint256",
          "name": "lockupBaseReward",
          "type": "uint256"
        },
        {
          "internalType": "uint256",
          "name": "unlockedReward",
          "type": "uint256"
        }
      ],
      "payable": false,
      "stateMutability": "view",
      "type": "function"
    },
    {
      "constant": true,
      "inputs": [
        {
          "internalType": "address",
          "name": "delegator",
          "type": "address"
        },
        {
          "internalType": "uint256",
          "name": "toValidatorID",
          "type": "uint256"
        }
      ],
      "name": "getUnlockedStake",
      "outputs": [
        {
          "internalType": "uint256",
          "name": "",
          "type": "uint256"
        }
      ],
      "payable": false,
      "stateMutability": "view",
      "type": "function"
    },
    {
      "constant": true,
      "inputs": [
        {
          "internalType": "uint256",
          "name": "",
          "type": "uint256"
        }
      ],
      "name": "getValidator",
      "outputs": [
        {
          "internalType": "uint256",
          "name": "status",
          "type": "uint256"
        },
        {
          "internalType": "uint256",
          "name": "deactivatedTime",
          "type": "uint256"
        },
        {
          "internalType": "uint256",
          "name": "deactivatedEpoch",
          "type": "uint256"
        },
        {
          "internalType": "uint256",
          "name": "receivedStake",
          "type": "uint256"
        },
        {
          "internalType": "uint256",
          "name": "createdEpoch",
          "type": "uint256"
        },
        {
          "internalType": "uint256",
          "name": "createdTime",
          "type": "uint256"
        },
        {
          "internalType": "address",
          "name": "auth",
          "type": "address"
        }
      ],
      "payable": false,
      "stateMutability": "view",
      "type": "function"
    },
    {
      "constant": true,
      "inputs": [
        {
          "internalType": "address",
          "name": "",
          "type": "address"
        }
      ],
      "name": "getValidatorID",
      "outputs": [
        {
          "internalType": "uint256",
          "name": "",
          "type": "uint256"
        }
      ],
      "payable": false,
      "stateMutability": "view",
      "type": "function"
    },
    {
      "constant": true,
      "inputs": [
        {
          "internalType": "uint256",
          "name": "",
          "type": "uint256"
        }
      ],
      "name": "getValidatorPubkey",
      "outputs": [
        {
          "internalType": "bytes",
          "name": "",
          "type": "bytes"
        }
      ],
      "payable": false,
      "stateMutability": "view",
      "type": "function"
    },
    {
      "constant": true,
      "inputs": [
        {
          "internalType": "address",
          "name": "",
          "type": "address"
        },
        {
          "internalType": "uint256",
          "name": "",
          "type": "uint256"
        },
        {
          "internalType": "uint256",
          "name": "",
          "type": "uint256"
        }
      ],
      "name": "getWithdrawalRequest",
      "outputs": [
        {
          "internalType": "uint256",
          "name": "epoch",
          "type": "uint256"
        },
        {
          "internalType": "uint256",
          "name": "time",
          "type": "uint256"
        },
        {
          "internalType": "uint256",
          "name": "amount",
          "type": "uint256"
        }
      ],
      "payable": false,
      "stateMutability": "view",
      "type": "function"
    },
    {
      "constant": false,
      "inputs": [
        {
          "internalType": "uint256",
          "name": "sealedEpoch",
          "type": "uint256"
        },
        {
          "internalType": "uint256",
          "name": "_totalSupply",
          "type": "uint256"
        },
        {
          "internalType": "address",
          "name": "nodeDriver",
          "type": "address"
        },
        {
          "internalType": "address",
          "name": "owner",
          "type": "address"
        },
        {
          "internalType": "address",
          "name": "governance",
          "type": "address"
        }
      ],
      "name": "initialize",
      "outputs": [],
      "payable": false,
      "stateMutability": "nonpayable",
      "type": "function"
    },
    {
      "constant": true,
      "inputs": [
        {
          "internalType": "address",
          "name": "delegator",
          "type": "address"
        },
        {
          "internalType": "uint256",
          "name": "toValidatorID",
          "type": "uint256"
        }
      ],
      "name": "isLockedUp",
      "outputs": [
        {
          "internalType": "bool",
          "name": "",
          "type": "bool"
        }
      ],
      "payable": false,
      "stateMutability": "view",
      "type": "function"
    },
    {
      "constant": true,
      "inputs": [],
      "name": "isOwner",
      "outputs": [
        {
          "internalType": "bool",
          "name": "",
          "type": "bool"
        }
      ],
      "payable": false,
      "stateMutability": "view",
      "type": "function"
    },
    {
      "constant": true,
      "inputs": [
        {
          "internalType": "uint256",
          "name": "validatorID",
          "type": "uint256"
        }
      ],
      "name": "isSlashed",
      "outputs": [
        {
          "internalType": "bool",
          "name": "",
          "type": "bool"
        }
      ],
      "payable": false,
      "stateMutability": "view",
      "type": "function"
    },
    {
      "constant": true,
      "inputs": [],
      "name": "lastValidatorID",
      "outputs": [
        {
          "internalType": "uint256",
          "name": "",
          "type": "uint256"
        }
      ],
      "payable": false,
      "stateMutability": "view",
      "type": "function"
    },
    {
      "constant": false,
      "inputs": [
        {
          "internalType": "uint256",
          "name": "toValidatorID",
          "type": "uint256"
        },
        {
          "internalType": "uint256",
          "name": "lockupDuration",
          "type": "uint256"
        },
        {
          "internalType": "uint256",
          "name": "amount",
          "type": "uint256"
        }
      ],
      "name": "lockStake",
      "outputs": [],
      "payable": false,
      "stateMutability": "nonpayable",
      "type": "function"
    },
    {
      "constant": true,
      "inputs": [],
      "name": "maxDelegatedRatio",
      "outputs": [
        {
          "internalType": "uint256",
          "name": "",
          "type": "uint256"
        }
      ],
      "payable": false,
      "stateMutability": "view",
      "type": "function"
    },
    {
      "constant": true,
      "inputs": [],
      "name": "maxLockupDuration",
      "outputs": [
        {
          "internalType": "uint256",
          "name": "",
          "type": "uint256"
        }
      ],
      "payable": false,
      "stateMutability": "view",
      "type": "function"
    },
    {
      "constant": true,
      "inputs": [],
      "name": "minLockupDuration",
      "outputs": [
        {
          "internalType": "uint256",
          "name": "",
          "type": "uint256"
        }
      ],
      "payable": false,
      "stateMutability": "view",
      "type": "function"
    },
    {
      "constant": true,
      "inputs": [],
      "name": "minSelfStake",
      "outputs": [
        {
          "internalType": "uint256",
          "name": "",
          "type": "uint256"
        }
      ],
      "payable": false,
      "stateMutability": "view",
      "type": "function"
    },
    {
      "constant": false,
      "inputs": [
        {
          "internalType": "address payable",
          "name": "receiver",
          "type": "address"
        },
        {
          "internalType": "uint256",
          "name": "amount",
          "type": "uint256"
        },
        {
          "internalType": "string",
          "name": "justification",
          "type": "string"
        }
      ],
      "name": "mintFTM",
      "outputs": [],
      "payable": false,
      "stateMutability": "nonpayable",
      "type": "function"
    },
    {
      "constant": true,
      "inputs": [],
      "name": "offlinePenaltyThreshold",
      "outputs": [
        {
          "internalType": "uint256",
          "name": "blocksNum",
          "type": "uint256"
        },
        {
          "internalType": "uint256",
          "name": "time",
          "type": "uint256"
        }
      ],
      "payable": false,
      "stateMutability": "view",
      "type": "function"
    },
    {
      "constant": true,
      "inputs": [],
      "name": "owner",
      "outputs": [
        {
          "internalType": "address",
          "name": "",
          "type": "address"
        }
      ],
      "payable": false,
      "stateMutability": "view",
      "type": "function"
    },
    {
      "constant": true,
      "inputs": [
        {
          "internalType": "address",
          "name": "delegator",
          "type": "address"
        },
        {
          "internalType": "uint256",
          "name": "toValidatorID",
          "type": "uint256"
        }
      ],
      "name": "pendingRewards",
      "outputs": [
        {
          "internalType": "uint256",
          "name": "",
          "type": "uint256"
        }
      ],
      "payable": false,
      "stateMutability": "view",
      "type": "function"
    },
    {
      "constant": false,
      "inputs": [
        {
          "internalType": "uint256",
          "name": "toValidatorID",
          "type": "uint256"
        },
        {
          "internalType": "uint256",
          "name": "lockupDuration",
          "type": "uint256"
        },
        {
          "internalType": "uint256",
          "name": "amount",
          "type": "uint256"
        }
      ],
      "name": "relockStake",
      "outputs": [],
      "payable": false,
      "stateMutability": "nonpayable",
      "type": "function"
    },
    {
      "constant": false,
      "inputs": [],
      "name": "renounceOwnership",
      "outputs": [],
      "payable": false,
      "stateMutability": "nonpayable",
      "type": "function"
    },
    {
      "constant": false,
      "inputs": [
        {
          "internalType": "uint256",
          "name": "toValidatorID",
          "type": "uint256"
        }
      ],
      "name": "restakeRewards",
      "outputs": [],
      "payable": false,
      "stateMutability": "nonpayable",
      "type": "function"
    },
    {
      "constant": true,
      "inputs": [
        {
          "internalType": "address",
          "name": "delegator",
          "type": "address"
        },
        {
          "internalType": "uint256",
          "name": "validatorID",
          "type": "uint256"
        }
      ],
      "name": "rewardsStash",
      "outputs": [
        {
          "internalType": "uint256",
          "name": "",
          "type": "uint256"
        }
      ],
      "payable": false,
      "stateMutability": "view",
      "type": "function"
    },
    {
      "constant": false,
      "inputs": [
        {
          "internalType": "uint256[]",
          "name": "offlineTime",
          "type": "uint256[]"
        },
        {
          "internalType": "uint256[]",
          "name": "offlineBlocks",
          "type": "uint256[]"
        },
        {
          "internalType": "uint256[]",
          "name": "uptimes",
          "type": "uint256[]"
        },
        {
          "internalType": "uint256[]",
          "name": "originatedTxsFee",
          "type": "uint256[]"
        }
      ],
      "name": "sealEpoch",
      "outputs": [],
      "payable": false,
      "stateMutability": "nonpayable",
      "type": "function"
    },
    {
      "constant": false,
      "inputs": [
        {
          "internalType": "uint256[]",
          "name": "nextValidatorIDs",
          "type": "uint256[]"
        }
      ],
      "name": "sealEpochValidators",
      "outputs": [],
      "payable": false,
      "stateMutability": "nonpayable",
      "type": "function"
    },
    {
      "constant": false,
      "inputs": [
        {
          "internalType": "uint256",
          "name": "_contractCommission",
          "type": "uint256"
        }
      ],
      "name": "setContractCommission",
      "outputs": [],
      "payable": false,
      "stateMutability": "nonpayable",
      "type": "function"
    },
    {
      "constant": false,
      "inputs": [
        {
          "internalType": "address",
          "name": "delegator",
          "type": "address"
        },
        {
          "internalType": "uint256",
          "name": "toValidatorID",
          "type": "uint256"
        },
        {
          "internalType": "uint256",
          "name": "stake",
          "type": "uint256"
        },
        {
          "internalType": "uint256",
          "name": "lockedStake",
          "type": "uint256"
        },
        {
          "internalType": "uint256",
          "name": "lockupFromEpoch",
          "type": "uint256"
        },
        {
          "internalType": "uint256",
          "name": "lockupEndTime",
          "type": "uint256"
        },
        {
          "internalType": "uint256",
          "name": "lockupDuration",
          "type": "uint256"
        },
        {
          "internalType": "uint256",
          "name": "earlyUnlockPenalty",
          "type": "uint256"
        },
        {
          "internalType": "uint256",
          "name": "rewards",
          "type": "uint256"
        }
      ],
      "name": "setGenesisDelegation",
      "outputs": [],
      "payable": false,
      "stateMutability": "nonpayable",
      "type": "function"
    },
    {
      "constant": false,
      "inputs": [
        {
          "internalType": "address",
          "name": "auth",
          "type": "address"
        },
        {
          "internalType": "uint256",
          "name": "validatorID",
          "type": "uint256"
        },
        {
          "internalType": "bytes",
          "name": "pubkey",
          "type": "bytes"
        },
        {
          "internalType": "uint256",
          "name": "status",
          "type": "uint256"
        },
        {
          "internalType": "uint256",
          "name": "createdEpoch",
          "type": "uint256"
        },
        {
          "internalType": "uint256",
          "name": "createdTime",
          "type": "uint256"
        },
        {
          "internalType": "uint256",
          "name": "deactivatedEpoch",
          "type": "uint256"
        },
        {
          "internalType": "uint256",
          "name": "deactivatedTime",
          "type": "uint256"
        }
      ],
      "name": "setGenesisValidator",
      "outputs": [],
      "payable": false,
      "stateMutability": "nonpayable",
      "type": "function"
    },
    {
      "constant": false,
      "inputs": [
        {
          "internalType": "uint256",
          "name": "_maxDelegationRatio",
          "type": "uint256"
        }
      ],
      "name": "setMaxDelegation",
      "outputs": [],
      "payable": false,
      "stateMutability": "nonpayable",
      "type": "function"
    },
    {
      "constant": false,
      "inputs": [
        {
          "internalType": "uint256",
          "name": "_maxLockupDuration",
          "type": "uint256"
        }
      ],
      "name": "setMaxLockupDuration",
      "outputs": [],
      "payable": false,
      "stateMutability": "nonpayable",
      "type": "function"
    },
    {
      "constant": false,
      "inputs": [
        {
          "internalType": "uint256",
          "name": "_minLockupDuration",
          "type": "uint256"
        }
      ],
      "name": "setMinLockupDuration",
      "outputs": [],
      "payable": false,
      "stateMutability": "nonpayable",
      "type": "function"
    },
    {
      "constant": false,
      "inputs": [
        {
          "internalType": "uint256",
          "name": "_minSelfStake",
          "type": "uint256"
        }
      ],
      "name": "setMinSelfStake",
      "outputs": [],
      "payable": false,
      "stateMutability": "nonpayable",
      "type": "function"
    },
    {
      "constant": false,
      "inputs": [
        {
          "internalType": "uint256",
          "name": "_unlockedReward",
          "type": "uint256"
        }
      ],
      "name": "setUnlockedRewardRatio",
      "outputs": [],
      "payable": false,
      "stateMutability": "nonpayable",
      "type": "function"
    },
    {
      "constant": false,
      "inputs": [
        {
          "internalType": "uint256",
          "name": "_validatorCommission",
          "type": "uint256"
        }
      ],
      "name": "setValidatorCommission",
      "outputs": [],
      "payable": false,
      "stateMutability": "nonpayable",
      "type": "function"
    },
    {
      "constant": false,
      "inputs": [
        {
          "internalType": "uint256",
          "name": "_withdrawalPeriodEpochs",
          "type": "uint256"
        }
      ],
      "name": "setWithdrawalPeriodEpoch",
      "outputs": [],
      "payable": false,
      "stateMutability": "nonpayable",
      "type": "function"
    },
    {
      "constant": false,
      "inputs": [
        {
          "internalType": "uint256",
          "name": "_withdrawalPeriodTime",
          "type": "uint256"
        }
      ],
      "name": "setWithdrawalPeriodTime",
      "outputs": [],
      "payable": false,
      "stateMutability": "nonpayable",
      "type": "function"
    },
    {
      "constant": true,
      "inputs": [
        {
          "internalType": "uint256",
          "name": "",
          "type": "uint256"
        }
      ],
      "name": "slashingRefundRatio",
      "outputs": [
        {
          "internalType": "uint256",
          "name": "",
          "type": "uint256"
        }
      ],
      "payable": false,
      "stateMutability": "view",
      "type": "function"
    },
    {
      "constant": true,
      "inputs": [],
      "name": "stakeTokenizerAddress",
      "outputs": [
        {
          "internalType": "address",
          "name": "",
          "type": "address"
        }
      ],
      "payable": false,
      "stateMutability": "view",
      "type": "function"
    },
    {
      "constant": false,
      "inputs": [
        {
          "internalType": "address",
          "name": "delegator",
          "type": "address"
        },
        {
          "internalType": "uint256",
          "name": "toValidatorID",
          "type": "uint256"
        }
      ],
      "name": "stashRewards",
      "outputs": [],
      "payable": false,
      "stateMutability": "nonpayable",
      "type": "function"
    },
    {
      "constant": true,
      "inputs": [
        {
          "internalType": "address",
          "name": "",
          "type": "address"
        },
        {
          "internalType": "uint256",
          "name": "",
          "type": "uint256"
        }
      ],
      "name": "stashedRewardsUntilEpoch",
      "outputs": [
        {
          "internalType": "uint256",
          "name": "",
          "type": "uint256"
        }
      ],
      "payable": false,
      "stateMutability": "view",
      "type": "function"
    },
    {
      "constant": true,
      "inputs": [],
      "name": "totalActiveStake",
      "outputs": [
        {
          "internalType": "uint256",
          "name": "",
          "type": "uint256"
        }
      ],
      "payable": false,
      "stateMutability": "view",
      "type": "function"
    },
    {
      "constant": true,
      "inputs": [],
      "name": "totalSlashedStake",
      "outputs": [
        {
          "internalType": "uint256",
          "name": "",
          "type": "uint256"
        }
      ],
      "payable": false,
      "stateMutability": "view",
      "type": "function"
    },
    {
      "constant": true,
      "inputs": [],
      "name": "totalStake",
      "outputs": [
        {
          "internalType": "uint256",
          "name": "",
          "type": "uint256"
        }
      ],
      "payable": false,
      "stateMutability": "view",
      "type": "function"
    },
    {
      "constant": true,
      "inputs": [],
      "name": "totalSupply",
      "outputs": [
        {
          "internalType": "uint256",
          "name": "",
          "type": "uint256"
        }
      ],
      "payable": false,
      "stateMutability": "view",
      "type": "function"
    },
    {
      "constant": false,
      "inputs": [
        {
          "internalType": "address",
          "name": "newOwner",
          "type": "address"
        }
      ],
      "name": "transferOwnership",
      "outputs": [],
      "payable": false,
      "stateMutability": "nonpayable",
      "type": "function"
    },
    {
      "constant": false,
      "inputs": [
        {
          "internalType": "uint256",
          "name": "toValidatorID",
          "type": "uint256"
        },
        {
          "internalType": "uint256",
          "name": "wrID",
          "type": "uint256"
        },
        {
          "internalType": "uint256",
          "name": "amount",
          "type": "uint256"
        }
      ],
      "name": "undelegate",
      "outputs": [],
      "payable": false,
      "stateMutability": "nonpayable",
      "type": "function"
    },
    {
      "constant": false,
      "inputs": [
        {
          "internalType": "uint256",
          "name": "toValidatorID",
          "type": "uint256"
        },
        {
          "internalType": "uint256",
          "name": "amount",
          "type": "uint256"
        }
      ],
      "name": "unlockStake",
      "outputs": [
        {
          "internalType": "uint256",
          "name": "",
          "type": "uint256"
        }
      ],
      "payable": false,
      "stateMutability": "nonpayable",
      "type": "function"
    },
    {
      "constant": true,
      "inputs": [],
      "name": "unlockedRewardRatio",
      "outputs": [
        {
          "internalType": "uint256",
          "name": "",
          "type": "uint256"
        }
      ],
      "payable": false,
      "stateMutability": "view",
      "type": "function"
    },
    {
      "constant": false,
      "inputs": [
        {
          "internalType": "uint256",
          "name": "value",
          "type": "uint256"
        }
      ],
      "name": "updateBaseRewardPerSecond",
      "outputs": [],
      "payable": false,
      "stateMutability": "nonpayable",
      "type": "function"
    },
    {
      "constant": false,
      "inputs": [
        {
          "internalType": "address",
          "name": "_governance",
          "type": "address"
        }
      ],
      "name": "updateGovernanceContract",
      "outputs": [],
      "payable": false,
      "stateMutability": "nonpayable",
      "type": "function"
    },
    {
      "constant": false,
      "inputs": [
        {
          "internalType": "uint256",
          "name": "blocksNum",
          "type": "uint256"
        },
        {
          "internalType": "uint256",
          "name": "time",
          "type": "uint256"
        }
      ],
      "name": "updateOfflinePenaltyThreshold",
      "outputs": [],
      "payable": false,
      "stateMutability": "nonpayable",
      "type": "function"
    },
    {
      "constant": false,
      "inputs": [
        {
          "internalType": "uint256",
          "name": "validatorID",
          "type": "uint256"
        },
        {
          "internalType": "uint256",
          "name": "refundRatio",
          "type": "uint256"
        }
      ],
      "name": "updateSlashingRefundRatio",
      "outputs": [],
      "payable": false,
      "stateMutability": "nonpayable",
      "type": "function"
    },
    {
      "constant": false,
      "inputs": [
        {
          "internalType": "address",
          "name": "addr",
          "type": "address"
        }
      ],
      "name": "updateStakeTokenizerAddress",
      "outputs": [],
      "payable": false,
      "stateMutability": "nonpayable",
      "type": "function"
    },
    {
      "constant": false,
      "inputs": [
        {
          "internalType": "int256",
          "name": "diff",
          "type": "int256"
        }
      ],
      "name": "updateTotalSupply",
      "outputs": [],
      "payable": false,
      "stateMutability": "nonpayable",
      "type": "function"
    },
    {
      "constant": true,
      "inputs": [],
      "name": "validatorCommission",
      "outputs": [
        {
          "internalType": "uint256",
          "name": "",
          "type": "uint256"
        }
      ],
      "payable": false,
      "stateMutability": "view",
      "type": "function"
    },
    {
      "constant": true,
      "inputs": [],
      "name": "version",
      "outputs": [
        {
          "internalType": "bytes3",
          "name": "",
          "type": "bytes3"
        }
      ],
      "payable": false,
      "stateMutability": "pure",
      "type": "function"
    },
    {
      "constant": true,
      "inputs": [],
      "name": "viewMaxDelegation",
      "outputs": [
        {
          "internalType": "uint256",
          "name": "",
          "type": "uint256"
        }
      ],
      "payable": false,
      "stateMutability": "view",
      "type": "function"
    },
    {
      "constant": false,
      "inputs": [
        {
          "internalType": "uint256",
          "name": "toValidatorID",
          "type": "uint256"
        },
        {
          "internalType": "uint256",
          "name": "wrID",
          "type": "uint256"
        }
      ],
      "name": "withdraw",
      "outputs": [],
      "payable": false,
      "stateMutability": "nonpayable",
      "type": "function"
    },
    {
      "constant": true,
      "inputs": [],
      "name": "withdrawalPeriodEpochs",
      "outputs": [
        {
          "internalType": "uint256",
          "name": "",
          "type": "uint256"
        }
      ],
      "payable": false,
      "stateMutability": "view",
      "type": "function"
    },
    {
      "constant": true,
      "inputs": [],
      "name": "withdrawalPeriodTime",
      "outputs": [
        {
          "internalType": "uint256",
          "name": "",
          "type": "uint256"
        }
      ],
      "payable": false,
      "stateMutability": "view",
      "type": "function"
    }
  ],
  "bytecode": "0x608060405234801561001057600080fd5b5061606280620000216000396000f3fe60806040526004361061049f5760003560e01c80637cacb1d611610260578063bd14d90711610144578063d9a7c1f9116100c1578063e261641a11610085578063e261641a146113e1578063e2f8c33614611411578063e4af78be146114a1578063ebdf104c146114cb578063f2fde38b14611636578063f78bf110146116695761049f565b8063d9a7c1f9146112bb578063dc31e1af146112d0578063de67f21514611300578063df00c92214611336578063e08d7e66146113665761049f565b8063cc8343aa11610108578063cc8343aa146111c3578063cefe9c18146111f5578063cfd476631461121f578063cfdbb7cd14611258578063d75629cf146112915761049f565b8063bd14d9071461110f578063c3de580e14611145578063c5f530af1461116f578063c65ee0e114611184578063c7be95de146111ae5761049f565b8063a198d229116101dd578063ad9a4b5c116101a1578063ad9a4b5c14610f88578063b5d8962714610fb2578063b6d9edd51461101d578063b810e41114611047578063b82b842714611080578063b88a37e2146110955761049f565b8063a198d22914610e69578063a2f6e6bc14610e99578063a5a470ad14610ecc578063a778651514610f3a578063a86a056f14610f4f5761049f565b80638da5cb5b116102245780638da5cb5b14610d9a5780638f32d59b14610daf57806396c7ee4614610dd85780639d0c3c0514610e375780639fa6dd3514610e4c5761049f565b80637cacb1d614610c68578063854873e114610c7d5780638b0e9f3f14610d1c5780638b1a0d1114610d315780638cddb01514610d615761049f565b806339b80c00116103875780635e2308d211610304578063670322f8116102c8578063670322f814610b6f5780636ca6d6bc14610ba85780636f49866314610bd25780636faf60a014610c0b578063715018a614610c3e5780637667180814610c535761049f565b80635e2308d214610ac75780635fab23a814610adc5780636099ecb214610af157806361e53fcc14610b2a578063650acd6614610b5a5761049f565b80634f864df41161034b5780634f864df41461095c5780634feb92f31461099257806354fd4d5014610a3b5780635601fe0114610a6d57806358f95b8014610a975761049f565b806339b80c001461081f5780633fbfd4df146108815780634055f273146108d2578063441a3e70146108fc5780634f7c4efb1461092c5761049f565b806318f628d4116104205780632709275e116103e45780632709275e1461075e578063289b3c0d1461077357806328f73148146107885780632cedb0971461079d5780632d2646ed146107cb578063346bdcfb146107f55761049f565b806318f628d4146106275780631d3ac42c1461068c5780631e702f83146106bc5780631f270152146106ec5780632265f284146107495761049f565b80630d7b2609116104675780630d7b26091461057e5780630e559d8214610593578063109c3d27146105c457806312622d0e146105d957806318160ddd146106125761049f565b80630135b1db146104a457806303c91ccd146104e957806308c36874146105155780630962ef791461053f5780630d4955e314610569575b600080fd5b3480156104b057600080fd5b506104d7600480360360208110156104c757600080fd5b50356001600160a01b0316611693565b60408051918252519081900360200190f35b3480156104f557600080fd5b506105136004803603602081101561050c57600080fd5b50356116a5565b005b34801561052157600080fd5b506105136004803603602081101561053857600080fd5b50356116b1565b34801561054b57600080fd5b506105136004803603602081101561056257600080fd5b503561177d565b34801561057557600080fd5b506104d76118bd565b34801561058a57600080fd5b506104d76118c8565b34801561059f57600080fd5b506105a86118d1565b604080516001600160a01b039092168252519081900360200190f35b3480156105d057600080fd5b506104d76118e0565b3480156105e557600080fd5b506104d7600480360360408110156105fc57600080fd5b506001600160a01b038135169060200135611963565b34801561061e57600080fd5b506104d76119ec565b34801561063357600080fd5b50610513600480360361012081101561064b57600080fd5b506001600160a01b038135169060208101359060408101359060608101359060808101359060a08101359060c08101359060e08101359061010001356119f2565b34801561069857600080fd5b506104d7600480360360408110156106af57600080fd5b5080359060200135611b52565b3480156106c857600080fd5b50610513600480360360408110156106df57600080fd5b5080359060200135611d2a565b3480156106f857600080fd5b5061072b6004803603606081101561070f57600080fd5b506001600160a01b038135169060208101359060400135611dc8565b60408051938452602084019290925282820152519081900360600190f35b34801561075557600080fd5b506104d7611dfa565b34801561076a57600080fd5b506104d7611e0d565b34801561077f57600080fd5b506105a8611e2a565b34801561079457600080fd5b506104d7611e39565b3480156107a957600080fd5b506107b2611e3f565b6040805192835260208301919091528051918290030190f35b3480156107d757600080fd5b50610513600480360360208110156107ee57600080fd5b5035611e49565b34801561080157600080fd5b506105136004803603602081101561081857600080fd5b5035611e5b565b34801561082b57600080fd5b506108496004803603602081101561084257600080fd5b5035611ec7565b604080519788526020880196909652868601949094526060860192909252608085015260a084015260c0830152519081900360e00190f35b34801561088d57600080fd5b50610513600480360360a08110156108a457600080fd5b508035906020810135906001600160a01b036040820135811691606081013582169160809091013516611f09565b3480156108de57600080fd5b50610513600480360360208110156108f557600080fd5b503561201a565b34801561090857600080fd5b506105136004803603604081101561091f57600080fd5b508035906020013561202c565b34801561093857600080fd5b506105136004803603604081101561094f57600080fd5b5080359060200135612429565b34801561096857600080fd5b506105136004803603606081101561097f57600080fd5b508035906020810135906040013561255b565b34801561099e57600080fd5b5061051360048036036101008110156109b657600080fd5b6001600160a01b0382351691602081013591810190606081016040820135600160201b8111156109e557600080fd5b8201836020820111156109f757600080fd5b803590602001918460018302840111600160201b83111715610a1857600080fd5b9193509150803590602081013590604081013590606081013590608001356127d3565b348015610a4757600080fd5b50610a50612879565b604080516001600160e81b03199092168252519081900360200190f35b348015610a7957600080fd5b506104d760048036036020811015610a9057600080fd5b5035612883565b348015610aa357600080fd5b506104d760048036036040811015610aba57600080fd5b50803590602001356128b9565b348015610ad357600080fd5b506104d76128d6565b348015610ae857600080fd5b506104d76128ed565b348015610afd57600080fd5b506104d760048036036040811015610b1457600080fd5b506001600160a01b0381351690602001356128f3565b348015610b3657600080fd5b506104d760048036036040811015610b4d57600080fd5b5080359060200135612931565b348015610b6657600080fd5b506104d7612952565b348015610b7b57600080fd5b506104d760048036036040811015610b9257600080fd5b506001600160a01b038135169060200135612958565b348015610bb457600080fd5b5061051360048036036020811015610bcb57600080fd5b5035612999565b348015610bde57600080fd5b506104d760048036036040811015610bf557600080fd5b506001600160a01b0381351690602001356129ab565b348015610c1757600080fd5b5061051360048036036020811015610c2e57600080fd5b50356001600160a01b0316612a15565b348015610c4a57600080fd5b50610513612ab8565b348015610c5f57600080fd5b506104d7612b49565b348015610c7457600080fd5b506104d7612b52565b348015610c8957600080fd5b50610ca760048036036020811015610ca057600080fd5b5035612b58565b6040805160208082528351818301528351919283929083019185019080838360005b83811015610ce1578181015183820152602001610cc9565b50505050905090810190601f168015610d0e5780820380516001836020036101000a031916815260200191505b509250505060405180910390f35b348015610d2857600080fd5b506104d7612bf3565b348015610d3d57600080fd5b5061051360048036036040811015610d5457600080fd5b5080359060200135612bf9565b348015610d6d57600080fd5b5061051360048036036040811015610d8457600080fd5b506001600160a01b038135169060200135612c89565b348015610da657600080fd5b506105a8612cd7565b348015610dbb57600080fd5b50610dc4612ce6565b604080519115158252519081900360200190f35b348015610de457600080fd5b50610e1160048036036040811015610dfb57600080fd5b506001600160a01b038135169060200135612cf7565b604080519485526020850193909352838301919091526060830152519081900360800190f35b348015610e4357600080fd5b506104d7612d29565b61051360048036036020811015610e6257600080fd5b5035612d2f565b348015610e7557600080fd5b506104d760048036036040811015610e8c57600080fd5b5080359060200135612d3a565b348015610ea557600080fd5b5061051360048036036020811015610ebc57600080fd5b50356001600160a01b0316612d5b565b61051360048036036020811015610ee257600080fd5b810190602081018135600160201b811115610efc57600080fd5b820183602082011115610f0e57600080fd5b803590602001918460018302840111600160201b83111715610f2f57600080fd5b509092509050612dc4565b348015610f4657600080fd5b506104d7612f46565b348015610f5b57600080fd5b506104d760048036036040811015610f7257600080fd5b506001600160a01b038135169060200135612f5d565b348015610f9457600080fd5b5061051360048036036020811015610fab57600080fd5b5035612f7a565b348015610fbe57600080fd5b50610fdc60048036036020811015610fd557600080fd5b5035612f8c565b604080519788526020880196909652868601949094526060860192909252608085015260a08401526001600160a01b031660c0830152519081900360e00190f35b34801561102957600080fd5b506105136004803603602081101561104057600080fd5b5035612fd2565b34801561105357600080fd5b5061072b6004803603604081101561106a57600080fd5b506001600160a01b0381351690602001356130b2565b34801561108c57600080fd5b506104d76130de565b3480156110a157600080fd5b506110bf600480360360208110156110b857600080fd5b50356130e4565b60408051602080825283518183015283519192839290830191858101910280838360005b838110156110fb5781810151838201526020016110e3565b505050509050019250505060405180910390f35b34801561111b57600080fd5b506105136004803603606081101561113257600080fd5b5080359060208101359060400135613149565b34801561115157600080fd5b50610dc46004803603602081101561116857600080fd5b503561315c565b34801561117b57600080fd5b506104d7613173565b34801561119057600080fd5b506104d7600480360360208110156111a757600080fd5b5035613183565b3480156111ba57600080fd5b506104d7613195565b3480156111cf57600080fd5b50610513600480360360408110156111e657600080fd5b5080359060200135151561319b565b34801561120157600080fd5b506105136004803603602081101561121857600080fd5b503561337d565b34801561122b57600080fd5b506104d76004803603604081101561124257600080fd5b506001600160a01b03813516906020013561338f565b34801561126457600080fd5b50610dc46004803603604081101561127b57600080fd5b506001600160a01b0381351690602001356133ac565b34801561129d57600080fd5b50610513600480360360208110156112b457600080fd5b5035613442565b3480156112c757600080fd5b506104d7613454565b3480156112dc57600080fd5b506104d7600480360360408110156112f357600080fd5b508035906020013561345a565b34801561130c57600080fd5b506105136004803603606081101561132357600080fd5b508035906020810135906040013561347b565b34801561134257600080fd5b506104d76004803603604081101561135957600080fd5b5080359060200135613518565b34801561137257600080fd5b506105136004803603602081101561138957600080fd5b810190602081018135600160201b8111156113a357600080fd5b8201836020820111156113b557600080fd5b803590602001918460208302840111600160201b831117156113d657600080fd5b509092509050613539565b3480156113ed57600080fd5b506104d76004803603604081101561140457600080fd5b5080359060200135613613565b34801561141d57600080fd5b506105136004803603606081101561143457600080fd5b6001600160a01b0382351691602081013591810190606081016040820135600160201b81111561146357600080fd5b82018360208201111561147557600080fd5b803590602001918460018302840111600160201b8311171561149657600080fd5b509092509050613634565b3480156114ad57600080fd5b50610513600480360360208110156114c457600080fd5b5035613733565b3480156114d757600080fd5b50610513600480360360808110156114ee57600080fd5b810190602081018135600160201b81111561150857600080fd5b82018360208201111561151a57600080fd5b803590602001918460208302840111600160201b8311171561153b57600080fd5b919390929091602081019035600160201b81111561155857600080fd5b82018360208201111561156a57600080fd5b803590602001918460208302840111600160201b8311171561158b57600080fd5b919390929091602081019035600160201b8111156115a857600080fd5b8201836020820111156115ba57600080fd5b803590602001918460208302840111600160201b831117156115db57600080fd5b919390929091602081019035600160201b8111156115f857600080fd5b82018360208201111561160a57600080fd5b803590602001918460208302840111600160201b8311171561162b57600080fd5b509092509050613745565b34801561164257600080fd5b506105136004803603602081101561165957600080fd5b50356001600160a01b0316613921565b34801561167557600080fd5b506105136004803603602081101561168c57600080fd5b5035613971565b606a6020526000908152604090205481565b6116ae81613983565b50565b336116ba615d62565b6116c482846139be565b602081015181519192506000916116e09163ffffffff613ab216565b905061170383856116fe856040015185613ab290919063ffffffff16565b613b0c565b6001600160a01b0383166000818152607460209081526040808320888452825291829020805485019055845185820151868401518451928352928201528083019190915290518692917f4119153d17a36f9597d40e3ab4148d03261a439dddbec4e91799ab7159608e26919081900360600190a350505050565b33611786615d62565b61179082846139be565b90506000826001600160a01b03166117cd83604001516117c185602001518660000151613ab290919063ffffffff16565b9063ffffffff613ab216565b604051600081818185875af1925050503d8060008114611809576040519150601f19603f3d011682016040523d82523d6000602084013e61180e565b606091505b5050905080611859576040805162461bcd60e51b81526020600482015260126024820152714661696c656420746f2073656e642046544d60701b604482015290519081900360640190fd5b83836001600160a01b03167fc1d8eb6e444b89fb8ff0991c19311c070df704ccb009e210d1462d5b2410bf4584600001518560200151866040015160405180848152602001838152602001828152602001935050505060405180910390a350505050565b60815461016d025b90565b608054600e0290565b6085546001600160a01b031681565b600080606660009054906101000a90046001600160a01b03166001600160a01b0316635584c4f96040518163ffffffff1660e01b815260040160206040518083038186803b15801561193157600080fd5b505afa158015611945573d6000803e3d6000fd5b505050506040513d602081101561195b57600080fd5b505191505090565b600061196f83836133ac565b61199d57506001600160a01b03821660009081526073602090815260408083208484529091529020546119e6565b6001600160a01b0383166000818152607460209081526040808320868452825280832054938352607382528083208684529091529020546119e39163ffffffff613c0916565b90505b92915050565b60775481565b6119fb33613c4b565b611a365760405162461bcd60e51b8152600401808060200182810382526029815260200180615eb36029913960400191505060405180910390fd5b611a41898989613c5f565b6001600160a01b03891660009081526070602090815260408083208b84529091529020600201819055611a7387613dc4565b8515611b475786861115611ab85760405162461bcd60e51b815260040180806020018281038252602c815260200180616002602c913960400191505060405180910390fd5b6001600160a01b03891660008181526074602090815260408083208c845282528083208a8155600181018a90556002810189905560038101889055848452607583528184208d855283529281902086905580518781529182018a9052805192938c9390927f138940e95abffcd789b497bf6188bba3afa5fbd22fb5c42c2f6018d1bf0f4e7892908290030190a3505b505050505050505050565b336000818152607460209081526040808320868452909152812090919083611baf576040805162461bcd60e51b815260206004820152600b60248201526a1e995c9bc8185b5bdd5b9d60aa1b604482015290519081900360640190fd5b611bb982866133ac565b611bfa576040805162461bcd60e51b815260206004820152600d60248201526c06e6f74206c6f636b656420757609c1b604482015290519081900360640190fd5b8054841115611c50576040805162461bcd60e51b815260206004820152601760248201527f6e6f7420656e6f756768206c6f636b6564207374616b65000000000000000000604482015290519081900360640190fd5b611c5a8286613e49565b611ca6576040805162461bcd60e51b81526020600482015260186024820152776f75747374616e64696e67207346544d2062616c616e636560401b604482015290519081900360640190fd5b611cb08286613eeb565b506000611cc383878785600001546140b6565b825486900383559050611cd78387836141e7565b85836001600160a01b03167fef6c0c14fe9aa51af36acd791464dec3badbde668b63189b47bfa4e25be9b2b98784604051808381526020018281526020019250505060405180910390a395945050505050565b611d3333613c4b565b611d6e5760405162461bcd60e51b8152600401808060200182810382526029815260200180615eb36029913960400191505060405180910390fd5b80611daf576040805162461bcd60e51b815260206004820152600c60248201526b77726f6e672073746174757360a01b604482015290519081900360640190fd5b611db98282614337565b611dc482600061319b565b5050565b607260209081526000938452604080852082529284528284209052825290208054600182015460029092015490919083565b6000611e04614461565b607c5402905090565b60006064611e19614461565b607e540281611e2457fe5b04905090565b6066546001600160a01b031690565b606e5481565b607954607a549091565b611e523361446d565b6116ae816144e7565b611e63612ce6565b611ea2576040805162461bcd60e51b81526020600482018190526024820152600080516020615efd833981519152604482015290519081900360640190fd5b60008112611eb75760778054820190556116ae565b6077805460008390039003905550565b607860205280600052604060002060009150905080600701549080600801549080600901549080600a01549080600b01549080600c01549080600d0154905087565b600054610100900460ff1680611f225750611f22614522565b80611f30575060005460ff16155b611f6b5760405162461bcd60e51b815260040180806020018281038252602e815260200180615f1d602e913960400191505060405180910390fd5b600054610100900460ff16158015611f96576000805460ff1961ff0019909116610100171660011790555b611f9f83614528565b611fa882614619565b6068869055606780546001600160a01b0319166001600160a01b03861617905560778590556755cfe697852e904c6076556103e86079556203f480607a55611fee614704565b6000878152607860205260409020600701558015612012576000805461ff00191690555b505050505050565b6120233361446d565b6116ae81614708565b33612035615d62565b506001600160a01b0381166000908152607260209081526040808320868452825280832085845282529182902082516060810184528154808252600183015493820193909352600290910154928101929092526120d1576040805162461bcd60e51b81526020600482015260156024820152741c995c5d595cdd08191bd95cdb89dd08195e1a5cdd605a1b604482015290519081900360640190fd5b6120db8285613e49565b612127576040805162461bcd60e51b81526020600482015260186024820152776f75747374616e64696e67207346544d2062616c616e636560401b604482015290519081900360640190fd5b60208082015182516000878152606990935260409092206001015490919015801590612163575060008681526069602052604090206001015482115b15612184575050600084815260696020526040902060018101546002909101545b61218c6130de565b8201612196614704565b10156121e2576040805162461bcd60e51b81526020600482015260166024820152751b9bdd08195b9bdd59da081d1a5b59481c185cdcd95960521b604482015290519081900360640190fd5b6121ea612952565b81016121f4612b49565b1015612247576040805162461bcd60e51b815260206004820152601860248201527f6e6f7420656e6f7567682065706f636873207061737365640000000000000000604482015290519081900360640190fd5b6001600160a01b03841660009081526072602090815260408083208984528252808320888452909152812060020154906122808861315c565b905060006122a28383608460008d815260200190815260200160002054614743565b6001600160a01b03881660009081526072602090815260408083208d845282528083208c845290915281208181556001810182905560020155606f8054820190559050808311612332576040805162461bcd60e51b81526020600482015260166024820152751cdd185ad9481a5cc8199d5b1b1e481cdb185cda195960521b604482015290519081900360640190fd5b60006001600160a01b03881661234e858463ffffffff613c0916565b604051600081818185875af1925050503d806000811461238a576040519150601f19603f3d011682016040523d82523d6000602084013e61238f565b606091505b50509050806123da576040805162461bcd60e51b81526020600482015260126024820152714661696c656420746f2073656e642046544d60701b604482015290519081900360640190fd5b888a896001600160a01b03167f75e161b3e824b114fc1a33274bd7091918dd4e639cede50b78b15a4eea956a21876040518082815260200191505060405180910390a450505050505050505050565b612431612ce6565b612470576040805162461bcd60e51b81526020600482018190526024820152600080516020615efd833981519152604482015290519081900360640190fd5b6124798261315c565b6124ca576040805162461bcd60e51b815260206004820152601760248201527f76616c696461746f722069736e277420736c6173686564000000000000000000604482015290519081900360640190fd5b6124d2614461565b8111156125105760405162461bcd60e51b8152600401808060200182810382526021815260200180615f906021913960400191505060405180910390fd5b6000828152608460209081526040918290208390558151838152915184927f047575f43f09a7a093d94ec483064acfc61b7e25c0de28017da442abf99cb91792908290030190a25050565b336125668185613eeb565b50600082116125aa576040805162461bcd60e51b815260206004820152600b60248201526a1e995c9bc8185b5bdd5b9d60aa1b604482015290519081900360640190fd5b6125b48185611963565b821115612608576040805162461bcd60e51b815260206004820152601960248201527f6e6f7420656e6f75676820756e6c6f636b6564207374616b6500000000000000604482015290519081900360640190fd5b6126128185613e49565b61265e576040805162461bcd60e51b81526020600482015260186024820152776f75747374616e64696e67207346544d2062616c616e636560401b604482015290519081900360640190fd5b6001600160a01b03811660009081526072602090815260408083208784528252808320868452909152902060020154156126d5576040805162461bcd60e51b81526020600482015260136024820152727772494420616c72656164792065786973747360681b604482015290519081900360640190fd5b6126e08185846141e7565b6001600160a01b038116600090815260726020908152604080832087845282528083208684529091529020600201829055612719612b49565b6001600160a01b0382166000908152607260209081526040808320888452825280832087845290915290205561274d614704565b6001600160a01b0382166000908152607260209081526040808320888452825280832087845290915281206001019190915561278a90859061319b565b8284826001600160a01b03167fd3bb4e423fbea695d16b982f9f682dc5f35152e5411646a8a5a79a6b02ba8d57856040518082815260200191505060405180910390a450505050565b6127dc33613c4b565b6128175760405162461bcd60e51b8152600401808060200182810382526029815260200180615eb36029913960400191505060405180910390fd5b61285f898989898080601f0160208091040260200160405190810160405280939291908181526020018383808284376000920191909152508b92508a915089905088886147a5565b606c54881115611b4757606c889055505050505050505050565b6219981960e91b90565b6000818152606960209081526040808320600601546001600160a01b03168352607382528083208484529091529020545b919050565b600091825260786020908152604080842092845291905290205490565b600060646128e2614461565b607f540281611e2457fe5b606f5481565b60006128fd615d62565b6129078484614954565b805160208201516040830151929350612929926117c19163ffffffff613ab216565b949350505050565b60009182526078602090815260408084209284526001909201905290205490565b60825490565b600061296483836133ac565b612970575060006119e6565b506001600160a01b03919091166000908152607460209081526040808320938352929052205490565b6129a23361446d565b6116ae816149c2565b60006129b5615d62565b506001600160a01b0383166000908152607060209081526040808320858452825291829020825160608101845281548082526001830154938201849052600290920154938101849052926129299290916117c1919063ffffffff613ab216565b612a1d612ce6565b612a5c576040805162461bcd60e51b81526020600482018190526024820152600080516020615efd833981519152604482015290519081900360640190fd5b6066546040516001600160a01b038084169216907f434a2db650703b36c824e745330d6397cdaa9ee2cc891a4938ae853e1c50b68d90600090a3606680546001600160a01b0319166001600160a01b0392909216919091179055565b612ac0612ce6565b612aff576040805162461bcd60e51b81526020600482018190526024820152600080516020615efd833981519152604482015290519081900360640190fd5b6033546040516000916001600160a01b0316907f8be0079c531659141344cd1fd0a4f28419497f9722a3daafe3b4186f6b6457e0908390a3603380546001600160a01b0319169055565b60685460010190565b60685481565b606b6020908152600091825260409182902080548351601f600260001961010060018616150201909316929092049182018490048402810184019094528084529091830182828015612beb5780601f10612bc057610100808354040283529160200191612beb565b820191906000526020600020905b815481529060010190602001808311612bce57829003601f168201915b505050505081565b606d5481565b612c01612ce6565b612c40576040805162461bcd60e51b81526020600482018190526024820152600080516020615efd833981519152604482015290519081900360640190fd5b607a8190556079829055604080518381526020810183905281517f702756a07c05d0bbfd06fc17b67951a5f4deb7bb6b088407e68a58969daf2a34929181900390910190a15050565b612c938282613eeb565b611dc4576040805162461bcd60e51b815260206004820152601060248201526f0dcdee8d0d2dcce40e8de40e6e8c2e6d60831b604482015290519081900360640190fd5b6033546001600160a01b031690565b6033546001600160a01b0316331490565b607460209081526000928352604080842090915290825290208054600182015460028301546003909301549192909184565b607c5490565b6116ae338234613b0c565b60009182526078602090815260408084209284526005909201905290205490565b612d63612ce6565b612da2576040805162461bcd60e51b81526020600482018190526024820152600080516020615efd833981519152604482015290519081900360640190fd5b608580546001600160a01b0319166001600160a01b0392909216919091179055565b612dcc613173565b341015612e1a576040805162461bcd60e51b8152602060048201526017602482015276696e73756666696369656e742073656c662d7374616b6560481b604482015290519081900360640190fd5b8015801590612e2a575060428111155b612e6a576040805162461bcd60e51b815260206004820152600c60248201526b656d707479207075626b657960a01b604482015290519081900360640190fd5b6000805b6004811015612ead57838382810160031901818110612e8957fe5b909101356001600160f81b031916159050612ea5578160010191505b600101612e6e565b5060008111612ef4576040805162461bcd60e51b815260206004820152600e60248201526d696e76616c6964207075626b657960901b604482015290519081900360640190fd5b612f343384848080601f0160208091040260200160405190810160405280939291908181526020018383808284376000920191909152506149fd92505050565b612f4133606c5434613b0c565b505050565b60006064612f52614461565b607d540281611e2457fe5b607160209081526000928352604080842090915290825290205481565b612f833361446d565b6116ae81614a28565b606960205260009081526040902080546001820154600283015460038401546004850154600586015460069096015494959394929391929091906001600160a01b031687565b612fda612ce6565b613019576040805162461bcd60e51b81526020600482018190526024820152600080516020615efd833981519152604482015290519081900360640190fd5b6801c985c8903591eb20811115613077576040805162461bcd60e51b815260206004820152601b60248201527f746f6f206c617267652072657761726420706572207365636f6e640000000000604482015290519081900360640190fd5b60768190556040805182815290517f8cd9dae1bbea2bc8a5e80ffce2c224727a25925130a03ae100619a8861ae23969181900360200190a150565b607560209081526000928352604080842090915290825290208054600182015460029092015490919083565b60835490565b60008181526078602090815260409182902060060180548351818402810184019094528084526060939283018282801561313d57602002820191906000526020600020905b815481526020019060010190808311613129575b50505050509050919050565b3361315681858585614a63565b50505050565b600090815260696020526040902054608016151590565b607b54670de0b6b3a76400000290565b60846020526000908152604090205481565b606c5481565b6131a482614d15565b6131ef576040805162461bcd60e51b81526020600482015260176024820152761d985b1a59185d1bdc88191bd95cdb89dd08195e1a5cdd604a1b604482015290519081900360640190fd5b6000828152606960205260409020600381015490541561320d575060005b6067546040805163520337df60e11b8152600481018690526024810184905290516001600160a01b039092169163a4066fbe9160448082019260009290919082900301818387803b15801561326157600080fd5b505af1158015613275573d6000803e3d6000fd5b5050505081801561328557508015155b15612f41576067546000848152606b602052604090819020815163242a6e3f60e01b81526004810187815260248201938452825460026000196001831615610100020190911604604483018190526001600160a01b039095169463242a6e3f9489949390916064909101908490801561333f5780601f106133145761010080835404028352916020019161333f565b820191906000526020600020905b81548152906001019060200180831161332257829003601f168201915b50509350505050600060405180830381600087803b15801561336057600080fd5b505af1158015613374573d6000803e3d6000fd5b50505050505050565b6133863361446d565b6116ae81614d2c565b607360209081526000928352604080842090915290825290205481565b6001600160a01b03821660009081526074602090815260408083208484529091528120600201541580159061340357506001600160a01b038316600090815260746020908152604080832085845290915290205415155b80156119e357506001600160a01b0383166000908152607460209081526040808320858452909152902060020154613439614704565b11159392505050565b61344b3361446d565b6116ae81614d67565b60765481565b60009182526078602090815260408084209284526003909201905290205490565b33816134bc576040805162461bcd60e51b815260206004820152600b60248201526a1e995c9bc8185b5bdd5b9d60aa1b604482015290519081900360640190fd5b6134c681856133ac565b1561350c576040805162461bcd60e51b81526020600482015260116024820152700616c7265616479206c6f636b656420757607c1b604482015290519081900360640190fd5b61315681858585614a63565b60009182526078602090815260408084209284526002909201905290205490565b61354233613c4b565b61357d5760405162461bcd60e51b8152600401808060200182810382526029815260200180615eb36029913960400191505060405180910390fd5b60006078600061358b612b49565b8152602001908152602001600020905060008090505b828110156136045760008484838181106135b757fe5b60209081029290920135600081815260698452604080822060030154948890529020839055600c8601549093506135f591508263ffffffff613ab216565b600c85015550506001016135a1565b50613156600682018484615d83565b60009182526078602090815260408084209284526004909201905290205490565b61363c612ce6565b61367b576040805162461bcd60e51b81526020600482018190526024820152600080516020615efd833981519152604482015290519081900360640190fd5b61368483613dc4565b6040516001600160a01b0385169084156108fc029085906000818181858888f193505050501580156136ba573d6000803e3d6000fd5b50836001600160a01b03167f9eec469b348bcf64bbfb60e46ce7b160e2e09bf5421496a2cdbc43714c28b8ad84848460405180848152602001806020018281038252848482818152602001925080828437600083820152604051601f909101601f1916909201829003965090945050505050a250505050565b61373c3361446d565b6116ae81614da2565b61374e33613c4b565b6137895760405162461bcd60e51b8152600401808060200182810382526029815260200180615eb36029913960400191505060405180910390fd5b600060786000613797612b49565b815260200190815260200160002090506060816006018054806020026020016040519081016040528092919081815260200182805480156137f757602002820191906000526020600020905b8154815260200190600101908083116137e3575b5050505050905061387e82828c8c80806020026020016040519081016040528093929190818152602001838360200280828437600081840152601f19601f820116905080830192505050505050508b8b80806020026020016040519081016040528093929190818152602001838360200280828437600092019190915250614ddd92505050565b6138ed828288888080602002602001604051908101604052809392919081815260200183836020028082843760009201919091525050604080516020808c0282810182019093528b82529093508b92508a918291850190849080828437600092019190915250614ef392505050565b6138f5612b49565b606855613900614704565b600783015550607654600b820155607754600d909101555050505050505050565b613929612ce6565b613968576040805162461bcd60e51b81526020600482018190526024820152600080516020615efd833981519152604482015290519081900360640190fd5b6116ae81615539565b61397a3361446d565b6116ae816155da565b607c8190556040805182815290517fd3b49810855efc7d611424cd0a8cc519b92cf2e97bd3516921dff1a19b101e359181900360200190a150565b6139c6615d62565b6139d08383613eeb565b50506001600160a01b038216600090815260706020908152604080832084845282528083208151606081018352815480825260018301549482018590526002909201549281018390529392613a2e926117c19163ffffffff613ab216565b905080613a71576040805162461bcd60e51b815260206004820152600c60248201526b7a65726f207265776172647360a01b604482015290519081900360640190fd5b6001600160a01b038416600090815260706020908152604080832086845290915281208181556001810182905560020155613aab81613dc4565b5092915050565b6000828201838110156119e3576040805162461bcd60e51b815260206004820152601b60248201527f536166654d6174683a206164646974696f6e206f766572666c6f770000000000604482015290519081900360640190fd5b613b1582614d15565b613b60576040805162461bcd60e51b81526020600482015260176024820152761d985b1a59185d1bdc88191bd95cdb89dd08195e1a5cdd604a1b604482015290519081900360640190fd5b60008281526069602052604090205415613bba576040805162461bcd60e51b815260206004820152601660248201527576616c696461746f722069736e27742061637469766560501b604482015290519081900360640190fd5b613bc5838383613c5f565b613bce82615615565b612f415760405162461bcd60e51b8152600401808060200182810382526029815260200180615fd96029913960400191505060405180910390fd5b60006119e383836040518060400160405280601e81526020017f536166654d6174683a207375627472616374696f6e206f766572666c6f77000081525061565d565b6067546001600160a01b0390811691161490565b60008111613ca2576040805162461bcd60e51b815260206004820152600b60248201526a1e995c9bc8185b5bdd5b9d60aa1b604482015290519081900360640190fd5b613cac8383613eeb565b506001600160a01b0383166000908152607360209081526040808320858452909152902054613ce1908263ffffffff613ab216565b6001600160a01b0384166000908152607360209081526040808320868452825280832093909355606990522060030154613d21818363ffffffff613ab216565b600084815260696020526040902060030155606d54613d46908363ffffffff613ab216565b606d55600083815260696020526040902054613d7357606e54613d6f908363ffffffff613ab216565b606e555b613d7e83821561319b565b60408051838152905184916001600160a01b038716917f9a8f44850296624dadfd9c246d17e47171d35727a181bd090aa14bbbe00238bb9181900360200190a350505050565b606754604080516366e7ea0f60e01b81523060048201526024810184905290516001600160a01b03909216916366e7ea0f9160448082019260009290919082900301818387803b158015613e1757600080fd5b505af1158015613e2b573d6000803e3d6000fd5b5050607754613e43925090508263ffffffff613ab216565b60775550565b6085546000906001600160a01b0316613e64575060016119e6565b608554604080516321d585c360e01b81526001600160a01b03868116600483015260248201869052915191909216916321d585c3916044808301926020929190829003018186803b158015613eb857600080fd5b505afa158015613ecc573d6000803e3d6000fd5b505050506040513d6020811015613ee257600080fd5b50519392505050565b6000613ef5615d62565b613eff84846156f4565b9050613f0a8361582c565b6001600160a01b03851660008181526071602090815260408083208884528252808320949094559181526070825282812086825282528290208251606081018452815481526001820154928101929092526002015491810191909152613f709082615887565b6001600160a01b038516600081815260706020908152604080832088845282528083208551815585830151600180830191909155958201516002918201559383526075825280832088845282529182902082516060810184528154815294810154918501919091529091015490820152613fea9082615887565b6001600160a01b03851660009081526075602090815260408083208784528252918290208351815590830151600182015591015160029091015561402e84846133ac565b614091576001600160a01b0384166000818152607460209081526040808320878452825280832083815560018082018590556002808301869055600390920185905594845260758352818420888552909252822082815592830182905591909101555b60208101511515806140a35750805115155b8061292957506040015115159392505050565b6001600160a01b038416600090815260756020908152604080832086845290915281205481906140fe9084906140f2908763ffffffff6158f916565b9063ffffffff61595216565b6001600160a01b03871660009081526075602090815260408083208984529091528120600101549192509061413f9085906140f2908863ffffffff6158f916565b6001600160a01b03881660009081526075602090815260408083208a8452909152902054909150600282048301906141779084613c09565b6001600160a01b03891660009081526075602090815260408083208b84529091529020908155600101546141ab9083613c09565b6001600160a01b03891660009081526075602090815260408083208b84529091529020600101558581106141dc5750845b979650505050505050565b6001600160a01b0383166000908152607360209081526040808320858452825280832080548590039055606990915290206003015461422c908263ffffffff613c0916565b600083815260696020526040902060030155606d54614251908263ffffffff613c0916565b606d5560008281526069602052604090205461427e57606e5461427a908263ffffffff613c0916565b606e555b600061428983612883565b9050801561433057614299613173565b8110156142e7576040805162461bcd60e51b8152602060048201526017602482015276696e73756666696369656e742073656c662d7374616b6560481b604482015290519081900360640190fd5b6142f083615615565b61432b5760405162461bcd60e51b8152600401808060200182810382526029815260200180615fd96029913960400191505060405180910390fd5b613156565b6131568360015b60008281526069602052604090205415801561435257508015155b1561437f57600082815260696020526040902060030154606e5461437b9163ffffffff613c0916565b606e555b600082815260696020526040902054811115611dc457600082815260696020526040902081815560020154614427576143b6612b49565b6000838152606960205260409020600201556143d0614704565b6000838152606960209081526040918290206001810184905560020154825190815290810192909252805184927fac4801c32a6067ff757446524ee4e7a373797278ac3c883eac5c693b4ad72e4792908290030190a25b60408051828152905183917fcd35267e7654194727477d6c78b541a553483cff7f92a055d17868d3da6e953e919081900360200190a25050565b670de0b6b3a764000090565b614475611e2a565b6001600160a01b0316816001600160a01b031614806144ac5750614497612cd7565b6001600160a01b0316816001600160a01b0316145b6116ae5760405162461bcd60e51b8152600401808060200182810382526045815260200180615f4b6045913960600191505060405180910390fd5b607d8190556040805182815290517f969e21e21af49053b3bfee796b627ebc26e10328889e90a47da2f1205d3e8f139181900360200190a150565b303b1590565b600054610100900460ff16806145415750614541614522565b8061454f575060005460ff16155b61458a5760405162461bcd60e51b815260040180806020018281038252602e815260200180615f1d602e913960400191505060405180910390fd5b600054610100900460ff161580156145b5576000805460ff1961ff0019909116610100171660011790555b603380546001600160a01b0319166001600160a01b0384811691909117918290556040519116906000907f8be0079c531659141344cd1fd0a4f28419497f9722a3daafe3b4186f6b6457e0908290a38015611dc4576000805461ff00191690555050565b600054610100900460ff16806146325750614632614522565b80614640575060005460ff16155b61467b5760405162461bcd60e51b815260040180806020018281038252602e815260200180615f1d602e913960400191505060405180910390fd5b600054610100900460ff161580156146a6576000805460ff1961ff0019909116610100171660011790555b606680546001600160a01b0319166001600160a01b0384169081179091556040516000907f434a2db650703b36c824e745330d6397cdaa9ee2cc891a4938ae853e1c50b68d908290a38015611dc4576000805461ff00191690555050565b4290565b60808190556040805182815290517f31d33f23d1e7fe45f7e898c070587ff0f2f519674e5e2a12f90b3a17c77f6ad19181900360200190a150565b60008215806147595750614755614461565b8210155b156147665750600061479e565b61479160016117c1614776614461565b6140f286614782614461565b8a91900363ffffffff6158f916565b90508381111561479e5750825b9392505050565b6001600160a01b0388166000908152606a602052604090205415614810576040805162461bcd60e51b815260206004820152601860248201527f76616c696461746f7220616c7265616479206578697374730000000000000000604482015290519081900360640190fd5b6001600160a01b0388166000818152606a602090815260408083208b90558a8352606982528083208981556004810189905560058101889055600181018690556002810187905560060180546001600160a01b031916909417909355606b8152919020875161488192890190615dce565b50876001600160a01b0316877f49bca1ed2666922f9f1690c26a569e1299c2a715fe57647d77e81adfabbf25bf8686604051808381526020018281526020019250505060405180910390a3811561490d576040805183815260208101839052815189927fac4801c32a6067ff757446524ee4e7a373797278ac3c883eac5c693b4ad72e47928290030190a25b841561494a5760408051868152905188917fcd35267e7654194727477d6c78b541a553483cff7f92a055d17868d3da6e953e919081900360200190a25b5050505050505050565b61495c615d62565b614964615d62565b61496e84846156f4565b6001600160a01b038516600090815260706020908152604080832087845282529182902082516060810184528154815260018201549281019290925260020154918101919091529091506129299082615887565b60828190556040805182815290517f2f273767369d76e1ecbee32ed26135f390df620f085feb7a6f2e3dd51985bd5f9181900360200190a150565b606c805460010190819055612f418382846000614a18612b49565b614a20614704565b6000806147a5565b607e8190556040805182815290517f12420e865335c7cfb225296eb0adaca14bfb1de93b3731ed1e0434746a4d91249181900360200190a150565b614a6d8484611963565b811115614ab4576040805162461bcd60e51b815260206004820152601060248201526f6e6f7420656e6f756768207374616b6560801b604482015290519081900360640190fd5b60008381526069602052604090205415614b0e576040805162461bcd60e51b815260206004820152601660248201527576616c696461746f722069736e27742061637469766560501b604482015290519081900360640190fd5b614b166118c8565b8210158015614b2c5750614b286118bd565b8211155b614b72576040805162461bcd60e51b815260206004820152601260248201527134b731b7b93932b1ba10323ab930ba34b7b760711b604482015290519081900360640190fd5b6000614b80836117c1614704565b6000858152606960205260409020600601549091506001600160a01b039081169086168114614c0e576001600160a01b0381166000908152607460209081526040808320888452909152902060020154821115614c0e5760405162461bcd60e51b8152600401808060200182810382526028815260200180615fb16028913960400191505060405180910390fd5b614c188686613eeb565b506001600160a01b038616600090815260746020908152604080832088845290915290206003810154851015614c95576040805162461bcd60e51b815260206004820152601f60248201527f6c6f636b7570206475726174696f6e2063616e6e6f7420646563726561736500604482015290519081900360640190fd5b8054614ca7908563ffffffff613ab216565b8155614cb1612b49565b600182015560028101839055600381018590556040805186815260208101869052815188926001600160a01b038b16927f138940e95abffcd789b497bf6188bba3afa5fbd22fb5c42c2f6018d1bf0f4e78929081900390910190a350505050505050565b600090815260696020526040902060050154151590565b607f8190556040805182815290517fcda2f8a6b9050afa9ac1f8d6ff9a123894f76a5530c6c29636332c995a1f97159181900360200190a150565b607b8190556040805182815290517fe9a0db1369c39eb7fc2ed3d7e122f9ee60952b075329b1e84bce8843367210f49181900360200190a150565b60838190556040805182815290517f9e85e6207a28e085f027a9b979cad850f4c36a581dd42c119e856c04b92d96119181900360200190a150565b60005b8351811015614eec57607954828281518110614df857fe5b6020026020010151118015614e225750607a54838281518110614e1757fe5b602002602001015110155b15614e6357614e45848281518110614e3657fe5b60200260200101516008614337565b614e63848281518110614e5457fe5b6020026020010151600061319b565b828181518110614e6f57fe5b6020026020010151856004016000868481518110614e8957fe5b6020026020010151815260200190815260200160002081905550818181518110614eaf57fe5b6020026020010151856005016000868481518110614ec957fe5b602090810291909101810151825281019190915260400160002055600101614de0565b5050505050565b614efb615e3c565b6040518060c001604052808551604051908082528060200260200182016040528015614f31578160200160208202803883390190505b508152602001600081526020018551604051908082528060200260200182016040528015614f69578160200160208202803883390190505b508152602001600081526020016000815260200160008152509050600060786000614fa36001614f97612b49565b9063ffffffff613c0916565b81526020810191909152604001600020600160808401526007810154909150614fca614704565b1115614fe4578060070154614fdd614704565b0360808301525b60005b85518110156150ec57600082600301600088848151811061500457fe5b6020026020010151815260200190815260200160002054905060008090508186848151811061502f57fe5b60200260200101511115615056578186848151811061504a57fe5b60200260200101510390505b846080015187848151811061506757fe5b602002602001015182028161507857fe5b048560400151848151811061508957fe5b6020026020010181815250506150c3856040015184815181106150a857fe5b60200260200101518660600151613ab290919063ffffffff16565b606086015260a08501516150dd908263ffffffff613ab216565b60a08601525050600101614fe7565b5060005b85518110156151bd57826080015185828151811061510a57fe5b6020026020010151846080015187848151811061512357fe5b60200260200101518a60000160008b878151811061513d57fe5b6020026020010151815260200190815260200160002054028161515c57fe5b04028161516557fe5b048360000151828151811061517657fe5b6020026020010181815250506151b08360000151828151811061519557fe5b60200260200101518460200151613ab290919063ffffffff16565b60208401526001016150f0565b5060005b85518110156155115760006151f98460800151607654866000015185815181106151e757fe5b60200260200101518760200151615994565b90506152356152288560a001518660400151858151811061521657fe5b602002602001015187606001516159d5565b829063ffffffff613ab216565b9050600087838151811061524557fe5b6020908102919091018101516000818152606990925260408220600601549092506001600160a01b0316906152818461527c612f46565b615a32565b6001600160a01b03831660009081526073602090815260408083208784529091529020549091508015615428576000816152bb8587612958565b8402816152c457fe5b0490508083036152d2615d62565b6001600160a01b03861660009081526074602090815260408083208a8452909152902060030154615304908490615a4f565b905061530e615d62565b615319836000615a4f565b6001600160a01b03881660009081526070602090815260408083208c8452825291829020825160608101845281548152600182015492810192909252600201549181019190915290915061536e908383615b40565b6001600160a01b03881660008181526070602090815260408083208d84528252808320855181558583015160018083019190915595820151600291820155938352607582528083208d8452825291829020825160608101845281548152948101549185019190915290910154908201526153e9908383615b40565b6001600160a01b03881660009081526075602090815260408083208c845282529182902083518155908301516001820155910151600290910155505050505b60008481526069602052604081206003015483870391811561545a578161544d614461565b84028161545657fe5b0490505b808a600101600089815260200190815260200160002054018f6001016000898152602001908152602001600020819055508b898151811061549757fe5b60200260200101518f6003016000898152602001908152602001600020819055508c89815181106154c457fe5b60200260200101518a600201600089815260200190815260200160002054018f600201600089815260200190815260200160002081905550505050505050505080806001019150506151c1565b505060a081015160088601556020810151600986015560600151600a90940193909355505050565b6001600160a01b03811661557e5760405162461bcd60e51b8152600401808060200182810382526026815260200180615e8d6026913960400191505060405180910390fd5b6033546040516001600160a01b038084169216907f8be0079c531659141344cd1fd0a4f28419497f9722a3daafe3b4186f6b6457e090600090a3603380546001600160a01b0319166001600160a01b0392909216919091179055565b60818190556040805182815290517fd830c33dec392daf6dfeac9834107217392396bc333bcbb92e6c1c1a5e8726319181900360200190a150565b6000615642615622614461565b6140f261562d611dfa565b61563686612883565b9063ffffffff6158f916565b60008381526069602052604090206003015411159050919050565b600081848411156156ec5760405162461bcd60e51b81526004018080602001828103825283818151815260200191508051906020019080838360005b838110156156b1578181015183820152602001615699565b50505050905090810190601f1680156156de5780820380516001836020036101000a031916815260200191505b509250505060405180910390fd5b505050900390565b6156fc615d62565b6001600160a01b03831660009081526071602090815260408083208584529091528120549061572a8461582c565b905060006157388686615b5b565b9050818111156157455750805b828110156157505750815b6001600160a01b0386166000818152607460209081526040808320898452825280832093835260738252808320898452909152812054825490919061579c90839063ffffffff613c0916565b905060006157b084600001548a8988615c1a565b90506157ba615d62565b6157c8828660030154615a4f565b90506157d6838b8a89615c1a565b91506157e0615d62565b6157eb836000615a4f565b90506157f9858c898b615c1a565b9250615803615d62565b61580e846000615a4f565b905061581b838383615b40565b9d9c50505050505050505050505050565b6000818152606960205260408120600201541561587f57600082815260696020526040902060020154606854101561586757506068546128b4565b506000818152606960205260409020600201546128b4565b505060685490565b61588f615d62565b60408051606081019091528251845182916158b0919063ffffffff613ab216565b81526020016158d084602001518660200151613ab290919063ffffffff16565b81526020016158f084604001518660400151613ab290919063ffffffff16565b90529392505050565b600082615908575060006119e6565b8282028284828161591557fe5b04146119e35760405162461bcd60e51b8152600401808060200182810382526021815260200180615edc6021913960400191505060405180910390fd5b60006119e383836040518060400160405280601a81526020017f536166654d6174683a206469766973696f6e206279207a65726f000000000000815250615c7d565b6000826159a357506000612929565b60006159b5868663ffffffff6158f916565b90506159cb836140f2838763ffffffff6158f916565b9695505050505050565b6000826159e45750600061479e565b60006159fa836140f2878763ffffffff6158f916565b9050615a29615a07614461565b6140f2615a12611e0d565b615a1a614461565b8591900363ffffffff6158f916565b95945050505050565b60006119e3615a3f614461565b6140f2858563ffffffff6158f916565b615a57615d62565b604051806060016040528060008152602001600081526020016000815250905081600014615b12576000615a896128d6565b615a91614461565b0390506000615ab1615aa16118bd565b6140f2848763ffffffff6158f916565b90506000615ada615ac0614461565b6140f284615acc6128d6565b8a910163ffffffff6158f916565b9050615aff615ae7614461565b6140f2615af26128d6565b899063ffffffff6158f916565b6020850181905290038352506119e69050565b615b35615b1d614461565b6140f2615b286128d6565b869063ffffffff6158f916565b604082015292915050565b615b48615d62565b612929615b558585615887565b83615887565b6001600160a01b0382166000908152607460209081526040808320848452909152812060010154606854615b90858583615ce2565b15615b9e5791506119e69050565b615ba9858584615ce2565b615bb8576000925050506119e6565b80821115615bcb576000925050506119e6565b80821015615bfe57600281830104615be4868683615ce2565b15615bf457806001019250615bf8565b8091505b50615bcb565b80615c0e576000925050506119e6565b60001901949350505050565b6000818310615c2b57506000612929565b6000838152607860208181526040808420888552600190810183528185205487865293835281852089865201909152909120546141dc615c69614461565b6140f289615636858763ffffffff613c0916565b60008183615ccc5760405162461bcd60e51b81526020600482018181528351602484015283519092839260449091019190850190808383600083156156b1578181015183820152602001615699565b506000838581615cd857fe5b0495945050505050565b6001600160a01b0383166000908152607460209081526040808320858452909152812060010154821080159061292957506001600160a01b0384166000908152607460209081526040808320868452909152902060020154615d4383615d4d565b1115949350505050565b60009081526078602052604090206007015490565b60405180606001604052806000815260200160008152602001600081525090565b828054828255906000526020600020908101928215615dbe579160200282015b82811115615dbe578235825591602001919060010190615da3565b50615dca929150615e72565b5090565b828054600181600116156101000203166002900490600052602060002090601f016020900481019282601f10615e0f57805160ff1916838001178555615dbe565b82800160010185558215615dbe579182015b82811115615dbe578251825591602001919060010190615e21565b6040518060c001604052806060815260200160008152602001606081526020016000815260200160008152602001600081525090565b6118c591905b80821115615dca5760008155600101615e7856fe4f776e61626c653a206e6577206f776e657220697320746865207a65726f206164647265737363616c6c6572206973206e6f7420746865204e6f64654472697665724175746820636f6e7472616374536166654d6174683a206d756c7469706c69636174696f6e206f766572666c6f774f776e61626c653a2063616c6c6572206973206e6f7420746865206f776e6572436f6e747261637420696e7374616e63652068617320616c7265616479206265656e20696e697469616c697a65645346433a20746869732066756e6374696f6e20697320636f6e74726f6c6c656420627920746865206f776e657220616e6420676f7665726e616e636520636f6e74726163746d757374206265206c657373207468616e206f7220657175616c20746f20312e3076616c696461746f72206c6f636b757020706572696f642077696c6c20656e64206561726c69657276616c696461746f7227732064656c65676174696f6e73206c696d69742069732065786365656465646c6f636b6564207374616b652069732067726561746572207468616e207468652077686f6c65207374616b65a265627a7a723158209c437b808f37736b1604f2950c39eebcd75bff320eeb63dc7134ad7058a6be4564736f6c63430005110032",
  "linkReferences": {},
  "deployedLinkReferences": {}
}