{
  "_format": "hh-sol-artifact-1",
  "contractName": "SFC",
  "sourceName": "contracts/sfc/SFC.sol",
  "abi": [
    {
      "anonymous": false,
      "inputs": [
        {
          "indexed": true,
          "internalType": "uint256",
          "name": "validatorID",
          "type": "uint256"
        },
        {
          "indexed": false,
          "internalType": "uint256",
          "name": "status",
          "type": "uint256"
        }
      ],
      "name": "ChangedValidatorStatus",
      "type": "event"
    },
    {
      "anonymous": false,
      "inputs": [
        {
          "indexed": true,
          "internalType": "address",
          "name": "delegator",
          "type": "address"
        },
        {
          "indexed": true,
          "internalType": "uint256",
          "name": "toValidatorID",
          "type": "uint256"
        },
        {
          "indexed": false,
          "internalType": "uint256",
          "name": "lockupExtraReward",
          "type": "uint256"
        },
        {
          "indexed": false,
          "internalType": "uint256",
          "name": "lockupBaseReward",
          "type": "uint256"
        },
        {
          "indexed": false,
          "internalType": "uint256",
          "name": "unlockedReward",
          "type": "uint256"
        }
      ],
      "name": "ClaimedRewards",
      "type": "event"
    },
    {
      "anonymous": false,
      "inputs": [
        {
          "indexed": true,
          "internalType": "uint256",
          "name": "validatorID",
          "type": "uint256"
        },
        {
          "indexed": true,
          "internalType": "address",
          "name": "auth",
          "type": "address"
        },
        {
          "indexed": false,
          "internalType": "uint256",
          "name": "createdEpoch",
          "type": "uint256"
        },
        {
          "indexed": false,
          "internalType": "uint256",
          "name": "createdTime",
          "type": "uint256"
        }
      ],
      "name": "CreatedValidator",
      "type": "event"
    },
    {
      "anonymous": false,
      "inputs": [
        {
          "indexed": true,
          "internalType": "uint256",
          "name": "validatorID",
          "type": "uint256"
        },
        {
          "indexed": false,
          "internalType": "uint256",
          "name": "deactivatedEpoch",
          "type": "uint256"
        },
        {
          "indexed": false,
          "internalType": "uint256",
          "name": "deactivatedTime",
          "type": "uint256"
        }
      ],
      "name": "DeactivatedValidator",
      "type": "event"
    },
    {
      "anonymous": false,
      "inputs": [
        {
          "indexed": true,
          "internalType": "address",
          "name": "delegator",
          "type": "address"
        },
        {
          "indexed": true,
          "internalType": "uint256",
          "name": "toValidatorID",
          "type": "uint256"
        },
        {
          "indexed": false,
          "internalType": "uint256",
          "name": "amount",
          "type": "uint256"
        }
      ],
      "name": "Delegated",
      "type": "event"
    },
    {
      "anonymous": false,
      "inputs": [
        {
          "indexed": true,
          "internalType": "address",
          "name": "previousGovernance",
          "type": "address"
        },
        {
          "indexed": true,
          "internalType": "address",
          "name": "newGovernance",
          "type": "address"
        }
      ],
      "name": "GovernanceTransferred",
      "type": "event"
    },
    {
      "anonymous": false,
      "inputs": [
        {
          "indexed": true,
          "internalType": "address",
          "name": "receiver",
          "type": "address"
        },
        {
          "indexed": false,
          "internalType": "uint256",
          "name": "amount",
          "type": "uint256"
        },
        {
          "indexed": false,
          "internalType": "string",
          "name": "justification",
          "type": "string"
        }
      ],
      "name": "InflatedFTM",
      "type": "event"
    },
    {
      "anonymous": false,
      "inputs": [
        {
          "indexed": true,
          "internalType": "address",
          "name": "delegator",
          "type": "address"
        },
        {
          "indexed": true,
          "internalType": "uint256",
          "name": "validatorID",
          "type": "uint256"
        },
        {
          "indexed": false,
          "internalType": "uint256",
          "name": "duration",
          "type": "uint256"
        },
        {
          "indexed": false,
          "internalType": "uint256",
          "name": "amount",
          "type": "uint256"
        }
      ],
      "name": "LockedUpStake",
      "type": "event"
    },
    {
      "anonymous": false,
      "inputs": [
        {
          "indexed": true,
          "internalType": "address",
          "name": "previousOwner",
          "type": "address"
        },
        {
          "indexed": true,
          "internalType": "address",
          "name": "newOwner",
          "type": "address"
        }
      ],
      "name": "OwnershipTransferred",
      "type": "event"
    },
    {
      "anonymous": false,
      "inputs": [
        {
          "indexed": true,
          "internalType": "address",
          "name": "delegator",
          "type": "address"
        },
        {
          "indexed": true,
          "internalType": "uint256",
          "name": "validatorID",
          "type": "uint256"
        },
        {
          "indexed": false,
          "internalType": "uint256",
          "name": "amount",
          "type": "uint256"
        }
      ],
      "name": "RefundedSlashedLegacyDelegation",
      "type": "event"
    },
    {
      "anonymous": false,
      "inputs": [
        {
          "indexed": true,
          "internalType": "address",
          "name": "delegator",
          "type": "address"
        },
        {
          "indexed": true,
          "internalType": "uint256",
          "name": "toValidatorID",
          "type": "uint256"
        },
        {
          "indexed": false,
          "internalType": "uint256",
          "name": "lockupExtraReward",
          "type": "uint256"
        },
        {
          "indexed": false,
          "internalType": "uint256",
          "name": "lockupBaseReward",
          "type": "uint256"
        },
        {
          "indexed": false,
          "internalType": "uint256",
          "name": "unlockedReward",
          "type": "uint256"
        }
      ],
      "name": "RestakedRewards",
      "type": "event"
    },
    {
      "anonymous": false,
      "inputs": [
        {
          "indexed": true,
          "internalType": "address",
          "name": "previousSecondaryOwner",
          "type": "address"
        },
        {
          "indexed": true,
          "internalType": "address",
          "name": "newSecondaryOwner",
          "type": "address"
        }
      ],
      "name": "SecondaryOwnershipTransferred",
      "type": "event"
    },
    {
      "anonymous": false,
      "inputs": [
        {
          "indexed": true,
          "internalType": "address",
          "name": "delegator",
          "type": "address"
        },
        {
          "indexed": true,
          "internalType": "uint256",
          "name": "toValidatorID",
          "type": "uint256"
        },
        {
          "indexed": true,
          "internalType": "uint256",
          "name": "wrID",
          "type": "uint256"
        },
        {
          "indexed": false,
          "internalType": "uint256",
          "name": "amount",
          "type": "uint256"
        }
      ],
      "name": "Undelegated",
      "type": "event"
    },
    {
      "anonymous": false,
      "inputs": [
        {
          "indexed": true,
          "internalType": "address",
          "name": "delegator",
          "type": "address"
        },
        {
          "indexed": true,
          "internalType": "uint256",
          "name": "validatorID",
          "type": "uint256"
        },
        {
          "indexed": false,
          "internalType": "uint256",
          "name": "amount",
          "type": "uint256"
        },
        {
          "indexed": false,
          "internalType": "uint256",
          "name": "penalty",
          "type": "uint256"
        }
      ],
      "name": "UnlockedStake",
      "type": "event"
    },
    {
      "anonymous": false,
      "inputs": [
        {
          "indexed": false,
          "internalType": "uint256",
          "name": "value",
          "type": "uint256"
        }
      ],
      "name": "UpdatedBaseRewardPerSec",
      "type": "event"
    },
    {
      "anonymous": false,
      "inputs": [
        {
          "indexed": false,
          "internalType": "uint256",
          "name": "contractCommission",
          "type": "uint256"
        }
      ],
      "name": "UpdatedContractCommission",
      "type": "event"
    },
    {
      "anonymous": false,
      "inputs": [
        {
          "indexed": false,
          "internalType": "uint256",
          "name": "maxDelegationRatio",
          "type": "uint256"
        }
      ],
      "name": "UpdatedMaxDelegationRatio",
      "type": "event"
    },
    {
      "anonymous": false,
      "inputs": [
        {
          "indexed": false,
          "internalType": "uint256",
          "name": "maxLockupDuration",
          "type": "uint256"
        }
      ],
      "name": "UpdatedMaxLockupDuration",
      "type": "event"
    },
    {
      "anonymous": false,
      "inputs": [
        {
          "indexed": false,
          "internalType": "uint256",
          "name": "minLockupDuration",
          "type": "uint256"
        }
      ],
      "name": "UpdatedMinLockupDuration",
      "type": "event"
    },
    {
      "anonymous": false,
      "inputs": [
        {
          "indexed": false,
          "internalType": "uint256",
          "name": "minSelfStake",
          "type": "uint256"
        }
      ],
      "name": "UpdatedMinSelfStake",
      "type": "event"
    },
    {
      "anonymous": false,
      "inputs": [
        {
          "indexed": false,
          "internalType": "uint256",
          "name": "blocksNum",
          "type": "uint256"
        },
        {
          "indexed": false,
          "internalType": "uint256",
          "name": "period",
          "type": "uint256"
        }
      ],
      "name": "UpdatedOfflinePenaltyThreshold",
      "type": "event"
    },
    {
      "anonymous": false,
      "inputs": [
        {
          "indexed": true,
          "internalType": "uint256",
          "name": "validatorID",
          "type": "uint256"
        },
        {
          "indexed": false,
          "internalType": "uint256",
          "name": "refundRatio",
          "type": "uint256"
        }
      ],
      "name": "UpdatedSlashingRefundRatio",
      "type": "event"
    },
    {
      "anonymous": false,
      "inputs": [
        {
          "indexed": false,
          "internalType": "uint256",
          "name": "unlockedRewardRatio",
          "type": "uint256"
        }
      ],
      "name": "UpdatedUnlockedRewardRatio",
      "type": "event"
    },
    {
      "anonymous": false,
      "inputs": [
        {
          "indexed": false,
          "internalType": "uint256",
          "name": "validatorCommission",
          "type": "uint256"
        }
      ],
      "name": "UpdatedValidatorCommission",
      "type": "event"
    },
    {
      "anonymous": false,
      "inputs": [
        {
          "indexed": false,
          "internalType": "uint256",
          "name": "Value",
          "type": "uint256"
        }
      ],
      "name": "UpdatedWithdrawalPeriodEpoch",
      "type": "event"
    },
    {
      "anonymous": false,
      "inputs": [
        {
          "indexed": false,
          "internalType": "uint256",
          "name": "withValuedrawalPeriodTime",
          "type": "uint256"
        }
      ],
      "name": "UpdatedWithdrawalPeriodTime",
      "type": "event"
    },
    {
      "anonymous": false,
      "inputs": [
        {
          "indexed": true,
          "internalType": "address",
          "name": "delegator",
          "type": "address"
        },
        {
          "indexed": true,
          "internalType": "uint256",
          "name": "toValidatorID",
          "type": "uint256"
        },
        {
          "indexed": true,
          "internalType": "uint256",
          "name": "wrID",
          "type": "uint256"
        },
        {
          "indexed": false,
          "internalType": "uint256",
          "name": "amount",
          "type": "uint256"
        }
      ],
      "name": "Withdrawn",
      "type": "event"
    },
    {
      "constant": false,
      "inputs": [
        {
          "internalType": "uint256",
          "name": "validatorID",
          "type": "uint256"
        },
        {
          "internalType": "bool",
          "name": "syncPubkey",
          "type": "bool"
        }
      ],
      "name": "_syncValidator",
      "outputs": [],
      "payable": false,
      "stateMutability": "nonpayable",
      "type": "function"
    },
    {
      "constant": true,
      "inputs": [],
      "name": "baseRewardPerSecond",
      "outputs": [
        {
          "internalType": "uint256",
          "name": "",
          "type": "uint256"
        }
      ],
      "payable": false,
      "stateMutability": "view",
      "type": "function"
    },
    {
      "constant": false,
      "inputs": [
        {
          "internalType": "uint256",
          "name": "toValidatorID",
          "type": "uint256"
        }
      ],
      "name": "claimRewards",
      "outputs": [],
      "payable": false,
      "stateMutability": "nonpayable",
      "type": "function"
    },
    {
      "constant": true,
      "inputs": [],
      "name": "contractCommission",
      "outputs": [
        {
          "internalType": "uint256",
          "name": "",
          "type": "uint256"
        }
      ],
      "payable": false,
      "stateMutability": "view",
      "type": "function"
    },
    {
      "constant": false,
      "inputs": [
        {
          "internalType": "bytes",
          "name": "pubkey",
          "type": "bytes"
        }
      ],
      "name": "createValidator",
      "outputs": [],
      "payable": true,
      "stateMutability": "payable",
      "type": "function"
    },
    {
      "constant": true,
      "inputs": [],
      "name": "currentEpoch",
      "outputs": [
        {
          "internalType": "uint256",
          "name": "",
          "type": "uint256"
        }
      ],
      "payable": false,
      "stateMutability": "view",
      "type": "function"
    },
    {
      "constant": true,
      "inputs": [],
      "name": "currentSealedEpoch",
      "outputs": [
        {
          "internalType": "uint256",
          "name": "",
          "type": "uint256"
        }
      ],
      "payable": false,
      "stateMutability": "view",
      "type": "function"
    },
    {
      "constant": false,
      "inputs": [
        {
          "internalType": "uint256",
          "name": "validatorID",
          "type": "uint256"
        },
        {
          "internalType": "uint256",
          "name": "status",
          "type": "uint256"
        }
      ],
      "name": "deactivateValidator",
      "outputs": [],
      "payable": false,
      "stateMutability": "nonpayable",
      "type": "function"
    },
    {
      "constant": false,
      "inputs": [
        {
          "internalType": "uint256",
          "name": "toValidatorID",
          "type": "uint256"
        }
      ],
      "name": "delegate",
      "outputs": [],
      "payable": true,
      "stateMutability": "payable",
      "type": "function"
    },
    {
      "constant": true,
      "inputs": [
        {
          "internalType": "uint256",
          "name": "epoch",
          "type": "uint256"
        },
        {
          "internalType": "uint256",
          "name": "validatorID",
          "type": "uint256"
        }
      ],
      "name": "getEpochAccumulatedOriginatedTxsFee",
      "outputs": [
        {
          "internalType": "uint256",
          "name": "",
          "type": "uint256"
        }
      ],
      "payable": false,
      "stateMutability": "view",
      "type": "function"
    },
    {
      "constant": true,
      "inputs": [
        {
          "internalType": "uint256",
          "name": "epoch",
          "type": "uint256"
        },
        {
          "internalType": "uint256",
          "name": "validatorID",
          "type": "uint256"
        }
      ],
      "name": "getEpochAccumulatedRewardPerToken",
      "outputs": [
        {
          "internalType": "uint256",
          "name": "",
          "type": "uint256"
        }
      ],
      "payable": false,
      "stateMutability": "view",
      "type": "function"
    },
    {
      "constant": true,
      "inputs": [
        {
          "internalType": "uint256",
          "name": "epoch",
          "type": "uint256"
        },
        {
          "internalType": "uint256",
          "name": "validatorID",
          "type": "uint256"
        }
      ],
      "name": "getEpochAccumulatedUptime",
      "outputs": [
        {
          "internalType": "uint256",
          "name": "",
          "type": "uint256"
        }
      ],
      "payable": false,
      "stateMutability": "view",
      "type": "function"
    },
    {
      "constant": true,
      "inputs": [
        {
          "internalType": "uint256",
          "name": "epoch",
          "type": "uint256"
        },
        {
          "internalType": "uint256",
          "name": "validatorID",
          "type": "uint256"
        }
      ],
      "name": "getEpochOfflineBlocks",
      "outputs": [
        {
          "internalType": "uint256",
          "name": "",
          "type": "uint256"
        }
      ],
      "payable": false,
      "stateMutability": "view",
      "type": "function"
    },
    {
      "constant": true,
      "inputs": [
        {
          "internalType": "uint256",
          "name": "epoch",
          "type": "uint256"
        },
        {
          "internalType": "uint256",
          "name": "validatorID",
          "type": "uint256"
        }
      ],
      "name": "getEpochOfflineTime",
      "outputs": [
        {
          "internalType": "uint256",
          "name": "",
          "type": "uint256"
        }
      ],
      "payable": false,
      "stateMutability": "view",
      "type": "function"
    },
    {
      "constant": true,
      "inputs": [
        {
          "internalType": "uint256",
          "name": "epoch",
          "type": "uint256"
        },
        {
          "internalType": "uint256",
          "name": "validatorID",
          "type": "uint256"
        }
      ],
      "name": "getEpochReceivedStake",
      "outputs": [
        {
          "internalType": "uint256",
          "name": "",
          "type": "uint256"
        }
      ],
      "payable": false,
      "stateMutability": "view",
      "type": "function"
    },
    {
      "constant": true,
      "inputs": [
        {
          "internalType": "uint256",
          "name": "",
          "type": "uint256"
        }
      ],
      "name": "getEpochSnapshot",
      "outputs": [
        {
          "internalType": "uint256",
          "name": "endTime",
          "type": "uint256"
        },
        {
          "internalType": "uint256",
          "name": "epochFee",
          "type": "uint256"
        },
        {
          "internalType": "uint256",
          "name": "totalBaseRewardWeight",
          "type": "uint256"
        },
        {
          "internalType": "uint256",
          "name": "totalTxRewardWeight",
          "type": "uint256"
        },
        {
          "internalType": "uint256",
          "name": "baseRewardPerSecond",
          "type": "uint256"
        },
        {
          "internalType": "uint256",
          "name": "totalStake",
          "type": "uint256"
        },
        {
          "internalType": "uint256",
          "name": "totalSupply",
          "type": "uint256"
        }
      ],
      "payable": false,
      "stateMutability": "view",
      "type": "function"
    },
    {
      "constant": true,
      "inputs": [
        {
          "internalType": "uint256",
          "name": "epoch",
          "type": "uint256"
        }
      ],
      "name": "getEpochValidatorIDs",
      "outputs": [
        {
          "internalType": "uint256[]",
          "name": "",
          "type": "uint256[]"
        }
      ],
      "payable": false,
      "stateMutability": "view",
      "type": "function"
    },
    {
      "constant": true,
      "inputs": [
        {
          "internalType": "address",
          "name": "delegator",
          "type": "address"
        },
        {
          "internalType": "uint256",
          "name": "toValidatorID",
          "type": "uint256"
        }
      ],
      "name": "getLockedStake",
      "outputs": [
        {
          "internalType": "uint256",
          "name": "",
          "type": "uint256"
        }
      ],
      "payable": false,
      "stateMutability": "view",
      "type": "function"
    },
    {
      "constant": true,
      "inputs": [
        {
          "internalType": "address",
          "name": "",
          "type": "address"
        },
        {
          "internalType": "uint256",
          "name": "",
          "type": "uint256"
        }
      ],
      "name": "getLockupInfo",
      "outputs": [
        {
          "internalType": "uint256",
          "name": "lockedStake",
          "type": "uint256"
        },
        {
          "internalType": "uint256",
          "name": "fromEpoch",
          "type": "uint256"
        },
        {
          "internalType": "uint256",
          "name": "endTime",
          "type": "uint256"
        },
        {
          "internalType": "uint256",
          "name": "duration",
          "type": "uint256"
        }
      ],
      "payable": false,
      "stateMutability": "view",
      "type": "function"
    },
    {
      "constant": true,
      "inputs": [
        {
          "internalType": "uint256",
          "name": "validatorID",
          "type": "uint256"
        }
      ],
      "name": "getSelfStake",
      "outputs": [
        {
          "internalType": "uint256",
          "name": "",
          "type": "uint256"
        }
      ],
      "payable": false,
      "stateMutability": "view",
      "type": "function"
    },
    {
      "constant": true,
      "inputs": [
        {
          "internalType": "address",
          "name": "",
          "type": "address"
        },
        {
          "internalType": "uint256",
          "name": "",
          "type": "uint256"
        }
      ],
      "name": "getStake",
      "outputs": [
        {
          "internalType": "uint256",
          "name": "",
          "type": "uint256"
        }
      ],
      "payable": false,
      "stateMutability": "view",
      "type": "function"
    },
    {
      "constant": true,
      "inputs": [
        {
          "internalType": "address",
          "name": "",
          "type": "address"
        },
        {
          "internalType": "uint256",
          "name": "",
          "type": "uint256"
        }
      ],
      "name": "getStashedLockupRewards",
      "outputs": [
        {
          "internalType": "uint256",
          "name": "lockupExtraReward",
          "type": "uint256"
        },
        {
          "internalType": "uint256",
          "name": "lockupBaseReward",
          "type": "uint256"
        },
        {
          "internalType": "uint256",
          "name": "unlockedReward",
          "type": "uint256"
        }
      ],
      "payable": false,
      "stateMutability": "view",
      "type": "function"
    },
    {
      "constant": true,
      "inputs": [
        {
          "internalType": "address",
          "name": "delegator",
          "type": "address"
        },
        {
          "internalType": "uint256",
          "name": "toValidatorID",
          "type": "uint256"
        }
      ],
      "name": "getUnlockedStake",
      "outputs": [
        {
          "internalType": "uint256",
          "name": "",
          "type": "uint256"
        }
      ],
      "payable": false,
      "stateMutability": "view",
      "type": "function"
    },
    {
      "constant": true,
      "inputs": [
        {
          "internalType": "uint256",
          "name": "",
          "type": "uint256"
        }
      ],
      "name": "getValidator",
      "outputs": [
        {
          "internalType": "uint256",
          "name": "status",
          "type": "uint256"
        },
        {
          "internalType": "uint256",
          "name": "deactivatedTime",
          "type": "uint256"
        },
        {
          "internalType": "uint256",
          "name": "deactivatedEpoch",
          "type": "uint256"
        },
        {
          "internalType": "uint256",
          "name": "receivedStake",
          "type": "uint256"
        },
        {
          "internalType": "uint256",
          "name": "createdEpoch",
          "type": "uint256"
        },
        {
          "internalType": "uint256",
          "name": "createdTime",
          "type": "uint256"
        },
        {
          "internalType": "address",
          "name": "auth",
          "type": "address"
        }
      ],
      "payable": false,
      "stateMutability": "view",
      "type": "function"
    },
    {
      "constant": true,
      "inputs": [
        {
          "internalType": "address",
          "name": "",
          "type": "address"
        }
      ],
      "name": "getValidatorID",
      "outputs": [
        {
          "internalType": "uint256",
          "name": "",
          "type": "uint256"
        }
      ],
      "payable": false,
      "stateMutability": "view",
      "type": "function"
    },
    {
      "constant": true,
      "inputs": [
        {
          "internalType": "uint256",
          "name": "",
          "type": "uint256"
        }
      ],
      "name": "getValidatorPubkey",
      "outputs": [
        {
          "internalType": "bytes",
          "name": "",
          "type": "bytes"
        }
      ],
      "payable": false,
      "stateMutability": "view",
      "type": "function"
    },
    {
      "constant": true,
      "inputs": [
        {
          "internalType": "address",
          "name": "",
          "type": "address"
        },
        {
          "internalType": "uint256",
          "name": "",
          "type": "uint256"
        },
        {
          "internalType": "uint256",
          "name": "",
          "type": "uint256"
        }
      ],
      "name": "getWithdrawalRequest",
      "outputs": [
        {
          "internalType": "uint256",
          "name": "epoch",
          "type": "uint256"
        },
        {
          "internalType": "uint256",
          "name": "time",
          "type": "uint256"
        },
        {
          "internalType": "uint256",
          "name": "amount",
          "type": "uint256"
        }
      ],
      "payable": false,
      "stateMutability": "view",
      "type": "function"
    },
    {
      "constant": true,
      "inputs": [],
      "name": "governance",
      "outputs": [
        {
          "internalType": "address",
          "name": "",
          "type": "address"
        }
      ],
      "payable": false,
      "stateMutability": "view",
      "type": "function"
    },
    {
      "constant": false,
      "inputs": [
        {
          "internalType": "uint256",
          "name": "sealedEpoch",
          "type": "uint256"
        },
        {
          "internalType": "uint256",
          "name": "_totalSupply",
          "type": "uint256"
        },
        {
          "internalType": "address",
          "name": "nodeDriver",
          "type": "address"
        },
        {
          "internalType": "address",
          "name": "owner",
          "type": "address"
        },
        {
          "internalType": "address",
          "name": "governance",
          "type": "address"
        }
      ],
      "name": "initialize",
      "outputs": [],
      "payable": false,
      "stateMutability": "nonpayable",
      "type": "function"
    },
    {
      "constant": true,
      "inputs": [],
      "name": "isGovernance",
      "outputs": [
        {
          "internalType": "bool",
          "name": "",
          "type": "bool"
        }
      ],
      "payable": false,
      "stateMutability": "view",
      "type": "function"
    },
    {
      "constant": true,
      "inputs": [
        {
          "internalType": "address",
          "name": "delegator",
          "type": "address"
        },
        {
          "internalType": "uint256",
          "name": "toValidatorID",
          "type": "uint256"
        }
      ],
      "name": "isLockedUp",
      "outputs": [
        {
          "internalType": "bool",
          "name": "",
          "type": "bool"
        }
      ],
      "payable": false,
      "stateMutability": "view",
      "type": "function"
    },
    {
      "constant": true,
      "inputs": [],
      "name": "isOwner",
      "outputs": [
        {
          "internalType": "bool",
          "name": "",
          "type": "bool"
        }
      ],
      "payable": false,
      "stateMutability": "view",
      "type": "function"
    },
    {
      "constant": true,
      "inputs": [],
      "name": "isSecondaryOwner",
      "outputs": [
        {
          "internalType": "bool",
          "name": "",
          "type": "bool"
        }
      ],
      "payable": false,
      "stateMutability": "view",
      "type": "function"
    },
    {
      "constant": true,
      "inputs": [
        {
          "internalType": "uint256",
          "name": "validatorID",
          "type": "uint256"
        }
      ],
      "name": "isSlashed",
      "outputs": [
        {
          "internalType": "bool",
          "name": "",
          "type": "bool"
        }
      ],
      "payable": false,
      "stateMutability": "view",
      "type": "function"
    },
    {
      "constant": true,
      "inputs": [],
      "name": "lastValidatorID",
      "outputs": [
        {
          "internalType": "uint256",
          "name": "",
          "type": "uint256"
        }
      ],
      "payable": false,
      "stateMutability": "view",
      "type": "function"
    },
    {
      "constant": false,
      "inputs": [
        {
          "internalType": "uint256",
          "name": "toValidatorID",
          "type": "uint256"
        },
        {
          "internalType": "uint256",
          "name": "lockupDuration",
          "type": "uint256"
        },
        {
          "internalType": "uint256",
          "name": "amount",
          "type": "uint256"
        }
      ],
      "name": "lockStake",
      "outputs": [],
      "payable": false,
      "stateMutability": "nonpayable",
      "type": "function"
    },
    {
      "constant": true,
      "inputs": [],
      "name": "maxDelegatedRatio",
      "outputs": [
        {
          "internalType": "uint256",
          "name": "",
          "type": "uint256"
        }
      ],
      "payable": false,
      "stateMutability": "view",
      "type": "function"
    },
    {
      "constant": true,
      "inputs": [],
      "name": "maxLockupDuration",
      "outputs": [
        {
          "internalType": "uint256",
          "name": "",
          "type": "uint256"
        }
      ],
      "payable": false,
      "stateMutability": "view",
      "type": "function"
    },
    {
      "constant": true,
      "inputs": [],
      "name": "minLockupDuration",
      "outputs": [
        {
          "internalType": "uint256",
          "name": "",
          "type": "uint256"
        }
      ],
      "payable": false,
      "stateMutability": "view",
      "type": "function"
    },
    {
      "constant": true,
      "inputs": [],
      "name": "minSelfStake",
      "outputs": [
        {
          "internalType": "uint256",
          "name": "",
          "type": "uint256"
        }
      ],
      "payable": false,
      "stateMutability": "view",
      "type": "function"
    },
    {
      "constant": false,
      "inputs": [
        {
          "internalType": "address payable",
          "name": "receiver",
          "type": "address"
        },
        {
          "internalType": "uint256",
          "name": "amount",
          "type": "uint256"
        },
        {
          "internalType": "string",
          "name": "justification",
          "type": "string"
        }
      ],
      "name": "mintFTM",
      "outputs": [],
      "payable": false,
      "stateMutability": "nonpayable",
      "type": "function"
    },
    {
      "constant": true,
      "inputs": [],
      "name": "offlinePenaltyThreshold",
      "outputs": [
        {
          "internalType": "uint256",
          "name": "blocksNum",
          "type": "uint256"
        },
        {
          "internalType": "uint256",
          "name": "time",
          "type": "uint256"
        }
      ],
      "payable": false,
      "stateMutability": "view",
      "type": "function"
    },
    {
      "constant": true,
      "inputs": [],
      "name": "owner",
      "outputs": [
        {
          "internalType": "address",
          "name": "",
          "type": "address"
        }
      ],
      "payable": false,
      "stateMutability": "view",
      "type": "function"
    },
    {
      "constant": true,
      "inputs": [
        {
          "internalType": "address",
          "name": "delegator",
          "type": "address"
        },
        {
          "internalType": "uint256",
          "name": "toValidatorID",
          "type": "uint256"
        }
      ],
      "name": "pendingRewards",
      "outputs": [
        {
          "internalType": "uint256",
          "name": "",
          "type": "uint256"
        }
      ],
      "payable": false,
      "stateMutability": "view",
      "type": "function"
    },
    {
      "constant": false,
      "inputs": [
        {
          "internalType": "uint256",
          "name": "toValidatorID",
          "type": "uint256"
        },
        {
          "internalType": "uint256",
          "name": "lockupDuration",
          "type": "uint256"
        },
        {
          "internalType": "uint256",
          "name": "amount",
          "type": "uint256"
        }
      ],
      "name": "relockStake",
      "outputs": [],
      "payable": false,
      "stateMutability": "nonpayable",
      "type": "function"
    },
    {
      "constant": false,
      "inputs": [],
      "name": "renounceOwnership",
      "outputs": [],
      "payable": false,
      "stateMutability": "nonpayable",
      "type": "function"
    },
    {
      "constant": false,
      "inputs": [
        {
          "internalType": "uint256",
          "name": "toValidatorID",
          "type": "uint256"
        }
      ],
      "name": "restakeRewards",
      "outputs": [],
      "payable": false,
      "stateMutability": "nonpayable",
      "type": "function"
    },
    {
      "constant": true,
      "inputs": [
        {
          "internalType": "address",
          "name": "delegator",
          "type": "address"
        },
        {
          "internalType": "uint256",
          "name": "validatorID",
          "type": "uint256"
        }
      ],
      "name": "rewardsStash",
      "outputs": [
        {
          "internalType": "uint256",
          "name": "",
          "type": "uint256"
        }
      ],
      "payable": false,
      "stateMutability": "view",
      "type": "function"
    },
    {
      "constant": false,
      "inputs": [
        {
          "internalType": "uint256[]",
          "name": "offlineTime",
          "type": "uint256[]"
        },
        {
          "internalType": "uint256[]",
          "name": "offlineBlocks",
          "type": "uint256[]"
        },
        {
          "internalType": "uint256[]",
          "name": "uptimes",
          "type": "uint256[]"
        },
        {
          "internalType": "uint256[]",
          "name": "originatedTxsFee",
          "type": "uint256[]"
        }
      ],
      "name": "sealEpoch",
      "outputs": [],
      "payable": false,
      "stateMutability": "nonpayable",
      "type": "function"
    },
    {
      "constant": false,
      "inputs": [
        {
          "internalType": "uint256[]",
          "name": "nextValidatorIDs",
          "type": "uint256[]"
        }
      ],
      "name": "sealEpochValidators",
      "outputs": [],
      "payable": false,
      "stateMutability": "nonpayable",
      "type": "function"
    },
    {
      "constant": true,
      "inputs": [],
      "name": "secondaryOwner",
      "outputs": [
        {
          "internalType": "address",
          "name": "",
          "type": "address"
        }
      ],
      "payable": false,
      "stateMutability": "view",
      "type": "function"
    },
    {
      "constant": false,
      "inputs": [
        {
          "internalType": "uint256",
          "name": "_contractCommission",
          "type": "uint256"
        }
      ],
      "name": "setContractCommission",
      "outputs": [],
      "payable": false,
      "stateMutability": "nonpayable",
      "type": "function"
    },
    {
      "constant": false,
      "inputs": [
        {
          "internalType": "address",
          "name": "delegator",
          "type": "address"
        },
        {
          "internalType": "uint256",
          "name": "toValidatorID",
          "type": "uint256"
        },
        {
          "internalType": "uint256",
          "name": "stake",
          "type": "uint256"
        },
        {
          "internalType": "uint256",
          "name": "lockedStake",
          "type": "uint256"
        },
        {
          "internalType": "uint256",
          "name": "lockupFromEpoch",
          "type": "uint256"
        },
        {
          "internalType": "uint256",
          "name": "lockupEndTime",
          "type": "uint256"
        },
        {
          "internalType": "uint256",
          "name": "lockupDuration",
          "type": "uint256"
        },
        {
          "internalType": "uint256",
          "name": "earlyUnlockPenalty",
          "type": "uint256"
        },
        {
          "internalType": "uint256",
          "name": "rewards",
          "type": "uint256"
        }
      ],
      "name": "setGenesisDelegation",
      "outputs": [],
      "payable": false,
      "stateMutability": "nonpayable",
      "type": "function"
    },
    {
      "constant": false,
      "inputs": [
        {
          "internalType": "address",
          "name": "auth",
          "type": "address"
        },
        {
          "internalType": "uint256",
          "name": "validatorID",
          "type": "uint256"
        },
        {
          "internalType": "bytes",
          "name": "pubkey",
          "type": "bytes"
        },
        {
          "internalType": "uint256",
          "name": "status",
          "type": "uint256"
        },
        {
          "internalType": "uint256",
          "name": "createdEpoch",
          "type": "uint256"
        },
        {
          "internalType": "uint256",
          "name": "createdTime",
          "type": "uint256"
        },
        {
          "internalType": "uint256",
          "name": "deactivatedEpoch",
          "type": "uint256"
        },
        {
          "internalType": "uint256",
          "name": "deactivatedTime",
          "type": "uint256"
        }
      ],
      "name": "setGenesisValidator",
      "outputs": [],
      "payable": false,
      "stateMutability": "nonpayable",
      "type": "function"
    },
    {
      "constant": false,
      "inputs": [
        {
          "internalType": "uint256",
          "name": "_maxDelegationRatio",
          "type": "uint256"
        }
      ],
      "name": "setMaxDelegation",
      "outputs": [],
      "payable": false,
      "stateMutability": "nonpayable",
      "type": "function"
    },
    {
      "constant": false,
      "inputs": [
        {
          "internalType": "uint256",
          "name": "_maxLockupDuration",
          "type": "uint256"
        }
      ],
      "name": "setMaxLockupDuration",
      "outputs": [],
      "payable": false,
      "stateMutability": "nonpayable",
      "type": "function"
    },
    {
      "constant": false,
      "inputs": [
        {
          "internalType": "uint256",
          "name": "_minLockupDuration",
          "type": "uint256"
        }
      ],
      "name": "setMinLockupDuration",
      "outputs": [],
      "payable": false,
      "stateMutability": "nonpayable",
      "type": "function"
    },
    {
      "constant": false,
      "inputs": [
        {
          "internalType": "uint256",
          "name": "_minSelfStake",
          "type": "uint256"
        }
      ],
      "name": "setMinSelfStake",
      "outputs": [],
      "payable": false,
      "stateMutability": "nonpayable",
      "type": "function"
    },
    {
      "constant": false,
      "inputs": [
        {
          "internalType": "uint256",
          "name": "_unlockedReward",
          "type": "uint256"
        }
      ],
      "name": "setUnlockedRewardRatio",
      "outputs": [],
      "payable": false,
      "stateMutability": "nonpayable",
      "type": "function"
    },
    {
      "constant": false,
      "inputs": [
        {
          "internalType": "uint256",
          "name": "_validatorCommission",
          "type": "uint256"
        }
      ],
      "name": "setValidatorCommission",
      "outputs": [],
      "payable": false,
      "stateMutability": "nonpayable",
      "type": "function"
    },
    {
      "constant": false,
      "inputs": [
        {
          "internalType": "uint256",
          "name": "_withdrawalPeriodEpochs",
          "type": "uint256"
        }
      ],
      "name": "setWithdrawalPeriodEpoch",
      "outputs": [],
      "payable": false,
      "stateMutability": "nonpayable",
      "type": "function"
    },
    {
      "constant": false,
      "inputs": [
        {
          "internalType": "uint256",
          "name": "_withdrawalPeriodTime",
          "type": "uint256"
        }
      ],
      "name": "setWithdrawalPeriodTime",
      "outputs": [],
      "payable": false,
      "stateMutability": "nonpayable",
      "type": "function"
    },
    {
      "constant": true,
      "inputs": [
        {
          "internalType": "uint256",
          "name": "",
          "type": "uint256"
        }
      ],
      "name": "slashingRefundRatio",
      "outputs": [
        {
          "internalType": "uint256",
          "name": "",
          "type": "uint256"
        }
      ],
      "payable": false,
      "stateMutability": "view",
      "type": "function"
    },
    {
      "constant": true,
      "inputs": [],
      "name": "stakeTokenizerAddress",
      "outputs": [
        {
          "internalType": "address",
          "name": "",
          "type": "address"
        }
      ],
      "payable": false,
      "stateMutability": "view",
      "type": "function"
    },
    {
      "constant": false,
      "inputs": [
        {
          "internalType": "address",
          "name": "delegator",
          "type": "address"
        },
        {
          "internalType": "uint256",
          "name": "toValidatorID",
          "type": "uint256"
        }
      ],
      "name": "stashRewards",
      "outputs": [],
      "payable": false,
      "stateMutability": "nonpayable",
      "type": "function"
    },
    {
      "constant": true,
      "inputs": [
        {
          "internalType": "address",
          "name": "",
          "type": "address"
        },
        {
          "internalType": "uint256",
          "name": "",
          "type": "uint256"
        }
      ],
      "name": "stashedRewardsUntilEpoch",
      "outputs": [
        {
          "internalType": "uint256",
          "name": "",
          "type": "uint256"
        }
      ],
      "payable": false,
      "stateMutability": "view",
      "type": "function"
    },
    {
      "constant": true,
      "inputs": [],
      "name": "totalActiveStake",
      "outputs": [
        {
          "internalType": "uint256",
          "name": "",
          "type": "uint256"
        }
      ],
      "payable": false,
      "stateMutability": "view",
      "type": "function"
    },
    {
      "constant": true,
      "inputs": [],
      "name": "totalSlashedStake",
      "outputs": [
        {
          "internalType": "uint256",
          "name": "",
          "type": "uint256"
        }
      ],
      "payable": false,
      "stateMutability": "view",
      "type": "function"
    },
    {
      "constant": true,
      "inputs": [],
      "name": "totalStake",
      "outputs": [
        {
          "internalType": "uint256",
          "name": "",
          "type": "uint256"
        }
      ],
      "payable": false,
      "stateMutability": "view",
      "type": "function"
    },
    {
      "constant": true,
      "inputs": [],
      "name": "totalSupply",
      "outputs": [
        {
          "internalType": "uint256",
          "name": "",
          "type": "uint256"
        }
      ],
      "payable": false,
      "stateMutability": "view",
      "type": "function"
    },
    {
      "constant": false,
      "inputs": [
        {
          "internalType": "address",
          "name": "newGovernance",
          "type": "address"
        }
      ],
      "name": "transferGovernance",
      "outputs": [],
      "payable": false,
      "stateMutability": "nonpayable",
      "type": "function"
    },
    {
      "constant": false,
      "inputs": [
        {
          "internalType": "address",
          "name": "newOwner",
          "type": "address"
        }
      ],
      "name": "transferOwnership",
      "outputs": [],
      "payable": false,
      "stateMutability": "nonpayable",
      "type": "function"
    },
    {
      "constant": false,
      "inputs": [
        {
          "internalType": "address",
          "name": "newSecondaryOwner",
          "type": "address"
        }
      ],
      "name": "transferSecondaryOwnership",
      "outputs": [],
      "payable": false,
      "stateMutability": "nonpayable",
      "type": "function"
    },
    {
      "constant": false,
      "inputs": [
        {
          "internalType": "uint256",
          "name": "toValidatorID",
          "type": "uint256"
        },
        {
          "internalType": "uint256",
          "name": "wrID",
          "type": "uint256"
        },
        {
          "internalType": "uint256",
          "name": "amount",
          "type": "uint256"
        }
      ],
      "name": "undelegate",
      "outputs": [],
      "payable": false,
      "stateMutability": "nonpayable",
      "type": "function"
    },
    {
      "constant": false,
      "inputs": [
        {
          "internalType": "uint256",
          "name": "toValidatorID",
          "type": "uint256"
        },
        {
          "internalType": "uint256",
          "name": "amount",
          "type": "uint256"
        }
      ],
      "name": "unlockStake",
      "outputs": [
        {
          "internalType": "uint256",
          "name": "",
          "type": "uint256"
        }
      ],
      "payable": false,
      "stateMutability": "nonpayable",
      "type": "function"
    },
    {
      "constant": true,
      "inputs": [],
      "name": "unlockedRewardRatio",
      "outputs": [
        {
          "internalType": "uint256",
          "name": "",
          "type": "uint256"
        }
      ],
      "payable": false,
      "stateMutability": "view",
      "type": "function"
    },
    {
      "constant": false,
      "inputs": [
        {
          "internalType": "uint256",
          "name": "value",
          "type": "uint256"
        }
      ],
      "name": "updateBaseRewardPerSecond",
      "outputs": [],
      "payable": false,
      "stateMutability": "nonpayable",
      "type": "function"
    },
    {
      "constant": false,
      "inputs": [
        {
          "internalType": "uint256",
          "name": "blocksNum",
          "type": "uint256"
        },
        {
          "internalType": "uint256",
          "name": "time",
          "type": "uint256"
        }
      ],
      "name": "updateOfflinePenaltyThreshold",
      "outputs": [],
      "payable": false,
      "stateMutability": "nonpayable",
      "type": "function"
    },
    {
      "constant": false,
      "inputs": [
        {
          "internalType": "uint256",
          "name": "validatorID",
          "type": "uint256"
        },
        {
          "internalType": "uint256",
          "name": "refundRatio",
          "type": "uint256"
        }
      ],
      "name": "updateSlashingRefundRatio",
      "outputs": [],
      "payable": false,
      "stateMutability": "nonpayable",
      "type": "function"
    },
    {
      "constant": false,
      "inputs": [
        {
          "internalType": "address",
          "name": "addr",
          "type": "address"
        }
      ],
      "name": "updateStakeTokenizerAddress",
      "outputs": [],
      "payable": false,
      "stateMutability": "nonpayable",
      "type": "function"
    },
    {
      "constant": false,
      "inputs": [
        {
          "internalType": "int256",
          "name": "diff",
          "type": "int256"
        }
      ],
      "name": "updateTotalSupply",
      "outputs": [],
      "payable": false,
      "stateMutability": "nonpayable",
      "type": "function"
    },
    {
      "constant": true,
      "inputs": [],
      "name": "validatorCommission",
      "outputs": [
        {
          "internalType": "uint256",
          "name": "",
          "type": "uint256"
        }
      ],
      "payable": false,
      "stateMutability": "view",
      "type": "function"
    },
    {
      "constant": true,
      "inputs": [],
      "name": "version",
      "outputs": [
        {
          "internalType": "bytes3",
          "name": "",
          "type": "bytes3"
        }
      ],
      "payable": false,
      "stateMutability": "pure",
      "type": "function"
    },
    {
      "constant": false,
      "inputs": [
        {
          "internalType": "uint256",
          "name": "toValidatorID",
          "type": "uint256"
        },
        {
          "internalType": "uint256",
          "name": "wrID",
          "type": "uint256"
        }
      ],
      "name": "withdraw",
      "outputs": [],
      "payable": false,
      "stateMutability": "nonpayable",
      "type": "function"
    },
    {
      "constant": true,
      "inputs": [],
      "name": "withdrawalPeriodEpochs",
      "outputs": [
        {
          "internalType": "uint256",
          "name": "",
          "type": "uint256"
        }
      ],
      "payable": false,
      "stateMutability": "view",
      "type": "function"
    },
    {
      "constant": true,
      "inputs": [],
      "name": "withdrawalPeriodTime",
      "outputs": [
        {
          "internalType": "uint256",
          "name": "",
          "type": "uint256"
        }
      ],
      "payable": false,
      "stateMutability": "view",
      "type": "function"
    }
  ],
  "bytecode": "0x608060405234801561001057600080fd5b5061642c80620000216000396000f3fe6080604052600436106104b55760003560e01c8063854873e11161026b578063c3de580e1161014f578063db3a4bc6116100c1578063e261641a11610085578063e261641a1461143f578063e2f8c3361461146f578063e4af78be146114ff578063ebdf104c14611529578063f2fde38b14611694578063f78bf110146116c7576104b5565b8063db3a4bc614611319578063dc31e1af1461132e578063de67f2151461135e578063df00c92214611394578063e08d7e66146113c4576104b5565b8063cefe9c1811610113578063cefe9c181461120b578063cfd4766314611235578063cfdbb7cd1461126e578063d38bfff4146112a7578063d75629cf146112da578063d9a7c1f914611304576104b5565b8063c3de580e1461115b578063c5f530af14611185578063c65ee0e11461119a578063c7be95de146111c4578063cc8343aa146111d9576104b5565b8063a5a470ad116101e8578063b6d9edd5116101ac578063b6d9edd51461101e578063b810e41114611048578063b82b842714611081578063b88a37e214611096578063bc4a3cc014611110578063bd14d90714611125576104b5565b8063a5a470ad14610ecd578063a778651514610f3b578063a86a056f14610f50578063ad9a4b5c14610f89578063b5d8962714610fb3576104b5565b80638f32d59b1161022f5780638f32d59b14610dc557806396c7ee4614610dee5780639fa6dd3514610e4d578063a198d22914610e6a578063a2f6e6bc14610e9a576104b5565b8063854873e114610c935780638b0e9f3f14610d325780638b1a0d1114610d475780638cddb01514610d775780638da5cb5b14610db0576104b5565b80633fbfd4df1161039d5780635fab23a81161030f578063670322f8116102d3578063670322f814610bb85780636ca6d6bc14610bf15780636f49866314610c1b578063715018a614610c545780637667180814610c695780637cacb1d614610c7e576104b5565b80635fab23a814610af25780636099ecb214610b0757806361e53fcc14610b4057806363bafc5614610b70578063650acd6614610ba3576104b5565b80634feb92f3116103615780634feb92f31461099357806354fd4d5014610a3c5780635601fe0114610a6e57806358f95b8014610a985780635aa6e67514610ac85780635e2308d214610add576104b5565b80633fbfd4df146108825780634055f273146108d3578063441a3e70146108fd5780634f7c4efb1461092d5780634f864df41461095d576104b5565b80631d3ac42c1161043657806328f73148116103fa57806328f73148146107745780632cedb097146107895780632d2646ed146107b7578063346bdcfb146107e157806336a5a2311461080b57806339b80c0014610820576104b5565b80631d3ac42c1461068d5780631e702f83146106bd5780631f270152146106ed5780632265f2841461074a5780632709275e1461075f576104b5565b80630d7b26091161047d5780630d7b2609146105945780630e559d82146105a957806312622d0e146105da57806318160ddd1461061357806318f628d414610628576104b5565b80630135b1db146104ba57806303c91ccd146104ff57806308c368741461052b5780630962ef79146105555780630d4955e31461057f575b600080fd5b3480156104c657600080fd5b506104ed600480360360208110156104dd57600080fd5b50356001600160a01b03166116f1565b60408051918252519081900360200190f35b34801561050b57600080fd5b506105296004803603602081101561052257600080fd5b5035611703565b005b34801561053757600080fd5b506105296004803603602081101561054e57600080fd5b5035611760565b34801561056157600080fd5b506105296004803603602081101561057857600080fd5b503561182c565b34801561058b57600080fd5b506104ed61196c565b3480156105a057600080fd5b506104ed611977565b3480156105b557600080fd5b506105be611980565b604080516001600160a01b039092168252519081900360200190f35b3480156105e657600080fd5b506104ed600480360360408110156105fd57600080fd5b506001600160a01b03813516906020013561198f565b34801561061f57600080fd5b506104ed611a18565b34801561063457600080fd5b50610529600480360361012081101561064c57600080fd5b506001600160a01b038135169060208101359060408101359060608101359060808101359060a08101359060c08101359060e0810135906101000135611a1e565b34801561069957600080fd5b506104ed600480360360408110156106b057600080fd5b5080359060200135611b7e565b3480156106c957600080fd5b50610529600480360360408110156106e057600080fd5b5080359060200135611d56565b3480156106f957600080fd5b5061072c6004803603606081101561071057600080fd5b506001600160a01b038135169060208101359060400135611df4565b60408051938452602084019290925282820152519081900360600190f35b34801561075657600080fd5b506104ed611e26565b34801561076b57600080fd5b506104ed611e39565b34801561078057600080fd5b506104ed611e56565b34801561079557600080fd5b5061079e611e5c565b6040805192835260208301919091528051918290030190f35b3480156107c357600080fd5b50610529600480360360208110156107da57600080fd5b5035611e66565b3480156107ed57600080fd5b506105296004803603602081101561080457600080fd5b5035611ec0565b34801561081757600080fd5b506105be611f2c565b34801561082c57600080fd5b5061084a6004803603602081101561084357600080fd5b5035611f3b565b604080519788526020880196909652868601949094526060860192909252608085015260a084015260c0830152519081900360e00190f35b34801561088e57600080fd5b50610529600480360360a08110156108a557600080fd5b508035906020810135906001600160a01b036040820135811691606081013582169160809091013516611f7d565b3480156108df57600080fd5b50610529600480360360208110156108f657600080fd5b503561208f565b34801561090957600080fd5b506105296004803603604081101561092057600080fd5b50803590602001356120e9565b34801561093957600080fd5b506105296004803603604081101561095057600080fd5b50803590602001356124e6565b34801561096957600080fd5b506105296004803603606081101561098057600080fd5b5080359060208101359060400135612618565b34801561099f57600080fd5b5061052960048036036101008110156109b757600080fd5b6001600160a01b0382351691602081013591810190606081016040820135600160201b8111156109e657600080fd5b8201836020820111156109f857600080fd5b803590602001918460018302840111600160201b83111715610a1957600080fd5b919350915080359060208101359060408101359060608101359060800135612890565b348015610a4857600080fd5b50610a51612936565b604080516001600160e81b03199092168252519081900360200190f35b348015610a7a57600080fd5b506104ed60048036036020811015610a9157600080fd5b5035612940565b348015610aa457600080fd5b506104ed60048036036040811015610abb57600080fd5b5080359060200135612976565b348015610ad457600080fd5b506105be612993565b348015610ae957600080fd5b506104ed6129a2565b348015610afe57600080fd5b506104ed6129b9565b348015610b1357600080fd5b506104ed60048036036040811015610b2a57600080fd5b506001600160a01b0381351690602001356129bf565b348015610b4c57600080fd5b506104ed60048036036040811015610b6357600080fd5b50803590602001356129fd565b348015610b7c57600080fd5b5061052960048036036020811015610b9357600080fd5b50356001600160a01b0316612a1e565b348015610baf57600080fd5b506104ed612a6a565b348015610bc457600080fd5b506104ed60048036036040811015610bdb57600080fd5b506001600160a01b038135169060200135612a70565b348015610bfd57600080fd5b5061052960048036036020811015610c1457600080fd5b5035612ab1565b348015610c2757600080fd5b506104ed60048036036040811015610c3e57600080fd5b506001600160a01b038135169060200135612b0b565b348015610c6057600080fd5b50610529612b75565b348015610c7557600080fd5b506104ed612c06565b348015610c8a57600080fd5b506104ed612c0f565b348015610c9f57600080fd5b50610cbd60048036036020811015610cb657600080fd5b5035612c15565b6040805160208082528351818301528351919283929083019185019080838360005b83811015610cf7578181015183820152602001610cdf565b50505050905090810190601f168015610d245780820380516001836020036101000a031916815260200191505b509250505060405180910390f35b348015610d3e57600080fd5b506104ed612cb0565b348015610d5357600080fd5b5061052960048036036040811015610d6a57600080fd5b5080359060200135612cb6565b348015610d8357600080fd5b5061052960048036036040811015610d9a57600080fd5b506001600160a01b038135169060200135612d46565b348015610dbc57600080fd5b506105be612d94565b348015610dd157600080fd5b50610dda612da3565b604080519115158252519081900360200190f35b348015610dfa57600080fd5b50610e2760048036036040811015610e1157600080fd5b506001600160a01b038135169060200135612db4565b604080519485526020850193909352838301919091526060830152519081900360800190f35b61052960048036036020811015610e6357600080fd5b5035612de6565b348015610e7657600080fd5b506104ed60048036036040811015610e8d57600080fd5b5080359060200135612df1565b348015610ea657600080fd5b5061052960048036036020811015610ebd57600080fd5b50356001600160a01b0316612e12565b61052960048036036020811015610ee357600080fd5b810190602081018135600160201b811115610efd57600080fd5b820183602082011115610f0f57600080fd5b803590602001918460018302840111600160201b83111715610f3057600080fd5b509092509050612e7b565b348015610f4757600080fd5b506104ed612f6e565b348015610f5c57600080fd5b506104ed60048036036040811015610f7357600080fd5b506001600160a01b038135169060200135612f85565b348015610f9557600080fd5b5061052960048036036020811015610fac57600080fd5b5035612fa2565b348015610fbf57600080fd5b50610fdd60048036036020811015610fd657600080fd5b5035612ffc565b604080519788526020880196909652868601949094526060860192909252608085015260a08401526001600160a01b031660c0830152519081900360e00190f35b34801561102a57600080fd5b506105296004803603602081101561104157600080fd5b5035613042565b34801561105457600080fd5b5061072c6004803603604081101561106b57600080fd5b506001600160a01b038135169060200135613122565b34801561108d57600080fd5b506104ed61314e565b3480156110a257600080fd5b506110c0600480360360208110156110b957600080fd5b5035613154565b60408051602080825283518183015283519192839290830191858101910280838360005b838110156110fc5781810151838201526020016110e4565b505050509050019250505060405180910390f35b34801561111c57600080fd5b50610dda6131b9565b34801561113157600080fd5b506105296004803603606081101561114857600080fd5b50803590602081013590604001356131ca565b34801561116757600080fd5b50610dda6004803603602081101561117e57600080fd5b50356131dd565b34801561119157600080fd5b506104ed6131f4565b3480156111a657600080fd5b506104ed600480360360208110156111bd57600080fd5b5035613204565b3480156111d057600080fd5b506104ed613216565b3480156111e557600080fd5b50610529600480360360408110156111fc57600080fd5b5080359060200135151561321c565b34801561121757600080fd5b506105296004803603602081101561122e57600080fd5b50356133ff565b34801561124157600080fd5b506104ed6004803603604081101561125857600080fd5b506001600160a01b038135169060200135613459565b34801561127a57600080fd5b50610dda6004803603604081101561129157600080fd5b506001600160a01b038135169060200135613476565b3480156112b357600080fd5b50610529600480360360208110156112ca57600080fd5b50356001600160a01b031661350c565b3480156112e657600080fd5b50610529600480360360208110156112fd57600080fd5b5035613566565b34801561131057600080fd5b506104ed6135c0565b34801561132557600080fd5b50610dda6135c6565b34801561133a57600080fd5b506104ed6004803603604081101561135157600080fd5b50803590602001356135d7565b34801561136a57600080fd5b506105296004803603606081101561138157600080fd5b50803590602081013590604001356135f8565b3480156113a057600080fd5b506104ed600480360360408110156113b757600080fd5b5080359060200135613695565b3480156113d057600080fd5b50610529600480360360208110156113e757600080fd5b810190602081018135600160201b81111561140157600080fd5b82018360208201111561141357600080fd5b803590602001918460208302840111600160201b8311171561143457600080fd5b5090925090506136b6565b34801561144b57600080fd5b506104ed6004803603604081101561146257600080fd5b5080359060200135613790565b34801561147b57600080fd5b506105296004803603606081101561149257600080fd5b6001600160a01b0382351691602081013591810190606081016040820135600160201b8111156114c157600080fd5b8201836020820111156114d357600080fd5b803590602001918460018302840111600160201b831117156114f457600080fd5b5090925090506137b1565b34801561150b57600080fd5b506105296004803603602081101561152257600080fd5b50356138b0565b34801561153557600080fd5b506105296004803603608081101561154c57600080fd5b810190602081018135600160201b81111561156657600080fd5b82018360208201111561157857600080fd5b803590602001918460208302840111600160201b8311171561159957600080fd5b919390929091602081019035600160201b8111156115b657600080fd5b8201836020820111156115c857600080fd5b803590602001918460208302840111600160201b831117156115e957600080fd5b919390929091602081019035600160201b81111561160657600080fd5b82018360208201111561161857600080fd5b803590602001918460208302840111600160201b8311171561163957600080fd5b919390929091602081019035600160201b81111561165657600080fd5b82018360208201111561166857600080fd5b803590602001918460208302840111600160201b8311171561168957600080fd5b50909250905061390a565b3480156116a057600080fd5b50610529600480360360208110156116b757600080fd5b50356001600160a01b0316613ae6565b3480156116d357600080fd5b50610529600480360360208110156116ea57600080fd5b5035613b36565b609d6020526000908152604090205481565b61170b6135c6565b8061171957506117196131b9565b6117545760405162461bcd60e51b81526004018080602001828103825260508152602001806162d36050913960600191505060405180910390fd5b61175d81613b90565b50565b33611769616087565b6117738284613bcb565b6020810151815191925060009161178f9163ffffffff613cbf16565b90506117b283856117ad856040015185613cbf90919063ffffffff16565b613d19565b6001600160a01b038316600081815260a760209081526040808320888452825291829020805485019055845185820151868401518451928352928201528083019190915290518692917f4119153d17a36f9597d40e3ab4148d03261a439dddbec4e91799ab7159608e26919081900360600190a350505050565b33611835616087565b61183f8284613bcb565b90506000826001600160a01b031661187c836040015161187085602001518660000151613cbf90919063ffffffff16565b9063ffffffff613cbf16565b604051600081818185875af1925050503d80600081146118b8576040519150601f19603f3d011682016040523d82523d6000602084013e6118bd565b606091505b5050905080611908576040805162461bcd60e51b81526020600482015260126024820152714661696c656420746f2073656e642046544d60701b604482015290519081900360640190fd5b83836001600160a01b03167fc1d8eb6e444b89fb8ff0991c19311c070df704ccb009e210d1462d5b2410bf4584600001518560200151866040015160405180848152602001838152602001828152602001935050505060405180910390a350505050565b60b45461016d025b90565b60b354600e0290565b60b8546001600160a01b031681565b600061199b8383613476565b6119c957506001600160a01b038216600090815260a660209081526040808320848452909152902054611a12565b6001600160a01b038316600081815260a76020908152604080832086845282528083205493835260a68252808320868452909152902054611a0f9163ffffffff613e1616565b90505b92915050565b60aa5481565b611a2733613e58565b611a625760405162461bcd60e51b81526004018080602001828103825260298152602001806161d86029913960400191505060405180910390fd5b611a6d898989613e6c565b6001600160a01b038916600090815260a3602090815260408083208b84529091529020600201819055611a9f87613fd1565b8515611b735786861115611ae45760405162461bcd60e51b815260040180806020018281038252602c8152602001806163cc602c913960400191505060405180910390fd5b6001600160a01b038916600081815260a7602090815260408083208c845282528083208a8155600181018a9055600281018990556003810188905584845260a883528184208d855283529281902086905580518781529182018a9052805192938c9390927f138940e95abffcd789b497bf6188bba3afa5fbd22fb5c42c2f6018d1bf0f4e7892908290030190a3505b505050505050505050565b33600081815260a760209081526040808320868452909152812090919083611bdb576040805162461bcd60e51b815260206004820152600b60248201526a1e995c9bc8185b5bdd5b9d60aa1b604482015290519081900360640190fd5b611be58286613476565b611c26576040805162461bcd60e51b815260206004820152600d60248201526c06e6f74206c6f636b656420757609c1b604482015290519081900360640190fd5b8054841115611c7c576040805162461bcd60e51b815260206004820152601760248201527f6e6f7420656e6f756768206c6f636b6564207374616b65000000000000000000604482015290519081900360640190fd5b611c868286614056565b611cd2576040805162461bcd60e51b81526020600482015260186024820152776f75747374616e64696e67207346544d2062616c616e636560401b604482015290519081900360640190fd5b611cdc82866140f8565b506000611cef83878785600001546142c3565b825486900383559050611d038387836143f4565b85836001600160a01b03167fef6c0c14fe9aa51af36acd791464dec3badbde668b63189b47bfa4e25be9b2b98784604051808381526020018281526020019250505060405180910390a395945050505050565b611d5f33613e58565b611d9a5760405162461bcd60e51b81526004018080602001828103825260298152602001806161d86029913960400191505060405180910390fd5b80611ddb576040805162461bcd60e51b815260206004820152600c60248201526b77726f6e672073746174757360a01b604482015290519081900360640190fd5b611de58282614544565b611df082600061321c565b5050565b60a560209081526000938452604080852082529284528284209052825290208054600182015460029092015490919083565b6000611e3061466e565b60af5402905090565b60006064611e4561466e565b60b1540281611e5057fe5b04905090565b60a15481565b60ac5460ad549091565b611e6e6135c6565b80611e7c5750611e7c6131b9565b611eb75760405162461bcd60e51b81526004018080602001828103825260508152602001806162d36050913960600191505060405180910390fd5b61175d8161467a565b611ec8612da3565b611f07576040805162461bcd60e51b81526020600482018190526024820152600080516020616285833981519152604482015290519081900360640190fd5b60008112611f1c5760aa80548201905561175d565b60aa805460008390039003905550565b6067546001600160a01b031690565b60ab60205280600052604060002060009150905080600701549080600801549080600901549080600a01549080600b01549080600c01549080600d0154905087565b600054610100900460ff1680611f965750611f966146b5565b80611fa4575060005460ff16155b611fdf5760405162461bcd60e51b815260040180806020018281038252602e8152602001806162a5602e913960400191505060405180910390fd5b600054610100900460ff1615801561200a576000805460ff1961ff0019909116610100171660011790555b612013836146bb565b61201d82846147ac565b609b869055609a80546001600160a01b0319166001600160a01b03861617905560aa8590556755cfe697852e904c60a9556103e860ac556203f48060ad556120636148e7565b600087815260ab60205260409020600701558015612087576000805461ff00191690555b505050505050565b6120976135c6565b806120a557506120a56131b9565b6120e05760405162461bcd60e51b81526004018080602001828103825260508152602001806162d36050913960600191505060405180910390fd5b61175d816148eb565b336120f2616087565b506001600160a01b038116600090815260a5602090815260408083208684528252808320858452825291829020825160608101845281548082526001830154938201939093526002909101549281019290925261218e576040805162461bcd60e51b81526020600482015260156024820152741c995c5d595cdd08191bd95cdb89dd08195e1a5cdd605a1b604482015290519081900360640190fd5b6121988285614056565b6121e4576040805162461bcd60e51b81526020600482015260186024820152776f75747374616e64696e67207346544d2062616c616e636560401b604482015290519081900360640190fd5b60208082015182516000878152609c9093526040909220600101549091901580159061222057506000868152609c602052604090206001015482115b156122415750506000848152609c6020526040902060018101546002909101545b61224961314e565b82016122536148e7565b101561229f576040805162461bcd60e51b81526020600482015260166024820152751b9bdd08195b9bdd59da081d1a5b59481c185cdcd95960521b604482015290519081900360640190fd5b6122a7612a6a565b81016122b1612c06565b1015612304576040805162461bcd60e51b815260206004820152601860248201527f6e6f7420656e6f7567682065706f636873207061737365640000000000000000604482015290519081900360640190fd5b6001600160a01b038416600090815260a56020908152604080832089845282528083208884529091528120600201549061233d886131dd565b9050600061235f838360b760008d815260200190815260200160002054614926565b6001600160a01b038816600090815260a5602090815260408083208d845282528083208c84529091528120818155600181018290556002015560a280548201905590508083116123ef576040805162461bcd60e51b81526020600482015260166024820152751cdd185ad9481a5cc8199d5b1b1e481cdb185cda195960521b604482015290519081900360640190fd5b60006001600160a01b03881661240b858463ffffffff613e1616565b604051600081818185875af1925050503d8060008114612447576040519150601f19603f3d011682016040523d82523d6000602084013e61244c565b606091505b5050905080612497576040805162461bcd60e51b81526020600482015260126024820152714661696c656420746f2073656e642046544d60701b604482015290519081900360640190fd5b888a896001600160a01b03167f75e161b3e824b114fc1a33274bd7091918dd4e639cede50b78b15a4eea956a21876040518082815260200191505060405180910390a450505050505050505050565b6124ee612da3565b61252d576040805162461bcd60e51b81526020600482018190526024820152600080516020616285833981519152604482015290519081900360640190fd5b612536826131dd565b612587576040805162461bcd60e51b815260206004820152601760248201527f76616c696461746f722069736e277420736c6173686564000000000000000000604482015290519081900360640190fd5b61258f61466e565b8111156125cd5760405162461bcd60e51b81526004018080602001828103825260218152602001806163236021913960400191505060405180910390fd5b600082815260b760209081526040918290208390558151838152915184927f047575f43f09a7a093d94ec483064acfc61b7e25c0de28017da442abf99cb91792908290030190a25050565b3361262381856140f8565b5060008211612667576040805162461bcd60e51b815260206004820152600b60248201526a1e995c9bc8185b5bdd5b9d60aa1b604482015290519081900360640190fd5b612671818561198f565b8211156126c5576040805162461bcd60e51b815260206004820152601960248201527f6e6f7420656e6f75676820756e6c6f636b6564207374616b6500000000000000604482015290519081900360640190fd5b6126cf8185614056565b61271b576040805162461bcd60e51b81526020600482015260186024820152776f75747374616e64696e67207346544d2062616c616e636560401b604482015290519081900360640190fd5b6001600160a01b038116600090815260a560209081526040808320878452825280832086845290915290206002015415612792576040805162461bcd60e51b81526020600482015260136024820152727772494420616c72656164792065786973747360681b604482015290519081900360640190fd5b61279d8185846143f4565b6001600160a01b038116600090815260a560209081526040808320878452825280832086845290915290206002018290556127d6612c06565b6001600160a01b038216600090815260a560209081526040808320888452825280832087845290915290205561280a6148e7565b6001600160a01b038216600090815260a560209081526040808320888452825280832087845290915281206001019190915561284790859061321c565b8284826001600160a01b03167fd3bb4e423fbea695d16b982f9f682dc5f35152e5411646a8a5a79a6b02ba8d57856040518082815260200191505060405180910390a450505050565b61289933613e58565b6128d45760405162461bcd60e51b81526004018080602001828103825260298152602001806161d86029913960400191505060405180910390fd5b61291c898989898080601f0160208091040260200160405190810160405280939291908181526020018383808284376000920191909152508b92508a91508990508888614988565b609f54881115611b7357609f889055505050505050505050565b6219981960e91b90565b6000818152609c60209081526040808320600601546001600160a01b0316835260a682528083208484529091529020545b919050565b600091825260ab6020908152604080842092845291905290205490565b6066546001600160a01b031690565b600060646129ae61466e565b60b2540281611e5057fe5b60a25481565b60006129c9616087565b6129d38484614b37565b8051602082015160408301519293506129f5926118709163ffffffff613cbf16565b949350505050565b600091825260ab602090815260408084209284526001909201905290205490565b612a266131b9565b612a615760405162461bcd60e51b81526004018080602001828103825260318152602001806162016031913960400191505060405180910390fd5b61175d81614ba5565b60b55490565b6000612a7c8383613476565b612a8857506000611a12565b506001600160a01b0391909116600090815260a760209081526040808320938352929052205490565b612ab96135c6565b80612ac75750612ac76131b9565b612b025760405162461bcd60e51b81526004018080602001828103825260508152602001806162d36050913960600191505060405180910390fd5b61175d81614c46565b6000612b15616087565b506001600160a01b038316600090815260a360209081526040808320858452825291829020825160608101845281548082526001830154938201849052600290920154938101849052926129f5929091611870919063ffffffff613cbf16565b612b7d612da3565b612bbc576040805162461bcd60e51b81526020600482018190526024820152600080516020616285833981519152604482015290519081900360640190fd5b6033546040516000916001600160a01b0316907f8be0079c531659141344cd1fd0a4f28419497f9722a3daafe3b4186f6b6457e0908390a3603380546001600160a01b0319169055565b609b5460010190565b609b5481565b609e6020908152600091825260409182902080548351601f600260001961010060018616150201909316929092049182018490048402810184019094528084529091830182828015612ca85780601f10612c7d57610100808354040283529160200191612ca8565b820191906000526020600020905b815481529060010190602001808311612c8b57829003601f168201915b505050505081565b60a05481565b612cbe612da3565b612cfd576040805162461bcd60e51b81526020600482018190526024820152600080516020616285833981519152604482015290519081900360640190fd5b60ad81905560ac829055604080518381526020810183905281517f702756a07c05d0bbfd06fc17b67951a5f4deb7bb6b088407e68a58969daf2a34929181900390910190a15050565b612d5082826140f8565b611df0576040805162461bcd60e51b815260206004820152601060248201526f0dcdee8d0d2dcce40e8de40e6e8c2e6d60831b604482015290519081900360640190fd5b6033546001600160a01b031690565b6033546001600160a01b0316331490565b60a760209081526000928352604080842090915290825290208054600182015460028301546003909301549192909184565b61175d338234613d19565b600091825260ab602090815260408084209284526005909201905290205490565b612e1a612da3565b612e59576040805162461bcd60e51b81526020600482018190526024820152600080516020616285833981519152604482015290519081900360640190fd5b60b880546001600160a01b0319166001600160a01b0392909216919091179055565b612e836131f4565b341015612ed1576040805162461bcd60e51b8152602060048201526017602482015276696e73756666696369656e742073656c662d7374616b6560481b604482015290519081900360640190fd5b8015801590612ee1575060418111155b612f21576040805162461bcd60e51b815260206004820152600c60248201526b656d707479207075626b657960a01b604482015290519081900360640190fd5b612f613383838080601f016020809104026020016040519081016040528093929190818152602001838380828437600092019190915250614c8192505050565b611df033609f5434613d19565b60006064612f7a61466e565b60b0540281611e5057fe5b60a460209081526000928352604080842090915290825290205481565b612faa6135c6565b80612fb85750612fb86131b9565b612ff35760405162461bcd60e51b81526004018080602001828103825260508152602001806162d36050913960600191505060405180910390fd5b61175d81614cac565b609c60205260009081526040902080546001820154600283015460038401546004850154600586015460069096015494959394929391929091906001600160a01b031687565b61304a612da3565b613089576040805162461bcd60e51b81526020600482018190526024820152600080516020616285833981519152604482015290519081900360640190fd5b6801c985c8903591eb208111156130e7576040805162461bcd60e51b815260206004820152601b60248201527f746f6f206c617267652072657761726420706572207365636f6e640000000000604482015290519081900360640190fd5b60a98190556040805182815290517f8cd9dae1bbea2bc8a5e80ffce2c224727a25925130a03ae100619a8861ae23969181900360200190a150565b60a860209081526000928352604080842090915290825290208054600182015460029092015490919083565b60b65490565b600081815260ab60209081526040918290206006018054835181840281018401909452808452606093928301828280156131ad57602002820191906000526020600020905b815481526020019060010190808311613199575b50505050509050919050565b6067546001600160a01b0316331490565b336131d781858585614ce7565b50505050565b6000908152609c6020526040902054608016151590565b60ae54670de0b6b3a76400000290565b60b76020526000908152604090205481565b609f5481565b61322582614f99565b613270576040805162461bcd60e51b81526020600482015260176024820152761d985b1a59185d1bdc88191bd95cdb89dd08195e1a5cdd604a1b604482015290519081900360640190fd5b6000828152609c60205260409020600381015490541561328e575060005b609a546040805163520337df60e11b8152600481018690526024810184905290516001600160a01b039092169163a4066fbe9160448082019260009290919082900301818387803b1580156132e257600080fd5b505af11580156132f6573d6000803e3d6000fd5b5050505081801561330657508015155b156133fa57609a546000848152609e602052604090819020815163242a6e3f60e01b81526004810187815260248201938452825460026000196001831615610100020190911604604483018190526001600160a01b039095169463242a6e3f948994939091606490910190849080156133c05780601f10613395576101008083540402835291602001916133c0565b820191906000526020600020905b8154815290600101906020018083116133a357829003601f168201915b50509350505050600060405180830381600087803b1580156133e157600080fd5b505af11580156133f5573d6000803e3d6000fd5b505050505b505050565b6134076135c6565b8061341557506134156131b9565b6134505760405162461bcd60e51b81526004018080602001828103825260508152602001806162d36050913960600191505060405180910390fd5b61175d81614fb0565b60a660209081526000928352604080842090915290825290205481565b6001600160a01b038216600090815260a760209081526040808320848452909152812060020154158015906134cd57506001600160a01b038316600090815260a76020908152604080832085845290915290205415155b8015611a0f57506001600160a01b038316600090815260a7602090815260408083208584529091529020600201546135036148e7565b11159392505050565b6135146135c6565b8061352257506135226131b9565b61355d5760405162461bcd60e51b81526004018080602001828103825260508152602001806162d36050913960600191505060405180910390fd5b61175d81614feb565b61356e6135c6565b8061357c575061357c6131b9565b6135b75760405162461bcd60e51b81526004018080602001828103825260508152602001806162d36050913960600191505060405180910390fd5b61175d8161508c565b60a95481565b6066546001600160a01b0316331490565b600091825260ab602090815260408084209284526003909201905290205490565b3381613639576040805162461bcd60e51b815260206004820152600b60248201526a1e995c9bc8185b5bdd5b9d60aa1b604482015290519081900360640190fd5b6136438185613476565b15613689576040805162461bcd60e51b81526020600482015260116024820152700616c7265616479206c6f636b656420757607c1b604482015290519081900360640190fd5b6131d781858585614ce7565b600091825260ab602090815260408084209284526002909201905290205490565b6136bf33613e58565b6136fa5760405162461bcd60e51b81526004018080602001828103825260298152602001806161d86029913960400191505060405180910390fd5b600060ab6000613708612c06565b8152602001908152602001600020905060008090505b8281101561378157600084848381811061373457fe5b602090810292909201356000818152609c8452604080822060030154948890529020839055600c86015490935061377291508263ffffffff613cbf16565b600c850155505060010161371e565b506131d76006820184846160a8565b600091825260ab602090815260408084209284526004909201905290205490565b6137b9612da3565b6137f8576040805162461bcd60e51b81526020600482018190526024820152600080516020616285833981519152604482015290519081900360640190fd5b61380183613fd1565b6040516001600160a01b0385169084156108fc029085906000818181858888f19350505050158015613837573d6000803e3d6000fd5b50836001600160a01b03167f9eec469b348bcf64bbfb60e46ce7b160e2e09bf5421496a2cdbc43714c28b8ad84848460405180848152602001806020018281038252848482818152602001925080828437600083820152604051601f909101601f1916909201829003965090945050505050a250505050565b6138b86135c6565b806138c657506138c66131b9565b6139015760405162461bcd60e51b81526004018080602001828103825260508152602001806162d36050913960600191505060405180910390fd5b61175d816150c7565b61391333613e58565b61394e5760405162461bcd60e51b81526004018080602001828103825260298152602001806161d86029913960400191505060405180910390fd5b600060ab600061395c612c06565b815260200190815260200160002090506060816006018054806020026020016040519081016040528092919081815260200182805480156139bc57602002820191906000526020600020905b8154815260200190600101908083116139a8575b50505050509050613a4382828c8c80806020026020016040519081016040528093929190818152602001838360200280828437600081840152601f19601f820116905080830192505050505050508b8b8080602002602001604051908101604052809392919081815260200183836020028082843760009201919091525061510292505050565b613ab2828288888080602002602001604051908101604052809392919081815260200183836020028082843760009201919091525050604080516020808c0282810182019093528b82529093508b92508a91829185019084908082843760009201919091525061521892505050565b613aba612c06565b609b55613ac56148e7565b60078301555060a954600b82015560aa54600d909101555050505050505050565b613aee612da3565b613b2d576040805162461bcd60e51b81526020600482018190526024820152600080516020616285833981519152604482015290519081900360640190fd5b61175d8161585e565b613b3e6135c6565b80613b4c5750613b4c6131b9565b613b875760405162461bcd60e51b81526004018080602001828103825260508152602001806162d36050913960600191505060405180910390fd5b61175d816158ff565b60af8190556040805182815290517fd3b49810855efc7d611424cd0a8cc519b92cf2e97bd3516921dff1a19b101e359181900360200190a150565b613bd3616087565b613bdd83836140f8565b50506001600160a01b038216600090815260a36020908152604080832084845282528083208151606081018352815480825260018301549482018590526002909201549281018390529392613c3b926118709163ffffffff613cbf16565b905080613c7e576040805162461bcd60e51b815260206004820152600c60248201526b7a65726f207265776172647360a01b604482015290519081900360640190fd5b6001600160a01b038416600090815260a36020908152604080832086845290915281208181556001810182905560020155613cb881613fd1565b5092915050565b600082820183811015611a0f576040805162461bcd60e51b815260206004820152601b60248201527f536166654d6174683a206164646974696f6e206f766572666c6f770000000000604482015290519081900360640190fd5b613d2282614f99565b613d6d576040805162461bcd60e51b81526020600482015260176024820152761d985b1a59185d1bdc88191bd95cdb89dd08195e1a5cdd604a1b604482015290519081900360640190fd5b6000828152609c602052604090205415613dc7576040805162461bcd60e51b815260206004820152601660248201527576616c696461746f722069736e27742061637469766560501b604482015290519081900360640190fd5b613dd2838383613e6c565b613ddb8261593a565b6133fa5760405162461bcd60e51b815260040180806020018281038252602981526020018061636c6029913960400191505060405180910390fd5b6000611a0f83836040518060400160405280601e81526020017f536166654d6174683a207375627472616374696f6e206f766572666c6f770000815250615982565b609a546001600160a01b0390811691161490565b60008111613eaf576040805162461bcd60e51b815260206004820152600b60248201526a1e995c9bc8185b5bdd5b9d60aa1b604482015290519081900360640190fd5b613eb983836140f8565b506001600160a01b038316600090815260a660209081526040808320858452909152902054613eee908263ffffffff613cbf16565b6001600160a01b038416600090815260a660209081526040808320868452825280832093909355609c90522060030154613f2e818363ffffffff613cbf16565b6000848152609c602052604090206003015560a054613f53908363ffffffff613cbf16565b60a0556000838152609c6020526040902054613f805760a154613f7c908363ffffffff613cbf16565b60a1555b613f8b83821561321c565b60408051838152905184916001600160a01b038716917f9a8f44850296624dadfd9c246d17e47171d35727a181bd090aa14bbbe00238bb9181900360200190a350505050565b609a54604080516366e7ea0f60e01b81523060048201526024810184905290516001600160a01b03909216916366e7ea0f9160448082019260009290919082900301818387803b15801561402457600080fd5b505af1158015614038573d6000803e3d6000fd5b505060aa54614050925090508263ffffffff613cbf16565b60aa5550565b60b8546000906001600160a01b031661407157506001611a12565b60b854604080516321d585c360e01b81526001600160a01b03868116600483015260248201869052915191909216916321d585c3916044808301926020929190829003018186803b1580156140c557600080fd5b505afa1580156140d9573d6000803e3d6000fd5b505050506040513d60208110156140ef57600080fd5b50519392505050565b6000614102616087565b61410c8484615a19565b905061411783615b51565b6001600160a01b038516600081815260a46020908152604080832088845282528083209490945591815260a382528281208682528252829020825160608101845281548152600182015492810192909252600201549181019190915261417d9082615bac565b6001600160a01b038516600081815260a360209081526040808320888452825280832085518155858301516001808301919091559582015160029182015593835260a88252808320888452825291829020825160608101845281548152948101549185019190915290910154908201526141f79082615bac565b6001600160a01b038516600090815260a8602090815260408083208784528252918290208351815590830151600182015591015160029091015561423b8484613476565b61429e576001600160a01b038416600081815260a760209081526040808320878452825280832083815560018082018590556002808301869055600390920185905594845260a88352818420888552909252822082815592830182905591909101555b60208101511515806142b05750805115155b806129f557506040015115159392505050565b6001600160a01b038416600090815260a860209081526040808320868452909152812054819061430b9084906142ff908763ffffffff615c1e16565b9063ffffffff615c7716565b6001600160a01b038716600090815260a8602090815260408083208984529091528120600101549192509061434c9085906142ff908863ffffffff615c1e16565b6001600160a01b038816600090815260a8602090815260408083208a8452909152902054909150600282048301906143849084613e16565b6001600160a01b038916600090815260a8602090815260408083208b84529091529020908155600101546143b89083613e16565b6001600160a01b038916600090815260a8602090815260408083208b84529091529020600101558581106143e95750845b979650505050505050565b6001600160a01b038316600090815260a660209081526040808320858452825280832080548590039055609c909152902060030154614439908263ffffffff613e1616565b6000838152609c602052604090206003015560a05461445e908263ffffffff613e1616565b60a0556000828152609c602052604090205461448b5760a154614487908263ffffffff613e1616565b60a1555b600061449683612940565b9050801561453d576144a66131f4565b8110156144f4576040805162461bcd60e51b8152602060048201526017602482015276696e73756666696369656e742073656c662d7374616b6560481b604482015290519081900360640190fd5b6144fd8361593a565b6145385760405162461bcd60e51b815260040180806020018281038252602981526020018061636c6029913960400191505060405180910390fd5b6131d7565b6131d78360015b6000828152609c602052604090205415801561455f57508015155b1561458c576000828152609c602052604090206003015460a1546145889163ffffffff613e1616565b60a1555b6000828152609c6020526040902054811115611df0576000828152609c6020526040902081815560020154614634576145c3612c06565b6000838152609c60205260409020600201556145dd6148e7565b6000838152609c60209081526040918290206001810184905560020154825190815290810192909252805184927fac4801c32a6067ff757446524ee4e7a373797278ac3c883eac5c693b4ad72e4792908290030190a25b60408051828152905183917fcd35267e7654194727477d6c78b541a553483cff7f92a055d17868d3da6e953e919081900360200190a25050565b670de0b6b3a764000090565b60b08190556040805182815290517f969e21e21af49053b3bfee796b627ebc26e10328889e90a47da2f1205d3e8f139181900360200190a150565b303b1590565b600054610100900460ff16806146d457506146d46146b5565b806146e2575060005460ff16155b61471d5760405162461bcd60e51b815260040180806020018281038252602e8152602001806162a5602e913960400191505060405180910390fd5b600054610100900460ff16158015614748576000805460ff1961ff0019909116610100171660011790555b603380546001600160a01b0319166001600160a01b0384811691909117918290556040519116906000907f8be0079c531659141344cd1fd0a4f28419497f9722a3daafe3b4186f6b6457e0908290a38015611df0576000805461ff00191690555050565b600054610100900460ff16806147c557506147c56146b5565b806147d3575060005460ff16155b61480e5760405162461bcd60e51b815260040180806020018281038252602e8152602001806162a5602e913960400191505060405180910390fd5b600054610100900460ff16158015614839576000805460ff1961ff0019909116610100171660011790555b606680546001600160a01b038086166001600160a01b03199283161792839055606780548683169316929092179091556040519116906000907f5f56bee8cffbe9a78652a74a60705edede02af10b0bbb888ca44b79a0d42ce80908290a36067546040516001600160a01b03909116906000907fd91e5ba07efb2e532a3d502f5fb4451cf8fe4006f3b90283d8f2f51a06e5358c908290a380156133fa576000805461ff0019169055505050565b4290565b60b38190556040805182815290517f31d33f23d1e7fe45f7e898c070587ff0f2f519674e5e2a12f90b3a17c77f6ad19181900360200190a150565b600082158061493c575061493861466e565b8210155b1561494957506000614981565b614974600161187061495961466e565b6142ff8661496561466e565b8a91900363ffffffff615c1e16565b9050838111156149815750825b9392505050565b6001600160a01b0388166000908152609d6020526040902054156149f3576040805162461bcd60e51b815260206004820152601860248201527f76616c696461746f7220616c7265616479206578697374730000000000000000604482015290519081900360640190fd5b6001600160a01b0388166000818152609d602090815260408083208b90558a8352609c82528083208981556004810189905560058101889055600181018690556002810187905560060180546001600160a01b031916909417909355609e81529190208751614a64928901906160f3565b50876001600160a01b0316877f49bca1ed2666922f9f1690c26a569e1299c2a715fe57647d77e81adfabbf25bf8686604051808381526020018281526020019250505060405180910390a38115614af0576040805183815260208101839052815189927fac4801c32a6067ff757446524ee4e7a373797278ac3c883eac5c693b4ad72e47928290030190a25b8415614b2d5760408051868152905188917fcd35267e7654194727477d6c78b541a553483cff7f92a055d17868d3da6e953e919081900360200190a25b5050505050505050565b614b3f616087565b614b47616087565b614b518484615a19565b6001600160a01b038516600090815260a36020908152604080832087845282529182902082516060810184528154815260018201549281019290925260020154918101919091529091506129f59082615bac565b6001600160a01b038116614bea5760405162461bcd60e51b81526004018080602001828103825260378152602001806163956037913960400191505060405180910390fd5b6067546040516001600160a01b038084169216907fd91e5ba07efb2e532a3d502f5fb4451cf8fe4006f3b90283d8f2f51a06e5358c90600090a3606780546001600160a01b0319166001600160a01b0392909216919091179055565b60b58190556040805182815290517f2f273767369d76e1ecbee32ed26135f390df620f085feb7a6f2e3dd51985bd5f9181900360200190a150565b609f8054600101908190556133fa8382846000614c9c612c06565b614ca46148e7565b600080614988565b60b18190556040805182815290517f12420e865335c7cfb225296eb0adaca14bfb1de93b3731ed1e0434746a4d91249181900360200190a150565b614cf1848461198f565b811115614d38576040805162461bcd60e51b815260206004820152601060248201526f6e6f7420656e6f756768207374616b6560801b604482015290519081900360640190fd5b6000838152609c602052604090205415614d92576040805162461bcd60e51b815260206004820152601660248201527576616c696461746f722069736e27742061637469766560501b604482015290519081900360640190fd5b614d9a611977565b8210158015614db05750614dac61196c565b8211155b614df6576040805162461bcd60e51b815260206004820152601260248201527134b731b7b93932b1ba10323ab930ba34b7b760711b604482015290519081900360640190fd5b6000614e04836118706148e7565b6000858152609c60205260409020600601549091506001600160a01b039081169086168114614e92576001600160a01b038116600090815260a760209081526040808320888452909152902060020154821115614e925760405162461bcd60e51b81526004018080602001828103825260288152602001806163446028913960400191505060405180910390fd5b614e9c86866140f8565b506001600160a01b038616600090815260a76020908152604080832088845290915290206003810154851015614f19576040805162461bcd60e51b815260206004820152601f60248201527f6c6f636b7570206475726174696f6e2063616e6e6f7420646563726561736500604482015290519081900360640190fd5b8054614f2b908563ffffffff613cbf16565b8155614f35612c06565b600182015560028101839055600381018590556040805186815260208101869052815188926001600160a01b038b16927f138940e95abffcd789b497bf6188bba3afa5fbd22fb5c42c2f6018d1bf0f4e78929081900390910190a350505050505050565b6000908152609c6020526040902060050154151590565b60b28190556040805182815290517fcda2f8a6b9050afa9ac1f8d6ff9a123894f76a5530c6c29636332c995a1f97159181900360200190a150565b6001600160a01b0381166150305760405162461bcd60e51b81526004018080602001828103825260328152602001806162326032913960400191505060405180910390fd5b6066546040516001600160a01b038084169216907f5f56bee8cffbe9a78652a74a60705edede02af10b0bbb888ca44b79a0d42ce8090600090a3606680546001600160a01b0319166001600160a01b0392909216919091179055565b60ae8190556040805182815290517fe9a0db1369c39eb7fc2ed3d7e122f9ee60952b075329b1e84bce8843367210f49181900360200190a150565b60b68190556040805182815290517f9e85e6207a28e085f027a9b979cad850f4c36a581dd42c119e856c04b92d96119181900360200190a150565b60005b83518110156152115760ac5482828151811061511d57fe5b6020026020010151118015615147575060ad5483828151811061513c57fe5b602002602001015110155b156151885761516a84828151811061515b57fe5b60200260200101516008614544565b61518884828151811061517957fe5b6020026020010151600061321c565b82818151811061519457fe5b60200260200101518560040160008684815181106151ae57fe5b60200260200101518152602001908152602001600020819055508181815181106151d457fe5b60200260200101518560050160008684815181106151ee57fe5b602090810291909101810151825281019190915260400160002055600101615105565b5050505050565b615220616161565b6040518060c001604052808551604051908082528060200260200182016040528015615256578160200160208202803883390190505b50815260200160008152602001855160405190808252806020026020018201604052801561528e578160200160208202803883390190505b508152602001600081526020016000815260200160008152509050600060ab60006152c860016152bc612c06565b9063ffffffff613e1616565b815260208101919091526040016000206001608084015260078101549091506152ef6148e7565b11156153095780600701546153026148e7565b0360808301525b60005b855181101561541157600082600301600088848151811061532957fe5b6020026020010151815260200190815260200160002054905060008090508186848151811061535457fe5b6020026020010151111561537b578186848151811061536f57fe5b60200260200101510390505b846080015187848151811061538c57fe5b602002602001015182028161539d57fe5b04856040015184815181106153ae57fe5b6020026020010181815250506153e8856040015184815181106153cd57fe5b60200260200101518660600151613cbf90919063ffffffff16565b606086015260a0850151615402908263ffffffff613cbf16565b60a0860152505060010161530c565b5060005b85518110156154e257826080015185828151811061542f57fe5b6020026020010151846080015187848151811061544857fe5b60200260200101518a60000160008b878151811061546257fe5b6020026020010151815260200190815260200160002054028161548157fe5b04028161548a57fe5b048360000151828151811061549b57fe5b6020026020010181815250506154d5836000015182815181106154ba57fe5b60200260200101518460200151613cbf90919063ffffffff16565b6020840152600101615415565b5060005b855181101561583657600061551e846080015160a9548660000151858151811061550c57fe5b60200260200101518760200151615cb9565b905061555a61554d8560a001518660400151858151811061553b57fe5b60200260200101518760600151615cfa565b829063ffffffff613cbf16565b9050600087838151811061556a57fe5b6020908102919091018101516000818152609c90925260408220600601549092506001600160a01b0316906155a6846155a1612f6e565b615d57565b6001600160a01b038316600090815260a660209081526040808320878452909152902054909150801561574d576000816155e08587612a70565b8402816155e957fe5b0490508083036155f7616087565b6001600160a01b038616600090815260a7602090815260408083208a8452909152902060030154615629908490615d74565b9050615633616087565b61563e836000615d74565b6001600160a01b038816600090815260a3602090815260408083208c84528252918290208251606081018452815481526001820154928101929092526002015491810191909152909150615693908383615e65565b6001600160a01b038816600081815260a3602090815260408083208d8452825280832085518155858301516001808301919091559582015160029182015593835260a882528083208d84528252918290208251606081018452815481529481015491850191909152909101549082015261570e908383615e65565b6001600160a01b038816600090815260a8602090815260408083208c845282529182902083518155908301516001820155910151600290910155505050505b6000848152609c602052604081206003015483870391811561577f578161577261466e565b84028161577b57fe5b0490505b808a600101600089815260200190815260200160002054018f6001016000898152602001908152602001600020819055508b89815181106157bc57fe5b60200260200101518f6003016000898152602001908152602001600020819055508c89815181106157e957fe5b60200260200101518a600201600089815260200190815260200160002054018f600201600089815260200190815260200160002081905550505050505050505080806001019150506154e6565b505060a081015160088601556020810151600986015560600151600a90940193909355505050565b6001600160a01b0381166158a35760405162461bcd60e51b81526004018080602001828103825260268152602001806161b26026913960400191505060405180910390fd5b6033546040516001600160a01b038084169216907f8be0079c531659141344cd1fd0a4f28419497f9722a3daafe3b4186f6b6457e090600090a3603380546001600160a01b0319166001600160a01b0392909216919091179055565b60b48190556040805182815290517fd830c33dec392daf6dfeac9834107217392396bc333bcbb92e6c1c1a5e8726319181900360200190a150565b600061596761594761466e565b6142ff615952611e26565b61595b86612940565b9063ffffffff615c1e16565b6000838152609c602052604090206003015411159050919050565b60008184841115615a115760405162461bcd60e51b81526004018080602001828103825283818151815260200191508051906020019080838360005b838110156159d65781810151838201526020016159be565b50505050905090810190601f168015615a035780820380516001836020036101000a031916815260200191505b509250505060405180910390fd5b505050900390565b615a21616087565b6001600160a01b038316600090815260a46020908152604080832085845290915281205490615a4f84615b51565b90506000615a5d8686615e80565b905081811115615a6a5750805b82811015615a755750815b6001600160a01b038616600081815260a760209081526040808320898452825280832093835260a682528083208984529091528120548254909190615ac190839063ffffffff613e1616565b90506000615ad584600001548a8988615f3f565b9050615adf616087565b615aed828660030154615d74565b9050615afb838b8a89615f3f565b9150615b05616087565b615b10836000615d74565b9050615b1e858c898b615f3f565b9250615b28616087565b615b33846000615d74565b9050615b40838383615e65565b9d9c50505050505050505050505050565b6000818152609c602052604081206002015415615ba4576000828152609c6020526040902060020154609b541015615b8c5750609b54612971565b506000818152609c6020526040902060020154612971565b5050609b5490565b615bb4616087565b6040805160608101909152825184518291615bd5919063ffffffff613cbf16565b8152602001615bf584602001518660200151613cbf90919063ffffffff16565b8152602001615c1584604001518660400151613cbf90919063ffffffff16565b90529392505050565b600082615c2d57506000611a12565b82820282848281615c3a57fe5b0414611a0f5760405162461bcd60e51b81526004018080602001828103825260218152602001806162646021913960400191505060405180910390fd5b6000611a0f83836040518060400160405280601a81526020017f536166654d6174683a206469766973696f6e206279207a65726f000000000000815250615fa2565b600082615cc8575060006129f5565b6000615cda868663ffffffff615c1e16565b9050615cf0836142ff838763ffffffff615c1e16565b9695505050505050565b600082615d0957506000614981565b6000615d1f836142ff878763ffffffff615c1e16565b9050615d4e615d2c61466e565b6142ff615d37611e39565b615d3f61466e565b8591900363ffffffff615c1e16565b95945050505050565b6000611a0f615d6461466e565b6142ff858563ffffffff615c1e16565b615d7c616087565b604051806060016040528060008152602001600081526020016000815250905081600014615e37576000615dae6129a2565b615db661466e565b0390506000615dd6615dc661196c565b6142ff848763ffffffff615c1e16565b90506000615dff615de561466e565b6142ff84615df16129a2565b8a910163ffffffff615c1e16565b9050615e24615e0c61466e565b6142ff615e176129a2565b899063ffffffff615c1e16565b602085018190529003835250611a129050565b615e5a615e4261466e565b6142ff615e4d6129a2565b869063ffffffff615c1e16565b604082015292915050565b615e6d616087565b6129f5615e7a8585615bac565b83615bac565b6001600160a01b038216600090815260a760209081526040808320848452909152812060010154609b54615eb5858583616007565b15615ec3579150611a129050565b615ece858584616007565b615edd57600092505050611a12565b80821115615ef057600092505050611a12565b80821015615f2357600281830104615f09868683616007565b15615f1957806001019250615f1d565b8091505b50615ef0565b80615f3357600092505050611a12565b60001901949350505050565b6000818310615f50575060006129f5565b600083815260ab60208181526040808420888552600190810183528185205487865293835281852089865201909152909120546143e9615f8e61466e565b6142ff8961595b858763ffffffff613e1616565b60008183615ff15760405162461bcd60e51b81526020600482018181528351602484015283519092839260449091019190850190808383600083156159d65781810151838201526020016159be565b506000838581615ffd57fe5b0495945050505050565b6001600160a01b038316600090815260a76020908152604080832085845290915281206001015482108015906129f557506001600160a01b038416600090815260a76020908152604080832086845290915290206002015461606883616072565b1115949350505050565b600090815260ab602052604090206007015490565b60405180606001604052806000815260200160008152602001600081525090565b8280548282559060005260206000209081019282156160e3579160200282015b828111156160e35782358255916020019190600101906160c8565b506160ef929150616197565b5090565b828054600181600116156101000203166002900490600052602060002090601f016020900481019282601f1061613457805160ff19168380011785556160e3565b828001600101855582156160e3579182015b828111156160e3578251825591602001919060010190616146565b6040518060c001604052806060815260200160008152602001606081526020016000815260200160008152602001600081525090565b61197491905b808211156160ef576000815560010161619d56fe4f776e61626c653a206e6577206f776e657220697320746865207a65726f206164647265737363616c6c6572206973206e6f7420746865204e6f64654472697665724175746820636f6e7472616374476f7665726e616e6365526f6c653a2063616c6c6572206973206e6f7420746865207365636f6e64617279206f776e6572476f7665726e616e6365526f6c653a206e657720676f7665726e616e636520697320746865207a65726f2061646472657373536166654d6174683a206d756c7469706c69636174696f6e206f766572666c6f774f776e61626c653a2063616c6c6572206973206e6f7420746865206f776e6572436f6e747261637420696e7374616e63652068617320616c7265616479206265656e20696e697469616c697a6564476f7665726e616e6365526f6c653a20746869732066756e6374696f6e20697320636f6e74726f6c6c656420627920746865206f776e657220616e6420676f7665726e616e636520636f6e74726163746d757374206265206c657373207468616e206f7220657175616c20746f20312e3076616c696461746f72206c6f636b757020706572696f642077696c6c20656e64206561726c69657276616c696461746f7227732064656c65676174696f6e73206c696d6974206973206578636565646564476f7665726e616e6365526f6c653a206e6577207365636f6e64617279206f776e657220697320746865207a65726f20616464726573736c6f636b6564207374616b652069732067726561746572207468616e207468652077686f6c65207374616b65a265627a7a7231582092b80a770dc0bd31a33c2e231b8a22dedada6c369ce2924ff71a60cfa5d331e364736f6c63430005110032",
  "linkReferences": {},
  "deployedLinkReferences": {}
}