{
  "_format": "hh-sol-artifact-1",
  "contractName": "SFC",
  "sourceName": "contracts/sfc/SFC.sol",
  "abi": [
    {
      "anonymous": false,
      "inputs": [
        {
          "indexed": true,
          "internalType": "uint256",
          "name": "validatorID",
          "type": "uint256"
        },
        {
          "indexed": false,
          "internalType": "uint256",
          "name": "status",
          "type": "uint256"
        }
      ],
      "name": "ChangedValidatorStatus",
      "type": "event"
    },
    {
      "anonymous": false,
      "inputs": [
        {
          "indexed": true,
          "internalType": "address",
          "name": "delegator",
          "type": "address"
        },
        {
          "indexed": true,
          "internalType": "uint256",
          "name": "toValidatorID",
          "type": "uint256"
        },
        {
          "indexed": false,
          "internalType": "uint256",
          "name": "lockupExtraReward",
          "type": "uint256"
        },
        {
          "indexed": false,
          "internalType": "uint256",
          "name": "lockupBaseReward",
          "type": "uint256"
        },
        {
          "indexed": false,
          "internalType": "uint256",
          "name": "unlockedReward",
          "type": "uint256"
        }
      ],
      "name": "ClaimedRewards",
      "type": "event"
    },
    {
      "anonymous": false,
      "inputs": [
        {
          "indexed": true,
          "internalType": "uint256",
          "name": "validatorID",
          "type": "uint256"
        },
        {
          "indexed": true,
          "internalType": "address",
          "name": "auth",
          "type": "address"
        },
        {
          "indexed": false,
          "internalType": "uint256",
          "name": "createdEpoch",
          "type": "uint256"
        },
        {
          "indexed": false,
          "internalType": "uint256",
          "name": "createdTime",
          "type": "uint256"
        }
      ],
      "name": "CreatedValidator",
      "type": "event"
    },
    {
      "anonymous": false,
      "inputs": [
        {
          "indexed": true,
          "internalType": "uint256",
          "name": "validatorID",
          "type": "uint256"
        },
        {
          "indexed": false,
          "internalType": "uint256",
          "name": "deactivatedEpoch",
          "type": "uint256"
        },
        {
          "indexed": false,
          "internalType": "uint256",
          "name": "deactivatedTime",
          "type": "uint256"
        }
      ],
      "name": "DeactivatedValidator",
      "type": "event"
    },
    {
      "anonymous": false,
      "inputs": [
        {
          "indexed": true,
          "internalType": "address",
          "name": "delegator",
          "type": "address"
        },
        {
          "indexed": true,
          "internalType": "uint256",
          "name": "toValidatorID",
          "type": "uint256"
        },
        {
          "indexed": false,
          "internalType": "uint256",
          "name": "amount",
          "type": "uint256"
        }
      ],
      "name": "Delegated",
      "type": "event"
    },
    {
      "anonymous": false,
      "inputs": [
        {
          "indexed": true,
          "internalType": "address",
          "name": "previousGovernance",
          "type": "address"
        },
        {
          "indexed": true,
          "internalType": "address",
          "name": "newGovernance",
          "type": "address"
        }
      ],
      "name": "GovernanceTransferred",
      "type": "event"
    },
    {
      "anonymous": false,
      "inputs": [
        {
          "indexed": true,
          "internalType": "address",
          "name": "previousAddress",
          "type": "address"
        },
        {
          "indexed": true,
          "internalType": "address",
          "name": "newAddress",
          "type": "address"
        }
      ],
      "name": "GovernanceUpdated",
      "type": "event"
    },
    {
      "anonymous": false,
      "inputs": [
        {
          "indexed": true,
          "internalType": "address",
          "name": "receiver",
          "type": "address"
        },
        {
          "indexed": false,
          "internalType": "uint256",
          "name": "amount",
          "type": "uint256"
        },
        {
          "indexed": false,
          "internalType": "string",
          "name": "justification",
          "type": "string"
        }
      ],
      "name": "InflatedFTM",
      "type": "event"
    },
    {
      "anonymous": false,
      "inputs": [
        {
          "indexed": true,
          "internalType": "address",
          "name": "delegator",
          "type": "address"
        },
        {
          "indexed": true,
          "internalType": "uint256",
          "name": "validatorID",
          "type": "uint256"
        },
        {
          "indexed": false,
          "internalType": "uint256",
          "name": "duration",
          "type": "uint256"
        },
        {
          "indexed": false,
          "internalType": "uint256",
          "name": "amount",
          "type": "uint256"
        }
      ],
      "name": "LockedUpStake",
      "type": "event"
    },
    {
      "anonymous": false,
      "inputs": [
        {
          "indexed": true,
          "internalType": "address",
          "name": "previousOwner",
          "type": "address"
        },
        {
          "indexed": true,
          "internalType": "address",
          "name": "newOwner",
          "type": "address"
        }
      ],
      "name": "OwnershipTransferred",
      "type": "event"
    },
    {
      "anonymous": false,
      "inputs": [
        {
          "indexed": true,
          "internalType": "address",
          "name": "delegator",
          "type": "address"
        },
        {
          "indexed": true,
          "internalType": "uint256",
          "name": "validatorID",
          "type": "uint256"
        },
        {
          "indexed": false,
          "internalType": "uint256",
          "name": "amount",
          "type": "uint256"
        }
      ],
      "name": "RefundedSlashedLegacyDelegation",
      "type": "event"
    },
    {
      "anonymous": false,
      "inputs": [
        {
          "indexed": true,
          "internalType": "address",
          "name": "delegator",
          "type": "address"
        },
        {
          "indexed": true,
          "internalType": "uint256",
          "name": "toValidatorID",
          "type": "uint256"
        },
        {
          "indexed": false,
          "internalType": "uint256",
          "name": "lockupExtraReward",
          "type": "uint256"
        },
        {
          "indexed": false,
          "internalType": "uint256",
          "name": "lockupBaseReward",
          "type": "uint256"
        },
        {
          "indexed": false,
          "internalType": "uint256",
          "name": "unlockedReward",
          "type": "uint256"
        }
      ],
      "name": "RestakedRewards",
      "type": "event"
    },
    {
      "anonymous": false,
      "inputs": [
        {
          "indexed": true,
          "internalType": "address",
          "name": "previousSecondaryOwner",
          "type": "address"
        },
        {
          "indexed": true,
          "internalType": "address",
          "name": "newSecondaryOwner",
          "type": "address"
        }
      ],
      "name": "SecondaryOwnershipTransferred",
      "type": "event"
    },
    {
      "anonymous": false,
      "inputs": [
        {
          "indexed": true,
          "internalType": "address",
          "name": "delegator",
          "type": "address"
        },
        {
          "indexed": true,
          "internalType": "uint256",
          "name": "toValidatorID",
          "type": "uint256"
        },
        {
          "indexed": true,
          "internalType": "uint256",
          "name": "wrID",
          "type": "uint256"
        },
        {
          "indexed": false,
          "internalType": "uint256",
          "name": "amount",
          "type": "uint256"
        }
      ],
      "name": "Undelegated",
      "type": "event"
    },
    {
      "anonymous": false,
      "inputs": [
        {
          "indexed": true,
          "internalType": "address",
          "name": "delegator",
          "type": "address"
        },
        {
          "indexed": true,
          "internalType": "uint256",
          "name": "validatorID",
          "type": "uint256"
        },
        {
          "indexed": false,
          "internalType": "uint256",
          "name": "amount",
          "type": "uint256"
        },
        {
          "indexed": false,
          "internalType": "uint256",
          "name": "penalty",
          "type": "uint256"
        }
      ],
      "name": "UnlockedStake",
      "type": "event"
    },
    {
      "anonymous": false,
      "inputs": [
        {
          "indexed": false,
          "internalType": "uint256",
          "name": "value",
          "type": "uint256"
        }
      ],
      "name": "UpdatedBaseRewardPerSec",
      "type": "event"
    },
    {
      "anonymous": false,
      "inputs": [
        {
          "indexed": false,
          "internalType": "uint256",
          "name": "contractCommission",
          "type": "uint256"
        }
      ],
      "name": "UpdatedContractCommission",
      "type": "event"
    },
    {
      "anonymous": false,
      "inputs": [
        {
          "indexed": false,
          "internalType": "uint256",
          "name": "maxDelegationRatio",
          "type": "uint256"
        }
      ],
      "name": "UpdatedMaxDelegationRatio",
      "type": "event"
    },
    {
      "anonymous": false,
      "inputs": [
        {
          "indexed": false,
          "internalType": "uint256",
          "name": "maxLockupDuration",
          "type": "uint256"
        }
      ],
      "name": "UpdatedMaxLockupDuration",
      "type": "event"
    },
    {
      "anonymous": false,
      "inputs": [
        {
          "indexed": false,
          "internalType": "uint256",
          "name": "minLockupDuration",
          "type": "uint256"
        }
      ],
      "name": "UpdatedMinLockupDuration",
      "type": "event"
    },
    {
      "anonymous": false,
      "inputs": [
        {
          "indexed": false,
          "internalType": "uint256",
          "name": "minSelfStake",
          "type": "uint256"
        }
      ],
      "name": "UpdatedMinSelfStake",
      "type": "event"
    },
    {
      "anonymous": false,
      "inputs": [
        {
          "indexed": false,
          "internalType": "uint256",
          "name": "blocksNum",
          "type": "uint256"
        },
        {
          "indexed": false,
          "internalType": "uint256",
          "name": "period",
          "type": "uint256"
        }
      ],
      "name": "UpdatedOfflinePenaltyThreshold",
      "type": "event"
    },
    {
      "anonymous": false,
      "inputs": [
        {
          "indexed": true,
          "internalType": "uint256",
          "name": "validatorID",
          "type": "uint256"
        },
        {
          "indexed": false,
          "internalType": "uint256",
          "name": "refundRatio",
          "type": "uint256"
        }
      ],
      "name": "UpdatedSlashingRefundRatio",
      "type": "event"
    },
    {
      "anonymous": false,
      "inputs": [
        {
          "indexed": false,
          "internalType": "uint256",
          "name": "unlockedRewardRatio",
          "type": "uint256"
        }
      ],
      "name": "UpdatedUnlockedRewardRatio",
      "type": "event"
    },
    {
      "anonymous": false,
      "inputs": [
        {
          "indexed": false,
          "internalType": "uint256",
          "name": "validatorCommission",
          "type": "uint256"
        }
      ],
      "name": "UpdatedValidatorCommission",
      "type": "event"
    },
    {
      "anonymous": false,
      "inputs": [
        {
          "indexed": false,
          "internalType": "uint256",
          "name": "Value",
          "type": "uint256"
        }
      ],
      "name": "UpdatedWithdrawalPeriodEpoch",
      "type": "event"
    },
    {
      "anonymous": false,
      "inputs": [
        {
          "indexed": false,
          "internalType": "uint256",
          "name": "withValuedrawalPeriodTime",
          "type": "uint256"
        }
      ],
      "name": "UpdatedWithdrawalPeriodTime",
      "type": "event"
    },
    {
      "anonymous": false,
      "inputs": [
        {
          "indexed": true,
          "internalType": "address",
          "name": "delegator",
          "type": "address"
        },
        {
          "indexed": true,
          "internalType": "uint256",
          "name": "toValidatorID",
          "type": "uint256"
        },
        {
          "indexed": true,
          "internalType": "uint256",
          "name": "wrID",
          "type": "uint256"
        },
        {
          "indexed": false,
          "internalType": "uint256",
          "name": "amount",
          "type": "uint256"
        }
      ],
      "name": "Withdrawn",
      "type": "event"
    },
    {
      "constant": false,
      "inputs": [
        {
          "internalType": "uint256",
          "name": "validatorID",
          "type": "uint256"
        },
        {
          "internalType": "bool",
          "name": "syncPubkey",
          "type": "bool"
        }
      ],
      "name": "_syncValidator",
      "outputs": [],
      "payable": false,
      "stateMutability": "nonpayable",
      "type": "function"
    },
    {
      "constant": true,
      "inputs": [],
      "name": "baseRewardPerSecond",
      "outputs": [
        {
          "internalType": "uint256",
          "name": "",
          "type": "uint256"
        }
      ],
      "payable": false,
      "stateMutability": "view",
      "type": "function"
    },
    {
      "constant": false,
      "inputs": [
        {
          "internalType": "uint256",
          "name": "toValidatorID",
          "type": "uint256"
        }
      ],
      "name": "claimRewards",
      "outputs": [],
      "payable": false,
      "stateMutability": "nonpayable",
      "type": "function"
    },
    {
      "constant": true,
      "inputs": [],
      "name": "contractCommission",
      "outputs": [
        {
          "internalType": "uint256",
          "name": "",
          "type": "uint256"
        }
      ],
      "payable": false,
      "stateMutability": "view",
      "type": "function"
    },
    {
      "constant": false,
      "inputs": [
        {
          "internalType": "bytes",
          "name": "pubkey",
          "type": "bytes"
        }
      ],
      "name": "createValidator",
      "outputs": [],
      "payable": true,
      "stateMutability": "payable",
      "type": "function"
    },
    {
      "constant": true,
      "inputs": [],
      "name": "currentEpoch",
      "outputs": [
        {
          "internalType": "uint256",
          "name": "",
          "type": "uint256"
        }
      ],
      "payable": false,
      "stateMutability": "view",
      "type": "function"
    },
    {
      "constant": true,
      "inputs": [],
      "name": "currentSealedEpoch",
      "outputs": [
        {
          "internalType": "uint256",
          "name": "",
          "type": "uint256"
        }
      ],
      "payable": false,
      "stateMutability": "view",
      "type": "function"
    },
    {
      "constant": false,
      "inputs": [
        {
          "internalType": "uint256",
          "name": "validatorID",
          "type": "uint256"
        },
        {
          "internalType": "uint256",
          "name": "status",
          "type": "uint256"
        }
      ],
      "name": "deactivateValidator",
      "outputs": [],
      "payable": false,
      "stateMutability": "nonpayable",
      "type": "function"
    },
    {
      "constant": false,
      "inputs": [
        {
          "internalType": "uint256",
          "name": "toValidatorID",
          "type": "uint256"
        }
      ],
      "name": "delegate",
      "outputs": [],
      "payable": true,
      "stateMutability": "payable",
      "type": "function"
    },
    {
      "constant": true,
      "inputs": [
        {
          "internalType": "uint256",
          "name": "epoch",
          "type": "uint256"
        },
        {
          "internalType": "uint256",
          "name": "validatorID",
          "type": "uint256"
        }
      ],
      "name": "getEpochAccumulatedOriginatedTxsFee",
      "outputs": [
        {
          "internalType": "uint256",
          "name": "",
          "type": "uint256"
        }
      ],
      "payable": false,
      "stateMutability": "view",
      "type": "function"
    },
    {
      "constant": true,
      "inputs": [
        {
          "internalType": "uint256",
          "name": "epoch",
          "type": "uint256"
        },
        {
          "internalType": "uint256",
          "name": "validatorID",
          "type": "uint256"
        }
      ],
      "name": "getEpochAccumulatedRewardPerToken",
      "outputs": [
        {
          "internalType": "uint256",
          "name": "",
          "type": "uint256"
        }
      ],
      "payable": false,
      "stateMutability": "view",
      "type": "function"
    },
    {
      "constant": true,
      "inputs": [
        {
          "internalType": "uint256",
          "name": "epoch",
          "type": "uint256"
        },
        {
          "internalType": "uint256",
          "name": "validatorID",
          "type": "uint256"
        }
      ],
      "name": "getEpochAccumulatedUptime",
      "outputs": [
        {
          "internalType": "uint256",
          "name": "",
          "type": "uint256"
        }
      ],
      "payable": false,
      "stateMutability": "view",
      "type": "function"
    },
    {
      "constant": true,
      "inputs": [
        {
          "internalType": "uint256",
          "name": "epoch",
          "type": "uint256"
        },
        {
          "internalType": "uint256",
          "name": "validatorID",
          "type": "uint256"
        }
      ],
      "name": "getEpochOfflineBlocks",
      "outputs": [
        {
          "internalType": "uint256",
          "name": "",
          "type": "uint256"
        }
      ],
      "payable": false,
      "stateMutability": "view",
      "type": "function"
    },
    {
      "constant": true,
      "inputs": [
        {
          "internalType": "uint256",
          "name": "epoch",
          "type": "uint256"
        },
        {
          "internalType": "uint256",
          "name": "validatorID",
          "type": "uint256"
        }
      ],
      "name": "getEpochOfflineTime",
      "outputs": [
        {
          "internalType": "uint256",
          "name": "",
          "type": "uint256"
        }
      ],
      "payable": false,
      "stateMutability": "view",
      "type": "function"
    },
    {
      "constant": true,
      "inputs": [
        {
          "internalType": "uint256",
          "name": "epoch",
          "type": "uint256"
        },
        {
          "internalType": "uint256",
          "name": "validatorID",
          "type": "uint256"
        }
      ],
      "name": "getEpochReceivedStake",
      "outputs": [
        {
          "internalType": "uint256",
          "name": "",
          "type": "uint256"
        }
      ],
      "payable": false,
      "stateMutability": "view",
      "type": "function"
    },
    {
      "constant": true,
      "inputs": [
        {
          "internalType": "uint256",
          "name": "",
          "type": "uint256"
        }
      ],
      "name": "getEpochSnapshot",
      "outputs": [
        {
          "internalType": "uint256",
          "name": "endTime",
          "type": "uint256"
        },
        {
          "internalType": "uint256",
          "name": "epochFee",
          "type": "uint256"
        },
        {
          "internalType": "uint256",
          "name": "totalBaseRewardWeight",
          "type": "uint256"
        },
        {
          "internalType": "uint256",
          "name": "totalTxRewardWeight",
          "type": "uint256"
        },
        {
          "internalType": "uint256",
          "name": "baseRewardPerSecond",
          "type": "uint256"
        },
        {
          "internalType": "uint256",
          "name": "totalStake",
          "type": "uint256"
        },
        {
          "internalType": "uint256",
          "name": "totalSupply",
          "type": "uint256"
        }
      ],
      "payable": false,
      "stateMutability": "view",
      "type": "function"
    },
    {
      "constant": true,
      "inputs": [
        {
          "internalType": "uint256",
          "name": "epoch",
          "type": "uint256"
        }
      ],
      "name": "getEpochValidatorIDs",
      "outputs": [
        {
          "internalType": "uint256[]",
          "name": "",
          "type": "uint256[]"
        }
      ],
      "payable": false,
      "stateMutability": "view",
      "type": "function"
    },
    {
      "constant": true,
      "inputs": [],
      "name": "getGovernance",
      "outputs": [
        {
          "internalType": "address",
          "name": "",
          "type": "address"
        }
      ],
      "payable": false,
      "stateMutability": "view",
      "type": "function"
    },
    {
      "constant": true,
      "inputs": [
        {
          "internalType": "address",
          "name": "delegator",
          "type": "address"
        },
        {
          "internalType": "uint256",
          "name": "toValidatorID",
          "type": "uint256"
        }
      ],
      "name": "getLockedStake",
      "outputs": [
        {
          "internalType": "uint256",
          "name": "",
          "type": "uint256"
        }
      ],
      "payable": false,
      "stateMutability": "view",
      "type": "function"
    },
    {
      "constant": true,
      "inputs": [
        {
          "internalType": "address",
          "name": "",
          "type": "address"
        },
        {
          "internalType": "uint256",
          "name": "",
          "type": "uint256"
        }
      ],
      "name": "getLockupInfo",
      "outputs": [
        {
          "internalType": "uint256",
          "name": "lockedStake",
          "type": "uint256"
        },
        {
          "internalType": "uint256",
          "name": "fromEpoch",
          "type": "uint256"
        },
        {
          "internalType": "uint256",
          "name": "endTime",
          "type": "uint256"
        },
        {
          "internalType": "uint256",
          "name": "duration",
          "type": "uint256"
        }
      ],
      "payable": false,
      "stateMutability": "view",
      "type": "function"
    },
    {
      "constant": true,
      "inputs": [
        {
          "internalType": "uint256",
          "name": "validatorID",
          "type": "uint256"
        }
      ],
      "name": "getSelfStake",
      "outputs": [
        {
          "internalType": "uint256",
          "name": "",
          "type": "uint256"
        }
      ],
      "payable": false,
      "stateMutability": "view",
      "type": "function"
    },
    {
      "constant": true,
      "inputs": [
        {
          "internalType": "address",
          "name": "",
          "type": "address"
        },
        {
          "internalType": "uint256",
          "name": "",
          "type": "uint256"
        }
      ],
      "name": "getStake",
      "outputs": [
        {
          "internalType": "uint256",
          "name": "",
          "type": "uint256"
        }
      ],
      "payable": false,
      "stateMutability": "view",
      "type": "function"
    },
    {
      "constant": true,
      "inputs": [
        {
          "internalType": "address",
          "name": "",
          "type": "address"
        },
        {
          "internalType": "uint256",
          "name": "",
          "type": "uint256"
        }
      ],
      "name": "getStashedLockupRewards",
      "outputs": [
        {
          "internalType": "uint256",
          "name": "lockupExtraReward",
          "type": "uint256"
        },
        {
          "internalType": "uint256",
          "name": "lockupBaseReward",
          "type": "uint256"
        },
        {
          "internalType": "uint256",
          "name": "unlockedReward",
          "type": "uint256"
        }
      ],
      "payable": false,
      "stateMutability": "view",
      "type": "function"
    },
    {
      "constant": true,
      "inputs": [
        {
          "internalType": "address",
          "name": "delegator",
          "type": "address"
        },
        {
          "internalType": "uint256",
          "name": "toValidatorID",
          "type": "uint256"
        }
      ],
      "name": "getUnlockedStake",
      "outputs": [
        {
          "internalType": "uint256",
          "name": "",
          "type": "uint256"
        }
      ],
      "payable": false,
      "stateMutability": "view",
      "type": "function"
    },
    {
      "constant": true,
      "inputs": [
        {
          "internalType": "uint256",
          "name": "",
          "type": "uint256"
        }
      ],
      "name": "getValidator",
      "outputs": [
        {
          "internalType": "uint256",
          "name": "status",
          "type": "uint256"
        },
        {
          "internalType": "uint256",
          "name": "deactivatedTime",
          "type": "uint256"
        },
        {
          "internalType": "uint256",
          "name": "deactivatedEpoch",
          "type": "uint256"
        },
        {
          "internalType": "uint256",
          "name": "receivedStake",
          "type": "uint256"
        },
        {
          "internalType": "uint256",
          "name": "createdEpoch",
          "type": "uint256"
        },
        {
          "internalType": "uint256",
          "name": "createdTime",
          "type": "uint256"
        },
        {
          "internalType": "address",
          "name": "auth",
          "type": "address"
        }
      ],
      "payable": false,
      "stateMutability": "view",
      "type": "function"
    },
    {
      "constant": true,
      "inputs": [
        {
          "internalType": "address",
          "name": "",
          "type": "address"
        }
      ],
      "name": "getValidatorID",
      "outputs": [
        {
          "internalType": "uint256",
          "name": "",
          "type": "uint256"
        }
      ],
      "payable": false,
      "stateMutability": "view",
      "type": "function"
    },
    {
      "constant": true,
      "inputs": [
        {
          "internalType": "uint256",
          "name": "",
          "type": "uint256"
        }
      ],
      "name": "getValidatorPubkey",
      "outputs": [
        {
          "internalType": "bytes",
          "name": "",
          "type": "bytes"
        }
      ],
      "payable": false,
      "stateMutability": "view",
      "type": "function"
    },
    {
      "constant": true,
      "inputs": [
        {
          "internalType": "address",
          "name": "",
          "type": "address"
        },
        {
          "internalType": "uint256",
          "name": "",
          "type": "uint256"
        },
        {
          "internalType": "uint256",
          "name": "",
          "type": "uint256"
        }
      ],
      "name": "getWithdrawalRequest",
      "outputs": [
        {
          "internalType": "uint256",
          "name": "epoch",
          "type": "uint256"
        },
        {
          "internalType": "uint256",
          "name": "time",
          "type": "uint256"
        },
        {
          "internalType": "uint256",
          "name": "amount",
          "type": "uint256"
        }
      ],
      "payable": false,
      "stateMutability": "view",
      "type": "function"
    },
    {
      "constant": true,
      "inputs": [],
      "name": "gov",
      "outputs": [
        {
          "internalType": "contract Gov",
          "name": "",
          "type": "address"
        }
      ],
      "payable": false,
      "stateMutability": "view",
      "type": "function"
    },
    {
      "constant": true,
      "inputs": [],
      "name": "governance",
      "outputs": [
        {
          "internalType": "address",
          "name": "",
          "type": "address"
        }
      ],
      "payable": false,
      "stateMutability": "view",
      "type": "function"
    },
    {
      "constant": false,
      "inputs": [
        {
          "internalType": "uint256",
          "name": "sealedEpoch",
          "type": "uint256"
        },
        {
          "internalType": "uint256",
          "name": "_totalSupply",
          "type": "uint256"
        },
        {
          "internalType": "address",
          "name": "nodeDriver",
          "type": "address"
        },
        {
          "internalType": "address",
          "name": "owner",
          "type": "address"
        },
        {
          "internalType": "address",
          "name": "governance",
          "type": "address"
        }
      ],
      "name": "initialize",
      "outputs": [],
      "payable": false,
      "stateMutability": "nonpayable",
      "type": "function"
    },
    {
      "constant": true,
      "inputs": [],
      "name": "isGovernance",
      "outputs": [
        {
          "internalType": "bool",
          "name": "",
          "type": "bool"
        }
      ],
      "payable": false,
      "stateMutability": "view",
      "type": "function"
    },
    {
      "constant": true,
      "inputs": [
        {
          "internalType": "address",
          "name": "delegator",
          "type": "address"
        },
        {
          "internalType": "uint256",
          "name": "toValidatorID",
          "type": "uint256"
        }
      ],
      "name": "isLockedUp",
      "outputs": [
        {
          "internalType": "bool",
          "name": "",
          "type": "bool"
        }
      ],
      "payable": false,
      "stateMutability": "view",
      "type": "function"
    },
    {
      "constant": true,
      "inputs": [],
      "name": "isOwner",
      "outputs": [
        {
          "internalType": "bool",
          "name": "",
          "type": "bool"
        }
      ],
      "payable": false,
      "stateMutability": "view",
      "type": "function"
    },
    {
      "constant": true,
      "inputs": [],
      "name": "isSecondaryOwner",
      "outputs": [
        {
          "internalType": "bool",
          "name": "",
          "type": "bool"
        }
      ],
      "payable": false,
      "stateMutability": "view",
      "type": "function"
    },
    {
      "constant": true,
      "inputs": [
        {
          "internalType": "uint256",
          "name": "validatorID",
          "type": "uint256"
        }
      ],
      "name": "isSlashed",
      "outputs": [
        {
          "internalType": "bool",
          "name": "",
          "type": "bool"
        }
      ],
      "payable": false,
      "stateMutability": "view",
      "type": "function"
    },
    {
      "constant": true,
      "inputs": [],
      "name": "lastValidatorID",
      "outputs": [
        {
          "internalType": "uint256",
          "name": "",
          "type": "uint256"
        }
      ],
      "payable": false,
      "stateMutability": "view",
      "type": "function"
    },
    {
      "constant": false,
      "inputs": [
        {
          "internalType": "uint256",
          "name": "toValidatorID",
          "type": "uint256"
        },
        {
          "internalType": "uint256",
          "name": "lockupDuration",
          "type": "uint256"
        },
        {
          "internalType": "uint256",
          "name": "amount",
          "type": "uint256"
        }
      ],
      "name": "lockStake",
      "outputs": [],
      "payable": false,
      "stateMutability": "nonpayable",
      "type": "function"
    },
    {
      "constant": true,
      "inputs": [],
      "name": "maxDelegatedRatio",
      "outputs": [
        {
          "internalType": "uint256",
          "name": "",
          "type": "uint256"
        }
      ],
      "payable": false,
      "stateMutability": "view",
      "type": "function"
    },
    {
      "constant": true,
      "inputs": [],
      "name": "maxLockupDuration",
      "outputs": [
        {
          "internalType": "uint256",
          "name": "",
          "type": "uint256"
        }
      ],
      "payable": false,
      "stateMutability": "view",
      "type": "function"
    },
    {
      "constant": true,
      "inputs": [],
      "name": "minLockupDuration",
      "outputs": [
        {
          "internalType": "uint256",
          "name": "",
          "type": "uint256"
        }
      ],
      "payable": false,
      "stateMutability": "view",
      "type": "function"
    },
    {
      "constant": true,
      "inputs": [],
      "name": "minSelfStake",
      "outputs": [
        {
          "internalType": "uint256",
          "name": "",
          "type": "uint256"
        }
      ],
      "payable": false,
      "stateMutability": "view",
      "type": "function"
    },
    {
      "constant": false,
      "inputs": [
        {
          "internalType": "address payable",
          "name": "receiver",
          "type": "address"
        },
        {
          "internalType": "uint256",
          "name": "amount",
          "type": "uint256"
        },
        {
          "internalType": "string",
          "name": "justification",
          "type": "string"
        }
      ],
      "name": "mintFTM",
      "outputs": [],
      "payable": false,
      "stateMutability": "nonpayable",
      "type": "function"
    },
    {
      "constant": true,
      "inputs": [],
      "name": "offlinePenaltyThreshold",
      "outputs": [
        {
          "internalType": "uint256",
          "name": "blocksNum",
          "type": "uint256"
        },
        {
          "internalType": "uint256",
          "name": "time",
          "type": "uint256"
        }
      ],
      "payable": false,
      "stateMutability": "view",
      "type": "function"
    },
    {
      "constant": true,
      "inputs": [],
      "name": "owner",
      "outputs": [
        {
          "internalType": "address",
          "name": "",
          "type": "address"
        }
      ],
      "payable": false,
      "stateMutability": "view",
      "type": "function"
    },
    {
      "constant": true,
      "inputs": [
        {
          "internalType": "address",
          "name": "delegator",
          "type": "address"
        },
        {
          "internalType": "uint256",
          "name": "toValidatorID",
          "type": "uint256"
        }
      ],
      "name": "pendingRewards",
      "outputs": [
        {
          "internalType": "uint256",
          "name": "",
          "type": "uint256"
        }
      ],
      "payable": false,
      "stateMutability": "view",
      "type": "function"
    },
    {
      "constant": false,
      "inputs": [
        {
          "internalType": "uint256",
          "name": "toValidatorID",
          "type": "uint256"
        },
        {
          "internalType": "uint256",
          "name": "lockupDuration",
          "type": "uint256"
        },
        {
          "internalType": "uint256",
          "name": "amount",
          "type": "uint256"
        }
      ],
      "name": "relockStake",
      "outputs": [],
      "payable": false,
      "stateMutability": "nonpayable",
      "type": "function"
    },
    {
      "constant": false,
      "inputs": [],
      "name": "renounceOwnership",
      "outputs": [],
      "payable": false,
      "stateMutability": "nonpayable",
      "type": "function"
    },
    {
      "constant": false,
      "inputs": [
        {
          "internalType": "uint256",
          "name": "toValidatorID",
          "type": "uint256"
        }
      ],
      "name": "restakeRewards",
      "outputs": [],
      "payable": false,
      "stateMutability": "nonpayable",
      "type": "function"
    },
    {
      "constant": true,
      "inputs": [
        {
          "internalType": "address",
          "name": "delegator",
          "type": "address"
        },
        {
          "internalType": "uint256",
          "name": "validatorID",
          "type": "uint256"
        }
      ],
      "name": "rewardsStash",
      "outputs": [
        {
          "internalType": "uint256",
          "name": "",
          "type": "uint256"
        }
      ],
      "payable": false,
      "stateMutability": "view",
      "type": "function"
    },
    {
      "constant": false,
      "inputs": [
        {
          "internalType": "uint256[]",
          "name": "offlineTime",
          "type": "uint256[]"
        },
        {
          "internalType": "uint256[]",
          "name": "offlineBlocks",
          "type": "uint256[]"
        },
        {
          "internalType": "uint256[]",
          "name": "uptimes",
          "type": "uint256[]"
        },
        {
          "internalType": "uint256[]",
          "name": "originatedTxsFee",
          "type": "uint256[]"
        }
      ],
      "name": "sealEpoch",
      "outputs": [],
      "payable": false,
      "stateMutability": "nonpayable",
      "type": "function"
    },
    {
      "constant": false,
      "inputs": [
        {
          "internalType": "uint256[]",
          "name": "nextValidatorIDs",
          "type": "uint256[]"
        }
      ],
      "name": "sealEpochValidators",
      "outputs": [],
      "payable": false,
      "stateMutability": "nonpayable",
      "type": "function"
    },
    {
      "constant": true,
      "inputs": [],
      "name": "secondaryOwner",
      "outputs": [
        {
          "internalType": "address",
          "name": "",
          "type": "address"
        }
      ],
      "payable": false,
      "stateMutability": "view",
      "type": "function"
    },
    {
      "constant": false,
      "inputs": [
        {
          "internalType": "uint256",
          "name": "_contractCommission",
          "type": "uint256"
        }
      ],
      "name": "setContractCommission",
      "outputs": [],
      "payable": false,
      "stateMutability": "nonpayable",
      "type": "function"
    },
    {
      "constant": false,
      "inputs": [
        {
          "internalType": "address",
          "name": "delegator",
          "type": "address"
        },
        {
          "internalType": "uint256",
          "name": "toValidatorID",
          "type": "uint256"
        },
        {
          "internalType": "uint256",
          "name": "stake",
          "type": "uint256"
        },
        {
          "internalType": "uint256",
          "name": "lockedStake",
          "type": "uint256"
        },
        {
          "internalType": "uint256",
          "name": "lockupFromEpoch",
          "type": "uint256"
        },
        {
          "internalType": "uint256",
          "name": "lockupEndTime",
          "type": "uint256"
        },
        {
          "internalType": "uint256",
          "name": "lockupDuration",
          "type": "uint256"
        },
        {
          "internalType": "uint256",
          "name": "earlyUnlockPenalty",
          "type": "uint256"
        },
        {
          "internalType": "uint256",
          "name": "rewards",
          "type": "uint256"
        }
      ],
      "name": "setGenesisDelegation",
      "outputs": [],
      "payable": false,
      "stateMutability": "nonpayable",
      "type": "function"
    },
    {
      "constant": false,
      "inputs": [
        {
          "internalType": "address",
          "name": "auth",
          "type": "address"
        },
        {
          "internalType": "uint256",
          "name": "validatorID",
          "type": "uint256"
        },
        {
          "internalType": "bytes",
          "name": "pubkey",
          "type": "bytes"
        },
        {
          "internalType": "uint256",
          "name": "status",
          "type": "uint256"
        },
        {
          "internalType": "uint256",
          "name": "createdEpoch",
          "type": "uint256"
        },
        {
          "internalType": "uint256",
          "name": "createdTime",
          "type": "uint256"
        },
        {
          "internalType": "uint256",
          "name": "deactivatedEpoch",
          "type": "uint256"
        },
        {
          "internalType": "uint256",
          "name": "deactivatedTime",
          "type": "uint256"
        }
      ],
      "name": "setGenesisValidator",
      "outputs": [],
      "payable": false,
      "stateMutability": "nonpayable",
      "type": "function"
    },
    {
      "constant": false,
      "inputs": [
        {
          "internalType": "uint256",
          "name": "_maxDelegationRatio",
          "type": "uint256"
        }
      ],
      "name": "setMaxDelegation",
      "outputs": [],
      "payable": false,
      "stateMutability": "nonpayable",
      "type": "function"
    },
    {
      "constant": false,
      "inputs": [
        {
          "internalType": "uint256",
          "name": "_maxLockupDuration",
          "type": "uint256"
        }
      ],
      "name": "setMaxLockupDuration",
      "outputs": [],
      "payable": false,
      "stateMutability": "nonpayable",
      "type": "function"
    },
    {
      "constant": false,
      "inputs": [
        {
          "internalType": "uint256",
          "name": "_minLockupDuration",
          "type": "uint256"
        }
      ],
      "name": "setMinLockupDuration",
      "outputs": [],
      "payable": false,
      "stateMutability": "nonpayable",
      "type": "function"
    },
    {
      "constant": false,
      "inputs": [
        {
          "internalType": "uint256",
          "name": "_minSelfStake",
          "type": "uint256"
        }
      ],
      "name": "setMinSelfStake",
      "outputs": [],
      "payable": false,
      "stateMutability": "nonpayable",
      "type": "function"
    },
    {
      "constant": false,
      "inputs": [
        {
          "internalType": "uint256",
          "name": "_unlockedReward",
          "type": "uint256"
        }
      ],
      "name": "setUnlockedRewardRatio",
      "outputs": [],
      "payable": false,
      "stateMutability": "nonpayable",
      "type": "function"
    },
    {
      "constant": false,
      "inputs": [
        {
          "internalType": "uint256",
          "name": "_validatorCommission",
          "type": "uint256"
        }
      ],
      "name": "setValidatorCommission",
      "outputs": [],
      "payable": false,
      "stateMutability": "nonpayable",
      "type": "function"
    },
    {
      "constant": false,
      "inputs": [
        {
          "internalType": "uint256",
          "name": "_withdrawalPeriodEpochs",
          "type": "uint256"
        }
      ],
      "name": "setWithdrawalPeriodEpoch",
      "outputs": [],
      "payable": false,
      "stateMutability": "nonpayable",
      "type": "function"
    },
    {
      "constant": false,
      "inputs": [
        {
          "internalType": "uint256",
          "name": "_withdrawalPeriodTime",
          "type": "uint256"
        }
      ],
      "name": "setWithdrawalPeriodTime",
      "outputs": [],
      "payable": false,
      "stateMutability": "nonpayable",
      "type": "function"
    },
    {
      "constant": true,
      "inputs": [
        {
          "internalType": "uint256",
          "name": "",
          "type": "uint256"
        }
      ],
      "name": "slashingRefundRatio",
      "outputs": [
        {
          "internalType": "uint256",
          "name": "",
          "type": "uint256"
        }
      ],
      "payable": false,
      "stateMutability": "view",
      "type": "function"
    },
    {
      "constant": true,
      "inputs": [],
      "name": "stakeTokenizerAddress",
      "outputs": [
        {
          "internalType": "address",
          "name": "",
          "type": "address"
        }
      ],
      "payable": false,
      "stateMutability": "view",
      "type": "function"
    },
    {
      "constant": false,
      "inputs": [
        {
          "internalType": "address",
          "name": "delegator",
          "type": "address"
        },
        {
          "internalType": "uint256",
          "name": "toValidatorID",
          "type": "uint256"
        }
      ],
      "name": "stashRewards",
      "outputs": [],
      "payable": false,
      "stateMutability": "nonpayable",
      "type": "function"
    },
    {
      "constant": true,
      "inputs": [
        {
          "internalType": "address",
          "name": "",
          "type": "address"
        },
        {
          "internalType": "uint256",
          "name": "",
          "type": "uint256"
        }
      ],
      "name": "stashedRewardsUntilEpoch",
      "outputs": [
        {
          "internalType": "uint256",
          "name": "",
          "type": "uint256"
        }
      ],
      "payable": false,
      "stateMutability": "view",
      "type": "function"
    },
    {
      "constant": true,
      "inputs": [],
      "name": "totalActiveStake",
      "outputs": [
        {
          "internalType": "uint256",
          "name": "",
          "type": "uint256"
        }
      ],
      "payable": false,
      "stateMutability": "view",
      "type": "function"
    },
    {
      "constant": true,
      "inputs": [],
      "name": "totalSlashedStake",
      "outputs": [
        {
          "internalType": "uint256",
          "name": "",
          "type": "uint256"
        }
      ],
      "payable": false,
      "stateMutability": "view",
      "type": "function"
    },
    {
      "constant": true,
      "inputs": [],
      "name": "totalStake",
      "outputs": [
        {
          "internalType": "uint256",
          "name": "",
          "type": "uint256"
        }
      ],
      "payable": false,
      "stateMutability": "view",
      "type": "function"
    },
    {
      "constant": true,
      "inputs": [],
      "name": "totalSupply",
      "outputs": [
        {
          "internalType": "uint256",
          "name": "",
          "type": "uint256"
        }
      ],
      "payable": false,
      "stateMutability": "view",
      "type": "function"
    },
    {
      "constant": false,
      "inputs": [
        {
          "internalType": "address",
          "name": "newGovernance",
          "type": "address"
        }
      ],
      "name": "transferGovernance",
      "outputs": [],
      "payable": false,
      "stateMutability": "nonpayable",
      "type": "function"
    },
    {
      "constant": false,
      "inputs": [
        {
          "internalType": "address",
          "name": "newOwner",
          "type": "address"
        }
      ],
      "name": "transferOwnership",
      "outputs": [],
      "payable": false,
      "stateMutability": "nonpayable",
      "type": "function"
    },
    {
      "constant": false,
      "inputs": [
        {
          "internalType": "address",
          "name": "newSecondaryOwner",
          "type": "address"
        }
      ],
      "name": "transferSecondaryOwnership",
      "outputs": [],
      "payable": false,
      "stateMutability": "nonpayable",
      "type": "function"
    },
    {
      "constant": false,
      "inputs": [
        {
          "internalType": "uint256",
          "name": "toValidatorID",
          "type": "uint256"
        },
        {
          "internalType": "uint256",
          "name": "wrID",
          "type": "uint256"
        },
        {
          "internalType": "uint256",
          "name": "amount",
          "type": "uint256"
        }
      ],
      "name": "undelegate",
      "outputs": [],
      "payable": false,
      "stateMutability": "nonpayable",
      "type": "function"
    },
    {
      "constant": false,
      "inputs": [
        {
          "internalType": "uint256",
          "name": "toValidatorID",
          "type": "uint256"
        },
        {
          "internalType": "uint256",
          "name": "amount",
          "type": "uint256"
        }
      ],
      "name": "unlockStake",
      "outputs": [
        {
          "internalType": "uint256",
          "name": "",
          "type": "uint256"
        }
      ],
      "payable": false,
      "stateMutability": "nonpayable",
      "type": "function"
    },
    {
      "constant": true,
      "inputs": [],
      "name": "unlockedRewardRatio",
      "outputs": [
        {
          "internalType": "uint256",
          "name": "",
          "type": "uint256"
        }
      ],
      "payable": false,
      "stateMutability": "view",
      "type": "function"
    },
    {
      "constant": false,
      "inputs": [
        {
          "internalType": "uint256",
          "name": "value",
          "type": "uint256"
        }
      ],
      "name": "updateBaseRewardPerSecond",
      "outputs": [],
      "payable": false,
      "stateMutability": "nonpayable",
      "type": "function"
    },
    {
      "constant": false,
      "inputs": [
        {
          "internalType": "address",
          "name": "_governance",
          "type": "address"
        }
      ],
      "name": "updateGovernanceContract",
      "outputs": [],
      "payable": false,
      "stateMutability": "nonpayable",
      "type": "function"
    },
    {
      "constant": false,
      "inputs": [
        {
          "internalType": "uint256",
          "name": "blocksNum",
          "type": "uint256"
        },
        {
          "internalType": "uint256",
          "name": "time",
          "type": "uint256"
        }
      ],
      "name": "updateOfflinePenaltyThreshold",
      "outputs": [],
      "payable": false,
      "stateMutability": "nonpayable",
      "type": "function"
    },
    {
      "constant": false,
      "inputs": [
        {
          "internalType": "uint256",
          "name": "validatorID",
          "type": "uint256"
        },
        {
          "internalType": "uint256",
          "name": "refundRatio",
          "type": "uint256"
        }
      ],
      "name": "updateSlashingRefundRatio",
      "outputs": [],
      "payable": false,
      "stateMutability": "nonpayable",
      "type": "function"
    },
    {
      "constant": false,
      "inputs": [
        {
          "internalType": "address",
          "name": "addr",
          "type": "address"
        }
      ],
      "name": "updateStakeTokenizerAddress",
      "outputs": [],
      "payable": false,
      "stateMutability": "nonpayable",
      "type": "function"
    },
    {
      "constant": false,
      "inputs": [
        {
          "internalType": "int256",
          "name": "diff",
          "type": "int256"
        }
      ],
      "name": "updateTotalSupply",
      "outputs": [],
      "payable": false,
      "stateMutability": "nonpayable",
      "type": "function"
    },
    {
      "constant": true,
      "inputs": [],
      "name": "validatorCommission",
      "outputs": [
        {
          "internalType": "uint256",
          "name": "",
          "type": "uint256"
        }
      ],
      "payable": false,
      "stateMutability": "view",
      "type": "function"
    },
    {
      "constant": true,
      "inputs": [],
      "name": "version",
      "outputs": [
        {
          "internalType": "bytes3",
          "name": "",
          "type": "bytes3"
        }
      ],
      "payable": false,
      "stateMutability": "pure",
      "type": "function"
    },
    {
      "constant": false,
      "inputs": [
        {
          "internalType": "uint256",
          "name": "toValidatorID",
          "type": "uint256"
        },
        {
          "internalType": "uint256",
          "name": "wrID",
          "type": "uint256"
        }
      ],
      "name": "withdraw",
      "outputs": [],
      "payable": false,
      "stateMutability": "nonpayable",
      "type": "function"
    },
    {
      "constant": true,
      "inputs": [],
      "name": "withdrawalPeriodEpochs",
      "outputs": [
        {
          "internalType": "uint256",
          "name": "",
          "type": "uint256"
        }
      ],
      "payable": false,
      "stateMutability": "view",
      "type": "function"
    },
    {
      "constant": true,
      "inputs": [],
      "name": "withdrawalPeriodTime",
      "outputs": [
        {
          "internalType": "uint256",
          "name": "",
          "type": "uint256"
        }
      ],
      "payable": false,
      "stateMutability": "view",
      "type": "function"
    }
  ],
  "bytecode": "0x608060405234801561001057600080fd5b5061675280620000216000396000f3fe6080604052600436106104d65760003560e01c80637667180811610281578063bd14d9071161015a578063d9a7c1f9116100cc578063e261641a11610085578063e261641a146114bd578063e2f8c336146114ed578063e4af78be1461157d578063ebdf104c146115a7578063f2fde38b14611712578063f78bf11014611745576104d6565b8063d9a7c1f914611382578063db3a4bc614611397578063dc31e1af146113ac578063de67f215146113dc578063df00c92214611412578063e08d7e6614611442576104d6565b8063cc8343aa1161011e578063cc8343aa14611257578063cefe9c1814611289578063cfd47663146112b3578063cfdbb7cd146112ec578063d38bfff414611325578063d75629cf14611358576104d6565b8063bd14d907146111a3578063c3de580e146111d9578063c5f530af14611203578063c65ee0e114611218578063c7be95de14611242576104d6565b8063a2f6e6bc116101f3578063b5d89627116101b7578063b5d8962714611031578063b6d9edd51461109c578063b810e411146110c6578063b82b8427146110ff578063b88a37e214611114578063bc4a3cc01461118e576104d6565b8063a2f6e6bc14610f18578063a5a470ad14610f4b578063a778651514610fb9578063a86a056f14610fce578063ad9a4b5c14611007576104d6565b80638cddb015116102455780638cddb01514610df55780638da5cb5b14610e2e5780638f32d59b14610e4357806396c7ee4614610e6c5780639fa6dd3514610ecb578063a198d22914610ee8576104d6565b80637667180814610ce75780637cacb1d614610cfc578063854873e114610d115780638b0e9f3f14610db05780638b1a0d1114610dc5576104d6565b806339b80c00116103b35780635e2308d211610325578063650acd66116102e9578063650acd6614610bee578063670322f814610c035780636ca6d6bc14610c3c5780636f49866314610c665780636faf60a014610c9f578063715018a614610cd2576104d6565b80635e2308d214610b285780635fab23a814610b3d5780636099ecb214610b5257806361e53fcc14610b8b57806363bafc5614610bbb576104d6565b80634f864df4116103775780634f864df4146109a85780634feb92f3146109de57806354fd4d5014610a875780635601fe0114610ab957806358f95b8014610ae35780635aa6e67514610b13576104d6565b806339b80c001461086b5780633fbfd4df146108cd5780634055f2731461091e578063441a3e70146109485780634f7c4efb14610978576104d6565b80631d3ac42c1161044c578063289b3c0d11610410578063289b3c0d146107aa57806328f73148146107bf5780632cedb097146107d45780632d2646ed14610802578063346bdcfb1461082c57806336a5a23114610856576104d6565b80631d3ac42c146106c35780631e702f83146106f35780631f270152146107235780632265f284146107805780632709275e14610795576104d6565b80630d7b26091161049e5780630d7b2609146105b55780630e559d82146105ca57806312622d0e146105fb57806312d43a511461063457806318160ddd1461064957806318f628d41461065e576104d6565b80630135b1db146104db57806303c91ccd1461052057806308c368741461054c5780630962ef79146105765780630d4955e3146105a0575b600080fd5b3480156104e757600080fd5b5061050e600480360360208110156104fe57600080fd5b50356001600160a01b031661176f565b60408051918252519081900360200190f35b34801561052c57600080fd5b5061054a6004803603602081101561054357600080fd5b5035611781565b005b34801561055857600080fd5b5061054a6004803603602081101561056f57600080fd5b5035611822565b34801561058257600080fd5b5061054a6004803603602081101561059957600080fd5b50356118ee565b3480156105ac57600080fd5b5061050e611a2e565b3480156105c157600080fd5b5061050e611a39565b3480156105d657600080fd5b506105df611a42565b604080516001600160a01b039092168252519081900360200190f35b34801561060757600080fd5b5061050e6004803603604081101561061e57600080fd5b506001600160a01b038135169060200135611a51565b34801561064057600080fd5b506105df611ada565b34801561065557600080fd5b5061050e611ae9565b34801561066a57600080fd5b5061054a600480360361012081101561068257600080fd5b506001600160a01b038135169060208101359060408101359060608101359060808101359060a08101359060c08101359060e0810135906101000135611aef565b3480156106cf57600080fd5b5061050e600480360360408110156106e657600080fd5b5080359060200135611c4f565b3480156106ff57600080fd5b5061054a6004803603604081101561071657600080fd5b5080359060200135611e27565b34801561072f57600080fd5b506107626004803603606081101561074657600080fd5b506001600160a01b038135169060208101359060400135611ec5565b60408051938452602084019290925282820152519081900360600190f35b34801561078c57600080fd5b5061050e611ef7565b3480156107a157600080fd5b5061050e611f0a565b3480156107b657600080fd5b506105df611f27565b3480156107cb57600080fd5b5061050e611f36565b3480156107e057600080fd5b506107e9611f3c565b6040805192835260208301919091528051918290030190f35b34801561080e57600080fd5b5061054a6004803603602081101561082557600080fd5b5035611f46565b34801561083857600080fd5b5061054a6004803603602081101561084f57600080fd5b5035611fa0565b34801561086257600080fd5b506105df61200c565b34801561087757600080fd5b506108956004803603602081101561088e57600080fd5b503561201b565b604080519788526020880196909652868601949094526060860192909252608085015260a084015260c0830152519081900360e00190f35b3480156108d957600080fd5b5061054a600480360360a08110156108f057600080fd5b508035906020810135906001600160a01b03604082013581169160608101358216916080909101351661205d565b34801561092a57600080fd5b5061054a6004803603602081101561094157600080fd5b5035612178565b34801561095457600080fd5b5061054a6004803603604081101561096b57600080fd5b50803590602001356121d2565b34801561098457600080fd5b5061054a6004803603604081101561099b57600080fd5b50803590602001356125cf565b3480156109b457600080fd5b5061054a600480360360608110156109cb57600080fd5b5080359060208101359060400135612701565b3480156109ea57600080fd5b5061054a6004803603610100811015610a0257600080fd5b6001600160a01b0382351691602081013591810190606081016040820135600160201b811115610a3157600080fd5b820183602082011115610a4357600080fd5b803590602001918460018302840111600160201b83111715610a6457600080fd5b919350915080359060208101359060408101359060608101359060800135612979565b348015610a9357600080fd5b50610a9c612a1f565b604080516001600160e81b03199092168252519081900360200190f35b348015610ac557600080fd5b5061050e60048036036020811015610adc57600080fd5b5035612a29565b348015610aef57600080fd5b5061050e60048036036040811015610b0657600080fd5b5080359060200135612a5f565b348015610b1f57600080fd5b506105df612a7c565b348015610b3457600080fd5b5061050e612a8b565b348015610b4957600080fd5b5061050e612aa2565b348015610b5e57600080fd5b5061050e60048036036040811015610b7557600080fd5b506001600160a01b038135169060200135612aa8565b348015610b9757600080fd5b5061050e60048036036040811015610bae57600080fd5b5080359060200135612ae6565b348015610bc757600080fd5b5061054a60048036036020811015610bde57600080fd5b50356001600160a01b0316612b07565b348015610bfa57600080fd5b5061050e612b53565b348015610c0f57600080fd5b5061050e60048036036040811015610c2657600080fd5b506001600160a01b038135169060200135612b59565b348015610c4857600080fd5b5061054a60048036036020811015610c5f57600080fd5b5035612b9a565b348015610c7257600080fd5b5061050e60048036036040811015610c8957600080fd5b506001600160a01b038135169060200135612bf4565b348015610cab57600080fd5b5061054a60048036036020811015610cc257600080fd5b50356001600160a01b0316612c5e565b348015610cde57600080fd5b5061054a612d01565b348015610cf357600080fd5b5061050e612d92565b348015610d0857600080fd5b5061050e612d9b565b348015610d1d57600080fd5b50610d3b60048036036020811015610d3457600080fd5b5035612da1565b6040805160208082528351818301528351919283929083019185019080838360005b83811015610d75578181015183820152602001610d5d565b50505050905090810190601f168015610da25780820380516001836020036101000a031916815260200191505b509250505060405180910390f35b348015610dbc57600080fd5b5061050e612e3c565b348015610dd157600080fd5b5061054a60048036036040811015610de857600080fd5b5080359060200135612e42565b348015610e0157600080fd5b5061054a60048036036040811015610e1857600080fd5b506001600160a01b038135169060200135612ed2565b348015610e3a57600080fd5b506105df612f20565b348015610e4f57600080fd5b50610e58612f2f565b604080519115158252519081900360200190f35b348015610e7857600080fd5b50610ea560048036036040811015610e8f57600080fd5b506001600160a01b038135169060200135612f40565b604080519485526020850193909352838301919091526060830152519081900360800190f35b61054a60048036036020811015610ee157600080fd5b5035612f72565b348015610ef457600080fd5b5061050e60048036036040811015610f0b57600080fd5b5080359060200135612f7d565b348015610f2457600080fd5b5061054a60048036036020811015610f3b57600080fd5b50356001600160a01b0316612f9e565b61054a60048036036020811015610f6157600080fd5b810190602081018135600160201b811115610f7b57600080fd5b820183602082011115610f8d57600080fd5b803590602001918460018302840111600160201b83111715610fae57600080fd5b509092509050613007565b348015610fc557600080fd5b5061050e6130fa565b348015610fda57600080fd5b5061050e60048036036040811015610ff157600080fd5b506001600160a01b038135169060200135613111565b34801561101357600080fd5b5061054a6004803603602081101561102a57600080fd5b503561312e565b34801561103d57600080fd5b5061105b6004803603602081101561105457600080fd5b5035613188565b604080519788526020880196909652868601949094526060860192909252608085015260a08401526001600160a01b031660c0830152519081900360e00190f35b3480156110a857600080fd5b5061054a600480360360208110156110bf57600080fd5b50356131ce565b3480156110d257600080fd5b50610762600480360360408110156110e957600080fd5b506001600160a01b0381351690602001356132ae565b34801561110b57600080fd5b5061050e6132da565b34801561112057600080fd5b5061113e6004803603602081101561113757600080fd5b50356132e0565b60408051602080825283518183015283519192839290830191858101910280838360005b8381101561117a578181015183820152602001611162565b505050509050019250505060405180910390f35b34801561119a57600080fd5b50610e58613345565b3480156111af57600080fd5b5061054a600480360360608110156111c657600080fd5b5080359060208101359060400135613356565b3480156111e557600080fd5b50610e58600480360360208110156111fc57600080fd5b5035613369565b34801561120f57600080fd5b5061050e613380565b34801561122457600080fd5b5061050e6004803603602081101561123b57600080fd5b5035613390565b34801561124e57600080fd5b5061050e6133a2565b34801561126357600080fd5b5061054a6004803603604081101561127a57600080fd5b508035906020013515156133a8565b34801561129557600080fd5b5061054a600480360360208110156112ac57600080fd5b503561358b565b3480156112bf57600080fd5b5061050e600480360360408110156112d657600080fd5b506001600160a01b0381351690602001356135e5565b3480156112f857600080fd5b50610e586004803603604081101561130f57600080fd5b506001600160a01b038135169060200135613602565b34801561133157600080fd5b5061054a6004803603602081101561134857600080fd5b50356001600160a01b0316613698565b34801561136457600080fd5b5061054a6004803603602081101561137b57600080fd5b50356136f2565b34801561138e57600080fd5b5061050e61374c565b3480156113a357600080fd5b50610e58613752565b3480156113b857600080fd5b5061050e600480360360408110156113cf57600080fd5b5080359060200135613763565b3480156113e857600080fd5b5061054a600480360360608110156113ff57600080fd5b5080359060208101359060400135613784565b34801561141e57600080fd5b5061050e6004803603604081101561143557600080fd5b5080359060200135613821565b34801561144e57600080fd5b5061054a6004803603602081101561146557600080fd5b810190602081018135600160201b81111561147f57600080fd5b82018360208201111561149157600080fd5b803590602001918460208302840111600160201b831117156114b257600080fd5b509092509050613842565b3480156114c957600080fd5b5061050e600480360360408110156114e057600080fd5b508035906020013561391c565b3480156114f957600080fd5b5061054a6004803603606081101561151057600080fd5b6001600160a01b0382351691602081013591810190606081016040820135600160201b81111561153f57600080fd5b82018360208201111561155157600080fd5b803590602001918460018302840111600160201b8311171561157257600080fd5b50909250905061393d565b34801561158957600080fd5b5061054a600480360360208110156115a057600080fd5b5035613a3c565b3480156115b357600080fd5b5061054a600480360360808110156115ca57600080fd5b810190602081018135600160201b8111156115e457600080fd5b8201836020820111156115f657600080fd5b803590602001918460208302840111600160201b8311171561161757600080fd5b919390929091602081019035600160201b81111561163457600080fd5b82018360208201111561164657600080fd5b803590602001918460208302840111600160201b8311171561166757600080fd5b919390929091602081019035600160201b81111561168457600080fd5b82018360208201111561169657600080fd5b803590602001918460208302840111600160201b831117156116b757600080fd5b919390929091602081019035600160201b8111156116d457600080fd5b8201836020820111156116e657600080fd5b803590602001918460208302840111600160201b8311171561170757600080fd5b509092509050613a96565b34801561171e57600080fd5b5061054a6004803603602081101561173557600080fd5b50356001600160a01b0316613c72565b34801561175157600080fd5b5061054a6004803603602081101561176857600080fd5b5035613cc2565b609e6020526000908152604090205481565b611789613752565b806117975750611797613345565b6117d25760405162461bcd60e51b81526004018080602001828103825260508152602001806165f96050913960600191505060405180910390fd5b6117da613d1c565b156118165760405162461bcd60e51b815260040180806020018281038252602c81526020018061655e602c913960400191505060405180910390fd5b61181f81613d9f565b50565b3361182b616381565b6118358284613dda565b602081015181519192506000916118519163ffffffff613ece16565b9050611874838561186f856040015185613ece90919063ffffffff16565b613f28565b6001600160a01b038316600081815260a860209081526040808320888452825291829020805485019055845185820151868401518451928352928201528083019190915290518692917f4119153d17a36f9597d40e3ab4148d03261a439dddbec4e91799ab7159608e26919081900360600190a350505050565b336118f7616381565b6119018284613dda565b90506000826001600160a01b031661193e836040015161193285602001518660000151613ece90919063ffffffff16565b9063ffffffff613ece16565b604051600081818185875af1925050503d806000811461197a576040519150601f19603f3d011682016040523d82523d6000602084013e61197f565b606091505b50509050806119ca576040805162461bcd60e51b81526020600482015260126024820152714661696c656420746f2073656e642046544d60701b604482015290519081900360640190fd5b83836001600160a01b03167fc1d8eb6e444b89fb8ff0991c19311c070df704ccb009e210d1462d5b2410bf4584600001518560200151866040015160405180848152602001838152602001828152602001935050505060405180910390a350505050565b60b55461016d025b90565b60b454600e0290565b60b9546001600160a01b031681565b6000611a5d8383613602565b611a8b57506001600160a01b038216600090815260a760209081526040808320848452909152902054611ad4565b6001600160a01b038316600081815260a86020908152604080832086845282528083205493835260a78252808320868452909152902054611ad19163ffffffff61402516565b90505b92915050565b609a546001600160a01b031681565b60ab5481565b611af833614067565b611b335760405162461bcd60e51b81526004018080602001828103825260298152602001806164d26029913960400191505060405180910390fd5b611b3e89898961407b565b6001600160a01b038916600090815260a4602090815260408083208b84529091529020600201819055611b70876141e0565b8515611c445786861115611bb55760405162461bcd60e51b815260040180806020018281038252602c8152602001806166f2602c913960400191505060405180910390fd5b6001600160a01b038916600081815260a8602090815260408083208c845282528083208a8155600181018a9055600281018990556003810188905584845260a983528184208d855283529281902086905580518781529182018a9052805192938c9390927f138940e95abffcd789b497bf6188bba3afa5fbd22fb5c42c2f6018d1bf0f4e7892908290030190a3505b505050505050505050565b33600081815260a860209081526040808320868452909152812090919083611cac576040805162461bcd60e51b815260206004820152600b60248201526a1e995c9bc8185b5bdd5b9d60aa1b604482015290519081900360640190fd5b611cb68286613602565b611cf7576040805162461bcd60e51b815260206004820152600d60248201526c06e6f74206c6f636b656420757609c1b604482015290519081900360640190fd5b8054841115611d4d576040805162461bcd60e51b815260206004820152601760248201527f6e6f7420656e6f756768206c6f636b6564207374616b65000000000000000000604482015290519081900360640190fd5b611d578286614265565b611da3576040805162461bcd60e51b81526020600482015260186024820152776f75747374616e64696e67207346544d2062616c616e636560401b604482015290519081900360640190fd5b611dad8286614307565b506000611dc083878785600001546144d2565b825486900383559050611dd4838783614603565b85836001600160a01b03167fef6c0c14fe9aa51af36acd791464dec3badbde668b63189b47bfa4e25be9b2b98784604051808381526020018281526020019250505060405180910390a395945050505050565b611e3033614067565b611e6b5760405162461bcd60e51b81526004018080602001828103825260298152602001806164d26029913960400191505060405180910390fd5b80611eac576040805162461bcd60e51b815260206004820152600c60248201526b77726f6e672073746174757360a01b604482015290519081900360640190fd5b611eb68282614753565b611ec18260006133a8565b5050565b60a660209081526000938452604080852082529284528284209052825290208054600182015460029092015490919083565b6000611f0161487d565b60b05402905090565b60006064611f1661487d565b60b2540281611f2157fe5b04905090565b609a546001600160a01b031690565b60a25481565b60ad5460ae549091565b611f4e613752565b80611f5c5750611f5c613345565b611f975760405162461bcd60e51b81526004018080602001828103825260508152602001806165f96050913960600191505060405180910390fd5b61181f81614889565b611fa8612f2f565b611fe7576040805162461bcd60e51b815260206004820181905260248201526000805160206165ab833981519152604482015290519081900360640190fd5b60008112611ffc5760ab80548201905561181f565b60ab805460008390039003905550565b6067546001600160a01b031690565b60ac60205280600052604060002060009150905080600701549080600801549080600901549080600a01549080600b01549080600c01549080600d0154905087565b600054610100900460ff168061207657506120766148c4565b80612084575060005460ff16155b6120bf5760405162461bcd60e51b815260040180806020018281038252602e8152602001806165cb602e913960400191505060405180910390fd5b600054610100900460ff161580156120ea576000805460ff1961ff0019909116610100171660011790555b6120f3836148ca565b6120fd82846149bb565b61210682614af6565b609c869055609b80546001600160a01b0319166001600160a01b03861617905560ab8590556755cfe697852e904c60aa556103e860ad556203f48060ae5561214c614be1565b600087815260ac60205260409020600701558015612170576000805461ff00191690555b505050505050565b612180613752565b8061218e575061218e613345565b6121c95760405162461bcd60e51b81526004018080602001828103825260508152602001806165f96050913960600191505060405180910390fd5b61181f81614be5565b336121db616381565b506001600160a01b038116600090815260a66020908152604080832086845282528083208584528252918290208251606081018452815480825260018301549382019390935260029091015492810192909252612277576040805162461bcd60e51b81526020600482015260156024820152741c995c5d595cdd08191bd95cdb89dd08195e1a5cdd605a1b604482015290519081900360640190fd5b6122818285614265565b6122cd576040805162461bcd60e51b81526020600482015260186024820152776f75747374616e64696e67207346544d2062616c616e636560401b604482015290519081900360640190fd5b60208082015182516000878152609d9093526040909220600101549091901580159061230957506000868152609d602052604090206001015482115b1561232a5750506000848152609d6020526040902060018101546002909101545b6123326132da565b820161233c614be1565b1015612388576040805162461bcd60e51b81526020600482015260166024820152751b9bdd08195b9bdd59da081d1a5b59481c185cdcd95960521b604482015290519081900360640190fd5b612390612b53565b810161239a612d92565b10156123ed576040805162461bcd60e51b815260206004820152601860248201527f6e6f7420656e6f7567682065706f636873207061737365640000000000000000604482015290519081900360640190fd5b6001600160a01b038416600090815260a66020908152604080832089845282528083208884529091528120600201549061242688613369565b90506000612448838360b860008d815260200190815260200160002054614c20565b6001600160a01b038816600090815260a6602090815260408083208d845282528083208c84529091528120818155600181018290556002015560a380548201905590508083116124d8576040805162461bcd60e51b81526020600482015260166024820152751cdd185ad9481a5cc8199d5b1b1e481cdb185cda195960521b604482015290519081900360640190fd5b60006001600160a01b0388166124f4858463ffffffff61402516565b604051600081818185875af1925050503d8060008114612530576040519150601f19603f3d011682016040523d82523d6000602084013e612535565b606091505b5050905080612580576040805162461bcd60e51b81526020600482015260126024820152714661696c656420746f2073656e642046544d60701b604482015290519081900360640190fd5b888a896001600160a01b03167f75e161b3e824b114fc1a33274bd7091918dd4e639cede50b78b15a4eea956a21876040518082815260200191505060405180910390a450505050505050505050565b6125d7612f2f565b612616576040805162461bcd60e51b815260206004820181905260248201526000805160206165ab833981519152604482015290519081900360640190fd5b61261f82613369565b612670576040805162461bcd60e51b815260206004820152601760248201527f76616c696461746f722069736e277420736c6173686564000000000000000000604482015290519081900360640190fd5b61267861487d565b8111156126b65760405162461bcd60e51b81526004018080602001828103825260218152602001806166496021913960400191505060405180910390fd5b600082815260b860209081526040918290208390558151838152915184927f047575f43f09a7a093d94ec483064acfc61b7e25c0de28017da442abf99cb91792908290030190a25050565b3361270c8185614307565b5060008211612750576040805162461bcd60e51b815260206004820152600b60248201526a1e995c9bc8185b5bdd5b9d60aa1b604482015290519081900360640190fd5b61275a8185611a51565b8211156127ae576040805162461bcd60e51b815260206004820152601960248201527f6e6f7420656e6f75676820756e6c6f636b6564207374616b6500000000000000604482015290519081900360640190fd5b6127b88185614265565b612804576040805162461bcd60e51b81526020600482015260186024820152776f75747374616e64696e67207346544d2062616c616e636560401b604482015290519081900360640190fd5b6001600160a01b038116600090815260a66020908152604080832087845282528083208684529091529020600201541561287b576040805162461bcd60e51b81526020600482015260136024820152727772494420616c72656164792065786973747360681b604482015290519081900360640190fd5b612886818584614603565b6001600160a01b038116600090815260a660209081526040808320878452825280832086845290915290206002018290556128bf612d92565b6001600160a01b038216600090815260a66020908152604080832088845282528083208784529091529020556128f3614be1565b6001600160a01b038216600090815260a66020908152604080832088845282528083208784529091528120600101919091556129309085906133a8565b8284826001600160a01b03167fd3bb4e423fbea695d16b982f9f682dc5f35152e5411646a8a5a79a6b02ba8d57856040518082815260200191505060405180910390a450505050565b61298233614067565b6129bd5760405162461bcd60e51b81526004018080602001828103825260298152602001806164d26029913960400191505060405180910390fd5b612a05898989898080601f0160208091040260200160405190810160405280939291908181526020018383808284376000920191909152508b92508a91508990508888614c82565b60a054881115611c445760a0889055505050505050505050565b6219981960e91b90565b6000818152609d60209081526040808320600601546001600160a01b0316835260a782528083208484529091529020545b919050565b600091825260ac6020908152604080842092845291905290205490565b6066546001600160a01b031690565b60006064612a9761487d565b60b3540281611f2157fe5b60a35481565b6000612ab2616381565b612abc8484614e31565b805160208201516040830151929350612ade926119329163ffffffff613ece16565b949350505050565b600091825260ac602090815260408084209284526001909201905290205490565b612b0f613345565b612b4a5760405162461bcd60e51b81526004018080602001828103825260318152602001806164fb6031913960400191505060405180910390fd5b61181f81614e9f565b60b65490565b6000612b658383613602565b612b7157506000611ad4565b506001600160a01b0391909116600090815260a860209081526040808320938352929052205490565b612ba2613752565b80612bb05750612bb0613345565b612beb5760405162461bcd60e51b81526004018080602001828103825260508152602001806165f96050913960600191505060405180910390fd5b61181f81614f40565b6000612bfe616381565b506001600160a01b038316600090815260a46020908152604080832085845282529182902082516060810184528154808252600183015493820184905260029092015493810184905292612ade929091611932919063ffffffff613ece16565b612c66612f2f565b612ca5576040805162461bcd60e51b815260206004820181905260248201526000805160206165ab833981519152604482015290519081900360640190fd5b609a546040516001600160a01b038084169216907f434a2db650703b36c824e745330d6397cdaa9ee2cc891a4938ae853e1c50b68d90600090a3609a80546001600160a01b0319166001600160a01b0392909216919091179055565b612d09612f2f565b612d48576040805162461bcd60e51b815260206004820181905260248201526000805160206165ab833981519152604482015290519081900360640190fd5b6033546040516000916001600160a01b0316907f8be0079c531659141344cd1fd0a4f28419497f9722a3daafe3b4186f6b6457e0908390a3603380546001600160a01b0319169055565b609c5460010190565b609c5481565b609f6020908152600091825260409182902080548351601f600260001961010060018616150201909316929092049182018490048402810184019094528084529091830182828015612e345780601f10612e0957610100808354040283529160200191612e34565b820191906000526020600020905b815481529060010190602001808311612e1757829003601f168201915b505050505081565b60a15481565b612e4a612f2f565b612e89576040805162461bcd60e51b815260206004820181905260248201526000805160206165ab833981519152604482015290519081900360640190fd5b60ae81905560ad829055604080518381526020810183905281517f702756a07c05d0bbfd06fc17b67951a5f4deb7bb6b088407e68a58969daf2a34929181900390910190a15050565b612edc8282614307565b611ec1576040805162461bcd60e51b815260206004820152601060248201526f0dcdee8d0d2dcce40e8de40e6e8c2e6d60831b604482015290519081900360640190fd5b6033546001600160a01b031690565b6033546001600160a01b0316331490565b60a860209081526000928352604080842090915290825290208054600182015460028301546003909301549192909184565b61181f338234613f28565b600091825260ac602090815260408084209284526005909201905290205490565b612fa6612f2f565b612fe5576040805162461bcd60e51b815260206004820181905260248201526000805160206165ab833981519152604482015290519081900360640190fd5b60b980546001600160a01b0319166001600160a01b0392909216919091179055565b61300f613380565b34101561305d576040805162461bcd60e51b8152602060048201526017602482015276696e73756666696369656e742073656c662d7374616b6560481b604482015290519081900360640190fd5b801580159061306d575060418111155b6130ad576040805162461bcd60e51b815260206004820152600c60248201526b656d707479207075626b657960a01b604482015290519081900360640190fd5b6130ed3383838080601f016020809104026020016040519081016040528093929190818152602001838380828437600092019190915250614f7b92505050565b611ec13360a05434613f28565b6000606461310661487d565b60b1540281611f2157fe5b60a560209081526000928352604080842090915290825290205481565b613136613752565b806131445750613144613345565b61317f5760405162461bcd60e51b81526004018080602001828103825260508152602001806165f96050913960600191505060405180910390fd5b61181f81614fa6565b609d60205260009081526040902080546001820154600283015460038401546004850154600586015460069096015494959394929391929091906001600160a01b031687565b6131d6612f2f565b613215576040805162461bcd60e51b815260206004820181905260248201526000805160206165ab833981519152604482015290519081900360640190fd5b6801c985c8903591eb20811115613273576040805162461bcd60e51b815260206004820152601b60248201527f746f6f206c617267652072657761726420706572207365636f6e640000000000604482015290519081900360640190fd5b60aa8190556040805182815290517f8cd9dae1bbea2bc8a5e80ffce2c224727a25925130a03ae100619a8861ae23969181900360200190a150565b60a960209081526000928352604080842090915290825290208054600182015460029092015490919083565b60b75490565b600081815260ac602090815260409182902060060180548351818402810184019094528084526060939283018282801561333957602002820191906000526020600020905b815481526020019060010190808311613325575b50505050509050919050565b6067546001600160a01b0316331490565b3361336381858585614fe1565b50505050565b6000908152609d6020526040902054608016151590565b60af54670de0b6b3a76400000290565b60b86020526000908152604090205481565b60a05481565b6133b182615293565b6133fc576040805162461bcd60e51b81526020600482015260176024820152761d985b1a59185d1bdc88191bd95cdb89dd08195e1a5cdd604a1b604482015290519081900360640190fd5b6000828152609d60205260409020600381015490541561341a575060005b609b546040805163520337df60e11b8152600481018690526024810184905290516001600160a01b039092169163a4066fbe9160448082019260009290919082900301818387803b15801561346e57600080fd5b505af1158015613482573d6000803e3d6000fd5b5050505081801561349257508015155b1561358657609b546000848152609f602052604090819020815163242a6e3f60e01b81526004810187815260248201938452825460026000196001831615610100020190911604604483018190526001600160a01b039095169463242a6e3f9489949390916064909101908490801561354c5780601f106135215761010080835404028352916020019161354c565b820191906000526020600020905b81548152906001019060200180831161352f57829003601f168201915b50509350505050600060405180830381600087803b15801561356d57600080fd5b505af1158015613581573d6000803e3d6000fd5b505050505b505050565b613593613752565b806135a157506135a1613345565b6135dc5760405162461bcd60e51b81526004018080602001828103825260508152602001806165f96050913960600191505060405180910390fd5b61181f816152aa565b60a760209081526000928352604080842090915290825290205481565b6001600160a01b038216600090815260a8602090815260408083208484529091528120600201541580159061365957506001600160a01b038316600090815260a86020908152604080832085845290915290205415155b8015611ad157506001600160a01b038316600090815260a86020908152604080832085845290915290206002015461368f614be1565b11159392505050565b6136a0613752565b806136ae57506136ae613345565b6136e95760405162461bcd60e51b81526004018080602001828103825260508152602001806165f96050913960600191505060405180910390fd5b61181f816152e5565b6136fa613752565b806137085750613708613345565b6137435760405162461bcd60e51b81526004018080602001828103825260508152602001806165f96050913960600191505060405180910390fd5b61181f81615386565b60aa5481565b6066546001600160a01b0316331490565b600091825260ac602090815260408084209284526003909201905290205490565b33816137c5576040805162461bcd60e51b815260206004820152600b60248201526a1e995c9bc8185b5bdd5b9d60aa1b604482015290519081900360640190fd5b6137cf8185613602565b15613815576040805162461bcd60e51b81526020600482015260116024820152700616c7265616479206c6f636b656420757607c1b604482015290519081900360640190fd5b61336381858585614fe1565b600091825260ac602090815260408084209284526002909201905290205490565b61384b33614067565b6138865760405162461bcd60e51b81526004018080602001828103825260298152602001806164d26029913960400191505060405180910390fd5b600060ac6000613894612d92565b8152602001908152602001600020905060008090505b8281101561390d5760008484838181106138c057fe5b602090810292909201356000818152609d8452604080822060030154948890529020839055600c8601549093506138fe91508263ffffffff613ece16565b600c85015550506001016138aa565b506133636006820184846163a2565b600091825260ac602090815260408084209284526004909201905290205490565b613945612f2f565b613984576040805162461bcd60e51b815260206004820181905260248201526000805160206165ab833981519152604482015290519081900360640190fd5b61398d836141e0565b6040516001600160a01b0385169084156108fc029085906000818181858888f193505050501580156139c3573d6000803e3d6000fd5b50836001600160a01b03167f9eec469b348bcf64bbfb60e46ce7b160e2e09bf5421496a2cdbc43714c28b8ad84848460405180848152602001806020018281038252848482818152602001925080828437600083820152604051601f909101601f1916909201829003965090945050505050a250505050565b613a44613752565b80613a525750613a52613345565b613a8d5760405162461bcd60e51b81526004018080602001828103825260508152602001806165f96050913960600191505060405180910390fd5b61181f816153c1565b613a9f33614067565b613ada5760405162461bcd60e51b81526004018080602001828103825260298152602001806164d26029913960400191505060405180910390fd5b600060ac6000613ae8612d92565b81526020019081526020016000209050606081600601805480602002602001604051908101604052809291908181526020018280548015613b4857602002820191906000526020600020905b815481526020019060010190808311613b34575b50505050509050613bcf82828c8c80806020026020016040519081016040528093929190818152602001838360200280828437600081840152601f19601f820116905080830192505050505050508b8b808060200260200160405190810160405280939291908181526020018383602002808284376000920191909152506153fc92505050565b613c3e828288888080602002602001604051908101604052809392919081815260200183836020028082843760009201919091525050604080516020808c0282810182019093528b82529093508b92508a91829185019084908082843760009201919091525061551292505050565b613c46612d92565b609c55613c51614be1565b60078301555060aa54600b82015560ab54600d909101555050505050505050565b613c7a612f2f565b613cb9576040805162461bcd60e51b815260206004820181905260248201526000805160206165ab833981519152604482015290519081900360640190fd5b61181f81615b58565b613cca613752565b80613cd85750613cd8613345565b613d135760405162461bcd60e51b81526004018080602001828103825260508152602001806165f96050913960600191505060405180910390fd5b61181f81615bf9565b600080609a60009054906101000a90046001600160a01b03166001600160a01b0316635584c4f96040518163ffffffff1660e01b815260040160206040518083038186803b158015613d6d57600080fd5b505afa158015613d81573d6000803e3d6000fd5b505050506040513d6020811015613d9757600080fd5b505191505090565b60b08190556040805182815290517fd3b49810855efc7d611424cd0a8cc519b92cf2e97bd3516921dff1a19b101e359181900360200190a150565b613de2616381565b613dec8383614307565b50506001600160a01b038216600090815260a46020908152604080832084845282528083208151606081018352815480825260018301549482018590526002909201549281018390529392613e4a926119329163ffffffff613ece16565b905080613e8d576040805162461bcd60e51b815260206004820152600c60248201526b7a65726f207265776172647360a01b604482015290519081900360640190fd5b6001600160a01b038416600090815260a46020908152604080832086845290915281208181556001810182905560020155613ec7816141e0565b5092915050565b600082820183811015611ad1576040805162461bcd60e51b815260206004820152601b60248201527f536166654d6174683a206164646974696f6e206f766572666c6f770000000000604482015290519081900360640190fd5b613f3182615293565b613f7c576040805162461bcd60e51b81526020600482015260176024820152761d985b1a59185d1bdc88191bd95cdb89dd08195e1a5cdd604a1b604482015290519081900360640190fd5b6000828152609d602052604090205415613fd6576040805162461bcd60e51b815260206004820152601660248201527576616c696461746f722069736e27742061637469766560501b604482015290519081900360640190fd5b613fe183838361407b565b613fea82615c34565b6135865760405162461bcd60e51b81526004018080602001828103825260298152602001806166926029913960400191505060405180910390fd5b6000611ad183836040518060400160405280601e81526020017f536166654d6174683a207375627472616374696f6e206f766572666c6f770000815250615c7c565b609b546001600160a01b0390811691161490565b600081116140be576040805162461bcd60e51b815260206004820152600b60248201526a1e995c9bc8185b5bdd5b9d60aa1b604482015290519081900360640190fd5b6140c88383614307565b506001600160a01b038316600090815260a7602090815260408083208584529091529020546140fd908263ffffffff613ece16565b6001600160a01b038416600090815260a760209081526040808320868452825280832093909355609d9052206003015461413d818363ffffffff613ece16565b6000848152609d602052604090206003015560a154614162908363ffffffff613ece16565b60a1556000838152609d602052604090205461418f5760a25461418b908363ffffffff613ece16565b60a2555b61419a8382156133a8565b60408051838152905184916001600160a01b038716917f9a8f44850296624dadfd9c246d17e47171d35727a181bd090aa14bbbe00238bb9181900360200190a350505050565b609b54604080516366e7ea0f60e01b81523060048201526024810184905290516001600160a01b03909216916366e7ea0f9160448082019260009290919082900301818387803b15801561423357600080fd5b505af1158015614247573d6000803e3d6000fd5b505060ab5461425f925090508263ffffffff613ece16565b60ab5550565b60b9546000906001600160a01b031661428057506001611ad4565b60b954604080516321d585c360e01b81526001600160a01b03868116600483015260248201869052915191909216916321d585c3916044808301926020929190829003018186803b1580156142d457600080fd5b505afa1580156142e8573d6000803e3d6000fd5b505050506040513d60208110156142fe57600080fd5b50519392505050565b6000614311616381565b61431b8484615d13565b905061432683615e4b565b6001600160a01b038516600081815260a56020908152604080832088845282528083209490945591815260a482528281208682528252829020825160608101845281548152600182015492810192909252600201549181019190915261438c9082615ea6565b6001600160a01b038516600081815260a460209081526040808320888452825280832085518155858301516001808301919091559582015160029182015593835260a98252808320888452825291829020825160608101845281548152948101549185019190915290910154908201526144069082615ea6565b6001600160a01b038516600090815260a9602090815260408083208784528252918290208351815590830151600182015591015160029091015561444a8484613602565b6144ad576001600160a01b038416600081815260a860209081526040808320878452825280832083815560018082018590556002808301869055600390920185905594845260a98352818420888552909252822082815592830182905591909101555b60208101511515806144bf5750805115155b80612ade57506040015115159392505050565b6001600160a01b038416600090815260a960209081526040808320868452909152812054819061451a90849061450e908763ffffffff615f1816565b9063ffffffff615f7116565b6001600160a01b038716600090815260a9602090815260408083208984529091528120600101549192509061455b90859061450e908863ffffffff615f1816565b6001600160a01b038816600090815260a9602090815260408083208a8452909152902054909150600282048301906145939084614025565b6001600160a01b038916600090815260a9602090815260408083208b84529091529020908155600101546145c79083614025565b6001600160a01b038916600090815260a9602090815260408083208b84529091529020600101558581106145f85750845b979650505050505050565b6001600160a01b038316600090815260a760209081526040808320858452825280832080548590039055609d909152902060030154614648908263ffffffff61402516565b6000838152609d602052604090206003015560a15461466d908263ffffffff61402516565b60a1556000828152609d602052604090205461469a5760a254614696908263ffffffff61402516565b60a2555b60006146a583612a29565b9050801561474c576146b5613380565b811015614703576040805162461bcd60e51b8152602060048201526017602482015276696e73756666696369656e742073656c662d7374616b6560481b604482015290519081900360640190fd5b61470c83615c34565b6147475760405162461bcd60e51b81526004018080602001828103825260298152602001806166926029913960400191505060405180910390fd5b613363565b6133638360015b6000828152609d602052604090205415801561476e57508015155b1561479b576000828152609d602052604090206003015460a2546147979163ffffffff61402516565b60a2555b6000828152609d6020526040902054811115611ec1576000828152609d6020526040902081815560020154614843576147d2612d92565b6000838152609d60205260409020600201556147ec614be1565b6000838152609d60209081526040918290206001810184905560020154825190815290810192909252805184927fac4801c32a6067ff757446524ee4e7a373797278ac3c883eac5c693b4ad72e4792908290030190a25b60408051828152905183917fcd35267e7654194727477d6c78b541a553483cff7f92a055d17868d3da6e953e919081900360200190a25050565b670de0b6b3a764000090565b60b18190556040805182815290517f969e21e21af49053b3bfee796b627ebc26e10328889e90a47da2f1205d3e8f139181900360200190a150565b303b1590565b600054610100900460ff16806148e357506148e36148c4565b806148f1575060005460ff16155b61492c5760405162461bcd60e51b815260040180806020018281038252602e8152602001806165cb602e913960400191505060405180910390fd5b600054610100900460ff16158015614957576000805460ff1961ff0019909116610100171660011790555b603380546001600160a01b0319166001600160a01b0384811691909117918290556040519116906000907f8be0079c531659141344cd1fd0a4f28419497f9722a3daafe3b4186f6b6457e0908290a38015611ec1576000805461ff00191690555050565b600054610100900460ff16806149d457506149d46148c4565b806149e2575060005460ff16155b614a1d5760405162461bcd60e51b815260040180806020018281038252602e8152602001806165cb602e913960400191505060405180910390fd5b600054610100900460ff16158015614a48576000805460ff1961ff0019909116610100171660011790555b606680546001600160a01b038086166001600160a01b03199283161792839055606780548683169316929092179091556040519116906000907f5f56bee8cffbe9a78652a74a60705edede02af10b0bbb888ca44b79a0d42ce80908290a36067546040516001600160a01b03909116906000907fd91e5ba07efb2e532a3d502f5fb4451cf8fe4006f3b90283d8f2f51a06e5358c908290a38015613586576000805461ff0019169055505050565b600054610100900460ff1680614b0f5750614b0f6148c4565b80614b1d575060005460ff16155b614b585760405162461bcd60e51b815260040180806020018281038252602e8152602001806165cb602e913960400191505060405180910390fd5b600054610100900460ff16158015614b83576000805460ff1961ff0019909116610100171660011790555b609a80546001600160a01b0319166001600160a01b0384169081179091556040516000907f434a2db650703b36c824e745330d6397cdaa9ee2cc891a4938ae853e1c50b68d908290a38015611ec1576000805461ff00191690555050565b4290565b60b48190556040805182815290517f31d33f23d1e7fe45f7e898c070587ff0f2f519674e5e2a12f90b3a17c77f6ad19181900360200190a150565b6000821580614c365750614c3261487d565b8210155b15614c4357506000614c7b565b614c6e6001611932614c5361487d565b61450e86614c5f61487d565b8a91900363ffffffff615f1816565b905083811115614c7b5750825b9392505050565b6001600160a01b0388166000908152609e602052604090205415614ced576040805162461bcd60e51b815260206004820152601860248201527f76616c696461746f7220616c7265616479206578697374730000000000000000604482015290519081900360640190fd5b6001600160a01b0388166000818152609e602090815260408083208b90558a8352609d82528083208981556004810189905560058101889055600181018690556002810187905560060180546001600160a01b031916909417909355609f81529190208751614d5e928901906163ed565b50876001600160a01b0316877f49bca1ed2666922f9f1690c26a569e1299c2a715fe57647d77e81adfabbf25bf8686604051808381526020018281526020019250505060405180910390a38115614dea576040805183815260208101839052815189927fac4801c32a6067ff757446524ee4e7a373797278ac3c883eac5c693b4ad72e47928290030190a25b8415614e275760408051868152905188917fcd35267e7654194727477d6c78b541a553483cff7f92a055d17868d3da6e953e919081900360200190a25b5050505050505050565b614e39616381565b614e41616381565b614e4b8484615d13565b6001600160a01b038516600090815260a4602090815260408083208784528252918290208251606081018452815481526001820154928101929092526002015491810191909152909150612ade9082615ea6565b6001600160a01b038116614ee45760405162461bcd60e51b81526004018080602001828103825260378152602001806166bb6037913960400191505060405180910390fd5b6067546040516001600160a01b038084169216907fd91e5ba07efb2e532a3d502f5fb4451cf8fe4006f3b90283d8f2f51a06e5358c90600090a3606780546001600160a01b0319166001600160a01b0392909216919091179055565b60b68190556040805182815290517f2f273767369d76e1ecbee32ed26135f390df620f085feb7a6f2e3dd51985bd5f9181900360200190a150565b60a08054600101908190556135868382846000614f96612d92565b614f9e614be1565b600080614c82565b60b28190556040805182815290517f12420e865335c7cfb225296eb0adaca14bfb1de93b3731ed1e0434746a4d91249181900360200190a150565b614feb8484611a51565b811115615032576040805162461bcd60e51b815260206004820152601060248201526f6e6f7420656e6f756768207374616b6560801b604482015290519081900360640190fd5b6000838152609d60205260409020541561508c576040805162461bcd60e51b815260206004820152601660248201527576616c696461746f722069736e27742061637469766560501b604482015290519081900360640190fd5b615094611a39565b82101580156150aa57506150a6611a2e565b8211155b6150f0576040805162461bcd60e51b815260206004820152601260248201527134b731b7b93932b1ba10323ab930ba34b7b760711b604482015290519081900360640190fd5b60006150fe83611932614be1565b6000858152609d60205260409020600601549091506001600160a01b03908116908616811461518c576001600160a01b038116600090815260a86020908152604080832088845290915290206002015482111561518c5760405162461bcd60e51b815260040180806020018281038252602881526020018061666a6028913960400191505060405180910390fd5b6151968686614307565b506001600160a01b038616600090815260a86020908152604080832088845290915290206003810154851015615213576040805162461bcd60e51b815260206004820152601f60248201527f6c6f636b7570206475726174696f6e2063616e6e6f7420646563726561736500604482015290519081900360640190fd5b8054615225908563ffffffff613ece16565b815561522f612d92565b600182015560028101839055600381018590556040805186815260208101869052815188926001600160a01b038b16927f138940e95abffcd789b497bf6188bba3afa5fbd22fb5c42c2f6018d1bf0f4e78929081900390910190a350505050505050565b6000908152609d6020526040902060050154151590565b60b38190556040805182815290517fcda2f8a6b9050afa9ac1f8d6ff9a123894f76a5530c6c29636332c995a1f97159181900360200190a150565b6001600160a01b03811661532a5760405162461bcd60e51b815260040180806020018281038252603281526020018061652c6032913960400191505060405180910390fd5b6066546040516001600160a01b038084169216907f5f56bee8cffbe9a78652a74a60705edede02af10b0bbb888ca44b79a0d42ce8090600090a3606680546001600160a01b0319166001600160a01b0392909216919091179055565b60af8190556040805182815290517fe9a0db1369c39eb7fc2ed3d7e122f9ee60952b075329b1e84bce8843367210f49181900360200190a150565b60b78190556040805182815290517f9e85e6207a28e085f027a9b979cad850f4c36a581dd42c119e856c04b92d96119181900360200190a150565b60005b835181101561550b5760ad5482828151811061541757fe5b6020026020010151118015615441575060ae5483828151811061543657fe5b602002602001015110155b156154825761546484828151811061545557fe5b60200260200101516008614753565b61548284828151811061547357fe5b602002602001015160006133a8565b82818151811061548e57fe5b60200260200101518560040160008684815181106154a857fe5b60200260200101518152602001908152602001600020819055508181815181106154ce57fe5b60200260200101518560050160008684815181106154e857fe5b6020908102919091018101518252810191909152604001600020556001016153ff565b5050505050565b61551a61645b565b6040518060c001604052808551604051908082528060200260200182016040528015615550578160200160208202803883390190505b508152602001600081526020018551604051908082528060200260200182016040528015615588578160200160208202803883390190505b508152602001600081526020016000815260200160008152509050600060ac60006155c260016155b6612d92565b9063ffffffff61402516565b815260208101919091526040016000206001608084015260078101549091506155e9614be1565b11156156035780600701546155fc614be1565b0360808301525b60005b855181101561570b57600082600301600088848151811061562357fe5b6020026020010151815260200190815260200160002054905060008090508186848151811061564e57fe5b60200260200101511115615675578186848151811061566957fe5b60200260200101510390505b846080015187848151811061568657fe5b602002602001015182028161569757fe5b04856040015184815181106156a857fe5b6020026020010181815250506156e2856040015184815181106156c757fe5b60200260200101518660600151613ece90919063ffffffff16565b606086015260a08501516156fc908263ffffffff613ece16565b60a08601525050600101615606565b5060005b85518110156157dc57826080015185828151811061572957fe5b6020026020010151846080015187848151811061574257fe5b60200260200101518a60000160008b878151811061575c57fe5b6020026020010151815260200190815260200160002054028161577b57fe5b04028161578457fe5b048360000151828151811061579557fe5b6020026020010181815250506157cf836000015182815181106157b457fe5b60200260200101518460200151613ece90919063ffffffff16565b602084015260010161570f565b5060005b8551811015615b30576000615818846080015160aa548660000151858151811061580657fe5b60200260200101518760200151615fb3565b90506158546158478560a001518660400151858151811061583557fe5b60200260200101518760600151615ff4565b829063ffffffff613ece16565b9050600087838151811061586457fe5b6020908102919091018101516000818152609d90925260408220600601549092506001600160a01b0316906158a08461589b6130fa565b616051565b6001600160a01b038316600090815260a7602090815260408083208784529091529020549091508015615a47576000816158da8587612b59565b8402816158e357fe5b0490508083036158f1616381565b6001600160a01b038616600090815260a8602090815260408083208a845290915290206003015461592390849061606e565b905061592d616381565b61593883600061606e565b6001600160a01b038816600090815260a4602090815260408083208c8452825291829020825160608101845281548152600182015492810192909252600201549181019190915290915061598d90838361615f565b6001600160a01b038816600081815260a4602090815260408083208d8452825280832085518155858301516001808301919091559582015160029182015593835260a982528083208d845282529182902082516060810184528154815294810154918501919091529091015490820152615a0890838361615f565b6001600160a01b038816600090815260a9602090815260408083208c845282529182902083518155908301516001820155910151600290910155505050505b6000848152609d6020526040812060030154838703918115615a795781615a6c61487d565b840281615a7557fe5b0490505b808a600101600089815260200190815260200160002054018f6001016000898152602001908152602001600020819055508b8981518110615ab657fe5b60200260200101518f6003016000898152602001908152602001600020819055508c8981518110615ae357fe5b60200260200101518a600201600089815260200190815260200160002054018f600201600089815260200190815260200160002081905550505050505050505080806001019150506157e0565b505060a081015160088601556020810151600986015560600151600a90940193909355505050565b6001600160a01b038116615b9d5760405162461bcd60e51b81526004018080602001828103825260268152602001806164ac6026913960400191505060405180910390fd5b6033546040516001600160a01b038084169216907f8be0079c531659141344cd1fd0a4f28419497f9722a3daafe3b4186f6b6457e090600090a3603380546001600160a01b0319166001600160a01b0392909216919091179055565b60b58190556040805182815290517fd830c33dec392daf6dfeac9834107217392396bc333bcbb92e6c1c1a5e8726319181900360200190a150565b6000615c61615c4161487d565b61450e615c4c611ef7565b615c5586612a29565b9063ffffffff615f1816565b6000838152609d602052604090206003015411159050919050565b60008184841115615d0b5760405162461bcd60e51b81526004018080602001828103825283818151815260200191508051906020019080838360005b83811015615cd0578181015183820152602001615cb8565b50505050905090810190601f168015615cfd5780820380516001836020036101000a031916815260200191505b509250505060405180910390fd5b505050900390565b615d1b616381565b6001600160a01b038316600090815260a56020908152604080832085845290915281205490615d4984615e4b565b90506000615d57868661617a565b905081811115615d645750805b82811015615d6f5750815b6001600160a01b038616600081815260a860209081526040808320898452825280832093835260a782528083208984529091528120548254909190615dbb90839063ffffffff61402516565b90506000615dcf84600001548a8988616239565b9050615dd9616381565b615de782866003015461606e565b9050615df5838b8a89616239565b9150615dff616381565b615e0a83600061606e565b9050615e18858c898b616239565b9250615e22616381565b615e2d84600061606e565b9050615e3a83838361615f565b9d9c50505050505050505050505050565b6000818152609d602052604081206002015415615e9e576000828152609d6020526040902060020154609c541015615e865750609c54612a5a565b506000818152609d6020526040902060020154612a5a565b5050609c5490565b615eae616381565b6040805160608101909152825184518291615ecf919063ffffffff613ece16565b8152602001615eef84602001518660200151613ece90919063ffffffff16565b8152602001615f0f84604001518660400151613ece90919063ffffffff16565b90529392505050565b600082615f2757506000611ad4565b82820282848281615f3457fe5b0414611ad15760405162461bcd60e51b815260040180806020018281038252602181526020018061658a6021913960400191505060405180910390fd5b6000611ad183836040518060400160405280601a81526020017f536166654d6174683a206469766973696f6e206279207a65726f00000000000081525061629c565b600082615fc257506000612ade565b6000615fd4868663ffffffff615f1816565b9050615fea8361450e838763ffffffff615f1816565b9695505050505050565b60008261600357506000614c7b565b60006160198361450e878763ffffffff615f1816565b905061604861602661487d565b61450e616031611f0a565b61603961487d565b8591900363ffffffff615f1816565b95945050505050565b6000611ad161605e61487d565b61450e858563ffffffff615f1816565b616076616381565b6040518060600160405280600081526020016000815260200160008152509050816000146161315760006160a8612a8b565b6160b061487d565b03905060006160d06160c0611a2e565b61450e848763ffffffff615f1816565b905060006160f96160df61487d565b61450e846160eb612a8b565b8a910163ffffffff615f1816565b905061611e61610661487d565b61450e616111612a8b565b899063ffffffff615f1816565b602085018190529003835250611ad49050565b61615461613c61487d565b61450e616147612a8b565b869063ffffffff615f1816565b604082015292915050565b616167616381565b612ade6161748585615ea6565b83615ea6565b6001600160a01b038216600090815260a860209081526040808320848452909152812060010154609c546161af858583616301565b156161bd579150611ad49050565b6161c8858584616301565b6161d757600092505050611ad4565b808211156161ea57600092505050611ad4565b8082101561621d57600281830104616203868683616301565b1561621357806001019250616217565b8091505b506161ea565b8061622d57600092505050611ad4565b60001901949350505050565b600081831061624a57506000612ade565b600083815260ac60208181526040808420888552600190810183528185205487865293835281852089865201909152909120546145f861628861487d565b61450e89615c55858763ffffffff61402516565b600081836162eb5760405162461bcd60e51b8152602060048201818152835160248401528351909283926044909101919085019080838360008315615cd0578181015183820152602001615cb8565b5060008385816162f757fe5b0495945050505050565b6001600160a01b038316600090815260a8602090815260408083208584529091528120600101548210801590612ade57506001600160a01b038416600090815260a8602090815260408083208684529091529020600201546163628361636c565b1115949350505050565b600090815260ac602052604090206007015490565b60405180606001604052806000815260200160008152602001600081525090565b8280548282559060005260206000209081019282156163dd579160200282015b828111156163dd5782358255916020019190600101906163c2565b506163e9929150616491565b5090565b828054600181600116156101000203166002900490600052602060002090601f016020900481019282601f1061642e57805160ff19168380011785556163dd565b828001600101855582156163dd579182015b828111156163dd578251825591602001919060010190616440565b6040518060c001604052806060815260200160008152602001606081526020016000815260200160008152602001600081525090565b611a3691905b808211156163e9576000815560010161649756fe4f776e61626c653a206e6577206f776e657220697320746865207a65726f206164647265737363616c6c6572206973206e6f7420746865204e6f64654472697665724175746820636f6e7472616374476f7665726e616e6365526f6c653a2063616c6c6572206973206e6f7420746865207365636f6e64617279206f776e6572476f7665726e616e6365526f6c653a206e657720676f7665726e616e636520697320746865207a65726f2061646472657373476f7665726e616e6365546f5346433a20546865726520617265206163746976652070726f706f73616c732e536166654d6174683a206d756c7469706c69636174696f6e206f766572666c6f774f776e61626c653a2063616c6c6572206973206e6f7420746865206f776e6572436f6e747261637420696e7374616e63652068617320616c7265616479206265656e20696e697469616c697a6564476f7665726e616e6365526f6c653a20746869732066756e6374696f6e20697320636f6e74726f6c6c656420627920746865206f776e657220616e6420676f7665726e616e636520636f6e74726163746d757374206265206c657373207468616e206f7220657175616c20746f20312e3076616c696461746f72206c6f636b757020706572696f642077696c6c20656e64206561726c69657276616c696461746f7227732064656c65676174696f6e73206c696d6974206973206578636565646564476f7665726e616e6365526f6c653a206e6577207365636f6e64617279206f776e657220697320746865207a65726f20616464726573736c6f636b6564207374616b652069732067726561746572207468616e207468652077686f6c65207374616b65a265627a7a72315820ef58caf181f8f3632b15db643ffeb44951de476c92cd515a36bba0075e66553464736f6c63430005110032",
  "linkReferences": {},
  "deployedLinkReferences": {}
}