{
  "_format": "hh-sol-artifact-1",
  "contractName": "SFC",
  "sourceName": "contracts/sfc/SFC.sol",
  "abi": [
    {
      "anonymous": false,
      "inputs": [
        {
          "indexed": true,
          "internalType": "uint256",
          "name": "validatorID",
          "type": "uint256"
        },
        {
          "indexed": false,
          "internalType": "uint256",
          "name": "status",
          "type": "uint256"
        }
      ],
      "name": "ChangedValidatorStatus",
      "type": "event"
    },
    {
      "anonymous": false,
      "inputs": [
        {
          "indexed": true,
          "internalType": "address",
          "name": "delegator",
          "type": "address"
        },
        {
          "indexed": true,
          "internalType": "uint256",
          "name": "toValidatorID",
          "type": "uint256"
        },
        {
          "indexed": false,
          "internalType": "uint256",
          "name": "lockupExtraReward",
          "type": "uint256"
        },
        {
          "indexed": false,
          "internalType": "uint256",
          "name": "lockupBaseReward",
          "type": "uint256"
        },
        {
          "indexed": false,
          "internalType": "uint256",
          "name": "unlockedReward",
          "type": "uint256"
        }
      ],
      "name": "ClaimedRewards",
      "type": "event"
    },
    {
      "anonymous": false,
      "inputs": [
        {
          "indexed": true,
          "internalType": "uint256",
          "name": "validatorID",
          "type": "uint256"
        },
        {
          "indexed": true,
          "internalType": "address",
          "name": "auth",
          "type": "address"
        },
        {
          "indexed": false,
          "internalType": "uint256",
          "name": "createdEpoch",
          "type": "uint256"
        },
        {
          "indexed": false,
          "internalType": "uint256",
          "name": "createdTime",
          "type": "uint256"
        }
      ],
      "name": "CreatedValidator",
      "type": "event"
    },
    {
      "anonymous": false,
      "inputs": [
        {
          "indexed": true,
          "internalType": "uint256",
          "name": "validatorID",
          "type": "uint256"
        },
        {
          "indexed": false,
          "internalType": "uint256",
          "name": "deactivatedEpoch",
          "type": "uint256"
        },
        {
          "indexed": false,
          "internalType": "uint256",
          "name": "deactivatedTime",
          "type": "uint256"
        }
      ],
      "name": "DeactivatedValidator",
      "type": "event"
    },
    {
      "anonymous": false,
      "inputs": [
        {
          "indexed": true,
          "internalType": "address",
          "name": "delegator",
          "type": "address"
        },
        {
          "indexed": true,
          "internalType": "uint256",
          "name": "toValidatorID",
          "type": "uint256"
        },
        {
          "indexed": false,
          "internalType": "uint256",
          "name": "amount",
          "type": "uint256"
        }
      ],
      "name": "Delegated",
      "type": "event"
    },
    {
      "anonymous": false,
      "inputs": [
        {
          "indexed": true,
          "internalType": "address",
          "name": "previousGovernance",
          "type": "address"
        },
        {
          "indexed": true,
          "internalType": "address",
          "name": "newGovernance",
          "type": "address"
        }
      ],
      "name": "GovernanceTransferred",
      "type": "event"
    },
    {
      "anonymous": false,
      "inputs": [
        {
          "indexed": true,
          "internalType": "address",
          "name": "receiver",
          "type": "address"
        },
        {
          "indexed": false,
          "internalType": "uint256",
          "name": "amount",
          "type": "uint256"
        },
        {
          "indexed": false,
          "internalType": "string",
          "name": "justification",
          "type": "string"
        }
      ],
      "name": "InflatedFTM",
      "type": "event"
    },
    {
      "anonymous": false,
      "inputs": [
        {
          "indexed": true,
          "internalType": "address",
          "name": "delegator",
          "type": "address"
        },
        {
          "indexed": true,
          "internalType": "uint256",
          "name": "validatorID",
          "type": "uint256"
        },
        {
          "indexed": false,
          "internalType": "uint256",
          "name": "duration",
          "type": "uint256"
        },
        {
          "indexed": false,
          "internalType": "uint256",
          "name": "amount",
          "type": "uint256"
        }
      ],
      "name": "LockedUpStake",
      "type": "event"
    },
    {
      "anonymous": false,
      "inputs": [
        {
          "indexed": true,
          "internalType": "address",
          "name": "previousOwner",
          "type": "address"
        },
        {
          "indexed": true,
          "internalType": "address",
          "name": "newOwner",
          "type": "address"
        }
      ],
      "name": "OwnershipTransferred",
      "type": "event"
    },
    {
      "anonymous": false,
      "inputs": [
        {
          "indexed": true,
          "internalType": "address",
          "name": "delegator",
          "type": "address"
        },
        {
          "indexed": true,
          "internalType": "uint256",
          "name": "validatorID",
          "type": "uint256"
        },
        {
          "indexed": false,
          "internalType": "uint256",
          "name": "amount",
          "type": "uint256"
        }
      ],
      "name": "RefundedSlashedLegacyDelegation",
      "type": "event"
    },
    {
      "anonymous": false,
      "inputs": [
        {
          "indexed": true,
          "internalType": "address",
          "name": "delegator",
          "type": "address"
        },
        {
          "indexed": true,
          "internalType": "uint256",
          "name": "toValidatorID",
          "type": "uint256"
        },
        {
          "indexed": false,
          "internalType": "uint256",
          "name": "lockupExtraReward",
          "type": "uint256"
        },
        {
          "indexed": false,
          "internalType": "uint256",
          "name": "lockupBaseReward",
          "type": "uint256"
        },
        {
          "indexed": false,
          "internalType": "uint256",
          "name": "unlockedReward",
          "type": "uint256"
        }
      ],
      "name": "RestakedRewards",
      "type": "event"
    },
    {
      "anonymous": false,
      "inputs": [
        {
          "indexed": true,
          "internalType": "address",
          "name": "delegator",
          "type": "address"
        },
        {
          "indexed": true,
          "internalType": "uint256",
          "name": "toValidatorID",
          "type": "uint256"
        },
        {
          "indexed": true,
          "internalType": "uint256",
          "name": "wrID",
          "type": "uint256"
        },
        {
          "indexed": false,
          "internalType": "uint256",
          "name": "amount",
          "type": "uint256"
        }
      ],
      "name": "Undelegated",
      "type": "event"
    },
    {
      "anonymous": false,
      "inputs": [
        {
          "indexed": true,
          "internalType": "address",
          "name": "delegator",
          "type": "address"
        },
        {
          "indexed": true,
          "internalType": "uint256",
          "name": "validatorID",
          "type": "uint256"
        },
        {
          "indexed": false,
          "internalType": "uint256",
          "name": "amount",
          "type": "uint256"
        },
        {
          "indexed": false,
          "internalType": "uint256",
          "name": "penalty",
          "type": "uint256"
        }
      ],
      "name": "UnlockedStake",
      "type": "event"
    },
    {
      "anonymous": false,
      "inputs": [
        {
          "indexed": false,
          "internalType": "uint256",
          "name": "value",
          "type": "uint256"
        }
      ],
      "name": "UpdatedBaseRewardPerSec",
      "type": "event"
    },
    {
      "anonymous": false,
      "inputs": [
        {
          "indexed": false,
          "internalType": "uint256",
          "name": "contractCommission",
          "type": "uint256"
        }
      ],
      "name": "UpdatedContractCommission",
      "type": "event"
    },
    {
      "anonymous": false,
      "inputs": [
        {
          "indexed": false,
          "internalType": "uint256",
          "name": "maxDelegationRatio",
          "type": "uint256"
        }
      ],
      "name": "UpdatedMaxDelegationRatio",
      "type": "event"
    },
    {
      "anonymous": false,
      "inputs": [
        {
          "indexed": false,
          "internalType": "uint256",
          "name": "maxLockupDuration",
          "type": "uint256"
        }
      ],
      "name": "UpdatedMaxLockupDuration",
      "type": "event"
    },
    {
      "anonymous": false,
      "inputs": [
        {
          "indexed": false,
          "internalType": "uint256",
          "name": "minLockupDuration",
          "type": "uint256"
        }
      ],
      "name": "UpdatedMinLockupDuration",
      "type": "event"
    },
    {
      "anonymous": false,
      "inputs": [
        {
          "indexed": false,
          "internalType": "uint256",
          "name": "minSelfStake",
          "type": "uint256"
        }
      ],
      "name": "UpdatedMinSelfStake",
      "type": "event"
    },
    {
      "anonymous": false,
      "inputs": [
        {
          "indexed": false,
          "internalType": "uint256",
          "name": "blocksNum",
          "type": "uint256"
        },
        {
          "indexed": false,
          "internalType": "uint256",
          "name": "period",
          "type": "uint256"
        }
      ],
      "name": "UpdatedOfflinePenaltyThreshold",
      "type": "event"
    },
    {
      "anonymous": false,
      "inputs": [
        {
          "indexed": true,
          "internalType": "uint256",
          "name": "validatorID",
          "type": "uint256"
        },
        {
          "indexed": false,
          "internalType": "uint256",
          "name": "refundRatio",
          "type": "uint256"
        }
      ],
      "name": "UpdatedSlashingRefundRatio",
      "type": "event"
    },
    {
      "anonymous": false,
      "inputs": [
        {
          "indexed": false,
          "internalType": "uint256",
          "name": "unlockedRewardRatio",
          "type": "uint256"
        }
      ],
      "name": "UpdatedUnlockedRewardRatio",
      "type": "event"
    },
    {
      "anonymous": false,
      "inputs": [
        {
          "indexed": false,
          "internalType": "uint256",
          "name": "validatorCommission",
          "type": "uint256"
        }
      ],
      "name": "UpdatedValidatorCommission",
      "type": "event"
    },
    {
      "anonymous": false,
      "inputs": [
        {
          "indexed": false,
          "internalType": "uint256",
          "name": "Value",
          "type": "uint256"
        }
      ],
      "name": "UpdatedWithdrawalPeriodEpoch",
      "type": "event"
    },
    {
      "anonymous": false,
      "inputs": [
        {
          "indexed": false,
          "internalType": "uint256",
          "name": "withValuedrawalPeriodTime",
          "type": "uint256"
        }
      ],
      "name": "UpdatedWithdrawalPeriodTime",
      "type": "event"
    },
    {
      "anonymous": false,
      "inputs": [
        {
          "indexed": true,
          "internalType": "address",
          "name": "delegator",
          "type": "address"
        },
        {
          "indexed": true,
          "internalType": "uint256",
          "name": "toValidatorID",
          "type": "uint256"
        },
        {
          "indexed": true,
          "internalType": "uint256",
          "name": "wrID",
          "type": "uint256"
        },
        {
          "indexed": false,
          "internalType": "uint256",
          "name": "amount",
          "type": "uint256"
        }
      ],
      "name": "Withdrawn",
      "type": "event"
    },
    {
      "constant": false,
      "inputs": [
        {
          "internalType": "uint256",
          "name": "validatorID",
          "type": "uint256"
        },
        {
          "internalType": "bool",
          "name": "syncPubkey",
          "type": "bool"
        }
      ],
      "name": "_syncValidator",
      "outputs": [],
      "payable": false,
      "stateMutability": "nonpayable",
      "type": "function"
    },
    {
      "constant": true,
      "inputs": [],
      "name": "baseRewardPerSecond",
      "outputs": [
        {
          "internalType": "uint256",
          "name": "",
          "type": "uint256"
        }
      ],
      "payable": false,
      "stateMutability": "view",
      "type": "function"
    },
    {
      "constant": false,
      "inputs": [
        {
          "internalType": "uint256",
          "name": "toValidatorID",
          "type": "uint256"
        }
      ],
      "name": "claimRewards",
      "outputs": [],
      "payable": false,
      "stateMutability": "nonpayable",
      "type": "function"
    },
    {
      "constant": true,
      "inputs": [],
      "name": "contractCommission",
      "outputs": [
        {
          "internalType": "uint256",
          "name": "",
          "type": "uint256"
        }
      ],
      "payable": false,
      "stateMutability": "view",
      "type": "function"
    },
    {
      "constant": false,
      "inputs": [
        {
          "internalType": "bytes",
          "name": "pubkey",
          "type": "bytes"
        }
      ],
      "name": "createValidator",
      "outputs": [],
      "payable": true,
      "stateMutability": "payable",
      "type": "function"
    },
    {
      "constant": true,
      "inputs": [],
      "name": "currentEpoch",
      "outputs": [
        {
          "internalType": "uint256",
          "name": "",
          "type": "uint256"
        }
      ],
      "payable": false,
      "stateMutability": "view",
      "type": "function"
    },
    {
      "constant": true,
      "inputs": [],
      "name": "currentSealedEpoch",
      "outputs": [
        {
          "internalType": "uint256",
          "name": "",
          "type": "uint256"
        }
      ],
      "payable": false,
      "stateMutability": "view",
      "type": "function"
    },
    {
      "constant": false,
      "inputs": [
        {
          "internalType": "uint256",
          "name": "validatorID",
          "type": "uint256"
        },
        {
          "internalType": "uint256",
          "name": "status",
          "type": "uint256"
        }
      ],
      "name": "deactivateValidator",
      "outputs": [],
      "payable": false,
      "stateMutability": "nonpayable",
      "type": "function"
    },
    {
      "constant": false,
      "inputs": [
        {
          "internalType": "uint256",
          "name": "toValidatorID",
          "type": "uint256"
        }
      ],
      "name": "delegate",
      "outputs": [],
      "payable": true,
      "stateMutability": "payable",
      "type": "function"
    },
    {
      "constant": true,
      "inputs": [
        {
          "internalType": "uint256",
          "name": "epoch",
          "type": "uint256"
        },
        {
          "internalType": "uint256",
          "name": "validatorID",
          "type": "uint256"
        }
      ],
      "name": "getEpochAccumulatedOriginatedTxsFee",
      "outputs": [
        {
          "internalType": "uint256",
          "name": "",
          "type": "uint256"
        }
      ],
      "payable": false,
      "stateMutability": "view",
      "type": "function"
    },
    {
      "constant": true,
      "inputs": [
        {
          "internalType": "uint256",
          "name": "epoch",
          "type": "uint256"
        },
        {
          "internalType": "uint256",
          "name": "validatorID",
          "type": "uint256"
        }
      ],
      "name": "getEpochAccumulatedRewardPerToken",
      "outputs": [
        {
          "internalType": "uint256",
          "name": "",
          "type": "uint256"
        }
      ],
      "payable": false,
      "stateMutability": "view",
      "type": "function"
    },
    {
      "constant": true,
      "inputs": [
        {
          "internalType": "uint256",
          "name": "epoch",
          "type": "uint256"
        },
        {
          "internalType": "uint256",
          "name": "validatorID",
          "type": "uint256"
        }
      ],
      "name": "getEpochAccumulatedUptime",
      "outputs": [
        {
          "internalType": "uint256",
          "name": "",
          "type": "uint256"
        }
      ],
      "payable": false,
      "stateMutability": "view",
      "type": "function"
    },
    {
      "constant": true,
      "inputs": [
        {
          "internalType": "uint256",
          "name": "epoch",
          "type": "uint256"
        },
        {
          "internalType": "uint256",
          "name": "validatorID",
          "type": "uint256"
        }
      ],
      "name": "getEpochOfflineBlocks",
      "outputs": [
        {
          "internalType": "uint256",
          "name": "",
          "type": "uint256"
        }
      ],
      "payable": false,
      "stateMutability": "view",
      "type": "function"
    },
    {
      "constant": true,
      "inputs": [
        {
          "internalType": "uint256",
          "name": "epoch",
          "type": "uint256"
        },
        {
          "internalType": "uint256",
          "name": "validatorID",
          "type": "uint256"
        }
      ],
      "name": "getEpochOfflineTime",
      "outputs": [
        {
          "internalType": "uint256",
          "name": "",
          "type": "uint256"
        }
      ],
      "payable": false,
      "stateMutability": "view",
      "type": "function"
    },
    {
      "constant": true,
      "inputs": [
        {
          "internalType": "uint256",
          "name": "epoch",
          "type": "uint256"
        },
        {
          "internalType": "uint256",
          "name": "validatorID",
          "type": "uint256"
        }
      ],
      "name": "getEpochReceivedStake",
      "outputs": [
        {
          "internalType": "uint256",
          "name": "",
          "type": "uint256"
        }
      ],
      "payable": false,
      "stateMutability": "view",
      "type": "function"
    },
    {
      "constant": true,
      "inputs": [
        {
          "internalType": "uint256",
          "name": "",
          "type": "uint256"
        }
      ],
      "name": "getEpochSnapshot",
      "outputs": [
        {
          "internalType": "uint256",
          "name": "endTime",
          "type": "uint256"
        },
        {
          "internalType": "uint256",
          "name": "epochFee",
          "type": "uint256"
        },
        {
          "internalType": "uint256",
          "name": "totalBaseRewardWeight",
          "type": "uint256"
        },
        {
          "internalType": "uint256",
          "name": "totalTxRewardWeight",
          "type": "uint256"
        },
        {
          "internalType": "uint256",
          "name": "baseRewardPerSecond",
          "type": "uint256"
        },
        {
          "internalType": "uint256",
          "name": "totalStake",
          "type": "uint256"
        },
        {
          "internalType": "uint256",
          "name": "totalSupply",
          "type": "uint256"
        }
      ],
      "payable": false,
      "stateMutability": "view",
      "type": "function"
    },
    {
      "constant": true,
      "inputs": [
        {
          "internalType": "uint256",
          "name": "epoch",
          "type": "uint256"
        }
      ],
      "name": "getEpochValidatorIDs",
      "outputs": [
        {
          "internalType": "uint256[]",
          "name": "",
          "type": "uint256[]"
        }
      ],
      "payable": false,
      "stateMutability": "view",
      "type": "function"
    },
    {
      "constant": true,
      "inputs": [
        {
          "internalType": "address",
          "name": "delegator",
          "type": "address"
        },
        {
          "internalType": "uint256",
          "name": "toValidatorID",
          "type": "uint256"
        }
      ],
      "name": "getLockedStake",
      "outputs": [
        {
          "internalType": "uint256",
          "name": "",
          "type": "uint256"
        }
      ],
      "payable": false,
      "stateMutability": "view",
      "type": "function"
    },
    {
      "constant": true,
      "inputs": [
        {
          "internalType": "address",
          "name": "",
          "type": "address"
        },
        {
          "internalType": "uint256",
          "name": "",
          "type": "uint256"
        }
      ],
      "name": "getLockupInfo",
      "outputs": [
        {
          "internalType": "uint256",
          "name": "lockedStake",
          "type": "uint256"
        },
        {
          "internalType": "uint256",
          "name": "fromEpoch",
          "type": "uint256"
        },
        {
          "internalType": "uint256",
          "name": "endTime",
          "type": "uint256"
        },
        {
          "internalType": "uint256",
          "name": "duration",
          "type": "uint256"
        }
      ],
      "payable": false,
      "stateMutability": "view",
      "type": "function"
    },
    {
      "constant": true,
      "inputs": [
        {
          "internalType": "uint256",
          "name": "validatorID",
          "type": "uint256"
        }
      ],
      "name": "getSelfStake",
      "outputs": [
        {
          "internalType": "uint256",
          "name": "",
          "type": "uint256"
        }
      ],
      "payable": false,
      "stateMutability": "view",
      "type": "function"
    },
    {
      "constant": true,
      "inputs": [
        {
          "internalType": "address",
          "name": "",
          "type": "address"
        },
        {
          "internalType": "uint256",
          "name": "",
          "type": "uint256"
        }
      ],
      "name": "getStake",
      "outputs": [
        {
          "internalType": "uint256",
          "name": "",
          "type": "uint256"
        }
      ],
      "payable": false,
      "stateMutability": "view",
      "type": "function"
    },
    {
      "constant": true,
      "inputs": [
        {
          "internalType": "address",
          "name": "",
          "type": "address"
        },
        {
          "internalType": "uint256",
          "name": "",
          "type": "uint256"
        }
      ],
      "name": "getStashedLockupRewards",
      "outputs": [
        {
          "internalType": "uint256",
          "name": "lockupExtraReward",
          "type": "uint256"
        },
        {
          "internalType": "uint256",
          "name": "lockupBaseReward",
          "type": "uint256"
        },
        {
          "internalType": "uint256",
          "name": "unlockedReward",
          "type": "uint256"
        }
      ],
      "payable": false,
      "stateMutability": "view",
      "type": "function"
    },
    {
      "constant": true,
      "inputs": [
        {
          "internalType": "address",
          "name": "delegator",
          "type": "address"
        },
        {
          "internalType": "uint256",
          "name": "toValidatorID",
          "type": "uint256"
        }
      ],
      "name": "getUnlockedStake",
      "outputs": [
        {
          "internalType": "uint256",
          "name": "",
          "type": "uint256"
        }
      ],
      "payable": false,
      "stateMutability": "view",
      "type": "function"
    },
    {
      "constant": true,
      "inputs": [
        {
          "internalType": "uint256",
          "name": "",
          "type": "uint256"
        }
      ],
      "name": "getValidator",
      "outputs": [
        {
          "internalType": "uint256",
          "name": "status",
          "type": "uint256"
        },
        {
          "internalType": "uint256",
          "name": "deactivatedTime",
          "type": "uint256"
        },
        {
          "internalType": "uint256",
          "name": "deactivatedEpoch",
          "type": "uint256"
        },
        {
          "internalType": "uint256",
          "name": "receivedStake",
          "type": "uint256"
        },
        {
          "internalType": "uint256",
          "name": "createdEpoch",
          "type": "uint256"
        },
        {
          "internalType": "uint256",
          "name": "createdTime",
          "type": "uint256"
        },
        {
          "internalType": "address",
          "name": "auth",
          "type": "address"
        }
      ],
      "payable": false,
      "stateMutability": "view",
      "type": "function"
    },
    {
      "constant": true,
      "inputs": [
        {
          "internalType": "address",
          "name": "",
          "type": "address"
        }
      ],
      "name": "getValidatorID",
      "outputs": [
        {
          "internalType": "uint256",
          "name": "",
          "type": "uint256"
        }
      ],
      "payable": false,
      "stateMutability": "view",
      "type": "function"
    },
    {
      "constant": true,
      "inputs": [
        {
          "internalType": "uint256",
          "name": "",
          "type": "uint256"
        }
      ],
      "name": "getValidatorPubkey",
      "outputs": [
        {
          "internalType": "bytes",
          "name": "",
          "type": "bytes"
        }
      ],
      "payable": false,
      "stateMutability": "view",
      "type": "function"
    },
    {
      "constant": true,
      "inputs": [
        {
          "internalType": "address",
          "name": "",
          "type": "address"
        },
        {
          "internalType": "uint256",
          "name": "",
          "type": "uint256"
        },
        {
          "internalType": "uint256",
          "name": "",
          "type": "uint256"
        }
      ],
      "name": "getWithdrawalRequest",
      "outputs": [
        {
          "internalType": "uint256",
          "name": "epoch",
          "type": "uint256"
        },
        {
          "internalType": "uint256",
          "name": "time",
          "type": "uint256"
        },
        {
          "internalType": "uint256",
          "name": "amount",
          "type": "uint256"
        }
      ],
      "payable": false,
      "stateMutability": "view",
      "type": "function"
    },
    {
      "constant": true,
      "inputs": [],
      "name": "governance",
      "outputs": [
        {
          "internalType": "address",
          "name": "",
          "type": "address"
        }
      ],
      "payable": false,
      "stateMutability": "view",
      "type": "function"
    },
    {
      "constant": false,
      "inputs": [
        {
          "internalType": "uint256",
          "name": "sealedEpoch",
          "type": "uint256"
        },
        {
          "internalType": "uint256",
          "name": "_totalSupply",
          "type": "uint256"
        },
        {
          "internalType": "address",
          "name": "nodeDriver",
          "type": "address"
        },
        {
          "internalType": "address",
          "name": "owner",
          "type": "address"
        },
        {
          "internalType": "address",
          "name": "governance",
          "type": "address"
        }
      ],
      "name": "initialize",
      "outputs": [],
      "payable": false,
      "stateMutability": "nonpayable",
      "type": "function"
    },
    {
      "constant": true,
      "inputs": [],
      "name": "isGovernance",
      "outputs": [
        {
          "internalType": "bool",
          "name": "",
          "type": "bool"
        }
      ],
      "payable": false,
      "stateMutability": "view",
      "type": "function"
    },
    {
      "constant": true,
      "inputs": [
        {
          "internalType": "address",
          "name": "delegator",
          "type": "address"
        },
        {
          "internalType": "uint256",
          "name": "toValidatorID",
          "type": "uint256"
        }
      ],
      "name": "isLockedUp",
      "outputs": [
        {
          "internalType": "bool",
          "name": "",
          "type": "bool"
        }
      ],
      "payable": false,
      "stateMutability": "view",
      "type": "function"
    },
    {
      "constant": true,
      "inputs": [],
      "name": "isOwner",
      "outputs": [
        {
          "internalType": "bool",
          "name": "",
          "type": "bool"
        }
      ],
      "payable": false,
      "stateMutability": "view",
      "type": "function"
    },
    {
      "constant": true,
      "inputs": [
        {
          "internalType": "uint256",
          "name": "validatorID",
          "type": "uint256"
        }
      ],
      "name": "isSlashed",
      "outputs": [
        {
          "internalType": "bool",
          "name": "",
          "type": "bool"
        }
      ],
      "payable": false,
      "stateMutability": "view",
      "type": "function"
    },
    {
      "constant": true,
      "inputs": [],
      "name": "lastValidatorID",
      "outputs": [
        {
          "internalType": "uint256",
          "name": "",
          "type": "uint256"
        }
      ],
      "payable": false,
      "stateMutability": "view",
      "type": "function"
    },
    {
      "constant": false,
      "inputs": [
        {
          "internalType": "uint256",
          "name": "toValidatorID",
          "type": "uint256"
        },
        {
          "internalType": "uint256",
          "name": "lockupDuration",
          "type": "uint256"
        },
        {
          "internalType": "uint256",
          "name": "amount",
          "type": "uint256"
        }
      ],
      "name": "lockStake",
      "outputs": [],
      "payable": false,
      "stateMutability": "nonpayable",
      "type": "function"
    },
    {
      "constant": true,
      "inputs": [],
      "name": "maxDelegatedRatio",
      "outputs": [
        {
          "internalType": "uint256",
          "name": "",
          "type": "uint256"
        }
      ],
      "payable": false,
      "stateMutability": "view",
      "type": "function"
    },
    {
      "constant": true,
      "inputs": [],
      "name": "maxLockupDuration",
      "outputs": [
        {
          "internalType": "uint256",
          "name": "",
          "type": "uint256"
        }
      ],
      "payable": false,
      "stateMutability": "view",
      "type": "function"
    },
    {
      "constant": true,
      "inputs": [],
      "name": "minLockupDuration",
      "outputs": [
        {
          "internalType": "uint256",
          "name": "",
          "type": "uint256"
        }
      ],
      "payable": false,
      "stateMutability": "view",
      "type": "function"
    },
    {
      "constant": true,
      "inputs": [],
      "name": "minSelfStake",
      "outputs": [
        {
          "internalType": "uint256",
          "name": "",
          "type": "uint256"
        }
      ],
      "payable": false,
      "stateMutability": "view",
      "type": "function"
    },
    {
      "constant": false,
      "inputs": [
        {
          "internalType": "address payable",
          "name": "receiver",
          "type": "address"
        },
        {
          "internalType": "uint256",
          "name": "amount",
          "type": "uint256"
        },
        {
          "internalType": "string",
          "name": "justification",
          "type": "string"
        }
      ],
      "name": "mintFTM",
      "outputs": [],
      "payable": false,
      "stateMutability": "nonpayable",
      "type": "function"
    },
    {
      "constant": true,
      "inputs": [],
      "name": "offlinePenaltyThreshold",
      "outputs": [
        {
          "internalType": "uint256",
          "name": "blocksNum",
          "type": "uint256"
        },
        {
          "internalType": "uint256",
          "name": "time",
          "type": "uint256"
        }
      ],
      "payable": false,
      "stateMutability": "view",
      "type": "function"
    },
    {
      "constant": true,
      "inputs": [],
      "name": "owner",
      "outputs": [
        {
          "internalType": "address",
          "name": "",
          "type": "address"
        }
      ],
      "payable": false,
      "stateMutability": "view",
      "type": "function"
    },
    {
      "constant": true,
      "inputs": [
        {
          "internalType": "address",
          "name": "delegator",
          "type": "address"
        },
        {
          "internalType": "uint256",
          "name": "toValidatorID",
          "type": "uint256"
        }
      ],
      "name": "pendingRewards",
      "outputs": [
        {
          "internalType": "uint256",
          "name": "",
          "type": "uint256"
        }
      ],
      "payable": false,
      "stateMutability": "view",
      "type": "function"
    },
    {
      "constant": false,
      "inputs": [
        {
          "internalType": "uint256",
          "name": "toValidatorID",
          "type": "uint256"
        },
        {
          "internalType": "uint256",
          "name": "lockupDuration",
          "type": "uint256"
        },
        {
          "internalType": "uint256",
          "name": "amount",
          "type": "uint256"
        }
      ],
      "name": "relockStake",
      "outputs": [],
      "payable": false,
      "stateMutability": "nonpayable",
      "type": "function"
    },
    {
      "constant": false,
      "inputs": [],
      "name": "renounceOwnership",
      "outputs": [],
      "payable": false,
      "stateMutability": "nonpayable",
      "type": "function"
    },
    {
      "constant": false,
      "inputs": [
        {
          "internalType": "uint256",
          "name": "toValidatorID",
          "type": "uint256"
        }
      ],
      "name": "restakeRewards",
      "outputs": [],
      "payable": false,
      "stateMutability": "nonpayable",
      "type": "function"
    },
    {
      "constant": true,
      "inputs": [
        {
          "internalType": "address",
          "name": "delegator",
          "type": "address"
        },
        {
          "internalType": "uint256",
          "name": "validatorID",
          "type": "uint256"
        }
      ],
      "name": "rewardsStash",
      "outputs": [
        {
          "internalType": "uint256",
          "name": "",
          "type": "uint256"
        }
      ],
      "payable": false,
      "stateMutability": "view",
      "type": "function"
    },
    {
      "constant": false,
      "inputs": [
        {
          "internalType": "uint256[]",
          "name": "offlineTime",
          "type": "uint256[]"
        },
        {
          "internalType": "uint256[]",
          "name": "offlineBlocks",
          "type": "uint256[]"
        },
        {
          "internalType": "uint256[]",
          "name": "uptimes",
          "type": "uint256[]"
        },
        {
          "internalType": "uint256[]",
          "name": "originatedTxsFee",
          "type": "uint256[]"
        }
      ],
      "name": "sealEpoch",
      "outputs": [],
      "payable": false,
      "stateMutability": "nonpayable",
      "type": "function"
    },
    {
      "constant": false,
      "inputs": [
        {
          "internalType": "uint256[]",
          "name": "nextValidatorIDs",
          "type": "uint256[]"
        }
      ],
      "name": "sealEpochValidators",
      "outputs": [],
      "payable": false,
      "stateMutability": "nonpayable",
      "type": "function"
    },
    {
      "constant": false,
      "inputs": [
        {
          "internalType": "uint256",
          "name": "_contractCommission",
          "type": "uint256"
        }
      ],
      "name": "setContractCommission",
      "outputs": [],
      "payable": false,
      "stateMutability": "nonpayable",
      "type": "function"
    },
    {
      "constant": false,
      "inputs": [
        {
          "internalType": "address",
          "name": "delegator",
          "type": "address"
        },
        {
          "internalType": "uint256",
          "name": "toValidatorID",
          "type": "uint256"
        },
        {
          "internalType": "uint256",
          "name": "stake",
          "type": "uint256"
        },
        {
          "internalType": "uint256",
          "name": "lockedStake",
          "type": "uint256"
        },
        {
          "internalType": "uint256",
          "name": "lockupFromEpoch",
          "type": "uint256"
        },
        {
          "internalType": "uint256",
          "name": "lockupEndTime",
          "type": "uint256"
        },
        {
          "internalType": "uint256",
          "name": "lockupDuration",
          "type": "uint256"
        },
        {
          "internalType": "uint256",
          "name": "earlyUnlockPenalty",
          "type": "uint256"
        },
        {
          "internalType": "uint256",
          "name": "rewards",
          "type": "uint256"
        }
      ],
      "name": "setGenesisDelegation",
      "outputs": [],
      "payable": false,
      "stateMutability": "nonpayable",
      "type": "function"
    },
    {
      "constant": false,
      "inputs": [
        {
          "internalType": "address",
          "name": "auth",
          "type": "address"
        },
        {
          "internalType": "uint256",
          "name": "validatorID",
          "type": "uint256"
        },
        {
          "internalType": "bytes",
          "name": "pubkey",
          "type": "bytes"
        },
        {
          "internalType": "uint256",
          "name": "status",
          "type": "uint256"
        },
        {
          "internalType": "uint256",
          "name": "createdEpoch",
          "type": "uint256"
        },
        {
          "internalType": "uint256",
          "name": "createdTime",
          "type": "uint256"
        },
        {
          "internalType": "uint256",
          "name": "deactivatedEpoch",
          "type": "uint256"
        },
        {
          "internalType": "uint256",
          "name": "deactivatedTime",
          "type": "uint256"
        }
      ],
      "name": "setGenesisValidator",
      "outputs": [],
      "payable": false,
      "stateMutability": "nonpayable",
      "type": "function"
    },
    {
      "constant": false,
      "inputs": [
        {
          "internalType": "uint256",
          "name": "_maxDelegationRatio",
          "type": "uint256"
        }
      ],
      "name": "setMaxDelegation",
      "outputs": [],
      "payable": false,
      "stateMutability": "nonpayable",
      "type": "function"
    },
    {
      "constant": false,
      "inputs": [
        {
          "internalType": "uint256",
          "name": "_maxLockupDuration",
          "type": "uint256"
        }
      ],
      "name": "setMaxLockupDuration",
      "outputs": [],
      "payable": false,
      "stateMutability": "nonpayable",
      "type": "function"
    },
    {
      "constant": false,
      "inputs": [
        {
          "internalType": "uint256",
          "name": "_minLockupDuration",
          "type": "uint256"
        }
      ],
      "name": "setMinLockupDuration",
      "outputs": [],
      "payable": false,
      "stateMutability": "nonpayable",
      "type": "function"
    },
    {
      "constant": false,
      "inputs": [
        {
          "internalType": "uint256",
          "name": "_minSelfStake",
          "type": "uint256"
        }
      ],
      "name": "setMinSelfStake",
      "outputs": [],
      "payable": false,
      "stateMutability": "nonpayable",
      "type": "function"
    },
    {
      "constant": false,
      "inputs": [
        {
          "internalType": "uint256",
          "name": "_unlockedReward",
          "type": "uint256"
        }
      ],
      "name": "setUnlockedRewardRatio",
      "outputs": [],
      "payable": false,
      "stateMutability": "nonpayable",
      "type": "function"
    },
    {
      "constant": false,
      "inputs": [
        {
          "internalType": "uint256",
          "name": "_validatorCommission",
          "type": "uint256"
        }
      ],
      "name": "setValidatorCommission",
      "outputs": [],
      "payable": false,
      "stateMutability": "nonpayable",
      "type": "function"
    },
    {
      "constant": false,
      "inputs": [
        {
          "internalType": "uint256",
          "name": "_withdrawalPeriodEpochs",
          "type": "uint256"
        }
      ],
      "name": "setWithdrawalPeriodEpoch",
      "outputs": [],
      "payable": false,
      "stateMutability": "nonpayable",
      "type": "function"
    },
    {
      "constant": false,
      "inputs": [
        {
          "internalType": "uint256",
          "name": "_withdrawalPeriodTime",
          "type": "uint256"
        }
      ],
      "name": "setWithdrawalPeriodTime",
      "outputs": [],
      "payable": false,
      "stateMutability": "nonpayable",
      "type": "function"
    },
    {
      "constant": true,
      "inputs": [
        {
          "internalType": "uint256",
          "name": "",
          "type": "uint256"
        }
      ],
      "name": "slashingRefundRatio",
      "outputs": [
        {
          "internalType": "uint256",
          "name": "",
          "type": "uint256"
        }
      ],
      "payable": false,
      "stateMutability": "view",
      "type": "function"
    },
    {
      "constant": true,
      "inputs": [],
      "name": "stakeTokenizerAddress",
      "outputs": [
        {
          "internalType": "address",
          "name": "",
          "type": "address"
        }
      ],
      "payable": false,
      "stateMutability": "view",
      "type": "function"
    },
    {
      "constant": false,
      "inputs": [
        {
          "internalType": "address",
          "name": "delegator",
          "type": "address"
        },
        {
          "internalType": "uint256",
          "name": "toValidatorID",
          "type": "uint256"
        }
      ],
      "name": "stashRewards",
      "outputs": [],
      "payable": false,
      "stateMutability": "nonpayable",
      "type": "function"
    },
    {
      "constant": true,
      "inputs": [
        {
          "internalType": "address",
          "name": "",
          "type": "address"
        },
        {
          "internalType": "uint256",
          "name": "",
          "type": "uint256"
        }
      ],
      "name": "stashedRewardsUntilEpoch",
      "outputs": [
        {
          "internalType": "uint256",
          "name": "",
          "type": "uint256"
        }
      ],
      "payable": false,
      "stateMutability": "view",
      "type": "function"
    },
    {
      "constant": true,
      "inputs": [],
      "name": "totalActiveStake",
      "outputs": [
        {
          "internalType": "uint256",
          "name": "",
          "type": "uint256"
        }
      ],
      "payable": false,
      "stateMutability": "view",
      "type": "function"
    },
    {
      "constant": true,
      "inputs": [],
      "name": "totalSlashedStake",
      "outputs": [
        {
          "internalType": "uint256",
          "name": "",
          "type": "uint256"
        }
      ],
      "payable": false,
      "stateMutability": "view",
      "type": "function"
    },
    {
      "constant": true,
      "inputs": [],
      "name": "totalStake",
      "outputs": [
        {
          "internalType": "uint256",
          "name": "",
          "type": "uint256"
        }
      ],
      "payable": false,
      "stateMutability": "view",
      "type": "function"
    },
    {
      "constant": true,
      "inputs": [],
      "name": "totalSupply",
      "outputs": [
        {
          "internalType": "uint256",
          "name": "",
          "type": "uint256"
        }
      ],
      "payable": false,
      "stateMutability": "view",
      "type": "function"
    },
    {
      "constant": false,
      "inputs": [
        {
          "internalType": "address",
          "name": "newGovernance",
          "type": "address"
        }
      ],
      "name": "transferGovernance",
      "outputs": [],
      "payable": false,
      "stateMutability": "nonpayable",
      "type": "function"
    },
    {
      "constant": false,
      "inputs": [
        {
          "internalType": "address",
          "name": "newOwner",
          "type": "address"
        }
      ],
      "name": "transferOwnership",
      "outputs": [],
      "payable": false,
      "stateMutability": "nonpayable",
      "type": "function"
    },
    {
      "constant": false,
      "inputs": [
        {
          "internalType": "uint256",
          "name": "toValidatorID",
          "type": "uint256"
        },
        {
          "internalType": "uint256",
          "name": "wrID",
          "type": "uint256"
        },
        {
          "internalType": "uint256",
          "name": "amount",
          "type": "uint256"
        }
      ],
      "name": "undelegate",
      "outputs": [],
      "payable": false,
      "stateMutability": "nonpayable",
      "type": "function"
    },
    {
      "constant": false,
      "inputs": [
        {
          "internalType": "uint256",
          "name": "toValidatorID",
          "type": "uint256"
        },
        {
          "internalType": "uint256",
          "name": "amount",
          "type": "uint256"
        }
      ],
      "name": "unlockStake",
      "outputs": [
        {
          "internalType": "uint256",
          "name": "",
          "type": "uint256"
        }
      ],
      "payable": false,
      "stateMutability": "nonpayable",
      "type": "function"
    },
    {
      "constant": true,
      "inputs": [],
      "name": "unlockedRewardRatio",
      "outputs": [
        {
          "internalType": "uint256",
          "name": "",
          "type": "uint256"
        }
      ],
      "payable": false,
      "stateMutability": "view",
      "type": "function"
    },
    {
      "constant": false,
      "inputs": [
        {
          "internalType": "uint256",
          "name": "value",
          "type": "uint256"
        }
      ],
      "name": "updateBaseRewardPerSecond",
      "outputs": [],
      "payable": false,
      "stateMutability": "nonpayable",
      "type": "function"
    },
    {
      "constant": false,
      "inputs": [
        {
          "internalType": "uint256",
          "name": "blocksNum",
          "type": "uint256"
        },
        {
          "internalType": "uint256",
          "name": "time",
          "type": "uint256"
        }
      ],
      "name": "updateOfflinePenaltyThreshold",
      "outputs": [],
      "payable": false,
      "stateMutability": "nonpayable",
      "type": "function"
    },
    {
      "constant": false,
      "inputs": [
        {
          "internalType": "uint256",
          "name": "validatorID",
          "type": "uint256"
        },
        {
          "internalType": "uint256",
          "name": "refundRatio",
          "type": "uint256"
        }
      ],
      "name": "updateSlashingRefundRatio",
      "outputs": [],
      "payable": false,
      "stateMutability": "nonpayable",
      "type": "function"
    },
    {
      "constant": false,
      "inputs": [
        {
          "internalType": "address",
          "name": "addr",
          "type": "address"
        }
      ],
      "name": "updateStakeTokenizerAddress",
      "outputs": [],
      "payable": false,
      "stateMutability": "nonpayable",
      "type": "function"
    },
    {
      "constant": false,
      "inputs": [
        {
          "internalType": "int256",
          "name": "diff",
          "type": "int256"
        }
      ],
      "name": "updateTotalSupply",
      "outputs": [],
      "payable": false,
      "stateMutability": "nonpayable",
      "type": "function"
    },
    {
      "constant": true,
      "inputs": [],
      "name": "validatorCommission",
      "outputs": [
        {
          "internalType": "uint256",
          "name": "",
          "type": "uint256"
        }
      ],
      "payable": false,
      "stateMutability": "view",
      "type": "function"
    },
    {
      "constant": true,
      "inputs": [],
      "name": "version",
      "outputs": [
        {
          "internalType": "bytes3",
          "name": "",
          "type": "bytes3"
        }
      ],
      "payable": false,
      "stateMutability": "pure",
      "type": "function"
    },
    {
      "constant": false,
      "inputs": [
        {
          "internalType": "uint256",
          "name": "toValidatorID",
          "type": "uint256"
        },
        {
          "internalType": "uint256",
          "name": "wrID",
          "type": "uint256"
        }
      ],
      "name": "withdraw",
      "outputs": [],
      "payable": false,
      "stateMutability": "nonpayable",
      "type": "function"
    },
    {
      "constant": true,
      "inputs": [],
      "name": "withdrawalPeriodEpochs",
      "outputs": [
        {
          "internalType": "uint256",
          "name": "",
          "type": "uint256"
        }
      ],
      "payable": false,
      "stateMutability": "view",
      "type": "function"
    },
    {
      "constant": true,
      "inputs": [],
      "name": "withdrawalPeriodTime",
      "outputs": [
        {
          "internalType": "uint256",
          "name": "",
          "type": "uint256"
        }
      ],
      "payable": false,
      "stateMutability": "view",
      "type": "function"
    }
  ],
  "bytecode": "0x608060405234801561001057600080fd5b5061621180620000216000396000f3fe6080604052600436106104945760003560e01c8063854873e111610260578063c5f530af11610144578063db3a4bc6116100c1578063e261641a11610085578063e261641a146113c1578063e2f8c336146113f1578063e4af78be14611481578063ebdf104c146114ab578063f2fde38b14611616578063f78bf1101461164957610494565b8063db3a4bc61461129b578063dc31e1af146112b0578063de67f215146112e0578063df00c92214611316578063e08d7e661461134657610494565b8063cfd4766311610108578063cfd47663146111b7578063cfdbb7cd146111f0578063d38bfff414611229578063d75629cf1461125c578063d9a7c1f91461128657610494565b8063c5f530af14611107578063c65ee0e11461111c578063c7be95de14611146578063cc8343aa1461115b578063cefe9c181461118d57610494565b8063a5a470ad116101dd578063b6d9edd5116101a1578063b6d9edd514610fb5578063b810e41114610fdf578063b82b842714611018578063b88a37e21461102d578063bd14d907146110a7578063c3de580e146110dd57610494565b8063a5a470ad14610e64578063a778651514610ed2578063a86a056f14610ee7578063ad9a4b5c14610f20578063b5d8962714610f4a57610494565b80638f32d59b116102245780638f32d59b14610d5c57806396c7ee4614610d855780639fa6dd3514610de4578063a198d22914610e01578063a2f6e6bc14610e3157610494565b8063854873e114610c2a5780638b0e9f3f14610cc95780638b1a0d1114610cde5780638cddb01514610d0e5780638da5cb5b14610d4757610494565b80633fbfd4df116103875780635e2308d211610304578063670322f8116102c8578063670322f814610b4f5780636ca6d6bc14610b885780636f49866314610bb2578063715018a614610beb5780637667180814610c005780637cacb1d614610c1557610494565b80635e2308d214610aa75780635fab23a814610abc5780636099ecb214610ad157806361e53fcc14610b0a578063650acd6614610b3a57610494565b80634feb92f31161034b5780634feb92f31461095d57806354fd4d5014610a065780635601fe0114610a3857806358f95b8014610a625780635aa6e67514610a9257610494565b80633fbfd4df1461084c5780634055f2731461089d578063441a3e70146108c75780634f7c4efb146108f75780634f864df41461092757610494565b80631d3ac42c1161041557806328f73148116103d957806328f73148146107535780632cedb097146107685780632d2646ed14610796578063346bdcfb146107c057806339b80c00146107ea57610494565b80631d3ac42c1461066c5780631e702f831461069c5780631f270152146106cc5780632265f284146107295780632709275e1461073e57610494565b80630d7b26091161045c5780630d7b2609146105735780630e559d821461058857806312622d0e146105b957806318160ddd146105f257806318f628d41461060757610494565b80630135b1db1461049957806303c91ccd146104de57806308c368741461050a5780630962ef79146105345780630d4955e31461055e575b600080fd5b3480156104a557600080fd5b506104cc600480360360208110156104bc57600080fd5b50356001600160a01b0316611673565b60408051918252519081900360200190f35b3480156104ea57600080fd5b506105086004803603602081101561050157600080fd5b5035611685565b005b34801561051657600080fd5b506105086004803603602081101561052d57600080fd5b50356116e2565b34801561054057600080fd5b506105086004803603602081101561055757600080fd5b50356117ae565b34801561056a57600080fd5b506104cc6118ee565b34801561057f57600080fd5b506104cc6118f9565b34801561059457600080fd5b5061059d611902565b604080516001600160a01b039092168252519081900360200190f35b3480156105c557600080fd5b506104cc600480360360408110156105dc57600080fd5b506001600160a01b038135169060200135611911565b3480156105fe57600080fd5b506104cc61199a565b34801561061357600080fd5b50610508600480360361012081101561062b57600080fd5b506001600160a01b038135169060208101359060408101359060608101359060808101359060a08101359060c08101359060e08101359061010001356119a0565b34801561067857600080fd5b506104cc6004803603604081101561068f57600080fd5b5080359060200135611b00565b3480156106a857600080fd5b50610508600480360360408110156106bf57600080fd5b5080359060200135611cd8565b3480156106d857600080fd5b5061070b600480360360608110156106ef57600080fd5b506001600160a01b038135169060208101359060400135611d76565b60408051938452602084019290925282820152519081900360600190f35b34801561073557600080fd5b506104cc611da8565b34801561074a57600080fd5b506104cc611dbb565b34801561075f57600080fd5b506104cc611dd8565b34801561077457600080fd5b5061077d611dde565b6040805192835260208301919091528051918290030190f35b3480156107a257600080fd5b50610508600480360360208110156107b957600080fd5b5035611de8565b3480156107cc57600080fd5b50610508600480360360208110156107e357600080fd5b5035611e42565b3480156107f657600080fd5b506108146004803603602081101561080d57600080fd5b5035611eae565b604080519788526020880196909652868601949094526060860192909252608085015260a084015260c0830152519081900360e00190f35b34801561085857600080fd5b50610508600480360360a081101561086f57600080fd5b508035906020810135906001600160a01b036040820135811691606081013582169160809091013516611ef0565b3480156108a957600080fd5b50610508600480360360208110156108c057600080fd5b5035612002565b3480156108d357600080fd5b50610508600480360360408110156108ea57600080fd5b508035906020013561205c565b34801561090357600080fd5b506105086004803603604081101561091a57600080fd5b5080359060200135612459565b34801561093357600080fd5b506105086004803603606081101561094a57600080fd5b508035906020810135906040013561258b565b34801561096957600080fd5b50610508600480360361010081101561098157600080fd5b6001600160a01b0382351691602081013591810190606081016040820135600160201b8111156109b057600080fd5b8201836020820111156109c257600080fd5b803590602001918460018302840111600160201b831117156109e357600080fd5b919350915080359060208101359060408101359060608101359060800135612803565b348015610a1257600080fd5b50610a1b6128a9565b604080516001600160e81b03199092168252519081900360200190f35b348015610a4457600080fd5b506104cc60048036036020811015610a5b57600080fd5b50356128b3565b348015610a6e57600080fd5b506104cc60048036036040811015610a8557600080fd5b50803590602001356128e9565b348015610a9e57600080fd5b5061059d612906565b348015610ab357600080fd5b506104cc612915565b348015610ac857600080fd5b506104cc61292c565b348015610add57600080fd5b506104cc60048036036040811015610af457600080fd5b506001600160a01b038135169060200135612932565b348015610b1657600080fd5b506104cc60048036036040811015610b2d57600080fd5b5080359060200135612970565b348015610b4657600080fd5b506104cc612991565b348015610b5b57600080fd5b506104cc60048036036040811015610b7257600080fd5b506001600160a01b038135169060200135612997565b348015610b9457600080fd5b5061050860048036036020811015610bab57600080fd5b50356129d8565b348015610bbe57600080fd5b506104cc60048036036040811015610bd557600080fd5b506001600160a01b038135169060200135612a32565b348015610bf757600080fd5b50610508612a9c565b348015610c0c57600080fd5b506104cc612b1b565b348015610c2157600080fd5b506104cc612b24565b348015610c3657600080fd5b50610c5460048036036020811015610c4d57600080fd5b5035612b2a565b6040805160208082528351818301528351919283929083019185019080838360005b83811015610c8e578181015183820152602001610c76565b50505050905090810190601f168015610cbb5780820380516001836020036101000a031916815260200191505b509250505060405180910390f35b348015610cd557600080fd5b506104cc612bc5565b348015610cea57600080fd5b5061050860048036036040811015610d0157600080fd5b5080359060200135612bcb565b348015610d1a57600080fd5b5061050860048036036040811015610d3157600080fd5b506001600160a01b038135169060200135612c5b565b348015610d5357600080fd5b5061059d612ca9565b348015610d6857600080fd5b50610d71612cb8565b604080519115158252519081900360200190f35b348015610d9157600080fd5b50610dbe60048036036040811015610da857600080fd5b506001600160a01b038135169060200135612cc9565b604080519485526020850193909352838301919091526060830152519081900360800190f35b61050860048036036020811015610dfa57600080fd5b5035612cfb565b348015610e0d57600080fd5b506104cc60048036036040811015610e2457600080fd5b5080359060200135612d06565b348015610e3d57600080fd5b5061050860048036036020811015610e5457600080fd5b50356001600160a01b0316612d27565b61050860048036036020811015610e7a57600080fd5b810190602081018135600160201b811115610e9457600080fd5b820183602082011115610ea657600080fd5b803590602001918460018302840111600160201b83111715610ec757600080fd5b509092509050612d90565b348015610ede57600080fd5b506104cc612e83565b348015610ef357600080fd5b506104cc60048036036040811015610f0a57600080fd5b506001600160a01b038135169060200135612e9a565b348015610f2c57600080fd5b5061050860048036036020811015610f4357600080fd5b5035612eb7565b348015610f5657600080fd5b50610f7460048036036020811015610f6d57600080fd5b5035612f11565b604080519788526020880196909652868601949094526060860192909252608085015260a08401526001600160a01b031660c0830152519081900360e00190f35b348015610fc157600080fd5b5061050860048036036020811015610fd857600080fd5b5035612f57565b348015610feb57600080fd5b5061070b6004803603604081101561100257600080fd5b506001600160a01b038135169060200135613037565b34801561102457600080fd5b506104cc613063565b34801561103957600080fd5b506110576004803603602081101561105057600080fd5b5035613069565b60408051602080825283518183015283519192839290830191858101910280838360005b8381101561109357818101518382015260200161107b565b505050509050019250505060405180910390f35b3480156110b357600080fd5b50610508600480360360608110156110ca57600080fd5b50803590602081013590604001356130ce565b3480156110e957600080fd5b50610d716004803603602081101561110057600080fd5b50356130e1565b34801561111357600080fd5b506104cc6130f8565b34801561112857600080fd5b506104cc6004803603602081101561113f57600080fd5b5035613108565b34801561115257600080fd5b506104cc61311a565b34801561116757600080fd5b506105086004803603604081101561117e57600080fd5b50803590602001351515613120565b34801561119957600080fd5b50610508600480360360208110156111b057600080fd5b5035613303565b3480156111c357600080fd5b506104cc600480360360408110156111da57600080fd5b506001600160a01b03813516906020013561335d565b3480156111fc57600080fd5b50610d716004803603604081101561121357600080fd5b506001600160a01b03813516906020013561337a565b34801561123557600080fd5b506105086004803603602081101561124c57600080fd5b50356001600160a01b0316613410565b34801561126857600080fd5b506105086004803603602081101561127f57600080fd5b503561346a565b34801561129257600080fd5b506104cc6134c4565b3480156112a757600080fd5b50610d716134ca565b3480156112bc57600080fd5b506104cc600480360360408110156112d357600080fd5b50803590602001356134db565b3480156112ec57600080fd5b506105086004803603606081101561130357600080fd5b50803590602081013590604001356134fc565b34801561132257600080fd5b506104cc6004803603604081101561133957600080fd5b5080359060200135613599565b34801561135257600080fd5b506105086004803603602081101561136957600080fd5b810190602081018135600160201b81111561138357600080fd5b82018360208201111561139557600080fd5b803590602001918460208302840111600160201b831117156113b657600080fd5b5090925090506135ba565b3480156113cd57600080fd5b506104cc600480360360408110156113e457600080fd5b5080359060200135613694565b3480156113fd57600080fd5b506105086004803603606081101561141457600080fd5b6001600160a01b0382351691602081013591810190606081016040820135600160201b81111561144357600080fd5b82018360208201111561145557600080fd5b803590602001918460018302840111600160201b8311171561147657600080fd5b5090925090506136b5565b34801561148d57600080fd5b50610508600480360360208110156114a457600080fd5b50356137b4565b3480156114b757600080fd5b50610508600480360360808110156114ce57600080fd5b810190602081018135600160201b8111156114e857600080fd5b8201836020820111156114fa57600080fd5b803590602001918460208302840111600160201b8311171561151b57600080fd5b919390929091602081019035600160201b81111561153857600080fd5b82018360208201111561154a57600080fd5b803590602001918460208302840111600160201b8311171561156b57600080fd5b919390929091602081019035600160201b81111561158857600080fd5b82018360208201111561159a57600080fd5b803590602001918460208302840111600160201b831117156115bb57600080fd5b919390929091602081019035600160201b8111156115d857600080fd5b8201836020820111156115ea57600080fd5b803590602001918460208302840111600160201b8311171561160b57600080fd5b50909250905061380e565b34801561162257600080fd5b506105086004803603602081101561163957600080fd5b50356001600160a01b03166139ea565b34801561165557600080fd5b506105086004803603602081101561166c57600080fd5b5035613a3a565b609d6020526000908152604090205481565b61168d6134ca565b8061169b575061169b612cb8565b6116d65760405162461bcd60e51b81526004018080602001828103825260508152602001806160ef6050913960600191505060405180910390fd5b6116df81613a94565b50565b336116eb615eb4565b6116f58284613acf565b602081015181519192506000916117119163ffffffff613bc316565b9050611734838561172f856040015185613bc390919063ffffffff16565b613c1d565b6001600160a01b038316600081815260a760209081526040808320888452825291829020805485019055845185820151868401518451928352928201528083019190915290518692917f4119153d17a36f9597d40e3ab4148d03261a439dddbec4e91799ab7159608e26919081900360600190a350505050565b336117b7615eb4565b6117c18284613acf565b90506000826001600160a01b03166117fe83604001516117f285602001518660000151613bc390919063ffffffff16565b9063ffffffff613bc316565b604051600081818185875af1925050503d806000811461183a576040519150601f19603f3d011682016040523d82523d6000602084013e61183f565b606091505b505090508061188a576040805162461bcd60e51b81526020600482015260126024820152714661696c656420746f2073656e642046544d60701b604482015290519081900360640190fd5b83836001600160a01b03167fc1d8eb6e444b89fb8ff0991c19311c070df704ccb009e210d1462d5b2410bf4584600001518560200151866040015160405180848152602001838152602001828152602001935050505060405180910390a350505050565b60b45461016d025b90565b60b354600e0290565b60b8546001600160a01b031681565b600061191d838361337a565b61194b57506001600160a01b038216600090815260a660209081526040808320848452909152902054611994565b6001600160a01b038316600081815260a76020908152604080832086845282528083205493835260a682528083208684529091529020546119919163ffffffff613d1a16565b90505b92915050565b60aa5481565b6119a933613d5c565b6119e45760405162461bcd60e51b81526004018080602001828103825260298152602001806160056029913960400191505060405180910390fd5b6119ef898989613d70565b6001600160a01b038916600090815260a3602090815260408083208b84529091529020600201819055611a2187613ed5565b8515611af55786861115611a665760405162461bcd60e51b815260040180806020018281038252602c8152602001806161b1602c913960400191505060405180910390fd5b6001600160a01b038916600081815260a7602090815260408083208c845282528083208a8155600181018a9055600281018990556003810188905584845260a883528184208d855283529281902086905580518781529182018a9052805192938c9390927f138940e95abffcd789b497bf6188bba3afa5fbd22fb5c42c2f6018d1bf0f4e7892908290030190a3505b505050505050505050565b33600081815260a760209081526040808320868452909152812090919083611b5d576040805162461bcd60e51b815260206004820152600b60248201526a1e995c9bc8185b5bdd5b9d60aa1b604482015290519081900360640190fd5b611b67828661337a565b611ba8576040805162461bcd60e51b815260206004820152600d60248201526c06e6f74206c6f636b656420757609c1b604482015290519081900360640190fd5b8054841115611bfe576040805162461bcd60e51b815260206004820152601760248201527f6e6f7420656e6f756768206c6f636b6564207374616b65000000000000000000604482015290519081900360640190fd5b611c088286613f5a565b611c54576040805162461bcd60e51b81526020600482015260186024820152776f75747374616e64696e67207346544d2062616c616e636560401b604482015290519081900360640190fd5b611c5e8286613ffc565b506000611c7183878785600001546141c7565b825486900383559050611c858387836142f8565b85836001600160a01b03167fef6c0c14fe9aa51af36acd791464dec3badbde668b63189b47bfa4e25be9b2b98784604051808381526020018281526020019250505060405180910390a395945050505050565b611ce133613d5c565b611d1c5760405162461bcd60e51b81526004018080602001828103825260298152602001806160056029913960400191505060405180910390fd5b80611d5d576040805162461bcd60e51b815260206004820152600c60248201526b77726f6e672073746174757360a01b604482015290519081900360640190fd5b611d678282614448565b611d72826000613120565b5050565b60a560209081526000938452604080852082529284528284209052825290208054600182015460029092015490919083565b6000611db2614572565b60af5402905090565b60006064611dc7614572565b60b1540281611dd257fe5b04905090565b60a15481565b60ac5460ad549091565b611df06134ca565b80611dfe5750611dfe612cb8565b611e395760405162461bcd60e51b81526004018080602001828103825260508152602001806160ef6050913960600191505060405180910390fd5b6116df8161457e565b611e4a612cb8565b611e89576040805162461bcd60e51b81526020600482018190526024820152600080516020616081833981519152604482015290519081900360640190fd5b60008112611e9e5760aa8054820190556116df565b60aa805460008390039003905550565b60ab60205280600052604060002060009150905080600701549080600801549080600901549080600a01549080600b01549080600c01549080600d0154905087565b600054610100900460ff1680611f095750611f096145b9565b80611f17575060005460ff16155b611f525760405162461bcd60e51b815260040180806020018281038252602e8152602001806160c1602e913960400191505060405180910390fd5b600054610100900460ff16158015611f7d576000805460ff1961ff0019909116610100171660011790555b611f86836145bf565b611f90828461469e565b609b869055609a80546001600160a01b0319166001600160a01b03861617905560aa8590556755cfe697852e904c60a9556103e860ac556203f48060ad55611fd66147c7565b600087815260ab60205260409020600701558015611ffa576000805461ff00191690555b505050505050565b61200a6134ca565b806120185750612018612cb8565b6120535760405162461bcd60e51b81526004018080602001828103825260508152602001806160ef6050913960600191505060405180910390fd5b6116df816147cb565b33612065615eb4565b506001600160a01b038116600090815260a56020908152604080832086845282528083208584528252918290208251606081018452815480825260018301549382019390935260029091015492810192909252612101576040805162461bcd60e51b81526020600482015260156024820152741c995c5d595cdd08191bd95cdb89dd08195e1a5cdd605a1b604482015290519081900360640190fd5b61210b8285613f5a565b612157576040805162461bcd60e51b81526020600482015260186024820152776f75747374616e64696e67207346544d2062616c616e636560401b604482015290519081900360640190fd5b60208082015182516000878152609c9093526040909220600101549091901580159061219357506000868152609c602052604090206001015482115b156121b45750506000848152609c6020526040902060018101546002909101545b6121bc613063565b82016121c66147c7565b1015612212576040805162461bcd60e51b81526020600482015260166024820152751b9bdd08195b9bdd59da081d1a5b59481c185cdcd95960521b604482015290519081900360640190fd5b61221a612991565b8101612224612b1b565b1015612277576040805162461bcd60e51b815260206004820152601860248201527f6e6f7420656e6f7567682065706f636873207061737365640000000000000000604482015290519081900360640190fd5b6001600160a01b038416600090815260a5602090815260408083208984528252808320888452909152812060020154906122b0886130e1565b905060006122d2838360b760008d815260200190815260200160002054614806565b6001600160a01b038816600090815260a5602090815260408083208d845282528083208c84529091528120818155600181018290556002015560a28054820190559050808311612362576040805162461bcd60e51b81526020600482015260166024820152751cdd185ad9481a5cc8199d5b1b1e481cdb185cda195960521b604482015290519081900360640190fd5b60006001600160a01b03881661237e858463ffffffff613d1a16565b604051600081818185875af1925050503d80600081146123ba576040519150601f19603f3d011682016040523d82523d6000602084013e6123bf565b606091505b505090508061240a576040805162461bcd60e51b81526020600482015260126024820152714661696c656420746f2073656e642046544d60701b604482015290519081900360640190fd5b888a896001600160a01b03167f75e161b3e824b114fc1a33274bd7091918dd4e639cede50b78b15a4eea956a21876040518082815260200191505060405180910390a450505050505050505050565b612461612cb8565b6124a0576040805162461bcd60e51b81526020600482018190526024820152600080516020616081833981519152604482015290519081900360640190fd5b6124a9826130e1565b6124fa576040805162461bcd60e51b815260206004820152601760248201527f76616c696461746f722069736e277420736c6173686564000000000000000000604482015290519081900360640190fd5b612502614572565b8111156125405760405162461bcd60e51b815260040180806020018281038252602181526020018061613f6021913960400191505060405180910390fd5b600082815260b760209081526040918290208390558151838152915184927f047575f43f09a7a093d94ec483064acfc61b7e25c0de28017da442abf99cb91792908290030190a25050565b336125968185613ffc565b50600082116125da576040805162461bcd60e51b815260206004820152600b60248201526a1e995c9bc8185b5bdd5b9d60aa1b604482015290519081900360640190fd5b6125e48185611911565b821115612638576040805162461bcd60e51b815260206004820152601960248201527f6e6f7420656e6f75676820756e6c6f636b6564207374616b6500000000000000604482015290519081900360640190fd5b6126428185613f5a565b61268e576040805162461bcd60e51b81526020600482015260186024820152776f75747374616e64696e67207346544d2062616c616e636560401b604482015290519081900360640190fd5b6001600160a01b038116600090815260a560209081526040808320878452825280832086845290915290206002015415612705576040805162461bcd60e51b81526020600482015260136024820152727772494420616c72656164792065786973747360681b604482015290519081900360640190fd5b6127108185846142f8565b6001600160a01b038116600090815260a56020908152604080832087845282528083208684529091529020600201829055612749612b1b565b6001600160a01b038216600090815260a560209081526040808320888452825280832087845290915290205561277d6147c7565b6001600160a01b038216600090815260a56020908152604080832088845282528083208784529091528120600101919091556127ba908590613120565b8284826001600160a01b03167fd3bb4e423fbea695d16b982f9f682dc5f35152e5411646a8a5a79a6b02ba8d57856040518082815260200191505060405180910390a450505050565b61280c33613d5c565b6128475760405162461bcd60e51b81526004018080602001828103825260298152602001806160056029913960400191505060405180910390fd5b61288f898989898080601f0160208091040260200160405190810160405280939291908181526020018383808284376000920191909152508b92508a91508990508888614868565b609f54881115611af557609f889055505050505050505050565b6219981960e91b90565b6000818152609c60209081526040808320600601546001600160a01b0316835260a682528083208484529091529020545b919050565b600091825260ab6020908152604080842092845291905290205490565b6066546001600160a01b031690565b60006064612921614572565b60b2540281611dd257fe5b60a25481565b600061293c615eb4565b6129468484614a17565b805160208201516040830151929350612968926117f29163ffffffff613bc316565b949350505050565b600091825260ab602090815260408084209284526001909201905290205490565b60b55490565b60006129a3838361337a565b6129af57506000611994565b506001600160a01b0391909116600090815260a760209081526040808320938352929052205490565b6129e06134ca565b806129ee57506129ee612cb8565b612a295760405162461bcd60e51b81526004018080602001828103825260508152602001806160ef6050913960600191505060405180910390fd5b6116df81614a85565b6000612a3c615eb4565b506001600160a01b038316600090815260a360209081526040808320858452825291829020825160608101845281548082526001830154938201849052600290920154938101849052926129689290916117f2919063ffffffff613bc316565b612aa4612cb8565b612ae3576040805162461bcd60e51b81526020600482018190526024820152600080516020616081833981519152604482015290519081900360640190fd5b6033546040516000916001600160a01b0316906000805160206160a1833981519152908390a3603380546001600160a01b0319169055565b609b5460010190565b609b5481565b609e6020908152600091825260409182902080548351601f600260001961010060018616150201909316929092049182018490048402810184019094528084529091830182828015612bbd5780601f10612b9257610100808354040283529160200191612bbd565b820191906000526020600020905b815481529060010190602001808311612ba057829003601f168201915b505050505081565b60a05481565b612bd3612cb8565b612c12576040805162461bcd60e51b81526020600482018190526024820152600080516020616081833981519152604482015290519081900360640190fd5b60ad81905560ac829055604080518381526020810183905281517f702756a07c05d0bbfd06fc17b67951a5f4deb7bb6b088407e68a58969daf2a34929181900390910190a15050565b612c658282613ffc565b611d72576040805162461bcd60e51b815260206004820152601060248201526f0dcdee8d0d2dcce40e8de40e6e8c2e6d60831b604482015290519081900360640190fd5b6067546001600160a01b031690565b6067546001600160a01b0316331490565b60a760209081526000928352604080842090915290825290208054600182015460028301546003909301549192909184565b6116df338234613c1d565b600091825260ab602090815260408084209284526005909201905290205490565b612d2f612cb8565b612d6e576040805162461bcd60e51b81526020600482018190526024820152600080516020616081833981519152604482015290519081900360640190fd5b60b880546001600160a01b0319166001600160a01b0392909216919091179055565b612d986130f8565b341015612de6576040805162461bcd60e51b8152602060048201526017602482015276696e73756666696369656e742073656c662d7374616b6560481b604482015290519081900360640190fd5b8015801590612df6575060418111155b612e36576040805162461bcd60e51b815260206004820152600c60248201526b656d707479207075626b657960a01b604482015290519081900360640190fd5b612e763383838080601f016020809104026020016040519081016040528093929190818152602001838380828437600092019190915250614ac092505050565b611d7233609f5434613c1d565b60006064612e8f614572565b60b0540281611dd257fe5b60a460209081526000928352604080842090915290825290205481565b612ebf6134ca565b80612ecd5750612ecd612cb8565b612f085760405162461bcd60e51b81526004018080602001828103825260508152602001806160ef6050913960600191505060405180910390fd5b6116df81614aeb565b609c60205260009081526040902080546001820154600283015460038401546004850154600586015460069096015494959394929391929091906001600160a01b031687565b612f5f612cb8565b612f9e576040805162461bcd60e51b81526020600482018190526024820152600080516020616081833981519152604482015290519081900360640190fd5b6801c985c8903591eb20811115612ffc576040805162461bcd60e51b815260206004820152601b60248201527f746f6f206c617267652072657761726420706572207365636f6e640000000000604482015290519081900360640190fd5b60a98190556040805182815290517f8cd9dae1bbea2bc8a5e80ffce2c224727a25925130a03ae100619a8861ae23969181900360200190a150565b60a860209081526000928352604080842090915290825290208054600182015460029092015490919083565b60b65490565b600081815260ab60209081526040918290206006018054835181840281018401909452808452606093928301828280156130c257602002820191906000526020600020905b8154815260200190600101908083116130ae575b50505050509050919050565b336130db81858585614b26565b50505050565b6000908152609c6020526040902054608016151590565b60ae54670de0b6b3a76400000290565b60b76020526000908152604090205481565b609f5481565b61312982614dd8565b613174576040805162461bcd60e51b81526020600482015260176024820152761d985b1a59185d1bdc88191bd95cdb89dd08195e1a5cdd604a1b604482015290519081900360640190fd5b6000828152609c602052604090206003810154905415613192575060005b609a546040805163520337df60e11b8152600481018690526024810184905290516001600160a01b039092169163a4066fbe9160448082019260009290919082900301818387803b1580156131e657600080fd5b505af11580156131fa573d6000803e3d6000fd5b5050505081801561320a57508015155b156132fe57609a546000848152609e602052604090819020815163242a6e3f60e01b81526004810187815260248201938452825460026000196001831615610100020190911604604483018190526001600160a01b039095169463242a6e3f948994939091606490910190849080156132c45780601f10613299576101008083540402835291602001916132c4565b820191906000526020600020905b8154815290600101906020018083116132a757829003601f168201915b50509350505050600060405180830381600087803b1580156132e557600080fd5b505af11580156132f9573d6000803e3d6000fd5b505050505b505050565b61330b6134ca565b806133195750613319612cb8565b6133545760405162461bcd60e51b81526004018080602001828103825260508152602001806160ef6050913960600191505060405180910390fd5b6116df81614def565b60a660209081526000928352604080842090915290825290205481565b6001600160a01b038216600090815260a760209081526040808320848452909152812060020154158015906133d157506001600160a01b038316600090815260a76020908152604080832085845290915290205415155b801561199157506001600160a01b038316600090815260a7602090815260408083208584529091529020600201546134076147c7565b11159392505050565b6134186134ca565b806134265750613426612cb8565b6134615760405162461bcd60e51b81526004018080602001828103825260508152602001806160ef6050913960600191505060405180910390fd5b6116df81614e2a565b6134726134ca565b806134805750613480612cb8565b6134bb5760405162461bcd60e51b81526004018080602001828103825260508152602001806160ef6050913960600191505060405180910390fd5b6116df81614ecb565b60a95481565b6066546001600160a01b0316331490565b600091825260ab602090815260408084209284526003909201905290205490565b338161353d576040805162461bcd60e51b815260206004820152600b60248201526a1e995c9bc8185b5bdd5b9d60aa1b604482015290519081900360640190fd5b613547818561337a565b1561358d576040805162461bcd60e51b81526020600482015260116024820152700616c7265616479206c6f636b656420757607c1b604482015290519081900360640190fd5b6130db81858585614b26565b600091825260ab602090815260408084209284526002909201905290205490565b6135c333613d5c565b6135fe5760405162461bcd60e51b81526004018080602001828103825260298152602001806160056029913960400191505060405180910390fd5b600060ab600061360c612b1b565b8152602001908152602001600020905060008090505b8281101561368557600084848381811061363857fe5b602090810292909201356000818152609c8452604080822060030154948890529020839055600c86015490935061367691508263ffffffff613bc316565b600c8501555050600101613622565b506130db600682018484615ed5565b600091825260ab602090815260408084209284526004909201905290205490565b6136bd612cb8565b6136fc576040805162461bcd60e51b81526020600482018190526024820152600080516020616081833981519152604482015290519081900360640190fd5b61370583613ed5565b6040516001600160a01b0385169084156108fc029085906000818181858888f1935050505015801561373b573d6000803e3d6000fd5b50836001600160a01b03167f9eec469b348bcf64bbfb60e46ce7b160e2e09bf5421496a2cdbc43714c28b8ad84848460405180848152602001806020018281038252848482818152602001925080828437600083820152604051601f909101601f1916909201829003965090945050505050a250505050565b6137bc6134ca565b806137ca57506137ca612cb8565b6138055760405162461bcd60e51b81526004018080602001828103825260508152602001806160ef6050913960600191505060405180910390fd5b6116df81614f06565b61381733613d5c565b6138525760405162461bcd60e51b81526004018080602001828103825260298152602001806160056029913960400191505060405180910390fd5b600060ab6000613860612b1b565b815260200190815260200160002090506060816006018054806020026020016040519081016040528092919081815260200182805480156138c057602002820191906000526020600020905b8154815260200190600101908083116138ac575b5050505050905061394782828c8c80806020026020016040519081016040528093929190818152602001838360200280828437600081840152601f19601f820116905080830192505050505050508b8b80806020026020016040519081016040528093929190818152602001838360200280828437600092019190915250614f4192505050565b6139b6828288888080602002602001604051908101604052809392919081815260200183836020028082843760009201919091525050604080516020808c0282810182019093528b82529093508b92508a91829185019084908082843760009201919091525061505792505050565b6139be612b1b565b609b556139c96147c7565b60078301555060a954600b82015560aa54600d909101555050505050505050565b6139f2612cb8565b613a31576040805162461bcd60e51b81526020600482018190526024820152600080516020616081833981519152604482015290519081900360640190fd5b6116df8161569d565b613a426134ca565b80613a505750613a50612cb8565b613a8b5760405162461bcd60e51b81526004018080602001828103825260508152602001806160ef6050913960600191505060405180910390fd5b6116df8161572c565b60af8190556040805182815290517fd3b49810855efc7d611424cd0a8cc519b92cf2e97bd3516921dff1a19b101e359181900360200190a150565b613ad7615eb4565b613ae18383613ffc565b50506001600160a01b038216600090815260a36020908152604080832084845282528083208151606081018352815480825260018301549482018590526002909201549281018390529392613b3f926117f29163ffffffff613bc316565b905080613b82576040805162461bcd60e51b815260206004820152600c60248201526b7a65726f207265776172647360a01b604482015290519081900360640190fd5b6001600160a01b038416600090815260a36020908152604080832086845290915281208181556001810182905560020155613bbc81613ed5565b5092915050565b600082820183811015611991576040805162461bcd60e51b815260206004820152601b60248201527f536166654d6174683a206164646974696f6e206f766572666c6f770000000000604482015290519081900360640190fd5b613c2682614dd8565b613c71576040805162461bcd60e51b81526020600482015260176024820152761d985b1a59185d1bdc88191bd95cdb89dd08195e1a5cdd604a1b604482015290519081900360640190fd5b6000828152609c602052604090205415613ccb576040805162461bcd60e51b815260206004820152601660248201527576616c696461746f722069736e27742061637469766560501b604482015290519081900360640190fd5b613cd6838383613d70565b613cdf82615767565b6132fe5760405162461bcd60e51b81526004018080602001828103825260298152602001806161886029913960400191505060405180910390fd5b600061199183836040518060400160405280601e81526020017f536166654d6174683a207375627472616374696f6e206f766572666c6f7700008152506157af565b609a546001600160a01b0390811691161490565b60008111613db3576040805162461bcd60e51b815260206004820152600b60248201526a1e995c9bc8185b5bdd5b9d60aa1b604482015290519081900360640190fd5b613dbd8383613ffc565b506001600160a01b038316600090815260a660209081526040808320858452909152902054613df2908263ffffffff613bc316565b6001600160a01b038416600090815260a660209081526040808320868452825280832093909355609c90522060030154613e32818363ffffffff613bc316565b6000848152609c602052604090206003015560a054613e57908363ffffffff613bc316565b60a0556000838152609c6020526040902054613e845760a154613e80908363ffffffff613bc316565b60a1555b613e8f838215613120565b60408051838152905184916001600160a01b038716917f9a8f44850296624dadfd9c246d17e47171d35727a181bd090aa14bbbe00238bb9181900360200190a350505050565b609a54604080516366e7ea0f60e01b81523060048201526024810184905290516001600160a01b03909216916366e7ea0f9160448082019260009290919082900301818387803b158015613f2857600080fd5b505af1158015613f3c573d6000803e3d6000fd5b505060aa54613f54925090508263ffffffff613bc316565b60aa5550565b60b8546000906001600160a01b0316613f7557506001611994565b60b854604080516321d585c360e01b81526001600160a01b03868116600483015260248201869052915191909216916321d585c3916044808301926020929190829003018186803b158015613fc957600080fd5b505afa158015613fdd573d6000803e3d6000fd5b505050506040513d6020811015613ff357600080fd5b50519392505050565b6000614006615eb4565b6140108484615846565b905061401b8361597e565b6001600160a01b038516600081815260a46020908152604080832088845282528083209490945591815260a382528281208682528252829020825160608101845281548152600182015492810192909252600201549181019190915261408190826159d9565b6001600160a01b038516600081815260a360209081526040808320888452825280832085518155858301516001808301919091559582015160029182015593835260a88252808320888452825291829020825160608101845281548152948101549185019190915290910154908201526140fb90826159d9565b6001600160a01b038516600090815260a8602090815260408083208784528252918290208351815590830151600182015591015160029091015561413f848461337a565b6141a2576001600160a01b038416600081815260a760209081526040808320878452825280832083815560018082018590556002808301869055600390920185905594845260a88352818420888552909252822082815592830182905591909101555b60208101511515806141b45750805115155b8061296857506040015115159392505050565b6001600160a01b038416600090815260a860209081526040808320868452909152812054819061420f908490614203908763ffffffff615a4b16565b9063ffffffff615aa416565b6001600160a01b038716600090815260a86020908152604080832089845290915281206001015491925090614250908590614203908863ffffffff615a4b16565b6001600160a01b038816600090815260a8602090815260408083208a8452909152902054909150600282048301906142889084613d1a565b6001600160a01b038916600090815260a8602090815260408083208b84529091529020908155600101546142bc9083613d1a565b6001600160a01b038916600090815260a8602090815260408083208b84529091529020600101558581106142ed5750845b979650505050505050565b6001600160a01b038316600090815260a660209081526040808320858452825280832080548590039055609c90915290206003015461433d908263ffffffff613d1a16565b6000838152609c602052604090206003015560a054614362908263ffffffff613d1a16565b60a0556000828152609c602052604090205461438f5760a15461438b908263ffffffff613d1a16565b60a1555b600061439a836128b3565b90508015614441576143aa6130f8565b8110156143f8576040805162461bcd60e51b8152602060048201526017602482015276696e73756666696369656e742073656c662d7374616b6560481b604482015290519081900360640190fd5b61440183615767565b61443c5760405162461bcd60e51b81526004018080602001828103825260298152602001806161886029913960400191505060405180910390fd5b6130db565b6130db8360015b6000828152609c602052604090205415801561446357508015155b15614490576000828152609c602052604090206003015460a15461448c9163ffffffff613d1a16565b60a1555b6000828152609c6020526040902054811115611d72576000828152609c6020526040902081815560020154614538576144c7612b1b565b6000838152609c60205260409020600201556144e16147c7565b6000838152609c60209081526040918290206001810184905560020154825190815290810192909252805184927fac4801c32a6067ff757446524ee4e7a373797278ac3c883eac5c693b4ad72e4792908290030190a25b60408051828152905183917fcd35267e7654194727477d6c78b541a553483cff7f92a055d17868d3da6e953e919081900360200190a25050565b670de0b6b3a764000090565b60b08190556040805182815290517f969e21e21af49053b3bfee796b627ebc26e10328889e90a47da2f1205d3e8f139181900360200190a150565b303b1590565b600054610100900460ff16806145d857506145d86145b9565b806145e6575060005460ff16155b6146215760405162461bcd60e51b815260040180806020018281038252602e8152602001806160c1602e913960400191505060405180910390fd5b600054610100900460ff1615801561464c576000805460ff1961ff0019909116610100171660011790555b603380546001600160a01b0319166001600160a01b0384811691909117918290556040519116906000906000805160206160a1833981519152908290a38015611d72576000805461ff00191690555050565b600054610100900460ff16806146b757506146b76145b9565b806146c5575060005460ff16155b6147005760405162461bcd60e51b815260040180806020018281038252602e8152602001806160c1602e913960400191505060405180910390fd5b600054610100900460ff1615801561472b576000805460ff1961ff0019909116610100171660011790555b606680546001600160a01b038086166001600160a01b03199283161792839055606780548683169316929092179091556040519116906000907f5f56bee8cffbe9a78652a74a60705edede02af10b0bbb888ca44b79a0d42ce80908290a36067546040516001600160a01b03909116906000906000805160206160a1833981519152908290a380156132fe576000805461ff0019169055505050565b4290565b60b38190556040805182815290517f31d33f23d1e7fe45f7e898c070587ff0f2f519674e5e2a12f90b3a17c77f6ad19181900360200190a150565b600082158061481c5750614818614572565b8210155b1561482957506000614861565b61485460016117f2614839614572565b61420386614845614572565b8a91900363ffffffff615a4b16565b9050838111156148615750825b9392505050565b6001600160a01b0388166000908152609d6020526040902054156148d3576040805162461bcd60e51b815260206004820152601860248201527f76616c696461746f7220616c7265616479206578697374730000000000000000604482015290519081900360640190fd5b6001600160a01b0388166000818152609d602090815260408083208b90558a8352609c82528083208981556004810189905560058101889055600181018690556002810187905560060180546001600160a01b031916909417909355609e8152919020875161494492890190615f20565b50876001600160a01b0316877f49bca1ed2666922f9f1690c26a569e1299c2a715fe57647d77e81adfabbf25bf8686604051808381526020018281526020019250505060405180910390a381156149d0576040805183815260208101839052815189927fac4801c32a6067ff757446524ee4e7a373797278ac3c883eac5c693b4ad72e47928290030190a25b8415614a0d5760408051868152905188917fcd35267e7654194727477d6c78b541a553483cff7f92a055d17868d3da6e953e919081900360200190a25b5050505050505050565b614a1f615eb4565b614a27615eb4565b614a318484615846565b6001600160a01b038516600090815260a360209081526040808320878452825291829020825160608101845281548152600182015492810192909252600201549181019190915290915061296890826159d9565b60b58190556040805182815290517f2f273767369d76e1ecbee32ed26135f390df620f085feb7a6f2e3dd51985bd5f9181900360200190a150565b609f8054600101908190556132fe8382846000614adb612b1b565b614ae36147c7565b600080614868565b60b18190556040805182815290517f12420e865335c7cfb225296eb0adaca14bfb1de93b3731ed1e0434746a4d91249181900360200190a150565b614b308484611911565b811115614b77576040805162461bcd60e51b815260206004820152601060248201526f6e6f7420656e6f756768207374616b6560801b604482015290519081900360640190fd5b6000838152609c602052604090205415614bd1576040805162461bcd60e51b815260206004820152601660248201527576616c696461746f722069736e27742061637469766560501b604482015290519081900360640190fd5b614bd96118f9565b8210158015614bef5750614beb6118ee565b8211155b614c35576040805162461bcd60e51b815260206004820152601260248201527134b731b7b93932b1ba10323ab930ba34b7b760711b604482015290519081900360640190fd5b6000614c43836117f26147c7565b6000858152609c60205260409020600601549091506001600160a01b039081169086168114614cd1576001600160a01b038116600090815260a760209081526040808320888452909152902060020154821115614cd15760405162461bcd60e51b81526004018080602001828103825260288152602001806161606028913960400191505060405180910390fd5b614cdb8686613ffc565b506001600160a01b038616600090815260a76020908152604080832088845290915290206003810154851015614d58576040805162461bcd60e51b815260206004820152601f60248201527f6c6f636b7570206475726174696f6e2063616e6e6f7420646563726561736500604482015290519081900360640190fd5b8054614d6a908563ffffffff613bc316565b8155614d74612b1b565b600182015560028101839055600381018590556040805186815260208101869052815188926001600160a01b038b16927f138940e95abffcd789b497bf6188bba3afa5fbd22fb5c42c2f6018d1bf0f4e78929081900390910190a350505050505050565b6000908152609c6020526040902060050154151590565b60b28190556040805182815290517fcda2f8a6b9050afa9ac1f8d6ff9a123894f76a5530c6c29636332c995a1f97159181900360200190a150565b6001600160a01b038116614e6f5760405162461bcd60e51b815260040180806020018281038252603281526020018061602e6032913960400191505060405180910390fd5b6066546040516001600160a01b038084169216907f5f56bee8cffbe9a78652a74a60705edede02af10b0bbb888ca44b79a0d42ce8090600090a3606680546001600160a01b0319166001600160a01b0392909216919091179055565b60ae8190556040805182815290517fe9a0db1369c39eb7fc2ed3d7e122f9ee60952b075329b1e84bce8843367210f49181900360200190a150565b60b68190556040805182815290517f9e85e6207a28e085f027a9b979cad850f4c36a581dd42c119e856c04b92d96119181900360200190a150565b60005b83518110156150505760ac54828281518110614f5c57fe5b6020026020010151118015614f86575060ad54838281518110614f7b57fe5b602002602001015110155b15614fc757614fa9848281518110614f9a57fe5b60200260200101516008614448565b614fc7848281518110614fb857fe5b60200260200101516000613120565b828181518110614fd357fe5b6020026020010151856004016000868481518110614fed57fe5b602002602001015181526020019081526020016000208190555081818151811061501357fe5b602002602001015185600501600086848151811061502d57fe5b602090810291909101810151825281019190915260400160002055600101614f44565b5050505050565b61505f615f8e565b6040518060c001604052808551604051908082528060200260200182016040528015615095578160200160208202803883390190505b5081526020016000815260200185516040519080825280602002602001820160405280156150cd578160200160208202803883390190505b508152602001600081526020016000815260200160008152509050600060ab600061510760016150fb612b1b565b9063ffffffff613d1a16565b8152602081019190915260400160002060016080840152600781015490915061512e6147c7565b11156151485780600701546151416147c7565b0360808301525b60005b855181101561525057600082600301600088848151811061516857fe5b6020026020010151815260200190815260200160002054905060008090508186848151811061519357fe5b602002602001015111156151ba57818684815181106151ae57fe5b60200260200101510390505b84608001518784815181106151cb57fe5b60200260200101518202816151dc57fe5b04856040015184815181106151ed57fe5b6020026020010181815250506152278560400151848151811061520c57fe5b60200260200101518660600151613bc390919063ffffffff16565b606086015260a0850151615241908263ffffffff613bc316565b60a0860152505060010161514b565b5060005b855181101561532157826080015185828151811061526e57fe5b6020026020010151846080015187848151811061528757fe5b60200260200101518a60000160008b87815181106152a157fe5b602002602001015181526020019081526020016000205402816152c057fe5b0402816152c957fe5b04836000015182815181106152da57fe5b602002602001018181525050615314836000015182815181106152f957fe5b60200260200101518460200151613bc390919063ffffffff16565b6020840152600101615254565b5060005b855181101561567557600061535d846080015160a9548660000151858151811061534b57fe5b60200260200101518760200151615ae6565b905061539961538c8560a001518660400151858151811061537a57fe5b60200260200101518760600151615b27565b829063ffffffff613bc316565b905060008783815181106153a957fe5b6020908102919091018101516000818152609c90925260408220600601549092506001600160a01b0316906153e5846153e0612e83565b615b84565b6001600160a01b038316600090815260a660209081526040808320878452909152902054909150801561558c5760008161541f8587612997565b84028161542857fe5b049050808303615436615eb4565b6001600160a01b038616600090815260a7602090815260408083208a8452909152902060030154615468908490615ba1565b9050615472615eb4565b61547d836000615ba1565b6001600160a01b038816600090815260a3602090815260408083208c845282529182902082516060810184528154815260018201549281019290925260020154918101919091529091506154d2908383615c92565b6001600160a01b038816600081815260a3602090815260408083208d8452825280832085518155858301516001808301919091559582015160029182015593835260a882528083208d84528252918290208251606081018452815481529481015491850191909152909101549082015261554d908383615c92565b6001600160a01b038816600090815260a8602090815260408083208c845282529182902083518155908301516001820155910151600290910155505050505b6000848152609c60205260408120600301548387039181156155be57816155b1614572565b8402816155ba57fe5b0490505b808a600101600089815260200190815260200160002054018f6001016000898152602001908152602001600020819055508b89815181106155fb57fe5b60200260200101518f6003016000898152602001908152602001600020819055508c898151811061562857fe5b60200260200101518a600201600089815260200190815260200160002054018f60020160008981526020019081526020016000208190555050505050505050508080600101915050615325565b505060a081015160088601556020810151600986015560600151600a90940193909355505050565b6001600160a01b0381166156e25760405162461bcd60e51b8152600401808060200182810382526026815260200180615fdf6026913960400191505060405180910390fd5b6067546040516001600160a01b038084169216906000805160206160a183398151915290600090a3606780546001600160a01b0319166001600160a01b0392909216919091179055565b60b48190556040805182815290517fd830c33dec392daf6dfeac9834107217392396bc333bcbb92e6c1c1a5e8726319181900360200190a150565b6000615794615774614572565b61420361577f611da8565b615788866128b3565b9063ffffffff615a4b16565b6000838152609c602052604090206003015411159050919050565b6000818484111561583e5760405162461bcd60e51b81526004018080602001828103825283818151815260200191508051906020019080838360005b838110156158035781810151838201526020016157eb565b50505050905090810190601f1680156158305780820380516001836020036101000a031916815260200191505b509250505060405180910390fd5b505050900390565b61584e615eb4565b6001600160a01b038316600090815260a4602090815260408083208584529091528120549061587c8461597e565b9050600061588a8686615cad565b9050818111156158975750805b828110156158a25750815b6001600160a01b038616600081815260a760209081526040808320898452825280832093835260a6825280832089845290915281205482549091906158ee90839063ffffffff613d1a16565b9050600061590284600001548a8988615d6c565b905061590c615eb4565b61591a828660030154615ba1565b9050615928838b8a89615d6c565b9150615932615eb4565b61593d836000615ba1565b905061594b858c898b615d6c565b9250615955615eb4565b615960846000615ba1565b905061596d838383615c92565b9d9c50505050505050505050505050565b6000818152609c6020526040812060020154156159d1576000828152609c6020526040902060020154609b5410156159b95750609b546128e4565b506000818152609c60205260409020600201546128e4565b5050609b5490565b6159e1615eb4565b6040805160608101909152825184518291615a02919063ffffffff613bc316565b8152602001615a2284602001518660200151613bc390919063ffffffff16565b8152602001615a4284604001518660400151613bc390919063ffffffff16565b90529392505050565b600082615a5a57506000611994565b82820282848281615a6757fe5b04146119915760405162461bcd60e51b81526004018080602001828103825260218152602001806160606021913960400191505060405180910390fd5b600061199183836040518060400160405280601a81526020017f536166654d6174683a206469766973696f6e206279207a65726f000000000000815250615dcf565b600082615af557506000612968565b6000615b07868663ffffffff615a4b16565b9050615b1d83614203838763ffffffff615a4b16565b9695505050505050565b600082615b3657506000614861565b6000615b4c83614203878763ffffffff615a4b16565b9050615b7b615b59614572565b614203615b64611dbb565b615b6c614572565b8591900363ffffffff615a4b16565b95945050505050565b6000611991615b91614572565b614203858563ffffffff615a4b16565b615ba9615eb4565b604051806060016040528060008152602001600081526020016000815250905081600014615c64576000615bdb612915565b615be3614572565b0390506000615c03615bf36118ee565b614203848763ffffffff615a4b16565b90506000615c2c615c12614572565b61420384615c1e612915565b8a910163ffffffff615a4b16565b9050615c51615c39614572565b614203615c44612915565b899063ffffffff615a4b16565b6020850181905290038352506119949050565b615c87615c6f614572565b614203615c7a612915565b869063ffffffff615a4b16565b604082015292915050565b615c9a615eb4565b612968615ca785856159d9565b836159d9565b6001600160a01b038216600090815260a760209081526040808320848452909152812060010154609b54615ce2858583615e34565b15615cf05791506119949050565b615cfb858584615e34565b615d0a57600092505050611994565b80821115615d1d57600092505050611994565b80821015615d5057600281830104615d36868683615e34565b15615d4657806001019250615d4a565b8091505b50615d1d565b80615d6057600092505050611994565b60001901949350505050565b6000818310615d7d57506000612968565b600083815260ab60208181526040808420888552600190810183528185205487865293835281852089865201909152909120546142ed615dbb614572565b61420389615788858763ffffffff613d1a16565b60008183615e1e5760405162461bcd60e51b81526020600482018181528351602484015283519092839260449091019190850190808383600083156158035781810151838201526020016157eb565b506000838581615e2a57fe5b0495945050505050565b6001600160a01b038316600090815260a760209081526040808320858452909152812060010154821080159061296857506001600160a01b038416600090815260a760209081526040808320868452909152902060020154615e9583615e9f565b1115949350505050565b600090815260ab602052604090206007015490565b60405180606001604052806000815260200160008152602001600081525090565b828054828255906000526020600020908101928215615f10579160200282015b82811115615f10578235825591602001919060010190615ef5565b50615f1c929150615fc4565b5090565b828054600181600116156101000203166002900490600052602060002090601f016020900481019282601f10615f6157805160ff1916838001178555615f10565b82800160010185558215615f10579182015b82811115615f10578251825591602001919060010190615f73565b6040518060c001604052806060815260200160008152602001606081526020016000815260200160008152602001600081525090565b6118f691905b80821115615f1c5760008155600101615fca56fe4f776e61626c653a206e6577206f776e657220697320746865207a65726f206164647265737363616c6c6572206973206e6f7420746865204e6f64654472697665724175746820636f6e7472616374476f7665726e616e6365526f6c653a206e657720676f7665726e616e636520697320746865207a65726f2061646472657373536166654d6174683a206d756c7469706c69636174696f6e206f766572666c6f774f776e61626c653a2063616c6c6572206973206e6f7420746865206f776e65728be0079c531659141344cd1fd0a4f28419497f9722a3daafe3b4186f6b6457e0436f6e747261637420696e7374616e63652068617320616c7265616479206265656e20696e697469616c697a6564476f7665726e616e6365526f6c653a20746869732066756e6374696f6e20697320636f6e74726f6c6c656420627920746865206f776e657220616e6420676f7665726e616e636520636f6e74726163746d757374206265206c657373207468616e206f7220657175616c20746f20312e3076616c696461746f72206c6f636b757020706572696f642077696c6c20656e64206561726c69657276616c696461746f7227732064656c65676174696f6e73206c696d69742069732065786365656465646c6f636b6564207374616b652069732067726561746572207468616e207468652077686f6c65207374616b65a265627a7a72315820ff36c7f5df9aa8b46cc6541ec2a918ff3395ef0e15f85b0c457d777f9981297e64736f6c63430005110032",
  "linkReferences": {},
  "deployedLinkReferences": {}
}