{
  "_format": "hh-sol-artifact-1",
  "contractName": "SFC",
  "sourceName": "contracts/sfc/SFC.sol",
  "abi": [
    {
      "anonymous": false,
      "inputs": [
        {
          "indexed": true,
          "internalType": "uint256",
          "name": "validatorID",
          "type": "uint256"
        },
        {
          "indexed": false,
          "internalType": "uint256",
          "name": "status",
          "type": "uint256"
        }
      ],
      "name": "ChangedValidatorStatus",
      "type": "event"
    },
    {
      "anonymous": false,
      "inputs": [
        {
          "indexed": true,
          "internalType": "address",
          "name": "delegator",
          "type": "address"
        },
        {
          "indexed": true,
          "internalType": "uint256",
          "name": "toValidatorID",
          "type": "uint256"
        },
        {
          "indexed": false,
          "internalType": "uint256",
          "name": "lockupExtraReward",
          "type": "uint256"
        },
        {
          "indexed": false,
          "internalType": "uint256",
          "name": "lockupBaseReward",
          "type": "uint256"
        },
        {
          "indexed": false,
          "internalType": "uint256",
          "name": "unlockedReward",
          "type": "uint256"
        }
      ],
      "name": "ClaimedRewards",
      "type": "event"
    },
    {
      "anonymous": false,
      "inputs": [
        {
          "indexed": true,
          "internalType": "uint256",
          "name": "validatorID",
          "type": "uint256"
        },
        {
          "indexed": true,
          "internalType": "address",
          "name": "auth",
          "type": "address"
        },
        {
          "indexed": false,
          "internalType": "uint256",
          "name": "createdEpoch",
          "type": "uint256"
        },
        {
          "indexed": false,
          "internalType": "uint256",
          "name": "createdTime",
          "type": "uint256"
        }
      ],
      "name": "CreatedValidator",
      "type": "event"
    },
    {
      "anonymous": false,
      "inputs": [
        {
          "indexed": true,
          "internalType": "uint256",
          "name": "validatorID",
          "type": "uint256"
        },
        {
          "indexed": false,
          "internalType": "uint256",
          "name": "deactivatedEpoch",
          "type": "uint256"
        },
        {
          "indexed": false,
          "internalType": "uint256",
          "name": "deactivatedTime",
          "type": "uint256"
        }
      ],
      "name": "DeactivatedValidator",
      "type": "event"
    },
    {
      "anonymous": false,
      "inputs": [
        {
          "indexed": true,
          "internalType": "address",
          "name": "delegator",
          "type": "address"
        },
        {
          "indexed": true,
          "internalType": "uint256",
          "name": "toValidatorID",
          "type": "uint256"
        },
        {
          "indexed": false,
          "internalType": "uint256",
          "name": "amount",
          "type": "uint256"
        }
      ],
      "name": "Delegated",
      "type": "event"
    },
    {
      "anonymous": false,
      "inputs": [
        {
          "indexed": true,
          "internalType": "address",
          "name": "previousAddress",
          "type": "address"
        },
        {
          "indexed": true,
          "internalType": "address",
          "name": "newAddress",
          "type": "address"
        }
      ],
      "name": "GovernanceUpdated",
      "type": "event"
    },
    {
      "anonymous": false,
      "inputs": [
        {
          "indexed": true,
          "internalType": "address",
          "name": "receiver",
          "type": "address"
        },
        {
          "indexed": false,
          "internalType": "uint256",
          "name": "amount",
          "type": "uint256"
        },
        {
          "indexed": false,
          "internalType": "string",
          "name": "justification",
          "type": "string"
        }
      ],
      "name": "InflatedFTM",
      "type": "event"
    },
    {
      "anonymous": false,
      "inputs": [
        {
          "indexed": true,
          "internalType": "address",
          "name": "delegator",
          "type": "address"
        },
        {
          "indexed": true,
          "internalType": "uint256",
          "name": "validatorID",
          "type": "uint256"
        },
        {
          "indexed": false,
          "internalType": "uint256",
          "name": "duration",
          "type": "uint256"
        },
        {
          "indexed": false,
          "internalType": "uint256",
          "name": "amount",
          "type": "uint256"
        }
      ],
      "name": "LockedUpStake",
      "type": "event"
    },
    {
      "anonymous": false,
      "inputs": [
        {
          "indexed": true,
          "internalType": "address",
          "name": "previousOwner",
          "type": "address"
        },
        {
          "indexed": true,
          "internalType": "address",
          "name": "newOwner",
          "type": "address"
        }
      ],
      "name": "OwnershipTransferred",
      "type": "event"
    },
    {
      "anonymous": false,
      "inputs": [
        {
          "indexed": true,
          "internalType": "address",
          "name": "delegator",
          "type": "address"
        },
        {
          "indexed": true,
          "internalType": "uint256",
          "name": "validatorID",
          "type": "uint256"
        },
        {
          "indexed": false,
          "internalType": "uint256",
          "name": "amount",
          "type": "uint256"
        }
      ],
      "name": "RefundedSlashedLegacyDelegation",
      "type": "event"
    },
    {
      "anonymous": false,
      "inputs": [
        {
          "indexed": true,
          "internalType": "address",
          "name": "delegator",
          "type": "address"
        },
        {
          "indexed": true,
          "internalType": "uint256",
          "name": "toValidatorID",
          "type": "uint256"
        },
        {
          "indexed": false,
          "internalType": "uint256",
          "name": "lockupExtraReward",
          "type": "uint256"
        },
        {
          "indexed": false,
          "internalType": "uint256",
          "name": "lockupBaseReward",
          "type": "uint256"
        },
        {
          "indexed": false,
          "internalType": "uint256",
          "name": "unlockedReward",
          "type": "uint256"
        }
      ],
      "name": "RestakedRewards",
      "type": "event"
    },
    {
      "anonymous": false,
      "inputs": [
        {
          "indexed": true,
          "internalType": "address",
          "name": "delegator",
          "type": "address"
        },
        {
          "indexed": true,
          "internalType": "uint256",
          "name": "toValidatorID",
          "type": "uint256"
        },
        {
          "indexed": true,
          "internalType": "uint256",
          "name": "wrID",
          "type": "uint256"
        },
        {
          "indexed": false,
          "internalType": "uint256",
          "name": "amount",
          "type": "uint256"
        }
      ],
      "name": "Undelegated",
      "type": "event"
    },
    {
      "anonymous": false,
      "inputs": [
        {
          "indexed": true,
          "internalType": "address",
          "name": "delegator",
          "type": "address"
        },
        {
          "indexed": true,
          "internalType": "uint256",
          "name": "validatorID",
          "type": "uint256"
        },
        {
          "indexed": false,
          "internalType": "uint256",
          "name": "amount",
          "type": "uint256"
        },
        {
          "indexed": false,
          "internalType": "uint256",
          "name": "penalty",
          "type": "uint256"
        }
      ],
      "name": "UnlockedStake",
      "type": "event"
    },
    {
      "anonymous": false,
      "inputs": [
        {
          "indexed": false,
          "internalType": "uint256",
          "name": "value",
          "type": "uint256"
        }
      ],
      "name": "UpdatedBaseRewardPerSec",
      "type": "event"
    },
    {
      "anonymous": false,
      "inputs": [
        {
          "indexed": false,
          "internalType": "uint256",
          "name": "contractCommission",
          "type": "uint256"
        }
      ],
      "name": "UpdatedContractCommission",
      "type": "event"
    },
    {
      "anonymous": false,
      "inputs": [
        {
          "indexed": false,
          "internalType": "uint256",
          "name": "maxDelegationRatio",
          "type": "uint256"
        }
      ],
      "name": "UpdatedMaxDelegationRatio",
      "type": "event"
    },
    {
      "anonymous": false,
      "inputs": [
        {
          "indexed": false,
          "internalType": "uint256",
          "name": "maxLockupDuration",
          "type": "uint256"
        }
      ],
      "name": "UpdatedMaxLockupDuration",
      "type": "event"
    },
    {
      "anonymous": false,
      "inputs": [
        {
          "indexed": false,
          "internalType": "uint256",
          "name": "minLockupDuration",
          "type": "uint256"
        }
      ],
      "name": "UpdatedMinLockupDuration",
      "type": "event"
    },
    {
      "anonymous": false,
      "inputs": [
        {
          "indexed": false,
          "internalType": "uint256",
          "name": "minSelfStake",
          "type": "uint256"
        }
      ],
      "name": "UpdatedMinSelfStake",
      "type": "event"
    },
    {
      "anonymous": false,
      "inputs": [
        {
          "indexed": false,
          "internalType": "uint256",
          "name": "blocksNum",
          "type": "uint256"
        },
        {
          "indexed": false,
          "internalType": "uint256",
          "name": "period",
          "type": "uint256"
        }
      ],
      "name": "UpdatedOfflinePenaltyThreshold",
      "type": "event"
    },
    {
      "anonymous": false,
      "inputs": [
        {
          "indexed": true,
          "internalType": "uint256",
          "name": "validatorID",
          "type": "uint256"
        },
        {
          "indexed": false,
          "internalType": "uint256",
          "name": "refundRatio",
          "type": "uint256"
        }
      ],
      "name": "UpdatedSlashingRefundRatio",
      "type": "event"
    },
    {
      "anonymous": false,
      "inputs": [
        {
          "indexed": false,
          "internalType": "uint256",
          "name": "unlockedRewardRatio",
          "type": "uint256"
        }
      ],
      "name": "UpdatedUnlockedRewardRatio",
      "type": "event"
    },
    {
      "anonymous": false,
      "inputs": [
        {
          "indexed": false,
          "internalType": "uint256",
          "name": "validatorCommission",
          "type": "uint256"
        }
      ],
      "name": "UpdatedValidatorCommission",
      "type": "event"
    },
    {
      "anonymous": false,
      "inputs": [
        {
          "indexed": false,
          "internalType": "uint256",
          "name": "Value",
          "type": "uint256"
        }
      ],
      "name": "UpdatedWithdrawalPeriodEpoch",
      "type": "event"
    },
    {
      "anonymous": false,
      "inputs": [
        {
          "indexed": false,
          "internalType": "uint256",
          "name": "withValuedrawalPeriodTime",
          "type": "uint256"
        }
      ],
      "name": "UpdatedWithdrawalPeriodTime",
      "type": "event"
    },
    {
      "anonymous": false,
      "inputs": [
        {
          "indexed": true,
          "internalType": "address",
          "name": "delegator",
          "type": "address"
        },
        {
          "indexed": true,
          "internalType": "uint256",
          "name": "toValidatorID",
          "type": "uint256"
        },
        {
          "indexed": true,
          "internalType": "uint256",
          "name": "wrID",
          "type": "uint256"
        },
        {
          "indexed": false,
          "internalType": "uint256",
          "name": "amount",
          "type": "uint256"
        }
      ],
      "name": "Withdrawn",
      "type": "event"
    },
    {
      "constant": false,
      "inputs": [
        {
          "internalType": "uint256",
          "name": "validatorID",
          "type": "uint256"
        },
        {
          "internalType": "bool",
          "name": "syncPubkey",
          "type": "bool"
        }
      ],
      "name": "_syncValidator",
      "outputs": [],
      "payable": false,
      "stateMutability": "nonpayable",
      "type": "function"
    },
    {
      "constant": true,
      "inputs": [],
      "name": "activeProposals",
      "outputs": [
        {
          "internalType": "uint256",
          "name": "",
          "type": "uint256"
        }
      ],
      "payable": false,
      "stateMutability": "view",
      "type": "function"
    },
    {
      "constant": true,
      "inputs": [],
      "name": "baseRewardPerSecond",
      "outputs": [
        {
          "internalType": "uint256",
          "name": "",
          "type": "uint256"
        }
      ],
      "payable": false,
      "stateMutability": "view",
      "type": "function"
    },
    {
      "constant": false,
      "inputs": [
        {
          "internalType": "uint256",
          "name": "toValidatorID",
          "type": "uint256"
        }
      ],
      "name": "claimRewards",
      "outputs": [],
      "payable": false,
      "stateMutability": "nonpayable",
      "type": "function"
    },
    {
      "constant": true,
      "inputs": [],
      "name": "contractCommission",
      "outputs": [
        {
          "internalType": "uint256",
          "name": "",
          "type": "uint256"
        }
      ],
      "payable": false,
      "stateMutability": "view",
      "type": "function"
    },
    {
      "constant": false,
      "inputs": [
        {
          "internalType": "bytes",
          "name": "pubkey",
          "type": "bytes"
        }
      ],
      "name": "createValidator",
      "outputs": [],
      "payable": true,
      "stateMutability": "payable",
      "type": "function"
    },
    {
      "constant": true,
      "inputs": [],
      "name": "currentEpoch",
      "outputs": [
        {
          "internalType": "uint256",
          "name": "",
          "type": "uint256"
        }
      ],
      "payable": false,
      "stateMutability": "view",
      "type": "function"
    },
    {
      "constant": true,
      "inputs": [],
      "name": "currentSealedEpoch",
      "outputs": [
        {
          "internalType": "uint256",
          "name": "",
          "type": "uint256"
        }
      ],
      "payable": false,
      "stateMutability": "view",
      "type": "function"
    },
    {
      "constant": false,
      "inputs": [
        {
          "internalType": "uint256",
          "name": "validatorID",
          "type": "uint256"
        },
        {
          "internalType": "uint256",
          "name": "status",
          "type": "uint256"
        }
      ],
      "name": "deactivateValidator",
      "outputs": [],
      "payable": false,
      "stateMutability": "nonpayable",
      "type": "function"
    },
    {
      "constant": false,
      "inputs": [
        {
          "internalType": "uint256",
          "name": "toValidatorID",
          "type": "uint256"
        }
      ],
      "name": "delegate",
      "outputs": [],
      "payable": true,
      "stateMutability": "payable",
      "type": "function"
    },
    {
      "constant": true,
      "inputs": [
        {
          "internalType": "uint256",
          "name": "epoch",
          "type": "uint256"
        },
        {
          "internalType": "uint256",
          "name": "validatorID",
          "type": "uint256"
        }
      ],
      "name": "getEpochAccumulatedOriginatedTxsFee",
      "outputs": [
        {
          "internalType": "uint256",
          "name": "",
          "type": "uint256"
        }
      ],
      "payable": false,
      "stateMutability": "view",
      "type": "function"
    },
    {
      "constant": true,
      "inputs": [
        {
          "internalType": "uint256",
          "name": "epoch",
          "type": "uint256"
        },
        {
          "internalType": "uint256",
          "name": "validatorID",
          "type": "uint256"
        }
      ],
      "name": "getEpochAccumulatedRewardPerToken",
      "outputs": [
        {
          "internalType": "uint256",
          "name": "",
          "type": "uint256"
        }
      ],
      "payable": false,
      "stateMutability": "view",
      "type": "function"
    },
    {
      "constant": true,
      "inputs": [
        {
          "internalType": "uint256",
          "name": "epoch",
          "type": "uint256"
        },
        {
          "internalType": "uint256",
          "name": "validatorID",
          "type": "uint256"
        }
      ],
      "name": "getEpochAccumulatedUptime",
      "outputs": [
        {
          "internalType": "uint256",
          "name": "",
          "type": "uint256"
        }
      ],
      "payable": false,
      "stateMutability": "view",
      "type": "function"
    },
    {
      "constant": true,
      "inputs": [
        {
          "internalType": "uint256",
          "name": "epoch",
          "type": "uint256"
        },
        {
          "internalType": "uint256",
          "name": "validatorID",
          "type": "uint256"
        }
      ],
      "name": "getEpochOfflineBlocks",
      "outputs": [
        {
          "internalType": "uint256",
          "name": "",
          "type": "uint256"
        }
      ],
      "payable": false,
      "stateMutability": "view",
      "type": "function"
    },
    {
      "constant": true,
      "inputs": [
        {
          "internalType": "uint256",
          "name": "epoch",
          "type": "uint256"
        },
        {
          "internalType": "uint256",
          "name": "validatorID",
          "type": "uint256"
        }
      ],
      "name": "getEpochOfflineTime",
      "outputs": [
        {
          "internalType": "uint256",
          "name": "",
          "type": "uint256"
        }
      ],
      "payable": false,
      "stateMutability": "view",
      "type": "function"
    },
    {
      "constant": true,
      "inputs": [
        {
          "internalType": "uint256",
          "name": "epoch",
          "type": "uint256"
        },
        {
          "internalType": "uint256",
          "name": "validatorID",
          "type": "uint256"
        }
      ],
      "name": "getEpochReceivedStake",
      "outputs": [
        {
          "internalType": "uint256",
          "name": "",
          "type": "uint256"
        }
      ],
      "payable": false,
      "stateMutability": "view",
      "type": "function"
    },
    {
      "constant": true,
      "inputs": [
        {
          "internalType": "uint256",
          "name": "",
          "type": "uint256"
        }
      ],
      "name": "getEpochSnapshot",
      "outputs": [
        {
          "internalType": "uint256",
          "name": "endTime",
          "type": "uint256"
        },
        {
          "internalType": "uint256",
          "name": "epochFee",
          "type": "uint256"
        },
        {
          "internalType": "uint256",
          "name": "totalBaseRewardWeight",
          "type": "uint256"
        },
        {
          "internalType": "uint256",
          "name": "totalTxRewardWeight",
          "type": "uint256"
        },
        {
          "internalType": "uint256",
          "name": "baseRewardPerSecond",
          "type": "uint256"
        },
        {
          "internalType": "uint256",
          "name": "totalStake",
          "type": "uint256"
        },
        {
          "internalType": "uint256",
          "name": "totalSupply",
          "type": "uint256"
        }
      ],
      "payable": false,
      "stateMutability": "view",
      "type": "function"
    },
    {
      "constant": true,
      "inputs": [
        {
          "internalType": "uint256",
          "name": "epoch",
          "type": "uint256"
        }
      ],
      "name": "getEpochValidatorIDs",
      "outputs": [
        {
          "internalType": "uint256[]",
          "name": "",
          "type": "uint256[]"
        }
      ],
      "payable": false,
      "stateMutability": "view",
      "type": "function"
    },
    {
      "constant": true,
      "inputs": [],
      "name": "getGovernance",
      "outputs": [
        {
          "internalType": "address",
          "name": "",
          "type": "address"
        }
      ],
      "payable": false,
      "stateMutability": "view",
      "type": "function"
    },
    {
      "constant": true,
      "inputs": [
        {
          "internalType": "address",
          "name": "delegator",
          "type": "address"
        },
        {
          "internalType": "uint256",
          "name": "toValidatorID",
          "type": "uint256"
        }
      ],
      "name": "getLockedStake",
      "outputs": [
        {
          "internalType": "uint256",
          "name": "",
          "type": "uint256"
        }
      ],
      "payable": false,
      "stateMutability": "view",
      "type": "function"
    },
    {
      "constant": true,
      "inputs": [
        {
          "internalType": "address",
          "name": "",
          "type": "address"
        },
        {
          "internalType": "uint256",
          "name": "",
          "type": "uint256"
        }
      ],
      "name": "getLockupInfo",
      "outputs": [
        {
          "internalType": "uint256",
          "name": "lockedStake",
          "type": "uint256"
        },
        {
          "internalType": "uint256",
          "name": "fromEpoch",
          "type": "uint256"
        },
        {
          "internalType": "uint256",
          "name": "endTime",
          "type": "uint256"
        },
        {
          "internalType": "uint256",
          "name": "duration",
          "type": "uint256"
        }
      ],
      "payable": false,
      "stateMutability": "view",
      "type": "function"
    },
    {
      "constant": true,
      "inputs": [
        {
          "internalType": "uint256",
          "name": "validatorID",
          "type": "uint256"
        }
      ],
      "name": "getSelfStake",
      "outputs": [
        {
          "internalType": "uint256",
          "name": "",
          "type": "uint256"
        }
      ],
      "payable": false,
      "stateMutability": "view",
      "type": "function"
    },
    {
      "constant": true,
      "inputs": [
        {
          "internalType": "address",
          "name": "",
          "type": "address"
        },
        {
          "internalType": "uint256",
          "name": "",
          "type": "uint256"
        }
      ],
      "name": "getStake",
      "outputs": [
        {
          "internalType": "uint256",
          "name": "",
          "type": "uint256"
        }
      ],
      "payable": false,
      "stateMutability": "view",
      "type": "function"
    },
    {
      "constant": true,
      "inputs": [
        {
          "internalType": "address",
          "name": "",
          "type": "address"
        },
        {
          "internalType": "uint256",
          "name": "",
          "type": "uint256"
        }
      ],
      "name": "getStashedLockupRewards",
      "outputs": [
        {
          "internalType": "uint256",
          "name": "lockupExtraReward",
          "type": "uint256"
        },
        {
          "internalType": "uint256",
          "name": "lockupBaseReward",
          "type": "uint256"
        },
        {
          "internalType": "uint256",
          "name": "unlockedReward",
          "type": "uint256"
        }
      ],
      "payable": false,
      "stateMutability": "view",
      "type": "function"
    },
    {
      "constant": true,
      "inputs": [
        {
          "internalType": "address",
          "name": "delegator",
          "type": "address"
        },
        {
          "internalType": "uint256",
          "name": "toValidatorID",
          "type": "uint256"
        }
      ],
      "name": "getUnlockedStake",
      "outputs": [
        {
          "internalType": "uint256",
          "name": "",
          "type": "uint256"
        }
      ],
      "payable": false,
      "stateMutability": "view",
      "type": "function"
    },
    {
      "constant": true,
      "inputs": [
        {
          "internalType": "uint256",
          "name": "",
          "type": "uint256"
        }
      ],
      "name": "getValidator",
      "outputs": [
        {
          "internalType": "uint256",
          "name": "status",
          "type": "uint256"
        },
        {
          "internalType": "uint256",
          "name": "deactivatedTime",
          "type": "uint256"
        },
        {
          "internalType": "uint256",
          "name": "deactivatedEpoch",
          "type": "uint256"
        },
        {
          "internalType": "uint256",
          "name": "receivedStake",
          "type": "uint256"
        },
        {
          "internalType": "uint256",
          "name": "createdEpoch",
          "type": "uint256"
        },
        {
          "internalType": "uint256",
          "name": "createdTime",
          "type": "uint256"
        },
        {
          "internalType": "address",
          "name": "auth",
          "type": "address"
        }
      ],
      "payable": false,
      "stateMutability": "view",
      "type": "function"
    },
    {
      "constant": true,
      "inputs": [
        {
          "internalType": "address",
          "name": "",
          "type": "address"
        }
      ],
      "name": "getValidatorID",
      "outputs": [
        {
          "internalType": "uint256",
          "name": "",
          "type": "uint256"
        }
      ],
      "payable": false,
      "stateMutability": "view",
      "type": "function"
    },
    {
      "constant": true,
      "inputs": [
        {
          "internalType": "uint256",
          "name": "",
          "type": "uint256"
        }
      ],
      "name": "getValidatorPubkey",
      "outputs": [
        {
          "internalType": "bytes",
          "name": "",
          "type": "bytes"
        }
      ],
      "payable": false,
      "stateMutability": "view",
      "type": "function"
    },
    {
      "constant": true,
      "inputs": [
        {
          "internalType": "address",
          "name": "",
          "type": "address"
        },
        {
          "internalType": "uint256",
          "name": "",
          "type": "uint256"
        },
        {
          "internalType": "uint256",
          "name": "",
          "type": "uint256"
        }
      ],
      "name": "getWithdrawalRequest",
      "outputs": [
        {
          "internalType": "uint256",
          "name": "epoch",
          "type": "uint256"
        },
        {
          "internalType": "uint256",
          "name": "time",
          "type": "uint256"
        },
        {
          "internalType": "uint256",
          "name": "amount",
          "type": "uint256"
        }
      ],
      "payable": false,
      "stateMutability": "view",
      "type": "function"
    },
    {
      "constant": false,
      "inputs": [
        {
          "internalType": "uint256",
          "name": "sealedEpoch",
          "type": "uint256"
        },
        {
          "internalType": "uint256",
          "name": "_totalSupply",
          "type": "uint256"
        },
        {
          "internalType": "address",
          "name": "nodeDriver",
          "type": "address"
        },
        {
          "internalType": "address",
          "name": "owner",
          "type": "address"
        },
        {
          "internalType": "address",
          "name": "governance",
          "type": "address"
        }
      ],
      "name": "initialize",
      "outputs": [],
      "payable": false,
      "stateMutability": "nonpayable",
      "type": "function"
    },
    {
      "constant": true,
      "inputs": [
        {
          "internalType": "address",
          "name": "delegator",
          "type": "address"
        },
        {
          "internalType": "uint256",
          "name": "toValidatorID",
          "type": "uint256"
        }
      ],
      "name": "isLockedUp",
      "outputs": [
        {
          "internalType": "bool",
          "name": "",
          "type": "bool"
        }
      ],
      "payable": false,
      "stateMutability": "view",
      "type": "function"
    },
    {
      "constant": true,
      "inputs": [],
      "name": "isOwner",
      "outputs": [
        {
          "internalType": "bool",
          "name": "",
          "type": "bool"
        }
      ],
      "payable": false,
      "stateMutability": "view",
      "type": "function"
    },
    {
      "constant": true,
      "inputs": [
        {
          "internalType": "uint256",
          "name": "validatorID",
          "type": "uint256"
        }
      ],
      "name": "isSlashed",
      "outputs": [
        {
          "internalType": "bool",
          "name": "",
          "type": "bool"
        }
      ],
      "payable": false,
      "stateMutability": "view",
      "type": "function"
    },
    {
      "constant": true,
      "inputs": [],
      "name": "lastValidatorID",
      "outputs": [
        {
          "internalType": "uint256",
          "name": "",
          "type": "uint256"
        }
      ],
      "payable": false,
      "stateMutability": "view",
      "type": "function"
    },
    {
      "constant": false,
      "inputs": [
        {
          "internalType": "uint256",
          "name": "toValidatorID",
          "type": "uint256"
        },
        {
          "internalType": "uint256",
          "name": "lockupDuration",
          "type": "uint256"
        },
        {
          "internalType": "uint256",
          "name": "amount",
          "type": "uint256"
        }
      ],
      "name": "lockStake",
      "outputs": [],
      "payable": false,
      "stateMutability": "nonpayable",
      "type": "function"
    },
    {
      "constant": true,
      "inputs": [],
      "name": "maxDelegatedRatio",
      "outputs": [
        {
          "internalType": "uint256",
          "name": "",
          "type": "uint256"
        }
      ],
      "payable": false,
      "stateMutability": "view",
      "type": "function"
    },
    {
      "constant": true,
      "inputs": [],
      "name": "maxLockupDuration",
      "outputs": [
        {
          "internalType": "uint256",
          "name": "",
          "type": "uint256"
        }
      ],
      "payable": false,
      "stateMutability": "view",
      "type": "function"
    },
    {
      "constant": true,
      "inputs": [],
      "name": "minLockupDuration",
      "outputs": [
        {
          "internalType": "uint256",
          "name": "",
          "type": "uint256"
        }
      ],
      "payable": false,
      "stateMutability": "view",
      "type": "function"
    },
    {
      "constant": true,
      "inputs": [],
      "name": "minSelfStake",
      "outputs": [
        {
          "internalType": "uint256",
          "name": "",
          "type": "uint256"
        }
      ],
      "payable": false,
      "stateMutability": "view",
      "type": "function"
    },
    {
      "constant": false,
      "inputs": [
        {
          "internalType": "address payable",
          "name": "receiver",
          "type": "address"
        },
        {
          "internalType": "uint256",
          "name": "amount",
          "type": "uint256"
        },
        {
          "internalType": "string",
          "name": "justification",
          "type": "string"
        }
      ],
      "name": "mintFTM",
      "outputs": [],
      "payable": false,
      "stateMutability": "nonpayable",
      "type": "function"
    },
    {
      "constant": true,
      "inputs": [],
      "name": "offlinePenaltyThreshold",
      "outputs": [
        {
          "internalType": "uint256",
          "name": "blocksNum",
          "type": "uint256"
        },
        {
          "internalType": "uint256",
          "name": "time",
          "type": "uint256"
        }
      ],
      "payable": false,
      "stateMutability": "view",
      "type": "function"
    },
    {
      "constant": true,
      "inputs": [],
      "name": "owner",
      "outputs": [
        {
          "internalType": "address",
          "name": "",
          "type": "address"
        }
      ],
      "payable": false,
      "stateMutability": "view",
      "type": "function"
    },
    {
      "constant": true,
      "inputs": [
        {
          "internalType": "address",
          "name": "delegator",
          "type": "address"
        },
        {
          "internalType": "uint256",
          "name": "toValidatorID",
          "type": "uint256"
        }
      ],
      "name": "pendingRewards",
      "outputs": [
        {
          "internalType": "uint256",
          "name": "",
          "type": "uint256"
        }
      ],
      "payable": false,
      "stateMutability": "view",
      "type": "function"
    },
    {
      "constant": false,
      "inputs": [
        {
          "internalType": "uint256",
          "name": "toValidatorID",
          "type": "uint256"
        },
        {
          "internalType": "uint256",
          "name": "lockupDuration",
          "type": "uint256"
        },
        {
          "internalType": "uint256",
          "name": "amount",
          "type": "uint256"
        }
      ],
      "name": "relockStake",
      "outputs": [],
      "payable": false,
      "stateMutability": "nonpayable",
      "type": "function"
    },
    {
      "constant": false,
      "inputs": [],
      "name": "renounceOwnership",
      "outputs": [],
      "payable": false,
      "stateMutability": "nonpayable",
      "type": "function"
    },
    {
      "constant": false,
      "inputs": [
        {
          "internalType": "uint256",
          "name": "toValidatorID",
          "type": "uint256"
        }
      ],
      "name": "restakeRewards",
      "outputs": [],
      "payable": false,
      "stateMutability": "nonpayable",
      "type": "function"
    },
    {
      "constant": true,
      "inputs": [
        {
          "internalType": "address",
          "name": "delegator",
          "type": "address"
        },
        {
          "internalType": "uint256",
          "name": "validatorID",
          "type": "uint256"
        }
      ],
      "name": "rewardsStash",
      "outputs": [
        {
          "internalType": "uint256",
          "name": "",
          "type": "uint256"
        }
      ],
      "payable": false,
      "stateMutability": "view",
      "type": "function"
    },
    {
      "constant": false,
      "inputs": [
        {
          "internalType": "uint256[]",
          "name": "offlineTime",
          "type": "uint256[]"
        },
        {
          "internalType": "uint256[]",
          "name": "offlineBlocks",
          "type": "uint256[]"
        },
        {
          "internalType": "uint256[]",
          "name": "uptimes",
          "type": "uint256[]"
        },
        {
          "internalType": "uint256[]",
          "name": "originatedTxsFee",
          "type": "uint256[]"
        }
      ],
      "name": "sealEpoch",
      "outputs": [],
      "payable": false,
      "stateMutability": "nonpayable",
      "type": "function"
    },
    {
      "constant": false,
      "inputs": [
        {
          "internalType": "uint256[]",
          "name": "nextValidatorIDs",
          "type": "uint256[]"
        }
      ],
      "name": "sealEpochValidators",
      "outputs": [],
      "payable": false,
      "stateMutability": "nonpayable",
      "type": "function"
    },
    {
      "constant": false,
      "inputs": [
        {
          "internalType": "uint256",
          "name": "_contractCommission",
          "type": "uint256"
        }
      ],
      "name": "setContractCommission",
      "outputs": [],
      "payable": false,
      "stateMutability": "nonpayable",
      "type": "function"
    },
    {
      "constant": false,
      "inputs": [
        {
          "internalType": "address",
          "name": "delegator",
          "type": "address"
        },
        {
          "internalType": "uint256",
          "name": "toValidatorID",
          "type": "uint256"
        },
        {
          "internalType": "uint256",
          "name": "stake",
          "type": "uint256"
        },
        {
          "internalType": "uint256",
          "name": "lockedStake",
          "type": "uint256"
        },
        {
          "internalType": "uint256",
          "name": "lockupFromEpoch",
          "type": "uint256"
        },
        {
          "internalType": "uint256",
          "name": "lockupEndTime",
          "type": "uint256"
        },
        {
          "internalType": "uint256",
          "name": "lockupDuration",
          "type": "uint256"
        },
        {
          "internalType": "uint256",
          "name": "earlyUnlockPenalty",
          "type": "uint256"
        },
        {
          "internalType": "uint256",
          "name": "rewards",
          "type": "uint256"
        }
      ],
      "name": "setGenesisDelegation",
      "outputs": [],
      "payable": false,
      "stateMutability": "nonpayable",
      "type": "function"
    },
    {
      "constant": false,
      "inputs": [
        {
          "internalType": "address",
          "name": "auth",
          "type": "address"
        },
        {
          "internalType": "uint256",
          "name": "validatorID",
          "type": "uint256"
        },
        {
          "internalType": "bytes",
          "name": "pubkey",
          "type": "bytes"
        },
        {
          "internalType": "uint256",
          "name": "status",
          "type": "uint256"
        },
        {
          "internalType": "uint256",
          "name": "createdEpoch",
          "type": "uint256"
        },
        {
          "internalType": "uint256",
          "name": "createdTime",
          "type": "uint256"
        },
        {
          "internalType": "uint256",
          "name": "deactivatedEpoch",
          "type": "uint256"
        },
        {
          "internalType": "uint256",
          "name": "deactivatedTime",
          "type": "uint256"
        }
      ],
      "name": "setGenesisValidator",
      "outputs": [],
      "payable": false,
      "stateMutability": "nonpayable",
      "type": "function"
    },
    {
      "constant": false,
      "inputs": [
        {
          "internalType": "uint256",
          "name": "_maxDelegationRatio",
          "type": "uint256"
        }
      ],
      "name": "setMaxDelegation",
      "outputs": [],
      "payable": false,
      "stateMutability": "nonpayable",
      "type": "function"
    },
    {
      "constant": false,
      "inputs": [
        {
          "internalType": "uint256",
          "name": "_maxLockupDuration",
          "type": "uint256"
        }
      ],
      "name": "setMaxLockupDuration",
      "outputs": [],
      "payable": false,
      "stateMutability": "nonpayable",
      "type": "function"
    },
    {
      "constant": false,
      "inputs": [
        {
          "internalType": "uint256",
          "name": "_minLockupDuration",
          "type": "uint256"
        }
      ],
      "name": "setMinLockupDuration",
      "outputs": [],
      "payable": false,
      "stateMutability": "nonpayable",
      "type": "function"
    },
    {
      "constant": false,
      "inputs": [
        {
          "internalType": "uint256",
          "name": "_minSelfStake",
          "type": "uint256"
        }
      ],
      "name": "setMinSelfStake",
      "outputs": [],
      "payable": false,
      "stateMutability": "nonpayable",
      "type": "function"
    },
    {
      "constant": false,
      "inputs": [
        {
          "internalType": "uint256",
          "name": "_unlockedReward",
          "type": "uint256"
        }
      ],
      "name": "setUnlockedRewardRatio",
      "outputs": [],
      "payable": false,
      "stateMutability": "nonpayable",
      "type": "function"
    },
    {
      "constant": false,
      "inputs": [
        {
          "internalType": "uint256",
          "name": "_validatorCommission",
          "type": "uint256"
        }
      ],
      "name": "setValidatorCommission",
      "outputs": [],
      "payable": false,
      "stateMutability": "nonpayable",
      "type": "function"
    },
    {
      "constant": false,
      "inputs": [
        {
          "internalType": "uint256",
          "name": "_withdrawalPeriodEpochs",
          "type": "uint256"
        }
      ],
      "name": "setWithdrawalPeriodEpoch",
      "outputs": [],
      "payable": false,
      "stateMutability": "nonpayable",
      "type": "function"
    },
    {
      "constant": false,
      "inputs": [
        {
          "internalType": "uint256",
          "name": "_withdrawalPeriodTime",
          "type": "uint256"
        }
      ],
      "name": "setWithdrawalPeriodTime",
      "outputs": [],
      "payable": false,
      "stateMutability": "nonpayable",
      "type": "function"
    },
    {
      "constant": true,
      "inputs": [
        {
          "internalType": "uint256",
          "name": "",
          "type": "uint256"
        }
      ],
      "name": "slashingRefundRatio",
      "outputs": [
        {
          "internalType": "uint256",
          "name": "",
          "type": "uint256"
        }
      ],
      "payable": false,
      "stateMutability": "view",
      "type": "function"
    },
    {
      "constant": true,
      "inputs": [],
      "name": "stakeTokenizerAddress",
      "outputs": [
        {
          "internalType": "address",
          "name": "",
          "type": "address"
        }
      ],
      "payable": false,
      "stateMutability": "view",
      "type": "function"
    },
    {
      "constant": false,
      "inputs": [
        {
          "internalType": "address",
          "name": "delegator",
          "type": "address"
        },
        {
          "internalType": "uint256",
          "name": "toValidatorID",
          "type": "uint256"
        }
      ],
      "name": "stashRewards",
      "outputs": [],
      "payable": false,
      "stateMutability": "nonpayable",
      "type": "function"
    },
    {
      "constant": true,
      "inputs": [
        {
          "internalType": "address",
          "name": "",
          "type": "address"
        },
        {
          "internalType": "uint256",
          "name": "",
          "type": "uint256"
        }
      ],
      "name": "stashedRewardsUntilEpoch",
      "outputs": [
        {
          "internalType": "uint256",
          "name": "",
          "type": "uint256"
        }
      ],
      "payable": false,
      "stateMutability": "view",
      "type": "function"
    },
    {
      "constant": true,
      "inputs": [],
      "name": "totalActiveStake",
      "outputs": [
        {
          "internalType": "uint256",
          "name": "",
          "type": "uint256"
        }
      ],
      "payable": false,
      "stateMutability": "view",
      "type": "function"
    },
    {
      "constant": true,
      "inputs": [],
      "name": "totalSlashedStake",
      "outputs": [
        {
          "internalType": "uint256",
          "name": "",
          "type": "uint256"
        }
      ],
      "payable": false,
      "stateMutability": "view",
      "type": "function"
    },
    {
      "constant": true,
      "inputs": [],
      "name": "totalStake",
      "outputs": [
        {
          "internalType": "uint256",
          "name": "",
          "type": "uint256"
        }
      ],
      "payable": false,
      "stateMutability": "view",
      "type": "function"
    },
    {
      "constant": true,
      "inputs": [],
      "name": "totalSupply",
      "outputs": [
        {
          "internalType": "uint256",
          "name": "",
          "type": "uint256"
        }
      ],
      "payable": false,
      "stateMutability": "view",
      "type": "function"
    },
    {
      "constant": false,
      "inputs": [
        {
          "internalType": "address",
          "name": "newOwner",
          "type": "address"
        }
      ],
      "name": "transferOwnership",
      "outputs": [],
      "payable": false,
      "stateMutability": "nonpayable",
      "type": "function"
    },
    {
      "constant": false,
      "inputs": [
        {
          "internalType": "uint256",
          "name": "toValidatorID",
          "type": "uint256"
        },
        {
          "internalType": "uint256",
          "name": "wrID",
          "type": "uint256"
        },
        {
          "internalType": "uint256",
          "name": "amount",
          "type": "uint256"
        }
      ],
      "name": "undelegate",
      "outputs": [],
      "payable": false,
      "stateMutability": "nonpayable",
      "type": "function"
    },
    {
      "constant": false,
      "inputs": [
        {
          "internalType": "uint256",
          "name": "toValidatorID",
          "type": "uint256"
        },
        {
          "internalType": "uint256",
          "name": "amount",
          "type": "uint256"
        }
      ],
      "name": "unlockStake",
      "outputs": [
        {
          "internalType": "uint256",
          "name": "",
          "type": "uint256"
        }
      ],
      "payable": false,
      "stateMutability": "nonpayable",
      "type": "function"
    },
    {
      "constant": true,
      "inputs": [],
      "name": "unlockedRewardRatio",
      "outputs": [
        {
          "internalType": "uint256",
          "name": "",
          "type": "uint256"
        }
      ],
      "payable": false,
      "stateMutability": "view",
      "type": "function"
    },
    {
      "constant": false,
      "inputs": [
        {
          "internalType": "uint256",
          "name": "value",
          "type": "uint256"
        }
      ],
      "name": "updateBaseRewardPerSecond",
      "outputs": [],
      "payable": false,
      "stateMutability": "nonpayable",
      "type": "function"
    },
    {
      "constant": false,
      "inputs": [
        {
          "internalType": "address",
          "name": "_governance",
          "type": "address"
        }
      ],
      "name": "updateGovernanceContract",
      "outputs": [],
      "payable": false,
      "stateMutability": "nonpayable",
      "type": "function"
    },
    {
      "constant": false,
      "inputs": [
        {
          "internalType": "uint256",
          "name": "blocksNum",
          "type": "uint256"
        },
        {
          "internalType": "uint256",
          "name": "time",
          "type": "uint256"
        }
      ],
      "name": "updateOfflinePenaltyThreshold",
      "outputs": [],
      "payable": false,
      "stateMutability": "nonpayable",
      "type": "function"
    },
    {
      "constant": false,
      "inputs": [
        {
          "internalType": "uint256",
          "name": "validatorID",
          "type": "uint256"
        },
        {
          "internalType": "uint256",
          "name": "refundRatio",
          "type": "uint256"
        }
      ],
      "name": "updateSlashingRefundRatio",
      "outputs": [],
      "payable": false,
      "stateMutability": "nonpayable",
      "type": "function"
    },
    {
      "constant": false,
      "inputs": [
        {
          "internalType": "address",
          "name": "addr",
          "type": "address"
        }
      ],
      "name": "updateStakeTokenizerAddress",
      "outputs": [],
      "payable": false,
      "stateMutability": "nonpayable",
      "type": "function"
    },
    {
      "constant": false,
      "inputs": [
        {
          "internalType": "int256",
          "name": "diff",
          "type": "int256"
        }
      ],
      "name": "updateTotalSupply",
      "outputs": [],
      "payable": false,
      "stateMutability": "nonpayable",
      "type": "function"
    },
    {
      "constant": true,
      "inputs": [],
      "name": "validatorCommission",
      "outputs": [
        {
          "internalType": "uint256",
          "name": "",
          "type": "uint256"
        }
      ],
      "payable": false,
      "stateMutability": "view",
      "type": "function"
    },
    {
      "constant": true,
      "inputs": [],
      "name": "version",
      "outputs": [
        {
          "internalType": "bytes3",
          "name": "",
          "type": "bytes3"
        }
      ],
      "payable": false,
      "stateMutability": "pure",
      "type": "function"
    },
    {
      "constant": true,
      "inputs": [],
      "name": "viewMaxDelegation",
      "outputs": [
        {
          "internalType": "uint256",
          "name": "",
          "type": "uint256"
        }
      ],
      "payable": false,
      "stateMutability": "view",
      "type": "function"
    },
    {
      "constant": false,
      "inputs": [
        {
          "internalType": "uint256",
          "name": "toValidatorID",
          "type": "uint256"
        },
        {
          "internalType": "uint256",
          "name": "wrID",
          "type": "uint256"
        }
      ],
      "name": "withdraw",
      "outputs": [],
      "payable": false,
      "stateMutability": "nonpayable",
      "type": "function"
    },
    {
      "constant": true,
      "inputs": [],
      "name": "withdrawalPeriodEpochs",
      "outputs": [
        {
          "internalType": "uint256",
          "name": "",
          "type": "uint256"
        }
      ],
      "payable": false,
      "stateMutability": "view",
      "type": "function"
    },
    {
      "constant": true,
      "inputs": [],
      "name": "withdrawalPeriodTime",
      "outputs": [
        {
          "internalType": "uint256",
          "name": "",
          "type": "uint256"
        }
      ],
      "payable": false,
      "stateMutability": "view",
      "type": "function"
    }
  ],
  "bytecode": "0x608060405234801561001057600080fd5b5061606b80620000216000396000f3fe60806040526004361061049f5760003560e01c80637cacb1d611610260578063bd14d90711610144578063d9a7c1f9116100c1578063e261641a11610085578063e261641a146113e1578063e2f8c33614611411578063e4af78be146114a1578063ebdf104c146114cb578063f2fde38b14611636578063f78bf110146116695761049f565b8063d9a7c1f9146112bb578063dc31e1af146112d0578063de67f21514611300578063df00c92214611336578063e08d7e66146113665761049f565b8063cc8343aa11610108578063cc8343aa146111c3578063cefe9c18146111f5578063cfd476631461121f578063cfdbb7cd14611258578063d75629cf146112915761049f565b8063bd14d9071461110f578063c3de580e14611145578063c5f530af1461116f578063c65ee0e114611184578063c7be95de146111ae5761049f565b8063a198d229116101dd578063ad9a4b5c116101a1578063ad9a4b5c14610f88578063b5d8962714610fb2578063b6d9edd51461101d578063b810e41114611047578063b82b842714611080578063b88a37e2146110955761049f565b8063a198d22914610e69578063a2f6e6bc14610e99578063a5a470ad14610ecc578063a778651514610f3a578063a86a056f14610f4f5761049f565b80638da5cb5b116102245780638da5cb5b14610d9a5780638f32d59b14610daf57806396c7ee4614610dd85780639d0c3c0514610e375780639fa6dd3514610e4c5761049f565b80637cacb1d614610c68578063854873e114610c7d5780638b0e9f3f14610d1c5780638b1a0d1114610d315780638cddb01514610d615761049f565b806339b80c00116103875780635e2308d211610304578063670322f8116102c8578063670322f814610b6f5780636ca6d6bc14610ba85780636f49866314610bd25780636faf60a014610c0b578063715018a614610c3e5780637667180814610c535761049f565b80635e2308d214610ac75780635fab23a814610adc5780636099ecb214610af157806361e53fcc14610b2a578063650acd6614610b5a5761049f565b80634f864df41161034b5780634f864df41461095c5780634feb92f31461099257806354fd4d5014610a3b5780635601fe0114610a6d57806358f95b8014610a975761049f565b806339b80c001461081f5780633fbfd4df146108815780634055f273146108d2578063441a3e70146108fc5780634f7c4efb1461092c5761049f565b806318f628d4116104205780632709275e116103e45780632709275e1461075e578063289b3c0d1461077357806328f73148146107885780632cedb0971461079d5780632d2646ed146107cb578063346bdcfb146107f55761049f565b806318f628d4146106275780631d3ac42c1461068c5780631e702f83146106bc5780631f270152146106ec5780632265f284146107495761049f565b80630d7b2609116104675780630d7b26091461057e5780630e559d8214610593578063109c3d27146105c457806312622d0e146105d957806318160ddd146106125761049f565b80630135b1db146104a457806303c91ccd146104e957806308c36874146105155780630962ef791461053f5780630d4955e314610569575b600080fd5b3480156104b057600080fd5b506104d7600480360360208110156104c757600080fd5b50356001600160a01b0316611693565b60408051918252519081900360200190f35b3480156104f557600080fd5b506105136004803603602081101561050c57600080fd5b50356116a5565b005b34801561052157600080fd5b506105136004803603602081101561053857600080fd5b50356116ba565b34801561054b57600080fd5b506105136004803603602081101561056257600080fd5b5035611786565b34801561057557600080fd5b506104d76118c6565b34801561058a57600080fd5b506104d76118d1565b34801561059f57600080fd5b506105a86118da565b604080516001600160a01b039092168252519081900360200190f35b3480156105d057600080fd5b506104d76118e9565b3480156105e557600080fd5b506104d7600480360360408110156105fc57600080fd5b506001600160a01b03813516906020013561196c565b34801561061e57600080fd5b506104d76119f5565b34801561063357600080fd5b50610513600480360361012081101561064b57600080fd5b506001600160a01b038135169060208101359060408101359060608101359060808101359060a08101359060c08101359060e08101359061010001356119fb565b34801561069857600080fd5b506104d7600480360360408110156106af57600080fd5b5080359060200135611b5b565b3480156106c857600080fd5b50610513600480360360408110156106df57600080fd5b5080359060200135611d33565b3480156106f857600080fd5b5061072b6004803603606081101561070f57600080fd5b506001600160a01b038135169060208101359060400135611dd1565b60408051938452602084019290925282820152519081900360600190f35b34801561075557600080fd5b506104d7611e03565b34801561076a57600080fd5b506104d7611e16565b34801561077f57600080fd5b506105a8611e33565b34801561079457600080fd5b506104d7611e42565b3480156107a957600080fd5b506107b2611e48565b6040805192835260208301919091528051918290030190f35b3480156107d757600080fd5b50610513600480360360208110156107ee57600080fd5b5035611e52565b34801561080157600080fd5b506105136004803603602081101561081857600080fd5b5035611e64565b34801561082b57600080fd5b506108496004803603602081101561084257600080fd5b5035611ed0565b604080519788526020880196909652868601949094526060860192909252608085015260a084015260c0830152519081900360e00190f35b34801561088d57600080fd5b50610513600480360360a08110156108a457600080fd5b508035906020810135906001600160a01b036040820135811691606081013582169160809091013516611f12565b3480156108de57600080fd5b50610513600480360360208110156108f557600080fd5b5035612023565b34801561090857600080fd5b506105136004803603604081101561091f57600080fd5b5080359060200135612035565b34801561093857600080fd5b506105136004803603604081101561094f57600080fd5b5080359060200135612432565b34801561096857600080fd5b506105136004803603606081101561097f57600080fd5b5080359060208101359060400135612564565b34801561099e57600080fd5b5061051360048036036101008110156109b657600080fd5b6001600160a01b0382351691602081013591810190606081016040820135600160201b8111156109e557600080fd5b8201836020820111156109f757600080fd5b803590602001918460018302840111600160201b83111715610a1857600080fd5b9193509150803590602081013590604081013590606081013590608001356127dc565b348015610a4757600080fd5b50610a50612882565b604080516001600160e81b03199092168252519081900360200190f35b348015610a7957600080fd5b506104d760048036036020811015610a9057600080fd5b503561288c565b348015610aa357600080fd5b506104d760048036036040811015610aba57600080fd5b50803590602001356128c2565b348015610ad357600080fd5b506104d76128df565b348015610ae857600080fd5b506104d76128f6565b348015610afd57600080fd5b506104d760048036036040811015610b1457600080fd5b506001600160a01b0381351690602001356128fc565b348015610b3657600080fd5b506104d760048036036040811015610b4d57600080fd5b508035906020013561293a565b348015610b6657600080fd5b506104d761295b565b348015610b7b57600080fd5b506104d760048036036040811015610b9257600080fd5b506001600160a01b038135169060200135612961565b348015610bb457600080fd5b5061051360048036036020811015610bcb57600080fd5b50356129a2565b348015610bde57600080fd5b506104d760048036036040811015610bf557600080fd5b506001600160a01b0381351690602001356129b4565b348015610c1757600080fd5b5061051360048036036020811015610c2e57600080fd5b50356001600160a01b0316612a1e565b348015610c4a57600080fd5b50610513612ac1565b348015610c5f57600080fd5b506104d7612b52565b348015610c7457600080fd5b506104d7612b5b565b348015610c8957600080fd5b50610ca760048036036020811015610ca057600080fd5b5035612b61565b6040805160208082528351818301528351919283929083019185019080838360005b83811015610ce1578181015183820152602001610cc9565b50505050905090810190601f168015610d0e5780820380516001836020036101000a031916815260200191505b509250505060405180910390f35b348015610d2857600080fd5b506104d7612bfc565b348015610d3d57600080fd5b5061051360048036036040811015610d5457600080fd5b5080359060200135612c02565b348015610d6d57600080fd5b5061051360048036036040811015610d8457600080fd5b506001600160a01b038135169060200135612c92565b348015610da657600080fd5b506105a8612ce0565b348015610dbb57600080fd5b50610dc4612cef565b604080519115158252519081900360200190f35b348015610de457600080fd5b50610e1160048036036040811015610dfb57600080fd5b506001600160a01b038135169060200135612d00565b604080519485526020850193909352838301919091526060830152519081900360800190f35b348015610e4357600080fd5b506104d7612d32565b61051360048036036020811015610e6257600080fd5b5035612d38565b348015610e7557600080fd5b506104d760048036036040811015610e8c57600080fd5b5080359060200135612d43565b348015610ea557600080fd5b5061051360048036036020811015610ebc57600080fd5b50356001600160a01b0316612d64565b61051360048036036020811015610ee257600080fd5b810190602081018135600160201b811115610efc57600080fd5b820183602082011115610f0e57600080fd5b803590602001918460018302840111600160201b83111715610f2f57600080fd5b509092509050612dcd565b348015610f4657600080fd5b506104d7612f4f565b348015610f5b57600080fd5b506104d760048036036040811015610f7257600080fd5b506001600160a01b038135169060200135612f66565b348015610f9457600080fd5b5061051360048036036020811015610fab57600080fd5b5035612f83565b348015610fbe57600080fd5b50610fdc60048036036020811015610fd557600080fd5b5035612f95565b604080519788526020880196909652868601949094526060860192909252608085015260a08401526001600160a01b031660c0830152519081900360e00190f35b34801561102957600080fd5b506105136004803603602081101561104057600080fd5b5035612fdb565b34801561105357600080fd5b5061072b6004803603604081101561106a57600080fd5b506001600160a01b0381351690602001356130bb565b34801561108c57600080fd5b506104d76130e7565b3480156110a157600080fd5b506110bf600480360360208110156110b857600080fd5b50356130ed565b60408051602080825283518183015283519192839290830191858101910280838360005b838110156110fb5781810151838201526020016110e3565b505050509050019250505060405180910390f35b34801561111b57600080fd5b506105136004803603606081101561113257600080fd5b5080359060208101359060400135613152565b34801561115157600080fd5b50610dc46004803603602081101561116857600080fd5b5035613165565b34801561117b57600080fd5b506104d761317c565b34801561119057600080fd5b506104d7600480360360208110156111a757600080fd5b503561318c565b3480156111ba57600080fd5b506104d761319e565b3480156111cf57600080fd5b50610513600480360360408110156111e657600080fd5b508035906020013515156131a4565b34801561120157600080fd5b506105136004803603602081101561121857600080fd5b5035613386565b34801561122b57600080fd5b506104d76004803603604081101561124257600080fd5b506001600160a01b038135169060200135613398565b34801561126457600080fd5b50610dc46004803603604081101561127b57600080fd5b506001600160a01b0381351690602001356133b5565b34801561129d57600080fd5b50610513600480360360208110156112b457600080fd5b503561344b565b3480156112c757600080fd5b506104d761345d565b3480156112dc57600080fd5b506104d7600480360360408110156112f357600080fd5b5080359060200135613463565b34801561130c57600080fd5b506105136004803603606081101561132357600080fd5b5080359060208101359060400135613484565b34801561134257600080fd5b506104d76004803603604081101561135957600080fd5b5080359060200135613521565b34801561137257600080fd5b506105136004803603602081101561138957600080fd5b810190602081018135600160201b8111156113a357600080fd5b8201836020820111156113b557600080fd5b803590602001918460208302840111600160201b831117156113d657600080fd5b509092509050613542565b3480156113ed57600080fd5b506104d76004803603604081101561140457600080fd5b508035906020013561361c565b34801561141d57600080fd5b506105136004803603606081101561143457600080fd5b6001600160a01b0382351691602081013591810190606081016040820135600160201b81111561146357600080fd5b82018360208201111561147557600080fd5b803590602001918460018302840111600160201b8311171561149657600080fd5b50909250905061363d565b3480156114ad57600080fd5b50610513600480360360208110156114c457600080fd5b503561373c565b3480156114d757600080fd5b50610513600480360360808110156114ee57600080fd5b810190602081018135600160201b81111561150857600080fd5b82018360208201111561151a57600080fd5b803590602001918460208302840111600160201b8311171561153b57600080fd5b919390929091602081019035600160201b81111561155857600080fd5b82018360208201111561156a57600080fd5b803590602001918460208302840111600160201b8311171561158b57600080fd5b919390929091602081019035600160201b8111156115a857600080fd5b8201836020820111156115ba57600080fd5b803590602001918460208302840111600160201b831117156115db57600080fd5b919390929091602081019035600160201b8111156115f857600080fd5b82018360208201111561160a57600080fd5b803590602001918460208302840111600160201b8311171561162b57600080fd5b50909250905061374e565b34801561164257600080fd5b506105136004803603602081101561165957600080fd5b50356001600160a01b031661392a565b34801561167557600080fd5b506105136004803603602081101561168c57600080fd5b503561397a565b606a6020526000908152604090205481565b6116ae3361398c565b6116b781613a06565b50565b336116c3615d6b565b6116cd8284613a41565b602081015181519192506000916116e99163ffffffff613b3516565b905061170c8385611707856040015185613b3590919063ffffffff16565b613b8f565b6001600160a01b0383166000818152607460209081526040808320888452825291829020805485019055845185820151868401518451928352928201528083019190915290518692917f4119153d17a36f9597d40e3ab4148d03261a439dddbec4e91799ab7159608e26919081900360600190a350505050565b3361178f615d6b565b6117998284613a41565b90506000826001600160a01b03166117d683604001516117ca85602001518660000151613b3590919063ffffffff16565b9063ffffffff613b3516565b604051600081818185875af1925050503d8060008114611812576040519150601f19603f3d011682016040523d82523d6000602084013e611817565b606091505b5050905080611862576040805162461bcd60e51b81526020600482015260126024820152714661696c656420746f2073656e642046544d60701b604482015290519081900360640190fd5b83836001600160a01b03167fc1d8eb6e444b89fb8ff0991c19311c070df704ccb009e210d1462d5b2410bf4584600001518560200151866040015160405180848152602001838152602001828152602001935050505060405180910390a350505050565b60815461016d025b90565b608054600e0290565b6085546001600160a01b031681565b600080606660009054906101000a90046001600160a01b03166001600160a01b0316635584c4f96040518163ffffffff1660e01b815260040160206040518083038186803b15801561193a57600080fd5b505afa15801561194e573d6000803e3d6000fd5b505050506040513d602081101561196457600080fd5b505191505090565b600061197883836133b5565b6119a657506001600160a01b03821660009081526073602090815260408083208484529091529020546119ef565b6001600160a01b0383166000818152607460209081526040808320868452825280832054938352607382528083208684529091529020546119ec9163ffffffff613c8c16565b90505b92915050565b60775481565b611a0433613cce565b611a3f5760405162461bcd60e51b8152600401808060200182810382526029815260200180615ebc6029913960400191505060405180910390fd5b611a4a898989613ce2565b6001600160a01b03891660009081526070602090815260408083208b84529091529020600201819055611a7c87613e47565b8515611b505786861115611ac15760405162461bcd60e51b815260040180806020018281038252602c81526020018061600b602c913960400191505060405180910390fd5b6001600160a01b03891660008181526074602090815260408083208c845282528083208a8155600181018a90556002810189905560038101889055848452607583528184208d855283529281902086905580518781529182018a9052805192938c9390927f138940e95abffcd789b497bf6188bba3afa5fbd22fb5c42c2f6018d1bf0f4e7892908290030190a3505b505050505050505050565b336000818152607460209081526040808320868452909152812090919083611bb8576040805162461bcd60e51b815260206004820152600b60248201526a1e995c9bc8185b5bdd5b9d60aa1b604482015290519081900360640190fd5b611bc282866133b5565b611c03576040805162461bcd60e51b815260206004820152600d60248201526c06e6f74206c6f636b656420757609c1b604482015290519081900360640190fd5b8054841115611c59576040805162461bcd60e51b815260206004820152601760248201527f6e6f7420656e6f756768206c6f636b6564207374616b65000000000000000000604482015290519081900360640190fd5b611c638286613ecc565b611caf576040805162461bcd60e51b81526020600482015260186024820152776f75747374616e64696e67207346544d2062616c616e636560401b604482015290519081900360640190fd5b611cb98286613f6e565b506000611ccc8387878560000154614139565b825486900383559050611ce083878361426a565b85836001600160a01b03167fef6c0c14fe9aa51af36acd791464dec3badbde668b63189b47bfa4e25be9b2b98784604051808381526020018281526020019250505060405180910390a395945050505050565b611d3c33613cce565b611d775760405162461bcd60e51b8152600401808060200182810382526029815260200180615ebc6029913960400191505060405180910390fd5b80611db8576040805162461bcd60e51b815260206004820152600c60248201526b77726f6e672073746174757360a01b604482015290519081900360640190fd5b611dc282826143ba565b611dcd8260006131a4565b5050565b607260209081526000938452604080852082529284528284209052825290208054600182015460029092015490919083565b6000611e0d6144e4565b607c5402905090565b60006064611e226144e4565b607e540281611e2d57fe5b04905090565b6066546001600160a01b031690565b606e5481565b607954607a549091565b611e5b3361398c565b6116b7816144f0565b611e6c612cef565b611eab576040805162461bcd60e51b81526020600482018190526024820152600080516020615f06833981519152604482015290519081900360640190fd5b60008112611ec05760778054820190556116b7565b6077805460008390039003905550565b607860205280600052604060002060009150905080600701549080600801549080600901549080600a01549080600b01549080600c01549080600d0154905087565b600054610100900460ff1680611f2b5750611f2b61452b565b80611f39575060005460ff16155b611f745760405162461bcd60e51b815260040180806020018281038252602e815260200180615f26602e913960400191505060405180910390fd5b600054610100900460ff16158015611f9f576000805460ff1961ff0019909116610100171660011790555b611fa883614531565b611fb182614622565b6068869055606780546001600160a01b0319166001600160a01b03861617905560778590556755cfe697852e904c6076556103e86079556203f480607a55611ff761470d565b600087815260786020526040902060070155801561201b576000805461ff00191690555b505050505050565b61202c3361398c565b6116b781614711565b3361203e615d6b565b506001600160a01b0381166000908152607260209081526040808320868452825280832085845282529182902082516060810184528154808252600183015493820193909352600290910154928101929092526120da576040805162461bcd60e51b81526020600482015260156024820152741c995c5d595cdd08191bd95cdb89dd08195e1a5cdd605a1b604482015290519081900360640190fd5b6120e48285613ecc565b612130576040805162461bcd60e51b81526020600482015260186024820152776f75747374616e64696e67207346544d2062616c616e636560401b604482015290519081900360640190fd5b6020808201518251600087815260699093526040909220600101549091901580159061216c575060008681526069602052604090206001015482115b1561218d575050600084815260696020526040902060018101546002909101545b6121956130e7565b820161219f61470d565b10156121eb576040805162461bcd60e51b81526020600482015260166024820152751b9bdd08195b9bdd59da081d1a5b59481c185cdcd95960521b604482015290519081900360640190fd5b6121f361295b565b81016121fd612b52565b1015612250576040805162461bcd60e51b815260206004820152601860248201527f6e6f7420656e6f7567682065706f636873207061737365640000000000000000604482015290519081900360640190fd5b6001600160a01b038416600090815260726020908152604080832089845282528083208884529091528120600201549061228988613165565b905060006122ab8383608460008d81526020019081526020016000205461474c565b6001600160a01b03881660009081526072602090815260408083208d845282528083208c845290915281208181556001810182905560020155606f805482019055905080831161233b576040805162461bcd60e51b81526020600482015260166024820152751cdd185ad9481a5cc8199d5b1b1e481cdb185cda195960521b604482015290519081900360640190fd5b60006001600160a01b038816612357858463ffffffff613c8c16565b604051600081818185875af1925050503d8060008114612393576040519150601f19603f3d011682016040523d82523d6000602084013e612398565b606091505b50509050806123e3576040805162461bcd60e51b81526020600482015260126024820152714661696c656420746f2073656e642046544d60701b604482015290519081900360640190fd5b888a896001600160a01b03167f75e161b3e824b114fc1a33274bd7091918dd4e639cede50b78b15a4eea956a21876040518082815260200191505060405180910390a450505050505050505050565b61243a612cef565b612479576040805162461bcd60e51b81526020600482018190526024820152600080516020615f06833981519152604482015290519081900360640190fd5b61248282613165565b6124d3576040805162461bcd60e51b815260206004820152601760248201527f76616c696461746f722069736e277420736c6173686564000000000000000000604482015290519081900360640190fd5b6124db6144e4565b8111156125195760405162461bcd60e51b8152600401808060200182810382526021815260200180615f996021913960400191505060405180910390fd5b6000828152608460209081526040918290208390558151838152915184927f047575f43f09a7a093d94ec483064acfc61b7e25c0de28017da442abf99cb91792908290030190a25050565b3361256f8185613f6e565b50600082116125b3576040805162461bcd60e51b815260206004820152600b60248201526a1e995c9bc8185b5bdd5b9d60aa1b604482015290519081900360640190fd5b6125bd818561196c565b821115612611576040805162461bcd60e51b815260206004820152601960248201527f6e6f7420656e6f75676820756e6c6f636b6564207374616b6500000000000000604482015290519081900360640190fd5b61261b8185613ecc565b612667576040805162461bcd60e51b81526020600482015260186024820152776f75747374616e64696e67207346544d2062616c616e636560401b604482015290519081900360640190fd5b6001600160a01b03811660009081526072602090815260408083208784528252808320868452909152902060020154156126de576040805162461bcd60e51b81526020600482015260136024820152727772494420616c72656164792065786973747360681b604482015290519081900360640190fd5b6126e981858461426a565b6001600160a01b038116600090815260726020908152604080832087845282528083208684529091529020600201829055612722612b52565b6001600160a01b0382166000908152607260209081526040808320888452825280832087845290915290205561275661470d565b6001600160a01b038216600090815260726020908152604080832088845282528083208784529091528120600101919091556127939085906131a4565b8284826001600160a01b03167fd3bb4e423fbea695d16b982f9f682dc5f35152e5411646a8a5a79a6b02ba8d57856040518082815260200191505060405180910390a450505050565b6127e533613cce565b6128205760405162461bcd60e51b8152600401808060200182810382526029815260200180615ebc6029913960400191505060405180910390fd5b612868898989898080601f0160208091040260200160405190810160405280939291908181526020018383808284376000920191909152508b92508a915089905088886147ae565b606c54881115611b5057606c889055505050505050505050565b6219981960e91b90565b6000818152606960209081526040808320600601546001600160a01b03168352607382528083208484529091529020545b919050565b600091825260786020908152604080842092845291905290205490565b600060646128eb6144e4565b607f540281611e2d57fe5b606f5481565b6000612906615d6b565b612910848461495d565b805160208201516040830151929350612932926117ca9163ffffffff613b3516565b949350505050565b60009182526078602090815260408084209284526001909201905290205490565b60825490565b600061296d83836133b5565b612979575060006119ef565b506001600160a01b03919091166000908152607460209081526040808320938352929052205490565b6129ab3361398c565b6116b7816149cb565b60006129be615d6b565b506001600160a01b0383166000908152607060209081526040808320858452825291829020825160608101845281548082526001830154938201849052600290920154938101849052926129329290916117ca919063ffffffff613b3516565b612a26612cef565b612a65576040805162461bcd60e51b81526020600482018190526024820152600080516020615f06833981519152604482015290519081900360640190fd5b6066546040516001600160a01b038084169216907f434a2db650703b36c824e745330d6397cdaa9ee2cc891a4938ae853e1c50b68d90600090a3606680546001600160a01b0319166001600160a01b0392909216919091179055565b612ac9612cef565b612b08576040805162461bcd60e51b81526020600482018190526024820152600080516020615f06833981519152604482015290519081900360640190fd5b6033546040516000916001600160a01b0316907f8be0079c531659141344cd1fd0a4f28419497f9722a3daafe3b4186f6b6457e0908390a3603380546001600160a01b0319169055565b60685460010190565b60685481565b606b6020908152600091825260409182902080548351601f600260001961010060018616150201909316929092049182018490048402810184019094528084529091830182828015612bf45780601f10612bc957610100808354040283529160200191612bf4565b820191906000526020600020905b815481529060010190602001808311612bd757829003601f168201915b505050505081565b606d5481565b612c0a612cef565b612c49576040805162461bcd60e51b81526020600482018190526024820152600080516020615f06833981519152604482015290519081900360640190fd5b607a8190556079829055604080518381526020810183905281517f702756a07c05d0bbfd06fc17b67951a5f4deb7bb6b088407e68a58969daf2a34929181900390910190a15050565b612c9c8282613f6e565b611dcd576040805162461bcd60e51b815260206004820152601060248201526f0dcdee8d0d2dcce40e8de40e6e8c2e6d60831b604482015290519081900360640190fd5b6033546001600160a01b031690565b6033546001600160a01b0316331490565b607460209081526000928352604080842090915290825290208054600182015460028301546003909301549192909184565b607c5490565b6116b7338234613b8f565b60009182526078602090815260408084209284526005909201905290205490565b612d6c612cef565b612dab576040805162461bcd60e51b81526020600482018190526024820152600080516020615f06833981519152604482015290519081900360640190fd5b608580546001600160a01b0319166001600160a01b0392909216919091179055565b612dd561317c565b341015612e23576040805162461bcd60e51b8152602060048201526017602482015276696e73756666696369656e742073656c662d7374616b6560481b604482015290519081900360640190fd5b8015801590612e33575060428111155b612e73576040805162461bcd60e51b815260206004820152600c60248201526b656d707479207075626b657960a01b604482015290519081900360640190fd5b6000805b6004811015612eb657838382810160031901818110612e9257fe5b909101356001600160f81b031916159050612eae578160010191505b600101612e77565b5060008111612efd576040805162461bcd60e51b815260206004820152600e60248201526d696e76616c6964207075626b657960901b604482015290519081900360640190fd5b612f3d3384848080601f016020809104026020016040519081016040528093929190818152602001838380828437600092019190915250614a0692505050565b612f4a33606c5434613b8f565b505050565b60006064612f5b6144e4565b607d540281611e2d57fe5b607160209081526000928352604080842090915290825290205481565b612f8c3361398c565b6116b781614a31565b606960205260009081526040902080546001820154600283015460038401546004850154600586015460069096015494959394929391929091906001600160a01b031687565b612fe3612cef565b613022576040805162461bcd60e51b81526020600482018190526024820152600080516020615f06833981519152604482015290519081900360640190fd5b6801c985c8903591eb20811115613080576040805162461bcd60e51b815260206004820152601b60248201527f746f6f206c617267652072657761726420706572207365636f6e640000000000604482015290519081900360640190fd5b60768190556040805182815290517f8cd9dae1bbea2bc8a5e80ffce2c224727a25925130a03ae100619a8861ae23969181900360200190a150565b607560209081526000928352604080842090915290825290208054600182015460029092015490919083565b60835490565b60008181526078602090815260409182902060060180548351818402810184019094528084526060939283018282801561314657602002820191906000526020600020905b815481526020019060010190808311613132575b50505050509050919050565b3361315f81858585614a6c565b50505050565b600090815260696020526040902054608016151590565b607b54670de0b6b3a76400000290565b60846020526000908152604090205481565b606c5481565b6131ad82614d1e565b6131f8576040805162461bcd60e51b81526020600482015260176024820152761d985b1a59185d1bdc88191bd95cdb89dd08195e1a5cdd604a1b604482015290519081900360640190fd5b60008281526069602052604090206003810154905415613216575060005b6067546040805163520337df60e11b8152600481018690526024810184905290516001600160a01b039092169163a4066fbe9160448082019260009290919082900301818387803b15801561326a57600080fd5b505af115801561327e573d6000803e3d6000fd5b5050505081801561328e57508015155b15612f4a576067546000848152606b602052604090819020815163242a6e3f60e01b81526004810187815260248201938452825460026000196001831615610100020190911604604483018190526001600160a01b039095169463242a6e3f948994939091606490910190849080156133485780601f1061331d57610100808354040283529160200191613348565b820191906000526020600020905b81548152906001019060200180831161332b57829003601f168201915b50509350505050600060405180830381600087803b15801561336957600080fd5b505af115801561337d573d6000803e3d6000fd5b50505050505050565b61338f3361398c565b6116b781614d35565b607360209081526000928352604080842090915290825290205481565b6001600160a01b03821660009081526074602090815260408083208484529091528120600201541580159061340c57506001600160a01b038316600090815260746020908152604080832085845290915290205415155b80156119ec57506001600160a01b038316600090815260746020908152604080832085845290915290206002015461344261470d565b11159392505050565b6134543361398c565b6116b781614d70565b60765481565b60009182526078602090815260408084209284526003909201905290205490565b33816134c5576040805162461bcd60e51b815260206004820152600b60248201526a1e995c9bc8185b5bdd5b9d60aa1b604482015290519081900360640190fd5b6134cf81856133b5565b15613515576040805162461bcd60e51b81526020600482015260116024820152700616c7265616479206c6f636b656420757607c1b604482015290519081900360640190fd5b61315f81858585614a6c565b60009182526078602090815260408084209284526002909201905290205490565b61354b33613cce565b6135865760405162461bcd60e51b8152600401808060200182810382526029815260200180615ebc6029913960400191505060405180910390fd5b600060786000613594612b52565b8152602001908152602001600020905060008090505b8281101561360d5760008484838181106135c057fe5b60209081029290920135600081815260698452604080822060030154948890529020839055600c8601549093506135fe91508263ffffffff613b3516565b600c85015550506001016135aa565b5061315f600682018484615d8c565b60009182526078602090815260408084209284526004909201905290205490565b613645612cef565b613684576040805162461bcd60e51b81526020600482018190526024820152600080516020615f06833981519152604482015290519081900360640190fd5b61368d83613e47565b6040516001600160a01b0385169084156108fc029085906000818181858888f193505050501580156136c3573d6000803e3d6000fd5b50836001600160a01b03167f9eec469b348bcf64bbfb60e46ce7b160e2e09bf5421496a2cdbc43714c28b8ad84848460405180848152602001806020018281038252848482818152602001925080828437600083820152604051601f909101601f1916909201829003965090945050505050a250505050565b6137453361398c565b6116b781614dab565b61375733613cce565b6137925760405162461bcd60e51b8152600401808060200182810382526029815260200180615ebc6029913960400191505060405180910390fd5b6000607860006137a0612b52565b8152602001908152602001600020905060608160060180548060200260200160405190810160405280929190818152602001828054801561380057602002820191906000526020600020905b8154815260200190600101908083116137ec575b5050505050905061388782828c8c80806020026020016040519081016040528093929190818152602001838360200280828437600081840152601f19601f820116905080830192505050505050508b8b80806020026020016040519081016040528093929190818152602001838360200280828437600092019190915250614de692505050565b6138f6828288888080602002602001604051908101604052809392919081815260200183836020028082843760009201919091525050604080516020808c0282810182019093528b82529093508b92508a918291850190849080828437600092019190915250614efc92505050565b6138fe612b52565b60685561390961470d565b600783015550607654600b820155607754600d909101555050505050505050565b613932612cef565b613971576040805162461bcd60e51b81526020600482018190526024820152600080516020615f06833981519152604482015290519081900360640190fd5b6116b781615542565b6139833361398c565b6116b7816155e3565b613994611e33565b6001600160a01b0316816001600160a01b031614806139cb57506139b6612ce0565b6001600160a01b0316816001600160a01b0316145b6116b75760405162461bcd60e51b8152600401808060200182810382526045815260200180615f546045913960600191505060405180910390fd5b607c8190556040805182815290517fd3b49810855efc7d611424cd0a8cc519b92cf2e97bd3516921dff1a19b101e359181900360200190a150565b613a49615d6b565b613a538383613f6e565b50506001600160a01b038216600090815260706020908152604080832084845282528083208151606081018352815480825260018301549482018590526002909201549281018390529392613ab1926117ca9163ffffffff613b3516565b905080613af4576040805162461bcd60e51b815260206004820152600c60248201526b7a65726f207265776172647360a01b604482015290519081900360640190fd5b6001600160a01b038416600090815260706020908152604080832086845290915281208181556001810182905560020155613b2e81613e47565b5092915050565b6000828201838110156119ec576040805162461bcd60e51b815260206004820152601b60248201527f536166654d6174683a206164646974696f6e206f766572666c6f770000000000604482015290519081900360640190fd5b613b9882614d1e565b613be3576040805162461bcd60e51b81526020600482015260176024820152761d985b1a59185d1bdc88191bd95cdb89dd08195e1a5cdd604a1b604482015290519081900360640190fd5b60008281526069602052604090205415613c3d576040805162461bcd60e51b815260206004820152601660248201527576616c696461746f722069736e27742061637469766560501b604482015290519081900360640190fd5b613c48838383613ce2565b613c518261561e565b612f4a5760405162461bcd60e51b8152600401808060200182810382526029815260200180615fe26029913960400191505060405180910390fd5b60006119ec83836040518060400160405280601e81526020017f536166654d6174683a207375627472616374696f6e206f766572666c6f770000815250615666565b6067546001600160a01b0390811691161490565b60008111613d25576040805162461bcd60e51b815260206004820152600b60248201526a1e995c9bc8185b5bdd5b9d60aa1b604482015290519081900360640190fd5b613d2f8383613f6e565b506001600160a01b0383166000908152607360209081526040808320858452909152902054613d64908263ffffffff613b3516565b6001600160a01b0384166000908152607360209081526040808320868452825280832093909355606990522060030154613da4818363ffffffff613b3516565b600084815260696020526040902060030155606d54613dc9908363ffffffff613b3516565b606d55600083815260696020526040902054613df657606e54613df2908363ffffffff613b3516565b606e555b613e018382156131a4565b60408051838152905184916001600160a01b038716917f9a8f44850296624dadfd9c246d17e47171d35727a181bd090aa14bbbe00238bb9181900360200190a350505050565b606754604080516366e7ea0f60e01b81523060048201526024810184905290516001600160a01b03909216916366e7ea0f9160448082019260009290919082900301818387803b158015613e9a57600080fd5b505af1158015613eae573d6000803e3d6000fd5b5050607754613ec6925090508263ffffffff613b3516565b60775550565b6085546000906001600160a01b0316613ee7575060016119ef565b608554604080516321d585c360e01b81526001600160a01b03868116600483015260248201869052915191909216916321d585c3916044808301926020929190829003018186803b158015613f3b57600080fd5b505afa158015613f4f573d6000803e3d6000fd5b505050506040513d6020811015613f6557600080fd5b50519392505050565b6000613f78615d6b565b613f8284846156fd565b9050613f8d83615835565b6001600160a01b03851660008181526071602090815260408083208884528252808320949094559181526070825282812086825282528290208251606081018452815481526001820154928101929092526002015491810191909152613ff39082615890565b6001600160a01b03851660008181526070602090815260408083208884528252808320855181558583015160018083019190915595820151600291820155938352607582528083208884528252918290208251606081018452815481529481015491850191909152909101549082015261406d9082615890565b6001600160a01b0385166000908152607560209081526040808320878452825291829020835181559083015160018201559101516002909101556140b184846133b5565b614114576001600160a01b0384166000818152607460209081526040808320878452825280832083815560018082018590556002808301869055600390920185905594845260758352818420888552909252822082815592830182905591909101555b60208101511515806141265750805115155b8061293257506040015115159392505050565b6001600160a01b03841660009081526075602090815260408083208684529091528120548190614181908490614175908763ffffffff61590216565b9063ffffffff61595b16565b6001600160a01b0387166000908152607560209081526040808320898452909152812060010154919250906141c2908590614175908863ffffffff61590216565b6001600160a01b03881660009081526075602090815260408083208a8452909152902054909150600282048301906141fa9084613c8c565b6001600160a01b03891660009081526075602090815260408083208b845290915290209081556001015461422e9083613c8c565b6001600160a01b03891660009081526075602090815260408083208b845290915290206001015585811061425f5750845b979650505050505050565b6001600160a01b038316600090815260736020908152604080832085845282528083208054859003905560699091529020600301546142af908263ffffffff613c8c16565b600083815260696020526040902060030155606d546142d4908263ffffffff613c8c16565b606d5560008281526069602052604090205461430157606e546142fd908263ffffffff613c8c16565b606e555b600061430c8361288c565b905080156143b35761431c61317c565b81101561436a576040805162461bcd60e51b8152602060048201526017602482015276696e73756666696369656e742073656c662d7374616b6560481b604482015290519081900360640190fd5b6143738361561e565b6143ae5760405162461bcd60e51b8152600401808060200182810382526029815260200180615fe26029913960400191505060405180910390fd5b61315f565b61315f8360015b6000828152606960205260409020541580156143d557508015155b1561440257600082815260696020526040902060030154606e546143fe9163ffffffff613c8c16565b606e555b600082815260696020526040902054811115611dcd576000828152606960205260409020818155600201546144aa57614439612b52565b60008381526069602052604090206002015561445361470d565b6000838152606960209081526040918290206001810184905560020154825190815290810192909252805184927fac4801c32a6067ff757446524ee4e7a373797278ac3c883eac5c693b4ad72e4792908290030190a25b60408051828152905183917fcd35267e7654194727477d6c78b541a553483cff7f92a055d17868d3da6e953e919081900360200190a25050565b670de0b6b3a764000090565b607d8190556040805182815290517f969e21e21af49053b3bfee796b627ebc26e10328889e90a47da2f1205d3e8f139181900360200190a150565b303b1590565b600054610100900460ff168061454a575061454a61452b565b80614558575060005460ff16155b6145935760405162461bcd60e51b815260040180806020018281038252602e815260200180615f26602e913960400191505060405180910390fd5b600054610100900460ff161580156145be576000805460ff1961ff0019909116610100171660011790555b603380546001600160a01b0319166001600160a01b0384811691909117918290556040519116906000907f8be0079c531659141344cd1fd0a4f28419497f9722a3daafe3b4186f6b6457e0908290a38015611dcd576000805461ff00191690555050565b600054610100900460ff168061463b575061463b61452b565b80614649575060005460ff16155b6146845760405162461bcd60e51b815260040180806020018281038252602e815260200180615f26602e913960400191505060405180910390fd5b600054610100900460ff161580156146af576000805460ff1961ff0019909116610100171660011790555b606680546001600160a01b0319166001600160a01b0384169081179091556040516000907f434a2db650703b36c824e745330d6397cdaa9ee2cc891a4938ae853e1c50b68d908290a38015611dcd576000805461ff00191690555050565b4290565b60808190556040805182815290517f31d33f23d1e7fe45f7e898c070587ff0f2f519674e5e2a12f90b3a17c77f6ad19181900360200190a150565b6000821580614762575061475e6144e4565b8210155b1561476f575060006147a7565b61479a60016117ca61477f6144e4565b6141758661478b6144e4565b8a91900363ffffffff61590216565b9050838111156147a75750825b9392505050565b6001600160a01b0388166000908152606a602052604090205415614819576040805162461bcd60e51b815260206004820152601860248201527f76616c696461746f7220616c7265616479206578697374730000000000000000604482015290519081900360640190fd5b6001600160a01b0388166000818152606a602090815260408083208b90558a8352606982528083208981556004810189905560058101889055600181018690556002810187905560060180546001600160a01b031916909417909355606b8152919020875161488a92890190615dd7565b50876001600160a01b0316877f49bca1ed2666922f9f1690c26a569e1299c2a715fe57647d77e81adfabbf25bf8686604051808381526020018281526020019250505060405180910390a38115614916576040805183815260208101839052815189927fac4801c32a6067ff757446524ee4e7a373797278ac3c883eac5c693b4ad72e47928290030190a25b84156149535760408051868152905188917fcd35267e7654194727477d6c78b541a553483cff7f92a055d17868d3da6e953e919081900360200190a25b5050505050505050565b614965615d6b565b61496d615d6b565b61497784846156fd565b6001600160a01b038516600090815260706020908152604080832087845282529182902082516060810184528154815260018201549281019290925260020154918101919091529091506129329082615890565b60828190556040805182815290517f2f273767369d76e1ecbee32ed26135f390df620f085feb7a6f2e3dd51985bd5f9181900360200190a150565b606c805460010190819055612f4a8382846000614a21612b52565b614a2961470d565b6000806147ae565b607e8190556040805182815290517f12420e865335c7cfb225296eb0adaca14bfb1de93b3731ed1e0434746a4d91249181900360200190a150565b614a76848461196c565b811115614abd576040805162461bcd60e51b815260206004820152601060248201526f6e6f7420656e6f756768207374616b6560801b604482015290519081900360640190fd5b60008381526069602052604090205415614b17576040805162461bcd60e51b815260206004820152601660248201527576616c696461746f722069736e27742061637469766560501b604482015290519081900360640190fd5b614b1f6118d1565b8210158015614b355750614b316118c6565b8211155b614b7b576040805162461bcd60e51b815260206004820152601260248201527134b731b7b93932b1ba10323ab930ba34b7b760711b604482015290519081900360640190fd5b6000614b89836117ca61470d565b6000858152606960205260409020600601549091506001600160a01b039081169086168114614c17576001600160a01b0381166000908152607460209081526040808320888452909152902060020154821115614c175760405162461bcd60e51b8152600401808060200182810382526028815260200180615fba6028913960400191505060405180910390fd5b614c218686613f6e565b506001600160a01b038616600090815260746020908152604080832088845290915290206003810154851015614c9e576040805162461bcd60e51b815260206004820152601f60248201527f6c6f636b7570206475726174696f6e2063616e6e6f7420646563726561736500604482015290519081900360640190fd5b8054614cb0908563ffffffff613b3516565b8155614cba612b52565b600182015560028101839055600381018590556040805186815260208101869052815188926001600160a01b038b16927f138940e95abffcd789b497bf6188bba3afa5fbd22fb5c42c2f6018d1bf0f4e78929081900390910190a350505050505050565b600090815260696020526040902060050154151590565b607f8190556040805182815290517fcda2f8a6b9050afa9ac1f8d6ff9a123894f76a5530c6c29636332c995a1f97159181900360200190a150565b607b8190556040805182815290517fe9a0db1369c39eb7fc2ed3d7e122f9ee60952b075329b1e84bce8843367210f49181900360200190a150565b60838190556040805182815290517f9e85e6207a28e085f027a9b979cad850f4c36a581dd42c119e856c04b92d96119181900360200190a150565b60005b8351811015614ef557607954828281518110614e0157fe5b6020026020010151118015614e2b5750607a54838281518110614e2057fe5b602002602001015110155b15614e6c57614e4e848281518110614e3f57fe5b602002602001015160086143ba565b614e6c848281518110614e5d57fe5b602002602001015160006131a4565b828181518110614e7857fe5b6020026020010151856004016000868481518110614e9257fe5b6020026020010151815260200190815260200160002081905550818181518110614eb857fe5b6020026020010151856005016000868481518110614ed257fe5b602090810291909101810151825281019190915260400160002055600101614de9565b5050505050565b614f04615e45565b6040518060c001604052808551604051908082528060200260200182016040528015614f3a578160200160208202803883390190505b508152602001600081526020018551604051908082528060200260200182016040528015614f72578160200160208202803883390190505b508152602001600081526020016000815260200160008152509050600060786000614fac6001614fa0612b52565b9063ffffffff613c8c16565b81526020810191909152604001600020600160808401526007810154909150614fd361470d565b1115614fed578060070154614fe661470d565b0360808301525b60005b85518110156150f557600082600301600088848151811061500d57fe5b6020026020010151815260200190815260200160002054905060008090508186848151811061503857fe5b6020026020010151111561505f578186848151811061505357fe5b60200260200101510390505b846080015187848151811061507057fe5b602002602001015182028161508157fe5b048560400151848151811061509257fe5b6020026020010181815250506150cc856040015184815181106150b157fe5b60200260200101518660600151613b3590919063ffffffff16565b606086015260a08501516150e6908263ffffffff613b3516565b60a08601525050600101614ff0565b5060005b85518110156151c657826080015185828151811061511357fe5b6020026020010151846080015187848151811061512c57fe5b60200260200101518a60000160008b878151811061514657fe5b6020026020010151815260200190815260200160002054028161516557fe5b04028161516e57fe5b048360000151828151811061517f57fe5b6020026020010181815250506151b98360000151828151811061519e57fe5b60200260200101518460200151613b3590919063ffffffff16565b60208401526001016150f9565b5060005b855181101561551a5760006152028460800151607654866000015185815181106151f057fe5b6020026020010151876020015161599d565b905061523e6152318560a001518660400151858151811061521f57fe5b602002602001015187606001516159de565b829063ffffffff613b3516565b9050600087838151811061524e57fe5b6020908102919091018101516000818152606990925260408220600601549092506001600160a01b03169061528a84615285612f4f565b615a3b565b6001600160a01b03831660009081526073602090815260408083208784529091529020549091508015615431576000816152c48587612961565b8402816152cd57fe5b0490508083036152db615d6b565b6001600160a01b03861660009081526074602090815260408083208a845290915290206003015461530d908490615a58565b9050615317615d6b565b615322836000615a58565b6001600160a01b03881660009081526070602090815260408083208c84528252918290208251606081018452815481526001820154928101929092526002015491810191909152909150615377908383615b49565b6001600160a01b03881660008181526070602090815260408083208d84528252808320855181558583015160018083019190915595820151600291820155938352607582528083208d8452825291829020825160608101845281548152948101549185019190915290910154908201526153f2908383615b49565b6001600160a01b03881660009081526075602090815260408083208c845282529182902083518155908301516001820155910151600290910155505050505b60008481526069602052604081206003015483870391811561546357816154566144e4565b84028161545f57fe5b0490505b808a600101600089815260200190815260200160002054018f6001016000898152602001908152602001600020819055508b89815181106154a057fe5b60200260200101518f6003016000898152602001908152602001600020819055508c89815181106154cd57fe5b60200260200101518a600201600089815260200190815260200160002054018f600201600089815260200190815260200160002081905550505050505050505080806001019150506151ca565b505060a081015160088601556020810151600986015560600151600a90940193909355505050565b6001600160a01b0381166155875760405162461bcd60e51b8152600401808060200182810382526026815260200180615e966026913960400191505060405180910390fd5b6033546040516001600160a01b038084169216907f8be0079c531659141344cd1fd0a4f28419497f9722a3daafe3b4186f6b6457e090600090a3603380546001600160a01b0319166001600160a01b0392909216919091179055565b60818190556040805182815290517fd830c33dec392daf6dfeac9834107217392396bc333bcbb92e6c1c1a5e8726319181900360200190a150565b600061564b61562b6144e4565b614175615636611e03565b61563f8661288c565b9063ffffffff61590216565b60008381526069602052604090206003015411159050919050565b600081848411156156f55760405162461bcd60e51b81526004018080602001828103825283818151815260200191508051906020019080838360005b838110156156ba5781810151838201526020016156a2565b50505050905090810190601f1680156156e75780820380516001836020036101000a031916815260200191505b509250505060405180910390fd5b505050900390565b615705615d6b565b6001600160a01b03831660009081526071602090815260408083208584529091528120549061573384615835565b905060006157418686615b64565b90508181111561574e5750805b828110156157595750815b6001600160a01b038616600081815260746020908152604080832089845282528083209383526073825280832089845290915281205482549091906157a590839063ffffffff613c8c16565b905060006157b984600001548a8988615c23565b90506157c3615d6b565b6157d1828660030154615a58565b90506157df838b8a89615c23565b91506157e9615d6b565b6157f4836000615a58565b9050615802858c898b615c23565b925061580c615d6b565b615817846000615a58565b9050615824838383615b49565b9d9c50505050505050505050505050565b6000818152606960205260408120600201541561588857600082815260696020526040902060020154606854101561587057506068546128bd565b506000818152606960205260409020600201546128bd565b505060685490565b615898615d6b565b60408051606081019091528251845182916158b9919063ffffffff613b3516565b81526020016158d984602001518660200151613b3590919063ffffffff16565b81526020016158f984604001518660400151613b3590919063ffffffff16565b90529392505050565b600082615911575060006119ef565b8282028284828161591e57fe5b04146119ec5760405162461bcd60e51b8152600401808060200182810382526021815260200180615ee56021913960400191505060405180910390fd5b60006119ec83836040518060400160405280601a81526020017f536166654d6174683a206469766973696f6e206279207a65726f000000000000815250615c86565b6000826159ac57506000612932565b60006159be868663ffffffff61590216565b90506159d483614175838763ffffffff61590216565b9695505050505050565b6000826159ed575060006147a7565b6000615a0383614175878763ffffffff61590216565b9050615a32615a106144e4565b614175615a1b611e16565b615a236144e4565b8591900363ffffffff61590216565b95945050505050565b60006119ec615a486144e4565b614175858563ffffffff61590216565b615a60615d6b565b604051806060016040528060008152602001600081526020016000815250905081600014615b1b576000615a926128df565b615a9a6144e4565b0390506000615aba615aaa6118c6565b614175848763ffffffff61590216565b90506000615ae3615ac96144e4565b61417584615ad56128df565b8a910163ffffffff61590216565b9050615b08615af06144e4565b614175615afb6128df565b899063ffffffff61590216565b6020850181905290038352506119ef9050565b615b3e615b266144e4565b614175615b316128df565b869063ffffffff61590216565b604082015292915050565b615b51615d6b565b612932615b5e8585615890565b83615890565b6001600160a01b0382166000908152607460209081526040808320848452909152812060010154606854615b99858583615ceb565b15615ba75791506119ef9050565b615bb2858584615ceb565b615bc1576000925050506119ef565b80821115615bd4576000925050506119ef565b80821015615c0757600281830104615bed868683615ceb565b15615bfd57806001019250615c01565b8091505b50615bd4565b80615c17576000925050506119ef565b60001901949350505050565b6000818310615c3457506000612932565b60008381526078602081815260408084208885526001908101835281852054878652938352818520898652019091529091205461425f615c726144e4565b6141758961563f858763ffffffff613c8c16565b60008183615cd55760405162461bcd60e51b81526020600482018181528351602484015283519092839260449091019190850190808383600083156156ba5781810151838201526020016156a2565b506000838581615ce157fe5b0495945050505050565b6001600160a01b0383166000908152607460209081526040808320858452909152812060010154821080159061293257506001600160a01b0384166000908152607460209081526040808320868452909152902060020154615d4c83615d56565b1115949350505050565b60009081526078602052604090206007015490565b60405180606001604052806000815260200160008152602001600081525090565b828054828255906000526020600020908101928215615dc7579160200282015b82811115615dc7578235825591602001919060010190615dac565b50615dd3929150615e7b565b5090565b828054600181600116156101000203166002900490600052602060002090601f016020900481019282601f10615e1857805160ff1916838001178555615dc7565b82800160010185558215615dc7579182015b82811115615dc7578251825591602001919060010190615e2a565b6040518060c001604052806060815260200160008152602001606081526020016000815260200160008152602001600081525090565b6118ce91905b80821115615dd35760008155600101615e8156fe4f776e61626c653a206e6577206f776e657220697320746865207a65726f206164647265737363616c6c6572206973206e6f7420746865204e6f64654472697665724175746820636f6e7472616374536166654d6174683a206d756c7469706c69636174696f6e206f766572666c6f774f776e61626c653a2063616c6c6572206973206e6f7420746865206f776e6572436f6e747261637420696e7374616e63652068617320616c7265616479206265656e20696e697469616c697a65645346433a20746869732066756e6374696f6e20697320636f6e74726f6c6c656420627920746865206f776e657220616e6420676f7665726e616e636520636f6e74726163746d757374206265206c657373207468616e206f7220657175616c20746f20312e3076616c696461746f72206c6f636b757020706572696f642077696c6c20656e64206561726c69657276616c696461746f7227732064656c65676174696f6e73206c696d69742069732065786365656465646c6f636b6564207374616b652069732067726561746572207468616e207468652077686f6c65207374616b65a265627a7a72315820f46ce79471997737117fcd8abee0d919af5cdca81bfb9db476cdc7973d7498da64736f6c63430005110032",
  "linkReferences": {},
  "deployedLinkReferences": {}
}