{
  "_format": "hh-sol-artifact-1",
  "contractName": "SFC",
  "sourceName": "contracts/sfc/SFC.sol",
  "abi": [
    {
      "anonymous": false,
      "inputs": [
        {
          "indexed": true,
          "internalType": "uint256",
          "name": "validatorID",
          "type": "uint256"
        },
        {
          "indexed": false,
          "internalType": "uint256",
          "name": "status",
          "type": "uint256"
        }
      ],
      "name": "ChangedValidatorStatus",
      "type": "event"
    },
    {
      "anonymous": false,
      "inputs": [
        {
          "indexed": true,
          "internalType": "address",
          "name": "delegator",
          "type": "address"
        },
        {
          "indexed": true,
          "internalType": "uint256",
          "name": "toValidatorID",
          "type": "uint256"
        },
        {
          "indexed": false,
          "internalType": "uint256",
          "name": "lockupExtraReward",
          "type": "uint256"
        },
        {
          "indexed": false,
          "internalType": "uint256",
          "name": "lockupBaseReward",
          "type": "uint256"
        },
        {
          "indexed": false,
          "internalType": "uint256",
          "name": "unlockedReward",
          "type": "uint256"
        }
      ],
      "name": "ClaimedRewards",
      "type": "event"
    },
    {
      "anonymous": false,
      "inputs": [
        {
          "indexed": true,
          "internalType": "uint256",
          "name": "validatorID",
          "type": "uint256"
        },
        {
          "indexed": true,
          "internalType": "address",
          "name": "auth",
          "type": "address"
        },
        {
          "indexed": false,
          "internalType": "uint256",
          "name": "createdEpoch",
          "type": "uint256"
        },
        {
          "indexed": false,
          "internalType": "uint256",
          "name": "createdTime",
          "type": "uint256"
        }
      ],
      "name": "CreatedValidator",
      "type": "event"
    },
    {
      "anonymous": false,
      "inputs": [
        {
          "indexed": true,
          "internalType": "uint256",
          "name": "validatorID",
          "type": "uint256"
        },
        {
          "indexed": false,
          "internalType": "uint256",
          "name": "deactivatedEpoch",
          "type": "uint256"
        },
        {
          "indexed": false,
          "internalType": "uint256",
          "name": "deactivatedTime",
          "type": "uint256"
        }
      ],
      "name": "DeactivatedValidator",
      "type": "event"
    },
    {
      "anonymous": false,
      "inputs": [
        {
          "indexed": true,
          "internalType": "address",
          "name": "delegator",
          "type": "address"
        },
        {
          "indexed": true,
          "internalType": "uint256",
          "name": "toValidatorID",
          "type": "uint256"
        },
        {
          "indexed": false,
          "internalType": "uint256",
          "name": "amount",
          "type": "uint256"
        }
      ],
      "name": "Delegated",
      "type": "event"
    },
    {
      "anonymous": false,
      "inputs": [
        {
          "indexed": true,
          "internalType": "address",
          "name": "previousGovernance",
          "type": "address"
        },
        {
          "indexed": true,
          "internalType": "address",
          "name": "newGovernance",
          "type": "address"
        }
      ],
      "name": "GovernanceTransferred",
      "type": "event"
    },
    {
      "anonymous": false,
      "inputs": [
        {
          "indexed": true,
          "internalType": "address",
          "name": "previousAddress",
          "type": "address"
        },
        {
          "indexed": true,
          "internalType": "address",
          "name": "newAddress",
          "type": "address"
        }
      ],
      "name": "GovernanceUpdated",
      "type": "event"
    },
    {
      "anonymous": false,
      "inputs": [
        {
          "indexed": true,
          "internalType": "address",
          "name": "receiver",
          "type": "address"
        },
        {
          "indexed": false,
          "internalType": "uint256",
          "name": "amount",
          "type": "uint256"
        },
        {
          "indexed": false,
          "internalType": "string",
          "name": "justification",
          "type": "string"
        }
      ],
      "name": "InflatedFTM",
      "type": "event"
    },
    {
      "anonymous": false,
      "inputs": [
        {
          "indexed": true,
          "internalType": "address",
          "name": "delegator",
          "type": "address"
        },
        {
          "indexed": true,
          "internalType": "uint256",
          "name": "validatorID",
          "type": "uint256"
        },
        {
          "indexed": false,
          "internalType": "uint256",
          "name": "duration",
          "type": "uint256"
        },
        {
          "indexed": false,
          "internalType": "uint256",
          "name": "amount",
          "type": "uint256"
        }
      ],
      "name": "LockedUpStake",
      "type": "event"
    },
    {
      "anonymous": false,
      "inputs": [
        {
          "indexed": true,
          "internalType": "address",
          "name": "previousOwner",
          "type": "address"
        },
        {
          "indexed": true,
          "internalType": "address",
          "name": "newOwner",
          "type": "address"
        }
      ],
      "name": "OwnershipTransferred",
      "type": "event"
    },
    {
      "anonymous": false,
      "inputs": [
        {
          "indexed": true,
          "internalType": "address",
          "name": "delegator",
          "type": "address"
        },
        {
          "indexed": true,
          "internalType": "uint256",
          "name": "validatorID",
          "type": "uint256"
        },
        {
          "indexed": false,
          "internalType": "uint256",
          "name": "amount",
          "type": "uint256"
        }
      ],
      "name": "RefundedSlashedLegacyDelegation",
      "type": "event"
    },
    {
      "anonymous": false,
      "inputs": [
        {
          "indexed": true,
          "internalType": "address",
          "name": "delegator",
          "type": "address"
        },
        {
          "indexed": true,
          "internalType": "uint256",
          "name": "toValidatorID",
          "type": "uint256"
        },
        {
          "indexed": false,
          "internalType": "uint256",
          "name": "lockupExtraReward",
          "type": "uint256"
        },
        {
          "indexed": false,
          "internalType": "uint256",
          "name": "lockupBaseReward",
          "type": "uint256"
        },
        {
          "indexed": false,
          "internalType": "uint256",
          "name": "unlockedReward",
          "type": "uint256"
        }
      ],
      "name": "RestakedRewards",
      "type": "event"
    },
    {
      "anonymous": false,
      "inputs": [
        {
          "indexed": true,
          "internalType": "address",
          "name": "previousSecondaryOwner",
          "type": "address"
        },
        {
          "indexed": true,
          "internalType": "address",
          "name": "newSecondaryOwner",
          "type": "address"
        }
      ],
      "name": "SecondaryOwnershipTransferred",
      "type": "event"
    },
    {
      "anonymous": false,
      "inputs": [
        {
          "indexed": true,
          "internalType": "address",
          "name": "delegator",
          "type": "address"
        },
        {
          "indexed": true,
          "internalType": "uint256",
          "name": "toValidatorID",
          "type": "uint256"
        },
        {
          "indexed": true,
          "internalType": "uint256",
          "name": "wrID",
          "type": "uint256"
        },
        {
          "indexed": false,
          "internalType": "uint256",
          "name": "amount",
          "type": "uint256"
        }
      ],
      "name": "Undelegated",
      "type": "event"
    },
    {
      "anonymous": false,
      "inputs": [
        {
          "indexed": true,
          "internalType": "address",
          "name": "delegator",
          "type": "address"
        },
        {
          "indexed": true,
          "internalType": "uint256",
          "name": "validatorID",
          "type": "uint256"
        },
        {
          "indexed": false,
          "internalType": "uint256",
          "name": "amount",
          "type": "uint256"
        },
        {
          "indexed": false,
          "internalType": "uint256",
          "name": "penalty",
          "type": "uint256"
        }
      ],
      "name": "UnlockedStake",
      "type": "event"
    },
    {
      "anonymous": false,
      "inputs": [
        {
          "indexed": false,
          "internalType": "uint256",
          "name": "value",
          "type": "uint256"
        }
      ],
      "name": "UpdatedBaseRewardPerSec",
      "type": "event"
    },
    {
      "anonymous": false,
      "inputs": [
        {
          "indexed": false,
          "internalType": "uint256",
          "name": "contractCommission",
          "type": "uint256"
        }
      ],
      "name": "UpdatedContractCommission",
      "type": "event"
    },
    {
      "anonymous": false,
      "inputs": [
        {
          "indexed": false,
          "internalType": "uint256",
          "name": "maxDelegationRatio",
          "type": "uint256"
        }
      ],
      "name": "UpdatedMaxDelegationRatio",
      "type": "event"
    },
    {
      "anonymous": false,
      "inputs": [
        {
          "indexed": false,
          "internalType": "uint256",
          "name": "maxLockupDuration",
          "type": "uint256"
        }
      ],
      "name": "UpdatedMaxLockupDuration",
      "type": "event"
    },
    {
      "anonymous": false,
      "inputs": [
        {
          "indexed": false,
          "internalType": "uint256",
          "name": "minLockupDuration",
          "type": "uint256"
        }
      ],
      "name": "UpdatedMinLockupDuration",
      "type": "event"
    },
    {
      "anonymous": false,
      "inputs": [
        {
          "indexed": false,
          "internalType": "uint256",
          "name": "minSelfStake",
          "type": "uint256"
        }
      ],
      "name": "UpdatedMinSelfStake",
      "type": "event"
    },
    {
      "anonymous": false,
      "inputs": [
        {
          "indexed": false,
          "internalType": "uint256",
          "name": "blocksNum",
          "type": "uint256"
        },
        {
          "indexed": false,
          "internalType": "uint256",
          "name": "period",
          "type": "uint256"
        }
      ],
      "name": "UpdatedOfflinePenaltyThreshold",
      "type": "event"
    },
    {
      "anonymous": false,
      "inputs": [
        {
          "indexed": true,
          "internalType": "uint256",
          "name": "validatorID",
          "type": "uint256"
        },
        {
          "indexed": false,
          "internalType": "uint256",
          "name": "refundRatio",
          "type": "uint256"
        }
      ],
      "name": "UpdatedSlashingRefundRatio",
      "type": "event"
    },
    {
      "anonymous": false,
      "inputs": [
        {
          "indexed": false,
          "internalType": "uint256",
          "name": "unlockedRewardRatio",
          "type": "uint256"
        }
      ],
      "name": "UpdatedUnlockedRewardRatio",
      "type": "event"
    },
    {
      "anonymous": false,
      "inputs": [
        {
          "indexed": false,
          "internalType": "uint256",
          "name": "validatorCommission",
          "type": "uint256"
        }
      ],
      "name": "UpdatedValidatorCommission",
      "type": "event"
    },
    {
      "anonymous": false,
      "inputs": [
        {
          "indexed": false,
          "internalType": "uint256",
          "name": "Value",
          "type": "uint256"
        }
      ],
      "name": "UpdatedWithdrawalPeriodEpoch",
      "type": "event"
    },
    {
      "anonymous": false,
      "inputs": [
        {
          "indexed": false,
          "internalType": "uint256",
          "name": "withValuedrawalPeriodTime",
          "type": "uint256"
        }
      ],
      "name": "UpdatedWithdrawalPeriodTime",
      "type": "event"
    },
    {
      "anonymous": false,
      "inputs": [
        {
          "indexed": true,
          "internalType": "address",
          "name": "delegator",
          "type": "address"
        },
        {
          "indexed": true,
          "internalType": "uint256",
          "name": "toValidatorID",
          "type": "uint256"
        },
        {
          "indexed": true,
          "internalType": "uint256",
          "name": "wrID",
          "type": "uint256"
        },
        {
          "indexed": false,
          "internalType": "uint256",
          "name": "amount",
          "type": "uint256"
        }
      ],
      "name": "Withdrawn",
      "type": "event"
    },
    {
      "constant": false,
      "inputs": [
        {
          "internalType": "uint256",
          "name": "validatorID",
          "type": "uint256"
        },
        {
          "internalType": "bool",
          "name": "syncPubkey",
          "type": "bool"
        }
      ],
      "name": "_syncValidator",
      "outputs": [],
      "payable": false,
      "stateMutability": "nonpayable",
      "type": "function"
    },
    {
      "constant": true,
      "inputs": [],
      "name": "baseRewardPerSecond",
      "outputs": [
        {
          "internalType": "uint256",
          "name": "",
          "type": "uint256"
        }
      ],
      "payable": false,
      "stateMutability": "view",
      "type": "function"
    },
    {
      "constant": false,
      "inputs": [
        {
          "internalType": "uint256",
          "name": "toValidatorID",
          "type": "uint256"
        }
      ],
      "name": "claimRewards",
      "outputs": [],
      "payable": false,
      "stateMutability": "nonpayable",
      "type": "function"
    },
    {
      "constant": true,
      "inputs": [],
      "name": "contractCommission",
      "outputs": [
        {
          "internalType": "uint256",
          "name": "",
          "type": "uint256"
        }
      ],
      "payable": false,
      "stateMutability": "view",
      "type": "function"
    },
    {
      "constant": false,
      "inputs": [
        {
          "internalType": "bytes",
          "name": "pubkey",
          "type": "bytes"
        }
      ],
      "name": "createValidator",
      "outputs": [],
      "payable": true,
      "stateMutability": "payable",
      "type": "function"
    },
    {
      "constant": true,
      "inputs": [],
      "name": "currentEpoch",
      "outputs": [
        {
          "internalType": "uint256",
          "name": "",
          "type": "uint256"
        }
      ],
      "payable": false,
      "stateMutability": "view",
      "type": "function"
    },
    {
      "constant": true,
      "inputs": [],
      "name": "currentSealedEpoch",
      "outputs": [
        {
          "internalType": "uint256",
          "name": "",
          "type": "uint256"
        }
      ],
      "payable": false,
      "stateMutability": "view",
      "type": "function"
    },
    {
      "constant": false,
      "inputs": [
        {
          "internalType": "uint256",
          "name": "validatorID",
          "type": "uint256"
        },
        {
          "internalType": "uint256",
          "name": "status",
          "type": "uint256"
        }
      ],
      "name": "deactivateValidator",
      "outputs": [],
      "payable": false,
      "stateMutability": "nonpayable",
      "type": "function"
    },
    {
      "constant": false,
      "inputs": [
        {
          "internalType": "uint256",
          "name": "toValidatorID",
          "type": "uint256"
        }
      ],
      "name": "delegate",
      "outputs": [],
      "payable": true,
      "stateMutability": "payable",
      "type": "function"
    },
    {
      "constant": true,
      "inputs": [
        {
          "internalType": "uint256",
          "name": "epoch",
          "type": "uint256"
        },
        {
          "internalType": "uint256",
          "name": "validatorID",
          "type": "uint256"
        }
      ],
      "name": "getEpochAccumulatedOriginatedTxsFee",
      "outputs": [
        {
          "internalType": "uint256",
          "name": "",
          "type": "uint256"
        }
      ],
      "payable": false,
      "stateMutability": "view",
      "type": "function"
    },
    {
      "constant": true,
      "inputs": [
        {
          "internalType": "uint256",
          "name": "epoch",
          "type": "uint256"
        },
        {
          "internalType": "uint256",
          "name": "validatorID",
          "type": "uint256"
        }
      ],
      "name": "getEpochAccumulatedRewardPerToken",
      "outputs": [
        {
          "internalType": "uint256",
          "name": "",
          "type": "uint256"
        }
      ],
      "payable": false,
      "stateMutability": "view",
      "type": "function"
    },
    {
      "constant": true,
      "inputs": [
        {
          "internalType": "uint256",
          "name": "epoch",
          "type": "uint256"
        },
        {
          "internalType": "uint256",
          "name": "validatorID",
          "type": "uint256"
        }
      ],
      "name": "getEpochAccumulatedUptime",
      "outputs": [
        {
          "internalType": "uint256",
          "name": "",
          "type": "uint256"
        }
      ],
      "payable": false,
      "stateMutability": "view",
      "type": "function"
    },
    {
      "constant": true,
      "inputs": [
        {
          "internalType": "uint256",
          "name": "epoch",
          "type": "uint256"
        },
        {
          "internalType": "uint256",
          "name": "validatorID",
          "type": "uint256"
        }
      ],
      "name": "getEpochOfflineBlocks",
      "outputs": [
        {
          "internalType": "uint256",
          "name": "",
          "type": "uint256"
        }
      ],
      "payable": false,
      "stateMutability": "view",
      "type": "function"
    },
    {
      "constant": true,
      "inputs": [
        {
          "internalType": "uint256",
          "name": "epoch",
          "type": "uint256"
        },
        {
          "internalType": "uint256",
          "name": "validatorID",
          "type": "uint256"
        }
      ],
      "name": "getEpochOfflineTime",
      "outputs": [
        {
          "internalType": "uint256",
          "name": "",
          "type": "uint256"
        }
      ],
      "payable": false,
      "stateMutability": "view",
      "type": "function"
    },
    {
      "constant": true,
      "inputs": [
        {
          "internalType": "uint256",
          "name": "epoch",
          "type": "uint256"
        },
        {
          "internalType": "uint256",
          "name": "validatorID",
          "type": "uint256"
        }
      ],
      "name": "getEpochReceivedStake",
      "outputs": [
        {
          "internalType": "uint256",
          "name": "",
          "type": "uint256"
        }
      ],
      "payable": false,
      "stateMutability": "view",
      "type": "function"
    },
    {
      "constant": true,
      "inputs": [
        {
          "internalType": "uint256",
          "name": "",
          "type": "uint256"
        }
      ],
      "name": "getEpochSnapshot",
      "outputs": [
        {
          "internalType": "uint256",
          "name": "endTime",
          "type": "uint256"
        },
        {
          "internalType": "uint256",
          "name": "epochFee",
          "type": "uint256"
        },
        {
          "internalType": "uint256",
          "name": "totalBaseRewardWeight",
          "type": "uint256"
        },
        {
          "internalType": "uint256",
          "name": "totalTxRewardWeight",
          "type": "uint256"
        },
        {
          "internalType": "uint256",
          "name": "baseRewardPerSecond",
          "type": "uint256"
        },
        {
          "internalType": "uint256",
          "name": "totalStake",
          "type": "uint256"
        },
        {
          "internalType": "uint256",
          "name": "totalSupply",
          "type": "uint256"
        }
      ],
      "payable": false,
      "stateMutability": "view",
      "type": "function"
    },
    {
      "constant": true,
      "inputs": [
        {
          "internalType": "uint256",
          "name": "epoch",
          "type": "uint256"
        }
      ],
      "name": "getEpochValidatorIDs",
      "outputs": [
        {
          "internalType": "uint256[]",
          "name": "",
          "type": "uint256[]"
        }
      ],
      "payable": false,
      "stateMutability": "view",
      "type": "function"
    },
    {
      "constant": true,
      "inputs": [],
      "name": "getGovernance",
      "outputs": [
        {
          "internalType": "address",
          "name": "",
          "type": "address"
        }
      ],
      "payable": false,
      "stateMutability": "view",
      "type": "function"
    },
    {
      "constant": true,
      "inputs": [
        {
          "internalType": "address",
          "name": "delegator",
          "type": "address"
        },
        {
          "internalType": "uint256",
          "name": "toValidatorID",
          "type": "uint256"
        }
      ],
      "name": "getLockedStake",
      "outputs": [
        {
          "internalType": "uint256",
          "name": "",
          "type": "uint256"
        }
      ],
      "payable": false,
      "stateMutability": "view",
      "type": "function"
    },
    {
      "constant": true,
      "inputs": [
        {
          "internalType": "address",
          "name": "",
          "type": "address"
        },
        {
          "internalType": "uint256",
          "name": "",
          "type": "uint256"
        }
      ],
      "name": "getLockupInfo",
      "outputs": [
        {
          "internalType": "uint256",
          "name": "lockedStake",
          "type": "uint256"
        },
        {
          "internalType": "uint256",
          "name": "fromEpoch",
          "type": "uint256"
        },
        {
          "internalType": "uint256",
          "name": "endTime",
          "type": "uint256"
        },
        {
          "internalType": "uint256",
          "name": "duration",
          "type": "uint256"
        }
      ],
      "payable": false,
      "stateMutability": "view",
      "type": "function"
    },
    {
      "constant": true,
      "inputs": [
        {
          "internalType": "uint256",
          "name": "validatorID",
          "type": "uint256"
        }
      ],
      "name": "getSelfStake",
      "outputs": [
        {
          "internalType": "uint256",
          "name": "",
          "type": "uint256"
        }
      ],
      "payable": false,
      "stateMutability": "view",
      "type": "function"
    },
    {
      "constant": true,
      "inputs": [
        {
          "internalType": "address",
          "name": "",
          "type": "address"
        },
        {
          "internalType": "uint256",
          "name": "",
          "type": "uint256"
        }
      ],
      "name": "getStake",
      "outputs": [
        {
          "internalType": "uint256",
          "name": "",
          "type": "uint256"
        }
      ],
      "payable": false,
      "stateMutability": "view",
      "type": "function"
    },
    {
      "constant": true,
      "inputs": [
        {
          "internalType": "address",
          "name": "",
          "type": "address"
        },
        {
          "internalType": "uint256",
          "name": "",
          "type": "uint256"
        }
      ],
      "name": "getStashedLockupRewards",
      "outputs": [
        {
          "internalType": "uint256",
          "name": "lockupExtraReward",
          "type": "uint256"
        },
        {
          "internalType": "uint256",
          "name": "lockupBaseReward",
          "type": "uint256"
        },
        {
          "internalType": "uint256",
          "name": "unlockedReward",
          "type": "uint256"
        }
      ],
      "payable": false,
      "stateMutability": "view",
      "type": "function"
    },
    {
      "constant": true,
      "inputs": [
        {
          "internalType": "address",
          "name": "delegator",
          "type": "address"
        },
        {
          "internalType": "uint256",
          "name": "toValidatorID",
          "type": "uint256"
        }
      ],
      "name": "getUnlockedStake",
      "outputs": [
        {
          "internalType": "uint256",
          "name": "",
          "type": "uint256"
        }
      ],
      "payable": false,
      "stateMutability": "view",
      "type": "function"
    },
    {
      "constant": true,
      "inputs": [
        {
          "internalType": "uint256",
          "name": "",
          "type": "uint256"
        }
      ],
      "name": "getValidator",
      "outputs": [
        {
          "internalType": "uint256",
          "name": "status",
          "type": "uint256"
        },
        {
          "internalType": "uint256",
          "name": "deactivatedTime",
          "type": "uint256"
        },
        {
          "internalType": "uint256",
          "name": "deactivatedEpoch",
          "type": "uint256"
        },
        {
          "internalType": "uint256",
          "name": "receivedStake",
          "type": "uint256"
        },
        {
          "internalType": "uint256",
          "name": "createdEpoch",
          "type": "uint256"
        },
        {
          "internalType": "uint256",
          "name": "createdTime",
          "type": "uint256"
        },
        {
          "internalType": "address",
          "name": "auth",
          "type": "address"
        }
      ],
      "payable": false,
      "stateMutability": "view",
      "type": "function"
    },
    {
      "constant": true,
      "inputs": [
        {
          "internalType": "address",
          "name": "",
          "type": "address"
        }
      ],
      "name": "getValidatorID",
      "outputs": [
        {
          "internalType": "uint256",
          "name": "",
          "type": "uint256"
        }
      ],
      "payable": false,
      "stateMutability": "view",
      "type": "function"
    },
    {
      "constant": true,
      "inputs": [
        {
          "internalType": "uint256",
          "name": "",
          "type": "uint256"
        }
      ],
      "name": "getValidatorPubkey",
      "outputs": [
        {
          "internalType": "bytes",
          "name": "",
          "type": "bytes"
        }
      ],
      "payable": false,
      "stateMutability": "view",
      "type": "function"
    },
    {
      "constant": true,
      "inputs": [
        {
          "internalType": "address",
          "name": "",
          "type": "address"
        },
        {
          "internalType": "uint256",
          "name": "",
          "type": "uint256"
        },
        {
          "internalType": "uint256",
          "name": "",
          "type": "uint256"
        }
      ],
      "name": "getWithdrawalRequest",
      "outputs": [
        {
          "internalType": "uint256",
          "name": "epoch",
          "type": "uint256"
        },
        {
          "internalType": "uint256",
          "name": "time",
          "type": "uint256"
        },
        {
          "internalType": "uint256",
          "name": "amount",
          "type": "uint256"
        }
      ],
      "payable": false,
      "stateMutability": "view",
      "type": "function"
    },
    {
      "constant": true,
      "inputs": [],
      "name": "gov",
      "outputs": [
        {
          "internalType": "contract Gov",
          "name": "",
          "type": "address"
        }
      ],
      "payable": false,
      "stateMutability": "view",
      "type": "function"
    },
    {
      "constant": true,
      "inputs": [],
      "name": "governance",
      "outputs": [
        {
          "internalType": "address",
          "name": "",
          "type": "address"
        }
      ],
      "payable": false,
      "stateMutability": "view",
      "type": "function"
    },
    {
      "constant": false,
      "inputs": [
        {
          "internalType": "uint256",
          "name": "sealedEpoch",
          "type": "uint256"
        },
        {
          "internalType": "uint256",
          "name": "_totalSupply",
          "type": "uint256"
        },
        {
          "internalType": "address",
          "name": "nodeDriver",
          "type": "address"
        },
        {
          "internalType": "address",
          "name": "owner",
          "type": "address"
        },
        {
          "internalType": "address",
          "name": "governance",
          "type": "address"
        }
      ],
      "name": "initialize",
      "outputs": [],
      "payable": false,
      "stateMutability": "nonpayable",
      "type": "function"
    },
    {
      "constant": true,
      "inputs": [],
      "name": "isGovernance",
      "outputs": [
        {
          "internalType": "bool",
          "name": "",
          "type": "bool"
        }
      ],
      "payable": false,
      "stateMutability": "view",
      "type": "function"
    },
    {
      "constant": true,
      "inputs": [
        {
          "internalType": "address",
          "name": "delegator",
          "type": "address"
        },
        {
          "internalType": "uint256",
          "name": "toValidatorID",
          "type": "uint256"
        }
      ],
      "name": "isLockedUp",
      "outputs": [
        {
          "internalType": "bool",
          "name": "",
          "type": "bool"
        }
      ],
      "payable": false,
      "stateMutability": "view",
      "type": "function"
    },
    {
      "constant": true,
      "inputs": [],
      "name": "isOwner",
      "outputs": [
        {
          "internalType": "bool",
          "name": "",
          "type": "bool"
        }
      ],
      "payable": false,
      "stateMutability": "view",
      "type": "function"
    },
    {
      "constant": true,
      "inputs": [],
      "name": "isSecondaryOwner",
      "outputs": [
        {
          "internalType": "bool",
          "name": "",
          "type": "bool"
        }
      ],
      "payable": false,
      "stateMutability": "view",
      "type": "function"
    },
    {
      "constant": true,
      "inputs": [
        {
          "internalType": "uint256",
          "name": "validatorID",
          "type": "uint256"
        }
      ],
      "name": "isSlashed",
      "outputs": [
        {
          "internalType": "bool",
          "name": "",
          "type": "bool"
        }
      ],
      "payable": false,
      "stateMutability": "view",
      "type": "function"
    },
    {
      "constant": true,
      "inputs": [],
      "name": "lastValidatorID",
      "outputs": [
        {
          "internalType": "uint256",
          "name": "",
          "type": "uint256"
        }
      ],
      "payable": false,
      "stateMutability": "view",
      "type": "function"
    },
    {
      "constant": false,
      "inputs": [
        {
          "internalType": "uint256",
          "name": "toValidatorID",
          "type": "uint256"
        },
        {
          "internalType": "uint256",
          "name": "lockupDuration",
          "type": "uint256"
        },
        {
          "internalType": "uint256",
          "name": "amount",
          "type": "uint256"
        }
      ],
      "name": "lockStake",
      "outputs": [],
      "payable": false,
      "stateMutability": "nonpayable",
      "type": "function"
    },
    {
      "constant": true,
      "inputs": [],
      "name": "maxDelegatedRatio",
      "outputs": [
        {
          "internalType": "uint256",
          "name": "",
          "type": "uint256"
        }
      ],
      "payable": false,
      "stateMutability": "view",
      "type": "function"
    },
    {
      "constant": true,
      "inputs": [],
      "name": "maxLockupDuration",
      "outputs": [
        {
          "internalType": "uint256",
          "name": "",
          "type": "uint256"
        }
      ],
      "payable": false,
      "stateMutability": "view",
      "type": "function"
    },
    {
      "constant": true,
      "inputs": [],
      "name": "minLockupDuration",
      "outputs": [
        {
          "internalType": "uint256",
          "name": "",
          "type": "uint256"
        }
      ],
      "payable": false,
      "stateMutability": "view",
      "type": "function"
    },
    {
      "constant": true,
      "inputs": [],
      "name": "minSelfStake",
      "outputs": [
        {
          "internalType": "uint256",
          "name": "",
          "type": "uint256"
        }
      ],
      "payable": false,
      "stateMutability": "view",
      "type": "function"
    },
    {
      "constant": false,
      "inputs": [
        {
          "internalType": "address payable",
          "name": "receiver",
          "type": "address"
        },
        {
          "internalType": "uint256",
          "name": "amount",
          "type": "uint256"
        },
        {
          "internalType": "string",
          "name": "justification",
          "type": "string"
        }
      ],
      "name": "mintFTM",
      "outputs": [],
      "payable": false,
      "stateMutability": "nonpayable",
      "type": "function"
    },
    {
      "constant": true,
      "inputs": [],
      "name": "offlinePenaltyThreshold",
      "outputs": [
        {
          "internalType": "uint256",
          "name": "blocksNum",
          "type": "uint256"
        },
        {
          "internalType": "uint256",
          "name": "time",
          "type": "uint256"
        }
      ],
      "payable": false,
      "stateMutability": "view",
      "type": "function"
    },
    {
      "constant": true,
      "inputs": [],
      "name": "owner",
      "outputs": [
        {
          "internalType": "address",
          "name": "",
          "type": "address"
        }
      ],
      "payable": false,
      "stateMutability": "view",
      "type": "function"
    },
    {
      "constant": true,
      "inputs": [
        {
          "internalType": "address",
          "name": "delegator",
          "type": "address"
        },
        {
          "internalType": "uint256",
          "name": "toValidatorID",
          "type": "uint256"
        }
      ],
      "name": "pendingRewards",
      "outputs": [
        {
          "internalType": "uint256",
          "name": "",
          "type": "uint256"
        }
      ],
      "payable": false,
      "stateMutability": "view",
      "type": "function"
    },
    {
      "constant": false,
      "inputs": [
        {
          "internalType": "uint256",
          "name": "toValidatorID",
          "type": "uint256"
        },
        {
          "internalType": "uint256",
          "name": "lockupDuration",
          "type": "uint256"
        },
        {
          "internalType": "uint256",
          "name": "amount",
          "type": "uint256"
        }
      ],
      "name": "relockStake",
      "outputs": [],
      "payable": false,
      "stateMutability": "nonpayable",
      "type": "function"
    },
    {
      "constant": false,
      "inputs": [],
      "name": "renounceOwnership",
      "outputs": [],
      "payable": false,
      "stateMutability": "nonpayable",
      "type": "function"
    },
    {
      "constant": false,
      "inputs": [
        {
          "internalType": "uint256",
          "name": "toValidatorID",
          "type": "uint256"
        }
      ],
      "name": "restakeRewards",
      "outputs": [],
      "payable": false,
      "stateMutability": "nonpayable",
      "type": "function"
    },
    {
      "constant": true,
      "inputs": [
        {
          "internalType": "address",
          "name": "delegator",
          "type": "address"
        },
        {
          "internalType": "uint256",
          "name": "validatorID",
          "type": "uint256"
        }
      ],
      "name": "rewardsStash",
      "outputs": [
        {
          "internalType": "uint256",
          "name": "",
          "type": "uint256"
        }
      ],
      "payable": false,
      "stateMutability": "view",
      "type": "function"
    },
    {
      "constant": false,
      "inputs": [
        {
          "internalType": "uint256[]",
          "name": "offlineTime",
          "type": "uint256[]"
        },
        {
          "internalType": "uint256[]",
          "name": "offlineBlocks",
          "type": "uint256[]"
        },
        {
          "internalType": "uint256[]",
          "name": "uptimes",
          "type": "uint256[]"
        },
        {
          "internalType": "uint256[]",
          "name": "originatedTxsFee",
          "type": "uint256[]"
        }
      ],
      "name": "sealEpoch",
      "outputs": [],
      "payable": false,
      "stateMutability": "nonpayable",
      "type": "function"
    },
    {
      "constant": false,
      "inputs": [
        {
          "internalType": "uint256[]",
          "name": "nextValidatorIDs",
          "type": "uint256[]"
        }
      ],
      "name": "sealEpochValidators",
      "outputs": [],
      "payable": false,
      "stateMutability": "nonpayable",
      "type": "function"
    },
    {
      "constant": true,
      "inputs": [],
      "name": "secondaryOwner",
      "outputs": [
        {
          "internalType": "address",
          "name": "",
          "type": "address"
        }
      ],
      "payable": false,
      "stateMutability": "view",
      "type": "function"
    },
    {
      "constant": false,
      "inputs": [
        {
          "internalType": "uint256",
          "name": "_contractCommission",
          "type": "uint256"
        }
      ],
      "name": "setContractCommission",
      "outputs": [],
      "payable": false,
      "stateMutability": "nonpayable",
      "type": "function"
    },
    {
      "constant": false,
      "inputs": [
        {
          "internalType": "address",
          "name": "delegator",
          "type": "address"
        },
        {
          "internalType": "uint256",
          "name": "toValidatorID",
          "type": "uint256"
        },
        {
          "internalType": "uint256",
          "name": "stake",
          "type": "uint256"
        },
        {
          "internalType": "uint256",
          "name": "lockedStake",
          "type": "uint256"
        },
        {
          "internalType": "uint256",
          "name": "lockupFromEpoch",
          "type": "uint256"
        },
        {
          "internalType": "uint256",
          "name": "lockupEndTime",
          "type": "uint256"
        },
        {
          "internalType": "uint256",
          "name": "lockupDuration",
          "type": "uint256"
        },
        {
          "internalType": "uint256",
          "name": "earlyUnlockPenalty",
          "type": "uint256"
        },
        {
          "internalType": "uint256",
          "name": "rewards",
          "type": "uint256"
        }
      ],
      "name": "setGenesisDelegation",
      "outputs": [],
      "payable": false,
      "stateMutability": "nonpayable",
      "type": "function"
    },
    {
      "constant": false,
      "inputs": [
        {
          "internalType": "address",
          "name": "auth",
          "type": "address"
        },
        {
          "internalType": "uint256",
          "name": "validatorID",
          "type": "uint256"
        },
        {
          "internalType": "bytes",
          "name": "pubkey",
          "type": "bytes"
        },
        {
          "internalType": "uint256",
          "name": "status",
          "type": "uint256"
        },
        {
          "internalType": "uint256",
          "name": "createdEpoch",
          "type": "uint256"
        },
        {
          "internalType": "uint256",
          "name": "createdTime",
          "type": "uint256"
        },
        {
          "internalType": "uint256",
          "name": "deactivatedEpoch",
          "type": "uint256"
        },
        {
          "internalType": "uint256",
          "name": "deactivatedTime",
          "type": "uint256"
        }
      ],
      "name": "setGenesisValidator",
      "outputs": [],
      "payable": false,
      "stateMutability": "nonpayable",
      "type": "function"
    },
    {
      "constant": false,
      "inputs": [
        {
          "internalType": "uint256",
          "name": "_maxDelegationRatio",
          "type": "uint256"
        }
      ],
      "name": "setMaxDelegation",
      "outputs": [],
      "payable": false,
      "stateMutability": "nonpayable",
      "type": "function"
    },
    {
      "constant": false,
      "inputs": [
        {
          "internalType": "uint256",
          "name": "_maxLockupDuration",
          "type": "uint256"
        }
      ],
      "name": "setMaxLockupDuration",
      "outputs": [],
      "payable": false,
      "stateMutability": "nonpayable",
      "type": "function"
    },
    {
      "constant": false,
      "inputs": [
        {
          "internalType": "uint256",
          "name": "_minLockupDuration",
          "type": "uint256"
        }
      ],
      "name": "setMinLockupDuration",
      "outputs": [],
      "payable": false,
      "stateMutability": "nonpayable",
      "type": "function"
    },
    {
      "constant": false,
      "inputs": [
        {
          "internalType": "uint256",
          "name": "_minSelfStake",
          "type": "uint256"
        }
      ],
      "name": "setMinSelfStake",
      "outputs": [],
      "payable": false,
      "stateMutability": "nonpayable",
      "type": "function"
    },
    {
      "constant": false,
      "inputs": [
        {
          "internalType": "uint256",
          "name": "_unlockedReward",
          "type": "uint256"
        }
      ],
      "name": "setUnlockedRewardRatio",
      "outputs": [],
      "payable": false,
      "stateMutability": "nonpayable",
      "type": "function"
    },
    {
      "constant": false,
      "inputs": [
        {
          "internalType": "uint256",
          "name": "_validatorCommission",
          "type": "uint256"
        }
      ],
      "name": "setValidatorCommission",
      "outputs": [],
      "payable": false,
      "stateMutability": "nonpayable",
      "type": "function"
    },
    {
      "constant": false,
      "inputs": [
        {
          "internalType": "uint256",
          "name": "_withdrawalPeriodEpochs",
          "type": "uint256"
        }
      ],
      "name": "setWithdrawalPeriodEpoch",
      "outputs": [],
      "payable": false,
      "stateMutability": "nonpayable",
      "type": "function"
    },
    {
      "constant": false,
      "inputs": [
        {
          "internalType": "uint256",
          "name": "_withdrawalPeriodTime",
          "type": "uint256"
        }
      ],
      "name": "setWithdrawalPeriodTime",
      "outputs": [],
      "payable": false,
      "stateMutability": "nonpayable",
      "type": "function"
    },
    {
      "constant": true,
      "inputs": [
        {
          "internalType": "uint256",
          "name": "",
          "type": "uint256"
        }
      ],
      "name": "slashingRefundRatio",
      "outputs": [
        {
          "internalType": "uint256",
          "name": "",
          "type": "uint256"
        }
      ],
      "payable": false,
      "stateMutability": "view",
      "type": "function"
    },
    {
      "constant": true,
      "inputs": [],
      "name": "stakeTokenizerAddress",
      "outputs": [
        {
          "internalType": "address",
          "name": "",
          "type": "address"
        }
      ],
      "payable": false,
      "stateMutability": "view",
      "type": "function"
    },
    {
      "constant": false,
      "inputs": [
        {
          "internalType": "address",
          "name": "delegator",
          "type": "address"
        },
        {
          "internalType": "uint256",
          "name": "toValidatorID",
          "type": "uint256"
        }
      ],
      "name": "stashRewards",
      "outputs": [],
      "payable": false,
      "stateMutability": "nonpayable",
      "type": "function"
    },
    {
      "constant": true,
      "inputs": [
        {
          "internalType": "address",
          "name": "",
          "type": "address"
        },
        {
          "internalType": "uint256",
          "name": "",
          "type": "uint256"
        }
      ],
      "name": "stashedRewardsUntilEpoch",
      "outputs": [
        {
          "internalType": "uint256",
          "name": "",
          "type": "uint256"
        }
      ],
      "payable": false,
      "stateMutability": "view",
      "type": "function"
    },
    {
      "constant": true,
      "inputs": [],
      "name": "totalActiveStake",
      "outputs": [
        {
          "internalType": "uint256",
          "name": "",
          "type": "uint256"
        }
      ],
      "payable": false,
      "stateMutability": "view",
      "type": "function"
    },
    {
      "constant": true,
      "inputs": [],
      "name": "totalSlashedStake",
      "outputs": [
        {
          "internalType": "uint256",
          "name": "",
          "type": "uint256"
        }
      ],
      "payable": false,
      "stateMutability": "view",
      "type": "function"
    },
    {
      "constant": true,
      "inputs": [],
      "name": "totalStake",
      "outputs": [
        {
          "internalType": "uint256",
          "name": "",
          "type": "uint256"
        }
      ],
      "payable": false,
      "stateMutability": "view",
      "type": "function"
    },
    {
      "constant": true,
      "inputs": [],
      "name": "totalSupply",
      "outputs": [
        {
          "internalType": "uint256",
          "name": "",
          "type": "uint256"
        }
      ],
      "payable": false,
      "stateMutability": "view",
      "type": "function"
    },
    {
      "constant": false,
      "inputs": [
        {
          "internalType": "address",
          "name": "newGovernance",
          "type": "address"
        }
      ],
      "name": "transferGovernance",
      "outputs": [],
      "payable": false,
      "stateMutability": "nonpayable",
      "type": "function"
    },
    {
      "constant": false,
      "inputs": [
        {
          "internalType": "address",
          "name": "newOwner",
          "type": "address"
        }
      ],
      "name": "transferOwnership",
      "outputs": [],
      "payable": false,
      "stateMutability": "nonpayable",
      "type": "function"
    },
    {
      "constant": false,
      "inputs": [
        {
          "internalType": "address",
          "name": "newSecondaryOwner",
          "type": "address"
        }
      ],
      "name": "transferSecondaryOwnership",
      "outputs": [],
      "payable": false,
      "stateMutability": "nonpayable",
      "type": "function"
    },
    {
      "constant": false,
      "inputs": [
        {
          "internalType": "uint256",
          "name": "toValidatorID",
          "type": "uint256"
        },
        {
          "internalType": "uint256",
          "name": "wrID",
          "type": "uint256"
        },
        {
          "internalType": "uint256",
          "name": "amount",
          "type": "uint256"
        }
      ],
      "name": "undelegate",
      "outputs": [],
      "payable": false,
      "stateMutability": "nonpayable",
      "type": "function"
    },
    {
      "constant": false,
      "inputs": [
        {
          "internalType": "uint256",
          "name": "toValidatorID",
          "type": "uint256"
        },
        {
          "internalType": "uint256",
          "name": "amount",
          "type": "uint256"
        }
      ],
      "name": "unlockStake",
      "outputs": [
        {
          "internalType": "uint256",
          "name": "",
          "type": "uint256"
        }
      ],
      "payable": false,
      "stateMutability": "nonpayable",
      "type": "function"
    },
    {
      "constant": true,
      "inputs": [],
      "name": "unlockedRewardRatio",
      "outputs": [
        {
          "internalType": "uint256",
          "name": "",
          "type": "uint256"
        }
      ],
      "payable": false,
      "stateMutability": "view",
      "type": "function"
    },
    {
      "constant": false,
      "inputs": [
        {
          "internalType": "uint256",
          "name": "value",
          "type": "uint256"
        }
      ],
      "name": "updateBaseRewardPerSecond",
      "outputs": [],
      "payable": false,
      "stateMutability": "nonpayable",
      "type": "function"
    },
    {
      "constant": false,
      "inputs": [
        {
          "internalType": "address",
          "name": "_governance",
          "type": "address"
        }
      ],
      "name": "updateGovernanceContract",
      "outputs": [],
      "payable": false,
      "stateMutability": "nonpayable",
      "type": "function"
    },
    {
      "constant": false,
      "inputs": [
        {
          "internalType": "uint256",
          "name": "blocksNum",
          "type": "uint256"
        },
        {
          "internalType": "uint256",
          "name": "time",
          "type": "uint256"
        }
      ],
      "name": "updateOfflinePenaltyThreshold",
      "outputs": [],
      "payable": false,
      "stateMutability": "nonpayable",
      "type": "function"
    },
    {
      "constant": false,
      "inputs": [
        {
          "internalType": "uint256",
          "name": "validatorID",
          "type": "uint256"
        },
        {
          "internalType": "uint256",
          "name": "refundRatio",
          "type": "uint256"
        }
      ],
      "name": "updateSlashingRefundRatio",
      "outputs": [],
      "payable": false,
      "stateMutability": "nonpayable",
      "type": "function"
    },
    {
      "constant": false,
      "inputs": [
        {
          "internalType": "address",
          "name": "addr",
          "type": "address"
        }
      ],
      "name": "updateStakeTokenizerAddress",
      "outputs": [],
      "payable": false,
      "stateMutability": "nonpayable",
      "type": "function"
    },
    {
      "constant": false,
      "inputs": [
        {
          "internalType": "int256",
          "name": "diff",
          "type": "int256"
        }
      ],
      "name": "updateTotalSupply",
      "outputs": [],
      "payable": false,
      "stateMutability": "nonpayable",
      "type": "function"
    },
    {
      "constant": true,
      "inputs": [],
      "name": "validatorCommission",
      "outputs": [
        {
          "internalType": "uint256",
          "name": "",
          "type": "uint256"
        }
      ],
      "payable": false,
      "stateMutability": "view",
      "type": "function"
    },
    {
      "constant": true,
      "inputs": [],
      "name": "version",
      "outputs": [
        {
          "internalType": "bytes3",
          "name": "",
          "type": "bytes3"
        }
      ],
      "payable": false,
      "stateMutability": "pure",
      "type": "function"
    },
    {
      "constant": false,
      "inputs": [
        {
          "internalType": "uint256",
          "name": "toValidatorID",
          "type": "uint256"
        },
        {
          "internalType": "uint256",
          "name": "wrID",
          "type": "uint256"
        }
      ],
      "name": "withdraw",
      "outputs": [],
      "payable": false,
      "stateMutability": "nonpayable",
      "type": "function"
    },
    {
      "constant": true,
      "inputs": [],
      "name": "withdrawalPeriodEpochs",
      "outputs": [
        {
          "internalType": "uint256",
          "name": "",
          "type": "uint256"
        }
      ],
      "payable": false,
      "stateMutability": "view",
      "type": "function"
    },
    {
      "constant": true,
      "inputs": [],
      "name": "withdrawalPeriodTime",
      "outputs": [
        {
          "internalType": "uint256",
          "name": "",
          "type": "uint256"
        }
      ],
      "payable": false,
      "stateMutability": "view",
      "type": "function"
    }
  ],
  "bytecode": "0x608060405234801561001057600080fd5b506166ed80620000216000396000f3fe6080604052600436106104d65760003560e01c80637667180811610281578063bd14d9071161015a578063d9a7c1f9116100cc578063e261641a11610085578063e261641a146114bd578063e2f8c336146114ed578063e4af78be1461157d578063ebdf104c146115a7578063f2fde38b14611712578063f78bf11014611745576104d6565b8063d9a7c1f914611382578063db3a4bc614611397578063dc31e1af146113ac578063de67f215146113dc578063df00c92214611412578063e08d7e6614611442576104d6565b8063cc8343aa1161011e578063cc8343aa14611257578063cefe9c1814611289578063cfd47663146112b3578063cfdbb7cd146112ec578063d38bfff414611325578063d75629cf14611358576104d6565b8063bd14d907146111a3578063c3de580e146111d9578063c5f530af14611203578063c65ee0e114611218578063c7be95de14611242576104d6565b8063a2f6e6bc116101f3578063b5d89627116101b7578063b5d8962714611031578063b6d9edd51461109c578063b810e411146110c6578063b82b8427146110ff578063b88a37e214611114578063bc4a3cc01461118e576104d6565b8063a2f6e6bc14610f18578063a5a470ad14610f4b578063a778651514610fb9578063a86a056f14610fce578063ad9a4b5c14611007576104d6565b80638cddb015116102455780638cddb01514610df55780638da5cb5b14610e2e5780638f32d59b14610e4357806396c7ee4614610e6c5780639fa6dd3514610ecb578063a198d22914610ee8576104d6565b80637667180814610ce75780637cacb1d614610cfc578063854873e114610d115780638b0e9f3f14610db05780638b1a0d1114610dc5576104d6565b806339b80c00116103b35780635e2308d211610325578063650acd66116102e9578063650acd6614610bee578063670322f814610c035780636ca6d6bc14610c3c5780636f49866314610c665780636faf60a014610c9f578063715018a614610cd2576104d6565b80635e2308d214610b285780635fab23a814610b3d5780636099ecb214610b5257806361e53fcc14610b8b57806363bafc5614610bbb576104d6565b80634f864df4116103775780634f864df4146109a85780634feb92f3146109de57806354fd4d5014610a875780635601fe0114610ab957806358f95b8014610ae35780635aa6e67514610b13576104d6565b806339b80c001461086b5780633fbfd4df146108cd5780634055f2731461091e578063441a3e70146109485780634f7c4efb14610978576104d6565b80631d3ac42c1161044c578063289b3c0d11610410578063289b3c0d146107aa57806328f73148146107bf5780632cedb097146107d45780632d2646ed14610802578063346bdcfb1461082c57806336a5a23114610856576104d6565b80631d3ac42c146106c35780631e702f83146106f35780631f270152146107235780632265f284146107805780632709275e14610795576104d6565b80630d7b26091161049e5780630d7b2609146105b55780630e559d82146105ca57806312622d0e146105fb57806312d43a511461063457806318160ddd1461064957806318f628d41461065e576104d6565b80630135b1db146104db57806303c91ccd1461052057806308c368741461054c5780630962ef79146105765780630d4955e3146105a0575b600080fd5b3480156104e757600080fd5b5061050e600480360360208110156104fe57600080fd5b50356001600160a01b031661176f565b60408051918252519081900360200190f35b34801561052c57600080fd5b5061054a6004803603602081101561054357600080fd5b5035611781565b005b34801561055857600080fd5b5061054a6004803603602081101561056f57600080fd5b50356117de565b34801561058257600080fd5b5061054a6004803603602081101561059957600080fd5b50356118aa565b3480156105ac57600080fd5b5061050e6119ea565b3480156105c157600080fd5b5061050e6119f5565b3480156105d657600080fd5b506105df6119fe565b604080516001600160a01b039092168252519081900360200190f35b34801561060757600080fd5b5061050e6004803603604081101561061e57600080fd5b506001600160a01b038135169060200135611a0d565b34801561064057600080fd5b506105df611a96565b34801561065557600080fd5b5061050e611aa5565b34801561066a57600080fd5b5061054a600480360361012081101561068257600080fd5b506001600160a01b038135169060208101359060408101359060608101359060808101359060a08101359060c08101359060e0810135906101000135611aab565b3480156106cf57600080fd5b5061050e600480360360408110156106e657600080fd5b5080359060200135611c0b565b3480156106ff57600080fd5b5061054a6004803603604081101561071657600080fd5b5080359060200135611de3565b34801561072f57600080fd5b506107626004803603606081101561074657600080fd5b506001600160a01b038135169060208101359060400135611e81565b60408051938452602084019290925282820152519081900360600190f35b34801561078c57600080fd5b5061050e611eb3565b3480156107a157600080fd5b5061050e611ec6565b3480156107b657600080fd5b506105df611ee3565b3480156107cb57600080fd5b5061050e611ef2565b3480156107e057600080fd5b506107e9611ef8565b6040805192835260208301919091528051918290030190f35b34801561080e57600080fd5b5061054a6004803603602081101561082557600080fd5b5035611f02565b34801561083857600080fd5b5061054a6004803603602081101561084f57600080fd5b5035611f5c565b34801561086257600080fd5b506105df611fc8565b34801561087757600080fd5b506108956004803603602081101561088e57600080fd5b5035611fd7565b604080519788526020880196909652868601949094526060860192909252608085015260a084015260c0830152519081900360e00190f35b3480156108d957600080fd5b5061054a600480360360a08110156108f057600080fd5b508035906020810135906001600160a01b036040820135811691606081013582169160809091013516612019565b34801561092a57600080fd5b5061054a6004803603602081101561094157600080fd5b5035612134565b34801561095457600080fd5b5061054a6004803603604081101561096b57600080fd5b508035906020013561218e565b34801561098457600080fd5b5061054a6004803603604081101561099b57600080fd5b508035906020013561258b565b3480156109b457600080fd5b5061054a600480360360608110156109cb57600080fd5b50803590602081013590604001356126bd565b3480156109ea57600080fd5b5061054a6004803603610100811015610a0257600080fd5b6001600160a01b0382351691602081013591810190606081016040820135600160201b811115610a3157600080fd5b820183602082011115610a4357600080fd5b803590602001918460018302840111600160201b83111715610a6457600080fd5b919350915080359060208101359060408101359060608101359060800135612935565b348015610a9357600080fd5b50610a9c6129db565b604080516001600160e81b03199092168252519081900360200190f35b348015610ac557600080fd5b5061050e60048036036020811015610adc57600080fd5b50356129e5565b348015610aef57600080fd5b5061050e60048036036040811015610b0657600080fd5b5080359060200135612a1b565b348015610b1f57600080fd5b506105df612a38565b348015610b3457600080fd5b5061050e612a47565b348015610b4957600080fd5b5061050e612a5e565b348015610b5e57600080fd5b5061050e60048036036040811015610b7557600080fd5b506001600160a01b038135169060200135612a64565b348015610b9757600080fd5b5061050e60048036036040811015610bae57600080fd5b5080359060200135612aa2565b348015610bc757600080fd5b5061054a60048036036020811015610bde57600080fd5b50356001600160a01b0316612ac3565b348015610bfa57600080fd5b5061050e612b0f565b348015610c0f57600080fd5b5061050e60048036036040811015610c2657600080fd5b506001600160a01b038135169060200135612b15565b348015610c4857600080fd5b5061054a60048036036020811015610c5f57600080fd5b5035612b56565b348015610c7257600080fd5b5061050e60048036036040811015610c8957600080fd5b506001600160a01b038135169060200135612bb0565b348015610cab57600080fd5b5061054a60048036036020811015610cc257600080fd5b50356001600160a01b0316612c1a565b348015610cde57600080fd5b5061054a612cbd565b348015610cf357600080fd5b5061050e612d4e565b348015610d0857600080fd5b5061050e612d57565b348015610d1d57600080fd5b50610d3b60048036036020811015610d3457600080fd5b5035612d5d565b6040805160208082528351818301528351919283929083019185019080838360005b83811015610d75578181015183820152602001610d5d565b50505050905090810190601f168015610da25780820380516001836020036101000a031916815260200191505b509250505060405180910390f35b348015610dbc57600080fd5b5061050e612df8565b348015610dd157600080fd5b5061054a60048036036040811015610de857600080fd5b5080359060200135612dfe565b348015610e0157600080fd5b5061054a60048036036040811015610e1857600080fd5b506001600160a01b038135169060200135612e8e565b348015610e3a57600080fd5b506105df612edc565b348015610e4f57600080fd5b50610e58612eeb565b604080519115158252519081900360200190f35b348015610e7857600080fd5b50610ea560048036036040811015610e8f57600080fd5b506001600160a01b038135169060200135612efc565b604080519485526020850193909352838301919091526060830152519081900360800190f35b61054a60048036036020811015610ee157600080fd5b5035612f2e565b348015610ef457600080fd5b5061050e60048036036040811015610f0b57600080fd5b5080359060200135612f39565b348015610f2457600080fd5b5061054a60048036036020811015610f3b57600080fd5b50356001600160a01b0316612f5a565b61054a60048036036020811015610f6157600080fd5b810190602081018135600160201b811115610f7b57600080fd5b820183602082011115610f8d57600080fd5b803590602001918460018302840111600160201b83111715610fae57600080fd5b509092509050612fc3565b348015610fc557600080fd5b5061050e613145565b348015610fda57600080fd5b5061050e60048036036040811015610ff157600080fd5b506001600160a01b03813516906020013561315c565b34801561101357600080fd5b5061054a6004803603602081101561102a57600080fd5b5035613179565b34801561103d57600080fd5b5061105b6004803603602081101561105457600080fd5b50356131d3565b604080519788526020880196909652868601949094526060860192909252608085015260a08401526001600160a01b031660c0830152519081900360e00190f35b3480156110a857600080fd5b5061054a600480360360208110156110bf57600080fd5b5035613219565b3480156110d257600080fd5b50610762600480360360408110156110e957600080fd5b506001600160a01b0381351690602001356132f9565b34801561110b57600080fd5b5061050e613325565b34801561112057600080fd5b5061113e6004803603602081101561113757600080fd5b503561332b565b60408051602080825283518183015283519192839290830191858101910280838360005b8381101561117a578181015183820152602001611162565b505050509050019250505060405180910390f35b34801561119a57600080fd5b50610e58613390565b3480156111af57600080fd5b5061054a600480360360608110156111c657600080fd5b50803590602081013590604001356133a1565b3480156111e557600080fd5b50610e58600480360360208110156111fc57600080fd5b50356133b4565b34801561120f57600080fd5b5061050e6133cb565b34801561122457600080fd5b5061050e6004803603602081101561123b57600080fd5b50356133db565b34801561124e57600080fd5b5061050e6133ed565b34801561126357600080fd5b5061054a6004803603604081101561127a57600080fd5b508035906020013515156133f3565b34801561129557600080fd5b5061054a600480360360208110156112ac57600080fd5b50356135d5565b3480156112bf57600080fd5b5061050e600480360360408110156112d657600080fd5b506001600160a01b03813516906020013561362f565b3480156112f857600080fd5b50610e586004803603604081101561130f57600080fd5b506001600160a01b03813516906020013561364c565b34801561133157600080fd5b5061054a6004803603602081101561134857600080fd5b50356001600160a01b03166136e2565b34801561136457600080fd5b5061054a6004803603602081101561137b57600080fd5b503561373c565b34801561138e57600080fd5b5061050e613796565b3480156113a357600080fd5b50610e5861379c565b3480156113b857600080fd5b5061050e600480360360408110156113cf57600080fd5b50803590602001356137ad565b3480156113e857600080fd5b5061054a600480360360608110156113ff57600080fd5b50803590602081013590604001356137ce565b34801561141e57600080fd5b5061050e6004803603604081101561143557600080fd5b508035906020013561386b565b34801561144e57600080fd5b5061054a6004803603602081101561146557600080fd5b810190602081018135600160201b81111561147f57600080fd5b82018360208201111561149157600080fd5b803590602001918460208302840111600160201b831117156114b257600080fd5b50909250905061388c565b3480156114c957600080fd5b5061050e600480360360408110156114e057600080fd5b5080359060200135613966565b3480156114f957600080fd5b5061054a6004803603606081101561151057600080fd5b6001600160a01b0382351691602081013591810190606081016040820135600160201b81111561153f57600080fd5b82018360208201111561155157600080fd5b803590602001918460018302840111600160201b8311171561157257600080fd5b509092509050613987565b34801561158957600080fd5b5061054a600480360360208110156115a057600080fd5b5035613a86565b3480156115b357600080fd5b5061054a600480360360808110156115ca57600080fd5b810190602081018135600160201b8111156115e457600080fd5b8201836020820111156115f657600080fd5b803590602001918460208302840111600160201b8311171561161757600080fd5b919390929091602081019035600160201b81111561163457600080fd5b82018360208201111561164657600080fd5b803590602001918460208302840111600160201b8311171561166757600080fd5b919390929091602081019035600160201b81111561168457600080fd5b82018360208201111561169657600080fd5b803590602001918460208302840111600160201b831117156116b757600080fd5b919390929091602081019035600160201b8111156116d457600080fd5b8201836020820111156116e657600080fd5b803590602001918460208302840111600160201b8311171561170757600080fd5b509092509050613ae0565b34801561171e57600080fd5b5061054a6004803603602081101561173557600080fd5b50356001600160a01b0316613cbc565b34801561175157600080fd5b5061054a6004803603602081101561176857600080fd5b5035613d0c565b609e6020526000908152604090205481565b61178961379c565b806117975750611797613390565b6117d25760405162461bcd60e51b81526004018080602001828103825260508152602001806165946050913960600191505060405180910390fd5b6117db81613d66565b50565b336117e7616348565b6117f18284613da1565b6020810151815191925060009161180d9163ffffffff613e9516565b9050611830838561182b856040015185613e9590919063ffffffff16565b613eef565b6001600160a01b038316600081815260a860209081526040808320888452825291829020805485019055845185820151868401518451928352928201528083019190915290518692917f4119153d17a36f9597d40e3ab4148d03261a439dddbec4e91799ab7159608e26919081900360600190a350505050565b336118b3616348565b6118bd8284613da1565b90506000826001600160a01b03166118fa83604001516118ee85602001518660000151613e9590919063ffffffff16565b9063ffffffff613e9516565b604051600081818185875af1925050503d8060008114611936576040519150601f19603f3d011682016040523d82523d6000602084013e61193b565b606091505b5050905080611986576040805162461bcd60e51b81526020600482015260126024820152714661696c656420746f2073656e642046544d60701b604482015290519081900360640190fd5b83836001600160a01b03167fc1d8eb6e444b89fb8ff0991c19311c070df704ccb009e210d1462d5b2410bf4584600001518560200151866040015160405180848152602001838152602001828152602001935050505060405180910390a350505050565b60b55461016d025b90565b60b454600e0290565b60b9546001600160a01b031681565b6000611a19838361364c565b611a4757506001600160a01b038216600090815260a760209081526040808320848452909152902054611a90565b6001600160a01b038316600081815260a86020908152604080832086845282528083205493835260a78252808320868452909152902054611a8d9163ffffffff613fec16565b90505b92915050565b609a546001600160a01b031681565b60ab5481565b611ab43361402e565b611aef5760405162461bcd60e51b81526004018080602001828103825260298152602001806164996029913960400191505060405180910390fd5b611afa898989614042565b6001600160a01b038916600090815260a4602090815260408083208b84529091529020600201819055611b2c876141a7565b8515611c005786861115611b715760405162461bcd60e51b815260040180806020018281038252602c81526020018061668d602c913960400191505060405180910390fd5b6001600160a01b038916600081815260a8602090815260408083208c845282528083208a8155600181018a9055600281018990556003810188905584845260a983528184208d855283529281902086905580518781529182018a9052805192938c9390927f138940e95abffcd789b497bf6188bba3afa5fbd22fb5c42c2f6018d1bf0f4e7892908290030190a3505b505050505050505050565b33600081815260a860209081526040808320868452909152812090919083611c68576040805162461bcd60e51b815260206004820152600b60248201526a1e995c9bc8185b5bdd5b9d60aa1b604482015290519081900360640190fd5b611c72828661364c565b611cb3576040805162461bcd60e51b815260206004820152600d60248201526c06e6f74206c6f636b656420757609c1b604482015290519081900360640190fd5b8054841115611d09576040805162461bcd60e51b815260206004820152601760248201527f6e6f7420656e6f756768206c6f636b6564207374616b65000000000000000000604482015290519081900360640190fd5b611d13828661422c565b611d5f576040805162461bcd60e51b81526020600482015260186024820152776f75747374616e64696e67207346544d2062616c616e636560401b604482015290519081900360640190fd5b611d6982866142ce565b506000611d7c8387878560000154614499565b825486900383559050611d908387836145ca565b85836001600160a01b03167fef6c0c14fe9aa51af36acd791464dec3badbde668b63189b47bfa4e25be9b2b98784604051808381526020018281526020019250505060405180910390a395945050505050565b611dec3361402e565b611e275760405162461bcd60e51b81526004018080602001828103825260298152602001806164996029913960400191505060405180910390fd5b80611e68576040805162461bcd60e51b815260206004820152600c60248201526b77726f6e672073746174757360a01b604482015290519081900360640190fd5b611e72828261471a565b611e7d8260006133f3565b5050565b60a660209081526000938452604080852082529284528284209052825290208054600182015460029092015490919083565b6000611ebd614844565b60b05402905090565b60006064611ed2614844565b60b2540281611edd57fe5b04905090565b609a546001600160a01b031690565b60a25481565b60ad5460ae549091565b611f0a61379c565b80611f185750611f18613390565b611f535760405162461bcd60e51b81526004018080602001828103825260508152602001806165946050913960600191505060405180910390fd5b6117db81614850565b611f64612eeb565b611fa3576040805162461bcd60e51b81526020600482018190526024820152600080516020616546833981519152604482015290519081900360640190fd5b60008112611fb85760ab8054820190556117db565b60ab805460008390039003905550565b6067546001600160a01b031690565b60ac60205280600052604060002060009150905080600701549080600801549080600901549080600a01549080600b01549080600c01549080600d0154905087565b600054610100900460ff1680612032575061203261488b565b80612040575060005460ff16155b61207b5760405162461bcd60e51b815260040180806020018281038252602e815260200180616566602e913960400191505060405180910390fd5b600054610100900460ff161580156120a6576000805460ff1961ff0019909116610100171660011790555b6120af83614891565b6120b98284614982565b6120c282614abd565b609c869055609b80546001600160a01b0319166001600160a01b03861617905560ab8590556755cfe697852e904c60aa556103e860ad556203f48060ae55612108614ba8565b600087815260ac6020526040902060070155801561212c576000805461ff00191690555b505050505050565b61213c61379c565b8061214a575061214a613390565b6121855760405162461bcd60e51b81526004018080602001828103825260508152602001806165946050913960600191505060405180910390fd5b6117db81614bac565b33612197616348565b506001600160a01b038116600090815260a66020908152604080832086845282528083208584528252918290208251606081018452815480825260018301549382019390935260029091015492810192909252612233576040805162461bcd60e51b81526020600482015260156024820152741c995c5d595cdd08191bd95cdb89dd08195e1a5cdd605a1b604482015290519081900360640190fd5b61223d828561422c565b612289576040805162461bcd60e51b81526020600482015260186024820152776f75747374616e64696e67207346544d2062616c616e636560401b604482015290519081900360640190fd5b60208082015182516000878152609d909352604090922060010154909190158015906122c557506000868152609d602052604090206001015482115b156122e65750506000848152609d6020526040902060018101546002909101545b6122ee613325565b82016122f8614ba8565b1015612344576040805162461bcd60e51b81526020600482015260166024820152751b9bdd08195b9bdd59da081d1a5b59481c185cdcd95960521b604482015290519081900360640190fd5b61234c612b0f565b8101612356612d4e565b10156123a9576040805162461bcd60e51b815260206004820152601860248201527f6e6f7420656e6f7567682065706f636873207061737365640000000000000000604482015290519081900360640190fd5b6001600160a01b038416600090815260a6602090815260408083208984528252808320888452909152812060020154906123e2886133b4565b90506000612404838360b860008d815260200190815260200160002054614be7565b6001600160a01b038816600090815260a6602090815260408083208d845282528083208c84529091528120818155600181018290556002015560a38054820190559050808311612494576040805162461bcd60e51b81526020600482015260166024820152751cdd185ad9481a5cc8199d5b1b1e481cdb185cda195960521b604482015290519081900360640190fd5b60006001600160a01b0388166124b0858463ffffffff613fec16565b604051600081818185875af1925050503d80600081146124ec576040519150601f19603f3d011682016040523d82523d6000602084013e6124f1565b606091505b505090508061253c576040805162461bcd60e51b81526020600482015260126024820152714661696c656420746f2073656e642046544d60701b604482015290519081900360640190fd5b888a896001600160a01b03167f75e161b3e824b114fc1a33274bd7091918dd4e639cede50b78b15a4eea956a21876040518082815260200191505060405180910390a450505050505050505050565b612593612eeb565b6125d2576040805162461bcd60e51b81526020600482018190526024820152600080516020616546833981519152604482015290519081900360640190fd5b6125db826133b4565b61262c576040805162461bcd60e51b815260206004820152601760248201527f76616c696461746f722069736e277420736c6173686564000000000000000000604482015290519081900360640190fd5b612634614844565b8111156126725760405162461bcd60e51b81526004018080602001828103825260218152602001806165e46021913960400191505060405180910390fd5b600082815260b860209081526040918290208390558151838152915184927f047575f43f09a7a093d94ec483064acfc61b7e25c0de28017da442abf99cb91792908290030190a25050565b336126c881856142ce565b506000821161270c576040805162461bcd60e51b815260206004820152600b60248201526a1e995c9bc8185b5bdd5b9d60aa1b604482015290519081900360640190fd5b6127168185611a0d565b82111561276a576040805162461bcd60e51b815260206004820152601960248201527f6e6f7420656e6f75676820756e6c6f636b6564207374616b6500000000000000604482015290519081900360640190fd5b612774818561422c565b6127c0576040805162461bcd60e51b81526020600482015260186024820152776f75747374616e64696e67207346544d2062616c616e636560401b604482015290519081900360640190fd5b6001600160a01b038116600090815260a660209081526040808320878452825280832086845290915290206002015415612837576040805162461bcd60e51b81526020600482015260136024820152727772494420616c72656164792065786973747360681b604482015290519081900360640190fd5b6128428185846145ca565b6001600160a01b038116600090815260a6602090815260408083208784528252808320868452909152902060020182905561287b612d4e565b6001600160a01b038216600090815260a66020908152604080832088845282528083208784529091529020556128af614ba8565b6001600160a01b038216600090815260a66020908152604080832088845282528083208784529091528120600101919091556128ec9085906133f3565b8284826001600160a01b03167fd3bb4e423fbea695d16b982f9f682dc5f35152e5411646a8a5a79a6b02ba8d57856040518082815260200191505060405180910390a450505050565b61293e3361402e565b6129795760405162461bcd60e51b81526004018080602001828103825260298152602001806164996029913960400191505060405180910390fd5b6129c1898989898080601f0160208091040260200160405190810160405280939291908181526020018383808284376000920191909152508b92508a91508990508888614c49565b60a054881115611c005760a0889055505050505050505050565b6219981960e91b90565b6000818152609d60209081526040808320600601546001600160a01b0316835260a782528083208484529091529020545b919050565b600091825260ac6020908152604080842092845291905290205490565b6066546001600160a01b031690565b60006064612a53614844565b60b3540281611edd57fe5b60a35481565b6000612a6e616348565b612a788484614df8565b805160208201516040830151929350612a9a926118ee9163ffffffff613e9516565b949350505050565b600091825260ac602090815260408084209284526001909201905290205490565b612acb613390565b612b065760405162461bcd60e51b81526004018080602001828103825260318152602001806164c26031913960400191505060405180910390fd5b6117db81614e66565b60b65490565b6000612b21838361364c565b612b2d57506000611a90565b506001600160a01b0391909116600090815260a860209081526040808320938352929052205490565b612b5e61379c565b80612b6c5750612b6c613390565b612ba75760405162461bcd60e51b81526004018080602001828103825260508152602001806165946050913960600191505060405180910390fd5b6117db81614f07565b6000612bba616348565b506001600160a01b038316600090815260a46020908152604080832085845282529182902082516060810184528154808252600183015493820184905260029092015493810184905292612a9a9290916118ee919063ffffffff613e9516565b612c22612eeb565b612c61576040805162461bcd60e51b81526020600482018190526024820152600080516020616546833981519152604482015290519081900360640190fd5b609a546040516001600160a01b038084169216907f434a2db650703b36c824e745330d6397cdaa9ee2cc891a4938ae853e1c50b68d90600090a3609a80546001600160a01b0319166001600160a01b0392909216919091179055565b612cc5612eeb565b612d04576040805162461bcd60e51b81526020600482018190526024820152600080516020616546833981519152604482015290519081900360640190fd5b6033546040516000916001600160a01b0316907f8be0079c531659141344cd1fd0a4f28419497f9722a3daafe3b4186f6b6457e0908390a3603380546001600160a01b0319169055565b609c5460010190565b609c5481565b609f6020908152600091825260409182902080548351601f600260001961010060018616150201909316929092049182018490048402810184019094528084529091830182828015612df05780601f10612dc557610100808354040283529160200191612df0565b820191906000526020600020905b815481529060010190602001808311612dd357829003601f168201915b505050505081565b60a15481565b612e06612eeb565b612e45576040805162461bcd60e51b81526020600482018190526024820152600080516020616546833981519152604482015290519081900360640190fd5b60ae81905560ad829055604080518381526020810183905281517f702756a07c05d0bbfd06fc17b67951a5f4deb7bb6b088407e68a58969daf2a34929181900390910190a15050565b612e9882826142ce565b611e7d576040805162461bcd60e51b815260206004820152601060248201526f0dcdee8d0d2dcce40e8de40e6e8c2e6d60831b604482015290519081900360640190fd5b6033546001600160a01b031690565b6033546001600160a01b0316331490565b60a860209081526000928352604080842090915290825290208054600182015460028301546003909301549192909184565b6117db338234613eef565b600091825260ac602090815260408084209284526005909201905290205490565b612f62612eeb565b612fa1576040805162461bcd60e51b81526020600482018190526024820152600080516020616546833981519152604482015290519081900360640190fd5b60b980546001600160a01b0319166001600160a01b0392909216919091179055565b612fcb6133cb565b341015613019576040805162461bcd60e51b8152602060048201526017602482015276696e73756666696369656e742073656c662d7374616b6560481b604482015290519081900360640190fd5b8015801590613029575060428111155b613069576040805162461bcd60e51b815260206004820152600c60248201526b656d707479207075626b657960a01b604482015290519081900360640190fd5b6000805b60048110156130ac5783838281016003190181811061308857fe5b909101356001600160f81b0319161590506130a4578160010191505b60010161306d565b50600081116130f3576040805162461bcd60e51b815260206004820152600e60248201526d696e76616c6964207075626b657960901b604482015290519081900360640190fd5b6131333384848080601f016020809104026020016040519081016040528093929190818152602001838380828437600092019190915250614f4292505050565b6131403360a05434613eef565b505050565b60006064613151614844565b60b1540281611edd57fe5b60a560209081526000928352604080842090915290825290205481565b61318161379c565b8061318f575061318f613390565b6131ca5760405162461bcd60e51b81526004018080602001828103825260508152602001806165946050913960600191505060405180910390fd5b6117db81614f6d565b609d60205260009081526040902080546001820154600283015460038401546004850154600586015460069096015494959394929391929091906001600160a01b031687565b613221612eeb565b613260576040805162461bcd60e51b81526020600482018190526024820152600080516020616546833981519152604482015290519081900360640190fd5b6801c985c8903591eb208111156132be576040805162461bcd60e51b815260206004820152601b60248201527f746f6f206c617267652072657761726420706572207365636f6e640000000000604482015290519081900360640190fd5b60aa8190556040805182815290517f8cd9dae1bbea2bc8a5e80ffce2c224727a25925130a03ae100619a8861ae23969181900360200190a150565b60a960209081526000928352604080842090915290825290208054600182015460029092015490919083565b60b75490565b600081815260ac602090815260409182902060060180548351818402810184019094528084526060939283018282801561338457602002820191906000526020600020905b815481526020019060010190808311613370575b50505050509050919050565b6067546001600160a01b0316331490565b336133ae81858585614fa8565b50505050565b6000908152609d6020526040902054608016151590565b60af54670de0b6b3a76400000290565b60b86020526000908152604090205481565b60a05481565b6133fc8261525a565b613447576040805162461bcd60e51b81526020600482015260176024820152761d985b1a59185d1bdc88191bd95cdb89dd08195e1a5cdd604a1b604482015290519081900360640190fd5b6000828152609d602052604090206003810154905415613465575060005b609b546040805163520337df60e11b8152600481018690526024810184905290516001600160a01b039092169163a4066fbe9160448082019260009290919082900301818387803b1580156134b957600080fd5b505af11580156134cd573d6000803e3d6000fd5b505050508180156134dd57508015155b1561314057609b546000848152609f602052604090819020815163242a6e3f60e01b81526004810187815260248201938452825460026000196001831615610100020190911604604483018190526001600160a01b039095169463242a6e3f948994939091606490910190849080156135975780601f1061356c57610100808354040283529160200191613597565b820191906000526020600020905b81548152906001019060200180831161357a57829003601f168201915b50509350505050600060405180830381600087803b1580156135b857600080fd5b505af11580156135cc573d6000803e3d6000fd5b50505050505050565b6135dd61379c565b806135eb57506135eb613390565b6136265760405162461bcd60e51b81526004018080602001828103825260508152602001806165946050913960600191505060405180910390fd5b6117db81615271565b60a760209081526000928352604080842090915290825290205481565b6001600160a01b038216600090815260a860209081526040808320848452909152812060020154158015906136a357506001600160a01b038316600090815260a86020908152604080832085845290915290205415155b8015611a8d57506001600160a01b038316600090815260a8602090815260408083208584529091529020600201546136d9614ba8565b11159392505050565b6136ea61379c565b806136f857506136f8613390565b6137335760405162461bcd60e51b81526004018080602001828103825260508152602001806165946050913960600191505060405180910390fd5b6117db816152ac565b61374461379c565b806137525750613752613390565b61378d5760405162461bcd60e51b81526004018080602001828103825260508152602001806165946050913960600191505060405180910390fd5b6117db8161534d565b60aa5481565b6066546001600160a01b0316331490565b600091825260ac602090815260408084209284526003909201905290205490565b338161380f576040805162461bcd60e51b815260206004820152600b60248201526a1e995c9bc8185b5bdd5b9d60aa1b604482015290519081900360640190fd5b613819818561364c565b1561385f576040805162461bcd60e51b81526020600482015260116024820152700616c7265616479206c6f636b656420757607c1b604482015290519081900360640190fd5b6133ae81858585614fa8565b600091825260ac602090815260408084209284526002909201905290205490565b6138953361402e565b6138d05760405162461bcd60e51b81526004018080602001828103825260298152602001806164996029913960400191505060405180910390fd5b600060ac60006138de612d4e565b8152602001908152602001600020905060008090505b8281101561395757600084848381811061390a57fe5b602090810292909201356000818152609d8452604080822060030154948890529020839055600c86015490935061394891508263ffffffff613e9516565b600c85015550506001016138f4565b506133ae600682018484616369565b600091825260ac602090815260408084209284526004909201905290205490565b61398f612eeb565b6139ce576040805162461bcd60e51b81526020600482018190526024820152600080516020616546833981519152604482015290519081900360640190fd5b6139d7836141a7565b6040516001600160a01b0385169084156108fc029085906000818181858888f19350505050158015613a0d573d6000803e3d6000fd5b50836001600160a01b03167f9eec469b348bcf64bbfb60e46ce7b160e2e09bf5421496a2cdbc43714c28b8ad84848460405180848152602001806020018281038252848482818152602001925080828437600083820152604051601f909101601f1916909201829003965090945050505050a250505050565b613a8e61379c565b80613a9c5750613a9c613390565b613ad75760405162461bcd60e51b81526004018080602001828103825260508152602001806165946050913960600191505060405180910390fd5b6117db81615388565b613ae93361402e565b613b245760405162461bcd60e51b81526004018080602001828103825260298152602001806164996029913960400191505060405180910390fd5b600060ac6000613b32612d4e565b81526020019081526020016000209050606081600601805480602002602001604051908101604052809291908181526020018280548015613b9257602002820191906000526020600020905b815481526020019060010190808311613b7e575b50505050509050613c1982828c8c80806020026020016040519081016040528093929190818152602001838360200280828437600081840152601f19601f820116905080830192505050505050508b8b808060200260200160405190810160405280939291908181526020018383602002808284376000920191909152506153c392505050565b613c88828288888080602002602001604051908101604052809392919081815260200183836020028082843760009201919091525050604080516020808c0282810182019093528b82529093508b92508a9182918501908490808284376000920191909152506154d992505050565b613c90612d4e565b609c55613c9b614ba8565b60078301555060aa54600b82015560ab54600d909101555050505050505050565b613cc4612eeb565b613d03576040805162461bcd60e51b81526020600482018190526024820152600080516020616546833981519152604482015290519081900360640190fd5b6117db81615b1f565b613d1461379c565b80613d225750613d22613390565b613d5d5760405162461bcd60e51b81526004018080602001828103825260508152602001806165946050913960600191505060405180910390fd5b6117db81615bc0565b60b08190556040805182815290517fd3b49810855efc7d611424cd0a8cc519b92cf2e97bd3516921dff1a19b101e359181900360200190a150565b613da9616348565b613db383836142ce565b50506001600160a01b038216600090815260a46020908152604080832084845282528083208151606081018352815480825260018301549482018590526002909201549281018390529392613e11926118ee9163ffffffff613e9516565b905080613e54576040805162461bcd60e51b815260206004820152600c60248201526b7a65726f207265776172647360a01b604482015290519081900360640190fd5b6001600160a01b038416600090815260a46020908152604080832086845290915281208181556001810182905560020155613e8e816141a7565b5092915050565b600082820183811015611a8d576040805162461bcd60e51b815260206004820152601b60248201527f536166654d6174683a206164646974696f6e206f766572666c6f770000000000604482015290519081900360640190fd5b613ef88261525a565b613f43576040805162461bcd60e51b81526020600482015260176024820152761d985b1a59185d1bdc88191bd95cdb89dd08195e1a5cdd604a1b604482015290519081900360640190fd5b6000828152609d602052604090205415613f9d576040805162461bcd60e51b815260206004820152601660248201527576616c696461746f722069736e27742061637469766560501b604482015290519081900360640190fd5b613fa8838383614042565b613fb182615bfb565b6131405760405162461bcd60e51b815260040180806020018281038252602981526020018061662d6029913960400191505060405180910390fd5b6000611a8d83836040518060400160405280601e81526020017f536166654d6174683a207375627472616374696f6e206f766572666c6f770000815250615c43565b609b546001600160a01b0390811691161490565b60008111614085576040805162461bcd60e51b815260206004820152600b60248201526a1e995c9bc8185b5bdd5b9d60aa1b604482015290519081900360640190fd5b61408f83836142ce565b506001600160a01b038316600090815260a7602090815260408083208584529091529020546140c4908263ffffffff613e9516565b6001600160a01b038416600090815260a760209081526040808320868452825280832093909355609d90522060030154614104818363ffffffff613e9516565b6000848152609d602052604090206003015560a154614129908363ffffffff613e9516565b60a1556000838152609d60205260409020546141565760a254614152908363ffffffff613e9516565b60a2555b6141618382156133f3565b60408051838152905184916001600160a01b038716917f9a8f44850296624dadfd9c246d17e47171d35727a181bd090aa14bbbe00238bb9181900360200190a350505050565b609b54604080516366e7ea0f60e01b81523060048201526024810184905290516001600160a01b03909216916366e7ea0f9160448082019260009290919082900301818387803b1580156141fa57600080fd5b505af115801561420e573d6000803e3d6000fd5b505060ab54614226925090508263ffffffff613e9516565b60ab5550565b60b9546000906001600160a01b031661424757506001611a90565b60b954604080516321d585c360e01b81526001600160a01b03868116600483015260248201869052915191909216916321d585c3916044808301926020929190829003018186803b15801561429b57600080fd5b505afa1580156142af573d6000803e3d6000fd5b505050506040513d60208110156142c557600080fd5b50519392505050565b60006142d8616348565b6142e28484615cda565b90506142ed83615e12565b6001600160a01b038516600081815260a56020908152604080832088845282528083209490945591815260a48252828120868252825282902082516060810184528154815260018201549281019290925260020154918101919091526143539082615e6d565b6001600160a01b038516600081815260a460209081526040808320888452825280832085518155858301516001808301919091559582015160029182015593835260a98252808320888452825291829020825160608101845281548152948101549185019190915290910154908201526143cd9082615e6d565b6001600160a01b038516600090815260a96020908152604080832087845282529182902083518155908301516001820155910151600290910155614411848461364c565b614474576001600160a01b038416600081815260a860209081526040808320878452825280832083815560018082018590556002808301869055600390920185905594845260a98352818420888552909252822082815592830182905591909101555b60208101511515806144865750805115155b80612a9a57506040015115159392505050565b6001600160a01b038416600090815260a96020908152604080832086845290915281205481906144e19084906144d5908763ffffffff615edf16565b9063ffffffff615f3816565b6001600160a01b038716600090815260a960209081526040808320898452909152812060010154919250906145229085906144d5908863ffffffff615edf16565b6001600160a01b038816600090815260a9602090815260408083208a84529091529020549091506002820483019061455a9084613fec565b6001600160a01b038916600090815260a9602090815260408083208b845290915290209081556001015461458e9083613fec565b6001600160a01b038916600090815260a9602090815260408083208b84529091529020600101558581106145bf5750845b979650505050505050565b6001600160a01b038316600090815260a760209081526040808320858452825280832080548590039055609d90915290206003015461460f908263ffffffff613fec16565b6000838152609d602052604090206003015560a154614634908263ffffffff613fec16565b60a1556000828152609d60205260409020546146615760a25461465d908263ffffffff613fec16565b60a2555b600061466c836129e5565b905080156147135761467c6133cb565b8110156146ca576040805162461bcd60e51b8152602060048201526017602482015276696e73756666696369656e742073656c662d7374616b6560481b604482015290519081900360640190fd5b6146d383615bfb565b61470e5760405162461bcd60e51b815260040180806020018281038252602981526020018061662d6029913960400191505060405180910390fd5b6133ae565b6133ae8360015b6000828152609d602052604090205415801561473557508015155b15614762576000828152609d602052604090206003015460a25461475e9163ffffffff613fec16565b60a2555b6000828152609d6020526040902054811115611e7d576000828152609d602052604090208181556002015461480a57614799612d4e565b6000838152609d60205260409020600201556147b3614ba8565b6000838152609d60209081526040918290206001810184905560020154825190815290810192909252805184927fac4801c32a6067ff757446524ee4e7a373797278ac3c883eac5c693b4ad72e4792908290030190a25b60408051828152905183917fcd35267e7654194727477d6c78b541a553483cff7f92a055d17868d3da6e953e919081900360200190a25050565b670de0b6b3a764000090565b60b18190556040805182815290517f969e21e21af49053b3bfee796b627ebc26e10328889e90a47da2f1205d3e8f139181900360200190a150565b303b1590565b600054610100900460ff16806148aa57506148aa61488b565b806148b8575060005460ff16155b6148f35760405162461bcd60e51b815260040180806020018281038252602e815260200180616566602e913960400191505060405180910390fd5b600054610100900460ff1615801561491e576000805460ff1961ff0019909116610100171660011790555b603380546001600160a01b0319166001600160a01b0384811691909117918290556040519116906000907f8be0079c531659141344cd1fd0a4f28419497f9722a3daafe3b4186f6b6457e0908290a38015611e7d576000805461ff00191690555050565b600054610100900460ff168061499b575061499b61488b565b806149a9575060005460ff16155b6149e45760405162461bcd60e51b815260040180806020018281038252602e815260200180616566602e913960400191505060405180910390fd5b600054610100900460ff16158015614a0f576000805460ff1961ff0019909116610100171660011790555b606680546001600160a01b038086166001600160a01b03199283161792839055606780548683169316929092179091556040519116906000907f5f56bee8cffbe9a78652a74a60705edede02af10b0bbb888ca44b79a0d42ce80908290a36067546040516001600160a01b03909116906000907fd91e5ba07efb2e532a3d502f5fb4451cf8fe4006f3b90283d8f2f51a06e5358c908290a38015613140576000805461ff0019169055505050565b600054610100900460ff1680614ad65750614ad661488b565b80614ae4575060005460ff16155b614b1f5760405162461bcd60e51b815260040180806020018281038252602e815260200180616566602e913960400191505060405180910390fd5b600054610100900460ff16158015614b4a576000805460ff1961ff0019909116610100171660011790555b609a80546001600160a01b0319166001600160a01b0384169081179091556040516000907f434a2db650703b36c824e745330d6397cdaa9ee2cc891a4938ae853e1c50b68d908290a38015611e7d576000805461ff00191690555050565b4290565b60b48190556040805182815290517f31d33f23d1e7fe45f7e898c070587ff0f2f519674e5e2a12f90b3a17c77f6ad19181900360200190a150565b6000821580614bfd5750614bf9614844565b8210155b15614c0a57506000614c42565b614c3560016118ee614c1a614844565b6144d586614c26614844565b8a91900363ffffffff615edf16565b905083811115614c425750825b9392505050565b6001600160a01b0388166000908152609e602052604090205415614cb4576040805162461bcd60e51b815260206004820152601860248201527f76616c696461746f7220616c7265616479206578697374730000000000000000604482015290519081900360640190fd5b6001600160a01b0388166000818152609e602090815260408083208b90558a8352609d82528083208981556004810189905560058101889055600181018690556002810187905560060180546001600160a01b031916909417909355609f81529190208751614d25928901906163b4565b50876001600160a01b0316877f49bca1ed2666922f9f1690c26a569e1299c2a715fe57647d77e81adfabbf25bf8686604051808381526020018281526020019250505060405180910390a38115614db1576040805183815260208101839052815189927fac4801c32a6067ff757446524ee4e7a373797278ac3c883eac5c693b4ad72e47928290030190a25b8415614dee5760408051868152905188917fcd35267e7654194727477d6c78b541a553483cff7f92a055d17868d3da6e953e919081900360200190a25b5050505050505050565b614e00616348565b614e08616348565b614e128484615cda565b6001600160a01b038516600090815260a4602090815260408083208784528252918290208251606081018452815481526001820154928101929092526002015491810191909152909150612a9a9082615e6d565b6001600160a01b038116614eab5760405162461bcd60e51b81526004018080602001828103825260378152602001806166566037913960400191505060405180910390fd5b6067546040516001600160a01b038084169216907fd91e5ba07efb2e532a3d502f5fb4451cf8fe4006f3b90283d8f2f51a06e5358c90600090a3606780546001600160a01b0319166001600160a01b0392909216919091179055565b60b68190556040805182815290517f2f273767369d76e1ecbee32ed26135f390df620f085feb7a6f2e3dd51985bd5f9181900360200190a150565b60a08054600101908190556131408382846000614f5d612d4e565b614f65614ba8565b600080614c49565b60b28190556040805182815290517f12420e865335c7cfb225296eb0adaca14bfb1de93b3731ed1e0434746a4d91249181900360200190a150565b614fb28484611a0d565b811115614ff9576040805162461bcd60e51b815260206004820152601060248201526f6e6f7420656e6f756768207374616b6560801b604482015290519081900360640190fd5b6000838152609d602052604090205415615053576040805162461bcd60e51b815260206004820152601660248201527576616c696461746f722069736e27742061637469766560501b604482015290519081900360640190fd5b61505b6119f5565b8210158015615071575061506d6119ea565b8211155b6150b7576040805162461bcd60e51b815260206004820152601260248201527134b731b7b93932b1ba10323ab930ba34b7b760711b604482015290519081900360640190fd5b60006150c5836118ee614ba8565b6000858152609d60205260409020600601549091506001600160a01b039081169086168114615153576001600160a01b038116600090815260a8602090815260408083208884529091529020600201548211156151535760405162461bcd60e51b81526004018080602001828103825260288152602001806166056028913960400191505060405180910390fd5b61515d86866142ce565b506001600160a01b038616600090815260a860209081526040808320888452909152902060038101548510156151da576040805162461bcd60e51b815260206004820152601f60248201527f6c6f636b7570206475726174696f6e2063616e6e6f7420646563726561736500604482015290519081900360640190fd5b80546151ec908563ffffffff613e9516565b81556151f6612d4e565b600182015560028101839055600381018590556040805186815260208101869052815188926001600160a01b038b16927f138940e95abffcd789b497bf6188bba3afa5fbd22fb5c42c2f6018d1bf0f4e78929081900390910190a350505050505050565b6000908152609d6020526040902060050154151590565b60b38190556040805182815290517fcda2f8a6b9050afa9ac1f8d6ff9a123894f76a5530c6c29636332c995a1f97159181900360200190a150565b6001600160a01b0381166152f15760405162461bcd60e51b81526004018080602001828103825260328152602001806164f36032913960400191505060405180910390fd5b6066546040516001600160a01b038084169216907f5f56bee8cffbe9a78652a74a60705edede02af10b0bbb888ca44b79a0d42ce8090600090a3606680546001600160a01b0319166001600160a01b0392909216919091179055565b60af8190556040805182815290517fe9a0db1369c39eb7fc2ed3d7e122f9ee60952b075329b1e84bce8843367210f49181900360200190a150565b60b78190556040805182815290517f9e85e6207a28e085f027a9b979cad850f4c36a581dd42c119e856c04b92d96119181900360200190a150565b60005b83518110156154d25760ad548282815181106153de57fe5b6020026020010151118015615408575060ae548382815181106153fd57fe5b602002602001015110155b156154495761542b84828151811061541c57fe5b6020026020010151600861471a565b61544984828151811061543a57fe5b602002602001015160006133f3565b82818151811061545557fe5b602002602001015185600401600086848151811061546f57fe5b602002602001015181526020019081526020016000208190555081818151811061549557fe5b60200260200101518560050160008684815181106154af57fe5b6020908102919091018101518252810191909152604001600020556001016153c6565b5050505050565b6154e1616422565b6040518060c001604052808551604051908082528060200260200182016040528015615517578160200160208202803883390190505b50815260200160008152602001855160405190808252806020026020018201604052801561554f578160200160208202803883390190505b508152602001600081526020016000815260200160008152509050600060ac6000615589600161557d612d4e565b9063ffffffff613fec16565b815260208101919091526040016000206001608084015260078101549091506155b0614ba8565b11156155ca5780600701546155c3614ba8565b0360808301525b60005b85518110156156d25760008260030160008884815181106155ea57fe5b6020026020010151815260200190815260200160002054905060008090508186848151811061561557fe5b6020026020010151111561563c578186848151811061563057fe5b60200260200101510390505b846080015187848151811061564d57fe5b602002602001015182028161565e57fe5b048560400151848151811061566f57fe5b6020026020010181815250506156a98560400151848151811061568e57fe5b60200260200101518660600151613e9590919063ffffffff16565b606086015260a08501516156c3908263ffffffff613e9516565b60a086015250506001016155cd565b5060005b85518110156157a35782608001518582815181106156f057fe5b6020026020010151846080015187848151811061570957fe5b60200260200101518a60000160008b878151811061572357fe5b6020026020010151815260200190815260200160002054028161574257fe5b04028161574b57fe5b048360000151828151811061575c57fe5b6020026020010181815250506157968360000151828151811061577b57fe5b60200260200101518460200151613e9590919063ffffffff16565b60208401526001016156d6565b5060005b8551811015615af75760006157df846080015160aa54866000015185815181106157cd57fe5b60200260200101518760200151615f7a565b905061581b61580e8560a00151866040015185815181106157fc57fe5b60200260200101518760600151615fbb565b829063ffffffff613e9516565b9050600087838151811061582b57fe5b6020908102919091018101516000818152609d90925260408220600601549092506001600160a01b03169061586784615862613145565b616018565b6001600160a01b038316600090815260a7602090815260408083208784529091529020549091508015615a0e576000816158a18587612b15565b8402816158aa57fe5b0490508083036158b8616348565b6001600160a01b038616600090815260a8602090815260408083208a84529091529020600301546158ea908490616035565b90506158f4616348565b6158ff836000616035565b6001600160a01b038816600090815260a4602090815260408083208c84528252918290208251606081018452815481526001820154928101929092526002015491810191909152909150615954908383616126565b6001600160a01b038816600081815260a4602090815260408083208d8452825280832085518155858301516001808301919091559582015160029182015593835260a982528083208d8452825291829020825160608101845281548152948101549185019190915290910154908201526159cf908383616126565b6001600160a01b038816600090815260a9602090815260408083208c845282529182902083518155908301516001820155910151600290910155505050505b6000848152609d6020526040812060030154838703918115615a405781615a33614844565b840281615a3c57fe5b0490505b808a600101600089815260200190815260200160002054018f6001016000898152602001908152602001600020819055508b8981518110615a7d57fe5b60200260200101518f6003016000898152602001908152602001600020819055508c8981518110615aaa57fe5b60200260200101518a600201600089815260200190815260200160002054018f600201600089815260200190815260200160002081905550505050505050505080806001019150506157a7565b505060a081015160088601556020810151600986015560600151600a90940193909355505050565b6001600160a01b038116615b645760405162461bcd60e51b81526004018080602001828103825260268152602001806164736026913960400191505060405180910390fd5b6033546040516001600160a01b038084169216907f8be0079c531659141344cd1fd0a4f28419497f9722a3daafe3b4186f6b6457e090600090a3603380546001600160a01b0319166001600160a01b0392909216919091179055565b60b58190556040805182815290517fd830c33dec392daf6dfeac9834107217392396bc333bcbb92e6c1c1a5e8726319181900360200190a150565b6000615c28615c08614844565b6144d5615c13611eb3565b615c1c866129e5565b9063ffffffff615edf16565b6000838152609d602052604090206003015411159050919050565b60008184841115615cd25760405162461bcd60e51b81526004018080602001828103825283818151815260200191508051906020019080838360005b83811015615c97578181015183820152602001615c7f565b50505050905090810190601f168015615cc45780820380516001836020036101000a031916815260200191505b509250505060405180910390fd5b505050900390565b615ce2616348565b6001600160a01b038316600090815260a56020908152604080832085845290915281205490615d1084615e12565b90506000615d1e8686616141565b905081811115615d2b5750805b82811015615d365750815b6001600160a01b038616600081815260a860209081526040808320898452825280832093835260a782528083208984529091528120548254909190615d8290839063ffffffff613fec16565b90506000615d9684600001548a8988616200565b9050615da0616348565b615dae828660030154616035565b9050615dbc838b8a89616200565b9150615dc6616348565b615dd1836000616035565b9050615ddf858c898b616200565b9250615de9616348565b615df4846000616035565b9050615e01838383616126565b9d9c50505050505050505050505050565b6000818152609d602052604081206002015415615e65576000828152609d6020526040902060020154609c541015615e4d5750609c54612a16565b506000818152609d6020526040902060020154612a16565b5050609c5490565b615e75616348565b6040805160608101909152825184518291615e96919063ffffffff613e9516565b8152602001615eb684602001518660200151613e9590919063ffffffff16565b8152602001615ed684604001518660400151613e9590919063ffffffff16565b90529392505050565b600082615eee57506000611a90565b82820282848281615efb57fe5b0414611a8d5760405162461bcd60e51b81526004018080602001828103825260218152602001806165256021913960400191505060405180910390fd5b6000611a8d83836040518060400160405280601a81526020017f536166654d6174683a206469766973696f6e206279207a65726f000000000000815250616263565b600082615f8957506000612a9a565b6000615f9b868663ffffffff615edf16565b9050615fb1836144d5838763ffffffff615edf16565b9695505050505050565b600082615fca57506000614c42565b6000615fe0836144d5878763ffffffff615edf16565b905061600f615fed614844565b6144d5615ff8611ec6565b616000614844565b8591900363ffffffff615edf16565b95945050505050565b6000611a8d616025614844565b6144d5858563ffffffff615edf16565b61603d616348565b6040518060600160405280600081526020016000815260200160008152509050816000146160f857600061606f612a47565b616077614844565b03905060006160976160876119ea565b6144d5848763ffffffff615edf16565b905060006160c06160a6614844565b6144d5846160b2612a47565b8a910163ffffffff615edf16565b90506160e56160cd614844565b6144d56160d8612a47565b899063ffffffff615edf16565b602085018190529003835250611a909050565b61611b616103614844565b6144d561610e612a47565b869063ffffffff615edf16565b604082015292915050565b61612e616348565b612a9a61613b8585615e6d565b83615e6d565b6001600160a01b038216600090815260a860209081526040808320848452909152812060010154609c546161768585836162c8565b15616184579150611a909050565b61618f8585846162c8565b61619e57600092505050611a90565b808211156161b157600092505050611a90565b808210156161e4576002818301046161ca8686836162c8565b156161da578060010192506161de565b8091505b506161b1565b806161f457600092505050611a90565b60001901949350505050565b600081831061621157506000612a9a565b600083815260ac60208181526040808420888552600190810183528185205487865293835281852089865201909152909120546145bf61624f614844565b6144d589615c1c858763ffffffff613fec16565b600081836162b25760405162461bcd60e51b8152602060048201818152835160248401528351909283926044909101919085019080838360008315615c97578181015183820152602001615c7f565b5060008385816162be57fe5b0495945050505050565b6001600160a01b038316600090815260a8602090815260408083208584529091528120600101548210801590612a9a57506001600160a01b038416600090815260a86020908152604080832086845290915290206002015461632983616333565b1115949350505050565b600090815260ac602052604090206007015490565b60405180606001604052806000815260200160008152602001600081525090565b8280548282559060005260206000209081019282156163a4579160200282015b828111156163a4578235825591602001919060010190616389565b506163b0929150616458565b5090565b828054600181600116156101000203166002900490600052602060002090601f016020900481019282601f106163f557805160ff19168380011785556163a4565b828001600101855582156163a4579182015b828111156163a4578251825591602001919060010190616407565b6040518060c001604052806060815260200160008152602001606081526020016000815260200160008152602001600081525090565b6119f291905b808211156163b0576000815560010161645e56fe4f776e61626c653a206e6577206f776e657220697320746865207a65726f206164647265737363616c6c6572206973206e6f7420746865204e6f64654472697665724175746820636f6e7472616374476f7665726e616e6365526f6c653a2063616c6c6572206973206e6f7420746865207365636f6e64617279206f776e6572476f7665726e616e6365526f6c653a206e657720676f7665726e616e636520697320746865207a65726f2061646472657373536166654d6174683a206d756c7469706c69636174696f6e206f766572666c6f774f776e61626c653a2063616c6c6572206973206e6f7420746865206f776e6572436f6e747261637420696e7374616e63652068617320616c7265616479206265656e20696e697469616c697a6564476f7665726e616e6365526f6c653a20746869732066756e6374696f6e20697320636f6e74726f6c6c656420627920746865206f776e657220616e6420676f7665726e616e636520636f6e74726163746d757374206265206c657373207468616e206f7220657175616c20746f20312e3076616c696461746f72206c6f636b757020706572696f642077696c6c20656e64206561726c69657276616c696461746f7227732064656c65676174696f6e73206c696d6974206973206578636565646564476f7665726e616e6365526f6c653a206e6577207365636f6e64617279206f776e657220697320746865207a65726f20616464726573736c6f636b6564207374616b652069732067726561746572207468616e207468652077686f6c65207374616b65a265627a7a72315820724ec600847b74c92af2746cb2beb4001bf15dc2eea4edaca110861e36b9498f64736f6c63430005110032",
  "linkReferences": {},
  "deployedLinkReferences": {}
}