{
  "_format": "hh-sol-artifact-1",
  "contractName": "Governance",
  "sourceName": "contracts/governance/Governance.sol",
  "abi": [
    {
      "anonymous": false,
      "inputs": [
        {
          "indexed": false,
          "internalType": "uint256",
          "name": "proposalID",
          "type": "uint256"
        }
      ],
      "name": "ProposalCanceled",
      "type": "event"
    },
    {
      "anonymous": false,
      "inputs": [
        {
          "indexed": false,
          "internalType": "uint256",
          "name": "proposalID",
          "type": "uint256"
        }
      ],
      "name": "ProposalCreated",
      "type": "event"
    },
    {
      "anonymous": false,
      "inputs": [
        {
          "indexed": false,
          "internalType": "uint256",
          "name": "proposalID",
          "type": "uint256"
        }
      ],
      "name": "ProposalExecutionExpired",
      "type": "event"
    },
    {
      "anonymous": false,
      "inputs": [
        {
          "indexed": false,
          "internalType": "uint256",
          "name": "proposalID",
          "type": "uint256"
        }
      ],
      "name": "ProposalRejected",
      "type": "event"
    },
    {
      "anonymous": false,
      "inputs": [
        {
          "indexed": false,
          "internalType": "uint256",
          "name": "proposalID",
          "type": "uint256"
        }
      ],
      "name": "ProposalResolved",
      "type": "event"
    },
    {
      "anonymous": false,
      "inputs": [
        {
          "indexed": false,
          "internalType": "uint256",
          "name": "quantity",
          "type": "uint256"
        }
      ],
      "name": "TasksErased",
      "type": "event"
    },
    {
      "anonymous": false,
      "inputs": [
        {
          "indexed": false,
          "internalType": "uint256",
          "name": "startIdx",
          "type": "uint256"
        },
        {
          "indexed": false,
          "internalType": "uint256",
          "name": "endIdx",
          "type": "uint256"
        },
        {
          "indexed": false,
          "internalType": "uint256",
          "name": "handled",
          "type": "uint256"
        }
      ],
      "name": "TasksHandled",
      "type": "event"
    },
    {
      "anonymous": false,
      "inputs": [
        {
          "indexed": false,
          "internalType": "address",
          "name": "voter",
          "type": "address"
        },
        {
          "indexed": false,
          "internalType": "address",
          "name": "delegatedTo",
          "type": "address"
        },
        {
          "indexed": false,
          "internalType": "uint256",
          "name": "proposalID",
          "type": "uint256"
        }
      ],
      "name": "VoteCanceled",
      "type": "event"
    },
    {
      "anonymous": false,
      "inputs": [
        {
          "indexed": false,
          "internalType": "address",
          "name": "voter",
          "type": "address"
        },
        {
          "indexed": false,
          "internalType": "uint256",
          "name": "diff",
          "type": "uint256"
        }
      ],
      "name": "VoteWeightOverridden",
      "type": "event"
    },
    {
      "anonymous": false,
      "inputs": [
        {
          "indexed": false,
          "internalType": "address",
          "name": "voter",
          "type": "address"
        },
        {
          "indexed": false,
          "internalType": "uint256",
          "name": "diff",
          "type": "uint256"
        }
      ],
      "name": "VoteWeightUnOverridden",
      "type": "event"
    },
    {
      "anonymous": false,
      "inputs": [
        {
          "indexed": false,
          "internalType": "address",
          "name": "voter",
          "type": "address"
        },
        {
          "indexed": false,
          "internalType": "address",
          "name": "delegatedTo",
          "type": "address"
        },
        {
          "indexed": false,
          "internalType": "uint256",
          "name": "proposalID",
          "type": "uint256"
        },
        {
          "indexed": false,
          "internalType": "uint256[]",
          "name": "choices",
          "type": "uint256[]"
        },
        {
          "indexed": false,
          "internalType": "uint256",
          "name": "weight",
          "type": "uint256"
        }
      ],
      "name": "Voted",
      "type": "event"
    },
    {
      "constant": true,
      "inputs": [],
      "name": "activeProposals",
      "outputs": [
        {
          "internalType": "uint256",
          "name": "",
          "type": "uint256"
        }
      ],
      "payable": false,
      "stateMutability": "view",
      "type": "function"
    },
    {
      "constant": true,
      "inputs": [
        {
          "internalType": "bytes32",
          "name": "_bytes32",
          "type": "bytes32"
        }
      ],
      "name": "bytes32ToString",
      "outputs": [
        {
          "internalType": "string",
          "name": "",
          "type": "string"
        }
      ],
      "payable": false,
      "stateMutability": "pure",
      "type": "function"
    },
    {
      "constant": true,
      "inputs": [
        {
          "internalType": "uint256",
          "name": "proposalID",
          "type": "uint256"
        }
      ],
      "name": "calculateVotingTally",
      "outputs": [
        {
          "internalType": "bool",
          "name": "proposalResolved",
          "type": "bool"
        },
        {
          "internalType": "uint256",
          "name": "winnerID",
          "type": "uint256"
        },
        {
          "internalType": "uint256",
          "name": "votes",
          "type": "uint256"
        }
      ],
      "payable": false,
      "stateMutability": "view",
      "type": "function"
    },
    {
      "constant": false,
      "inputs": [
        {
          "internalType": "uint256",
          "name": "proposalID",
          "type": "uint256"
        }
      ],
      "name": "cancelProposal",
      "outputs": [],
      "payable": false,
      "stateMutability": "nonpayable",
      "type": "function"
    },
    {
      "constant": false,
      "inputs": [
        {
          "internalType": "address",
          "name": "delegatedTo",
          "type": "address"
        },
        {
          "internalType": "uint256",
          "name": "proposalID",
          "type": "uint256"
        }
      ],
      "name": "cancelVote",
      "outputs": [],
      "payable": false,
      "stateMutability": "nonpayable",
      "type": "function"
    },
    {
      "constant": false,
      "inputs": [
        {
          "internalType": "address",
          "name": "proposalContract",
          "type": "address"
        }
      ],
      "name": "createProposal",
      "outputs": [],
      "payable": true,
      "stateMutability": "payable",
      "type": "function"
    },
    {
      "constant": true,
      "inputs": [],
      "name": "getActiveProposals",
      "outputs": [
        {
          "internalType": "uint256",
          "name": "",
          "type": "uint256"
        }
      ],
      "payable": false,
      "stateMutability": "view",
      "type": "function"
    },
    {
      "constant": true,
      "inputs": [
        {
          "internalType": "uint256",
          "name": "i",
          "type": "uint256"
        }
      ],
      "name": "getTask",
      "outputs": [
        {
          "internalType": "bool",
          "name": "active",
          "type": "bool"
        },
        {
          "internalType": "uint256",
          "name": "assignment",
          "type": "uint256"
        },
        {
          "internalType": "uint256",
          "name": "proposalID",
          "type": "uint256"
        }
      ],
      "payable": false,
      "stateMutability": "view",
      "type": "function"
    },
    {
      "constant": true,
      "inputs": [
        {
          "internalType": "address",
          "name": "from",
          "type": "address"
        },
        {
          "internalType": "address",
          "name": "delegatedTo",
          "type": "address"
        },
        {
          "internalType": "uint256",
          "name": "proposalID",
          "type": "uint256"
        }
      ],
      "name": "getVote",
      "outputs": [
        {
          "internalType": "uint256",
          "name": "weight",
          "type": "uint256"
        },
        {
          "internalType": "uint256[]",
          "name": "choices",
          "type": "uint256[]"
        }
      ],
      "payable": false,
      "stateMutability": "view",
      "type": "function"
    },
    {
      "constant": false,
      "inputs": [
        {
          "internalType": "uint256",
          "name": "startIdx",
          "type": "uint256"
        },
        {
          "internalType": "uint256",
          "name": "quantity",
          "type": "uint256"
        }
      ],
      "name": "handleTasks",
      "outputs": [],
      "payable": false,
      "stateMutability": "nonpayable",
      "type": "function"
    },
    {
      "constant": false,
      "inputs": [
        {
          "internalType": "address",
          "name": "_governableContract",
          "type": "address"
        },
        {
          "internalType": "address",
          "name": "_proposalVerifier",
          "type": "address"
        },
        {
          "internalType": "address",
          "name": "_sfcAddress",
          "type": "address"
        }
      ],
      "name": "initialize",
      "outputs": [],
      "payable": false,
      "stateMutability": "nonpayable",
      "type": "function"
    },
    {
      "constant": true,
      "inputs": [],
      "name": "lastProposalID",
      "outputs": [
        {
          "internalType": "uint256",
          "name": "",
          "type": "uint256"
        }
      ],
      "payable": false,
      "stateMutability": "view",
      "type": "function"
    },
    {
      "constant": true,
      "inputs": [],
      "name": "maxExecutionPeriod",
      "outputs": [
        {
          "internalType": "uint256",
          "name": "",
          "type": "uint256"
        }
      ],
      "payable": false,
      "stateMutability": "pure",
      "type": "function"
    },
    {
      "constant": true,
      "inputs": [],
      "name": "maxOptions",
      "outputs": [
        {
          "internalType": "uint256",
          "name": "",
          "type": "uint256"
        }
      ],
      "payable": false,
      "stateMutability": "pure",
      "type": "function"
    },
    {
      "constant": true,
      "inputs": [
        {
          "internalType": "uint256",
          "name": "totalWeight",
          "type": "uint256"
        },
        {
          "internalType": "uint256",
          "name": "minVotesRatio",
          "type": "uint256"
        }
      ],
      "name": "minVotesAbsolute",
      "outputs": [
        {
          "internalType": "uint256",
          "name": "",
          "type": "uint256"
        }
      ],
      "payable": false,
      "stateMutability": "pure",
      "type": "function"
    },
    {
      "constant": true,
      "inputs": [
        {
          "internalType": "address",
          "name": "",
          "type": "address"
        },
        {
          "internalType": "uint256",
          "name": "",
          "type": "uint256"
        }
      ],
      "name": "overriddenWeight",
      "outputs": [
        {
          "internalType": "uint256",
          "name": "",
          "type": "uint256"
        }
      ],
      "payable": false,
      "stateMutability": "view",
      "type": "function"
    },
    {
      "constant": true,
      "inputs": [],
      "name": "proposalBurntFee",
      "outputs": [
        {
          "internalType": "uint256",
          "name": "",
          "type": "uint256"
        }
      ],
      "payable": false,
      "stateMutability": "pure",
      "type": "function"
    },
    {
      "constant": true,
      "inputs": [],
      "name": "proposalFee",
      "outputs": [
        {
          "internalType": "uint256",
          "name": "",
          "type": "uint256"
        }
      ],
      "payable": false,
      "stateMutability": "pure",
      "type": "function"
    },
    {
      "constant": true,
      "inputs": [
        {
          "internalType": "uint256",
          "name": "proposalID",
          "type": "uint256"
        },
        {
          "internalType": "uint256",
          "name": "optionID",
          "type": "uint256"
        }
      ],
      "name": "proposalOptionState",
      "outputs": [
        {
          "internalType": "uint256",
          "name": "votes",
          "type": "uint256"
        },
        {
          "internalType": "uint256",
          "name": "agreementRatio",
          "type": "uint256"
        },
        {
          "internalType": "uint256",
          "name": "agreement",
          "type": "uint256"
        }
      ],
      "payable": false,
      "stateMutability": "view",
      "type": "function"
    },
    {
      "constant": true,
      "inputs": [
        {
          "internalType": "uint256",
          "name": "proposalID",
          "type": "uint256"
        }
      ],
      "name": "proposalParams",
      "outputs": [
        {
          "internalType": "uint256",
          "name": "pType",
          "type": "uint256"
        },
        {
          "internalType": "enum Proposal.ExecType",
          "name": "executable",
          "type": "uint8"
        },
        {
          "internalType": "uint256",
          "name": "minVotes",
          "type": "uint256"
        },
        {
          "internalType": "uint256",
          "name": "minAgreement",
          "type": "uint256"
        },
        {
          "internalType": "uint256[]",
          "name": "opinionScales",
          "type": "uint256[]"
        },
        {
          "internalType": "bytes32[]",
          "name": "options",
          "type": "bytes32[]"
        },
        {
          "internalType": "address",
          "name": "proposalContract",
          "type": "address"
        },
        {
          "internalType": "uint256",
          "name": "votingStartTime",
          "type": "uint256"
        },
        {
          "internalType": "uint256",
          "name": "votingMinEndTime",
          "type": "uint256"
        },
        {
          "internalType": "uint256",
          "name": "votingMaxEndTime",
          "type": "uint256"
        }
      ],
      "payable": false,
      "stateMutability": "view",
      "type": "function"
    },
    {
      "constant": true,
      "inputs": [
        {
          "internalType": "uint256",
          "name": "proposalID",
          "type": "uint256"
        }
      ],
      "name": "proposalState",
      "outputs": [
        {
          "internalType": "uint256",
          "name": "winnerOptionID",
          "type": "uint256"
        },
        {
          "internalType": "uint256",
          "name": "votes",
          "type": "uint256"
        },
        {
          "internalType": "uint256",
          "name": "status",
          "type": "uint256"
        }
      ],
      "payable": false,
      "stateMutability": "view",
      "type": "function"
    },
    {
      "constant": false,
      "inputs": [
        {
          "internalType": "address",
          "name": "voterAddr",
          "type": "address"
        },
        {
          "internalType": "address",
          "name": "delegatedTo",
          "type": "address"
        },
        {
          "internalType": "uint256",
          "name": "proposalID",
          "type": "uint256"
        }
      ],
      "name": "recountVote",
      "outputs": [],
      "payable": false,
      "stateMutability": "nonpayable",
      "type": "function"
    },
    {
      "constant": true,
      "inputs": [],
      "name": "sfc",
      "outputs": [
        {
          "internalType": "address",
          "name": "",
          "type": "address"
        }
      ],
      "payable": false,
      "stateMutability": "view",
      "type": "function"
    },
    {
      "constant": true,
      "inputs": [],
      "name": "taskErasingReward",
      "outputs": [
        {
          "internalType": "uint256",
          "name": "",
          "type": "uint256"
        }
      ],
      "payable": false,
      "stateMutability": "pure",
      "type": "function"
    },
    {
      "constant": true,
      "inputs": [],
      "name": "taskHandlingReward",
      "outputs": [
        {
          "internalType": "uint256",
          "name": "",
          "type": "uint256"
        }
      ],
      "payable": false,
      "stateMutability": "pure",
      "type": "function"
    },
    {
      "constant": false,
      "inputs": [
        {
          "internalType": "uint256",
          "name": "quantity",
          "type": "uint256"
        }
      ],
      "name": "tasksCleanup",
      "outputs": [],
      "payable": false,
      "stateMutability": "nonpayable",
      "type": "function"
    },
    {
      "constant": true,
      "inputs": [],
      "name": "tasksCount",
      "outputs": [
        {
          "internalType": "uint256",
          "name": "",
          "type": "uint256"
        }
      ],
      "payable": false,
      "stateMutability": "view",
      "type": "function"
    },
    {
      "constant": true,
      "inputs": [],
      "name": "version",
      "outputs": [
        {
          "internalType": "bytes3",
          "name": "",
          "type": "bytes3"
        }
      ],
      "payable": false,
      "stateMutability": "pure",
      "type": "function"
    },
    {
      "constant": false,
      "inputs": [
        {
          "internalType": "address",
          "name": "delegatedTo",
          "type": "address"
        },
        {
          "internalType": "uint256",
          "name": "proposalID",
          "type": "uint256"
        },
        {
          "internalType": "uint256[]",
          "name": "choices",
          "type": "uint256[]"
        }
      ],
      "name": "vote",
      "outputs": [],
      "payable": false,
      "stateMutability": "nonpayable",
      "type": "function"
    }
  ],
  "bytecode": "0x608060405234801561001057600080fd5b50613e80806100206000396000f3fe6080604052600436106101c25760003560e01c80636b2ad7d8116100f7578063bb6a0f0711610095578063cfa1afa311610064578063cfa1afa314610736578063d26331d414610851578063e0a8f6f51461087b578063e3a4d709146108a5576101c2565b8063bb6a0f07146106b2578063c0c53b8b146106c7578063c25c2f261461070c578063c27cabb514610721576101c2565b80639201de55116100d15780639201de551461054b578063a1d373d7146105ea578063aea2ddbd146105ff578063b9e6842b14610614576101c2565b80636b2ad7d8146104d55780638992229f146105055780638a444bd714610536576101c2565b806321edf2eb116101645780635584c4f91161013e5780635584c4f91461041a5780635df170771461042f5780635f89801e146104445780636992150614610492576101c2565b806321edf2eb14610385578063491adeee146103be57806354fd4d50146103e8576101c2565b806314262d79116101a057806314262d7914610246578063172c18b1146102905780631d65e77e146103225780632177d6fc1461034c576101c2565b806307eecaf5146101c7578063109c3d27146101ef5780631191e27014610216575b600080fd5b6101ed600480360360208110156101dd57600080fd5b50356001600160a01b03166108ba565b005b3480156101fb57600080fd5b506102046109d6565b60408051918252519081900360200190f35b34801561022257600080fd5b506102046004803603604081101561023957600080fd5b50803590602001356109dc565b34801561025257600080fd5b506102706004803603602081101561026957600080fd5b50356109fa565b604080519315158452602084019290925282820152519081900360600190f35b34801561029c57600080fd5b506101ed600480360360608110156102b357600080fd5b6001600160a01b03823516916020810135918101906060810160408201356401000000008111156102e357600080fd5b8201836020820111156102f557600080fd5b8035906020019184602083028401116401000000008311171561031757600080fd5b509092509050610a28565b34801561032e57600080fd5b506102706004803603602081101561034557600080fd5b5035610ce7565b34801561035857600080fd5b506102046004803603604081101561036f57600080fd5b506001600160a01b038135169060200135610d4d565b34801561039157600080fd5b506101ed600480360360408110156103a857600080fd5b506001600160a01b038135169060200135610d6a565b3480156103ca57600080fd5b506101ed600480360360208110156103e157600080fd5b5035610f1d565b3480156103f457600080fd5b506103fd611094565b604080516001600160e81b03199092168252519081900360200190f35b34801561042657600080fd5b5061020461109f565b34801561043b57600080fd5b506102046110a5565b34801561045057600080fd5b506104746004803603604081101561046757600080fd5b50803590602001356110aa565b60408051938452602084019290925282820152519081900360600190f35b34801561049e57600080fd5b506101ed600480360360608110156104b557600080fd5b506001600160a01b038135811691602081013590911690604001356110ec565b3480156104e157600080fd5b506101ed600480360360408110156104f857600080fd5b50803590602001356112a0565b34801561051157600080fd5b5061051a6113f3565b604080516001600160a01b039092168252519081900360200190f35b34801561054257600080fd5b50610204611402565b34801561055757600080fd5b506105756004803603602081101561056e57600080fd5b503561140f565b6040805160208082528351818301528351919283929083019185019080838360005b838110156105af578181015183820152602001610597565b50505050905090810190601f1680156105dc5780820380516001836020036101000a031916815260200191505b509250505060405180910390f35b3480156105f657600080fd5b50610204611483565b34801561060b57600080fd5b50610204611489565b34801561062057600080fd5b506106576004803603606081101561063757600080fd5b506001600160a01b03813581169160208101359091169060400135611495565b6040518083815260200180602001828103825283818151815260200191508051906020019060200280838360005b8381101561069d578181015183820152602001610685565b50505050905001935050505060405180910390f35b3480156106be57600080fd5b5061020461154a565b3480156106d357600080fd5b506101ed600480360360608110156106ea57600080fd5b506001600160a01b038135811691602081013582169160409091013516611550565b34801561071857600080fd5b50610204611639565b34801561072d57600080fd5b50610204611640565b34801561074257600080fd5b506107606004803603602081101561075957600080fd5b503561164d565b604051808b81526020018a600281111561077657fe5b60ff1681526020018981526020018881526020018060200180602001876001600160a01b03166001600160a01b03168152602001868152602001858152602001848152602001838103835289818151815260200191508051906020019060200280838360005b838110156107f45781810151838201526020016107dc565b50505050905001838103825288818151815260200191508051906020019060200280838360005b8381101561083357818101518382015260200161081b565b505050509050019c5050505050505050505050505060405180910390f35b34801561085d57600080fd5b506104746004803603602081101561087457600080fd5b5035611819565b34801561088757600080fd5b506101ed6004803603602081101561089e57600080fd5b50356119bc565b3480156108b157600080fd5b50610204611ba5565b60338054600101908190556108cd611640565b3414610920576040805162461bcd60e51b815260206004820152601a60248201527f706169642070726f706f73616c206665652069732077726f6e67000000000000604482015290519081900360640190fd5b60688054600101908190556109359083611bb2565b610940606854612472565b61095061094b611402565b612523565b60685460408051918252517fc2c021f5d73c63c481d336fbbafec58f694fc45095f00b02d2deb8cca59afe079181900360200190a160698054600101905560335481146109d2576040805162461bcd60e51b815260206004820152601f6024820152600080516020613ced833981519152604482015290519081900360640190fd5b5050565b60695481565b60006109e6612550565b828402816109f057fe5b0490505b92915050565b6000818152606c6020526040812081908190610a158161255c565b600c929092015490969195509350915050565b60338054600101908190556001600160a01b038516610a45573394505b6000848152606c6020526040902060058101546001600160a01b0316610a9c5760405162461bcd60e51b8152600401808060200182810382526025815260200180613daa6025913960400191505060405180910390fd5b610aa981600d0154612686565b610af2576040805162461bcd60e51b815260206004820152601560248201527470726f706f73616c2069736e27742061637469766560581b604482015290519081900360640190fd5b6007810154421015610b4b576040805162461bcd60e51b815260206004820152601c60248201527f70726f706f73616c20766f74696e67206861736e277420626567756e00000000604482015290519081900360640190fd5b336000908152606e602090815260408083206001600160a01b038a168452825280832088845290915290205415610bbf576040805162461bcd60e51b8152602060048201526013602482015272766f746520616c72656164792065786973747360681b604482015290519081900360640190fd5b60068101548314610c17576040805162461bcd60e51b815260206004820152601760248201527f77726f6e67206e756d626572206f662063686f69636573000000000000000000604482015290519081900360640190fd5b6000610c5886338988888080602002602001604051908101604052809392919081815260200183836020028082843760009201919091525061268a92505050565b905080610c9a576040805162461bcd60e51b815260206004820152600b60248201526a1e995c9bc81dd95a59da1d60aa1b604482015290519081900360640190fd5b50506033548114610ce0576040805162461bcd60e51b815260206004820152601f6024820152600080516020613ced833981519152604482015290519081900360640190fd5b5050505050565b6000806000610cf4613b0e565b606b8581548110610d0157fe5b600091825260209182902060408051606081018252600393909302909101805460ff16151580845260018201549484018590526002909101549290910182905297919650945092505050565b606d60209081526000928352604080842090915290825290205481565b60338054600101908190556001600160a01b038316610d87573392505b610d8f613b31565b336000908152606e602090815260408083206001600160a01b03881684528252808320868452825291829020825180840184528154815260018201805485518186028101860190965280865291949293858101939290830182828015610e1457602002820191906000526020600020905b815481526020019060010190808311610e00575b505050919092525050815191925050610e64576040805162461bcd60e51b815260206004820152600d60248201526c191bd95cdb89dd08195e1a5cdd609a1b604482015290519081900360640190fd5b6000838152606c60205260409020600d0154610e7f90612686565b610ec8576040805162461bcd60e51b815260206004820152601560248201527470726f706f73616c2069736e27742061637469766560581b604482015290519081900360640190fd5b610ed333858561287d565b506033548114610f18576040805162461bcd60e51b815260206004820152601f6024820152600080516020613ced833981519152604482015290519081900360640190fd5b505050565b603380546001019081905560005b606b5415801590610f3b57508281105b15610f9057606b80546000198101908110610f5257fe5b600091825260209091206003909102015460ff16610f8357606b805490610f7d906000198301613b4b565b50610f88565b610f90565b600101610f2b565b60008111610fd7576040805162461bcd60e51b815260206004820152600f60248201526e1b9bc81d185cdadcc8195c985cd959608a1b604482015290519081900360640190fd5b6040805182815290517fdd64b087b4726a6d5006bfae34869d1044e415cd6fc53054b69619ee337b730d9181900360200190a1336108fc611026611019611489565b849063ffffffff6129d116565b6040518115909202916000818181858888f1935050505015801561104e573d6000803e3d6000fd5b505060335481146109d2576040805162461bcd60e51b815260206004820152601f6024820152600080516020613ced833981519152604482015290519081900360640190fd5b6219981960e91b5b90565b60695490565b600a90565b6000828152606c60209081526040808320848452600a8101909252822080548392839290916110d882612a31565b826001015494509450945050509250925092565b603380546001908101918290556001600160a01b038086166000908152606e60208181526040808420948916808552948252808420888552825280842094845291815281832081528183208784529052902091810154909190611186576040805162461bcd60e51b815260206004820152600d60248201526c191bd95cdb89dd08195e1a5cdd609a1b604482015290519081900360640190fd5b6000848152606c60205260409020600d01546111a190612686565b6111ea576040805162461bcd60e51b815260206004820152601560248201527470726f706f73616c2069736e27742061637469766560581b604482015290519081900360640190fd5b815481546111f9888888612a70565b5083548354838214158061120d5750808314155b611250576040805162461bcd60e51b815260206004820152600f60248201526e1b9bdd1a1a5b99c818da185b99d959608a1b604482015290519081900360640190fd5b505050505050603354811461129a576040805162461bcd60e51b815260206004820152601f6024820152600080516020613ced833981519152604482015290519081900360640190fd5b50505050565b60338054600101908190556000835b606b54811080156112c1575083850181105b156112e3576112cf81612b10565b156112db576001820191505b6001016112af565b81611328576040805162461bcd60e51b815260206004820152601060248201526f1b9bc81d185cdadcc81a185b991b195960821b604482015290519081900360640190fd5b604080518681526020810183905280820184905290517f010b51ac92c2d2e8fe9c84de31065ca878ff8274a1e5e6d31799520b7d16bb589181900360600190a1336108fc611384611377611ba5565b859063ffffffff6129d116565b6040518115909202916000818181858888f193505050501580156113ac573d6000803e3d6000fd5b5050506033548114610f18576040805162461bcd60e51b815260206004820152601f6024820152600080516020613ced833981519152604482015290519081900360640190fd5b606a546001600160a01b031681565b6802b5e3af16b188000090565b60408051602080825281830190925260609182919060208201818038833901905050905060005b602081101561147a5783816020811061144b57fe5b1a60f81b82828151811061145b57fe5b60200101906001600160f81b031916908160001a905350600101611436565b5090505b919050565b60685481565b678ac7230489e8000090565b600060606114a1613b31565b6001600160a01b038087166000908152606e60209081526040808320938916835292815282822087835281529082902082518084018452815481526001820180548551818602810186019096528086529194929385810193929083018282801561152a57602002820191906000526020600020905b815481526020019060010190808311611516575b505050919092525050815160209092015191989197509095505050505050565b606b5490565b600054610100900460ff16806115695750611569612c15565b80611577575060005460ff16155b6115b25760405162461bcd60e51b815260040180806020018281038252602e815260200180613d7c602e913960400191505060405180910390fd5b600054610100900460ff161580156115dd576000805460ff1961ff0019909116610100171660011790555b6115e5612c1b565b606680546001600160a01b038087166001600160a01b03199283161790925560678054868416908316179055606a805492851692909116919091179055801561129a576000805461ff001916905550505050565b6203f48090565b68056bc75e2d6310000090565b600080600080606080600080600080611664613b77565b60008c8152606c602090815260409182902082516101008101909352805483526001810154909183019060ff16600281111561169c57fe5b60028111156116a757fe5b815260200160028201548152602001600382015481526020016004820180548060200260200160405190810160405280929190818152602001828054801561170e57602002820191906000526020600020905b8154815260200190600101908083116116fa575b505050918352505060058201546001600160a01b0316602080830191909152600683018054604080518285028101850182528281529401939283018282801561177657602002820191906000526020600020905b815481526020019060010190808311611762575b50505050508152602001600782016040518060600160405290816000820154815260200160018201548152602001600282015481525050815250509050806000015181602001518260400151836060015184608001518560c001518660a001518760e00151600001518860e00151602001518960e00151604001518595508494509a509a509a509a509a509a509a509a509a509a50509193959799509193959799565b6000806000611826613bcb565b6000858152606c602052604090819020815161018081019092528054608083019081526001820154839190839060a084019060ff16600281111561186657fe5b600281111561187157fe5b81526020016002820154815260200160038201548152602001600482018054806020026020016040519081016040528092919081815260200182805480156118d857602002820191906000526020600020905b8154815260200190600101908083116118c4575b505050918352505060058201546001600160a01b0316602080830191909152600683018054604080518285028101850182528281529401939283018282801561194057602002820191906000526020600020905b81548152602001906001019080831161192c575b50505050508152602001600782016040518060600160405290816000820154815260200160018201548152602001600282015481525050815250508152602001600b8201548152602001600c8201548152602001600d820154815250509050806020015181604001518260600151935093509350509193909250565b60338054600101908190556000828152606c6020526040902060058101546001600160a01b0316611a1e5760405162461bcd60e51b8152600401808060200182810382526025815260200180613daa6025913960400191505060405180910390fd5b611a2b81600d0154612686565b611a74576040805162461bcd60e51b815260206004820152601560248201527470726f706f73616c2069736e27742061637469766560581b604482015290519081900360640190fd5b600c81015415611acb576040805162461bcd60e51b815260206004820152601860248201527f766f74696e672068617320616c726561647920626567756e0000000000000000604482015290519081900360640190fd5b60058101546001600160a01b03163314611b165760405162461bcd60e51b8152600401808060200182810382526027815260200180613d346027913960400191505060405180910390fd5b611b1e612cc2565b600d8201556040805184815290517f789cf55be980739dad1d0699b93b58e806b51c9d96619bfa8fe0a28abaa7b30c9181900360200190a1506069805460001901905560335481146109d2576040805162461bcd60e51b815260206004820152601f6024820152600080516020613ced833981519152604482015290519081900360640190fd5b68022b1c8c1227a0000090565b6001600160a01b038116611c06576040805162461bcd60e51b8152602060048201526016602482015275656d7074792070726f706f73616c206164647265737360501b604482015290519081900360640190fd5b60008190506000816001600160a01b031663216b91166040518163ffffffff1660e01b815260040160206040518083038186803b158015611c4657600080fd5b505afa158015611c5a573d6000803e3d6000fd5b505050506040513d6020811015611c7057600080fd5b5051604080516302c2634360e31b815290519192506000916001600160a01b038516916316131a18916004808301926020929190829003018186803b158015611cb857600080fd5b505afa158015611ccc573d6000803e3d6000fd5b505050506040513d6020811015611ce257600080fd5b505160408051633cc228fd60e01b815290519192506000916001600160a01b03861691633cc228fd916004808301926020929190829003018186803b158015611d2a57600080fd5b505afa158015611d3e573d6000803e3d6000fd5b505050506040513d6020811015611d5457600080fd5b505160408051630375833d60e51b815290519192506000916001600160a01b03871691636eb067a0916004808301926020929190829003018186803b158015611d9c57600080fd5b505afa158015611db0573d6000803e3d6000fd5b505050506040513d6020811015611dc657600080fd5b505160408051636f24f8a160e01b815290519192506060916001600160a01b03881691636f24f8a1916004808301926000929190829003018186803b158015611e0e57600080fd5b505afa158015611e22573d6000803e3d6000fd5b505050506040513d6000823e601f3d908101601f191682016040526020811015611e4b57600080fd5b8101908080516040519392919084640100000000821115611e6b57600080fd5b908301906020820185811115611e8057600080fd5b8251866020820283011164010000000082111715611e9d57600080fd5b82525081516020918201928201910280838360005b83811015611eca578181015183820152602001611eb2565b5050505090500160405250505090506000866001600160a01b0316632019a6086040518163ffffffff1660e01b815260040160206040518083038186803b158015611f1457600080fd5b505afa158015611f28573d6000803e3d6000fd5b505050506040513d6020811015611f3e57600080fd5b505160408051639b3a8a0760e01b815290519192506000916001600160a01b038a1691639b3a8a07916004808301926020929190829003018186803b158015611f8657600080fd5b505afa158015611f9a573d6000803e3d6000fd5b505050506040513d6020811015611fb057600080fd5b50516040805163530f1c9d60e11b815290519192506000916001600160a01b038b169163a61e393a916004808301926020929190829003018186803b158015611ff857600080fd5b505afa15801561200c573d6000803e3d6000fd5b505050506040513d602081101561202257600080fd5b5051604080516308348a1d60e11b815290519192506060916001600160a01b038c1691631069143a916004808301926000929190829003018186803b15801561206a57600080fd5b505afa15801561207e573d6000803e3d6000fd5b505050506040513d6000823e601f3d908101601f1916820160405260208110156120a757600080fd5b81019080805160405193929190846401000000008211156120c757600080fd5b9083019060208201858111156120dc57600080fd5b82518660208202830111640100000000821117156120f957600080fd5b82525081516020918201928201910280838360005b8381101561212657818101518382015260200161210e565b5050505090500160405250505090508051600014156121765760405162461bcd60e51b8152600401808060200182810382526030815260200180613dcf6030913960400191505060405180910390fd5b61217e6110a5565b815111156121c6576040805162461bcd60e51b815260206004820152601060248201526f746f6f206d616e79206f7074696f6e7360801b604482015290519081900360640190fd5b60675460405163f3f4ef7960e01b8152600481018b81526000926001600160a01b03169163f3f4ef79918d918d918d918d918d918d918d918d919060240188600281111561221057fe5b60ff16815260200187815260200186815260200180602001858152602001848152602001838152602001828103825286818151815260200191508051906020019060200280838360005b8381101561227257818101518382015260200161225a565b50505050905001995050505050505050505060206040518083038186803b15801561229c57600080fd5b505afa1580156122b0573d6000803e3d6000fd5b505050506040513d60208110156122c657600080fd5b50519050806123065760405162461bcd60e51b8152600401808060200182810382526027815260200180613d0d6027913960400191505060405180910390fd5b60675460408051631a529da560e31b8152600481018d90526001600160a01b038f811660248301529151919092169163d294ed28916044808301926020929190829003018186803b15801561235a57600080fd5b505afa15801561236e573d6000803e3d6000fd5b505050506040513d602081101561238457600080fd5b50519050806123c45760405162461bcd60e51b8152600401808060200182810382526025815260200180613dff6025913960400191505060405180910390fd5b60008d8152606c602052604090208a8155600180820180548c9260ff19909116908360028111156123f157fe5b02179055506002810189905560038101889055865161241990600483019060208a0190613bf9565b506005810180546001600160a01b0319166001600160a01b038f1617905560078101869055600881018590556009810184905582516124619060068301906020860190613bf9565b505050505050505050505050505050565b60408051606081018252600180825260208201818152928201938452606b8054918201815560005290517fbd43cb8ece8cd1863bcd6082d65c5b0d25665b1ce17980f0da43c0ed545f98b46003909202918201805460ff191691151591909117905590517fbd43cb8ece8cd1863bcd6082d65c5b0d25665b1ce17980f0da43c0ed545f98b582015590517fbd43cb8ece8cd1863bcd6082d65c5b0d25665b1ce17980f0da43c0ed545f98b690910155565b60405160009082156108fc0290839083818181858288f193505050501580156109d2573d6000803e3d6000fd5b670de0b6b3a764000090565b60008060006125e8606660009054906101000a90046001600160a01b03166001600160a01b03166306aba0e16040518163ffffffff1660e01b815260040160206040518083038186803b1580156125b257600080fd5b505afa1580156125c6573d6000803e3d6000fd5b505050506040513d60208110156125dc57600080fd5b505160028601546109dc565b6006850154600c86015491925060009183111561260d57600094509250612681915050565b60005b6006870154811015612671576000818152600a88016020526040812082919061263890612a31565b60038a015490915081101561264e575050612669565b84158061265a57508481115b15612666578094508293505b50505b600101612610565b5060068601548114159450925050505b915091565b1590565b6000836001600160a01b0316836001600160a01b031614156127865760665460408051636833935760e01b81526001600160a01b03878116600483015291516000939290921691636833935791602480820192602092909190829003018186803b1580156126f757600080fd5b505afa15801561270b573d6000803e3d6000fd5b505050506040513d602081101561272157600080fd5b50516001600160a01b0386166000908152606d602090815260408083208a84529091529020549091508082111561275c578082039150612761565b600091505b8161277157600092505050612875565b61277e8787888786612cc7565b509050612875565b6001600160a01b0383166000908152606e602090815260408083208252808320888452909152902060010154156127c4576127c2838487612a70565b505b6066546040805163a481732160e01b81526001600160a01b03878116600483015286811660248301529151600093929092169163a481732191604480820192602092909190829003018186803b15801561281d57600080fd5b505afa158015612831573d6000803e3d6000fd5b505050506040513d602081101561284757600080fd5b50519050612856848783612df0565b80612865576000915050612875565b6128728686868685612cc7565b90505b949350505050565b6001600160a01b038084166000908152606e60209081526040808320938616835292815282822084835290522080546128b65750610f18565b826001600160a01b0316846001600160a01b0316146128de576128de83838360000154612f2a565b61293f828260010180548060200260200160405190810160405280929190818152602001828054801561293057602002820191906000526020600020905b81548152602001906001019080831161291c575b50505050508360000154613064565b6001600160a01b038085166000908152606e60209081526040808320938716835292815282822085835290529081208181559061297f6001830182613c44565b5050604080516001600160a01b0380871682528516602082015280820184905290517f666685d133047310e2a2e8c4f6794b6dccb4e9ad9c6903ac753fb10d8918b6499181900360600190a150505050565b6000826129e0575060006109f4565b828202828482816129ed57fe5b0414612a2a5760405162461bcd60e51b8152600401808060200182810382526021815260200180613d5b6021913960400191505060405180910390fd5b9392505050565b8054600090612a425750600061147e565b81546109f490612a64612a53612550565b60018601549063ffffffff6129d116565b9063ffffffff6130e016565b6001600160a01b038084166000908152606e6020908152604080832093861683529281528282208483528152828220600101805484518184028101840190955280855292936060939092830182828015612ae957602002820191906000526020600020905b815481526020019060010190808311612ad5575b50505050509050612afb85858561287d565b612b078386868461268a565b95945050505050565b6000612b506040518060400160405280601881526020017f476f7665726e616e63653a2068616e646c655461736b28290000000000000000815250613122565b606b548210612b9d576040805162461bcd60e51b81526020600482015260146024820152730d2dcc6dee4e4cac6e840e8c2e6d640d2dcc8caf60631b604482015290519081900360640190fd5b6000606b8381548110612bac57fe5b60009182526020909120600390910201805490915060ff16612bd257600091505061147e565b612bfe606b8481548110612be257fe5b90600052602060002090600302016002015482600101546131c8565b91508115612c0f57805460ff191681555b50919050565b303b1590565b600054610100900460ff1680612c345750612c34612c15565b80612c42575060005460ff16155b612c7d5760405162461bcd60e51b815260040180806020018281038252602e815260200180613d7c602e913960400191505060405180910390fd5b600054610100900460ff16158015612ca8576000805460ff1961ff0019909116610100171660011790555b60016033558015612cbf576000805461ff00191690555b50565b600490565b60408051808201825282815260208082018581526001600160a01b038089166000908152606e845285812091891681529083528481208a82528352939093208251815592518051929392612d219260018501920190613bf9565b50905050612d3085838361323a565b7f6e5f0f6e0ce2bdcdb0a82952fc6eb90c4c22f0b6228e4619b5dc2118e1166a12848487858560405180866001600160a01b03166001600160a01b03168152602001856001600160a01b03166001600160a01b0316815260200184815260200180602001838152602001828103825284818151815260200191508051906020019060200280838360005b83811015612dd2578181015183820152602001612dba565b50505050905001965050505050505060405180910390a15050505050565b6001600160a01b0383166000908152606d60209081526040808320858452909152902054612e24818363ffffffff6132b616565b6001600160a01b0385166000818152606d602090815260408083208884528252808320859055928252606e8152828220815282822087835290522060018101549192509015612edf578054612e7f908463ffffffff61331016565b815560018101805460408051602080840282018101909252828152612edf9388939192909190830182828015612ed457602002820191906000526020600020905b815481526020019060010190808311612ec0575b505050505085613064565b604080516001600160a01b03871681526020810185905281517f68fe85c5f71a2900fddf574935a27d4f1cb28af34d4fa2742b202684b45d3d14929181900390910190a15050505050565b6001600160a01b0383166000908152606d60209081526040808320858452909152902054612f5e818363ffffffff61331016565b6001600160a01b0385166000818152606d602090815260408083208884528252808320859055928252606e8152828220815282822087835290522060018101549192509015613019578054612fb9908463ffffffff6132b616565b815560018101805460408051602080840282018101909252828152613019938893919290919083018282801561300e57602002820191906000526020600020905b815481526020019060010190808311612ffa575b50505050508561323a565b604080516001600160a01b03871681526020810185905281517f11d7313426c62d856bd4ea20cdef8b93af4b40d2ea5b8f6f962fc705dbdcdbef929181900390910190a15050505050565b6000838152606c60205260409020600c810154613087908363ffffffff61331016565b600c82015560005b6006820154811015610ce0576130d88482815181106130aa57fe5b6020908102919091018101516000848152600a8601909252604090912090856004860163ffffffff61335216565b60010161308f565b6000612a2a83836040518060400160405280601a81526020017f536166654d6174683a206469766973696f6e206279207a65726f00000000000081525061340a565b612cbf816040516024018080602001828103825283818151815260200191508051906020019080838360005b8381101561316657818101518382015260200161314e565b50505050905090810190601f1680156131935780820380516001836020036101000a031916815260200191505b5060408051601f198184030181529190526020810180516001600160e01b031663104c13eb60e21b17905292506134ac915050565b60006131eb604051806060016040528060238152602001613cca60239139613122565b6000838152606c60205260409020600d81015461320790612686565b6132155760019150506109f4565b60018314156132305761322884826134cd565b9150506109f4565b5060009392505050565b6000838152606c60205260409020600c81015461325d908363ffffffff6132b616565b600c82015560005b6006820154811015610ce0576132ae84828151811061328057fe5b6020908102919091018101516000848152600a8601909252604090912090856004860163ffffffff61370e16565b600101613265565b600082820183811015612a2a576040805162461bcd60e51b815260206004820152601b60248201527f536166654d6174683a206164646974696f6e206f766572666c6f770000000000604482015290519081900360640190fd5b6000612a2a83836040518060400160405280601e81526020017f536166654d6174683a207375627472616374696f6e206f766572666c6f7700008152506137a7565b8054831061339a576040805162461bcd60e51b815260206004820152601060248201526f1ddc9bdb99c81bdc1a5b9a5bdb88125160821b604482015290519081900360640190fd5b60008184815481106133a857fe5b60009182526020909120015485549091506133c9908463ffffffff61331016565b85556133fb6133ea6133da84613801565b612a64868563ffffffff6129d116565b60018701549063ffffffff61331016565b85600101819055505050505050565b600081836134965760405162461bcd60e51b81526004018080602001828103825283818151815260200191508051906020019080838360005b8381101561345b578181015183820152602001613443565b50505050905090810190601f1680156134885780820380516001836020036101000a031916815260200191505b509250505060405180910390fd5b5060008385816134a257fe5b0495945050505050565b80516a636f6e736f6c652e6c6f67602083016000808483855afa5050505050565b600061350d6040518060400160405280601e81526020017f476f7665726e616e63653a2068616e646c65566f74696e675461736b28290000815250613122565b6000613596606660009054906101000a90046001600160a01b03166001600160a01b03166306aba0e16040518163ffffffff1660e01b815260040160206040518083038186803b15801561356057600080fd5b505afa158015613574573d6000803e3d6000fd5b505050506040513d602081101561358a57600080fd5b505160028501546109dc565b60098401546008850154919250429081101591600091108015906135be57508285600c015410155b9050811580156135cc575080155b156135dd57600093505050506109f4565b6000806135e98761255c565b9150915081156136b5576000806136008984613828565b91509150816136195760009750505050505050506109f4565b8061366d57613626613aff565b600d8a0155604080518b815290517f663674d96fd5c2a954bf75ad2e6795f9c9701eb687a7a8f3297c7a299467c9419181900360200190a1606980546000190190556136ae565b613675613b04565b600d8a0155604080518b815290517fe8365dd25802fb5113a4ebd6fbe5fee885b5ea470b6b1467f3f4df69e490ed879181900360200190a15b5050613700565b6136bd613b09565b600d8801556040805189815290517fd92fba445edb3153b571e6df782d7a66fd0ce668519273670820ee3a86da0ef49181900360200190a1606980546000190190555b506001979650505050505050565b80548310613756576040805162461bcd60e51b815260206004820152601060248201526f1ddc9bdb99c81bdc1a5b9a5bdb88125160821b604482015290519081900360640190fd5b600081848154811061376457fe5b6000918252602090912001548554909150613785908463ffffffff6132b616565b85556133fb6137966133da84613801565b60018701549063ffffffff6132b616565b600081848411156137f95760405162461bcd60e51b815260206004820181815283516024840152835190928392604490910191908501908083836000831561345b578181015183820152602001613443565b505050900390565b80546000908290600019810190811061381657fe5b90600052602060002001549050919050565b6000806138696040518060400160405280601d81526020017f476f7665726e616e63653a206578656375746550726f706f73616c2829000000815250613122565b600060018086015460ff16600281111561387f57fe5b148061389d57506002600186015460ff16600281111561389b57fe5b145b9050806138b257600160009250925050613af8565b600b850184905560006138c3611639565b6009870154014211905080156138e157600180935093505050613af8565b60058601546001600160a01b0316600060606001808a015460ff16600281111561390757fe5b14156139ea576040805160248082018b905282518083039091018152604490910182526020810180516001600160e01b03166363012d0160e01b178152915181516001600160a01b0387169382918083835b602083106139785780518252601f199092019160209182019101613959565b6001836020036101000a0380198251168184511680821785525050505050509050019150506000604051808303816000865af19150503d80600081146139da576040519150601f19603f3d011682016040523d82523d6000602084013e6139df565b606091505b509092509050613aed565b613a0b604051806060016040528060288152602001613e2460289139613122565b604080516001600160a01b0385166024820181905260448083018c905283518084039091018152606490920183526020820180516001600160e01b031663aa3daba960e01b17815292518251919390918291908083835b60208310613a815780518252601f199092019160209182019101613a62565b6001836020036101000a038019825116818451168082178552505050505050905001915050600060405180830381855af49150503d8060008114613ae1576040519150601f19603f3d011682016040523d82523d6000602084013e613ae6565b606091505b5090925090505b509450600093505050505b9250929050565b600190565b600890565b600290565b604051806060016040528060001515815260200160008152602001600081525090565b604051806040016040528060008152602001606081525090565b815481835581811115610f1857600302816003028360005260206000209182019101610f189190613c62565b60408051610100810190915260008082526020820190815260200160008152602001600081526020016060815260200160006001600160a01b0316815260200160608152602001613bc6613c8e565b905290565b6040518060800160405280613bde613b77565b81526020016000815260200160008152602001600081525090565b828054828255906000526020600020908101928215613c34579160200282015b82811115613c34578251825591602001919060010190613c19565b50613c40929150613caf565b5090565b5080546000825590600052602060002090810190612cbf9190613caf565b61109c91905b80821115613c4057805460ff191681556000600182018190556002820155600301613c68565b60405180606001604052806000815260200160008152602001600081525090565b61109c91905b80821115613c405760008155600101613cb556fe476f7665726e616e63653a2068616e646c655461736b41737369676e6d656e747328295265656e7472616e637947756172643a207265656e7472616e742063616c6c0070726f706f73616c20706172616d6574657273206661696c656420766572696669636174696f6e6d7573742062652073656e742066726f6d207468652070726f706f73616c20636f6e7472616374536166654d6174683a206d756c7469706c69636174696f6e206f766572666c6f77436f6e747261637420696e7374616e63652068617320616c7265616479206265656e20696e697469616c697a656470726f706f73616c2077697468206120676976656e20494420646f65736e7420657869737470726f706f73616c206f7074696f6e732061726520656d707479202d206e6f7468696e6720746f20766f746520666f7270726f706f73616c20636f6e7472616374206661696c656420766572696669636174696f6e476f7665726e616e63653a206578656375746550726f706f73616c2064656c656761746563616c6ca265627a7a723158205c519b06e939e8bdbaee6f70f788cd55db74117e1c49fd942cfda8fb7b3c764e64736f6c63430005110032",
  "linkReferences": {},
  "deployedLinkReferences": {}
}