{
  "_format": "hh-sol-artifact-1",
  "contractName": "GovernanceRole",
  "sourceName": "contracts/ownership/GovernanceRole.sol",
  "abi": [
    {
      "anonymous": false,
      "inputs": [
        {
          "indexed": true,
          "internalType": "address",
          "name": "previousGovernance",
          "type": "address"
        },
        {
          "indexed": true,
          "internalType": "address",
          "name": "newGovernance",
          "type": "address"
        }
      ],
      "name": "GovernanceTransferred",
      "type": "event"
    },
    {
      "anonymous": false,
      "inputs": [
        {
          "indexed": true,
          "internalType": "address",
          "name": "previousOwner",
          "type": "address"
        },
        {
          "indexed": true,
          "internalType": "address",
          "name": "newOwner",
          "type": "address"
        }
      ],
      "name": "OwnershipTransferred",
      "type": "event"
    },
    {
      "constant": true,
      "inputs": [],
      "name": "governance",
      "outputs": [
        {
          "internalType": "address",
          "name": "",
          "type": "address"
        }
      ],
      "payable": false,
      "stateMutability": "view",
      "type": "function"
    },
    {
      "constant": true,
      "inputs": [],
      "name": "isGovernance",
      "outputs": [
        {
          "internalType": "bool",
          "name": "",
          "type": "bool"
        }
      ],
      "payable": false,
      "stateMutability": "view",
      "type": "function"
    },
    {
      "constant": true,
      "inputs": [],
      "name": "isOwner",
      "outputs": [
        {
          "internalType": "bool",
          "name": "",
          "type": "bool"
        }
      ],
      "payable": false,
      "stateMutability": "view",
      "type": "function"
    },
    {
      "constant": true,
      "inputs": [],
      "name": "owner",
      "outputs": [
        {
          "internalType": "address",
          "name": "",
          "type": "address"
        }
      ],
      "payable": false,
      "stateMutability": "view",
      "type": "function"
    },
    {
      "constant": false,
      "inputs": [
        {
          "internalType": "address",
          "name": "newGovernance",
          "type": "address"
        }
      ],
      "name": "transferGovernance",
      "outputs": [],
      "payable": false,
      "stateMutability": "nonpayable",
      "type": "function"
    },
    {
      "constant": false,
      "inputs": [
        {
          "internalType": "address",
          "name": "newOwner",
          "type": "address"
        }
      ],
      "name": "transferOwnership",
      "outputs": [],
      "payable": false,
      "stateMutability": "nonpayable",
      "type": "function"
    }
  ],
  "bytecode": "0x608060405234801561001057600080fd5b50610423806100206000396000f3fe608060405234801561001057600080fd5b50600436106100625760003560e01c80635aa6e675146100675780638da5cb5b1461008b5780638f32d59b14610093578063d38bfff4146100af578063db3a4bc6146100d7578063f2fde38b146100df575b600080fd5b61006f610105565b604080516001600160a01b039092168252519081900360200190f35b61006f610114565b61009b610123565b604080519115158252519081900360200190f35b6100d5600480360360208110156100c557600080fd5b50356001600160a01b0316610134565b005b61009b610191565b6100d5600480360360208110156100f557600080fd5b50356001600160a01b03166101a2565b6033546001600160a01b031690565b6034546001600160a01b031690565b6034546001600160a01b0316331490565b61013c610191565b8061014a575061014a610123565b6101855760405162461bcd60e51b815260040180806020018281038252605081526020018061039f6050913960600191505060405180910390fd5b61018e81610204565b50565b6033546001600160a01b0316331490565b6101aa610123565b6101fb576040805162461bcd60e51b815260206004820181905260248201527f4f776e61626c653a2063616c6c6572206973206e6f7420746865206f776e6572604482015290519081900360640190fd5b61018e816102a5565b6001600160a01b0381166102495760405162461bcd60e51b815260040180806020018281038252603281526020018061036d6032913960400191505060405180910390fd5b6033546040516001600160a01b038084169216907f5f56bee8cffbe9a78652a74a60705edede02af10b0bbb888ca44b79a0d42ce8090600090a3603380546001600160a01b0319166001600160a01b0392909216919091179055565b6001600160a01b0381166102ea5760405162461bcd60e51b81526004018080602001828103825260268152602001806103476026913960400191505060405180910390fd5b6034546040516001600160a01b038084169216907f8be0079c531659141344cd1fd0a4f28419497f9722a3daafe3b4186f6b6457e090600090a3603480546001600160a01b0319166001600160a01b039290921691909117905556fe4f776e61626c653a206e6577206f776e657220697320746865207a65726f2061646472657373476f7665726e616e6365526f6c653a206e657720676f7665726e616e636520697320746865207a65726f2061646472657373476f7665726e616e6365526f6c653a20746869732066756e6374696f6e20697320636f6e74726f6c6c656420627920746865206f776e657220616e6420676f7665726e616e636520636f6e7472616374a265627a7a723158202150793b469e3b5b0eb82c37be2b0a4b4c22c151eae34d15751034f31da31af964736f6c63430005110032",
  "linkReferences": {},
  "deployedLinkReferences": {}
}