{
  "_format": "hh-sol-artifact-1",
  "contractName": "GovernanceRole",
  "sourceName": "contracts/ownership/GovernanceRole.sol",
  "abi": [
    {
      "anonymous": false,
      "inputs": [
        {
          "indexed": true,
          "internalType": "address",
          "name": "previousGovernance",
          "type": "address"
        },
        {
          "indexed": true,
          "internalType": "address",
          "name": "newGovernance",
          "type": "address"
        }
      ],
      "name": "GovernanceTransferred",
      "type": "event"
    },
    {
      "anonymous": false,
      "inputs": [
        {
          "indexed": true,
          "internalType": "address",
          "name": "previousSecondaryOwner",
          "type": "address"
        },
        {
          "indexed": true,
          "internalType": "address",
          "name": "newSecondaryOwner",
          "type": "address"
        }
      ],
      "name": "SecondaryOwnershipTransferred",
      "type": "event"
    },
    {
      "constant": true,
      "inputs": [],
      "name": "governance",
      "outputs": [
        {
          "internalType": "address",
          "name": "",
          "type": "address"
        }
      ],
      "payable": false,
      "stateMutability": "view",
      "type": "function"
    },
    {
      "constant": true,
      "inputs": [],
      "name": "isGovernance",
      "outputs": [
        {
          "internalType": "bool",
          "name": "",
          "type": "bool"
        }
      ],
      "payable": false,
      "stateMutability": "view",
      "type": "function"
    },
    {
      "constant": true,
      "inputs": [],
      "name": "isSecondaryOwner",
      "outputs": [
        {
          "internalType": "bool",
          "name": "",
          "type": "bool"
        }
      ],
      "payable": false,
      "stateMutability": "view",
      "type": "function"
    },
    {
      "constant": true,
      "inputs": [],
      "name": "secondaryOwner",
      "outputs": [
        {
          "internalType": "address",
          "name": "",
          "type": "address"
        }
      ],
      "payable": false,
      "stateMutability": "view",
      "type": "function"
    },
    {
      "constant": false,
      "inputs": [
        {
          "internalType": "address",
          "name": "newGovernance",
          "type": "address"
        }
      ],
      "name": "transferGovernance",
      "outputs": [],
      "payable": false,
      "stateMutability": "nonpayable",
      "type": "function"
    },
    {
      "constant": false,
      "inputs": [
        {
          "internalType": "address",
          "name": "newSecondaryOwner",
          "type": "address"
        }
      ],
      "name": "transferSecondaryOwnership",
      "outputs": [],
      "payable": false,
      "stateMutability": "nonpayable",
      "type": "function"
    }
  ],
  "bytecode": "0x608060405234801561001057600080fd5b5061044f806100206000396000f3fe608060405234801561001057600080fd5b50600436106100625760003560e01c806336a5a231146100675780635aa6e6751461008b57806363bafc5614610093578063bc4a3cc0146100bb578063d38bfff4146100d7578063db3a4bc6146100fd575b600080fd5b61006f610105565b604080516001600160a01b039092168252519081900360200190f35b61006f610114565b6100b9600480360360208110156100a957600080fd5b50356001600160a01b0316610123565b005b6100c3610172565b604080519115158252519081900360200190f35b6100b9600480360360208110156100ed57600080fd5b50356001600160a01b0316610183565b6100c36101dd565b6034546001600160a01b031690565b6033546001600160a01b031690565b61012b610172565b6101665760405162461bcd60e51b81526004018080602001828103825260318152602001806103316031913960400191505060405180910390fd5b61016f816101ee565b50565b6034546001600160a01b0316331490565b61018b6101dd565b806101995750610199610172565b6101d45760405162461bcd60e51b81526004018080602001828103825260508152602001806103946050913960600191505060405180910390fd5b61016f8161028f565b6033546001600160a01b0316331490565b6001600160a01b0381166102335760405162461bcd60e51b81526004018080602001828103825260378152602001806103e46037913960400191505060405180910390fd5b6034546040516001600160a01b038084169216907fd91e5ba07efb2e532a3d502f5fb4451cf8fe4006f3b90283d8f2f51a06e5358c90600090a3603480546001600160a01b0319166001600160a01b0392909216919091179055565b6001600160a01b0381166102d45760405162461bcd60e51b81526004018080602001828103825260328152602001806103626032913960400191505060405180910390fd5b6033546040516001600160a01b038084169216907f5f56bee8cffbe9a78652a74a60705edede02af10b0bbb888ca44b79a0d42ce8090600090a3603380546001600160a01b0319166001600160a01b039290921691909117905556fe476f7665726e616e6365526f6c653a2063616c6c6572206973206e6f7420746865207365636f6e64617279206f776e6572476f7665726e616e6365526f6c653a206e657720676f7665726e616e636520697320746865207a65726f2061646472657373476f7665726e616e6365526f6c653a20746869732066756e6374696f6e20697320636f6e74726f6c6c656420627920746865206f776e657220616e6420676f7665726e616e636520636f6e7472616374476f7665726e616e6365526f6c653a206e6577207365636f6e64617279206f776e657220697320746865207a65726f2061646472657373a265627a7a723158203b100c2487c378081e690194af58179a3ca62907753963b7bab4fbb3cc0bb40164736f6c63430005110032",
  "linkReferences": {},
  "deployedLinkReferences": {}
}