{
  "_format": "hh-sol-artifact-1",
  "contractName": "UnitTestSFC",
  "sourceName": "contracts/test/UnitTestSFC.sol",
  "abi": [
    {
      "anonymous": false,
      "inputs": [
        {
          "indexed": true,
          "internalType": "uint256",
          "name": "validatorID",
          "type": "uint256"
        },
        {
          "indexed": false,
          "internalType": "uint256",
          "name": "status",
          "type": "uint256"
        }
      ],
      "name": "ChangedValidatorStatus",
      "type": "event"
    },
    {
      "anonymous": false,
      "inputs": [
        {
          "indexed": true,
          "internalType": "address",
          "name": "delegator",
          "type": "address"
        },
        {
          "indexed": true,
          "internalType": "uint256",
          "name": "toValidatorID",
          "type": "uint256"
        },
        {
          "indexed": false,
          "internalType": "uint256",
          "name": "lockupExtraReward",
          "type": "uint256"
        },
        {
          "indexed": false,
          "internalType": "uint256",
          "name": "lockupBaseReward",
          "type": "uint256"
        },
        {
          "indexed": false,
          "internalType": "uint256",
          "name": "unlockedReward",
          "type": "uint256"
        }
      ],
      "name": "ClaimedRewards",
      "type": "event"
    },
    {
      "anonymous": false,
      "inputs": [
        {
          "indexed": true,
          "internalType": "uint256",
          "name": "validatorID",
          "type": "uint256"
        },
        {
          "indexed": true,
          "internalType": "address",
          "name": "auth",
          "type": "address"
        },
        {
          "indexed": false,
          "internalType": "uint256",
          "name": "createdEpoch",
          "type": "uint256"
        },
        {
          "indexed": false,
          "internalType": "uint256",
          "name": "createdTime",
          "type": "uint256"
        }
      ],
      "name": "CreatedValidator",
      "type": "event"
    },
    {
      "anonymous": false,
      "inputs": [
        {
          "indexed": true,
          "internalType": "uint256",
          "name": "validatorID",
          "type": "uint256"
        },
        {
          "indexed": false,
          "internalType": "uint256",
          "name": "deactivatedEpoch",
          "type": "uint256"
        },
        {
          "indexed": false,
          "internalType": "uint256",
          "name": "deactivatedTime",
          "type": "uint256"
        }
      ],
      "name": "DeactivatedValidator",
      "type": "event"
    },
    {
      "anonymous": false,
      "inputs": [
        {
          "indexed": true,
          "internalType": "address",
          "name": "delegator",
          "type": "address"
        },
        {
          "indexed": true,
          "internalType": "uint256",
          "name": "toValidatorID",
          "type": "uint256"
        },
        {
          "indexed": false,
          "internalType": "uint256",
          "name": "amount",
          "type": "uint256"
        }
      ],
      "name": "Delegated",
      "type": "event"
    },
    {
      "anonymous": false,
      "inputs": [
        {
          "indexed": true,
          "internalType": "address",
          "name": "previousGovernance",
          "type": "address"
        },
        {
          "indexed": true,
          "internalType": "address",
          "name": "newGovernance",
          "type": "address"
        }
      ],
      "name": "GovernanceTransferred",
      "type": "event"
    },
    {
      "anonymous": false,
      "inputs": [
        {
          "indexed": true,
          "internalType": "address",
          "name": "receiver",
          "type": "address"
        },
        {
          "indexed": false,
          "internalType": "uint256",
          "name": "amount",
          "type": "uint256"
        },
        {
          "indexed": false,
          "internalType": "string",
          "name": "justification",
          "type": "string"
        }
      ],
      "name": "InflatedFTM",
      "type": "event"
    },
    {
      "anonymous": false,
      "inputs": [
        {
          "indexed": true,
          "internalType": "address",
          "name": "delegator",
          "type": "address"
        },
        {
          "indexed": true,
          "internalType": "uint256",
          "name": "validatorID",
          "type": "uint256"
        },
        {
          "indexed": false,
          "internalType": "uint256",
          "name": "duration",
          "type": "uint256"
        },
        {
          "indexed": false,
          "internalType": "uint256",
          "name": "amount",
          "type": "uint256"
        }
      ],
      "name": "LockedUpStake",
      "type": "event"
    },
    {
      "anonymous": false,
      "inputs": [
        {
          "indexed": true,
          "internalType": "address",
          "name": "previousOwner",
          "type": "address"
        },
        {
          "indexed": true,
          "internalType": "address",
          "name": "newOwner",
          "type": "address"
        }
      ],
      "name": "OwnershipTransferred",
      "type": "event"
    },
    {
      "anonymous": false,
      "inputs": [
        {
          "indexed": true,
          "internalType": "address",
          "name": "delegator",
          "type": "address"
        },
        {
          "indexed": true,
          "internalType": "uint256",
          "name": "validatorID",
          "type": "uint256"
        },
        {
          "indexed": false,
          "internalType": "uint256",
          "name": "amount",
          "type": "uint256"
        }
      ],
      "name": "RefundedSlashedLegacyDelegation",
      "type": "event"
    },
    {
      "anonymous": false,
      "inputs": [
        {
          "indexed": true,
          "internalType": "address",
          "name": "delegator",
          "type": "address"
        },
        {
          "indexed": true,
          "internalType": "uint256",
          "name": "toValidatorID",
          "type": "uint256"
        },
        {
          "indexed": false,
          "internalType": "uint256",
          "name": "lockupExtraReward",
          "type": "uint256"
        },
        {
          "indexed": false,
          "internalType": "uint256",
          "name": "lockupBaseReward",
          "type": "uint256"
        },
        {
          "indexed": false,
          "internalType": "uint256",
          "name": "unlockedReward",
          "type": "uint256"
        }
      ],
      "name": "RestakedRewards",
      "type": "event"
    },
    {
      "anonymous": false,
      "inputs": [
        {
          "indexed": true,
          "internalType": "address",
          "name": "previousSecondaryOwner",
          "type": "address"
        },
        {
          "indexed": true,
          "internalType": "address",
          "name": "newSecondaryOwner",
          "type": "address"
        }
      ],
      "name": "SecondaryOwnershipTransferred",
      "type": "event"
    },
    {
      "anonymous": false,
      "inputs": [
        {
          "indexed": true,
          "internalType": "address",
          "name": "delegator",
          "type": "address"
        },
        {
          "indexed": true,
          "internalType": "uint256",
          "name": "toValidatorID",
          "type": "uint256"
        },
        {
          "indexed": true,
          "internalType": "uint256",
          "name": "wrID",
          "type": "uint256"
        },
        {
          "indexed": false,
          "internalType": "uint256",
          "name": "amount",
          "type": "uint256"
        }
      ],
      "name": "Undelegated",
      "type": "event"
    },
    {
      "anonymous": false,
      "inputs": [
        {
          "indexed": true,
          "internalType": "address",
          "name": "delegator",
          "type": "address"
        },
        {
          "indexed": true,
          "internalType": "uint256",
          "name": "validatorID",
          "type": "uint256"
        },
        {
          "indexed": false,
          "internalType": "uint256",
          "name": "amount",
          "type": "uint256"
        },
        {
          "indexed": false,
          "internalType": "uint256",
          "name": "penalty",
          "type": "uint256"
        }
      ],
      "name": "UnlockedStake",
      "type": "event"
    },
    {
      "anonymous": false,
      "inputs": [
        {
          "indexed": false,
          "internalType": "uint256",
          "name": "value",
          "type": "uint256"
        }
      ],
      "name": "UpdatedBaseRewardPerSec",
      "type": "event"
    },
    {
      "anonymous": false,
      "inputs": [
        {
          "indexed": false,
          "internalType": "uint256",
          "name": "contractCommission",
          "type": "uint256"
        }
      ],
      "name": "UpdatedContractCommission",
      "type": "event"
    },
    {
      "anonymous": false,
      "inputs": [
        {
          "indexed": false,
          "internalType": "uint256",
          "name": "maxDelegationRatio",
          "type": "uint256"
        }
      ],
      "name": "UpdatedMaxDelegationRatio",
      "type": "event"
    },
    {
      "anonymous": false,
      "inputs": [
        {
          "indexed": false,
          "internalType": "uint256",
          "name": "maxLockupDuration",
          "type": "uint256"
        }
      ],
      "name": "UpdatedMaxLockupDuration",
      "type": "event"
    },
    {
      "anonymous": false,
      "inputs": [
        {
          "indexed": false,
          "internalType": "uint256",
          "name": "minLockupDuration",
          "type": "uint256"
        }
      ],
      "name": "UpdatedMinLockupDuration",
      "type": "event"
    },
    {
      "anonymous": false,
      "inputs": [
        {
          "indexed": false,
          "internalType": "uint256",
          "name": "minSelfStake",
          "type": "uint256"
        }
      ],
      "name": "UpdatedMinSelfStake",
      "type": "event"
    },
    {
      "anonymous": false,
      "inputs": [
        {
          "indexed": false,
          "internalType": "uint256",
          "name": "blocksNum",
          "type": "uint256"
        },
        {
          "indexed": false,
          "internalType": "uint256",
          "name": "period",
          "type": "uint256"
        }
      ],
      "name": "UpdatedOfflinePenaltyThreshold",
      "type": "event"
    },
    {
      "anonymous": false,
      "inputs": [
        {
          "indexed": true,
          "internalType": "uint256",
          "name": "validatorID",
          "type": "uint256"
        },
        {
          "indexed": false,
          "internalType": "uint256",
          "name": "refundRatio",
          "type": "uint256"
        }
      ],
      "name": "UpdatedSlashingRefundRatio",
      "type": "event"
    },
    {
      "anonymous": false,
      "inputs": [
        {
          "indexed": false,
          "internalType": "uint256",
          "name": "unlockedRewardRatio",
          "type": "uint256"
        }
      ],
      "name": "UpdatedUnlockedRewardRatio",
      "type": "event"
    },
    {
      "anonymous": false,
      "inputs": [
        {
          "indexed": false,
          "internalType": "uint256",
          "name": "validatorCommission",
          "type": "uint256"
        }
      ],
      "name": "UpdatedValidatorCommission",
      "type": "event"
    },
    {
      "anonymous": false,
      "inputs": [
        {
          "indexed": false,
          "internalType": "uint256",
          "name": "Value",
          "type": "uint256"
        }
      ],
      "name": "UpdatedWithdrawalPeriodEpoch",
      "type": "event"
    },
    {
      "anonymous": false,
      "inputs": [
        {
          "indexed": false,
          "internalType": "uint256",
          "name": "withValuedrawalPeriodTime",
          "type": "uint256"
        }
      ],
      "name": "UpdatedWithdrawalPeriodTime",
      "type": "event"
    },
    {
      "anonymous": false,
      "inputs": [
        {
          "indexed": true,
          "internalType": "address",
          "name": "delegator",
          "type": "address"
        },
        {
          "indexed": true,
          "internalType": "uint256",
          "name": "toValidatorID",
          "type": "uint256"
        },
        {
          "indexed": true,
          "internalType": "uint256",
          "name": "wrID",
          "type": "uint256"
        },
        {
          "indexed": false,
          "internalType": "uint256",
          "name": "amount",
          "type": "uint256"
        }
      ],
      "name": "Withdrawn",
      "type": "event"
    },
    {
      "constant": false,
      "inputs": [
        {
          "internalType": "uint256",
          "name": "validatorID",
          "type": "uint256"
        },
        {
          "internalType": "bool",
          "name": "syncPubkey",
          "type": "bool"
        }
      ],
      "name": "_syncValidator",
      "outputs": [],
      "payable": false,
      "stateMutability": "nonpayable",
      "type": "function"
    },
    {
      "constant": false,
      "inputs": [
        {
          "internalType": "uint256",
          "name": "diff",
          "type": "uint256"
        }
      ],
      "name": "advanceTime",
      "outputs": [],
      "payable": false,
      "stateMutability": "nonpayable",
      "type": "function"
    },
    {
      "constant": true,
      "inputs": [],
      "name": "allowedNonNodeCalls",
      "outputs": [
        {
          "internalType": "bool",
          "name": "",
          "type": "bool"
        }
      ],
      "payable": false,
      "stateMutability": "view",
      "type": "function"
    },
    {
      "constant": true,
      "inputs": [],
      "name": "baseRewardPerSecond",
      "outputs": [
        {
          "internalType": "uint256",
          "name": "",
          "type": "uint256"
        }
      ],
      "payable": false,
      "stateMutability": "view",
      "type": "function"
    },
    {
      "constant": false,
      "inputs": [
        {
          "internalType": "uint256",
          "name": "toValidatorID",
          "type": "uint256"
        }
      ],
      "name": "claimRewards",
      "outputs": [],
      "payable": false,
      "stateMutability": "nonpayable",
      "type": "function"
    },
    {
      "constant": true,
      "inputs": [],
      "name": "contractCommission",
      "outputs": [
        {
          "internalType": "uint256",
          "name": "",
          "type": "uint256"
        }
      ],
      "payable": false,
      "stateMutability": "view",
      "type": "function"
    },
    {
      "constant": false,
      "inputs": [
        {
          "internalType": "bytes",
          "name": "pubkey",
          "type": "bytes"
        }
      ],
      "name": "createValidator",
      "outputs": [],
      "payable": true,
      "stateMutability": "payable",
      "type": "function"
    },
    {
      "constant": true,
      "inputs": [],
      "name": "currentEpoch",
      "outputs": [
        {
          "internalType": "uint256",
          "name": "",
          "type": "uint256"
        }
      ],
      "payable": false,
      "stateMutability": "view",
      "type": "function"
    },
    {
      "constant": true,
      "inputs": [],
      "name": "currentSealedEpoch",
      "outputs": [
        {
          "internalType": "uint256",
          "name": "",
          "type": "uint256"
        }
      ],
      "payable": false,
      "stateMutability": "view",
      "type": "function"
    },
    {
      "constant": false,
      "inputs": [
        {
          "internalType": "uint256",
          "name": "validatorID",
          "type": "uint256"
        },
        {
          "internalType": "uint256",
          "name": "status",
          "type": "uint256"
        }
      ],
      "name": "deactivateValidator",
      "outputs": [],
      "payable": false,
      "stateMutability": "nonpayable",
      "type": "function"
    },
    {
      "constant": false,
      "inputs": [
        {
          "internalType": "uint256",
          "name": "toValidatorID",
          "type": "uint256"
        }
      ],
      "name": "delegate",
      "outputs": [],
      "payable": true,
      "stateMutability": "payable",
      "type": "function"
    },
    {
      "constant": false,
      "inputs": [],
      "name": "disableNonNodeCalls",
      "outputs": [],
      "payable": false,
      "stateMutability": "nonpayable",
      "type": "function"
    },
    {
      "constant": false,
      "inputs": [],
      "name": "enableNonNodeCalls",
      "outputs": [],
      "payable": false,
      "stateMutability": "nonpayable",
      "type": "function"
    },
    {
      "constant": true,
      "inputs": [],
      "name": "getBlockTime",
      "outputs": [
        {
          "internalType": "uint256",
          "name": "",
          "type": "uint256"
        }
      ],
      "payable": false,
      "stateMutability": "view",
      "type": "function"
    },
    {
      "constant": true,
      "inputs": [
        {
          "internalType": "uint256",
          "name": "epoch",
          "type": "uint256"
        },
        {
          "internalType": "uint256",
          "name": "validatorID",
          "type": "uint256"
        }
      ],
      "name": "getEpochAccumulatedOriginatedTxsFee",
      "outputs": [
        {
          "internalType": "uint256",
          "name": "",
          "type": "uint256"
        }
      ],
      "payable": false,
      "stateMutability": "view",
      "type": "function"
    },
    {
      "constant": true,
      "inputs": [
        {
          "internalType": "uint256",
          "name": "epoch",
          "type": "uint256"
        },
        {
          "internalType": "uint256",
          "name": "validatorID",
          "type": "uint256"
        }
      ],
      "name": "getEpochAccumulatedRewardPerToken",
      "outputs": [
        {
          "internalType": "uint256",
          "name": "",
          "type": "uint256"
        }
      ],
      "payable": false,
      "stateMutability": "view",
      "type": "function"
    },
    {
      "constant": true,
      "inputs": [
        {
          "internalType": "uint256",
          "name": "epoch",
          "type": "uint256"
        },
        {
          "internalType": "uint256",
          "name": "validatorID",
          "type": "uint256"
        }
      ],
      "name": "getEpochAccumulatedUptime",
      "outputs": [
        {
          "internalType": "uint256",
          "name": "",
          "type": "uint256"
        }
      ],
      "payable": false,
      "stateMutability": "view",
      "type": "function"
    },
    {
      "constant": true,
      "inputs": [
        {
          "internalType": "uint256",
          "name": "epoch",
          "type": "uint256"
        },
        {
          "internalType": "uint256",
          "name": "validatorID",
          "type": "uint256"
        }
      ],
      "name": "getEpochOfflineBlocks",
      "outputs": [
        {
          "internalType": "uint256",
          "name": "",
          "type": "uint256"
        }
      ],
      "payable": false,
      "stateMutability": "view",
      "type": "function"
    },
    {
      "constant": true,
      "inputs": [
        {
          "internalType": "uint256",
          "name": "epoch",
          "type": "uint256"
        },
        {
          "internalType": "uint256",
          "name": "validatorID",
          "type": "uint256"
        }
      ],
      "name": "getEpochOfflineTime",
      "outputs": [
        {
          "internalType": "uint256",
          "name": "",
          "type": "uint256"
        }
      ],
      "payable": false,
      "stateMutability": "view",
      "type": "function"
    },
    {
      "constant": true,
      "inputs": [
        {
          "internalType": "uint256",
          "name": "epoch",
          "type": "uint256"
        },
        {
          "internalType": "uint256",
          "name": "validatorID",
          "type": "uint256"
        }
      ],
      "name": "getEpochReceivedStake",
      "outputs": [
        {
          "internalType": "uint256",
          "name": "",
          "type": "uint256"
        }
      ],
      "payable": false,
      "stateMutability": "view",
      "type": "function"
    },
    {
      "constant": true,
      "inputs": [
        {
          "internalType": "uint256",
          "name": "",
          "type": "uint256"
        }
      ],
      "name": "getEpochSnapshot",
      "outputs": [
        {
          "internalType": "uint256",
          "name": "endTime",
          "type": "uint256"
        },
        {
          "internalType": "uint256",
          "name": "epochFee",
          "type": "uint256"
        },
        {
          "internalType": "uint256",
          "name": "totalBaseRewardWeight",
          "type": "uint256"
        },
        {
          "internalType": "uint256",
          "name": "totalTxRewardWeight",
          "type": "uint256"
        },
        {
          "internalType": "uint256",
          "name": "baseRewardPerSecond",
          "type": "uint256"
        },
        {
          "internalType": "uint256",
          "name": "totalStake",
          "type": "uint256"
        },
        {
          "internalType": "uint256",
          "name": "totalSupply",
          "type": "uint256"
        }
      ],
      "payable": false,
      "stateMutability": "view",
      "type": "function"
    },
    {
      "constant": true,
      "inputs": [
        {
          "internalType": "uint256",
          "name": "epoch",
          "type": "uint256"
        }
      ],
      "name": "getEpochValidatorIDs",
      "outputs": [
        {
          "internalType": "uint256[]",
          "name": "",
          "type": "uint256[]"
        }
      ],
      "payable": false,
      "stateMutability": "view",
      "type": "function"
    },
    {
      "constant": true,
      "inputs": [
        {
          "internalType": "address",
          "name": "delegator",
          "type": "address"
        },
        {
          "internalType": "uint256",
          "name": "toValidatorID",
          "type": "uint256"
        }
      ],
      "name": "getLockedStake",
      "outputs": [
        {
          "internalType": "uint256",
          "name": "",
          "type": "uint256"
        }
      ],
      "payable": false,
      "stateMutability": "view",
      "type": "function"
    },
    {
      "constant": true,
      "inputs": [
        {
          "internalType": "address",
          "name": "",
          "type": "address"
        },
        {
          "internalType": "uint256",
          "name": "",
          "type": "uint256"
        }
      ],
      "name": "getLockupInfo",
      "outputs": [
        {
          "internalType": "uint256",
          "name": "lockedStake",
          "type": "uint256"
        },
        {
          "internalType": "uint256",
          "name": "fromEpoch",
          "type": "uint256"
        },
        {
          "internalType": "uint256",
          "name": "endTime",
          "type": "uint256"
        },
        {
          "internalType": "uint256",
          "name": "duration",
          "type": "uint256"
        }
      ],
      "payable": false,
      "stateMutability": "view",
      "type": "function"
    },
    {
      "constant": true,
      "inputs": [
        {
          "internalType": "uint256",
          "name": "validatorID",
          "type": "uint256"
        }
      ],
      "name": "getSelfStake",
      "outputs": [
        {
          "internalType": "uint256",
          "name": "",
          "type": "uint256"
        }
      ],
      "payable": false,
      "stateMutability": "view",
      "type": "function"
    },
    {
      "constant": true,
      "inputs": [
        {
          "internalType": "address",
          "name": "",
          "type": "address"
        },
        {
          "internalType": "uint256",
          "name": "",
          "type": "uint256"
        }
      ],
      "name": "getStake",
      "outputs": [
        {
          "internalType": "uint256",
          "name": "",
          "type": "uint256"
        }
      ],
      "payable": false,
      "stateMutability": "view",
      "type": "function"
    },
    {
      "constant": true,
      "inputs": [
        {
          "internalType": "address",
          "name": "",
          "type": "address"
        },
        {
          "internalType": "uint256",
          "name": "",
          "type": "uint256"
        }
      ],
      "name": "getStashedLockupRewards",
      "outputs": [
        {
          "internalType": "uint256",
          "name": "lockupExtraReward",
          "type": "uint256"
        },
        {
          "internalType": "uint256",
          "name": "lockupBaseReward",
          "type": "uint256"
        },
        {
          "internalType": "uint256",
          "name": "unlockedReward",
          "type": "uint256"
        }
      ],
      "payable": false,
      "stateMutability": "view",
      "type": "function"
    },
    {
      "constant": true,
      "inputs": [],
      "name": "getTime",
      "outputs": [
        {
          "internalType": "uint256",
          "name": "",
          "type": "uint256"
        }
      ],
      "payable": false,
      "stateMutability": "view",
      "type": "function"
    },
    {
      "constant": true,
      "inputs": [
        {
          "internalType": "address",
          "name": "delegator",
          "type": "address"
        },
        {
          "internalType": "uint256",
          "name": "toValidatorID",
          "type": "uint256"
        }
      ],
      "name": "getUnlockedStake",
      "outputs": [
        {
          "internalType": "uint256",
          "name": "",
          "type": "uint256"
        }
      ],
      "payable": false,
      "stateMutability": "view",
      "type": "function"
    },
    {
      "constant": true,
      "inputs": [
        {
          "internalType": "uint256",
          "name": "",
          "type": "uint256"
        }
      ],
      "name": "getValidator",
      "outputs": [
        {
          "internalType": "uint256",
          "name": "status",
          "type": "uint256"
        },
        {
          "internalType": "uint256",
          "name": "deactivatedTime",
          "type": "uint256"
        },
        {
          "internalType": "uint256",
          "name": "deactivatedEpoch",
          "type": "uint256"
        },
        {
          "internalType": "uint256",
          "name": "receivedStake",
          "type": "uint256"
        },
        {
          "internalType": "uint256",
          "name": "createdEpoch",
          "type": "uint256"
        },
        {
          "internalType": "uint256",
          "name": "createdTime",
          "type": "uint256"
        },
        {
          "internalType": "address",
          "name": "auth",
          "type": "address"
        }
      ],
      "payable": false,
      "stateMutability": "view",
      "type": "function"
    },
    {
      "constant": true,
      "inputs": [
        {
          "internalType": "address",
          "name": "",
          "type": "address"
        }
      ],
      "name": "getValidatorID",
      "outputs": [
        {
          "internalType": "uint256",
          "name": "",
          "type": "uint256"
        }
      ],
      "payable": false,
      "stateMutability": "view",
      "type": "function"
    },
    {
      "constant": true,
      "inputs": [
        {
          "internalType": "uint256",
          "name": "",
          "type": "uint256"
        }
      ],
      "name": "getValidatorPubkey",
      "outputs": [
        {
          "internalType": "bytes",
          "name": "",
          "type": "bytes"
        }
      ],
      "payable": false,
      "stateMutability": "view",
      "type": "function"
    },
    {
      "constant": true,
      "inputs": [
        {
          "internalType": "address",
          "name": "",
          "type": "address"
        },
        {
          "internalType": "uint256",
          "name": "",
          "type": "uint256"
        },
        {
          "internalType": "uint256",
          "name": "",
          "type": "uint256"
        }
      ],
      "name": "getWithdrawalRequest",
      "outputs": [
        {
          "internalType": "uint256",
          "name": "epoch",
          "type": "uint256"
        },
        {
          "internalType": "uint256",
          "name": "time",
          "type": "uint256"
        },
        {
          "internalType": "uint256",
          "name": "amount",
          "type": "uint256"
        }
      ],
      "payable": false,
      "stateMutability": "view",
      "type": "function"
    },
    {
      "constant": true,
      "inputs": [],
      "name": "governance",
      "outputs": [
        {
          "internalType": "address",
          "name": "",
          "type": "address"
        }
      ],
      "payable": false,
      "stateMutability": "view",
      "type": "function"
    },
    {
      "constant": true,
      "inputs": [
        {
          "internalType": "address",
          "name": "delegator",
          "type": "address"
        },
        {
          "internalType": "uint256",
          "name": "validatorID",
          "type": "uint256"
        }
      ],
      "name": "highestLockupEpoch",
      "outputs": [
        {
          "internalType": "uint256",
          "name": "",
          "type": "uint256"
        }
      ],
      "payable": false,
      "stateMutability": "view",
      "type": "function"
    },
    {
      "constant": false,
      "inputs": [
        {
          "internalType": "uint256",
          "name": "sealedEpoch",
          "type": "uint256"
        },
        {
          "internalType": "uint256",
          "name": "_totalSupply",
          "type": "uint256"
        },
        {
          "internalType": "address",
          "name": "nodeDriver",
          "type": "address"
        },
        {
          "internalType": "address",
          "name": "owner",
          "type": "address"
        },
        {
          "internalType": "address",
          "name": "governance",
          "type": "address"
        }
      ],
      "name": "initialize",
      "outputs": [],
      "payable": false,
      "stateMutability": "nonpayable",
      "type": "function"
    },
    {
      "constant": true,
      "inputs": [],
      "name": "isGovernance",
      "outputs": [
        {
          "internalType": "bool",
          "name": "",
          "type": "bool"
        }
      ],
      "payable": false,
      "stateMutability": "view",
      "type": "function"
    },
    {
      "constant": true,
      "inputs": [
        {
          "internalType": "address",
          "name": "delegator",
          "type": "address"
        },
        {
          "internalType": "uint256",
          "name": "toValidatorID",
          "type": "uint256"
        }
      ],
      "name": "isLockedUp",
      "outputs": [
        {
          "internalType": "bool",
          "name": "",
          "type": "bool"
        }
      ],
      "payable": false,
      "stateMutability": "view",
      "type": "function"
    },
    {
      "constant": true,
      "inputs": [],
      "name": "isOwner",
      "outputs": [
        {
          "internalType": "bool",
          "name": "",
          "type": "bool"
        }
      ],
      "payable": false,
      "stateMutability": "view",
      "type": "function"
    },
    {
      "constant": true,
      "inputs": [],
      "name": "isSecondaryOwner",
      "outputs": [
        {
          "internalType": "bool",
          "name": "",
          "type": "bool"
        }
      ],
      "payable": false,
      "stateMutability": "view",
      "type": "function"
    },
    {
      "constant": true,
      "inputs": [
        {
          "internalType": "uint256",
          "name": "validatorID",
          "type": "uint256"
        }
      ],
      "name": "isSlashed",
      "outputs": [
        {
          "internalType": "bool",
          "name": "",
          "type": "bool"
        }
      ],
      "payable": false,
      "stateMutability": "view",
      "type": "function"
    },
    {
      "constant": true,
      "inputs": [],
      "name": "lastValidatorID",
      "outputs": [
        {
          "internalType": "uint256",
          "name": "",
          "type": "uint256"
        }
      ],
      "payable": false,
      "stateMutability": "view",
      "type": "function"
    },
    {
      "constant": false,
      "inputs": [
        {
          "internalType": "uint256",
          "name": "toValidatorID",
          "type": "uint256"
        },
        {
          "internalType": "uint256",
          "name": "lockupDuration",
          "type": "uint256"
        },
        {
          "internalType": "uint256",
          "name": "amount",
          "type": "uint256"
        }
      ],
      "name": "lockStake",
      "outputs": [],
      "payable": false,
      "stateMutability": "nonpayable",
      "type": "function"
    },
    {
      "constant": true,
      "inputs": [],
      "name": "maxDelegatedRatio",
      "outputs": [
        {
          "internalType": "uint256",
          "name": "",
          "type": "uint256"
        }
      ],
      "payable": false,
      "stateMutability": "view",
      "type": "function"
    },
    {
      "constant": true,
      "inputs": [],
      "name": "maxLockupDuration",
      "outputs": [
        {
          "internalType": "uint256",
          "name": "",
          "type": "uint256"
        }
      ],
      "payable": false,
      "stateMutability": "view",
      "type": "function"
    },
    {
      "constant": true,
      "inputs": [],
      "name": "minLockupDuration",
      "outputs": [
        {
          "internalType": "uint256",
          "name": "",
          "type": "uint256"
        }
      ],
      "payable": false,
      "stateMutability": "view",
      "type": "function"
    },
    {
      "constant": true,
      "inputs": [],
      "name": "minSelfStake",
      "outputs": [
        {
          "internalType": "uint256",
          "name": "",
          "type": "uint256"
        }
      ],
      "payable": false,
      "stateMutability": "view",
      "type": "function"
    },
    {
      "constant": false,
      "inputs": [
        {
          "internalType": "address payable",
          "name": "receiver",
          "type": "address"
        },
        {
          "internalType": "uint256",
          "name": "amount",
          "type": "uint256"
        },
        {
          "internalType": "string",
          "name": "justification",
          "type": "string"
        }
      ],
      "name": "mintFTM",
      "outputs": [],
      "payable": false,
      "stateMutability": "nonpayable",
      "type": "function"
    },
    {
      "constant": true,
      "inputs": [],
      "name": "offlinePenaltyThreshold",
      "outputs": [
        {
          "internalType": "uint256",
          "name": "blocksNum",
          "type": "uint256"
        },
        {
          "internalType": "uint256",
          "name": "time",
          "type": "uint256"
        }
      ],
      "payable": false,
      "stateMutability": "view",
      "type": "function"
    },
    {
      "constant": true,
      "inputs": [],
      "name": "owner",
      "outputs": [
        {
          "internalType": "address",
          "name": "",
          "type": "address"
        }
      ],
      "payable": false,
      "stateMutability": "view",
      "type": "function"
    },
    {
      "constant": true,
      "inputs": [
        {
          "internalType": "address",
          "name": "delegator",
          "type": "address"
        },
        {
          "internalType": "uint256",
          "name": "toValidatorID",
          "type": "uint256"
        }
      ],
      "name": "pendingRewards",
      "outputs": [
        {
          "internalType": "uint256",
          "name": "",
          "type": "uint256"
        }
      ],
      "payable": false,
      "stateMutability": "view",
      "type": "function"
    },
    {
      "constant": false,
      "inputs": [],
      "name": "rebaseTime",
      "outputs": [],
      "payable": false,
      "stateMutability": "nonpayable",
      "type": "function"
    },
    {
      "constant": false,
      "inputs": [
        {
          "internalType": "uint256",
          "name": "toValidatorID",
          "type": "uint256"
        },
        {
          "internalType": "uint256",
          "name": "lockupDuration",
          "type": "uint256"
        },
        {
          "internalType": "uint256",
          "name": "amount",
          "type": "uint256"
        }
      ],
      "name": "relockStake",
      "outputs": [],
      "payable": false,
      "stateMutability": "nonpayable",
      "type": "function"
    },
    {
      "constant": false,
      "inputs": [],
      "name": "renounceOwnership",
      "outputs": [],
      "payable": false,
      "stateMutability": "nonpayable",
      "type": "function"
    },
    {
      "constant": false,
      "inputs": [
        {
          "internalType": "uint256",
          "name": "toValidatorID",
          "type": "uint256"
        }
      ],
      "name": "restakeRewards",
      "outputs": [],
      "payable": false,
      "stateMutability": "nonpayable",
      "type": "function"
    },
    {
      "constant": true,
      "inputs": [
        {
          "internalType": "address",
          "name": "delegator",
          "type": "address"
        },
        {
          "internalType": "uint256",
          "name": "validatorID",
          "type": "uint256"
        }
      ],
      "name": "rewardsStash",
      "outputs": [
        {
          "internalType": "uint256",
          "name": "",
          "type": "uint256"
        }
      ],
      "payable": false,
      "stateMutability": "view",
      "type": "function"
    },
    {
      "constant": false,
      "inputs": [
        {
          "internalType": "uint256[]",
          "name": "offlineTime",
          "type": "uint256[]"
        },
        {
          "internalType": "uint256[]",
          "name": "offlineBlocks",
          "type": "uint256[]"
        },
        {
          "internalType": "uint256[]",
          "name": "uptimes",
          "type": "uint256[]"
        },
        {
          "internalType": "uint256[]",
          "name": "originatedTxsFee",
          "type": "uint256[]"
        }
      ],
      "name": "sealEpoch",
      "outputs": [],
      "payable": false,
      "stateMutability": "nonpayable",
      "type": "function"
    },
    {
      "constant": false,
      "inputs": [
        {
          "internalType": "uint256[]",
          "name": "nextValidatorIDs",
          "type": "uint256[]"
        }
      ],
      "name": "sealEpochValidators",
      "outputs": [],
      "payable": false,
      "stateMutability": "nonpayable",
      "type": "function"
    },
    {
      "constant": true,
      "inputs": [],
      "name": "secondaryOwner",
      "outputs": [
        {
          "internalType": "address",
          "name": "",
          "type": "address"
        }
      ],
      "payable": false,
      "stateMutability": "view",
      "type": "function"
    },
    {
      "constant": false,
      "inputs": [
        {
          "internalType": "uint256",
          "name": "_contractCommission",
          "type": "uint256"
        }
      ],
      "name": "setContractCommission",
      "outputs": [],
      "payable": false,
      "stateMutability": "nonpayable",
      "type": "function"
    },
    {
      "constant": false,
      "inputs": [
        {
          "internalType": "address",
          "name": "delegator",
          "type": "address"
        },
        {
          "internalType": "uint256",
          "name": "toValidatorID",
          "type": "uint256"
        },
        {
          "internalType": "uint256",
          "name": "stake",
          "type": "uint256"
        },
        {
          "internalType": "uint256",
          "name": "lockedStake",
          "type": "uint256"
        },
        {
          "internalType": "uint256",
          "name": "lockupFromEpoch",
          "type": "uint256"
        },
        {
          "internalType": "uint256",
          "name": "lockupEndTime",
          "type": "uint256"
        },
        {
          "internalType": "uint256",
          "name": "lockupDuration",
          "type": "uint256"
        },
        {
          "internalType": "uint256",
          "name": "earlyUnlockPenalty",
          "type": "uint256"
        },
        {
          "internalType": "uint256",
          "name": "rewards",
          "type": "uint256"
        }
      ],
      "name": "setGenesisDelegation",
      "outputs": [],
      "payable": false,
      "stateMutability": "nonpayable",
      "type": "function"
    },
    {
      "constant": false,
      "inputs": [
        {
          "internalType": "address",
          "name": "auth",
          "type": "address"
        },
        {
          "internalType": "uint256",
          "name": "validatorID",
          "type": "uint256"
        },
        {
          "internalType": "bytes",
          "name": "pubkey",
          "type": "bytes"
        },
        {
          "internalType": "uint256",
          "name": "status",
          "type": "uint256"
        },
        {
          "internalType": "uint256",
          "name": "createdEpoch",
          "type": "uint256"
        },
        {
          "internalType": "uint256",
          "name": "createdTime",
          "type": "uint256"
        },
        {
          "internalType": "uint256",
          "name": "deactivatedEpoch",
          "type": "uint256"
        },
        {
          "internalType": "uint256",
          "name": "deactivatedTime",
          "type": "uint256"
        }
      ],
      "name": "setGenesisValidator",
      "outputs": [],
      "payable": false,
      "stateMutability": "nonpayable",
      "type": "function"
    },
    {
      "constant": false,
      "inputs": [
        {
          "internalType": "uint256",
          "name": "_maxDelegationRatio",
          "type": "uint256"
        }
      ],
      "name": "setMaxDelegation",
      "outputs": [],
      "payable": false,
      "stateMutability": "nonpayable",
      "type": "function"
    },
    {
      "constant": false,
      "inputs": [
        {
          "internalType": "uint256",
          "name": "_maxLockupDuration",
          "type": "uint256"
        }
      ],
      "name": "setMaxLockupDuration",
      "outputs": [],
      "payable": false,
      "stateMutability": "nonpayable",
      "type": "function"
    },
    {
      "constant": false,
      "inputs": [
        {
          "internalType": "uint256",
          "name": "_minLockupDuration",
          "type": "uint256"
        }
      ],
      "name": "setMinLockupDuration",
      "outputs": [],
      "payable": false,
      "stateMutability": "nonpayable",
      "type": "function"
    },
    {
      "constant": false,
      "inputs": [
        {
          "internalType": "uint256",
          "name": "_minSelfStake",
          "type": "uint256"
        }
      ],
      "name": "setMinSelfStake",
      "outputs": [],
      "payable": false,
      "stateMutability": "nonpayable",
      "type": "function"
    },
    {
      "constant": false,
      "inputs": [
        {
          "internalType": "uint256",
          "name": "_unlockedReward",
          "type": "uint256"
        }
      ],
      "name": "setUnlockedRewardRatio",
      "outputs": [],
      "payable": false,
      "stateMutability": "nonpayable",
      "type": "function"
    },
    {
      "constant": false,
      "inputs": [
        {
          "internalType": "uint256",
          "name": "_validatorCommission",
          "type": "uint256"
        }
      ],
      "name": "setValidatorCommission",
      "outputs": [],
      "payable": false,
      "stateMutability": "nonpayable",
      "type": "function"
    },
    {
      "constant": false,
      "inputs": [
        {
          "internalType": "uint256",
          "name": "_withdrawalPeriodEpochs",
          "type": "uint256"
        }
      ],
      "name": "setWithdrawalPeriodEpoch",
      "outputs": [],
      "payable": false,
      "stateMutability": "nonpayable",
      "type": "function"
    },
    {
      "constant": false,
      "inputs": [
        {
          "internalType": "uint256",
          "name": "_withdrawalPeriodTime",
          "type": "uint256"
        }
      ],
      "name": "setWithdrawalPeriodTime",
      "outputs": [],
      "payable": false,
      "stateMutability": "nonpayable",
      "type": "function"
    },
    {
      "constant": true,
      "inputs": [
        {
          "internalType": "uint256",
          "name": "",
          "type": "uint256"
        }
      ],
      "name": "slashingRefundRatio",
      "outputs": [
        {
          "internalType": "uint256",
          "name": "",
          "type": "uint256"
        }
      ],
      "payable": false,
      "stateMutability": "view",
      "type": "function"
    },
    {
      "constant": true,
      "inputs": [],
      "name": "stakeTokenizerAddress",
      "outputs": [
        {
          "internalType": "address",
          "name": "",
          "type": "address"
        }
      ],
      "payable": false,
      "stateMutability": "view",
      "type": "function"
    },
    {
      "constant": false,
      "inputs": [
        {
          "internalType": "address",
          "name": "delegator",
          "type": "address"
        },
        {
          "internalType": "uint256",
          "name": "toValidatorID",
          "type": "uint256"
        }
      ],
      "name": "stashRewards",
      "outputs": [],
      "payable": false,
      "stateMutability": "nonpayable",
      "type": "function"
    },
    {
      "constant": true,
      "inputs": [
        {
          "internalType": "address",
          "name": "",
          "type": "address"
        },
        {
          "internalType": "uint256",
          "name": "",
          "type": "uint256"
        }
      ],
      "name": "stashedRewardsUntilEpoch",
      "outputs": [
        {
          "internalType": "uint256",
          "name": "",
          "type": "uint256"
        }
      ],
      "payable": false,
      "stateMutability": "view",
      "type": "function"
    },
    {
      "constant": true,
      "inputs": [],
      "name": "time",
      "outputs": [
        {
          "internalType": "uint256",
          "name": "",
          "type": "uint256"
        }
      ],
      "payable": false,
      "stateMutability": "view",
      "type": "function"
    },
    {
      "constant": true,
      "inputs": [],
      "name": "totalActiveStake",
      "outputs": [
        {
          "internalType": "uint256",
          "name": "",
          "type": "uint256"
        }
      ],
      "payable": false,
      "stateMutability": "view",
      "type": "function"
    },
    {
      "constant": true,
      "inputs": [],
      "name": "totalSlashedStake",
      "outputs": [
        {
          "internalType": "uint256",
          "name": "",
          "type": "uint256"
        }
      ],
      "payable": false,
      "stateMutability": "view",
      "type": "function"
    },
    {
      "constant": true,
      "inputs": [],
      "name": "totalStake",
      "outputs": [
        {
          "internalType": "uint256",
          "name": "",
          "type": "uint256"
        }
      ],
      "payable": false,
      "stateMutability": "view",
      "type": "function"
    },
    {
      "constant": true,
      "inputs": [],
      "name": "totalSupply",
      "outputs": [
        {
          "internalType": "uint256",
          "name": "",
          "type": "uint256"
        }
      ],
      "payable": false,
      "stateMutability": "view",
      "type": "function"
    },
    {
      "constant": false,
      "inputs": [
        {
          "internalType": "address",
          "name": "newGovernance",
          "type": "address"
        }
      ],
      "name": "transferGovernance",
      "outputs": [],
      "payable": false,
      "stateMutability": "nonpayable",
      "type": "function"
    },
    {
      "constant": false,
      "inputs": [
        {
          "internalType": "address",
          "name": "newOwner",
          "type": "address"
        }
      ],
      "name": "transferOwnership",
      "outputs": [],
      "payable": false,
      "stateMutability": "nonpayable",
      "type": "function"
    },
    {
      "constant": false,
      "inputs": [
        {
          "internalType": "address",
          "name": "newSecondaryOwner",
          "type": "address"
        }
      ],
      "name": "transferSecondaryOwnership",
      "outputs": [],
      "payable": false,
      "stateMutability": "nonpayable",
      "type": "function"
    },
    {
      "constant": false,
      "inputs": [
        {
          "internalType": "uint256",
          "name": "toValidatorID",
          "type": "uint256"
        },
        {
          "internalType": "uint256",
          "name": "wrID",
          "type": "uint256"
        },
        {
          "internalType": "uint256",
          "name": "amount",
          "type": "uint256"
        }
      ],
      "name": "undelegate",
      "outputs": [],
      "payable": false,
      "stateMutability": "nonpayable",
      "type": "function"
    },
    {
      "constant": false,
      "inputs": [
        {
          "internalType": "uint256",
          "name": "toValidatorID",
          "type": "uint256"
        },
        {
          "internalType": "uint256",
          "name": "amount",
          "type": "uint256"
        }
      ],
      "name": "unlockStake",
      "outputs": [
        {
          "internalType": "uint256",
          "name": "",
          "type": "uint256"
        }
      ],
      "payable": false,
      "stateMutability": "nonpayable",
      "type": "function"
    },
    {
      "constant": true,
      "inputs": [],
      "name": "unlockedRewardRatio",
      "outputs": [
        {
          "internalType": "uint256",
          "name": "",
          "type": "uint256"
        }
      ],
      "payable": false,
      "stateMutability": "view",
      "type": "function"
    },
    {
      "constant": false,
      "inputs": [
        {
          "internalType": "uint256",
          "name": "value",
          "type": "uint256"
        }
      ],
      "name": "updateBaseRewardPerSecond",
      "outputs": [],
      "payable": false,
      "stateMutability": "nonpayable",
      "type": "function"
    },
    {
      "constant": false,
      "inputs": [
        {
          "internalType": "uint256",
          "name": "blocksNum",
          "type": "uint256"
        },
        {
          "internalType": "uint256",
          "name": "time",
          "type": "uint256"
        }
      ],
      "name": "updateOfflinePenaltyThreshold",
      "outputs": [],
      "payable": false,
      "stateMutability": "nonpayable",
      "type": "function"
    },
    {
      "constant": false,
      "inputs": [
        {
          "internalType": "uint256",
          "name": "validatorID",
          "type": "uint256"
        },
        {
          "internalType": "uint256",
          "name": "refundRatio",
          "type": "uint256"
        }
      ],
      "name": "updateSlashingRefundRatio",
      "outputs": [],
      "payable": false,
      "stateMutability": "nonpayable",
      "type": "function"
    },
    {
      "constant": false,
      "inputs": [
        {
          "internalType": "address",
          "name": "addr",
          "type": "address"
        }
      ],
      "name": "updateStakeTokenizerAddress",
      "outputs": [],
      "payable": false,
      "stateMutability": "nonpayable",
      "type": "function"
    },
    {
      "constant": false,
      "inputs": [
        {
          "internalType": "int256",
          "name": "diff",
          "type": "int256"
        }
      ],
      "name": "updateTotalSupply",
      "outputs": [],
      "payable": false,
      "stateMutability": "nonpayable",
      "type": "function"
    },
    {
      "constant": true,
      "inputs": [],
      "name": "validatorCommission",
      "outputs": [
        {
          "internalType": "uint256",
          "name": "",
          "type": "uint256"
        }
      ],
      "payable": false,
      "stateMutability": "view",
      "type": "function"
    },
    {
      "constant": true,
      "inputs": [],
      "name": "version",
      "outputs": [
        {
          "internalType": "bytes3",
          "name": "",
          "type": "bytes3"
        }
      ],
      "payable": false,
      "stateMutability": "pure",
      "type": "function"
    },
    {
      "constant": false,
      "inputs": [
        {
          "internalType": "uint256",
          "name": "toValidatorID",
          "type": "uint256"
        },
        {
          "internalType": "uint256",
          "name": "wrID",
          "type": "uint256"
        }
      ],
      "name": "withdraw",
      "outputs": [],
      "payable": false,
      "stateMutability": "nonpayable",
      "type": "function"
    },
    {
      "constant": true,
      "inputs": [],
      "name": "withdrawalPeriodEpochs",
      "outputs": [
        {
          "internalType": "uint256",
          "name": "",
          "type": "uint256"
        }
      ],
      "payable": false,
      "stateMutability": "view",
      "type": "function"
    },
    {
      "constant": true,
      "inputs": [],
      "name": "withdrawalPeriodTime",
      "outputs": [
        {
          "internalType": "uint256",
          "name": "",
          "type": "uint256"
        }
      ],
      "payable": false,
      "stateMutability": "view",
      "type": "function"
    }
  ],
  "bytecode": "0x608060405234801561001057600080fd5b506165fc80620000216000396000f3fe6080604052600436106105185760003560e01c806376671808116102a2578063c3de580e11610165578063db3a4bc6116100cc578063e2f8c33611610085578063e2f8c3361461158f578063e4af78be1461161f578063ebdf104c14611649578063f2fde38b146117b4578063f5bd2968146117e7578063f78bf1101461182057610518565b8063db3a4bc614611439578063dc31e1af1461144e578063de67f2151461147e578063df00c922146114b4578063e08d7e66146114e4578063e261641a1461155f57610518565b8063cfd476631161011e578063cfd4766314611340578063cfdbb7cd14611379578063d38bfff4146113b2578063d54b5099146113e5578063d75629cf146113fa578063d9a7c1f91461142457610518565b8063c3de580e14611266578063c5f530af14611290578063c65ee0e1146112a5578063c7be95de146112cf578063cc8343aa146112e4578063cefe9c181461131657610518565b8063a2f6e6bc11610209578063b6d9edd5116101c2578063b6d9edd514611129578063b810e41114611153578063b82b84271461118c578063b88a37e2146111a1578063bc4a3cc01461121b578063bd14d9071461123057610518565b8063a2f6e6bc14610fa5578063a5a470ad14610fd8578063a778651514611046578063a86a056f1461105b578063ad9a4b5c14611094578063b5d89627146110be57610518565b80638cddb0151161025b5780638cddb01514610e825780638da5cb5b14610ebb5780638f32d59b14610ed057806396c7ee4614610ef95780639fa6dd3514610f58578063a198d22914610f7557610518565b80637667180814610d5f5780637cacb1d614610d74578063854873e114610d8957806387ceff0914610e285780638b0e9f3f14610e3d5780638b1a0d1114610e5257610518565b8063346bdcfb116103ea57806358f95b801161035157806363bafc561161030a57806363bafc5614610c66578063650acd6614610c99578063670322f814610cae5780636ca6d6bc14610ce75780636f49866314610d11578063715018a614610d4a57610518565b806358f95b8014610b8e5780635aa6e67514610bbe5780635e2308d214610bd35780635fab23a814610be85780636099ecb214610bfd57806361e53fcc14610c3657610518565b80634f7c4efb116103a35780634f7c4efb14610a0e5780634f864df414610a3e5780634feb92f314610a7457806354fd4d5014610b1d578063557ed1ba14610b4f5780635601fe0114610b6457610518565b8063346bdcfb146108c257806336a5a231146108ec57806339b80c00146109015780633fbfd4df146109635780634055f273146109b4578063441a3e70146109de57610518565b806318160ddd1161048e57806324f3082a1161044757806324f3082a146108165780632709275e1461082b57806328f73148146108405780632cedb097146108555780632d2646ed1461088357806333469d3d146108ad57610518565b806318160ddd146106ca57806318f628d4146106df5780631d3ac42c146107445780631e702f83146107745780631f270152146107a45780632265f2841461080157610518565b806309fc49ab116104e057806309fc49ab1461060c5780630d4955e3146106215780630d7b2609146106365780630e559d821461064b57806312622d0e1461067c57806316ada547146106b557610518565b80630135b1db1461051d57806303c91ccd1461056257806307e32f0a1461058e57806308c36874146105b85780630962ef79146105e2575b600080fd5b34801561052957600080fd5b506105506004803603602081101561054057600080fd5b50356001600160a01b031661184a565b60408051918252519081900360200190f35b34801561056e57600080fd5b5061058c6004803603602081101561058557600080fd5b503561185c565b005b34801561059a57600080fd5b5061058c600480360360208110156105b157600080fd5b50356118b9565b3480156105c457600080fd5b5061058c600480360360208110156105db57600080fd5b50356118c4565b3480156105ee57600080fd5b5061058c6004803603602081101561060557600080fd5b5035611990565b34801561061857600080fd5b5061058c611ad0565b34801561062d57600080fd5b50610550611adf565b34801561064257600080fd5b50610550611aea565b34801561065757600080fd5b50610660611af3565b604080516001600160a01b039092168252519081900360200190f35b34801561068857600080fd5b506105506004803603604081101561069f57600080fd5b506001600160a01b038135169060200135611b02565b3480156106c157600080fd5b50610550611b8b565b3480156106d657600080fd5b50610550611b91565b3480156106eb57600080fd5b5061058c600480360361012081101561070357600080fd5b506001600160a01b038135169060208101359060408101359060608101359060808101359060a08101359060c08101359060e0810135906101000135611b97565b34801561075057600080fd5b506105506004803603604081101561076757600080fd5b5080359060200135611cf7565b34801561078057600080fd5b5061058c6004803603604081101561079757600080fd5b5080359060200135611ecf565b3480156107b057600080fd5b506107e3600480360360608110156107c757600080fd5b506001600160a01b038135169060208101359060400135611f6d565b60408051938452602084019290925282820152519081900360600190f35b34801561080d57600080fd5b50610550611f9f565b34801561082257600080fd5b5061058c611fb2565b34801561083757600080fd5b50610550611fb8565b34801561084c57600080fd5b50610550611fd5565b34801561086157600080fd5b5061086a611fdb565b6040805192835260208301919091528051918290030190f35b34801561088f57600080fd5b5061058c600480360360208110156108a657600080fd5b5035611fe5565b3480156108b957600080fd5b5061058c61203f565b3480156108ce57600080fd5b5061058c600480360360208110156108e557600080fd5b503561204b565b3480156108f857600080fd5b506106606120b7565b34801561090d57600080fd5b5061092b6004803603602081101561092457600080fd5b50356120c6565b604080519788526020880196909652868601949094526060860192909252608085015260a084015260c0830152519081900360e00190f35b34801561096f57600080fd5b5061058c600480360360a081101561098657600080fd5b508035906020810135906001600160a01b036040820135811691606081013582169160809091013516612108565b3480156109c057600080fd5b5061058c600480360360208110156109d757600080fd5b503561221a565b3480156109ea57600080fd5b5061058c60048036036040811015610a0157600080fd5b5080359060200135612274565b348015610a1a57600080fd5b5061058c60048036036040811015610a3157600080fd5b5080359060200135612671565b348015610a4a57600080fd5b5061058c60048036036060811015610a6157600080fd5b50803590602081013590604001356127a3565b348015610a8057600080fd5b5061058c6004803603610100811015610a9857600080fd5b6001600160a01b0382351691602081013591810190606081016040820135600160201b811115610ac757600080fd5b820183602082011115610ad957600080fd5b803590602001918460018302840111600160201b83111715610afa57600080fd5b919350915080359060208101359060408101359060608101359060800135612a1b565b348015610b2957600080fd5b50610b32612ac1565b604080516001600160e81b03199092168252519081900360200190f35b348015610b5b57600080fd5b50610550612acb565b348015610b7057600080fd5b5061055060048036036020811015610b8757600080fd5b5035612ad1565b348015610b9a57600080fd5b5061055060048036036040811015610bb157600080fd5b5080359060200135612b07565b348015610bca57600080fd5b50610660612b24565b348015610bdf57600080fd5b50610550612b33565b348015610bf457600080fd5b50610550612b4a565b348015610c0957600080fd5b5061055060048036036040811015610c2057600080fd5b506001600160a01b038135169060200135612b50565b348015610c4257600080fd5b5061055060048036036040811015610c5957600080fd5b5080359060200135612b8e565b348015610c7257600080fd5b5061058c60048036036020811015610c8957600080fd5b50356001600160a01b0316612baf565b348015610ca557600080fd5b50610550612bfb565b348015610cba57600080fd5b5061055060048036036040811015610cd157600080fd5b506001600160a01b038135169060200135612c01565b348015610cf357600080fd5b5061058c60048036036020811015610d0a57600080fd5b5035612c42565b348015610d1d57600080fd5b5061055060048036036040811015610d3457600080fd5b506001600160a01b038135169060200135612c9c565b348015610d5657600080fd5b5061058c612d06565b348015610d6b57600080fd5b50610550612d97565b348015610d8057600080fd5b50610550612da0565b348015610d9557600080fd5b50610db360048036036020811015610dac57600080fd5b5035612da6565b6040805160208082528351818301528351919283929083019185019080838360005b83811015610ded578181015183820152602001610dd5565b50505050905090810190601f168015610e1a5780820380516001836020036101000a031916815260200191505b509250505060405180910390f35b348015610e3457600080fd5b50610550612e41565b348015610e4957600080fd5b50610550612e50565b348015610e5e57600080fd5b5061058c60048036036040811015610e7557600080fd5b5080359060200135612e56565b348015610e8e57600080fd5b5061058c60048036036040811015610ea557600080fd5b506001600160a01b038135169060200135612ee6565b348015610ec757600080fd5b50610660612f34565b348015610edc57600080fd5b50610ee5612f43565b604080519115158252519081900360200190f35b348015610f0557600080fd5b50610f3260048036036040811015610f1c57600080fd5b506001600160a01b038135169060200135612f54565b604080519485526020850193909352838301919091526060830152519081900360800190f35b61058c60048036036020811015610f6e57600080fd5b5035612f86565b348015610f8157600080fd5b5061055060048036036040811015610f9857600080fd5b5080359060200135612f91565b348015610fb157600080fd5b5061058c60048036036020811015610fc857600080fd5b50356001600160a01b0316612fb2565b61058c60048036036020811015610fee57600080fd5b810190602081018135600160201b81111561100857600080fd5b82018360208201111561101a57600080fd5b803590602001918460018302840111600160201b8311171561103b57600080fd5b50909250905061301b565b34801561105257600080fd5b5061055061310e565b34801561106757600080fd5b506105506004803603604081101561107e57600080fd5b506001600160a01b038135169060200135613125565b3480156110a057600080fd5b5061058c600480360360208110156110b757600080fd5b5035613142565b3480156110ca57600080fd5b506110e8600480360360208110156110e157600080fd5b503561319c565b604080519788526020880196909652868601949094526060860192909252608085015260a08401526001600160a01b031660c0830152519081900360e00190f35b34801561113557600080fd5b5061058c6004803603602081101561114c57600080fd5b50356131e2565b34801561115f57600080fd5b506107e36004803603604081101561117657600080fd5b506001600160a01b0381351690602001356132c2565b34801561119857600080fd5b506105506132ee565b3480156111ad57600080fd5b506111cb600480360360208110156111c457600080fd5b50356132f4565b60408051602080825283518183015283519192839290830191858101910280838360005b838110156112075781810151838201526020016111ef565b505050509050019250505060405180910390f35b34801561122757600080fd5b50610ee5613359565b34801561123c57600080fd5b5061058c6004803603606081101561125357600080fd5b508035906020810135906040013561336a565b34801561127257600080fd5b50610ee56004803603602081101561128957600080fd5b503561337d565b34801561129c57600080fd5b50610550613394565b3480156112b157600080fd5b50610550600480360360208110156112c857600080fd5b50356133a0565b3480156112db57600080fd5b506105506133b2565b3480156112f057600080fd5b5061058c6004803603604081101561130757600080fd5b508035906020013515156133b8565b34801561132257600080fd5b5061058c6004803603602081101561133957600080fd5b503561359b565b34801561134c57600080fd5b506105506004803603604081101561136357600080fd5b506001600160a01b0381351690602001356135f5565b34801561138557600080fd5b50610ee56004803603604081101561139c57600080fd5b506001600160a01b038135169060200135613612565b3480156113be57600080fd5b5061058c600480360360208110156113d557600080fd5b50356001600160a01b03166136a8565b3480156113f157600080fd5b50610ee5613702565b34801561140657600080fd5b5061058c6004803603602081101561141d57600080fd5b503561370b565b34801561143057600080fd5b50610550613765565b34801561144557600080fd5b50610ee561376b565b34801561145a57600080fd5b506105506004803603604081101561147157600080fd5b508035906020013561377c565b34801561148a57600080fd5b5061058c600480360360608110156114a157600080fd5b508035906020810135906040013561379d565b3480156114c057600080fd5b50610550600480360360408110156114d757600080fd5b508035906020013561383a565b3480156114f057600080fd5b5061058c6004803603602081101561150757600080fd5b810190602081018135600160201b81111561152157600080fd5b82018360208201111561153357600080fd5b803590602001918460208302840111600160201b8311171561155457600080fd5b50909250905061385b565b34801561156b57600080fd5b506105506004803603604081101561158257600080fd5b5080359060200135613935565b34801561159b57600080fd5b5061058c600480360360608110156115b257600080fd5b6001600160a01b0382351691602081013591810190606081016040820135600160201b8111156115e157600080fd5b8201836020820111156115f357600080fd5b803590602001918460018302840111600160201b8311171561161457600080fd5b509092509050613956565b34801561162b57600080fd5b5061058c6004803603602081101561164257600080fd5b5035613a55565b34801561165557600080fd5b5061058c6004803603608081101561166c57600080fd5b810190602081018135600160201b81111561168657600080fd5b82018360208201111561169857600080fd5b803590602001918460208302840111600160201b831117156116b957600080fd5b919390929091602081019035600160201b8111156116d657600080fd5b8201836020820111156116e857600080fd5b803590602001918460208302840111600160201b8311171561170957600080fd5b919390929091602081019035600160201b81111561172657600080fd5b82018360208201111561173857600080fd5b803590602001918460208302840111600160201b8311171561175957600080fd5b919390929091602081019035600160201b81111561177657600080fd5b82018360208201111561178857600080fd5b803590602001918460208302840111600160201b831117156117a957600080fd5b509092509050613aaf565b3480156117c057600080fd5b5061058c600480360360208110156117d757600080fd5b50356001600160a01b0316613c8b565b3480156117f357600080fd5b506105506004803603604081101561180a57600080fd5b506001600160a01b038135169060200135613cdb565b34801561182c57600080fd5b5061058c6004803603602081101561184357600080fd5b5035613ce7565b609d6020526000908152604090205481565b61186461376b565b806118725750611872613359565b6118ad5760405162461bcd60e51b81526004018080602001828103825260508152602001806164a36050913960600191505060405180910390fd5b6118b681613d41565b50565b60b980549091019055565b336118cd616257565b6118d78284613d7c565b602081015181519192506000916118f39163ffffffff613e7016565b90506119168385611911856040015185613e7090919063ffffffff16565b613eca565b6001600160a01b038316600081815260a760209081526040808320888452825291829020805485019055845185820151868401518451928352928201528083019190915290518692917f4119153d17a36f9597d40e3ab4148d03261a439dddbec4e91799ab7159608e26919081900360600190a350505050565b33611999616257565b6119a38284613d7c565b90506000826001600160a01b03166119e083604001516119d485602001518660000151613e7090919063ffffffff16565b9063ffffffff613e7016565b604051600081818185875af1925050503d8060008114611a1c576040519150601f19603f3d011682016040523d82523d6000602084013e611a21565b606091505b5050905080611a6c576040805162461bcd60e51b81526020600482015260126024820152714661696c656420746f2073656e642046544d60701b604482015290519081900360640190fd5b83836001600160a01b03167fc1d8eb6e444b89fb8ff0991c19311c070df704ccb009e210d1462d5b2410bf4584600001518560200151866040015160405180848152602001838152602001828152602001935050505060405180910390a350505050565b60ba805460ff19166001179055565b60b45461016d025b90565b60b354600e0290565b60b8546001600160a01b031681565b6000611b0e8383613612565b611b3c57506001600160a01b038216600090815260a660209081526040808320848452909152902054611b85565b6001600160a01b038316600081815260a76020908152604080832086845282528083205493835260a68252808320868452909152902054611b829163ffffffff613fc716565b90505b92915050565b60b95481565b60aa5481565b611ba033614009565b611bdb5760405162461bcd60e51b81526004018080602001828103825260298152602001806163a86029913960400191505060405180910390fd5b611be6898989614028565b6001600160a01b038916600090815260a3602090815260408083208b84529091529020600201819055611c188761418d565b8515611cec5786861115611c5d5760405162461bcd60e51b815260040180806020018281038252602c81526020018061659c602c913960400191505060405180910390fd5b6001600160a01b038916600081815260a7602090815260408083208c845282528083208a8155600181018a9055600281018990556003810188905584845260a883528184208d855283529281902086905580518781529182018a9052805192938c9390927f138940e95abffcd789b497bf6188bba3afa5fbd22fb5c42c2f6018d1bf0f4e7892908290030190a3505b505050505050505050565b33600081815260a760209081526040808320868452909152812090919083611d54576040805162461bcd60e51b815260206004820152600b60248201526a1e995c9bc8185b5bdd5b9d60aa1b604482015290519081900360640190fd5b611d5e8286613612565b611d9f576040805162461bcd60e51b815260206004820152600d60248201526c06e6f74206c6f636b656420757609c1b604482015290519081900360640190fd5b8054841115611df5576040805162461bcd60e51b815260206004820152601760248201527f6e6f7420656e6f756768206c6f636b6564207374616b65000000000000000000604482015290519081900360640190fd5b611dff8286614212565b611e4b576040805162461bcd60e51b81526020600482015260186024820152776f75747374616e64696e67207346544d2062616c616e636560401b604482015290519081900360640190fd5b611e5582866142b4565b506000611e68838787856000015461447f565b825486900383559050611e7c8387836145b0565b85836001600160a01b03167fef6c0c14fe9aa51af36acd791464dec3badbde668b63189b47bfa4e25be9b2b98784604051808381526020018281526020019250505060405180910390a395945050505050565b611ed833614009565b611f135760405162461bcd60e51b81526004018080602001828103825260298152602001806163a86029913960400191505060405180910390fd5b80611f54576040805162461bcd60e51b815260206004820152600c60248201526b77726f6e672073746174757360a01b604482015290519081900360640190fd5b611f5e8282614700565b611f698260006133b8565b5050565b60a560209081526000938452604080852082529284528284209052825290208054600182015460029092015490919083565b6000611fa961482a565b60af5402905090565b4260b955565b60006064611fc461482a565b60b1540281611fcf57fe5b04905090565b60a15481565b60ac5460ad549091565b611fed61376b565b80611ffb5750611ffb613359565b6120365760405162461bcd60e51b81526004018080602001828103825260508152602001806164a36050913960600191505060405180910390fd5b6118b681614836565b60ba805460ff19169055565b612053612f43565b612092576040805162461bcd60e51b81526020600482018190526024820152600080516020616455833981519152604482015290519081900360640190fd5b600081126120a75760aa8054820190556118b6565b60aa805460008390039003905550565b6067546001600160a01b031690565b60ab60205280600052604060002060009150905080600701549080600801549080600901549080600a01549080600b01549080600c01549080600d0154905087565b600054610100900460ff16806121215750612121614871565b8061212f575060005460ff16155b61216a5760405162461bcd60e51b815260040180806020018281038252602e815260200180616475602e913960400191505060405180910390fd5b600054610100900460ff16158015612195576000805460ff1961ff0019909116610100171660011790555b61219e83614877565b6121a88284614968565b609b869055609a80546001600160a01b0319166001600160a01b03861617905560aa8590556755cfe697852e904c60a9556103e860ac556203f48060ad556121ee612acb565b600087815260ab60205260409020600701558015612212576000805461ff00191690555b505050505050565b61222261376b565b806122305750612230613359565b61226b5760405162461bcd60e51b81526004018080602001828103825260508152602001806164a36050913960600191505060405180910390fd5b6118b681614aa3565b3361227d616257565b506001600160a01b038116600090815260a56020908152604080832086845282528083208584528252918290208251606081018452815480825260018301549382019390935260029091015492810192909252612319576040805162461bcd60e51b81526020600482015260156024820152741c995c5d595cdd08191bd95cdb89dd08195e1a5cdd605a1b604482015290519081900360640190fd5b6123238285614212565b61236f576040805162461bcd60e51b81526020600482015260186024820152776f75747374616e64696e67207346544d2062616c616e636560401b604482015290519081900360640190fd5b60208082015182516000878152609c909352604090922060010154909190158015906123ab57506000868152609c602052604090206001015482115b156123cc5750506000848152609c6020526040902060018101546002909101545b6123d46132ee565b82016123de612acb565b101561242a576040805162461bcd60e51b81526020600482015260166024820152751b9bdd08195b9bdd59da081d1a5b59481c185cdcd95960521b604482015290519081900360640190fd5b612432612bfb565b810161243c612d97565b101561248f576040805162461bcd60e51b815260206004820152601860248201527f6e6f7420656e6f7567682065706f636873207061737365640000000000000000604482015290519081900360640190fd5b6001600160a01b038416600090815260a5602090815260408083208984528252808320888452909152812060020154906124c88861337d565b905060006124ea838360b760008d815260200190815260200160002054614ade565b6001600160a01b038816600090815260a5602090815260408083208d845282528083208c84529091528120818155600181018290556002015560a2805482019055905080831161257a576040805162461bcd60e51b81526020600482015260166024820152751cdd185ad9481a5cc8199d5b1b1e481cdb185cda195960521b604482015290519081900360640190fd5b60006001600160a01b038816612596858463ffffffff613fc716565b604051600081818185875af1925050503d80600081146125d2576040519150601f19603f3d011682016040523d82523d6000602084013e6125d7565b606091505b5050905080612622576040805162461bcd60e51b81526020600482015260126024820152714661696c656420746f2073656e642046544d60701b604482015290519081900360640190fd5b888a896001600160a01b03167f75e161b3e824b114fc1a33274bd7091918dd4e639cede50b78b15a4eea956a21876040518082815260200191505060405180910390a450505050505050505050565b612679612f43565b6126b8576040805162461bcd60e51b81526020600482018190526024820152600080516020616455833981519152604482015290519081900360640190fd5b6126c18261337d565b612712576040805162461bcd60e51b815260206004820152601760248201527f76616c696461746f722069736e277420736c6173686564000000000000000000604482015290519081900360640190fd5b61271a61482a565b8111156127585760405162461bcd60e51b81526004018080602001828103825260218152602001806164f36021913960400191505060405180910390fd5b600082815260b760209081526040918290208390558151838152915184927f047575f43f09a7a093d94ec483064acfc61b7e25c0de28017da442abf99cb91792908290030190a25050565b336127ae81856142b4565b50600082116127f2576040805162461bcd60e51b815260206004820152600b60248201526a1e995c9bc8185b5bdd5b9d60aa1b604482015290519081900360640190fd5b6127fc8185611b02565b821115612850576040805162461bcd60e51b815260206004820152601960248201527f6e6f7420656e6f75676820756e6c6f636b6564207374616b6500000000000000604482015290519081900360640190fd5b61285a8185614212565b6128a6576040805162461bcd60e51b81526020600482015260186024820152776f75747374616e64696e67207346544d2062616c616e636560401b604482015290519081900360640190fd5b6001600160a01b038116600090815260a56020908152604080832087845282528083208684529091529020600201541561291d576040805162461bcd60e51b81526020600482015260136024820152727772494420616c72656164792065786973747360681b604482015290519081900360640190fd5b6129288185846145b0565b6001600160a01b038116600090815260a56020908152604080832087845282528083208684529091529020600201829055612961612d97565b6001600160a01b038216600090815260a5602090815260408083208884528252808320878452909152902055612995612acb565b6001600160a01b038216600090815260a56020908152604080832088845282528083208784529091528120600101919091556129d29085906133b8565b8284826001600160a01b03167fd3bb4e423fbea695d16b982f9f682dc5f35152e5411646a8a5a79a6b02ba8d57856040518082815260200191505060405180910390a450505050565b612a2433614009565b612a5f5760405162461bcd60e51b81526004018080602001828103825260298152602001806163a86029913960400191505060405180910390fd5b612aa7898989898080601f0160208091040260200160405190810160405280939291908181526020018383808284376000920191909152508b92508a91508990508888614b40565b609f54881115611cec57609f889055505050505050505050565b6219981960e91b90565b60b95490565b6000818152609c60209081526040808320600601546001600160a01b0316835260a682528083208484529091529020545b919050565b600091825260ab6020908152604080842092845291905290205490565b6066546001600160a01b031690565b60006064612b3f61482a565b60b2540281611fcf57fe5b60a25481565b6000612b5a616257565b612b648484614cef565b805160208201516040830151929350612b86926119d49163ffffffff613e7016565b949350505050565b600091825260ab602090815260408084209284526001909201905290205490565b612bb7613359565b612bf25760405162461bcd60e51b81526004018080602001828103825260318152602001806163d16031913960400191505060405180910390fd5b6118b681614d5d565b60b55490565b6000612c0d8383613612565b612c1957506000611b85565b506001600160a01b0391909116600090815260a760209081526040808320938352929052205490565b612c4a61376b565b80612c585750612c58613359565b612c935760405162461bcd60e51b81526004018080602001828103825260508152602001806164a36050913960600191505060405180910390fd5b6118b681614dfe565b6000612ca6616257565b506001600160a01b038316600090815260a36020908152604080832085845282529182902082516060810184528154808252600183015493820184905260029092015493810184905292612b869290916119d4919063ffffffff613e7016565b612d0e612f43565b612d4d576040805162461bcd60e51b81526020600482018190526024820152600080516020616455833981519152604482015290519081900360640190fd5b6033546040516000916001600160a01b0316907f8be0079c531659141344cd1fd0a4f28419497f9722a3daafe3b4186f6b6457e0908390a3603380546001600160a01b0319169055565b609b5460010190565b609b5481565b609e6020908152600091825260409182902080548351601f600260001961010060018616150201909316929092049182018490048402810184019094528084529091830182828015612e395780601f10612e0e57610100808354040283529160200191612e39565b820191906000526020600020905b815481529060010190602001808311612e1c57829003601f168201915b505050505081565b6000612e4b614e39565b905090565b60a05481565b612e5e612f43565b612e9d576040805162461bcd60e51b81526020600482018190526024820152600080516020616455833981519152604482015290519081900360640190fd5b60ad81905560ac829055604080518381526020810183905281517f702756a07c05d0bbfd06fc17b67951a5f4deb7bb6b088407e68a58969daf2a34929181900390910190a15050565b612ef082826142b4565b611f69576040805162461bcd60e51b815260206004820152601060248201526f0dcdee8d0d2dcce40e8de40e6e8c2e6d60831b604482015290519081900360640190fd5b6033546001600160a01b031690565b6033546001600160a01b0316331490565b60a760209081526000928352604080842090915290825290208054600182015460028301546003909301549192909184565b6118b6338234613eca565b600091825260ab602090815260408084209284526005909201905290205490565b612fba612f43565b612ff9576040805162461bcd60e51b81526020600482018190526024820152600080516020616455833981519152604482015290519081900360640190fd5b60b880546001600160a01b0319166001600160a01b0392909216919091179055565b613023613394565b341015613071576040805162461bcd60e51b8152602060048201526017602482015276696e73756666696369656e742073656c662d7374616b6560481b604482015290519081900360640190fd5b8015801590613081575060418111155b6130c1576040805162461bcd60e51b815260206004820152600c60248201526b656d707479207075626b657960a01b604482015290519081900360640190fd5b6131013383838080601f016020809104026020016040519081016040528093929190818152602001838380828437600092019190915250614e3d92505050565b611f6933609f5434613eca565b6000606461311a61482a565b60b0540281611fcf57fe5b60a460209081526000928352604080842090915290825290205481565b61314a61376b565b806131585750613158613359565b6131935760405162461bcd60e51b81526004018080602001828103825260508152602001806164a36050913960600191505060405180910390fd5b6118b681614e68565b609c60205260009081526040902080546001820154600283015460038401546004850154600586015460069096015494959394929391929091906001600160a01b031687565b6131ea612f43565b613229576040805162461bcd60e51b81526020600482018190526024820152600080516020616455833981519152604482015290519081900360640190fd5b6801c985c8903591eb20811115613287576040805162461bcd60e51b815260206004820152601b60248201527f746f6f206c617267652072657761726420706572207365636f6e640000000000604482015290519081900360640190fd5b60a98190556040805182815290517f8cd9dae1bbea2bc8a5e80ffce2c224727a25925130a03ae100619a8861ae23969181900360200190a150565b60a860209081526000928352604080842090915290825290208054600182015460029092015490919083565b60b65490565b600081815260ab602090815260409182902060060180548351818402810184019094528084526060939283018282801561334d57602002820191906000526020600020905b815481526020019060010190808311613339575b50505050509050919050565b6067546001600160a01b0316331490565b3361337781858585614ea3565b50505050565b6000908152609c6020526040902054608016151590565b670467fc915c2fc00090565b60b76020526000908152604090205481565b609f5481565b6133c182615155565b61340c576040805162461bcd60e51b81526020600482015260176024820152761d985b1a59185d1bdc88191bd95cdb89dd08195e1a5cdd604a1b604482015290519081900360640190fd5b6000828152609c60205260409020600381015490541561342a575060005b609a546040805163520337df60e11b8152600481018690526024810184905290516001600160a01b039092169163a4066fbe9160448082019260009290919082900301818387803b15801561347e57600080fd5b505af1158015613492573d6000803e3d6000fd5b505050508180156134a257508015155b1561359657609a546000848152609e602052604090819020815163242a6e3f60e01b81526004810187815260248201938452825460026000196001831615610100020190911604604483018190526001600160a01b039095169463242a6e3f9489949390916064909101908490801561355c5780601f106135315761010080835404028352916020019161355c565b820191906000526020600020905b81548152906001019060200180831161353f57829003601f168201915b50509350505050600060405180830381600087803b15801561357d57600080fd5b505af1158015613591573d6000803e3d6000fd5b505050505b505050565b6135a361376b565b806135b157506135b1613359565b6135ec5760405162461bcd60e51b81526004018080602001828103825260508152602001806164a36050913960600191505060405180910390fd5b6118b68161516c565b60a660209081526000928352604080842090915290825290205481565b6001600160a01b038216600090815260a7602090815260408083208484529091528120600201541580159061366957506001600160a01b038316600090815260a76020908152604080832085845290915290205415155b8015611b8257506001600160a01b038316600090815260a76020908152604080832085845290915290206002015461369f612acb565b11159392505050565b6136b061376b565b806136be57506136be613359565b6136f95760405162461bcd60e51b81526004018080602001828103825260508152602001806164a36050913960600191505060405180910390fd5b6118b6816151a7565b60ba5460ff1681565b61371361376b565b806137215750613721613359565b61375c5760405162461bcd60e51b81526004018080602001828103825260508152602001806164a36050913960600191505060405180910390fd5b6118b681615248565b60a95481565b6066546001600160a01b0316331490565b600091825260ab602090815260408084209284526003909201905290205490565b33816137de576040805162461bcd60e51b815260206004820152600b60248201526a1e995c9bc8185b5bdd5b9d60aa1b604482015290519081900360640190fd5b6137e88185613612565b1561382e576040805162461bcd60e51b81526020600482015260116024820152700616c7265616479206c6f636b656420757607c1b604482015290519081900360640190fd5b61337781858585614ea3565b600091825260ab602090815260408084209284526002909201905290205490565b61386433614009565b61389f5760405162461bcd60e51b81526004018080602001828103825260298152602001806163a86029913960400191505060405180910390fd5b600060ab60006138ad612d97565b8152602001908152602001600020905060008090505b828110156139265760008484838181106138d957fe5b602090810292909201356000818152609c8452604080822060030154948890529020839055600c86015490935061391791508263ffffffff613e7016565b600c85015550506001016138c3565b50613377600682018484616278565b600091825260ab602090815260408084209284526004909201905290205490565b61395e612f43565b61399d576040805162461bcd60e51b81526020600482018190526024820152600080516020616455833981519152604482015290519081900360640190fd5b6139a68361418d565b6040516001600160a01b0385169084156108fc029085906000818181858888f193505050501580156139dc573d6000803e3d6000fd5b50836001600160a01b03167f9eec469b348bcf64bbfb60e46ce7b160e2e09bf5421496a2cdbc43714c28b8ad84848460405180848152602001806020018281038252848482818152602001925080828437600083820152604051601f909101601f1916909201829003965090945050505050a250505050565b613a5d61376b565b80613a6b5750613a6b613359565b613aa65760405162461bcd60e51b81526004018080602001828103825260508152602001806164a36050913960600191505060405180910390fd5b6118b681615283565b613ab833614009565b613af35760405162461bcd60e51b81526004018080602001828103825260298152602001806163a86029913960400191505060405180910390fd5b600060ab6000613b01612d97565b81526020019081526020016000209050606081600601805480602002602001604051908101604052809291908181526020018280548015613b6157602002820191906000526020600020905b815481526020019060010190808311613b4d575b50505050509050613be882828c8c80806020026020016040519081016040528093929190818152602001838360200280828437600081840152601f19601f820116905080830192505050505050508b8b808060200260200160405190810160405280939291908181526020018383602002808284376000920191909152506152be92505050565b613c57828288888080602002602001604051908101604052809392919081815260200183836020028082843760009201919091525050604080516020808c0282810182019093528b82529093508b92508a9182918501908490808284376000920191909152506153d492505050565b613c5f612d97565b609b55613c6a612acb565b60078301555060a954600b82015560aa54600d909101555050505050505050565b613c93612f43565b613cd2576040805162461bcd60e51b81526020600482018190526024820152600080516020616455833981519152604482015290519081900360640190fd5b6118b681615a1a565b6000611b828383615abb565b613cef61376b565b80613cfd5750613cfd613359565b613d385760405162461bcd60e51b81526004018080602001828103825260508152602001806164a36050913960600191505060405180910390fd5b6118b681615b7a565b60af8190556040805182815290517fd3b49810855efc7d611424cd0a8cc519b92cf2e97bd3516921dff1a19b101e359181900360200190a150565b613d84616257565b613d8e83836142b4565b50506001600160a01b038216600090815260a36020908152604080832084845282528083208151606081018352815480825260018301549482018590526002909201549281018390529392613dec926119d49163ffffffff613e7016565b905080613e2f576040805162461bcd60e51b815260206004820152600c60248201526b7a65726f207265776172647360a01b604482015290519081900360640190fd5b6001600160a01b038416600090815260a36020908152604080832086845290915281208181556001810182905560020155613e698161418d565b5092915050565b600082820183811015611b82576040805162461bcd60e51b815260206004820152601b60248201527f536166654d6174683a206164646974696f6e206f766572666c6f770000000000604482015290519081900360640190fd5b613ed382615155565b613f1e576040805162461bcd60e51b81526020600482015260176024820152761d985b1a59185d1bdc88191bd95cdb89dd08195e1a5cdd604a1b604482015290519081900360640190fd5b6000828152609c602052604090205415613f78576040805162461bcd60e51b815260206004820152601660248201527576616c696461746f722069736e27742061637469766560501b604482015290519081900360640190fd5b613f83838383614028565b613f8c82615bb5565b6135965760405162461bcd60e51b815260040180806020018281038252602981526020018061653c6029913960400191505060405180910390fd5b6000611b8283836040518060400160405280601e81526020017f536166654d6174683a207375627472616374696f6e206f766572666c6f770000815250615bfd565b60ba5460009060ff161561401f57506001612b02565b611b8582615c94565b6000811161406b576040805162461bcd60e51b815260206004820152600b60248201526a1e995c9bc8185b5bdd5b9d60aa1b604482015290519081900360640190fd5b61407583836142b4565b506001600160a01b038316600090815260a6602090815260408083208584529091529020546140aa908263ffffffff613e7016565b6001600160a01b038416600090815260a660209081526040808320868452825280832093909355609c905220600301546140ea818363ffffffff613e7016565b6000848152609c602052604090206003015560a05461410f908363ffffffff613e7016565b60a0556000838152609c602052604090205461413c5760a154614138908363ffffffff613e7016565b60a1555b6141478382156133b8565b60408051838152905184916001600160a01b038716917f9a8f44850296624dadfd9c246d17e47171d35727a181bd090aa14bbbe00238bb9181900360200190a350505050565b609a54604080516366e7ea0f60e01b81523060048201526024810184905290516001600160a01b03909216916366e7ea0f9160448082019260009290919082900301818387803b1580156141e057600080fd5b505af11580156141f4573d6000803e3d6000fd5b505060aa5461420c925090508263ffffffff613e7016565b60aa5550565b60b8546000906001600160a01b031661422d57506001611b85565b60b854604080516321d585c360e01b81526001600160a01b03868116600483015260248201869052915191909216916321d585c3916044808301926020929190829003018186803b15801561428157600080fd5b505afa158015614295573d6000803e3d6000fd5b505050506040513d60208110156142ab57600080fd5b50519392505050565b60006142be616257565b6142c88484615ca8565b90506142d383615de0565b6001600160a01b038516600081815260a46020908152604080832088845282528083209490945591815260a38252828120868252825282902082516060810184528154815260018201549281019290925260020154918101919091526143399082615e3b565b6001600160a01b038516600081815260a360209081526040808320888452825280832085518155858301516001808301919091559582015160029182015593835260a88252808320888452825291829020825160608101845281548152948101549185019190915290910154908201526143b39082615e3b565b6001600160a01b038516600090815260a860209081526040808320878452825291829020835181559083015160018201559101516002909101556143f78484613612565b61445a576001600160a01b038416600081815260a760209081526040808320878452825280832083815560018082018590556002808301869055600390920185905594845260a88352818420888552909252822082815592830182905591909101555b602081015115158061446c5750805115155b80612b8657506040015115159392505050565b6001600160a01b038416600090815260a86020908152604080832086845290915281205481906144c79084906144bb908763ffffffff615ead16565b9063ffffffff615f0616565b6001600160a01b038716600090815260a860209081526040808320898452909152812060010154919250906145089085906144bb908863ffffffff615ead16565b6001600160a01b038816600090815260a8602090815260408083208a8452909152902054909150600282048301906145409084613fc7565b6001600160a01b038916600090815260a8602090815260408083208b84529091529020908155600101546145749083613fc7565b6001600160a01b038916600090815260a8602090815260408083208b84529091529020600101558581106145a55750845b979650505050505050565b6001600160a01b038316600090815260a660209081526040808320858452825280832080548590039055609c9091529020600301546145f5908263ffffffff613fc716565b6000838152609c602052604090206003015560a05461461a908263ffffffff613fc716565b60a0556000828152609c60205260409020546146475760a154614643908263ffffffff613fc716565b60a1555b600061465283612ad1565b905080156146f957614662613394565b8110156146b0576040805162461bcd60e51b8152602060048201526017602482015276696e73756666696369656e742073656c662d7374616b6560481b604482015290519081900360640190fd5b6146b983615bb5565b6146f45760405162461bcd60e51b815260040180806020018281038252602981526020018061653c6029913960400191505060405180910390fd5b613377565b6133778360015b6000828152609c602052604090205415801561471b57508015155b15614748576000828152609c602052604090206003015460a1546147449163ffffffff613fc716565b60a1555b6000828152609c6020526040902054811115611f69576000828152609c60205260409020818155600201546147f05761477f612d97565b6000838152609c6020526040902060020155614799612acb565b6000838152609c60209081526040918290206001810184905560020154825190815290810192909252805184927fac4801c32a6067ff757446524ee4e7a373797278ac3c883eac5c693b4ad72e4792908290030190a25b60408051828152905183917fcd35267e7654194727477d6c78b541a553483cff7f92a055d17868d3da6e953e919081900360200190a25050565b670de0b6b3a764000090565b60b08190556040805182815290517f969e21e21af49053b3bfee796b627ebc26e10328889e90a47da2f1205d3e8f139181900360200190a150565b303b1590565b600054610100900460ff16806148905750614890614871565b8061489e575060005460ff16155b6148d95760405162461bcd60e51b815260040180806020018281038252602e815260200180616475602e913960400191505060405180910390fd5b600054610100900460ff16158015614904576000805460ff1961ff0019909116610100171660011790555b603380546001600160a01b0319166001600160a01b0384811691909117918290556040519116906000907f8be0079c531659141344cd1fd0a4f28419497f9722a3daafe3b4186f6b6457e0908290a38015611f69576000805461ff00191690555050565b600054610100900460ff16806149815750614981614871565b8061498f575060005460ff16155b6149ca5760405162461bcd60e51b815260040180806020018281038252602e815260200180616475602e913960400191505060405180910390fd5b600054610100900460ff161580156149f5576000805460ff1961ff0019909116610100171660011790555b606680546001600160a01b038086166001600160a01b03199283161792839055606780548683169316929092179091556040519116906000907f5f56bee8cffbe9a78652a74a60705edede02af10b0bbb888ca44b79a0d42ce80908290a36067546040516001600160a01b03909116906000907fd91e5ba07efb2e532a3d502f5fb4451cf8fe4006f3b90283d8f2f51a06e5358c908290a38015613596576000805461ff0019169055505050565b60b38190556040805182815290517f31d33f23d1e7fe45f7e898c070587ff0f2f519674e5e2a12f90b3a17c77f6ad19181900360200190a150565b6000821580614af45750614af061482a565b8210155b15614b0157506000614b39565b614b2c60016119d4614b1161482a565b6144bb86614b1d61482a565b8a91900363ffffffff615ead16565b905083811115614b395750825b9392505050565b6001600160a01b0388166000908152609d602052604090205415614bab576040805162461bcd60e51b815260206004820152601860248201527f76616c696461746f7220616c7265616479206578697374730000000000000000604482015290519081900360640190fd5b6001600160a01b0388166000818152609d602090815260408083208b90558a8352609c82528083208981556004810189905560058101889055600181018690556002810187905560060180546001600160a01b031916909417909355609e81529190208751614c1c928901906162c3565b50876001600160a01b0316877f49bca1ed2666922f9f1690c26a569e1299c2a715fe57647d77e81adfabbf25bf8686604051808381526020018281526020019250505060405180910390a38115614ca8576040805183815260208101839052815189927fac4801c32a6067ff757446524ee4e7a373797278ac3c883eac5c693b4ad72e47928290030190a25b8415614ce55760408051868152905188917fcd35267e7654194727477d6c78b541a553483cff7f92a055d17868d3da6e953e919081900360200190a25b5050505050505050565b614cf7616257565b614cff616257565b614d098484615ca8565b6001600160a01b038516600090815260a3602090815260408083208784528252918290208251606081018452815481526001820154928101929092526002015491810191909152909150612b869082615e3b565b6001600160a01b038116614da25760405162461bcd60e51b81526004018080602001828103825260378152602001806165656037913960400191505060405180910390fd5b6067546040516001600160a01b038084169216907fd91e5ba07efb2e532a3d502f5fb4451cf8fe4006f3b90283d8f2f51a06e5358c90600090a3606780546001600160a01b0319166001600160a01b0392909216919091179055565b60b58190556040805182815290517f2f273767369d76e1ecbee32ed26135f390df620f085feb7a6f2e3dd51985bd5f9181900360200190a150565b4290565b609f8054600101908190556135968382846000614e58612d97565b614e60612acb565b600080614b40565b60b18190556040805182815290517f12420e865335c7cfb225296eb0adaca14bfb1de93b3731ed1e0434746a4d91249181900360200190a150565b614ead8484611b02565b811115614ef4576040805162461bcd60e51b815260206004820152601060248201526f6e6f7420656e6f756768207374616b6560801b604482015290519081900360640190fd5b6000838152609c602052604090205415614f4e576040805162461bcd60e51b815260206004820152601660248201527576616c696461746f722069736e27742061637469766560501b604482015290519081900360640190fd5b614f56611aea565b8210158015614f6c5750614f68611adf565b8211155b614fb2576040805162461bcd60e51b815260206004820152601260248201527134b731b7b93932b1ba10323ab930ba34b7b760711b604482015290519081900360640190fd5b6000614fc0836119d4612acb565b6000858152609c60205260409020600601549091506001600160a01b03908116908616811461504e576001600160a01b038116600090815260a76020908152604080832088845290915290206002015482111561504e5760405162461bcd60e51b81526004018080602001828103825260288152602001806165146028913960400191505060405180910390fd5b61505886866142b4565b506001600160a01b038616600090815260a760209081526040808320888452909152902060038101548510156150d5576040805162461bcd60e51b815260206004820152601f60248201527f6c6f636b7570206475726174696f6e2063616e6e6f7420646563726561736500604482015290519081900360640190fd5b80546150e7908563ffffffff613e7016565b81556150f1612d97565b600182015560028101839055600381018590556040805186815260208101869052815188926001600160a01b038b16927f138940e95abffcd789b497bf6188bba3afa5fbd22fb5c42c2f6018d1bf0f4e78929081900390910190a350505050505050565b6000908152609c6020526040902060050154151590565b60b28190556040805182815290517fcda2f8a6b9050afa9ac1f8d6ff9a123894f76a5530c6c29636332c995a1f97159181900360200190a150565b6001600160a01b0381166151ec5760405162461bcd60e51b81526004018080602001828103825260328152602001806164026032913960400191505060405180910390fd5b6066546040516001600160a01b038084169216907f5f56bee8cffbe9a78652a74a60705edede02af10b0bbb888ca44b79a0d42ce8090600090a3606680546001600160a01b0319166001600160a01b0392909216919091179055565b60ae8190556040805182815290517fe9a0db1369c39eb7fc2ed3d7e122f9ee60952b075329b1e84bce8843367210f49181900360200190a150565b60b68190556040805182815290517f9e85e6207a28e085f027a9b979cad850f4c36a581dd42c119e856c04b92d96119181900360200190a150565b60005b83518110156153cd5760ac548282815181106152d957fe5b6020026020010151118015615303575060ad548382815181106152f857fe5b602002602001015110155b156153445761532684828151811061531757fe5b60200260200101516008614700565b61534484828151811061533557fe5b602002602001015160006133b8565b82818151811061535057fe5b602002602001015185600401600086848151811061536a57fe5b602002602001015181526020019081526020016000208190555081818151811061539057fe5b60200260200101518560050160008684815181106153aa57fe5b6020908102919091018101518252810191909152604001600020556001016152c1565b5050505050565b6153dc616331565b6040518060c001604052808551604051908082528060200260200182016040528015615412578160200160208202803883390190505b50815260200160008152602001855160405190808252806020026020018201604052801561544a578160200160208202803883390190505b508152602001600081526020016000815260200160008152509050600060ab60006154846001615478612d97565b9063ffffffff613fc716565b815260208101919091526040016000206001608084015260078101549091506154ab612acb565b11156154c55780600701546154be612acb565b0360808301525b60005b85518110156155cd5760008260030160008884815181106154e557fe5b6020026020010151815260200190815260200160002054905060008090508186848151811061551057fe5b60200260200101511115615537578186848151811061552b57fe5b60200260200101510390505b846080015187848151811061554857fe5b602002602001015182028161555957fe5b048560400151848151811061556a57fe5b6020026020010181815250506155a48560400151848151811061558957fe5b60200260200101518660600151613e7090919063ffffffff16565b606086015260a08501516155be908263ffffffff613e7016565b60a086015250506001016154c8565b5060005b855181101561569e5782608001518582815181106155eb57fe5b6020026020010151846080015187848151811061560457fe5b60200260200101518a60000160008b878151811061561e57fe5b6020026020010151815260200190815260200160002054028161563d57fe5b04028161564657fe5b048360000151828151811061565757fe5b6020026020010181815250506156918360000151828151811061567657fe5b60200260200101518460200151613e7090919063ffffffff16565b60208401526001016155d1565b5060005b85518110156159f25760006156da846080015160a954866000015185815181106156c857fe5b60200260200101518760200151615f48565b90506157166157098560a00151866040015185815181106156f757fe5b60200260200101518760600151615f89565b829063ffffffff613e7016565b9050600087838151811061572657fe5b6020908102919091018101516000818152609c90925260408220600601549092506001600160a01b0316906157628461575d61310e565b615fe6565b6001600160a01b038316600090815260a66020908152604080832087845290915290205490915080156159095760008161579c8587612c01565b8402816157a557fe5b0490508083036157b3616257565b6001600160a01b038616600090815260a7602090815260408083208a84529091529020600301546157e5908490616003565b90506157ef616257565b6157fa836000616003565b6001600160a01b038816600090815260a3602090815260408083208c8452825291829020825160608101845281548152600182015492810192909252600201549181019190915290915061584f9083836160f4565b6001600160a01b038816600081815260a3602090815260408083208d8452825280832085518155858301516001808301919091559582015160029182015593835260a882528083208d8452825291829020825160608101845281548152948101549185019190915290910154908201526158ca9083836160f4565b6001600160a01b038816600090815260a8602090815260408083208c845282529182902083518155908301516001820155910151600290910155505050505b6000848152609c602052604081206003015483870391811561593b578161592e61482a565b84028161593757fe5b0490505b808a600101600089815260200190815260200160002054018f6001016000898152602001908152602001600020819055508b898151811061597857fe5b60200260200101518f6003016000898152602001908152602001600020819055508c89815181106159a557fe5b60200260200101518a600201600089815260200190815260200160002054018f600201600089815260200190815260200160002081905550505050505050505080806001019150506156a2565b505060a081015160088601556020810151600986015560600151600a90940193909355505050565b6001600160a01b038116615a5f5760405162461bcd60e51b81526004018080602001828103825260268152602001806163826026913960400191505060405180910390fd5b6033546040516001600160a01b038084169216907f8be0079c531659141344cd1fd0a4f28419497f9722a3daafe3b4186f6b6457e090600090a3603380546001600160a01b0319166001600160a01b0392909216919091179055565b6001600160a01b038216600090815260a760209081526040808320848452909152812060010154609b54615af085858361610f565b15615afe579150611b859050565b615b0985858461610f565b615b1857600092505050611b85565b80821115615b2b57600092505050611b85565b80821015615b5e57600281830104615b4486868361610f565b15615b5457806001019250615b58565b8091505b50615b2b565b80615b6e57600092505050611b85565b60001901949350505050565b60b48190556040805182815290517fd830c33dec392daf6dfeac9834107217392396bc333bcbb92e6c1c1a5e8726319181900360200190a150565b6000615be2615bc261482a565b6144bb615bcd611f9f565b615bd686612ad1565b9063ffffffff615ead16565b6000838152609c602052604090206003015411159050919050565b60008184841115615c8c5760405162461bcd60e51b81526004018080602001828103825283818151815260200191508051906020019080838360005b83811015615c51578181015183820152602001615c39565b50505050905090810190601f168015615c7e5780820380516001836020036101000a031916815260200191505b509250505060405180910390fd5b505050900390565b609a546001600160a01b0390811691161490565b615cb0616257565b6001600160a01b038316600090815260a46020908152604080832085845290915281205490615cde84615de0565b90506000615cec8686615abb565b905081811115615cf95750805b82811015615d045750815b6001600160a01b038616600081815260a760209081526040808320898452825280832093835260a682528083208984529091528120548254909190615d5090839063ffffffff613fc716565b90506000615d6484600001548a898861617a565b9050615d6e616257565b615d7c828660030154616003565b9050615d8a838b8a8961617a565b9150615d94616257565b615d9f836000616003565b9050615dad858c898b61617a565b9250615db7616257565b615dc2846000616003565b9050615dcf8383836160f4565b9d9c50505050505050505050505050565b6000818152609c602052604081206002015415615e33576000828152609c6020526040902060020154609b541015615e1b5750609b54612b02565b506000818152609c6020526040902060020154612b02565b5050609b5490565b615e43616257565b6040805160608101909152825184518291615e64919063ffffffff613e7016565b8152602001615e8484602001518660200151613e7090919063ffffffff16565b8152602001615ea484604001518660400151613e7090919063ffffffff16565b90529392505050565b600082615ebc57506000611b85565b82820282848281615ec957fe5b0414611b825760405162461bcd60e51b81526004018080602001828103825260218152602001806164346021913960400191505060405180910390fd5b6000611b8283836040518060400160405280601a81526020017f536166654d6174683a206469766973696f6e206279207a65726f0000000000008152506161dd565b600082615f5757506000612b86565b6000615f69868663ffffffff615ead16565b9050615f7f836144bb838763ffffffff615ead16565b9695505050505050565b600082615f9857506000614b39565b6000615fae836144bb878763ffffffff615ead16565b9050615fdd615fbb61482a565b6144bb615fc6611fb8565b615fce61482a565b8591900363ffffffff615ead16565b95945050505050565b6000611b82615ff361482a565b6144bb858563ffffffff615ead16565b61600b616257565b6040518060600160405280600081526020016000815260200160008152509050816000146160c657600061603d612b33565b61604561482a565b0390506000616065616055611adf565b6144bb848763ffffffff615ead16565b9050600061608e61607461482a565b6144bb84616080612b33565b8a910163ffffffff615ead16565b90506160b361609b61482a565b6144bb6160a6612b33565b899063ffffffff615ead16565b602085018190529003835250611b859050565b6160e96160d161482a565b6144bb6160dc612b33565b869063ffffffff615ead16565b604082015292915050565b6160fc616257565b612b866161098585615e3b565b83615e3b565b6001600160a01b038316600090815260a7602090815260408083208584529091528120600101548210801590612b8657506001600160a01b038416600090815260a76020908152604080832086845290915290206002015461617083616242565b1115949350505050565b600081831061618b57506000612b86565b600083815260ab60208181526040808420888552600190810183528185205487865293835281852089865201909152909120546145a56161c961482a565b6144bb89615bd6858763ffffffff613fc716565b6000818361622c5760405162461bcd60e51b8152602060048201818152835160248401528351909283926044909101919085019080838360008315615c51578181015183820152602001615c39565b50600083858161623857fe5b0495945050505050565b600090815260ab602052604090206007015490565b60405180606001604052806000815260200160008152602001600081525090565b8280548282559060005260206000209081019282156162b3579160200282015b828111156162b3578235825591602001919060010190616298565b506162bf929150616367565b5090565b828054600181600116156101000203166002900490600052602060002090601f016020900481019282601f1061630457805160ff19168380011785556162b3565b828001600101855582156162b3579182015b828111156162b3578251825591602001919060010190616316565b6040518060c001604052806060815260200160008152602001606081526020016000815260200160008152602001600081525090565b611ae791905b808211156162bf576000815560010161636d56fe4f776e61626c653a206e6577206f776e657220697320746865207a65726f206164647265737363616c6c6572206973206e6f7420746865204e6f64654472697665724175746820636f6e7472616374476f7665726e616e6365526f6c653a2063616c6c6572206973206e6f7420746865207365636f6e64617279206f776e6572476f7665726e616e6365526f6c653a206e657720676f7665726e616e636520697320746865207a65726f2061646472657373536166654d6174683a206d756c7469706c69636174696f6e206f766572666c6f774f776e61626c653a2063616c6c6572206973206e6f7420746865206f776e6572436f6e747261637420696e7374616e63652068617320616c7265616479206265656e20696e697469616c697a6564476f7665726e616e6365526f6c653a20746869732066756e6374696f6e20697320636f6e74726f6c6c656420627920746865206f776e657220616e6420676f7665726e616e636520636f6e74726163746d757374206265206c657373207468616e206f7220657175616c20746f20312e3076616c696461746f72206c6f636b757020706572696f642077696c6c20656e64206561726c69657276616c696461746f7227732064656c65676174696f6e73206c696d6974206973206578636565646564476f7665726e616e6365526f6c653a206e6577207365636f6e64617279206f776e657220697320746865207a65726f20616464726573736c6f636b6564207374616b652069732067726561746572207468616e207468652077686f6c65207374616b65a265627a7a7231582047b0cd0e901d819b4f79eca90639adff0d4d3d8095f903fd5a94c55980905fb664736f6c63430005110032",
  "linkReferences": {},
  "deployedLinkReferences": {}
}