{
  "_format": "hh-sol-artifact-1",
  "contractName": "UnitTestSFC",
  "sourceName": "contracts/test/UnitTestSFC.sol",
  "abi": [
    {
      "anonymous": false,
      "inputs": [
        {
          "indexed": true,
          "internalType": "uint256",
          "name": "validatorID",
          "type": "uint256"
        },
        {
          "indexed": false,
          "internalType": "uint256",
          "name": "status",
          "type": "uint256"
        }
      ],
      "name": "ChangedValidatorStatus",
      "type": "event"
    },
    {
      "anonymous": false,
      "inputs": [
        {
          "indexed": true,
          "internalType": "address",
          "name": "delegator",
          "type": "address"
        },
        {
          "indexed": true,
          "internalType": "uint256",
          "name": "toValidatorID",
          "type": "uint256"
        },
        {
          "indexed": false,
          "internalType": "uint256",
          "name": "lockupExtraReward",
          "type": "uint256"
        },
        {
          "indexed": false,
          "internalType": "uint256",
          "name": "lockupBaseReward",
          "type": "uint256"
        },
        {
          "indexed": false,
          "internalType": "uint256",
          "name": "unlockedReward",
          "type": "uint256"
        }
      ],
      "name": "ClaimedRewards",
      "type": "event"
    },
    {
      "anonymous": false,
      "inputs": [
        {
          "indexed": true,
          "internalType": "uint256",
          "name": "validatorID",
          "type": "uint256"
        },
        {
          "indexed": true,
          "internalType": "address",
          "name": "auth",
          "type": "address"
        },
        {
          "indexed": false,
          "internalType": "uint256",
          "name": "createdEpoch",
          "type": "uint256"
        },
        {
          "indexed": false,
          "internalType": "uint256",
          "name": "createdTime",
          "type": "uint256"
        }
      ],
      "name": "CreatedValidator",
      "type": "event"
    },
    {
      "anonymous": false,
      "inputs": [
        {
          "indexed": true,
          "internalType": "uint256",
          "name": "validatorID",
          "type": "uint256"
        },
        {
          "indexed": false,
          "internalType": "uint256",
          "name": "deactivatedEpoch",
          "type": "uint256"
        },
        {
          "indexed": false,
          "internalType": "uint256",
          "name": "deactivatedTime",
          "type": "uint256"
        }
      ],
      "name": "DeactivatedValidator",
      "type": "event"
    },
    {
      "anonymous": false,
      "inputs": [
        {
          "indexed": true,
          "internalType": "address",
          "name": "delegator",
          "type": "address"
        },
        {
          "indexed": true,
          "internalType": "uint256",
          "name": "toValidatorID",
          "type": "uint256"
        },
        {
          "indexed": false,
          "internalType": "uint256",
          "name": "amount",
          "type": "uint256"
        }
      ],
      "name": "Delegated",
      "type": "event"
    },
    {
      "anonymous": false,
      "inputs": [
        {
          "indexed": true,
          "internalType": "address",
          "name": "previousGovernance",
          "type": "address"
        },
        {
          "indexed": true,
          "internalType": "address",
          "name": "newGovernance",
          "type": "address"
        }
      ],
      "name": "GovernanceTransferred",
      "type": "event"
    },
    {
      "anonymous": false,
      "inputs": [
        {
          "indexed": true,
          "internalType": "address",
          "name": "previousAddress",
          "type": "address"
        },
        {
          "indexed": true,
          "internalType": "address",
          "name": "newAddress",
          "type": "address"
        }
      ],
      "name": "GovernanceUpdated",
      "type": "event"
    },
    {
      "anonymous": false,
      "inputs": [
        {
          "indexed": true,
          "internalType": "address",
          "name": "receiver",
          "type": "address"
        },
        {
          "indexed": false,
          "internalType": "uint256",
          "name": "amount",
          "type": "uint256"
        },
        {
          "indexed": false,
          "internalType": "string",
          "name": "justification",
          "type": "string"
        }
      ],
      "name": "InflatedFTM",
      "type": "event"
    },
    {
      "anonymous": false,
      "inputs": [
        {
          "indexed": true,
          "internalType": "address",
          "name": "delegator",
          "type": "address"
        },
        {
          "indexed": true,
          "internalType": "uint256",
          "name": "validatorID",
          "type": "uint256"
        },
        {
          "indexed": false,
          "internalType": "uint256",
          "name": "duration",
          "type": "uint256"
        },
        {
          "indexed": false,
          "internalType": "uint256",
          "name": "amount",
          "type": "uint256"
        }
      ],
      "name": "LockedUpStake",
      "type": "event"
    },
    {
      "anonymous": false,
      "inputs": [
        {
          "indexed": true,
          "internalType": "address",
          "name": "previousOwner",
          "type": "address"
        },
        {
          "indexed": true,
          "internalType": "address",
          "name": "newOwner",
          "type": "address"
        }
      ],
      "name": "OwnershipTransferred",
      "type": "event"
    },
    {
      "anonymous": false,
      "inputs": [
        {
          "indexed": true,
          "internalType": "address",
          "name": "delegator",
          "type": "address"
        },
        {
          "indexed": true,
          "internalType": "uint256",
          "name": "validatorID",
          "type": "uint256"
        },
        {
          "indexed": false,
          "internalType": "uint256",
          "name": "amount",
          "type": "uint256"
        }
      ],
      "name": "RefundedSlashedLegacyDelegation",
      "type": "event"
    },
    {
      "anonymous": false,
      "inputs": [
        {
          "indexed": true,
          "internalType": "address",
          "name": "delegator",
          "type": "address"
        },
        {
          "indexed": true,
          "internalType": "uint256",
          "name": "toValidatorID",
          "type": "uint256"
        },
        {
          "indexed": false,
          "internalType": "uint256",
          "name": "lockupExtraReward",
          "type": "uint256"
        },
        {
          "indexed": false,
          "internalType": "uint256",
          "name": "lockupBaseReward",
          "type": "uint256"
        },
        {
          "indexed": false,
          "internalType": "uint256",
          "name": "unlockedReward",
          "type": "uint256"
        }
      ],
      "name": "RestakedRewards",
      "type": "event"
    },
    {
      "anonymous": false,
      "inputs": [
        {
          "indexed": true,
          "internalType": "address",
          "name": "previousSecondaryOwner",
          "type": "address"
        },
        {
          "indexed": true,
          "internalType": "address",
          "name": "newSecondaryOwner",
          "type": "address"
        }
      ],
      "name": "SecondaryOwnershipTransferred",
      "type": "event"
    },
    {
      "anonymous": false,
      "inputs": [
        {
          "indexed": true,
          "internalType": "address",
          "name": "delegator",
          "type": "address"
        },
        {
          "indexed": true,
          "internalType": "uint256",
          "name": "toValidatorID",
          "type": "uint256"
        },
        {
          "indexed": true,
          "internalType": "uint256",
          "name": "wrID",
          "type": "uint256"
        },
        {
          "indexed": false,
          "internalType": "uint256",
          "name": "amount",
          "type": "uint256"
        }
      ],
      "name": "Undelegated",
      "type": "event"
    },
    {
      "anonymous": false,
      "inputs": [
        {
          "indexed": true,
          "internalType": "address",
          "name": "delegator",
          "type": "address"
        },
        {
          "indexed": true,
          "internalType": "uint256",
          "name": "validatorID",
          "type": "uint256"
        },
        {
          "indexed": false,
          "internalType": "uint256",
          "name": "amount",
          "type": "uint256"
        },
        {
          "indexed": false,
          "internalType": "uint256",
          "name": "penalty",
          "type": "uint256"
        }
      ],
      "name": "UnlockedStake",
      "type": "event"
    },
    {
      "anonymous": false,
      "inputs": [
        {
          "indexed": false,
          "internalType": "uint256",
          "name": "value",
          "type": "uint256"
        }
      ],
      "name": "UpdatedBaseRewardPerSec",
      "type": "event"
    },
    {
      "anonymous": false,
      "inputs": [
        {
          "indexed": false,
          "internalType": "uint256",
          "name": "contractCommission",
          "type": "uint256"
        }
      ],
      "name": "UpdatedContractCommission",
      "type": "event"
    },
    {
      "anonymous": false,
      "inputs": [
        {
          "indexed": false,
          "internalType": "uint256",
          "name": "maxDelegationRatio",
          "type": "uint256"
        }
      ],
      "name": "UpdatedMaxDelegationRatio",
      "type": "event"
    },
    {
      "anonymous": false,
      "inputs": [
        {
          "indexed": false,
          "internalType": "uint256",
          "name": "maxLockupDuration",
          "type": "uint256"
        }
      ],
      "name": "UpdatedMaxLockupDuration",
      "type": "event"
    },
    {
      "anonymous": false,
      "inputs": [
        {
          "indexed": false,
          "internalType": "uint256",
          "name": "minLockupDuration",
          "type": "uint256"
        }
      ],
      "name": "UpdatedMinLockupDuration",
      "type": "event"
    },
    {
      "anonymous": false,
      "inputs": [
        {
          "indexed": false,
          "internalType": "uint256",
          "name": "minSelfStake",
          "type": "uint256"
        }
      ],
      "name": "UpdatedMinSelfStake",
      "type": "event"
    },
    {
      "anonymous": false,
      "inputs": [
        {
          "indexed": false,
          "internalType": "uint256",
          "name": "blocksNum",
          "type": "uint256"
        },
        {
          "indexed": false,
          "internalType": "uint256",
          "name": "period",
          "type": "uint256"
        }
      ],
      "name": "UpdatedOfflinePenaltyThreshold",
      "type": "event"
    },
    {
      "anonymous": false,
      "inputs": [
        {
          "indexed": true,
          "internalType": "uint256",
          "name": "validatorID",
          "type": "uint256"
        },
        {
          "indexed": false,
          "internalType": "uint256",
          "name": "refundRatio",
          "type": "uint256"
        }
      ],
      "name": "UpdatedSlashingRefundRatio",
      "type": "event"
    },
    {
      "anonymous": false,
      "inputs": [
        {
          "indexed": false,
          "internalType": "uint256",
          "name": "unlockedRewardRatio",
          "type": "uint256"
        }
      ],
      "name": "UpdatedUnlockedRewardRatio",
      "type": "event"
    },
    {
      "anonymous": false,
      "inputs": [
        {
          "indexed": false,
          "internalType": "uint256",
          "name": "validatorCommission",
          "type": "uint256"
        }
      ],
      "name": "UpdatedValidatorCommission",
      "type": "event"
    },
    {
      "anonymous": false,
      "inputs": [
        {
          "indexed": false,
          "internalType": "uint256",
          "name": "Value",
          "type": "uint256"
        }
      ],
      "name": "UpdatedWithdrawalPeriodEpoch",
      "type": "event"
    },
    {
      "anonymous": false,
      "inputs": [
        {
          "indexed": false,
          "internalType": "uint256",
          "name": "withValuedrawalPeriodTime",
          "type": "uint256"
        }
      ],
      "name": "UpdatedWithdrawalPeriodTime",
      "type": "event"
    },
    {
      "anonymous": false,
      "inputs": [
        {
          "indexed": true,
          "internalType": "address",
          "name": "delegator",
          "type": "address"
        },
        {
          "indexed": true,
          "internalType": "uint256",
          "name": "toValidatorID",
          "type": "uint256"
        },
        {
          "indexed": true,
          "internalType": "uint256",
          "name": "wrID",
          "type": "uint256"
        },
        {
          "indexed": false,
          "internalType": "uint256",
          "name": "amount",
          "type": "uint256"
        }
      ],
      "name": "Withdrawn",
      "type": "event"
    },
    {
      "constant": false,
      "inputs": [
        {
          "internalType": "uint256",
          "name": "validatorID",
          "type": "uint256"
        },
        {
          "internalType": "bool",
          "name": "syncPubkey",
          "type": "bool"
        }
      ],
      "name": "_syncValidator",
      "outputs": [],
      "payable": false,
      "stateMutability": "nonpayable",
      "type": "function"
    },
    {
      "constant": false,
      "inputs": [
        {
          "internalType": "uint256",
          "name": "diff",
          "type": "uint256"
        }
      ],
      "name": "advanceTime",
      "outputs": [],
      "payable": false,
      "stateMutability": "nonpayable",
      "type": "function"
    },
    {
      "constant": true,
      "inputs": [],
      "name": "allowedNonNodeCalls",
      "outputs": [
        {
          "internalType": "bool",
          "name": "",
          "type": "bool"
        }
      ],
      "payable": false,
      "stateMutability": "view",
      "type": "function"
    },
    {
      "constant": true,
      "inputs": [],
      "name": "baseRewardPerSecond",
      "outputs": [
        {
          "internalType": "uint256",
          "name": "",
          "type": "uint256"
        }
      ],
      "payable": false,
      "stateMutability": "view",
      "type": "function"
    },
    {
      "constant": false,
      "inputs": [
        {
          "internalType": "uint256",
          "name": "toValidatorID",
          "type": "uint256"
        }
      ],
      "name": "claimRewards",
      "outputs": [],
      "payable": false,
      "stateMutability": "nonpayable",
      "type": "function"
    },
    {
      "constant": true,
      "inputs": [],
      "name": "contractCommission",
      "outputs": [
        {
          "internalType": "uint256",
          "name": "",
          "type": "uint256"
        }
      ],
      "payable": false,
      "stateMutability": "view",
      "type": "function"
    },
    {
      "constant": false,
      "inputs": [
        {
          "internalType": "bytes",
          "name": "pubkey",
          "type": "bytes"
        }
      ],
      "name": "createValidator",
      "outputs": [],
      "payable": true,
      "stateMutability": "payable",
      "type": "function"
    },
    {
      "constant": true,
      "inputs": [],
      "name": "currentEpoch",
      "outputs": [
        {
          "internalType": "uint256",
          "name": "",
          "type": "uint256"
        }
      ],
      "payable": false,
      "stateMutability": "view",
      "type": "function"
    },
    {
      "constant": true,
      "inputs": [],
      "name": "currentSealedEpoch",
      "outputs": [
        {
          "internalType": "uint256",
          "name": "",
          "type": "uint256"
        }
      ],
      "payable": false,
      "stateMutability": "view",
      "type": "function"
    },
    {
      "constant": false,
      "inputs": [
        {
          "internalType": "uint256",
          "name": "validatorID",
          "type": "uint256"
        },
        {
          "internalType": "uint256",
          "name": "status",
          "type": "uint256"
        }
      ],
      "name": "deactivateValidator",
      "outputs": [],
      "payable": false,
      "stateMutability": "nonpayable",
      "type": "function"
    },
    {
      "constant": false,
      "inputs": [
        {
          "internalType": "uint256",
          "name": "toValidatorID",
          "type": "uint256"
        }
      ],
      "name": "delegate",
      "outputs": [],
      "payable": true,
      "stateMutability": "payable",
      "type": "function"
    },
    {
      "constant": false,
      "inputs": [],
      "name": "disableNonNodeCalls",
      "outputs": [],
      "payable": false,
      "stateMutability": "nonpayable",
      "type": "function"
    },
    {
      "constant": false,
      "inputs": [],
      "name": "enableNonNodeCalls",
      "outputs": [],
      "payable": false,
      "stateMutability": "nonpayable",
      "type": "function"
    },
    {
      "constant": true,
      "inputs": [],
      "name": "getBlockTime",
      "outputs": [
        {
          "internalType": "uint256",
          "name": "",
          "type": "uint256"
        }
      ],
      "payable": false,
      "stateMutability": "view",
      "type": "function"
    },
    {
      "constant": true,
      "inputs": [
        {
          "internalType": "uint256",
          "name": "epoch",
          "type": "uint256"
        },
        {
          "internalType": "uint256",
          "name": "validatorID",
          "type": "uint256"
        }
      ],
      "name": "getEpochAccumulatedOriginatedTxsFee",
      "outputs": [
        {
          "internalType": "uint256",
          "name": "",
          "type": "uint256"
        }
      ],
      "payable": false,
      "stateMutability": "view",
      "type": "function"
    },
    {
      "constant": true,
      "inputs": [
        {
          "internalType": "uint256",
          "name": "epoch",
          "type": "uint256"
        },
        {
          "internalType": "uint256",
          "name": "validatorID",
          "type": "uint256"
        }
      ],
      "name": "getEpochAccumulatedRewardPerToken",
      "outputs": [
        {
          "internalType": "uint256",
          "name": "",
          "type": "uint256"
        }
      ],
      "payable": false,
      "stateMutability": "view",
      "type": "function"
    },
    {
      "constant": true,
      "inputs": [
        {
          "internalType": "uint256",
          "name": "epoch",
          "type": "uint256"
        },
        {
          "internalType": "uint256",
          "name": "validatorID",
          "type": "uint256"
        }
      ],
      "name": "getEpochAccumulatedUptime",
      "outputs": [
        {
          "internalType": "uint256",
          "name": "",
          "type": "uint256"
        }
      ],
      "payable": false,
      "stateMutability": "view",
      "type": "function"
    },
    {
      "constant": true,
      "inputs": [
        {
          "internalType": "uint256",
          "name": "epoch",
          "type": "uint256"
        },
        {
          "internalType": "uint256",
          "name": "validatorID",
          "type": "uint256"
        }
      ],
      "name": "getEpochOfflineBlocks",
      "outputs": [
        {
          "internalType": "uint256",
          "name": "",
          "type": "uint256"
        }
      ],
      "payable": false,
      "stateMutability": "view",
      "type": "function"
    },
    {
      "constant": true,
      "inputs": [
        {
          "internalType": "uint256",
          "name": "epoch",
          "type": "uint256"
        },
        {
          "internalType": "uint256",
          "name": "validatorID",
          "type": "uint256"
        }
      ],
      "name": "getEpochOfflineTime",
      "outputs": [
        {
          "internalType": "uint256",
          "name": "",
          "type": "uint256"
        }
      ],
      "payable": false,
      "stateMutability": "view",
      "type": "function"
    },
    {
      "constant": true,
      "inputs": [
        {
          "internalType": "uint256",
          "name": "epoch",
          "type": "uint256"
        },
        {
          "internalType": "uint256",
          "name": "validatorID",
          "type": "uint256"
        }
      ],
      "name": "getEpochReceivedStake",
      "outputs": [
        {
          "internalType": "uint256",
          "name": "",
          "type": "uint256"
        }
      ],
      "payable": false,
      "stateMutability": "view",
      "type": "function"
    },
    {
      "constant": true,
      "inputs": [
        {
          "internalType": "uint256",
          "name": "",
          "type": "uint256"
        }
      ],
      "name": "getEpochSnapshot",
      "outputs": [
        {
          "internalType": "uint256",
          "name": "endTime",
          "type": "uint256"
        },
        {
          "internalType": "uint256",
          "name": "epochFee",
          "type": "uint256"
        },
        {
          "internalType": "uint256",
          "name": "totalBaseRewardWeight",
          "type": "uint256"
        },
        {
          "internalType": "uint256",
          "name": "totalTxRewardWeight",
          "type": "uint256"
        },
        {
          "internalType": "uint256",
          "name": "baseRewardPerSecond",
          "type": "uint256"
        },
        {
          "internalType": "uint256",
          "name": "totalStake",
          "type": "uint256"
        },
        {
          "internalType": "uint256",
          "name": "totalSupply",
          "type": "uint256"
        }
      ],
      "payable": false,
      "stateMutability": "view",
      "type": "function"
    },
    {
      "constant": true,
      "inputs": [
        {
          "internalType": "uint256",
          "name": "epoch",
          "type": "uint256"
        }
      ],
      "name": "getEpochValidatorIDs",
      "outputs": [
        {
          "internalType": "uint256[]",
          "name": "",
          "type": "uint256[]"
        }
      ],
      "payable": false,
      "stateMutability": "view",
      "type": "function"
    },
    {
      "constant": true,
      "inputs": [],
      "name": "getGovernance",
      "outputs": [
        {
          "internalType": "address",
          "name": "",
          "type": "address"
        }
      ],
      "payable": false,
      "stateMutability": "view",
      "type": "function"
    },
    {
      "constant": true,
      "inputs": [
        {
          "internalType": "address",
          "name": "delegator",
          "type": "address"
        },
        {
          "internalType": "uint256",
          "name": "toValidatorID",
          "type": "uint256"
        }
      ],
      "name": "getLockedStake",
      "outputs": [
        {
          "internalType": "uint256",
          "name": "",
          "type": "uint256"
        }
      ],
      "payable": false,
      "stateMutability": "view",
      "type": "function"
    },
    {
      "constant": true,
      "inputs": [
        {
          "internalType": "address",
          "name": "",
          "type": "address"
        },
        {
          "internalType": "uint256",
          "name": "",
          "type": "uint256"
        }
      ],
      "name": "getLockupInfo",
      "outputs": [
        {
          "internalType": "uint256",
          "name": "lockedStake",
          "type": "uint256"
        },
        {
          "internalType": "uint256",
          "name": "fromEpoch",
          "type": "uint256"
        },
        {
          "internalType": "uint256",
          "name": "endTime",
          "type": "uint256"
        },
        {
          "internalType": "uint256",
          "name": "duration",
          "type": "uint256"
        }
      ],
      "payable": false,
      "stateMutability": "view",
      "type": "function"
    },
    {
      "constant": true,
      "inputs": [
        {
          "internalType": "uint256",
          "name": "validatorID",
          "type": "uint256"
        }
      ],
      "name": "getSelfStake",
      "outputs": [
        {
          "internalType": "uint256",
          "name": "",
          "type": "uint256"
        }
      ],
      "payable": false,
      "stateMutability": "view",
      "type": "function"
    },
    {
      "constant": true,
      "inputs": [
        {
          "internalType": "address",
          "name": "",
          "type": "address"
        },
        {
          "internalType": "uint256",
          "name": "",
          "type": "uint256"
        }
      ],
      "name": "getStake",
      "outputs": [
        {
          "internalType": "uint256",
          "name": "",
          "type": "uint256"
        }
      ],
      "payable": false,
      "stateMutability": "view",
      "type": "function"
    },
    {
      "constant": true,
      "inputs": [
        {
          "internalType": "address",
          "name": "",
          "type": "address"
        },
        {
          "internalType": "uint256",
          "name": "",
          "type": "uint256"
        }
      ],
      "name": "getStashedLockupRewards",
      "outputs": [
        {
          "internalType": "uint256",
          "name": "lockupExtraReward",
          "type": "uint256"
        },
        {
          "internalType": "uint256",
          "name": "lockupBaseReward",
          "type": "uint256"
        },
        {
          "internalType": "uint256",
          "name": "unlockedReward",
          "type": "uint256"
        }
      ],
      "payable": false,
      "stateMutability": "view",
      "type": "function"
    },
    {
      "constant": true,
      "inputs": [],
      "name": "getTime",
      "outputs": [
        {
          "internalType": "uint256",
          "name": "",
          "type": "uint256"
        }
      ],
      "payable": false,
      "stateMutability": "view",
      "type": "function"
    },
    {
      "constant": true,
      "inputs": [
        {
          "internalType": "address",
          "name": "delegator",
          "type": "address"
        },
        {
          "internalType": "uint256",
          "name": "toValidatorID",
          "type": "uint256"
        }
      ],
      "name": "getUnlockedStake",
      "outputs": [
        {
          "internalType": "uint256",
          "name": "",
          "type": "uint256"
        }
      ],
      "payable": false,
      "stateMutability": "view",
      "type": "function"
    },
    {
      "constant": true,
      "inputs": [
        {
          "internalType": "uint256",
          "name": "",
          "type": "uint256"
        }
      ],
      "name": "getValidator",
      "outputs": [
        {
          "internalType": "uint256",
          "name": "status",
          "type": "uint256"
        },
        {
          "internalType": "uint256",
          "name": "deactivatedTime",
          "type": "uint256"
        },
        {
          "internalType": "uint256",
          "name": "deactivatedEpoch",
          "type": "uint256"
        },
        {
          "internalType": "uint256",
          "name": "receivedStake",
          "type": "uint256"
        },
        {
          "internalType": "uint256",
          "name": "createdEpoch",
          "type": "uint256"
        },
        {
          "internalType": "uint256",
          "name": "createdTime",
          "type": "uint256"
        },
        {
          "internalType": "address",
          "name": "auth",
          "type": "address"
        }
      ],
      "payable": false,
      "stateMutability": "view",
      "type": "function"
    },
    {
      "constant": true,
      "inputs": [
        {
          "internalType": "address",
          "name": "",
          "type": "address"
        }
      ],
      "name": "getValidatorID",
      "outputs": [
        {
          "internalType": "uint256",
          "name": "",
          "type": "uint256"
        }
      ],
      "payable": false,
      "stateMutability": "view",
      "type": "function"
    },
    {
      "constant": true,
      "inputs": [
        {
          "internalType": "uint256",
          "name": "",
          "type": "uint256"
        }
      ],
      "name": "getValidatorPubkey",
      "outputs": [
        {
          "internalType": "bytes",
          "name": "",
          "type": "bytes"
        }
      ],
      "payable": false,
      "stateMutability": "view",
      "type": "function"
    },
    {
      "constant": true,
      "inputs": [
        {
          "internalType": "address",
          "name": "",
          "type": "address"
        },
        {
          "internalType": "uint256",
          "name": "",
          "type": "uint256"
        },
        {
          "internalType": "uint256",
          "name": "",
          "type": "uint256"
        }
      ],
      "name": "getWithdrawalRequest",
      "outputs": [
        {
          "internalType": "uint256",
          "name": "epoch",
          "type": "uint256"
        },
        {
          "internalType": "uint256",
          "name": "time",
          "type": "uint256"
        },
        {
          "internalType": "uint256",
          "name": "amount",
          "type": "uint256"
        }
      ],
      "payable": false,
      "stateMutability": "view",
      "type": "function"
    },
    {
      "constant": true,
      "inputs": [],
      "name": "gov",
      "outputs": [
        {
          "internalType": "contract Gov",
          "name": "",
          "type": "address"
        }
      ],
      "payable": false,
      "stateMutability": "view",
      "type": "function"
    },
    {
      "constant": true,
      "inputs": [],
      "name": "governance",
      "outputs": [
        {
          "internalType": "address",
          "name": "",
          "type": "address"
        }
      ],
      "payable": false,
      "stateMutability": "view",
      "type": "function"
    },
    {
      "constant": true,
      "inputs": [
        {
          "internalType": "address",
          "name": "delegator",
          "type": "address"
        },
        {
          "internalType": "uint256",
          "name": "validatorID",
          "type": "uint256"
        }
      ],
      "name": "highestLockupEpoch",
      "outputs": [
        {
          "internalType": "uint256",
          "name": "",
          "type": "uint256"
        }
      ],
      "payable": false,
      "stateMutability": "view",
      "type": "function"
    },
    {
      "constant": false,
      "inputs": [
        {
          "internalType": "uint256",
          "name": "sealedEpoch",
          "type": "uint256"
        },
        {
          "internalType": "uint256",
          "name": "_totalSupply",
          "type": "uint256"
        },
        {
          "internalType": "address",
          "name": "nodeDriver",
          "type": "address"
        },
        {
          "internalType": "address",
          "name": "owner",
          "type": "address"
        },
        {
          "internalType": "address",
          "name": "governance",
          "type": "address"
        }
      ],
      "name": "initialize",
      "outputs": [],
      "payable": false,
      "stateMutability": "nonpayable",
      "type": "function"
    },
    {
      "constant": true,
      "inputs": [],
      "name": "isGovernance",
      "outputs": [
        {
          "internalType": "bool",
          "name": "",
          "type": "bool"
        }
      ],
      "payable": false,
      "stateMutability": "view",
      "type": "function"
    },
    {
      "constant": true,
      "inputs": [
        {
          "internalType": "address",
          "name": "delegator",
          "type": "address"
        },
        {
          "internalType": "uint256",
          "name": "toValidatorID",
          "type": "uint256"
        }
      ],
      "name": "isLockedUp",
      "outputs": [
        {
          "internalType": "bool",
          "name": "",
          "type": "bool"
        }
      ],
      "payable": false,
      "stateMutability": "view",
      "type": "function"
    },
    {
      "constant": true,
      "inputs": [],
      "name": "isOwner",
      "outputs": [
        {
          "internalType": "bool",
          "name": "",
          "type": "bool"
        }
      ],
      "payable": false,
      "stateMutability": "view",
      "type": "function"
    },
    {
      "constant": true,
      "inputs": [],
      "name": "isSecondaryOwner",
      "outputs": [
        {
          "internalType": "bool",
          "name": "",
          "type": "bool"
        }
      ],
      "payable": false,
      "stateMutability": "view",
      "type": "function"
    },
    {
      "constant": true,
      "inputs": [
        {
          "internalType": "uint256",
          "name": "validatorID",
          "type": "uint256"
        }
      ],
      "name": "isSlashed",
      "outputs": [
        {
          "internalType": "bool",
          "name": "",
          "type": "bool"
        }
      ],
      "payable": false,
      "stateMutability": "view",
      "type": "function"
    },
    {
      "constant": true,
      "inputs": [],
      "name": "lastValidatorID",
      "outputs": [
        {
          "internalType": "uint256",
          "name": "",
          "type": "uint256"
        }
      ],
      "payable": false,
      "stateMutability": "view",
      "type": "function"
    },
    {
      "constant": false,
      "inputs": [
        {
          "internalType": "uint256",
          "name": "toValidatorID",
          "type": "uint256"
        },
        {
          "internalType": "uint256",
          "name": "lockupDuration",
          "type": "uint256"
        },
        {
          "internalType": "uint256",
          "name": "amount",
          "type": "uint256"
        }
      ],
      "name": "lockStake",
      "outputs": [],
      "payable": false,
      "stateMutability": "nonpayable",
      "type": "function"
    },
    {
      "constant": true,
      "inputs": [],
      "name": "maxDelegatedRatio",
      "outputs": [
        {
          "internalType": "uint256",
          "name": "",
          "type": "uint256"
        }
      ],
      "payable": false,
      "stateMutability": "view",
      "type": "function"
    },
    {
      "constant": true,
      "inputs": [],
      "name": "maxLockupDuration",
      "outputs": [
        {
          "internalType": "uint256",
          "name": "",
          "type": "uint256"
        }
      ],
      "payable": false,
      "stateMutability": "view",
      "type": "function"
    },
    {
      "constant": true,
      "inputs": [],
      "name": "minLockupDuration",
      "outputs": [
        {
          "internalType": "uint256",
          "name": "",
          "type": "uint256"
        }
      ],
      "payable": false,
      "stateMutability": "view",
      "type": "function"
    },
    {
      "constant": true,
      "inputs": [],
      "name": "minSelfStake",
      "outputs": [
        {
          "internalType": "uint256",
          "name": "",
          "type": "uint256"
        }
      ],
      "payable": false,
      "stateMutability": "view",
      "type": "function"
    },
    {
      "constant": false,
      "inputs": [
        {
          "internalType": "address payable",
          "name": "receiver",
          "type": "address"
        },
        {
          "internalType": "uint256",
          "name": "amount",
          "type": "uint256"
        },
        {
          "internalType": "string",
          "name": "justification",
          "type": "string"
        }
      ],
      "name": "mintFTM",
      "outputs": [],
      "payable": false,
      "stateMutability": "nonpayable",
      "type": "function"
    },
    {
      "constant": true,
      "inputs": [],
      "name": "offlinePenaltyThreshold",
      "outputs": [
        {
          "internalType": "uint256",
          "name": "blocksNum",
          "type": "uint256"
        },
        {
          "internalType": "uint256",
          "name": "time",
          "type": "uint256"
        }
      ],
      "payable": false,
      "stateMutability": "view",
      "type": "function"
    },
    {
      "constant": true,
      "inputs": [],
      "name": "owner",
      "outputs": [
        {
          "internalType": "address",
          "name": "",
          "type": "address"
        }
      ],
      "payable": false,
      "stateMutability": "view",
      "type": "function"
    },
    {
      "constant": true,
      "inputs": [
        {
          "internalType": "address",
          "name": "delegator",
          "type": "address"
        },
        {
          "internalType": "uint256",
          "name": "toValidatorID",
          "type": "uint256"
        }
      ],
      "name": "pendingRewards",
      "outputs": [
        {
          "internalType": "uint256",
          "name": "",
          "type": "uint256"
        }
      ],
      "payable": false,
      "stateMutability": "view",
      "type": "function"
    },
    {
      "constant": false,
      "inputs": [],
      "name": "rebaseTime",
      "outputs": [],
      "payable": false,
      "stateMutability": "nonpayable",
      "type": "function"
    },
    {
      "constant": false,
      "inputs": [
        {
          "internalType": "uint256",
          "name": "toValidatorID",
          "type": "uint256"
        },
        {
          "internalType": "uint256",
          "name": "lockupDuration",
          "type": "uint256"
        },
        {
          "internalType": "uint256",
          "name": "amount",
          "type": "uint256"
        }
      ],
      "name": "relockStake",
      "outputs": [],
      "payable": false,
      "stateMutability": "nonpayable",
      "type": "function"
    },
    {
      "constant": false,
      "inputs": [],
      "name": "renounceOwnership",
      "outputs": [],
      "payable": false,
      "stateMutability": "nonpayable",
      "type": "function"
    },
    {
      "constant": false,
      "inputs": [
        {
          "internalType": "uint256",
          "name": "toValidatorID",
          "type": "uint256"
        }
      ],
      "name": "restakeRewards",
      "outputs": [],
      "payable": false,
      "stateMutability": "nonpayable",
      "type": "function"
    },
    {
      "constant": true,
      "inputs": [
        {
          "internalType": "address",
          "name": "delegator",
          "type": "address"
        },
        {
          "internalType": "uint256",
          "name": "validatorID",
          "type": "uint256"
        }
      ],
      "name": "rewardsStash",
      "outputs": [
        {
          "internalType": "uint256",
          "name": "",
          "type": "uint256"
        }
      ],
      "payable": false,
      "stateMutability": "view",
      "type": "function"
    },
    {
      "constant": false,
      "inputs": [
        {
          "internalType": "uint256[]",
          "name": "offlineTime",
          "type": "uint256[]"
        },
        {
          "internalType": "uint256[]",
          "name": "offlineBlocks",
          "type": "uint256[]"
        },
        {
          "internalType": "uint256[]",
          "name": "uptimes",
          "type": "uint256[]"
        },
        {
          "internalType": "uint256[]",
          "name": "originatedTxsFee",
          "type": "uint256[]"
        }
      ],
      "name": "sealEpoch",
      "outputs": [],
      "payable": false,
      "stateMutability": "nonpayable",
      "type": "function"
    },
    {
      "constant": false,
      "inputs": [
        {
          "internalType": "uint256[]",
          "name": "nextValidatorIDs",
          "type": "uint256[]"
        }
      ],
      "name": "sealEpochValidators",
      "outputs": [],
      "payable": false,
      "stateMutability": "nonpayable",
      "type": "function"
    },
    {
      "constant": true,
      "inputs": [],
      "name": "secondaryOwner",
      "outputs": [
        {
          "internalType": "address",
          "name": "",
          "type": "address"
        }
      ],
      "payable": false,
      "stateMutability": "view",
      "type": "function"
    },
    {
      "constant": false,
      "inputs": [
        {
          "internalType": "uint256",
          "name": "_contractCommission",
          "type": "uint256"
        }
      ],
      "name": "setContractCommission",
      "outputs": [],
      "payable": false,
      "stateMutability": "nonpayable",
      "type": "function"
    },
    {
      "constant": false,
      "inputs": [
        {
          "internalType": "address",
          "name": "delegator",
          "type": "address"
        },
        {
          "internalType": "uint256",
          "name": "toValidatorID",
          "type": "uint256"
        },
        {
          "internalType": "uint256",
          "name": "stake",
          "type": "uint256"
        },
        {
          "internalType": "uint256",
          "name": "lockedStake",
          "type": "uint256"
        },
        {
          "internalType": "uint256",
          "name": "lockupFromEpoch",
          "type": "uint256"
        },
        {
          "internalType": "uint256",
          "name": "lockupEndTime",
          "type": "uint256"
        },
        {
          "internalType": "uint256",
          "name": "lockupDuration",
          "type": "uint256"
        },
        {
          "internalType": "uint256",
          "name": "earlyUnlockPenalty",
          "type": "uint256"
        },
        {
          "internalType": "uint256",
          "name": "rewards",
          "type": "uint256"
        }
      ],
      "name": "setGenesisDelegation",
      "outputs": [],
      "payable": false,
      "stateMutability": "nonpayable",
      "type": "function"
    },
    {
      "constant": false,
      "inputs": [
        {
          "internalType": "address",
          "name": "auth",
          "type": "address"
        },
        {
          "internalType": "uint256",
          "name": "validatorID",
          "type": "uint256"
        },
        {
          "internalType": "bytes",
          "name": "pubkey",
          "type": "bytes"
        },
        {
          "internalType": "uint256",
          "name": "status",
          "type": "uint256"
        },
        {
          "internalType": "uint256",
          "name": "createdEpoch",
          "type": "uint256"
        },
        {
          "internalType": "uint256",
          "name": "createdTime",
          "type": "uint256"
        },
        {
          "internalType": "uint256",
          "name": "deactivatedEpoch",
          "type": "uint256"
        },
        {
          "internalType": "uint256",
          "name": "deactivatedTime",
          "type": "uint256"
        }
      ],
      "name": "setGenesisValidator",
      "outputs": [],
      "payable": false,
      "stateMutability": "nonpayable",
      "type": "function"
    },
    {
      "constant": false,
      "inputs": [
        {
          "internalType": "uint256",
          "name": "_maxDelegationRatio",
          "type": "uint256"
        }
      ],
      "name": "setMaxDelegation",
      "outputs": [],
      "payable": false,
      "stateMutability": "nonpayable",
      "type": "function"
    },
    {
      "constant": false,
      "inputs": [
        {
          "internalType": "uint256",
          "name": "_maxLockupDuration",
          "type": "uint256"
        }
      ],
      "name": "setMaxLockupDuration",
      "outputs": [],
      "payable": false,
      "stateMutability": "nonpayable",
      "type": "function"
    },
    {
      "constant": false,
      "inputs": [
        {
          "internalType": "uint256",
          "name": "_minLockupDuration",
          "type": "uint256"
        }
      ],
      "name": "setMinLockupDuration",
      "outputs": [],
      "payable": false,
      "stateMutability": "nonpayable",
      "type": "function"
    },
    {
      "constant": false,
      "inputs": [
        {
          "internalType": "uint256",
          "name": "_minSelfStake",
          "type": "uint256"
        }
      ],
      "name": "setMinSelfStake",
      "outputs": [],
      "payable": false,
      "stateMutability": "nonpayable",
      "type": "function"
    },
    {
      "constant": false,
      "inputs": [
        {
          "internalType": "uint256",
          "name": "_unlockedReward",
          "type": "uint256"
        }
      ],
      "name": "setUnlockedRewardRatio",
      "outputs": [],
      "payable": false,
      "stateMutability": "nonpayable",
      "type": "function"
    },
    {
      "constant": false,
      "inputs": [
        {
          "internalType": "uint256",
          "name": "_validatorCommission",
          "type": "uint256"
        }
      ],
      "name": "setValidatorCommission",
      "outputs": [],
      "payable": false,
      "stateMutability": "nonpayable",
      "type": "function"
    },
    {
      "constant": false,
      "inputs": [
        {
          "internalType": "uint256",
          "name": "_withdrawalPeriodEpochs",
          "type": "uint256"
        }
      ],
      "name": "setWithdrawalPeriodEpoch",
      "outputs": [],
      "payable": false,
      "stateMutability": "nonpayable",
      "type": "function"
    },
    {
      "constant": false,
      "inputs": [
        {
          "internalType": "uint256",
          "name": "_withdrawalPeriodTime",
          "type": "uint256"
        }
      ],
      "name": "setWithdrawalPeriodTime",
      "outputs": [],
      "payable": false,
      "stateMutability": "nonpayable",
      "type": "function"
    },
    {
      "constant": true,
      "inputs": [
        {
          "internalType": "uint256",
          "name": "",
          "type": "uint256"
        }
      ],
      "name": "slashingRefundRatio",
      "outputs": [
        {
          "internalType": "uint256",
          "name": "",
          "type": "uint256"
        }
      ],
      "payable": false,
      "stateMutability": "view",
      "type": "function"
    },
    {
      "constant": true,
      "inputs": [],
      "name": "stakeTokenizerAddress",
      "outputs": [
        {
          "internalType": "address",
          "name": "",
          "type": "address"
        }
      ],
      "payable": false,
      "stateMutability": "view",
      "type": "function"
    },
    {
      "constant": false,
      "inputs": [
        {
          "internalType": "address",
          "name": "delegator",
          "type": "address"
        },
        {
          "internalType": "uint256",
          "name": "toValidatorID",
          "type": "uint256"
        }
      ],
      "name": "stashRewards",
      "outputs": [],
      "payable": false,
      "stateMutability": "nonpayable",
      "type": "function"
    },
    {
      "constant": true,
      "inputs": [
        {
          "internalType": "address",
          "name": "",
          "type": "address"
        },
        {
          "internalType": "uint256",
          "name": "",
          "type": "uint256"
        }
      ],
      "name": "stashedRewardsUntilEpoch",
      "outputs": [
        {
          "internalType": "uint256",
          "name": "",
          "type": "uint256"
        }
      ],
      "payable": false,
      "stateMutability": "view",
      "type": "function"
    },
    {
      "constant": true,
      "inputs": [],
      "name": "time",
      "outputs": [
        {
          "internalType": "uint256",
          "name": "",
          "type": "uint256"
        }
      ],
      "payable": false,
      "stateMutability": "view",
      "type": "function"
    },
    {
      "constant": true,
      "inputs": [],
      "name": "totalActiveStake",
      "outputs": [
        {
          "internalType": "uint256",
          "name": "",
          "type": "uint256"
        }
      ],
      "payable": false,
      "stateMutability": "view",
      "type": "function"
    },
    {
      "constant": true,
      "inputs": [],
      "name": "totalSlashedStake",
      "outputs": [
        {
          "internalType": "uint256",
          "name": "",
          "type": "uint256"
        }
      ],
      "payable": false,
      "stateMutability": "view",
      "type": "function"
    },
    {
      "constant": true,
      "inputs": [],
      "name": "totalStake",
      "outputs": [
        {
          "internalType": "uint256",
          "name": "",
          "type": "uint256"
        }
      ],
      "payable": false,
      "stateMutability": "view",
      "type": "function"
    },
    {
      "constant": true,
      "inputs": [],
      "name": "totalSupply",
      "outputs": [
        {
          "internalType": "uint256",
          "name": "",
          "type": "uint256"
        }
      ],
      "payable": false,
      "stateMutability": "view",
      "type": "function"
    },
    {
      "constant": false,
      "inputs": [
        {
          "internalType": "address",
          "name": "newGovernance",
          "type": "address"
        }
      ],
      "name": "transferGovernance",
      "outputs": [],
      "payable": false,
      "stateMutability": "nonpayable",
      "type": "function"
    },
    {
      "constant": false,
      "inputs": [
        {
          "internalType": "address",
          "name": "newOwner",
          "type": "address"
        }
      ],
      "name": "transferOwnership",
      "outputs": [],
      "payable": false,
      "stateMutability": "nonpayable",
      "type": "function"
    },
    {
      "constant": false,
      "inputs": [
        {
          "internalType": "address",
          "name": "newSecondaryOwner",
          "type": "address"
        }
      ],
      "name": "transferSecondaryOwnership",
      "outputs": [],
      "payable": false,
      "stateMutability": "nonpayable",
      "type": "function"
    },
    {
      "constant": false,
      "inputs": [
        {
          "internalType": "uint256",
          "name": "toValidatorID",
          "type": "uint256"
        },
        {
          "internalType": "uint256",
          "name": "wrID",
          "type": "uint256"
        },
        {
          "internalType": "uint256",
          "name": "amount",
          "type": "uint256"
        }
      ],
      "name": "undelegate",
      "outputs": [],
      "payable": false,
      "stateMutability": "nonpayable",
      "type": "function"
    },
    {
      "constant": false,
      "inputs": [
        {
          "internalType": "uint256",
          "name": "toValidatorID",
          "type": "uint256"
        },
        {
          "internalType": "uint256",
          "name": "amount",
          "type": "uint256"
        }
      ],
      "name": "unlockStake",
      "outputs": [
        {
          "internalType": "uint256",
          "name": "",
          "type": "uint256"
        }
      ],
      "payable": false,
      "stateMutability": "nonpayable",
      "type": "function"
    },
    {
      "constant": true,
      "inputs": [],
      "name": "unlockedRewardRatio",
      "outputs": [
        {
          "internalType": "uint256",
          "name": "",
          "type": "uint256"
        }
      ],
      "payable": false,
      "stateMutability": "view",
      "type": "function"
    },
    {
      "constant": false,
      "inputs": [
        {
          "internalType": "uint256",
          "name": "value",
          "type": "uint256"
        }
      ],
      "name": "updateBaseRewardPerSecond",
      "outputs": [],
      "payable": false,
      "stateMutability": "nonpayable",
      "type": "function"
    },
    {
      "constant": false,
      "inputs": [
        {
          "internalType": "address",
          "name": "_governance",
          "type": "address"
        }
      ],
      "name": "updateGovernanceContract",
      "outputs": [],
      "payable": false,
      "stateMutability": "nonpayable",
      "type": "function"
    },
    {
      "constant": false,
      "inputs": [
        {
          "internalType": "uint256",
          "name": "blocksNum",
          "type": "uint256"
        },
        {
          "internalType": "uint256",
          "name": "time",
          "type": "uint256"
        }
      ],
      "name": "updateOfflinePenaltyThreshold",
      "outputs": [],
      "payable": false,
      "stateMutability": "nonpayable",
      "type": "function"
    },
    {
      "constant": false,
      "inputs": [
        {
          "internalType": "uint256",
          "name": "validatorID",
          "type": "uint256"
        },
        {
          "internalType": "uint256",
          "name": "refundRatio",
          "type": "uint256"
        }
      ],
      "name": "updateSlashingRefundRatio",
      "outputs": [],
      "payable": false,
      "stateMutability": "nonpayable",
      "type": "function"
    },
    {
      "constant": false,
      "inputs": [
        {
          "internalType": "address",
          "name": "addr",
          "type": "address"
        }
      ],
      "name": "updateStakeTokenizerAddress",
      "outputs": [],
      "payable": false,
      "stateMutability": "nonpayable",
      "type": "function"
    },
    {
      "constant": false,
      "inputs": [
        {
          "internalType": "int256",
          "name": "diff",
          "type": "int256"
        }
      ],
      "name": "updateTotalSupply",
      "outputs": [],
      "payable": false,
      "stateMutability": "nonpayable",
      "type": "function"
    },
    {
      "constant": true,
      "inputs": [],
      "name": "validatorCommission",
      "outputs": [
        {
          "internalType": "uint256",
          "name": "",
          "type": "uint256"
        }
      ],
      "payable": false,
      "stateMutability": "view",
      "type": "function"
    },
    {
      "constant": true,
      "inputs": [],
      "name": "version",
      "outputs": [
        {
          "internalType": "bytes3",
          "name": "",
          "type": "bytes3"
        }
      ],
      "payable": false,
      "stateMutability": "pure",
      "type": "function"
    },
    {
      "constant": false,
      "inputs": [
        {
          "internalType": "uint256",
          "name": "toValidatorID",
          "type": "uint256"
        },
        {
          "internalType": "uint256",
          "name": "wrID",
          "type": "uint256"
        }
      ],
      "name": "withdraw",
      "outputs": [],
      "payable": false,
      "stateMutability": "nonpayable",
      "type": "function"
    },
    {
      "constant": true,
      "inputs": [],
      "name": "withdrawalPeriodEpochs",
      "outputs": [
        {
          "internalType": "uint256",
          "name": "",
          "type": "uint256"
        }
      ],
      "payable": false,
      "stateMutability": "view",
      "type": "function"
    },
    {
      "constant": true,
      "inputs": [],
      "name": "withdrawalPeriodTime",
      "outputs": [
        {
          "internalType": "uint256",
          "name": "",
          "type": "uint256"
        }
      ],
      "payable": false,
      "stateMutability": "view",
      "type": "function"
    }
  ],
  "bytecode": "0x608060405234801561001057600080fd5b506168dd80620000216000396000f3fe6080604052600436106105595760003560e01c8063715018a6116102bd578063bd14d90711610180578063d9a7c1f9116100e7578063e261641a116100a0578063ebdf104c1161007a578063ebdf104c146116e7578063f2fde38b14611852578063f5bd296814611885578063f78bf110146118be57610559565b8063e261641a146115fd578063e2f8c3361461162d578063e4af78be146116bd57610559565b8063d9a7c1f9146114c2578063db3a4bc6146114d7578063dc31e1af146114ec578063de67f2151461151c578063df00c92214611552578063e08d7e661461158257610559565b8063cefe9c1811610139578063cefe9c18146113b4578063cfd47663146113de578063cfdbb7cd14611417578063d38bfff414611450578063d54b509914611483578063d75629cf1461149857610559565b8063bd14d907146112ce578063c3de580e14611304578063c5f530af1461132e578063c65ee0e114611343578063c7be95de1461136d578063cc8343aa1461138257610559565b8063a198d22911610224578063b5d89627116101dd578063b5d896271461115c578063b6d9edd5146111c7578063b810e411146111f1578063b82b84271461122a578063b88a37e21461123f578063bc4a3cc0146112b957610559565b8063a198d22914611013578063a2f6e6bc14611043578063a5a470ad14611076578063a7786515146110e4578063a86a056f146110f9578063ad9a4b5c1461113257610559565b80638b1a0d11116102765780638b1a0d1114610ef05780638cddb01514610f205780638da5cb5b14610f595780638f32d59b14610f6e57806396c7ee4614610f975780639fa6dd3514610ff657610559565b8063715018a614610de85780637667180814610dfd5780637cacb1d614610e12578063854873e114610e2757806387ceff0914610ec65780638b0e9f3f14610edb57610559565b806333469d3d116104205780635601fe011161038757806361e53fcc11610340578063670322f81161031a578063670322f814610d195780636ca6d6bc14610d525780636f49866314610d7c5780636faf60a014610db557610559565b806361e53fcc14610ca157806363bafc5614610cd1578063650acd6614610d0457610559565b80635601fe0114610bcf57806358f95b8014610bf95780635aa6e67514610c295780635e2308d214610c3e5780635fab23a814610c535780636099ecb214610c6857610559565b8063441a3e70116103d9578063441a3e7014610a495780634f7c4efb14610a795780634f864df414610aa95780634feb92f314610adf57806354fd4d5014610b88578063557ed1ba14610bba57610559565b806333469d3d14610918578063346bdcfb1461092d57806336a5a2311461095757806339b80c001461096c5780633fbfd4df146109ce5780634055f27314610a1f57610559565b806318160ddd116104c457806324f3082a1161047d57806324f3082a1461086c5780632709275e14610881578063289b3c0d1461089657806328f73148146108ab5780632cedb097146108c05780632d2646ed146108ee57610559565b806318160ddd1461072057806318f628d4146107355780631d3ac42c1461079a5780631e702f83146107ca5780631f270152146107fa5780632265f2841461085757610559565b80630d4955e3116105165780630d4955e3146106625780630d7b2609146106775780630e559d821461068c57806312622d0e146106bd57806312d43a51146106f657806316ada5471461070b57610559565b80630135b1db1461055e57806303c91ccd146105a357806307e32f0a146105cf57806308c36874146105f95780630962ef791461062357806309fc49ab1461064d575b600080fd5b34801561056a57600080fd5b506105916004803603602081101561058157600080fd5b50356001600160a01b03166118e8565b60408051918252519081900360200190f35b3480156105af57600080fd5b506105cd600480360360208110156105c657600080fd5b50356118fa565b005b3480156105db57600080fd5b506105cd600480360360208110156105f257600080fd5b5035611957565b34801561060557600080fd5b506105cd6004803603602081101561061c57600080fd5b5035611962565b34801561062f57600080fd5b506105cd6004803603602081101561064657600080fd5b5035611a2e565b34801561065957600080fd5b506105cd611b6e565b34801561066e57600080fd5b50610591611b7d565b34801561068357600080fd5b50610591611b88565b34801561069857600080fd5b506106a1611b91565b604080516001600160a01b039092168252519081900360200190f35b3480156106c957600080fd5b50610591600480360360408110156106e057600080fd5b506001600160a01b038135169060200135611ba0565b34801561070257600080fd5b506106a1611c29565b34801561071757600080fd5b50610591611c38565b34801561072c57600080fd5b50610591611c3e565b34801561074157600080fd5b506105cd600480360361012081101561075957600080fd5b506001600160a01b038135169060208101359060408101359060608101359060808101359060a08101359060c08101359060e0810135906101000135611c44565b3480156107a657600080fd5b50610591600480360360408110156107bd57600080fd5b5080359060200135611da4565b3480156107d657600080fd5b506105cd600480360360408110156107ed57600080fd5b5080359060200135611f7c565b34801561080657600080fd5b506108396004803603606081101561081d57600080fd5b506001600160a01b03813516906020810135906040013561201a565b60408051938452602084019290925282820152519081900360600190f35b34801561086357600080fd5b5061059161204c565b34801561087857600080fd5b506105cd61205f565b34801561088d57600080fd5b50610591612065565b3480156108a257600080fd5b506106a1612082565b3480156108b757600080fd5b50610591612091565b3480156108cc57600080fd5b506108d5612097565b6040805192835260208301919091528051918290030190f35b3480156108fa57600080fd5b506105cd6004803603602081101561091157600080fd5b50356120a1565b34801561092457600080fd5b506105cd6120fb565b34801561093957600080fd5b506105cd6004803603602081101561095057600080fd5b5035612107565b34801561096357600080fd5b506106a1612173565b34801561097857600080fd5b506109966004803603602081101561098f57600080fd5b5035612182565b604080519788526020880196909652868601949094526060860192909252608085015260a084015260c0830152519081900360e00190f35b3480156109da57600080fd5b506105cd600480360360a08110156109f157600080fd5b508035906020810135906001600160a01b0360408201358116916060810135821691608090910135166121c4565b348015610a2b57600080fd5b506105cd60048036036020811015610a4257600080fd5b50356122df565b348015610a5557600080fd5b506105cd60048036036040811015610a6c57600080fd5b5080359060200135612339565b348015610a8557600080fd5b506105cd60048036036040811015610a9c57600080fd5b5080359060200135612736565b348015610ab557600080fd5b506105cd60048036036060811015610acc57600080fd5b5080359060208101359060400135612868565b348015610aeb57600080fd5b506105cd6004803603610100811015610b0357600080fd5b6001600160a01b0382351691602081013591810190606081016040820135600160201b811115610b3257600080fd5b820183602082011115610b4457600080fd5b803590602001918460018302840111600160201b83111715610b6557600080fd5b919350915080359060208101359060408101359060608101359060800135612ae0565b348015610b9457600080fd5b50610b9d612b86565b604080516001600160e81b03199092168252519081900360200190f35b348015610bc657600080fd5b50610591612b90565b348015610bdb57600080fd5b5061059160048036036020811015610bf257600080fd5b5035612b96565b348015610c0557600080fd5b5061059160048036036040811015610c1c57600080fd5b5080359060200135612bcc565b348015610c3557600080fd5b506106a1612be9565b348015610c4a57600080fd5b50610591612bf8565b348015610c5f57600080fd5b50610591612c0f565b348015610c7457600080fd5b5061059160048036036040811015610c8b57600080fd5b506001600160a01b038135169060200135612c15565b348015610cad57600080fd5b5061059160048036036040811015610cc457600080fd5b5080359060200135612c53565b348015610cdd57600080fd5b506105cd60048036036020811015610cf457600080fd5b50356001600160a01b0316612c74565b348015610d1057600080fd5b50610591612cc0565b348015610d2557600080fd5b5061059160048036036040811015610d3c57600080fd5b506001600160a01b038135169060200135612cc6565b348015610d5e57600080fd5b506105cd60048036036020811015610d7557600080fd5b5035612d07565b348015610d8857600080fd5b5061059160048036036040811015610d9f57600080fd5b506001600160a01b038135169060200135612d61565b348015610dc157600080fd5b506105cd60048036036020811015610dd857600080fd5b50356001600160a01b0316612dcb565b348015610df457600080fd5b506105cd612e6e565b348015610e0957600080fd5b50610591612eff565b348015610e1e57600080fd5b50610591612f08565b348015610e3357600080fd5b50610e5160048036036020811015610e4a57600080fd5b5035612f0e565b6040805160208082528351818301528351919283929083019185019080838360005b83811015610e8b578181015183820152602001610e73565b50505050905090810190601f168015610eb85780820380516001836020036101000a031916815260200191505b509250505060405180910390f35b348015610ed257600080fd5b50610591612fa9565b348015610ee757600080fd5b50610591612fb8565b348015610efc57600080fd5b506105cd60048036036040811015610f1357600080fd5b5080359060200135612fbe565b348015610f2c57600080fd5b506105cd60048036036040811015610f4357600080fd5b506001600160a01b03813516906020013561304e565b348015610f6557600080fd5b506106a161309c565b348015610f7a57600080fd5b50610f836130ab565b604080519115158252519081900360200190f35b348015610fa357600080fd5b50610fd060048036036040811015610fba57600080fd5b506001600160a01b0381351690602001356130bc565b604080519485526020850193909352838301919091526060830152519081900360800190f35b6105cd6004803603602081101561100c57600080fd5b50356130ee565b34801561101f57600080fd5b506105916004803603604081101561103657600080fd5b50803590602001356130f9565b34801561104f57600080fd5b506105cd6004803603602081101561106657600080fd5b50356001600160a01b031661311a565b6105cd6004803603602081101561108c57600080fd5b810190602081018135600160201b8111156110a657600080fd5b8201836020820111156110b857600080fd5b803590602001918460018302840111600160201b831117156110d957600080fd5b509092509050613183565b3480156110f057600080fd5b50610591613305565b34801561110557600080fd5b506105916004803603604081101561111c57600080fd5b506001600160a01b03813516906020013561331c565b34801561113e57600080fd5b506105cd6004803603602081101561115557600080fd5b5035613339565b34801561116857600080fd5b506111866004803603602081101561117f57600080fd5b5035613393565b604080519788526020880196909652868601949094526060860192909252608085015260a08401526001600160a01b031660c0830152519081900360e00190f35b3480156111d357600080fd5b506105cd600480360360208110156111ea57600080fd5b50356133d9565b3480156111fd57600080fd5b506108396004803603604081101561121457600080fd5b506001600160a01b0381351690602001356134b9565b34801561123657600080fd5b506105916134e5565b34801561124b57600080fd5b506112696004803603602081101561126257600080fd5b50356134eb565b60408051602080825283518183015283519192839290830191858101910280838360005b838110156112a557818101518382015260200161128d565b505050509050019250505060405180910390f35b3480156112c557600080fd5b50610f83613550565b3480156112da57600080fd5b506105cd600480360360608110156112f157600080fd5b5080359060208101359060400135613561565b34801561131057600080fd5b50610f836004803603602081101561132757600080fd5b5035613574565b34801561133a57600080fd5b5061059161358b565b34801561134f57600080fd5b506105916004803603602081101561136657600080fd5b5035613597565b34801561137957600080fd5b506105916135a9565b34801561138e57600080fd5b506105cd600480360360408110156113a557600080fd5b508035906020013515156135af565b3480156113c057600080fd5b506105cd600480360360208110156113d757600080fd5b5035613791565b3480156113ea57600080fd5b506105916004803603604081101561140157600080fd5b506001600160a01b0381351690602001356137eb565b34801561142357600080fd5b50610f836004803603604081101561143a57600080fd5b506001600160a01b038135169060200135613808565b34801561145c57600080fd5b506105cd6004803603602081101561147357600080fd5b50356001600160a01b031661389e565b34801561148f57600080fd5b50610f836138f8565b3480156114a457600080fd5b506105cd600480360360208110156114bb57600080fd5b5035613901565b3480156114ce57600080fd5b5061059161395b565b3480156114e357600080fd5b50610f83613961565b3480156114f857600080fd5b506105916004803603604081101561150f57600080fd5b5080359060200135613972565b34801561152857600080fd5b506105cd6004803603606081101561153f57600080fd5b5080359060208101359060400135613993565b34801561155e57600080fd5b506105916004803603604081101561157557600080fd5b5080359060200135613a30565b34801561158e57600080fd5b506105cd600480360360208110156115a557600080fd5b810190602081018135600160201b8111156115bf57600080fd5b8201836020820111156115d157600080fd5b803590602001918460208302840111600160201b831117156115f257600080fd5b509092509050613a51565b34801561160957600080fd5b506105916004803603604081101561162057600080fd5b5080359060200135613b2b565b34801561163957600080fd5b506105cd6004803603606081101561165057600080fd5b6001600160a01b0382351691602081013591810190606081016040820135600160201b81111561167f57600080fd5b82018360208201111561169157600080fd5b803590602001918460018302840111600160201b831117156116b257600080fd5b509092509050613b4c565b3480156116c957600080fd5b506105cd600480360360208110156116e057600080fd5b5035613c4b565b3480156116f357600080fd5b506105cd6004803603608081101561170a57600080fd5b810190602081018135600160201b81111561172457600080fd5b82018360208201111561173657600080fd5b803590602001918460208302840111600160201b8311171561175757600080fd5b919390929091602081019035600160201b81111561177457600080fd5b82018360208201111561178657600080fd5b803590602001918460208302840111600160201b831117156117a757600080fd5b919390929091602081019035600160201b8111156117c457600080fd5b8201836020820111156117d657600080fd5b803590602001918460208302840111600160201b831117156117f757600080fd5b919390929091602081019035600160201b81111561181457600080fd5b82018360208201111561182657600080fd5b803590602001918460208302840111600160201b8311171561184757600080fd5b509092509050613ca5565b34801561185e57600080fd5b506105cd6004803603602081101561187557600080fd5b50356001600160a01b0316613e81565b34801561189157600080fd5b50610591600480360360408110156118a857600080fd5b506001600160a01b038135169060200135613ed1565b3480156118ca57600080fd5b506105cd600480360360208110156118e157600080fd5b5035613edd565b609e6020526000908152604090205481565b611902613961565b806119105750611910613550565b61194b5760405162461bcd60e51b81526004018080602001828103825260508152602001806167846050913960600191505060405180910390fd5b61195481613f37565b50565b60ba80549091019055565b3361196b616538565b6119758284613f72565b602081015181519192506000916119919163ffffffff61406616565b90506119b483856119af85604001518561406690919063ffffffff16565b6140c0565b6001600160a01b038316600081815260a860209081526040808320888452825291829020805485019055845185820151868401518451928352928201528083019190915290518692917f4119153d17a36f9597d40e3ab4148d03261a439dddbec4e91799ab7159608e26919081900360600190a350505050565b33611a37616538565b611a418284613f72565b90506000826001600160a01b0316611a7e8360400151611a728560200151866000015161406690919063ffffffff16565b9063ffffffff61406616565b604051600081818185875af1925050503d8060008114611aba576040519150601f19603f3d011682016040523d82523d6000602084013e611abf565b606091505b5050905080611b0a576040805162461bcd60e51b81526020600482015260126024820152714661696c656420746f2073656e642046544d60701b604482015290519081900360640190fd5b83836001600160a01b03167fc1d8eb6e444b89fb8ff0991c19311c070df704ccb009e210d1462d5b2410bf4584600001518560200151866040015160405180848152602001838152602001828152602001935050505060405180910390a350505050565b60bb805460ff19166001179055565b60b55461016d025b90565b60b454600e0290565b60b9546001600160a01b031681565b6000611bac8383613808565b611bda57506001600160a01b038216600090815260a760209081526040808320848452909152902054611c23565b6001600160a01b038316600081815260a86020908152604080832086845282528083205493835260a78252808320868452909152902054611c209163ffffffff6141bd16565b90505b92915050565b609a546001600160a01b031681565b60ba5481565b60ab5481565b611c4d336141ff565b611c885760405162461bcd60e51b81526004018080602001828103825260298152602001806166896029913960400191505060405180910390fd5b611c9389898961421e565b6001600160a01b038916600090815260a4602090815260408083208b84529091529020600201819055611cc587614383565b8515611d995786861115611d0a5760405162461bcd60e51b815260040180806020018281038252602c81526020018061687d602c913960400191505060405180910390fd5b6001600160a01b038916600081815260a8602090815260408083208c845282528083208a8155600181018a9055600281018990556003810188905584845260a983528184208d855283529281902086905580518781529182018a9052805192938c9390927f138940e95abffcd789b497bf6188bba3afa5fbd22fb5c42c2f6018d1bf0f4e7892908290030190a3505b505050505050505050565b33600081815260a860209081526040808320868452909152812090919083611e01576040805162461bcd60e51b815260206004820152600b60248201526a1e995c9bc8185b5bdd5b9d60aa1b604482015290519081900360640190fd5b611e0b8286613808565b611e4c576040805162461bcd60e51b815260206004820152600d60248201526c06e6f74206c6f636b656420757609c1b604482015290519081900360640190fd5b8054841115611ea2576040805162461bcd60e51b815260206004820152601760248201527f6e6f7420656e6f756768206c6f636b6564207374616b65000000000000000000604482015290519081900360640190fd5b611eac8286614408565b611ef8576040805162461bcd60e51b81526020600482015260186024820152776f75747374616e64696e67207346544d2062616c616e636560401b604482015290519081900360640190fd5b611f0282866144aa565b506000611f158387878560000154614675565b825486900383559050611f298387836147a6565b85836001600160a01b03167fef6c0c14fe9aa51af36acd791464dec3badbde668b63189b47bfa4e25be9b2b98784604051808381526020018281526020019250505060405180910390a395945050505050565b611f85336141ff565b611fc05760405162461bcd60e51b81526004018080602001828103825260298152602001806166896029913960400191505060405180910390fd5b80612001576040805162461bcd60e51b815260206004820152600c60248201526b77726f6e672073746174757360a01b604482015290519081900360640190fd5b61200b82826148f6565b6120168260006135af565b5050565b60a660209081526000938452604080852082529284528284209052825290208054600182015460029092015490919083565b6000612056614a20565b60b05402905090565b4260ba55565b60006064612071614a20565b60b254028161207c57fe5b04905090565b609a546001600160a01b031690565b60a25481565b60ad5460ae549091565b6120a9613961565b806120b757506120b7613550565b6120f25760405162461bcd60e51b81526004018080602001828103825260508152602001806167846050913960600191505060405180910390fd5b61195481614a2c565b60bb805460ff19169055565b61210f6130ab565b61214e576040805162461bcd60e51b81526020600482018190526024820152600080516020616736833981519152604482015290519081900360640190fd5b600081126121635760ab805482019055611954565b60ab805460008390039003905550565b6067546001600160a01b031690565b60ac60205280600052604060002060009150905080600701549080600801549080600901549080600a01549080600b01549080600c01549080600d0154905087565b600054610100900460ff16806121dd57506121dd614a67565b806121eb575060005460ff16155b6122265760405162461bcd60e51b815260040180806020018281038252602e815260200180616756602e913960400191505060405180910390fd5b600054610100900460ff16158015612251576000805460ff1961ff0019909116610100171660011790555b61225a83614a6d565b6122648284614b5e565b61226d82614c99565b609c869055609b80546001600160a01b0319166001600160a01b03861617905560ab8590556755cfe697852e904c60aa556103e860ad556203f48060ae556122b3612b90565b600087815260ac602052604090206007015580156122d7576000805461ff00191690555b505050505050565b6122e7613961565b806122f557506122f5613550565b6123305760405162461bcd60e51b81526004018080602001828103825260508152602001806167846050913960600191505060405180910390fd5b61195481614d84565b33612342616538565b506001600160a01b038116600090815260a660209081526040808320868452825280832085845282529182902082516060810184528154808252600183015493820193909352600290910154928101929092526123de576040805162461bcd60e51b81526020600482015260156024820152741c995c5d595cdd08191bd95cdb89dd08195e1a5cdd605a1b604482015290519081900360640190fd5b6123e88285614408565b612434576040805162461bcd60e51b81526020600482015260186024820152776f75747374616e64696e67207346544d2062616c616e636560401b604482015290519081900360640190fd5b60208082015182516000878152609d9093526040909220600101549091901580159061247057506000868152609d602052604090206001015482115b156124915750506000848152609d6020526040902060018101546002909101545b6124996134e5565b82016124a3612b90565b10156124ef576040805162461bcd60e51b81526020600482015260166024820152751b9bdd08195b9bdd59da081d1a5b59481c185cdcd95960521b604482015290519081900360640190fd5b6124f7612cc0565b8101612501612eff565b1015612554576040805162461bcd60e51b815260206004820152601860248201527f6e6f7420656e6f7567682065706f636873207061737365640000000000000000604482015290519081900360640190fd5b6001600160a01b038416600090815260a66020908152604080832089845282528083208884529091528120600201549061258d88613574565b905060006125af838360b860008d815260200190815260200160002054614dbf565b6001600160a01b038816600090815260a6602090815260408083208d845282528083208c84529091528120818155600181018290556002015560a3805482019055905080831161263f576040805162461bcd60e51b81526020600482015260166024820152751cdd185ad9481a5cc8199d5b1b1e481cdb185cda195960521b604482015290519081900360640190fd5b60006001600160a01b03881661265b858463ffffffff6141bd16565b604051600081818185875af1925050503d8060008114612697576040519150601f19603f3d011682016040523d82523d6000602084013e61269c565b606091505b50509050806126e7576040805162461bcd60e51b81526020600482015260126024820152714661696c656420746f2073656e642046544d60701b604482015290519081900360640190fd5b888a896001600160a01b03167f75e161b3e824b114fc1a33274bd7091918dd4e639cede50b78b15a4eea956a21876040518082815260200191505060405180910390a450505050505050505050565b61273e6130ab565b61277d576040805162461bcd60e51b81526020600482018190526024820152600080516020616736833981519152604482015290519081900360640190fd5b61278682613574565b6127d7576040805162461bcd60e51b815260206004820152601760248201527f76616c696461746f722069736e277420736c6173686564000000000000000000604482015290519081900360640190fd5b6127df614a20565b81111561281d5760405162461bcd60e51b81526004018080602001828103825260218152602001806167d46021913960400191505060405180910390fd5b600082815260b860209081526040918290208390558151838152915184927f047575f43f09a7a093d94ec483064acfc61b7e25c0de28017da442abf99cb91792908290030190a25050565b3361287381856144aa565b50600082116128b7576040805162461bcd60e51b815260206004820152600b60248201526a1e995c9bc8185b5bdd5b9d60aa1b604482015290519081900360640190fd5b6128c18185611ba0565b821115612915576040805162461bcd60e51b815260206004820152601960248201527f6e6f7420656e6f75676820756e6c6f636b6564207374616b6500000000000000604482015290519081900360640190fd5b61291f8185614408565b61296b576040805162461bcd60e51b81526020600482015260186024820152776f75747374616e64696e67207346544d2062616c616e636560401b604482015290519081900360640190fd5b6001600160a01b038116600090815260a6602090815260408083208784528252808320868452909152902060020154156129e2576040805162461bcd60e51b81526020600482015260136024820152727772494420616c72656164792065786973747360681b604482015290519081900360640190fd5b6129ed8185846147a6565b6001600160a01b038116600090815260a66020908152604080832087845282528083208684529091529020600201829055612a26612eff565b6001600160a01b038216600090815260a6602090815260408083208884528252808320878452909152902055612a5a612b90565b6001600160a01b038216600090815260a6602090815260408083208884528252808320878452909152812060010191909155612a979085906135af565b8284826001600160a01b03167fd3bb4e423fbea695d16b982f9f682dc5f35152e5411646a8a5a79a6b02ba8d57856040518082815260200191505060405180910390a450505050565b612ae9336141ff565b612b245760405162461bcd60e51b81526004018080602001828103825260298152602001806166896029913960400191505060405180910390fd5b612b6c898989898080601f0160208091040260200160405190810160405280939291908181526020018383808284376000920191909152508b92508a91508990508888614e21565b60a054881115611d995760a0889055505050505050505050565b6219981960e91b90565b60ba5490565b6000818152609d60209081526040808320600601546001600160a01b0316835260a782528083208484529091529020545b919050565b600091825260ac6020908152604080842092845291905290205490565b6066546001600160a01b031690565b60006064612c04614a20565b60b354028161207c57fe5b60a35481565b6000612c1f616538565b612c298484614fd0565b805160208201516040830151929350612c4b92611a729163ffffffff61406616565b949350505050565b600091825260ac602090815260408084209284526001909201905290205490565b612c7c613550565b612cb75760405162461bcd60e51b81526004018080602001828103825260318152602001806166b26031913960400191505060405180910390fd5b6119548161503e565b60b65490565b6000612cd28383613808565b612cde57506000611c23565b506001600160a01b0391909116600090815260a860209081526040808320938352929052205490565b612d0f613961565b80612d1d5750612d1d613550565b612d585760405162461bcd60e51b81526004018080602001828103825260508152602001806167846050913960600191505060405180910390fd5b611954816150df565b6000612d6b616538565b506001600160a01b038316600090815260a46020908152604080832085845282529182902082516060810184528154808252600183015493820184905260029092015493810184905292612c4b929091611a72919063ffffffff61406616565b612dd36130ab565b612e12576040805162461bcd60e51b81526020600482018190526024820152600080516020616736833981519152604482015290519081900360640190fd5b609a546040516001600160a01b038084169216907f434a2db650703b36c824e745330d6397cdaa9ee2cc891a4938ae853e1c50b68d90600090a3609a80546001600160a01b0319166001600160a01b0392909216919091179055565b612e766130ab565b612eb5576040805162461bcd60e51b81526020600482018190526024820152600080516020616736833981519152604482015290519081900360640190fd5b6033546040516000916001600160a01b0316907f8be0079c531659141344cd1fd0a4f28419497f9722a3daafe3b4186f6b6457e0908390a3603380546001600160a01b0319169055565b609c5460010190565b609c5481565b609f6020908152600091825260409182902080548351601f600260001961010060018616150201909316929092049182018490048402810184019094528084529091830182828015612fa15780601f10612f7657610100808354040283529160200191612fa1565b820191906000526020600020905b815481529060010190602001808311612f8457829003601f168201915b505050505081565b6000612fb361511a565b905090565b60a15481565b612fc66130ab565b613005576040805162461bcd60e51b81526020600482018190526024820152600080516020616736833981519152604482015290519081900360640190fd5b60ae81905560ad829055604080518381526020810183905281517f702756a07c05d0bbfd06fc17b67951a5f4deb7bb6b088407e68a58969daf2a34929181900390910190a15050565b61305882826144aa565b612016576040805162461bcd60e51b815260206004820152601060248201526f0dcdee8d0d2dcce40e8de40e6e8c2e6d60831b604482015290519081900360640190fd5b6033546001600160a01b031690565b6033546001600160a01b0316331490565b60a860209081526000928352604080842090915290825290208054600182015460028301546003909301549192909184565b6119543382346140c0565b600091825260ac602090815260408084209284526005909201905290205490565b6131226130ab565b613161576040805162461bcd60e51b81526020600482018190526024820152600080516020616736833981519152604482015290519081900360640190fd5b60b980546001600160a01b0319166001600160a01b0392909216919091179055565b61318b61358b565b3410156131d9576040805162461bcd60e51b8152602060048201526017602482015276696e73756666696369656e742073656c662d7374616b6560481b604482015290519081900360640190fd5b80158015906131e9575060428111155b613229576040805162461bcd60e51b815260206004820152600c60248201526b656d707479207075626b657960a01b604482015290519081900360640190fd5b6000805b600481101561326c5783838281016003190181811061324857fe5b909101356001600160f81b031916159050613264578160010191505b60010161322d565b50600081116132b3576040805162461bcd60e51b815260206004820152600e60248201526d696e76616c6964207075626b657960901b604482015290519081900360640190fd5b6132f33384848080601f01602080910402602001604051908101604052809392919081815260200183838082843760009201919091525061511e92505050565b6133003360a054346140c0565b505050565b60006064613311614a20565b60b154028161207c57fe5b60a560209081526000928352604080842090915290825290205481565b613341613961565b8061334f575061334f613550565b61338a5760405162461bcd60e51b81526004018080602001828103825260508152602001806167846050913960600191505060405180910390fd5b61195481615149565b609d60205260009081526040902080546001820154600283015460038401546004850154600586015460069096015494959394929391929091906001600160a01b031687565b6133e16130ab565b613420576040805162461bcd60e51b81526020600482018190526024820152600080516020616736833981519152604482015290519081900360640190fd5b6801c985c8903591eb2081111561347e576040805162461bcd60e51b815260206004820152601b60248201527f746f6f206c617267652072657761726420706572207365636f6e640000000000604482015290519081900360640190fd5b60aa8190556040805182815290517f8cd9dae1bbea2bc8a5e80ffce2c224727a25925130a03ae100619a8861ae23969181900360200190a150565b60a960209081526000928352604080842090915290825290208054600182015460029092015490919083565b60b75490565b600081815260ac602090815260409182902060060180548351818402810184019094528084526060939283018282801561354457602002820191906000526020600020905b815481526020019060010190808311613530575b50505050509050919050565b6067546001600160a01b0316331490565b3361356e81858585615184565b50505050565b6000908152609d6020526040902054608016151590565b670467fc915c2fc00090565b60b86020526000908152604090205481565b60a05481565b6135b882615436565b613603576040805162461bcd60e51b81526020600482015260176024820152761d985b1a59185d1bdc88191bd95cdb89dd08195e1a5cdd604a1b604482015290519081900360640190fd5b6000828152609d602052604090206003810154905415613621575060005b609b546040805163520337df60e11b8152600481018690526024810184905290516001600160a01b039092169163a4066fbe9160448082019260009290919082900301818387803b15801561367557600080fd5b505af1158015613689573d6000803e3d6000fd5b5050505081801561369957508015155b1561330057609b546000848152609f602052604090819020815163242a6e3f60e01b81526004810187815260248201938452825460026000196001831615610100020190911604604483018190526001600160a01b039095169463242a6e3f948994939091606490910190849080156137535780601f1061372857610100808354040283529160200191613753565b820191906000526020600020905b81548152906001019060200180831161373657829003601f168201915b50509350505050600060405180830381600087803b15801561377457600080fd5b505af1158015613788573d6000803e3d6000fd5b50505050505050565b613799613961565b806137a757506137a7613550565b6137e25760405162461bcd60e51b81526004018080602001828103825260508152602001806167846050913960600191505060405180910390fd5b6119548161544d565b60a760209081526000928352604080842090915290825290205481565b6001600160a01b038216600090815260a8602090815260408083208484529091528120600201541580159061385f57506001600160a01b038316600090815260a86020908152604080832085845290915290205415155b8015611c2057506001600160a01b038316600090815260a860209081526040808320858452909152902060020154613895612b90565b11159392505050565b6138a6613961565b806138b457506138b4613550565b6138ef5760405162461bcd60e51b81526004018080602001828103825260508152602001806167846050913960600191505060405180910390fd5b61195481615488565b60bb5460ff1681565b613909613961565b806139175750613917613550565b6139525760405162461bcd60e51b81526004018080602001828103825260508152602001806167846050913960600191505060405180910390fd5b61195481615529565b60aa5481565b6066546001600160a01b0316331490565b600091825260ac602090815260408084209284526003909201905290205490565b33816139d4576040805162461bcd60e51b815260206004820152600b60248201526a1e995c9bc8185b5bdd5b9d60aa1b604482015290519081900360640190fd5b6139de8185613808565b15613a24576040805162461bcd60e51b81526020600482015260116024820152700616c7265616479206c6f636b656420757607c1b604482015290519081900360640190fd5b61356e81858585615184565b600091825260ac602090815260408084209284526002909201905290205490565b613a5a336141ff565b613a955760405162461bcd60e51b81526004018080602001828103825260298152602001806166896029913960400191505060405180910390fd5b600060ac6000613aa3612eff565b8152602001908152602001600020905060008090505b82811015613b1c576000848483818110613acf57fe5b602090810292909201356000818152609d8452604080822060030154948890529020839055600c860154909350613b0d91508263ffffffff61406616565b600c8501555050600101613ab9565b5061356e600682018484616559565b600091825260ac602090815260408084209284526004909201905290205490565b613b546130ab565b613b93576040805162461bcd60e51b81526020600482018190526024820152600080516020616736833981519152604482015290519081900360640190fd5b613b9c83614383565b6040516001600160a01b0385169084156108fc029085906000818181858888f19350505050158015613bd2573d6000803e3d6000fd5b50836001600160a01b03167f9eec469b348bcf64bbfb60e46ce7b160e2e09bf5421496a2cdbc43714c28b8ad84848460405180848152602001806020018281038252848482818152602001925080828437600083820152604051601f909101601f1916909201829003965090945050505050a250505050565b613c53613961565b80613c615750613c61613550565b613c9c5760405162461bcd60e51b81526004018080602001828103825260508152602001806167846050913960600191505060405180910390fd5b61195481615564565b613cae336141ff565b613ce95760405162461bcd60e51b81526004018080602001828103825260298152602001806166896029913960400191505060405180910390fd5b600060ac6000613cf7612eff565b81526020019081526020016000209050606081600601805480602002602001604051908101604052809291908181526020018280548015613d5757602002820191906000526020600020905b815481526020019060010190808311613d43575b50505050509050613dde82828c8c80806020026020016040519081016040528093929190818152602001838360200280828437600081840152601f19601f820116905080830192505050505050508b8b8080602002602001604051908101604052809392919081815260200183836020028082843760009201919091525061559f92505050565b613e4d828288888080602002602001604051908101604052809392919081815260200183836020028082843760009201919091525050604080516020808c0282810182019093528b82529093508b92508a9182918501908490808284376000920191909152506156b592505050565b613e55612eff565b609c55613e60612b90565b60078301555060aa54600b82015560ab54600d909101555050505050505050565b613e896130ab565b613ec8576040805162461bcd60e51b81526020600482018190526024820152600080516020616736833981519152604482015290519081900360640190fd5b61195481615cfb565b6000611c208383615d9c565b613ee5613961565b80613ef35750613ef3613550565b613f2e5760405162461bcd60e51b81526004018080602001828103825260508152602001806167846050913960600191505060405180910390fd5b61195481615e5b565b60b08190556040805182815290517fd3b49810855efc7d611424cd0a8cc519b92cf2e97bd3516921dff1a19b101e359181900360200190a150565b613f7a616538565b613f8483836144aa565b50506001600160a01b038216600090815260a46020908152604080832084845282528083208151606081018352815480825260018301549482018590526002909201549281018390529392613fe292611a729163ffffffff61406616565b905080614025576040805162461bcd60e51b815260206004820152600c60248201526b7a65726f207265776172647360a01b604482015290519081900360640190fd5b6001600160a01b038416600090815260a4602090815260408083208684529091528120818155600181018290556002015561405f81614383565b5092915050565b600082820183811015611c20576040805162461bcd60e51b815260206004820152601b60248201527f536166654d6174683a206164646974696f6e206f766572666c6f770000000000604482015290519081900360640190fd5b6140c982615436565b614114576040805162461bcd60e51b81526020600482015260176024820152761d985b1a59185d1bdc88191bd95cdb89dd08195e1a5cdd604a1b604482015290519081900360640190fd5b6000828152609d60205260409020541561416e576040805162461bcd60e51b815260206004820152601660248201527576616c696461746f722069736e27742061637469766560501b604482015290519081900360640190fd5b61417983838361421e565b61418282615e96565b6133005760405162461bcd60e51b815260040180806020018281038252602981526020018061681d6029913960400191505060405180910390fd5b6000611c2083836040518060400160405280601e81526020017f536166654d6174683a207375627472616374696f6e206f766572666c6f770000815250615ede565b60bb5460009060ff161561421557506001612bc7565b611c2382615f75565b60008111614261576040805162461bcd60e51b815260206004820152600b60248201526a1e995c9bc8185b5bdd5b9d60aa1b604482015290519081900360640190fd5b61426b83836144aa565b506001600160a01b038316600090815260a7602090815260408083208584529091529020546142a0908263ffffffff61406616565b6001600160a01b038416600090815260a760209081526040808320868452825280832093909355609d905220600301546142e0818363ffffffff61406616565b6000848152609d602052604090206003015560a154614305908363ffffffff61406616565b60a1556000838152609d60205260409020546143325760a25461432e908363ffffffff61406616565b60a2555b61433d8382156135af565b60408051838152905184916001600160a01b038716917f9a8f44850296624dadfd9c246d17e47171d35727a181bd090aa14bbbe00238bb9181900360200190a350505050565b609b54604080516366e7ea0f60e01b81523060048201526024810184905290516001600160a01b03909216916366e7ea0f9160448082019260009290919082900301818387803b1580156143d657600080fd5b505af11580156143ea573d6000803e3d6000fd5b505060ab54614402925090508263ffffffff61406616565b60ab5550565b60b9546000906001600160a01b031661442357506001611c23565b60b954604080516321d585c360e01b81526001600160a01b03868116600483015260248201869052915191909216916321d585c3916044808301926020929190829003018186803b15801561447757600080fd5b505afa15801561448b573d6000803e3d6000fd5b505050506040513d60208110156144a157600080fd5b50519392505050565b60006144b4616538565b6144be8484615f89565b90506144c9836160c1565b6001600160a01b038516600081815260a56020908152604080832088845282528083209490945591815260a482528281208682528252829020825160608101845281548152600182015492810192909252600201549181019190915261452f908261611c565b6001600160a01b038516600081815260a460209081526040808320888452825280832085518155858301516001808301919091559582015160029182015593835260a98252808320888452825291829020825160608101845281548152948101549185019190915290910154908201526145a9908261611c565b6001600160a01b038516600090815260a960209081526040808320878452825291829020835181559083015160018201559101516002909101556145ed8484613808565b614650576001600160a01b038416600081815260a860209081526040808320878452825280832083815560018082018590556002808301869055600390920185905594845260a98352818420888552909252822082815592830182905591909101555b60208101511515806146625750805115155b80612c4b57506040015115159392505050565b6001600160a01b038416600090815260a96020908152604080832086845290915281205481906146bd9084906146b1908763ffffffff61618e16565b9063ffffffff6161e716565b6001600160a01b038716600090815260a960209081526040808320898452909152812060010154919250906146fe9085906146b1908863ffffffff61618e16565b6001600160a01b038816600090815260a9602090815260408083208a84529091529020549091506002820483019061473690846141bd565b6001600160a01b038916600090815260a9602090815260408083208b845290915290209081556001015461476a90836141bd565b6001600160a01b038916600090815260a9602090815260408083208b845290915290206001015585811061479b5750845b979650505050505050565b6001600160a01b038316600090815260a760209081526040808320858452825280832080548590039055609d9091529020600301546147eb908263ffffffff6141bd16565b6000838152609d602052604090206003015560a154614810908263ffffffff6141bd16565b60a1556000828152609d602052604090205461483d5760a254614839908263ffffffff6141bd16565b60a2555b600061484883612b96565b905080156148ef5761485861358b565b8110156148a6576040805162461bcd60e51b8152602060048201526017602482015276696e73756666696369656e742073656c662d7374616b6560481b604482015290519081900360640190fd5b6148af83615e96565b6148ea5760405162461bcd60e51b815260040180806020018281038252602981526020018061681d6029913960400191505060405180910390fd5b61356e565b61356e8360015b6000828152609d602052604090205415801561491157508015155b1561493e576000828152609d602052604090206003015460a25461493a9163ffffffff6141bd16565b60a2555b6000828152609d6020526040902054811115612016576000828152609d60205260409020818155600201546149e657614975612eff565b6000838152609d602052604090206002015561498f612b90565b6000838152609d60209081526040918290206001810184905560020154825190815290810192909252805184927fac4801c32a6067ff757446524ee4e7a373797278ac3c883eac5c693b4ad72e4792908290030190a25b60408051828152905183917fcd35267e7654194727477d6c78b541a553483cff7f92a055d17868d3da6e953e919081900360200190a25050565b670de0b6b3a764000090565b60b18190556040805182815290517f969e21e21af49053b3bfee796b627ebc26e10328889e90a47da2f1205d3e8f139181900360200190a150565b303b1590565b600054610100900460ff1680614a865750614a86614a67565b80614a94575060005460ff16155b614acf5760405162461bcd60e51b815260040180806020018281038252602e815260200180616756602e913960400191505060405180910390fd5b600054610100900460ff16158015614afa576000805460ff1961ff0019909116610100171660011790555b603380546001600160a01b0319166001600160a01b0384811691909117918290556040519116906000907f8be0079c531659141344cd1fd0a4f28419497f9722a3daafe3b4186f6b6457e0908290a38015612016576000805461ff00191690555050565b600054610100900460ff1680614b775750614b77614a67565b80614b85575060005460ff16155b614bc05760405162461bcd60e51b815260040180806020018281038252602e815260200180616756602e913960400191505060405180910390fd5b600054610100900460ff16158015614beb576000805460ff1961ff0019909116610100171660011790555b606680546001600160a01b038086166001600160a01b03199283161792839055606780548683169316929092179091556040519116906000907f5f56bee8cffbe9a78652a74a60705edede02af10b0bbb888ca44b79a0d42ce80908290a36067546040516001600160a01b03909116906000907fd91e5ba07efb2e532a3d502f5fb4451cf8fe4006f3b90283d8f2f51a06e5358c908290a38015613300576000805461ff0019169055505050565b600054610100900460ff1680614cb25750614cb2614a67565b80614cc0575060005460ff16155b614cfb5760405162461bcd60e51b815260040180806020018281038252602e815260200180616756602e913960400191505060405180910390fd5b600054610100900460ff16158015614d26576000805460ff1961ff0019909116610100171660011790555b609a80546001600160a01b0319166001600160a01b0384169081179091556040516000907f434a2db650703b36c824e745330d6397cdaa9ee2cc891a4938ae853e1c50b68d908290a38015612016576000805461ff00191690555050565b60b48190556040805182815290517f31d33f23d1e7fe45f7e898c070587ff0f2f519674e5e2a12f90b3a17c77f6ad19181900360200190a150565b6000821580614dd55750614dd1614a20565b8210155b15614de257506000614e1a565b614e0d6001611a72614df2614a20565b6146b186614dfe614a20565b8a91900363ffffffff61618e16565b905083811115614e1a5750825b9392505050565b6001600160a01b0388166000908152609e602052604090205415614e8c576040805162461bcd60e51b815260206004820152601860248201527f76616c696461746f7220616c7265616479206578697374730000000000000000604482015290519081900360640190fd5b6001600160a01b0388166000818152609e602090815260408083208b90558a8352609d82528083208981556004810189905560058101889055600181018690556002810187905560060180546001600160a01b031916909417909355609f81529190208751614efd928901906165a4565b50876001600160a01b0316877f49bca1ed2666922f9f1690c26a569e1299c2a715fe57647d77e81adfabbf25bf8686604051808381526020018281526020019250505060405180910390a38115614f89576040805183815260208101839052815189927fac4801c32a6067ff757446524ee4e7a373797278ac3c883eac5c693b4ad72e47928290030190a25b8415614fc65760408051868152905188917fcd35267e7654194727477d6c78b541a553483cff7f92a055d17868d3da6e953e919081900360200190a25b5050505050505050565b614fd8616538565b614fe0616538565b614fea8484615f89565b6001600160a01b038516600090815260a4602090815260408083208784528252918290208251606081018452815481526001820154928101929092526002015491810191909152909150612c4b908261611c565b6001600160a01b0381166150835760405162461bcd60e51b81526004018080602001828103825260378152602001806168466037913960400191505060405180910390fd5b6067546040516001600160a01b038084169216907fd91e5ba07efb2e532a3d502f5fb4451cf8fe4006f3b90283d8f2f51a06e5358c90600090a3606780546001600160a01b0319166001600160a01b0392909216919091179055565b60b68190556040805182815290517f2f273767369d76e1ecbee32ed26135f390df620f085feb7a6f2e3dd51985bd5f9181900360200190a150565b4290565b60a08054600101908190556133008382846000615139612eff565b615141612b90565b600080614e21565b60b28190556040805182815290517f12420e865335c7cfb225296eb0adaca14bfb1de93b3731ed1e0434746a4d91249181900360200190a150565b61518e8484611ba0565b8111156151d5576040805162461bcd60e51b815260206004820152601060248201526f6e6f7420656e6f756768207374616b6560801b604482015290519081900360640190fd5b6000838152609d60205260409020541561522f576040805162461bcd60e51b815260206004820152601660248201527576616c696461746f722069736e27742061637469766560501b604482015290519081900360640190fd5b615237611b88565b821015801561524d5750615249611b7d565b8211155b615293576040805162461bcd60e51b815260206004820152601260248201527134b731b7b93932b1ba10323ab930ba34b7b760711b604482015290519081900360640190fd5b60006152a183611a72612b90565b6000858152609d60205260409020600601549091506001600160a01b03908116908616811461532f576001600160a01b038116600090815260a86020908152604080832088845290915290206002015482111561532f5760405162461bcd60e51b81526004018080602001828103825260288152602001806167f56028913960400191505060405180910390fd5b61533986866144aa565b506001600160a01b038616600090815260a860209081526040808320888452909152902060038101548510156153b6576040805162461bcd60e51b815260206004820152601f60248201527f6c6f636b7570206475726174696f6e2063616e6e6f7420646563726561736500604482015290519081900360640190fd5b80546153c8908563ffffffff61406616565b81556153d2612eff565b600182015560028101839055600381018590556040805186815260208101869052815188926001600160a01b038b16927f138940e95abffcd789b497bf6188bba3afa5fbd22fb5c42c2f6018d1bf0f4e78929081900390910190a350505050505050565b6000908152609d6020526040902060050154151590565b60b38190556040805182815290517fcda2f8a6b9050afa9ac1f8d6ff9a123894f76a5530c6c29636332c995a1f97159181900360200190a150565b6001600160a01b0381166154cd5760405162461bcd60e51b81526004018080602001828103825260328152602001806166e36032913960400191505060405180910390fd5b6066546040516001600160a01b038084169216907f5f56bee8cffbe9a78652a74a60705edede02af10b0bbb888ca44b79a0d42ce8090600090a3606680546001600160a01b0319166001600160a01b0392909216919091179055565b60af8190556040805182815290517fe9a0db1369c39eb7fc2ed3d7e122f9ee60952b075329b1e84bce8843367210f49181900360200190a150565b60b78190556040805182815290517f9e85e6207a28e085f027a9b979cad850f4c36a581dd42c119e856c04b92d96119181900360200190a150565b60005b83518110156156ae5760ad548282815181106155ba57fe5b60200260200101511180156155e4575060ae548382815181106155d957fe5b602002602001015110155b15615625576156078482815181106155f857fe5b602002602001015160086148f6565b61562584828151811061561657fe5b602002602001015160006135af565b82818151811061563157fe5b602002602001015185600401600086848151811061564b57fe5b602002602001015181526020019081526020016000208190555081818151811061567157fe5b602002602001015185600501600086848151811061568b57fe5b6020908102919091018101518252810191909152604001600020556001016155a2565b5050505050565b6156bd616612565b6040518060c0016040528085516040519080825280602002602001820160405280156156f3578160200160208202803883390190505b50815260200160008152602001855160405190808252806020026020018201604052801561572b578160200160208202803883390190505b508152602001600081526020016000815260200160008152509050600060ac60006157656001615759612eff565b9063ffffffff6141bd16565b8152602081019190915260400160002060016080840152600781015490915061578c612b90565b11156157a657806007015461579f612b90565b0360808301525b60005b85518110156158ae5760008260030160008884815181106157c657fe5b602002602001015181526020019081526020016000205490506000809050818684815181106157f157fe5b60200260200101511115615818578186848151811061580c57fe5b60200260200101510390505b846080015187848151811061582957fe5b602002602001015182028161583a57fe5b048560400151848151811061584b57fe5b6020026020010181815250506158858560400151848151811061586a57fe5b6020026020010151866060015161406690919063ffffffff16565b606086015260a085015161589f908263ffffffff61406616565b60a086015250506001016157a9565b5060005b855181101561597f5782608001518582815181106158cc57fe5b602002602001015184608001518784815181106158e557fe5b60200260200101518a60000160008b87815181106158ff57fe5b6020026020010151815260200190815260200160002054028161591e57fe5b04028161592757fe5b048360000151828151811061593857fe5b6020026020010181815250506159728360000151828151811061595757fe5b6020026020010151846020015161406690919063ffffffff16565b60208401526001016158b2565b5060005b8551811015615cd35760006159bb846080015160aa54866000015185815181106159a957fe5b60200260200101518760200151616229565b90506159f76159ea8560a00151866040015185815181106159d857fe5b6020026020010151876060015161626a565b829063ffffffff61406616565b90506000878381518110615a0757fe5b6020908102919091018101516000818152609d90925260408220600601549092506001600160a01b031690615a4384615a3e613305565b6162c7565b6001600160a01b038316600090815260a7602090815260408083208784529091529020549091508015615bea57600081615a7d8587612cc6565b840281615a8657fe5b049050808303615a94616538565b6001600160a01b038616600090815260a8602090815260408083208a8452909152902060030154615ac69084906162e4565b9050615ad0616538565b615adb8360006162e4565b6001600160a01b038816600090815260a4602090815260408083208c84528252918290208251606081018452815481526001820154928101929092526002015491810191909152909150615b309083836163d5565b6001600160a01b038816600081815260a4602090815260408083208d8452825280832085518155858301516001808301919091559582015160029182015593835260a982528083208d845282529182902082516060810184528154815294810154918501919091529091015490820152615bab9083836163d5565b6001600160a01b038816600090815260a9602090815260408083208c845282529182902083518155908301516001820155910151600290910155505050505b6000848152609d6020526040812060030154838703918115615c1c5781615c0f614a20565b840281615c1857fe5b0490505b808a600101600089815260200190815260200160002054018f6001016000898152602001908152602001600020819055508b8981518110615c5957fe5b60200260200101518f6003016000898152602001908152602001600020819055508c8981518110615c8657fe5b60200260200101518a600201600089815260200190815260200160002054018f60020160008981526020019081526020016000208190555050505050505050508080600101915050615983565b505060a081015160088601556020810151600986015560600151600a90940193909355505050565b6001600160a01b038116615d405760405162461bcd60e51b81526004018080602001828103825260268152602001806166636026913960400191505060405180910390fd5b6033546040516001600160a01b038084169216907f8be0079c531659141344cd1fd0a4f28419497f9722a3daafe3b4186f6b6457e090600090a3603380546001600160a01b0319166001600160a01b0392909216919091179055565b6001600160a01b038216600090815260a860209081526040808320848452909152812060010154609c54615dd18585836163f0565b15615ddf579150611c239050565b615dea8585846163f0565b615df957600092505050611c23565b80821115615e0c57600092505050611c23565b80821015615e3f57600281830104615e258686836163f0565b15615e3557806001019250615e39565b8091505b50615e0c565b80615e4f57600092505050611c23565b60001901949350505050565b60b58190556040805182815290517fd830c33dec392daf6dfeac9834107217392396bc333bcbb92e6c1c1a5e8726319181900360200190a150565b6000615ec3615ea3614a20565b6146b1615eae61204c565b615eb786612b96565b9063ffffffff61618e16565b6000838152609d602052604090206003015411159050919050565b60008184841115615f6d5760405162461bcd60e51b81526004018080602001828103825283818151815260200191508051906020019080838360005b83811015615f32578181015183820152602001615f1a565b50505050905090810190601f168015615f5f5780820380516001836020036101000a031916815260200191505b509250505060405180910390fd5b505050900390565b609b546001600160a01b0390811691161490565b615f91616538565b6001600160a01b038316600090815260a56020908152604080832085845290915281205490615fbf846160c1565b90506000615fcd8686615d9c565b905081811115615fda5750805b82811015615fe55750815b6001600160a01b038616600081815260a860209081526040808320898452825280832093835260a78252808320898452909152812054825490919061603190839063ffffffff6141bd16565b9050600061604584600001548a898861645b565b905061604f616538565b61605d8286600301546162e4565b905061606b838b8a8961645b565b9150616075616538565b6160808360006162e4565b905061608e858c898b61645b565b9250616098616538565b6160a38460006162e4565b90506160b08383836163d5565b9d9c50505050505050505050505050565b6000818152609d602052604081206002015415616114576000828152609d6020526040902060020154609c5410156160fc5750609c54612bc7565b506000818152609d6020526040902060020154612bc7565b5050609c5490565b616124616538565b6040805160608101909152825184518291616145919063ffffffff61406616565b81526020016161658460200151866020015161406690919063ffffffff16565b81526020016161858460400151866040015161406690919063ffffffff16565b90529392505050565b60008261619d57506000611c23565b828202828482816161aa57fe5b0414611c205760405162461bcd60e51b81526004018080602001828103825260218152602001806167156021913960400191505060405180910390fd5b6000611c2083836040518060400160405280601a81526020017f536166654d6174683a206469766973696f6e206279207a65726f0000000000008152506164be565b60008261623857506000612c4b565b600061624a868663ffffffff61618e16565b9050616260836146b1838763ffffffff61618e16565b9695505050505050565b60008261627957506000614e1a565b600061628f836146b1878763ffffffff61618e16565b90506162be61629c614a20565b6146b16162a7612065565b6162af614a20565b8591900363ffffffff61618e16565b95945050505050565b6000611c206162d4614a20565b6146b1858563ffffffff61618e16565b6162ec616538565b6040518060600160405280600081526020016000815260200160008152509050816000146163a757600061631e612bf8565b616326614a20565b0390506000616346616336611b7d565b6146b1848763ffffffff61618e16565b9050600061636f616355614a20565b6146b184616361612bf8565b8a910163ffffffff61618e16565b905061639461637c614a20565b6146b1616387612bf8565b899063ffffffff61618e16565b602085018190529003835250611c239050565b6163ca6163b2614a20565b6146b16163bd612bf8565b869063ffffffff61618e16565b604082015292915050565b6163dd616538565b612c4b6163ea858561611c565b8361611c565b6001600160a01b038316600090815260a8602090815260408083208584529091528120600101548210801590612c4b57506001600160a01b038416600090815260a86020908152604080832086845290915290206002015461645183616523565b1115949350505050565b600081831061646c57506000612c4b565b600083815260ac602081815260408084208885526001908101835281852054878652938352818520898652019091529091205461479b6164aa614a20565b6146b189615eb7858763ffffffff6141bd16565b6000818361650d5760405162461bcd60e51b8152602060048201818152835160248401528351909283926044909101919085019080838360008315615f32578181015183820152602001615f1a565b50600083858161651957fe5b0495945050505050565b600090815260ac602052604090206007015490565b60405180606001604052806000815260200160008152602001600081525090565b828054828255906000526020600020908101928215616594579160200282015b82811115616594578235825591602001919060010190616579565b506165a0929150616648565b5090565b828054600181600116156101000203166002900490600052602060002090601f016020900481019282601f106165e557805160ff1916838001178555616594565b82800160010185558215616594579182015b828111156165945782518255916020019190600101906165f7565b6040518060c001604052806060815260200160008152602001606081526020016000815260200160008152602001600081525090565b611b8591905b808211156165a0576000815560010161664e56fe4f776e61626c653a206e6577206f776e657220697320746865207a65726f206164647265737363616c6c6572206973206e6f7420746865204e6f64654472697665724175746820636f6e7472616374476f7665726e616e6365526f6c653a2063616c6c6572206973206e6f7420746865207365636f6e64617279206f776e6572476f7665726e616e6365526f6c653a206e657720676f7665726e616e636520697320746865207a65726f2061646472657373536166654d6174683a206d756c7469706c69636174696f6e206f766572666c6f774f776e61626c653a2063616c6c6572206973206e6f7420746865206f776e6572436f6e747261637420696e7374616e63652068617320616c7265616479206265656e20696e697469616c697a6564476f7665726e616e6365526f6c653a20746869732066756e6374696f6e20697320636f6e74726f6c6c656420627920746865206f776e657220616e6420676f7665726e616e636520636f6e74726163746d757374206265206c657373207468616e206f7220657175616c20746f20312e3076616c696461746f72206c6f636b757020706572696f642077696c6c20656e64206561726c69657276616c696461746f7227732064656c65676174696f6e73206c696d6974206973206578636565646564476f7665726e616e6365526f6c653a206e6577207365636f6e64617279206f776e657220697320746865207a65726f20616464726573736c6f636b6564207374616b652069732067726561746572207468616e207468652077686f6c65207374616b65a265627a7a7231582077a650719b404361de681ccfc11f2852e22c37ac0f51acd9d962dd52148e800264736f6c63430005110032",
  "linkReferences": {},
  "deployedLinkReferences": {}
}