{
  "_format": "hh-sol-artifact-1",
  "contractName": "UnitTestSFC",
  "sourceName": "contracts/test/UnitTestSFC.sol",
  "abi": [
    {
      "anonymous": false,
      "inputs": [
        {
          "indexed": true,
          "internalType": "uint256",
          "name": "validatorID",
          "type": "uint256"
        },
        {
          "indexed": false,
          "internalType": "uint256",
          "name": "status",
          "type": "uint256"
        }
      ],
      "name": "ChangedValidatorStatus",
      "type": "event"
    },
    {
      "anonymous": false,
      "inputs": [
        {
          "indexed": true,
          "internalType": "address",
          "name": "delegator",
          "type": "address"
        },
        {
          "indexed": true,
          "internalType": "uint256",
          "name": "toValidatorID",
          "type": "uint256"
        },
        {
          "indexed": false,
          "internalType": "uint256",
          "name": "lockupExtraReward",
          "type": "uint256"
        },
        {
          "indexed": false,
          "internalType": "uint256",
          "name": "lockupBaseReward",
          "type": "uint256"
        },
        {
          "indexed": false,
          "internalType": "uint256",
          "name": "unlockedReward",
          "type": "uint256"
        }
      ],
      "name": "ClaimedRewards",
      "type": "event"
    },
    {
      "anonymous": false,
      "inputs": [
        {
          "indexed": true,
          "internalType": "uint256",
          "name": "validatorID",
          "type": "uint256"
        },
        {
          "indexed": true,
          "internalType": "address",
          "name": "auth",
          "type": "address"
        },
        {
          "indexed": false,
          "internalType": "uint256",
          "name": "createdEpoch",
          "type": "uint256"
        },
        {
          "indexed": false,
          "internalType": "uint256",
          "name": "createdTime",
          "type": "uint256"
        }
      ],
      "name": "CreatedValidator",
      "type": "event"
    },
    {
      "anonymous": false,
      "inputs": [
        {
          "indexed": true,
          "internalType": "uint256",
          "name": "validatorID",
          "type": "uint256"
        },
        {
          "indexed": false,
          "internalType": "uint256",
          "name": "deactivatedEpoch",
          "type": "uint256"
        },
        {
          "indexed": false,
          "internalType": "uint256",
          "name": "deactivatedTime",
          "type": "uint256"
        }
      ],
      "name": "DeactivatedValidator",
      "type": "event"
    },
    {
      "anonymous": false,
      "inputs": [
        {
          "indexed": true,
          "internalType": "address",
          "name": "delegator",
          "type": "address"
        },
        {
          "indexed": true,
          "internalType": "uint256",
          "name": "toValidatorID",
          "type": "uint256"
        },
        {
          "indexed": false,
          "internalType": "uint256",
          "name": "amount",
          "type": "uint256"
        }
      ],
      "name": "Delegated",
      "type": "event"
    },
    {
      "anonymous": false,
      "inputs": [
        {
          "indexed": true,
          "internalType": "address",
          "name": "previousAddress",
          "type": "address"
        },
        {
          "indexed": true,
          "internalType": "address",
          "name": "newAddress",
          "type": "address"
        }
      ],
      "name": "GovernanceUpdated",
      "type": "event"
    },
    {
      "anonymous": false,
      "inputs": [
        {
          "indexed": true,
          "internalType": "address",
          "name": "receiver",
          "type": "address"
        },
        {
          "indexed": false,
          "internalType": "uint256",
          "name": "amount",
          "type": "uint256"
        },
        {
          "indexed": false,
          "internalType": "string",
          "name": "justification",
          "type": "string"
        }
      ],
      "name": "InflatedFTM",
      "type": "event"
    },
    {
      "anonymous": false,
      "inputs": [
        {
          "indexed": true,
          "internalType": "address",
          "name": "delegator",
          "type": "address"
        },
        {
          "indexed": true,
          "internalType": "uint256",
          "name": "validatorID",
          "type": "uint256"
        },
        {
          "indexed": false,
          "internalType": "uint256",
          "name": "duration",
          "type": "uint256"
        },
        {
          "indexed": false,
          "internalType": "uint256",
          "name": "amount",
          "type": "uint256"
        }
      ],
      "name": "LockedUpStake",
      "type": "event"
    },
    {
      "anonymous": false,
      "inputs": [
        {
          "indexed": true,
          "internalType": "address",
          "name": "previousOwner",
          "type": "address"
        },
        {
          "indexed": true,
          "internalType": "address",
          "name": "newOwner",
          "type": "address"
        }
      ],
      "name": "OwnershipTransferred",
      "type": "event"
    },
    {
      "anonymous": false,
      "inputs": [
        {
          "indexed": true,
          "internalType": "address",
          "name": "delegator",
          "type": "address"
        },
        {
          "indexed": true,
          "internalType": "uint256",
          "name": "validatorID",
          "type": "uint256"
        },
        {
          "indexed": false,
          "internalType": "uint256",
          "name": "amount",
          "type": "uint256"
        }
      ],
      "name": "RefundedSlashedLegacyDelegation",
      "type": "event"
    },
    {
      "anonymous": false,
      "inputs": [
        {
          "indexed": true,
          "internalType": "address",
          "name": "delegator",
          "type": "address"
        },
        {
          "indexed": true,
          "internalType": "uint256",
          "name": "toValidatorID",
          "type": "uint256"
        },
        {
          "indexed": false,
          "internalType": "uint256",
          "name": "lockupExtraReward",
          "type": "uint256"
        },
        {
          "indexed": false,
          "internalType": "uint256",
          "name": "lockupBaseReward",
          "type": "uint256"
        },
        {
          "indexed": false,
          "internalType": "uint256",
          "name": "unlockedReward",
          "type": "uint256"
        }
      ],
      "name": "RestakedRewards",
      "type": "event"
    },
    {
      "anonymous": false,
      "inputs": [
        {
          "indexed": true,
          "internalType": "address",
          "name": "delegator",
          "type": "address"
        },
        {
          "indexed": true,
          "internalType": "uint256",
          "name": "toValidatorID",
          "type": "uint256"
        },
        {
          "indexed": true,
          "internalType": "uint256",
          "name": "wrID",
          "type": "uint256"
        },
        {
          "indexed": false,
          "internalType": "uint256",
          "name": "amount",
          "type": "uint256"
        }
      ],
      "name": "Undelegated",
      "type": "event"
    },
    {
      "anonymous": false,
      "inputs": [
        {
          "indexed": true,
          "internalType": "address",
          "name": "delegator",
          "type": "address"
        },
        {
          "indexed": true,
          "internalType": "uint256",
          "name": "validatorID",
          "type": "uint256"
        },
        {
          "indexed": false,
          "internalType": "uint256",
          "name": "amount",
          "type": "uint256"
        },
        {
          "indexed": false,
          "internalType": "uint256",
          "name": "penalty",
          "type": "uint256"
        }
      ],
      "name": "UnlockedStake",
      "type": "event"
    },
    {
      "anonymous": false,
      "inputs": [
        {
          "indexed": false,
          "internalType": "uint256",
          "name": "value",
          "type": "uint256"
        }
      ],
      "name": "UpdatedBaseRewardPerSec",
      "type": "event"
    },
    {
      "anonymous": false,
      "inputs": [
        {
          "indexed": false,
          "internalType": "uint256",
          "name": "contractCommission",
          "type": "uint256"
        }
      ],
      "name": "UpdatedContractCommission",
      "type": "event"
    },
    {
      "anonymous": false,
      "inputs": [
        {
          "indexed": false,
          "internalType": "uint256",
          "name": "maxDelegationRatio",
          "type": "uint256"
        }
      ],
      "name": "UpdatedMaxDelegationRatio",
      "type": "event"
    },
    {
      "anonymous": false,
      "inputs": [
        {
          "indexed": false,
          "internalType": "uint256",
          "name": "maxLockupDuration",
          "type": "uint256"
        }
      ],
      "name": "UpdatedMaxLockupDuration",
      "type": "event"
    },
    {
      "anonymous": false,
      "inputs": [
        {
          "indexed": false,
          "internalType": "uint256",
          "name": "minLockupDuration",
          "type": "uint256"
        }
      ],
      "name": "UpdatedMinLockupDuration",
      "type": "event"
    },
    {
      "anonymous": false,
      "inputs": [
        {
          "indexed": false,
          "internalType": "uint256",
          "name": "minSelfStake",
          "type": "uint256"
        }
      ],
      "name": "UpdatedMinSelfStake",
      "type": "event"
    },
    {
      "anonymous": false,
      "inputs": [
        {
          "indexed": false,
          "internalType": "uint256",
          "name": "blocksNum",
          "type": "uint256"
        },
        {
          "indexed": false,
          "internalType": "uint256",
          "name": "period",
          "type": "uint256"
        }
      ],
      "name": "UpdatedOfflinePenaltyThreshold",
      "type": "event"
    },
    {
      "anonymous": false,
      "inputs": [
        {
          "indexed": true,
          "internalType": "uint256",
          "name": "validatorID",
          "type": "uint256"
        },
        {
          "indexed": false,
          "internalType": "uint256",
          "name": "refundRatio",
          "type": "uint256"
        }
      ],
      "name": "UpdatedSlashingRefundRatio",
      "type": "event"
    },
    {
      "anonymous": false,
      "inputs": [
        {
          "indexed": false,
          "internalType": "uint256",
          "name": "unlockedRewardRatio",
          "type": "uint256"
        }
      ],
      "name": "UpdatedUnlockedRewardRatio",
      "type": "event"
    },
    {
      "anonymous": false,
      "inputs": [
        {
          "indexed": false,
          "internalType": "uint256",
          "name": "validatorCommission",
          "type": "uint256"
        }
      ],
      "name": "UpdatedValidatorCommission",
      "type": "event"
    },
    {
      "anonymous": false,
      "inputs": [
        {
          "indexed": false,
          "internalType": "uint256",
          "name": "Value",
          "type": "uint256"
        }
      ],
      "name": "UpdatedWithdrawalPeriodEpoch",
      "type": "event"
    },
    {
      "anonymous": false,
      "inputs": [
        {
          "indexed": false,
          "internalType": "uint256",
          "name": "withValuedrawalPeriodTime",
          "type": "uint256"
        }
      ],
      "name": "UpdatedWithdrawalPeriodTime",
      "type": "event"
    },
    {
      "anonymous": false,
      "inputs": [
        {
          "indexed": true,
          "internalType": "address",
          "name": "delegator",
          "type": "address"
        },
        {
          "indexed": true,
          "internalType": "uint256",
          "name": "toValidatorID",
          "type": "uint256"
        },
        {
          "indexed": true,
          "internalType": "uint256",
          "name": "wrID",
          "type": "uint256"
        },
        {
          "indexed": false,
          "internalType": "uint256",
          "name": "amount",
          "type": "uint256"
        }
      ],
      "name": "Withdrawn",
      "type": "event"
    },
    {
      "constant": false,
      "inputs": [
        {
          "internalType": "uint256",
          "name": "validatorID",
          "type": "uint256"
        },
        {
          "internalType": "bool",
          "name": "syncPubkey",
          "type": "bool"
        }
      ],
      "name": "_syncValidator",
      "outputs": [],
      "payable": false,
      "stateMutability": "nonpayable",
      "type": "function"
    },
    {
      "constant": true,
      "inputs": [],
      "name": "activeProposals",
      "outputs": [
        {
          "internalType": "uint256",
          "name": "",
          "type": "uint256"
        }
      ],
      "payable": false,
      "stateMutability": "view",
      "type": "function"
    },
    {
      "constant": false,
      "inputs": [
        {
          "internalType": "uint256",
          "name": "diff",
          "type": "uint256"
        }
      ],
      "name": "advanceTime",
      "outputs": [],
      "payable": false,
      "stateMutability": "nonpayable",
      "type": "function"
    },
    {
      "constant": true,
      "inputs": [],
      "name": "allowedNonNodeCalls",
      "outputs": [
        {
          "internalType": "bool",
          "name": "",
          "type": "bool"
        }
      ],
      "payable": false,
      "stateMutability": "view",
      "type": "function"
    },
    {
      "constant": true,
      "inputs": [],
      "name": "baseRewardPerSecond",
      "outputs": [
        {
          "internalType": "uint256",
          "name": "",
          "type": "uint256"
        }
      ],
      "payable": false,
      "stateMutability": "view",
      "type": "function"
    },
    {
      "constant": false,
      "inputs": [
        {
          "internalType": "uint256",
          "name": "toValidatorID",
          "type": "uint256"
        }
      ],
      "name": "claimRewards",
      "outputs": [],
      "payable": false,
      "stateMutability": "nonpayable",
      "type": "function"
    },
    {
      "constant": true,
      "inputs": [],
      "name": "contractCommission",
      "outputs": [
        {
          "internalType": "uint256",
          "name": "",
          "type": "uint256"
        }
      ],
      "payable": false,
      "stateMutability": "view",
      "type": "function"
    },
    {
      "constant": false,
      "inputs": [
        {
          "internalType": "bytes",
          "name": "pubkey",
          "type": "bytes"
        }
      ],
      "name": "createValidator",
      "outputs": [],
      "payable": true,
      "stateMutability": "payable",
      "type": "function"
    },
    {
      "constant": true,
      "inputs": [],
      "name": "currentEpoch",
      "outputs": [
        {
          "internalType": "uint256",
          "name": "",
          "type": "uint256"
        }
      ],
      "payable": false,
      "stateMutability": "view",
      "type": "function"
    },
    {
      "constant": true,
      "inputs": [],
      "name": "currentSealedEpoch",
      "outputs": [
        {
          "internalType": "uint256",
          "name": "",
          "type": "uint256"
        }
      ],
      "payable": false,
      "stateMutability": "view",
      "type": "function"
    },
    {
      "constant": false,
      "inputs": [
        {
          "internalType": "uint256",
          "name": "validatorID",
          "type": "uint256"
        },
        {
          "internalType": "uint256",
          "name": "status",
          "type": "uint256"
        }
      ],
      "name": "deactivateValidator",
      "outputs": [],
      "payable": false,
      "stateMutability": "nonpayable",
      "type": "function"
    },
    {
      "constant": false,
      "inputs": [
        {
          "internalType": "uint256",
          "name": "toValidatorID",
          "type": "uint256"
        }
      ],
      "name": "delegate",
      "outputs": [],
      "payable": true,
      "stateMutability": "payable",
      "type": "function"
    },
    {
      "constant": false,
      "inputs": [],
      "name": "disableNonNodeCalls",
      "outputs": [],
      "payable": false,
      "stateMutability": "nonpayable",
      "type": "function"
    },
    {
      "constant": false,
      "inputs": [],
      "name": "enableNonNodeCalls",
      "outputs": [],
      "payable": false,
      "stateMutability": "nonpayable",
      "type": "function"
    },
    {
      "constant": true,
      "inputs": [],
      "name": "getBlockTime",
      "outputs": [
        {
          "internalType": "uint256",
          "name": "",
          "type": "uint256"
        }
      ],
      "payable": false,
      "stateMutability": "view",
      "type": "function"
    },
    {
      "constant": true,
      "inputs": [
        {
          "internalType": "uint256",
          "name": "epoch",
          "type": "uint256"
        },
        {
          "internalType": "uint256",
          "name": "validatorID",
          "type": "uint256"
        }
      ],
      "name": "getEpochAccumulatedOriginatedTxsFee",
      "outputs": [
        {
          "internalType": "uint256",
          "name": "",
          "type": "uint256"
        }
      ],
      "payable": false,
      "stateMutability": "view",
      "type": "function"
    },
    {
      "constant": true,
      "inputs": [
        {
          "internalType": "uint256",
          "name": "epoch",
          "type": "uint256"
        },
        {
          "internalType": "uint256",
          "name": "validatorID",
          "type": "uint256"
        }
      ],
      "name": "getEpochAccumulatedRewardPerToken",
      "outputs": [
        {
          "internalType": "uint256",
          "name": "",
          "type": "uint256"
        }
      ],
      "payable": false,
      "stateMutability": "view",
      "type": "function"
    },
    {
      "constant": true,
      "inputs": [
        {
          "internalType": "uint256",
          "name": "epoch",
          "type": "uint256"
        },
        {
          "internalType": "uint256",
          "name": "validatorID",
          "type": "uint256"
        }
      ],
      "name": "getEpochAccumulatedUptime",
      "outputs": [
        {
          "internalType": "uint256",
          "name": "",
          "type": "uint256"
        }
      ],
      "payable": false,
      "stateMutability": "view",
      "type": "function"
    },
    {
      "constant": true,
      "inputs": [
        {
          "internalType": "uint256",
          "name": "epoch",
          "type": "uint256"
        },
        {
          "internalType": "uint256",
          "name": "validatorID",
          "type": "uint256"
        }
      ],
      "name": "getEpochOfflineBlocks",
      "outputs": [
        {
          "internalType": "uint256",
          "name": "",
          "type": "uint256"
        }
      ],
      "payable": false,
      "stateMutability": "view",
      "type": "function"
    },
    {
      "constant": true,
      "inputs": [
        {
          "internalType": "uint256",
          "name": "epoch",
          "type": "uint256"
        },
        {
          "internalType": "uint256",
          "name": "validatorID",
          "type": "uint256"
        }
      ],
      "name": "getEpochOfflineTime",
      "outputs": [
        {
          "internalType": "uint256",
          "name": "",
          "type": "uint256"
        }
      ],
      "payable": false,
      "stateMutability": "view",
      "type": "function"
    },
    {
      "constant": true,
      "inputs": [
        {
          "internalType": "uint256",
          "name": "epoch",
          "type": "uint256"
        },
        {
          "internalType": "uint256",
          "name": "validatorID",
          "type": "uint256"
        }
      ],
      "name": "getEpochReceivedStake",
      "outputs": [
        {
          "internalType": "uint256",
          "name": "",
          "type": "uint256"
        }
      ],
      "payable": false,
      "stateMutability": "view",
      "type": "function"
    },
    {
      "constant": true,
      "inputs": [
        {
          "internalType": "uint256",
          "name": "",
          "type": "uint256"
        }
      ],
      "name": "getEpochSnapshot",
      "outputs": [
        {
          "internalType": "uint256",
          "name": "endTime",
          "type": "uint256"
        },
        {
          "internalType": "uint256",
          "name": "epochFee",
          "type": "uint256"
        },
        {
          "internalType": "uint256",
          "name": "totalBaseRewardWeight",
          "type": "uint256"
        },
        {
          "internalType": "uint256",
          "name": "totalTxRewardWeight",
          "type": "uint256"
        },
        {
          "internalType": "uint256",
          "name": "baseRewardPerSecond",
          "type": "uint256"
        },
        {
          "internalType": "uint256",
          "name": "totalStake",
          "type": "uint256"
        },
        {
          "internalType": "uint256",
          "name": "totalSupply",
          "type": "uint256"
        }
      ],
      "payable": false,
      "stateMutability": "view",
      "type": "function"
    },
    {
      "constant": true,
      "inputs": [
        {
          "internalType": "uint256",
          "name": "epoch",
          "type": "uint256"
        }
      ],
      "name": "getEpochValidatorIDs",
      "outputs": [
        {
          "internalType": "uint256[]",
          "name": "",
          "type": "uint256[]"
        }
      ],
      "payable": false,
      "stateMutability": "view",
      "type": "function"
    },
    {
      "constant": true,
      "inputs": [],
      "name": "getGovernance",
      "outputs": [
        {
          "internalType": "address",
          "name": "",
          "type": "address"
        }
      ],
      "payable": false,
      "stateMutability": "view",
      "type": "function"
    },
    {
      "constant": true,
      "inputs": [
        {
          "internalType": "address",
          "name": "delegator",
          "type": "address"
        },
        {
          "internalType": "uint256",
          "name": "toValidatorID",
          "type": "uint256"
        }
      ],
      "name": "getLockedStake",
      "outputs": [
        {
          "internalType": "uint256",
          "name": "",
          "type": "uint256"
        }
      ],
      "payable": false,
      "stateMutability": "view",
      "type": "function"
    },
    {
      "constant": true,
      "inputs": [
        {
          "internalType": "address",
          "name": "",
          "type": "address"
        },
        {
          "internalType": "uint256",
          "name": "",
          "type": "uint256"
        }
      ],
      "name": "getLockupInfo",
      "outputs": [
        {
          "internalType": "uint256",
          "name": "lockedStake",
          "type": "uint256"
        },
        {
          "internalType": "uint256",
          "name": "fromEpoch",
          "type": "uint256"
        },
        {
          "internalType": "uint256",
          "name": "endTime",
          "type": "uint256"
        },
        {
          "internalType": "uint256",
          "name": "duration",
          "type": "uint256"
        }
      ],
      "payable": false,
      "stateMutability": "view",
      "type": "function"
    },
    {
      "constant": true,
      "inputs": [
        {
          "internalType": "uint256",
          "name": "validatorID",
          "type": "uint256"
        }
      ],
      "name": "getSelfStake",
      "outputs": [
        {
          "internalType": "uint256",
          "name": "",
          "type": "uint256"
        }
      ],
      "payable": false,
      "stateMutability": "view",
      "type": "function"
    },
    {
      "constant": true,
      "inputs": [
        {
          "internalType": "address",
          "name": "",
          "type": "address"
        },
        {
          "internalType": "uint256",
          "name": "",
          "type": "uint256"
        }
      ],
      "name": "getStake",
      "outputs": [
        {
          "internalType": "uint256",
          "name": "",
          "type": "uint256"
        }
      ],
      "payable": false,
      "stateMutability": "view",
      "type": "function"
    },
    {
      "constant": true,
      "inputs": [
        {
          "internalType": "address",
          "name": "",
          "type": "address"
        },
        {
          "internalType": "uint256",
          "name": "",
          "type": "uint256"
        }
      ],
      "name": "getStashedLockupRewards",
      "outputs": [
        {
          "internalType": "uint256",
          "name": "lockupExtraReward",
          "type": "uint256"
        },
        {
          "internalType": "uint256",
          "name": "lockupBaseReward",
          "type": "uint256"
        },
        {
          "internalType": "uint256",
          "name": "unlockedReward",
          "type": "uint256"
        }
      ],
      "payable": false,
      "stateMutability": "view",
      "type": "function"
    },
    {
      "constant": true,
      "inputs": [],
      "name": "getTime",
      "outputs": [
        {
          "internalType": "uint256",
          "name": "",
          "type": "uint256"
        }
      ],
      "payable": false,
      "stateMutability": "view",
      "type": "function"
    },
    {
      "constant": true,
      "inputs": [
        {
          "internalType": "address",
          "name": "delegator",
          "type": "address"
        },
        {
          "internalType": "uint256",
          "name": "toValidatorID",
          "type": "uint256"
        }
      ],
      "name": "getUnlockedStake",
      "outputs": [
        {
          "internalType": "uint256",
          "name": "",
          "type": "uint256"
        }
      ],
      "payable": false,
      "stateMutability": "view",
      "type": "function"
    },
    {
      "constant": true,
      "inputs": [
        {
          "internalType": "uint256",
          "name": "",
          "type": "uint256"
        }
      ],
      "name": "getValidator",
      "outputs": [
        {
          "internalType": "uint256",
          "name": "status",
          "type": "uint256"
        },
        {
          "internalType": "uint256",
          "name": "deactivatedTime",
          "type": "uint256"
        },
        {
          "internalType": "uint256",
          "name": "deactivatedEpoch",
          "type": "uint256"
        },
        {
          "internalType": "uint256",
          "name": "receivedStake",
          "type": "uint256"
        },
        {
          "internalType": "uint256",
          "name": "createdEpoch",
          "type": "uint256"
        },
        {
          "internalType": "uint256",
          "name": "createdTime",
          "type": "uint256"
        },
        {
          "internalType": "address",
          "name": "auth",
          "type": "address"
        }
      ],
      "payable": false,
      "stateMutability": "view",
      "type": "function"
    },
    {
      "constant": true,
      "inputs": [
        {
          "internalType": "address",
          "name": "",
          "type": "address"
        }
      ],
      "name": "getValidatorID",
      "outputs": [
        {
          "internalType": "uint256",
          "name": "",
          "type": "uint256"
        }
      ],
      "payable": false,
      "stateMutability": "view",
      "type": "function"
    },
    {
      "constant": true,
      "inputs": [
        {
          "internalType": "uint256",
          "name": "",
          "type": "uint256"
        }
      ],
      "name": "getValidatorPubkey",
      "outputs": [
        {
          "internalType": "bytes",
          "name": "",
          "type": "bytes"
        }
      ],
      "payable": false,
      "stateMutability": "view",
      "type": "function"
    },
    {
      "constant": true,
      "inputs": [
        {
          "internalType": "address",
          "name": "",
          "type": "address"
        },
        {
          "internalType": "uint256",
          "name": "",
          "type": "uint256"
        },
        {
          "internalType": "uint256",
          "name": "",
          "type": "uint256"
        }
      ],
      "name": "getWithdrawalRequest",
      "outputs": [
        {
          "internalType": "uint256",
          "name": "epoch",
          "type": "uint256"
        },
        {
          "internalType": "uint256",
          "name": "time",
          "type": "uint256"
        },
        {
          "internalType": "uint256",
          "name": "amount",
          "type": "uint256"
        }
      ],
      "payable": false,
      "stateMutability": "view",
      "type": "function"
    },
    {
      "constant": true,
      "inputs": [
        {
          "internalType": "address",
          "name": "delegator",
          "type": "address"
        },
        {
          "internalType": "uint256",
          "name": "validatorID",
          "type": "uint256"
        }
      ],
      "name": "highestLockupEpoch",
      "outputs": [
        {
          "internalType": "uint256",
          "name": "",
          "type": "uint256"
        }
      ],
      "payable": false,
      "stateMutability": "view",
      "type": "function"
    },
    {
      "constant": false,
      "inputs": [
        {
          "internalType": "uint256",
          "name": "sealedEpoch",
          "type": "uint256"
        },
        {
          "internalType": "uint256",
          "name": "_totalSupply",
          "type": "uint256"
        },
        {
          "internalType": "address",
          "name": "nodeDriver",
          "type": "address"
        },
        {
          "internalType": "address",
          "name": "owner",
          "type": "address"
        },
        {
          "internalType": "address",
          "name": "governance",
          "type": "address"
        }
      ],
      "name": "initialize",
      "outputs": [],
      "payable": false,
      "stateMutability": "nonpayable",
      "type": "function"
    },
    {
      "constant": true,
      "inputs": [
        {
          "internalType": "address",
          "name": "delegator",
          "type": "address"
        },
        {
          "internalType": "uint256",
          "name": "toValidatorID",
          "type": "uint256"
        }
      ],
      "name": "isLockedUp",
      "outputs": [
        {
          "internalType": "bool",
          "name": "",
          "type": "bool"
        }
      ],
      "payable": false,
      "stateMutability": "view",
      "type": "function"
    },
    {
      "constant": true,
      "inputs": [],
      "name": "isOwner",
      "outputs": [
        {
          "internalType": "bool",
          "name": "",
          "type": "bool"
        }
      ],
      "payable": false,
      "stateMutability": "view",
      "type": "function"
    },
    {
      "constant": true,
      "inputs": [
        {
          "internalType": "uint256",
          "name": "validatorID",
          "type": "uint256"
        }
      ],
      "name": "isSlashed",
      "outputs": [
        {
          "internalType": "bool",
          "name": "",
          "type": "bool"
        }
      ],
      "payable": false,
      "stateMutability": "view",
      "type": "function"
    },
    {
      "constant": true,
      "inputs": [],
      "name": "lastValidatorID",
      "outputs": [
        {
          "internalType": "uint256",
          "name": "",
          "type": "uint256"
        }
      ],
      "payable": false,
      "stateMutability": "view",
      "type": "function"
    },
    {
      "constant": false,
      "inputs": [
        {
          "internalType": "uint256",
          "name": "toValidatorID",
          "type": "uint256"
        },
        {
          "internalType": "uint256",
          "name": "lockupDuration",
          "type": "uint256"
        },
        {
          "internalType": "uint256",
          "name": "amount",
          "type": "uint256"
        }
      ],
      "name": "lockStake",
      "outputs": [],
      "payable": false,
      "stateMutability": "nonpayable",
      "type": "function"
    },
    {
      "constant": true,
      "inputs": [],
      "name": "maxDelegatedRatio",
      "outputs": [
        {
          "internalType": "uint256",
          "name": "",
          "type": "uint256"
        }
      ],
      "payable": false,
      "stateMutability": "view",
      "type": "function"
    },
    {
      "constant": true,
      "inputs": [],
      "name": "maxLockupDuration",
      "outputs": [
        {
          "internalType": "uint256",
          "name": "",
          "type": "uint256"
        }
      ],
      "payable": false,
      "stateMutability": "view",
      "type": "function"
    },
    {
      "constant": true,
      "inputs": [],
      "name": "minLockupDuration",
      "outputs": [
        {
          "internalType": "uint256",
          "name": "",
          "type": "uint256"
        }
      ],
      "payable": false,
      "stateMutability": "view",
      "type": "function"
    },
    {
      "constant": true,
      "inputs": [],
      "name": "minSelfStake",
      "outputs": [
        {
          "internalType": "uint256",
          "name": "",
          "type": "uint256"
        }
      ],
      "payable": false,
      "stateMutability": "view",
      "type": "function"
    },
    {
      "constant": false,
      "inputs": [
        {
          "internalType": "address payable",
          "name": "receiver",
          "type": "address"
        },
        {
          "internalType": "uint256",
          "name": "amount",
          "type": "uint256"
        },
        {
          "internalType": "string",
          "name": "justification",
          "type": "string"
        }
      ],
      "name": "mintFTM",
      "outputs": [],
      "payable": false,
      "stateMutability": "nonpayable",
      "type": "function"
    },
    {
      "constant": true,
      "inputs": [],
      "name": "offlinePenaltyThreshold",
      "outputs": [
        {
          "internalType": "uint256",
          "name": "blocksNum",
          "type": "uint256"
        },
        {
          "internalType": "uint256",
          "name": "time",
          "type": "uint256"
        }
      ],
      "payable": false,
      "stateMutability": "view",
      "type": "function"
    },
    {
      "constant": true,
      "inputs": [],
      "name": "owner",
      "outputs": [
        {
          "internalType": "address",
          "name": "",
          "type": "address"
        }
      ],
      "payable": false,
      "stateMutability": "view",
      "type": "function"
    },
    {
      "constant": true,
      "inputs": [
        {
          "internalType": "address",
          "name": "delegator",
          "type": "address"
        },
        {
          "internalType": "uint256",
          "name": "toValidatorID",
          "type": "uint256"
        }
      ],
      "name": "pendingRewards",
      "outputs": [
        {
          "internalType": "uint256",
          "name": "",
          "type": "uint256"
        }
      ],
      "payable": false,
      "stateMutability": "view",
      "type": "function"
    },
    {
      "constant": false,
      "inputs": [],
      "name": "rebaseTime",
      "outputs": [],
      "payable": false,
      "stateMutability": "nonpayable",
      "type": "function"
    },
    {
      "constant": false,
      "inputs": [
        {
          "internalType": "uint256",
          "name": "toValidatorID",
          "type": "uint256"
        },
        {
          "internalType": "uint256",
          "name": "lockupDuration",
          "type": "uint256"
        },
        {
          "internalType": "uint256",
          "name": "amount",
          "type": "uint256"
        }
      ],
      "name": "relockStake",
      "outputs": [],
      "payable": false,
      "stateMutability": "nonpayable",
      "type": "function"
    },
    {
      "constant": false,
      "inputs": [],
      "name": "renounceOwnership",
      "outputs": [],
      "payable": false,
      "stateMutability": "nonpayable",
      "type": "function"
    },
    {
      "constant": false,
      "inputs": [
        {
          "internalType": "uint256",
          "name": "toValidatorID",
          "type": "uint256"
        }
      ],
      "name": "restakeRewards",
      "outputs": [],
      "payable": false,
      "stateMutability": "nonpayable",
      "type": "function"
    },
    {
      "constant": true,
      "inputs": [
        {
          "internalType": "address",
          "name": "delegator",
          "type": "address"
        },
        {
          "internalType": "uint256",
          "name": "validatorID",
          "type": "uint256"
        }
      ],
      "name": "rewardsStash",
      "outputs": [
        {
          "internalType": "uint256",
          "name": "",
          "type": "uint256"
        }
      ],
      "payable": false,
      "stateMutability": "view",
      "type": "function"
    },
    {
      "constant": false,
      "inputs": [
        {
          "internalType": "uint256[]",
          "name": "offlineTime",
          "type": "uint256[]"
        },
        {
          "internalType": "uint256[]",
          "name": "offlineBlocks",
          "type": "uint256[]"
        },
        {
          "internalType": "uint256[]",
          "name": "uptimes",
          "type": "uint256[]"
        },
        {
          "internalType": "uint256[]",
          "name": "originatedTxsFee",
          "type": "uint256[]"
        }
      ],
      "name": "sealEpoch",
      "outputs": [],
      "payable": false,
      "stateMutability": "nonpayable",
      "type": "function"
    },
    {
      "constant": false,
      "inputs": [
        {
          "internalType": "uint256[]",
          "name": "nextValidatorIDs",
          "type": "uint256[]"
        }
      ],
      "name": "sealEpochValidators",
      "outputs": [],
      "payable": false,
      "stateMutability": "nonpayable",
      "type": "function"
    },
    {
      "constant": false,
      "inputs": [
        {
          "internalType": "uint256",
          "name": "_contractCommission",
          "type": "uint256"
        }
      ],
      "name": "setContractCommission",
      "outputs": [],
      "payable": false,
      "stateMutability": "nonpayable",
      "type": "function"
    },
    {
      "constant": false,
      "inputs": [
        {
          "internalType": "address",
          "name": "delegator",
          "type": "address"
        },
        {
          "internalType": "uint256",
          "name": "toValidatorID",
          "type": "uint256"
        },
        {
          "internalType": "uint256",
          "name": "stake",
          "type": "uint256"
        },
        {
          "internalType": "uint256",
          "name": "lockedStake",
          "type": "uint256"
        },
        {
          "internalType": "uint256",
          "name": "lockupFromEpoch",
          "type": "uint256"
        },
        {
          "internalType": "uint256",
          "name": "lockupEndTime",
          "type": "uint256"
        },
        {
          "internalType": "uint256",
          "name": "lockupDuration",
          "type": "uint256"
        },
        {
          "internalType": "uint256",
          "name": "earlyUnlockPenalty",
          "type": "uint256"
        },
        {
          "internalType": "uint256",
          "name": "rewards",
          "type": "uint256"
        }
      ],
      "name": "setGenesisDelegation",
      "outputs": [],
      "payable": false,
      "stateMutability": "nonpayable",
      "type": "function"
    },
    {
      "constant": false,
      "inputs": [
        {
          "internalType": "address",
          "name": "auth",
          "type": "address"
        },
        {
          "internalType": "uint256",
          "name": "validatorID",
          "type": "uint256"
        },
        {
          "internalType": "bytes",
          "name": "pubkey",
          "type": "bytes"
        },
        {
          "internalType": "uint256",
          "name": "status",
          "type": "uint256"
        },
        {
          "internalType": "uint256",
          "name": "createdEpoch",
          "type": "uint256"
        },
        {
          "internalType": "uint256",
          "name": "createdTime",
          "type": "uint256"
        },
        {
          "internalType": "uint256",
          "name": "deactivatedEpoch",
          "type": "uint256"
        },
        {
          "internalType": "uint256",
          "name": "deactivatedTime",
          "type": "uint256"
        }
      ],
      "name": "setGenesisValidator",
      "outputs": [],
      "payable": false,
      "stateMutability": "nonpayable",
      "type": "function"
    },
    {
      "constant": false,
      "inputs": [
        {
          "internalType": "uint256",
          "name": "_maxDelegationRatio",
          "type": "uint256"
        }
      ],
      "name": "setMaxDelegation",
      "outputs": [],
      "payable": false,
      "stateMutability": "nonpayable",
      "type": "function"
    },
    {
      "constant": false,
      "inputs": [
        {
          "internalType": "uint256",
          "name": "_maxLockupDuration",
          "type": "uint256"
        }
      ],
      "name": "setMaxLockupDuration",
      "outputs": [],
      "payable": false,
      "stateMutability": "nonpayable",
      "type": "function"
    },
    {
      "constant": false,
      "inputs": [
        {
          "internalType": "uint256",
          "name": "_minLockupDuration",
          "type": "uint256"
        }
      ],
      "name": "setMinLockupDuration",
      "outputs": [],
      "payable": false,
      "stateMutability": "nonpayable",
      "type": "function"
    },
    {
      "constant": false,
      "inputs": [
        {
          "internalType": "uint256",
          "name": "_minSelfStake",
          "type": "uint256"
        }
      ],
      "name": "setMinSelfStake",
      "outputs": [],
      "payable": false,
      "stateMutability": "nonpayable",
      "type": "function"
    },
    {
      "constant": false,
      "inputs": [
        {
          "internalType": "uint256",
          "name": "_unlockedReward",
          "type": "uint256"
        }
      ],
      "name": "setUnlockedRewardRatio",
      "outputs": [],
      "payable": false,
      "stateMutability": "nonpayable",
      "type": "function"
    },
    {
      "constant": false,
      "inputs": [
        {
          "internalType": "uint256",
          "name": "_validatorCommission",
          "type": "uint256"
        }
      ],
      "name": "setValidatorCommission",
      "outputs": [],
      "payable": false,
      "stateMutability": "nonpayable",
      "type": "function"
    },
    {
      "constant": false,
      "inputs": [
        {
          "internalType": "uint256",
          "name": "_withdrawalPeriodEpochs",
          "type": "uint256"
        }
      ],
      "name": "setWithdrawalPeriodEpoch",
      "outputs": [],
      "payable": false,
      "stateMutability": "nonpayable",
      "type": "function"
    },
    {
      "constant": false,
      "inputs": [
        {
          "internalType": "uint256",
          "name": "_withdrawalPeriodTime",
          "type": "uint256"
        }
      ],
      "name": "setWithdrawalPeriodTime",
      "outputs": [],
      "payable": false,
      "stateMutability": "nonpayable",
      "type": "function"
    },
    {
      "constant": true,
      "inputs": [
        {
          "internalType": "uint256",
          "name": "",
          "type": "uint256"
        }
      ],
      "name": "slashingRefundRatio",
      "outputs": [
        {
          "internalType": "uint256",
          "name": "",
          "type": "uint256"
        }
      ],
      "payable": false,
      "stateMutability": "view",
      "type": "function"
    },
    {
      "constant": true,
      "inputs": [],
      "name": "stakeTokenizerAddress",
      "outputs": [
        {
          "internalType": "address",
          "name": "",
          "type": "address"
        }
      ],
      "payable": false,
      "stateMutability": "view",
      "type": "function"
    },
    {
      "constant": false,
      "inputs": [
        {
          "internalType": "address",
          "name": "delegator",
          "type": "address"
        },
        {
          "internalType": "uint256",
          "name": "toValidatorID",
          "type": "uint256"
        }
      ],
      "name": "stashRewards",
      "outputs": [],
      "payable": false,
      "stateMutability": "nonpayable",
      "type": "function"
    },
    {
      "constant": true,
      "inputs": [
        {
          "internalType": "address",
          "name": "",
          "type": "address"
        },
        {
          "internalType": "uint256",
          "name": "",
          "type": "uint256"
        }
      ],
      "name": "stashedRewardsUntilEpoch",
      "outputs": [
        {
          "internalType": "uint256",
          "name": "",
          "type": "uint256"
        }
      ],
      "payable": false,
      "stateMutability": "view",
      "type": "function"
    },
    {
      "constant": true,
      "inputs": [],
      "name": "time",
      "outputs": [
        {
          "internalType": "uint256",
          "name": "",
          "type": "uint256"
        }
      ],
      "payable": false,
      "stateMutability": "view",
      "type": "function"
    },
    {
      "constant": true,
      "inputs": [],
      "name": "totalActiveStake",
      "outputs": [
        {
          "internalType": "uint256",
          "name": "",
          "type": "uint256"
        }
      ],
      "payable": false,
      "stateMutability": "view",
      "type": "function"
    },
    {
      "constant": true,
      "inputs": [],
      "name": "totalSlashedStake",
      "outputs": [
        {
          "internalType": "uint256",
          "name": "",
          "type": "uint256"
        }
      ],
      "payable": false,
      "stateMutability": "view",
      "type": "function"
    },
    {
      "constant": true,
      "inputs": [],
      "name": "totalStake",
      "outputs": [
        {
          "internalType": "uint256",
          "name": "",
          "type": "uint256"
        }
      ],
      "payable": false,
      "stateMutability": "view",
      "type": "function"
    },
    {
      "constant": true,
      "inputs": [],
      "name": "totalSupply",
      "outputs": [
        {
          "internalType": "uint256",
          "name": "",
          "type": "uint256"
        }
      ],
      "payable": false,
      "stateMutability": "view",
      "type": "function"
    },
    {
      "constant": false,
      "inputs": [
        {
          "internalType": "address",
          "name": "newOwner",
          "type": "address"
        }
      ],
      "name": "transferOwnership",
      "outputs": [],
      "payable": false,
      "stateMutability": "nonpayable",
      "type": "function"
    },
    {
      "constant": false,
      "inputs": [
        {
          "internalType": "uint256",
          "name": "toValidatorID",
          "type": "uint256"
        },
        {
          "internalType": "uint256",
          "name": "wrID",
          "type": "uint256"
        },
        {
          "internalType": "uint256",
          "name": "amount",
          "type": "uint256"
        }
      ],
      "name": "undelegate",
      "outputs": [],
      "payable": false,
      "stateMutability": "nonpayable",
      "type": "function"
    },
    {
      "constant": false,
      "inputs": [
        {
          "internalType": "uint256",
          "name": "toValidatorID",
          "type": "uint256"
        },
        {
          "internalType": "uint256",
          "name": "amount",
          "type": "uint256"
        }
      ],
      "name": "unlockStake",
      "outputs": [
        {
          "internalType": "uint256",
          "name": "",
          "type": "uint256"
        }
      ],
      "payable": false,
      "stateMutability": "nonpayable",
      "type": "function"
    },
    {
      "constant": true,
      "inputs": [],
      "name": "unlockedRewardRatio",
      "outputs": [
        {
          "internalType": "uint256",
          "name": "",
          "type": "uint256"
        }
      ],
      "payable": false,
      "stateMutability": "view",
      "type": "function"
    },
    {
      "constant": false,
      "inputs": [
        {
          "internalType": "uint256",
          "name": "value",
          "type": "uint256"
        }
      ],
      "name": "updateBaseRewardPerSecond",
      "outputs": [],
      "payable": false,
      "stateMutability": "nonpayable",
      "type": "function"
    },
    {
      "constant": false,
      "inputs": [
        {
          "internalType": "address",
          "name": "_governance",
          "type": "address"
        }
      ],
      "name": "updateGovernanceContract",
      "outputs": [],
      "payable": false,
      "stateMutability": "nonpayable",
      "type": "function"
    },
    {
      "constant": false,
      "inputs": [
        {
          "internalType": "uint256",
          "name": "blocksNum",
          "type": "uint256"
        },
        {
          "internalType": "uint256",
          "name": "time",
          "type": "uint256"
        }
      ],
      "name": "updateOfflinePenaltyThreshold",
      "outputs": [],
      "payable": false,
      "stateMutability": "nonpayable",
      "type": "function"
    },
    {
      "constant": false,
      "inputs": [
        {
          "internalType": "uint256",
          "name": "validatorID",
          "type": "uint256"
        },
        {
          "internalType": "uint256",
          "name": "refundRatio",
          "type": "uint256"
        }
      ],
      "name": "updateSlashingRefundRatio",
      "outputs": [],
      "payable": false,
      "stateMutability": "nonpayable",
      "type": "function"
    },
    {
      "constant": false,
      "inputs": [
        {
          "internalType": "address",
          "name": "addr",
          "type": "address"
        }
      ],
      "name": "updateStakeTokenizerAddress",
      "outputs": [],
      "payable": false,
      "stateMutability": "nonpayable",
      "type": "function"
    },
    {
      "constant": false,
      "inputs": [
        {
          "internalType": "int256",
          "name": "diff",
          "type": "int256"
        }
      ],
      "name": "updateTotalSupply",
      "outputs": [],
      "payable": false,
      "stateMutability": "nonpayable",
      "type": "function"
    },
    {
      "constant": true,
      "inputs": [],
      "name": "validatorCommission",
      "outputs": [
        {
          "internalType": "uint256",
          "name": "",
          "type": "uint256"
        }
      ],
      "payable": false,
      "stateMutability": "view",
      "type": "function"
    },
    {
      "constant": true,
      "inputs": [],
      "name": "version",
      "outputs": [
        {
          "internalType": "bytes3",
          "name": "",
          "type": "bytes3"
        }
      ],
      "payable": false,
      "stateMutability": "pure",
      "type": "function"
    },
    {
      "constant": true,
      "inputs": [],
      "name": "viewMaxDelegation",
      "outputs": [
        {
          "internalType": "uint256",
          "name": "",
          "type": "uint256"
        }
      ],
      "payable": false,
      "stateMutability": "view",
      "type": "function"
    },
    {
      "constant": false,
      "inputs": [
        {
          "internalType": "uint256",
          "name": "toValidatorID",
          "type": "uint256"
        },
        {
          "internalType": "uint256",
          "name": "wrID",
          "type": "uint256"
        }
      ],
      "name": "withdraw",
      "outputs": [],
      "payable": false,
      "stateMutability": "nonpayable",
      "type": "function"
    },
    {
      "constant": true,
      "inputs": [],
      "name": "withdrawalPeriodEpochs",
      "outputs": [
        {
          "internalType": "uint256",
          "name": "",
          "type": "uint256"
        }
      ],
      "payable": false,
      "stateMutability": "view",
      "type": "function"
    },
    {
      "constant": true,
      "inputs": [],
      "name": "withdrawalPeriodTime",
      "outputs": [
        {
          "internalType": "uint256",
          "name": "",
          "type": "uint256"
        }
      ],
      "payable": false,
      "stateMutability": "view",
      "type": "function"
    }
  ],
  "bytecode": "0x608060405234801561001057600080fd5b5061623280620000216000396000f3fe6080604052600436106105025760003560e01c8063715018a611610297578063b88a37e211610165578063d9a7c1f9116100cc578063e2f8c33611610085578063e2f8c33614611531578063e4af78be146115c1578063ebdf104c146115eb578063f2fde38b14611756578063f5bd296814611789578063f78bf110146117c257610502565b8063d9a7c1f9146113db578063dc31e1af146113f0578063de67f21514611420578063df00c92214611456578063e08d7e6614611486578063e261641a1461150157610502565b8063cc8343aa1161011e578063cc8343aa146112ce578063cefe9c1814611300578063cfd476631461132a578063cfdbb7cd14611363578063d54b50991461139c578063d75629cf146113b157610502565b8063b88a37e2146111a0578063bd14d9071461121a578063c3de580e14611250578063c5f530af1461127a578063c65ee0e11461128f578063c7be95de146112b957610502565b80639d0c3c0511610209578063a86a056f116101c2578063a86a056f1461105a578063ad9a4b5c14611093578063b5d89627146110bd578063b6d9edd514611128578063b810e41114611152578063b82b84271461118b57610502565b80639d0c3c0514610f425780639fa6dd3514610f57578063a198d22914610f74578063a2f6e6bc14610fa4578063a5a470ad14610fd7578063a77865151461104557610502565b80638b0e9f3f1161025b5780638b0e9f3f14610e275780638b1a0d1114610e3c5780638cddb01514610e6c5780638da5cb5b14610ea55780638f32d59b14610eba57806396c7ee4614610ee357610502565b8063715018a614610d345780637667180814610d495780637cacb1d614610d5e578063854873e114610d7357806387ceff0914610e1257610502565b80632d2646ed116103d4578063557ed1ba1161034657806361e53fcc116102ff57806361e53fcc14610c20578063650acd6614610c50578063670322f814610c655780636ca6d6bc14610c9e5780636f49866314610cc85780636faf60a014610d0157610502565b8063557ed1ba14610b4e5780635601fe0114610b6357806358f95b8014610b8d5780635e2308d214610bbd5780635fab23a814610bd25780636099ecb214610be757610502565b80634055f273116103985780634055f273146109b3578063441a3e70146109dd5780634f7c4efb14610a0d5780634f864df414610a3d5780634feb92f314610a7357806354fd4d5014610b1c57610502565b80632d2646ed1461089757806333469d3d146108c1578063346bdcfb146108d657806339b80c00146109005780633fbfd4df1461096257610502565b806316ada547116104785780632265f284116104315780632265f2841461080057806324f3082a146108155780632709275e1461082a578063289b3c0d1461083f57806328f73148146108545780632cedb0971461086957610502565b806316ada547146106b457806318160ddd146106c957806318f628d4146106de5780631d3ac42c146107435780631e702f83146107735780631f270152146107a357610502565b806309fc49ab116104ca57806309fc49ab146105f65780630d4955e31461060b5780630d7b2609146106205780630e559d8214610635578063109c3d271461066657806312622d0e1461067b57610502565b80630135b1db1461050757806303c91ccd1461054c57806307e32f0a1461057857806308c36874146105a25780630962ef79146105cc575b600080fd5b34801561051357600080fd5b5061053a6004803603602081101561052a57600080fd5b50356001600160a01b03166117ec565b60408051918252519081900360200190f35b34801561055857600080fd5b506105766004803603602081101561056f57600080fd5b50356117fe565b005b34801561058457600080fd5b506105766004803603602081101561059b57600080fd5b503561180a565b3480156105ae57600080fd5b50610576600480360360208110156105c557600080fd5b5035611815565b3480156105d857600080fd5b50610576600480360360208110156105ef57600080fd5b50356118e1565b34801561060257600080fd5b50610576611a21565b34801561061757600080fd5b5061053a611a30565b34801561062c57600080fd5b5061053a611a3b565b34801561064157600080fd5b5061064a611a44565b604080516001600160a01b039092168252519081900360200190f35b34801561067257600080fd5b5061053a611a53565b34801561068757600080fd5b5061053a6004803603604081101561069e57600080fd5b506001600160a01b038135169060200135611ad6565b3480156106c057600080fd5b5061053a611b5f565b3480156106d557600080fd5b5061053a611b65565b3480156106ea57600080fd5b50610576600480360361012081101561070257600080fd5b506001600160a01b038135169060208101359060408101359060608101359060808101359060a08101359060c08101359060e0810135906101000135611b6b565b34801561074f57600080fd5b5061053a6004803603604081101561076657600080fd5b5080359060200135611ccb565b34801561077f57600080fd5b506105766004803603604081101561079657600080fd5b5080359060200135611ea3565b3480156107af57600080fd5b506107e2600480360360608110156107c657600080fd5b506001600160a01b038135169060208101359060400135611f41565b60408051938452602084019290925282820152519081900360600190f35b34801561080c57600080fd5b5061053a611f73565b34801561082157600080fd5b50610576611f86565b34801561083657600080fd5b5061053a611f8c565b34801561084b57600080fd5b5061064a611fa9565b34801561086057600080fd5b5061053a611fb8565b34801561087557600080fd5b5061087e611fbe565b6040805192835260208301919091528051918290030190f35b3480156108a357600080fd5b50610576600480360360208110156108ba57600080fd5b5035611fc8565b3480156108cd57600080fd5b50610576611fda565b3480156108e257600080fd5b50610576600480360360208110156108f957600080fd5b5035611fe6565b34801561090c57600080fd5b5061092a6004803603602081101561092357600080fd5b5035612052565b604080519788526020880196909652868601949094526060860192909252608085015260a084015260c0830152519081900360e00190f35b34801561096e57600080fd5b50610576600480360360a081101561098557600080fd5b508035906020810135906001600160a01b036040820135811691606081013582169160809091013516612094565b3480156109bf57600080fd5b50610576600480360360208110156109d657600080fd5b50356121a5565b3480156109e957600080fd5b5061057660048036036040811015610a0057600080fd5b50803590602001356121b7565b348015610a1957600080fd5b5061057660048036036040811015610a3057600080fd5b50803590602001356125b4565b348015610a4957600080fd5b5061057660048036036060811015610a6057600080fd5b50803590602081013590604001356126e6565b348015610a7f57600080fd5b506105766004803603610100811015610a9757600080fd5b6001600160a01b0382351691602081013591810190606081016040820135600160201b811115610ac657600080fd5b820183602082011115610ad857600080fd5b803590602001918460018302840111600160201b83111715610af957600080fd5b91935091508035906020810135906040810135906060810135906080013561295e565b348015610b2857600080fd5b50610b31612a04565b604080516001600160e81b03199092168252519081900360200190f35b348015610b5a57600080fd5b5061053a612a0e565b348015610b6f57600080fd5b5061053a60048036036020811015610b8657600080fd5b5035612a14565b348015610b9957600080fd5b5061053a60048036036040811015610bb057600080fd5b5080359060200135612a4a565b348015610bc957600080fd5b5061053a612a67565b348015610bde57600080fd5b5061053a612a7e565b348015610bf357600080fd5b5061053a60048036036040811015610c0a57600080fd5b506001600160a01b038135169060200135612a84565b348015610c2c57600080fd5b5061053a60048036036040811015610c4357600080fd5b5080359060200135612ac2565b348015610c5c57600080fd5b5061053a612ae3565b348015610c7157600080fd5b5061053a60048036036040811015610c8857600080fd5b506001600160a01b038135169060200135612ae9565b348015610caa57600080fd5b5061057660048036036020811015610cc157600080fd5b5035612b2a565b348015610cd457600080fd5b5061053a60048036036040811015610ceb57600080fd5b506001600160a01b038135169060200135612b3c565b348015610d0d57600080fd5b5061057660048036036020811015610d2457600080fd5b50356001600160a01b0316612ba6565b348015610d4057600080fd5b50610576612c49565b348015610d5557600080fd5b5061053a612cda565b348015610d6a57600080fd5b5061053a612ce3565b348015610d7f57600080fd5b50610d9d60048036036020811015610d9657600080fd5b5035612ce9565b6040805160208082528351818301528351919283929083019185019080838360005b83811015610dd7578181015183820152602001610dbf565b50505050905090810190601f168015610e045780820380516001836020036101000a031916815260200191505b509250505060405180910390f35b348015610e1e57600080fd5b5061053a612d84565b348015610e3357600080fd5b5061053a612d93565b348015610e4857600080fd5b5061057660048036036040811015610e5f57600080fd5b5080359060200135612d99565b348015610e7857600080fd5b5061057660048036036040811015610e8f57600080fd5b506001600160a01b038135169060200135612e29565b348015610eb157600080fd5b5061064a612e77565b348015610ec657600080fd5b50610ecf612e86565b604080519115158252519081900360200190f35b348015610eef57600080fd5b50610f1c60048036036040811015610f0657600080fd5b506001600160a01b038135169060200135612e97565b604080519485526020850193909352838301919091526060830152519081900360800190f35b348015610f4e57600080fd5b5061053a612ec9565b61057660048036036020811015610f6d57600080fd5b5035612ecf565b348015610f8057600080fd5b5061053a60048036036040811015610f9757600080fd5b5080359060200135612eda565b348015610fb057600080fd5b5061057660048036036020811015610fc757600080fd5b50356001600160a01b0316612efb565b61057660048036036020811015610fed57600080fd5b810190602081018135600160201b81111561100757600080fd5b82018360208201111561101957600080fd5b803590602001918460018302840111600160201b8311171561103a57600080fd5b509092509050612f64565b34801561105157600080fd5b5061053a6130e6565b34801561106657600080fd5b5061053a6004803603604081101561107d57600080fd5b506001600160a01b0381351690602001356130fd565b34801561109f57600080fd5b50610576600480360360208110156110b657600080fd5b503561311a565b3480156110c957600080fd5b506110e7600480360360208110156110e057600080fd5b503561312c565b604080519788526020880196909652868601949094526060860192909252608085015260a08401526001600160a01b031660c0830152519081900360e00190f35b34801561113457600080fd5b506105766004803603602081101561114b57600080fd5b5035613172565b34801561115e57600080fd5b506107e26004803603604081101561117557600080fd5b506001600160a01b038135169060200135613252565b34801561119757600080fd5b5061053a61327e565b3480156111ac57600080fd5b506111ca600480360360208110156111c357600080fd5b5035613284565b60408051602080825283518183015283519192839290830191858101910280838360005b838110156112065781810151838201526020016111ee565b505050509050019250505060405180910390f35b34801561122657600080fd5b506105766004803603606081101561123d57600080fd5b50803590602081013590604001356132e9565b34801561125c57600080fd5b50610ecf6004803603602081101561127357600080fd5b50356132fc565b34801561128657600080fd5b5061053a613313565b34801561129b57600080fd5b5061053a600480360360208110156112b257600080fd5b503561331f565b3480156112c557600080fd5b5061053a613331565b3480156112da57600080fd5b50610576600480360360408110156112f157600080fd5b50803590602001351515613337565b34801561130c57600080fd5b506105766004803603602081101561132357600080fd5b5035613519565b34801561133657600080fd5b5061053a6004803603604081101561134d57600080fd5b506001600160a01b03813516906020013561352b565b34801561136f57600080fd5b50610ecf6004803603604081101561138657600080fd5b506001600160a01b038135169060200135613548565b3480156113a857600080fd5b50610ecf6135de565b3480156113bd57600080fd5b50610576600480360360208110156113d457600080fd5b50356135e7565b3480156113e757600080fd5b5061053a6135f9565b3480156113fc57600080fd5b5061053a6004803603604081101561141357600080fd5b50803590602001356135ff565b34801561142c57600080fd5b506105766004803603606081101561144357600080fd5b5080359060208101359060400135613620565b34801561146257600080fd5b5061053a6004803603604081101561147957600080fd5b50803590602001356136bd565b34801561149257600080fd5b50610576600480360360208110156114a957600080fd5b810190602081018135600160201b8111156114c357600080fd5b8201836020820111156114d557600080fd5b803590602001918460208302840111600160201b831117156114f657600080fd5b5090925090506136de565b34801561150d57600080fd5b5061053a6004803603604081101561152457600080fd5b50803590602001356137b8565b34801561153d57600080fd5b506105766004803603606081101561155457600080fd5b6001600160a01b0382351691602081013591810190606081016040820135600160201b81111561158357600080fd5b82018360208201111561159557600080fd5b803590602001918460018302840111600160201b831117156115b657600080fd5b5090925090506137d9565b3480156115cd57600080fd5b50610576600480360360208110156115e457600080fd5b50356138d8565b3480156115f757600080fd5b506105766004803603608081101561160e57600080fd5b810190602081018135600160201b81111561162857600080fd5b82018360208201111561163a57600080fd5b803590602001918460208302840111600160201b8311171561165b57600080fd5b919390929091602081019035600160201b81111561167857600080fd5b82018360208201111561168a57600080fd5b803590602001918460208302840111600160201b831117156116ab57600080fd5b919390929091602081019035600160201b8111156116c857600080fd5b8201836020820111156116da57600080fd5b803590602001918460208302840111600160201b831117156116fb57600080fd5b919390929091602081019035600160201b81111561171857600080fd5b82018360208201111561172a57600080fd5b803590602001918460208302840111600160201b8311171561174b57600080fd5b5090925090506138ea565b34801561176257600080fd5b506105766004803603602081101561177957600080fd5b50356001600160a01b0316613ac6565b34801561179557600080fd5b5061053a600480360360408110156117ac57600080fd5b506001600160a01b038135169060200135613b16565b3480156117ce57600080fd5b50610576600480360360208110156117e557600080fd5b5035613b22565b606a6020526000908152604090205481565b61180781613b34565b50565b608680549091019055565b3361181e615f32565b6118288284613b6f565b602081015181519192506000916118449163ffffffff613c6316565b90506118678385611862856040015185613c6390919063ffffffff16565b613cbd565b6001600160a01b0383166000818152607460209081526040808320888452825291829020805485019055845185820151868401518451928352928201528083019190915290518692917f4119153d17a36f9597d40e3ab4148d03261a439dddbec4e91799ab7159608e26919081900360600190a350505050565b336118ea615f32565b6118f48284613b6f565b90506000826001600160a01b0316611931836040015161192585602001518660000151613c6390919063ffffffff16565b9063ffffffff613c6316565b604051600081818185875af1925050503d806000811461196d576040519150601f19603f3d011682016040523d82523d6000602084013e611972565b606091505b50509050806119bd576040805162461bcd60e51b81526020600482015260126024820152714661696c656420746f2073656e642046544d60701b604482015290519081900360640190fd5b83836001600160a01b03167fc1d8eb6e444b89fb8ff0991c19311c070df704ccb009e210d1462d5b2410bf4584600001518560200151866040015160405180848152602001838152602001828152602001935050505060405180910390a350505050565b6087805460ff19166001179055565b60815461016d025b90565b608054600e0290565b6085546001600160a01b031681565b600080606660009054906101000a90046001600160a01b03166001600160a01b0316635584c4f96040518163ffffffff1660e01b815260040160206040518083038186803b158015611aa457600080fd5b505afa158015611ab8573d6000803e3d6000fd5b505050506040513d6020811015611ace57600080fd5b505191505090565b6000611ae28383613548565b611b1057506001600160a01b0382166000908152607360209081526040808320848452909152902054611b59565b6001600160a01b038316600081815260746020908152604080832086845282528083205493835260738252808320868452909152902054611b569163ffffffff613dba16565b90505b92915050565b60865481565b60775481565b611b7433613dfc565b611baf5760405162461bcd60e51b81526004018080602001828103825260298152602001806160836029913960400191505060405180910390fd5b611bba898989613e1b565b6001600160a01b03891660009081526070602090815260408083208b84529091529020600201819055611bec87613f80565b8515611cc05786861115611c315760405162461bcd60e51b815260040180806020018281038252602c8152602001806161d2602c913960400191505060405180910390fd5b6001600160a01b03891660008181526074602090815260408083208c845282528083208a8155600181018a90556002810189905560038101889055848452607583528184208d855283529281902086905580518781529182018a9052805192938c9390927f138940e95abffcd789b497bf6188bba3afa5fbd22fb5c42c2f6018d1bf0f4e7892908290030190a3505b505050505050505050565b336000818152607460209081526040808320868452909152812090919083611d28576040805162461bcd60e51b815260206004820152600b60248201526a1e995c9bc8185b5bdd5b9d60aa1b604482015290519081900360640190fd5b611d328286613548565b611d73576040805162461bcd60e51b815260206004820152600d60248201526c06e6f74206c6f636b656420757609c1b604482015290519081900360640190fd5b8054841115611dc9576040805162461bcd60e51b815260206004820152601760248201527f6e6f7420656e6f756768206c6f636b6564207374616b65000000000000000000604482015290519081900360640190fd5b611dd38286614005565b611e1f576040805162461bcd60e51b81526020600482015260186024820152776f75747374616e64696e67207346544d2062616c616e636560401b604482015290519081900360640190fd5b611e2982866140a7565b506000611e3c8387878560000154614272565b825486900383559050611e508387836143a3565b85836001600160a01b03167fef6c0c14fe9aa51af36acd791464dec3badbde668b63189b47bfa4e25be9b2b98784604051808381526020018281526020019250505060405180910390a395945050505050565b611eac33613dfc565b611ee75760405162461bcd60e51b81526004018080602001828103825260298152602001806160836029913960400191505060405180910390fd5b80611f28576040805162461bcd60e51b815260206004820152600c60248201526b77726f6e672073746174757360a01b604482015290519081900360640190fd5b611f3282826144f3565b611f3d826000613337565b5050565b607260209081526000938452604080852082529284528284209052825290208054600182015460029092015490919083565b6000611f7d61461d565b607c5402905090565b42608655565b60006064611f9861461d565b607e540281611fa357fe5b04905090565b6066546001600160a01b031690565b606e5481565b607954607a549091565b611fd133614629565b611807816146a3565b6087805460ff19169055565b611fee612e86565b61202d576040805162461bcd60e51b815260206004820181905260248201526000805160206160cd833981519152604482015290519081900360640190fd5b60008112612042576077805482019055611807565b6077805460008390039003905550565b607860205280600052604060002060009150905080600701549080600801549080600901549080600a01549080600b01549080600c01549080600d0154905087565b600054610100900460ff16806120ad57506120ad6146de565b806120bb575060005460ff16155b6120f65760405162461bcd60e51b815260040180806020018281038252602e8152602001806160ed602e913960400191505060405180910390fd5b600054610100900460ff16158015612121576000805460ff1961ff0019909116610100171660011790555b61212a836146e4565b612133826147d5565b6068869055606780546001600160a01b0319166001600160a01b03861617905560778590556755cfe697852e904c6076556103e86079556203f480607a55612179612a0e565b600087815260786020526040902060070155801561219d576000805461ff00191690555b505050505050565b6121ae33614629565b611807816148c0565b336121c0615f32565b506001600160a01b03811660009081526072602090815260408083208684528252808320858452825291829020825160608101845281548082526001830154938201939093526002909101549281019290925261225c576040805162461bcd60e51b81526020600482015260156024820152741c995c5d595cdd08191bd95cdb89dd08195e1a5cdd605a1b604482015290519081900360640190fd5b6122668285614005565b6122b2576040805162461bcd60e51b81526020600482015260186024820152776f75747374616e64696e67207346544d2062616c616e636560401b604482015290519081900360640190fd5b602080820151825160008781526069909352604090922060010154909190158015906122ee575060008681526069602052604090206001015482115b1561230f575050600084815260696020526040902060018101546002909101545b61231761327e565b8201612321612a0e565b101561236d576040805162461bcd60e51b81526020600482015260166024820152751b9bdd08195b9bdd59da081d1a5b59481c185cdcd95960521b604482015290519081900360640190fd5b612375612ae3565b810161237f612cda565b10156123d2576040805162461bcd60e51b815260206004820152601860248201527f6e6f7420656e6f7567682065706f636873207061737365640000000000000000604482015290519081900360640190fd5b6001600160a01b038416600090815260726020908152604080832089845282528083208884529091528120600201549061240b886132fc565b9050600061242d8383608460008d8152602001908152602001600020546148fb565b6001600160a01b03881660009081526072602090815260408083208d845282528083208c845290915281208181556001810182905560020155606f80548201905590508083116124bd576040805162461bcd60e51b81526020600482015260166024820152751cdd185ad9481a5cc8199d5b1b1e481cdb185cda195960521b604482015290519081900360640190fd5b60006001600160a01b0388166124d9858463ffffffff613dba16565b604051600081818185875af1925050503d8060008114612515576040519150601f19603f3d011682016040523d82523d6000602084013e61251a565b606091505b5050905080612565576040805162461bcd60e51b81526020600482015260126024820152714661696c656420746f2073656e642046544d60701b604482015290519081900360640190fd5b888a896001600160a01b03167f75e161b3e824b114fc1a33274bd7091918dd4e639cede50b78b15a4eea956a21876040518082815260200191505060405180910390a450505050505050505050565b6125bc612e86565b6125fb576040805162461bcd60e51b815260206004820181905260248201526000805160206160cd833981519152604482015290519081900360640190fd5b612604826132fc565b612655576040805162461bcd60e51b815260206004820152601760248201527f76616c696461746f722069736e277420736c6173686564000000000000000000604482015290519081900360640190fd5b61265d61461d565b81111561269b5760405162461bcd60e51b81526004018080602001828103825260218152602001806161606021913960400191505060405180910390fd5b6000828152608460209081526040918290208390558151838152915184927f047575f43f09a7a093d94ec483064acfc61b7e25c0de28017da442abf99cb91792908290030190a25050565b336126f181856140a7565b5060008211612735576040805162461bcd60e51b815260206004820152600b60248201526a1e995c9bc8185b5bdd5b9d60aa1b604482015290519081900360640190fd5b61273f8185611ad6565b821115612793576040805162461bcd60e51b815260206004820152601960248201527f6e6f7420656e6f75676820756e6c6f636b6564207374616b6500000000000000604482015290519081900360640190fd5b61279d8185614005565b6127e9576040805162461bcd60e51b81526020600482015260186024820152776f75747374616e64696e67207346544d2062616c616e636560401b604482015290519081900360640190fd5b6001600160a01b0381166000908152607260209081526040808320878452825280832086845290915290206002015415612860576040805162461bcd60e51b81526020600482015260136024820152727772494420616c72656164792065786973747360681b604482015290519081900360640190fd5b61286b8185846143a3565b6001600160a01b0381166000908152607260209081526040808320878452825280832086845290915290206002018290556128a4612cda565b6001600160a01b038216600090815260726020908152604080832088845282528083208784529091529020556128d8612a0e565b6001600160a01b03821660009081526072602090815260408083208884528252808320878452909152812060010191909155612915908590613337565b8284826001600160a01b03167fd3bb4e423fbea695d16b982f9f682dc5f35152e5411646a8a5a79a6b02ba8d57856040518082815260200191505060405180910390a450505050565b61296733613dfc565b6129a25760405162461bcd60e51b81526004018080602001828103825260298152602001806160836029913960400191505060405180910390fd5b6129ea898989898080601f0160208091040260200160405190810160405280939291908181526020018383808284376000920191909152508b92508a9150899050888861495d565b606c54881115611cc057606c889055505050505050505050565b6219981960e91b90565b60865490565b6000818152606960209081526040808320600601546001600160a01b03168352607382528083208484529091529020545b919050565b600091825260786020908152604080842092845291905290205490565b60006064612a7361461d565b607f540281611fa357fe5b606f5481565b6000612a8e615f32565b612a988484614b0c565b805160208201516040830151929350612aba926119259163ffffffff613c6316565b949350505050565b60009182526078602090815260408084209284526001909201905290205490565b60825490565b6000612af58383613548565b612b0157506000611b59565b506001600160a01b03919091166000908152607460209081526040808320938352929052205490565b612b3333614629565b61180781614b7a565b6000612b46615f32565b506001600160a01b038316600090815260706020908152604080832085845282529182902082516060810184528154808252600183015493820184905260029092015493810184905292612aba929091611925919063ffffffff613c6316565b612bae612e86565b612bed576040805162461bcd60e51b815260206004820181905260248201526000805160206160cd833981519152604482015290519081900360640190fd5b6066546040516001600160a01b038084169216907f434a2db650703b36c824e745330d6397cdaa9ee2cc891a4938ae853e1c50b68d90600090a3606680546001600160a01b0319166001600160a01b0392909216919091179055565b612c51612e86565b612c90576040805162461bcd60e51b815260206004820181905260248201526000805160206160cd833981519152604482015290519081900360640190fd5b6033546040516000916001600160a01b0316907f8be0079c531659141344cd1fd0a4f28419497f9722a3daafe3b4186f6b6457e0908390a3603380546001600160a01b0319169055565b60685460010190565b60685481565b606b6020908152600091825260409182902080548351601f600260001961010060018616150201909316929092049182018490048402810184019094528084529091830182828015612d7c5780601f10612d5157610100808354040283529160200191612d7c565b820191906000526020600020905b815481529060010190602001808311612d5f57829003601f168201915b505050505081565b6000612d8e614bb5565b905090565b606d5481565b612da1612e86565b612de0576040805162461bcd60e51b815260206004820181905260248201526000805160206160cd833981519152604482015290519081900360640190fd5b607a8190556079829055604080518381526020810183905281517f702756a07c05d0bbfd06fc17b67951a5f4deb7bb6b088407e68a58969daf2a34929181900390910190a15050565b612e3382826140a7565b611f3d576040805162461bcd60e51b815260206004820152601060248201526f0dcdee8d0d2dcce40e8de40e6e8c2e6d60831b604482015290519081900360640190fd5b6033546001600160a01b031690565b6033546001600160a01b0316331490565b607460209081526000928352604080842090915290825290208054600182015460028301546003909301549192909184565b607c5490565b611807338234613cbd565b60009182526078602090815260408084209284526005909201905290205490565b612f03612e86565b612f42576040805162461bcd60e51b815260206004820181905260248201526000805160206160cd833981519152604482015290519081900360640190fd5b608580546001600160a01b0319166001600160a01b0392909216919091179055565b612f6c613313565b341015612fba576040805162461bcd60e51b8152602060048201526017602482015276696e73756666696369656e742073656c662d7374616b6560481b604482015290519081900360640190fd5b8015801590612fca575060428111155b61300a576040805162461bcd60e51b815260206004820152600c60248201526b656d707479207075626b657960a01b604482015290519081900360640190fd5b6000805b600481101561304d5783838281016003190181811061302957fe5b909101356001600160f81b031916159050613045578160010191505b60010161300e565b5060008111613094576040805162461bcd60e51b815260206004820152600e60248201526d696e76616c6964207075626b657960901b604482015290519081900360640190fd5b6130d43384848080601f016020809104026020016040519081016040528093929190818152602001838380828437600092019190915250614bb992505050565b6130e133606c5434613cbd565b505050565b600060646130f261461d565b607d540281611fa357fe5b607160209081526000928352604080842090915290825290205481565b61312333614629565b61180781614be4565b606960205260009081526040902080546001820154600283015460038401546004850154600586015460069096015494959394929391929091906001600160a01b031687565b61317a612e86565b6131b9576040805162461bcd60e51b815260206004820181905260248201526000805160206160cd833981519152604482015290519081900360640190fd5b6801c985c8903591eb20811115613217576040805162461bcd60e51b815260206004820152601b60248201527f746f6f206c617267652072657761726420706572207365636f6e640000000000604482015290519081900360640190fd5b60768190556040805182815290517f8cd9dae1bbea2bc8a5e80ffce2c224727a25925130a03ae100619a8861ae23969181900360200190a150565b607560209081526000928352604080842090915290825290208054600182015460029092015490919083565b60835490565b6000818152607860209081526040918290206006018054835181840281018401909452808452606093928301828280156132dd57602002820191906000526020600020905b8154815260200190600101908083116132c9575b50505050509050919050565b336132f681858585614c1f565b50505050565b600090815260696020526040902054608016151590565b670467fc915c2fc00090565b60846020526000908152604090205481565b606c5481565b61334082614ed1565b61338b576040805162461bcd60e51b81526020600482015260176024820152761d985b1a59185d1bdc88191bd95cdb89dd08195e1a5cdd604a1b604482015290519081900360640190fd5b600082815260696020526040902060038101549054156133a9575060005b6067546040805163520337df60e11b8152600481018690526024810184905290516001600160a01b039092169163a4066fbe9160448082019260009290919082900301818387803b1580156133fd57600080fd5b505af1158015613411573d6000803e3d6000fd5b5050505081801561342157508015155b156130e1576067546000848152606b602052604090819020815163242a6e3f60e01b81526004810187815260248201938452825460026000196001831615610100020190911604604483018190526001600160a01b039095169463242a6e3f948994939091606490910190849080156134db5780601f106134b0576101008083540402835291602001916134db565b820191906000526020600020905b8154815290600101906020018083116134be57829003601f168201915b50509350505050600060405180830381600087803b1580156134fc57600080fd5b505af1158015613510573d6000803e3d6000fd5b50505050505050565b61352233614629565b61180781614ee8565b607360209081526000928352604080842090915290825290205481565b6001600160a01b03821660009081526074602090815260408083208484529091528120600201541580159061359f57506001600160a01b038316600090815260746020908152604080832085845290915290205415155b8015611b5657506001600160a01b03831660009081526074602090815260408083208584529091529020600201546135d5612a0e565b11159392505050565b60875460ff1681565b6135f033614629565b61180781614f23565b60765481565b60009182526078602090815260408084209284526003909201905290205490565b3381613661576040805162461bcd60e51b815260206004820152600b60248201526a1e995c9bc8185b5bdd5b9d60aa1b604482015290519081900360640190fd5b61366b8185613548565b156136b1576040805162461bcd60e51b81526020600482015260116024820152700616c7265616479206c6f636b656420757607c1b604482015290519081900360640190fd5b6132f681858585614c1f565b60009182526078602090815260408084209284526002909201905290205490565b6136e733613dfc565b6137225760405162461bcd60e51b81526004018080602001828103825260298152602001806160836029913960400191505060405180910390fd5b600060786000613730612cda565b8152602001908152602001600020905060008090505b828110156137a957600084848381811061375c57fe5b60209081029290920135600081815260698452604080822060030154948890529020839055600c86015490935061379a91508263ffffffff613c6316565b600c8501555050600101613746565b506132f6600682018484615f53565b60009182526078602090815260408084209284526004909201905290205490565b6137e1612e86565b613820576040805162461bcd60e51b815260206004820181905260248201526000805160206160cd833981519152604482015290519081900360640190fd5b61382983613f80565b6040516001600160a01b0385169084156108fc029085906000818181858888f1935050505015801561385f573d6000803e3d6000fd5b50836001600160a01b03167f9eec469b348bcf64bbfb60e46ce7b160e2e09bf5421496a2cdbc43714c28b8ad84848460405180848152602001806020018281038252848482818152602001925080828437600083820152604051601f909101601f1916909201829003965090945050505050a250505050565b6138e133614629565b61180781614f5e565b6138f333613dfc565b61392e5760405162461bcd60e51b81526004018080602001828103825260298152602001806160836029913960400191505060405180910390fd5b60006078600061393c612cda565b8152602001908152602001600020905060608160060180548060200260200160405190810160405280929190818152602001828054801561399c57602002820191906000526020600020905b815481526020019060010190808311613988575b50505050509050613a2382828c8c80806020026020016040519081016040528093929190818152602001838360200280828437600081840152601f19601f820116905080830192505050505050508b8b80806020026020016040519081016040528093929190818152602001838360200280828437600092019190915250614f9992505050565b613a92828288888080602002602001604051908101604052809392919081815260200183836020028082843760009201919091525050604080516020808c0282810182019093528b82529093508b92508a9182918501908490808284376000920191909152506150af92505050565b613a9a612cda565b606855613aa5612a0e565b600783015550607654600b820155607754600d909101555050505050505050565b613ace612e86565b613b0d576040805162461bcd60e51b815260206004820181905260248201526000805160206160cd833981519152604482015290519081900360640190fd5b611807816156f5565b6000611b568383615796565b613b2b33614629565b61180781615855565b607c8190556040805182815290517fd3b49810855efc7d611424cd0a8cc519b92cf2e97bd3516921dff1a19b101e359181900360200190a150565b613b77615f32565b613b8183836140a7565b50506001600160a01b038216600090815260706020908152604080832084845282528083208151606081018352815480825260018301549482018590526002909201549281018390529392613bdf926119259163ffffffff613c6316565b905080613c22576040805162461bcd60e51b815260206004820152600c60248201526b7a65726f207265776172647360a01b604482015290519081900360640190fd5b6001600160a01b038416600090815260706020908152604080832086845290915281208181556001810182905560020155613c5c81613f80565b5092915050565b600082820183811015611b56576040805162461bcd60e51b815260206004820152601b60248201527f536166654d6174683a206164646974696f6e206f766572666c6f770000000000604482015290519081900360640190fd5b613cc682614ed1565b613d11576040805162461bcd60e51b81526020600482015260176024820152761d985b1a59185d1bdc88191bd95cdb89dd08195e1a5cdd604a1b604482015290519081900360640190fd5b60008281526069602052604090205415613d6b576040805162461bcd60e51b815260206004820152601660248201527576616c696461746f722069736e27742061637469766560501b604482015290519081900360640190fd5b613d76838383613e1b565b613d7f82615890565b6130e15760405162461bcd60e51b81526004018080602001828103825260298152602001806161a96029913960400191505060405180910390fd5b6000611b5683836040518060400160405280601e81526020017f536166654d6174683a207375627472616374696f6e206f766572666c6f7700008152506158d8565b60875460009060ff1615613e1257506001612a45565b611b598261596f565b60008111613e5e576040805162461bcd60e51b815260206004820152600b60248201526a1e995c9bc8185b5bdd5b9d60aa1b604482015290519081900360640190fd5b613e6883836140a7565b506001600160a01b0383166000908152607360209081526040808320858452909152902054613e9d908263ffffffff613c6316565b6001600160a01b0384166000908152607360209081526040808320868452825280832093909355606990522060030154613edd818363ffffffff613c6316565b600084815260696020526040902060030155606d54613f02908363ffffffff613c6316565b606d55600083815260696020526040902054613f2f57606e54613f2b908363ffffffff613c6316565b606e555b613f3a838215613337565b60408051838152905184916001600160a01b038716917f9a8f44850296624dadfd9c246d17e47171d35727a181bd090aa14bbbe00238bb9181900360200190a350505050565b606754604080516366e7ea0f60e01b81523060048201526024810184905290516001600160a01b03909216916366e7ea0f9160448082019260009290919082900301818387803b158015613fd357600080fd5b505af1158015613fe7573d6000803e3d6000fd5b5050607754613fff925090508263ffffffff613c6316565b60775550565b6085546000906001600160a01b031661402057506001611b59565b608554604080516321d585c360e01b81526001600160a01b03868116600483015260248201869052915191909216916321d585c3916044808301926020929190829003018186803b15801561407457600080fd5b505afa158015614088573d6000803e3d6000fd5b505050506040513d602081101561409e57600080fd5b50519392505050565b60006140b1615f32565b6140bb8484615983565b90506140c683615abb565b6001600160a01b0385166000818152607160209081526040808320888452825280832094909455918152607082528281208682528252829020825160608101845281548152600182015492810192909252600201549181019190915261412c9082615b16565b6001600160a01b0385166000818152607060209081526040808320888452825280832085518155858301516001808301919091559582015160029182015593835260758252808320888452825291829020825160608101845281548152948101549185019190915290910154908201526141a69082615b16565b6001600160a01b0385166000908152607560209081526040808320878452825291829020835181559083015160018201559101516002909101556141ea8484613548565b61424d576001600160a01b0384166000818152607460209081526040808320878452825280832083815560018082018590556002808301869055600390920185905594845260758352818420888552909252822082815592830182905591909101555b602081015115158061425f5750805115155b80612aba57506040015115159392505050565b6001600160a01b038416600090815260756020908152604080832086845290915281205481906142ba9084906142ae908763ffffffff615b8816565b9063ffffffff615be116565b6001600160a01b0387166000908152607560209081526040808320898452909152812060010154919250906142fb9085906142ae908863ffffffff615b8816565b6001600160a01b03881660009081526075602090815260408083208a8452909152902054909150600282048301906143339084613dba565b6001600160a01b03891660009081526075602090815260408083208b84529091529020908155600101546143679083613dba565b6001600160a01b03891660009081526075602090815260408083208b84529091529020600101558581106143985750845b979650505050505050565b6001600160a01b038316600090815260736020908152604080832085845282528083208054859003905560699091529020600301546143e8908263ffffffff613dba16565b600083815260696020526040902060030155606d5461440d908263ffffffff613dba16565b606d5560008281526069602052604090205461443a57606e54614436908263ffffffff613dba16565b606e555b600061444583612a14565b905080156144ec57614455613313565b8110156144a3576040805162461bcd60e51b8152602060048201526017602482015276696e73756666696369656e742073656c662d7374616b6560481b604482015290519081900360640190fd5b6144ac83615890565b6144e75760405162461bcd60e51b81526004018080602001828103825260298152602001806161a96029913960400191505060405180910390fd5b6132f6565b6132f68360015b60008281526069602052604090205415801561450e57508015155b1561453b57600082815260696020526040902060030154606e546145379163ffffffff613dba16565b606e555b600082815260696020526040902054811115611f3d576000828152606960205260409020818155600201546145e357614572612cda565b60008381526069602052604090206002015561458c612a0e565b6000838152606960209081526040918290206001810184905560020154825190815290810192909252805184927fac4801c32a6067ff757446524ee4e7a373797278ac3c883eac5c693b4ad72e4792908290030190a25b60408051828152905183917fcd35267e7654194727477d6c78b541a553483cff7f92a055d17868d3da6e953e919081900360200190a25050565b670de0b6b3a764000090565b614631611fa9565b6001600160a01b0316816001600160a01b031614806146685750614653612e77565b6001600160a01b0316816001600160a01b0316145b6118075760405162461bcd60e51b815260040180806020018281038252604581526020018061611b6045913960600191505060405180910390fd5b607d8190556040805182815290517f969e21e21af49053b3bfee796b627ebc26e10328889e90a47da2f1205d3e8f139181900360200190a150565b303b1590565b600054610100900460ff16806146fd57506146fd6146de565b8061470b575060005460ff16155b6147465760405162461bcd60e51b815260040180806020018281038252602e8152602001806160ed602e913960400191505060405180910390fd5b600054610100900460ff16158015614771576000805460ff1961ff0019909116610100171660011790555b603380546001600160a01b0319166001600160a01b0384811691909117918290556040519116906000907f8be0079c531659141344cd1fd0a4f28419497f9722a3daafe3b4186f6b6457e0908290a38015611f3d576000805461ff00191690555050565b600054610100900460ff16806147ee57506147ee6146de565b806147fc575060005460ff16155b6148375760405162461bcd60e51b815260040180806020018281038252602e8152602001806160ed602e913960400191505060405180910390fd5b600054610100900460ff16158015614862576000805460ff1961ff0019909116610100171660011790555b606680546001600160a01b0319166001600160a01b0384169081179091556040516000907f434a2db650703b36c824e745330d6397cdaa9ee2cc891a4938ae853e1c50b68d908290a38015611f3d576000805461ff00191690555050565b60808190556040805182815290517f31d33f23d1e7fe45f7e898c070587ff0f2f519674e5e2a12f90b3a17c77f6ad19181900360200190a150565b6000821580614911575061490d61461d565b8210155b1561491e57506000614956565b614949600161192561492e61461d565b6142ae8661493a61461d565b8a91900363ffffffff615b8816565b9050838111156149565750825b9392505050565b6001600160a01b0388166000908152606a6020526040902054156149c8576040805162461bcd60e51b815260206004820152601860248201527f76616c696461746f7220616c7265616479206578697374730000000000000000604482015290519081900360640190fd5b6001600160a01b0388166000818152606a602090815260408083208b90558a8352606982528083208981556004810189905560058101889055600181018690556002810187905560060180546001600160a01b031916909417909355606b81529190208751614a3992890190615f9e565b50876001600160a01b0316877f49bca1ed2666922f9f1690c26a569e1299c2a715fe57647d77e81adfabbf25bf8686604051808381526020018281526020019250505060405180910390a38115614ac5576040805183815260208101839052815189927fac4801c32a6067ff757446524ee4e7a373797278ac3c883eac5c693b4ad72e47928290030190a25b8415614b025760408051868152905188917fcd35267e7654194727477d6c78b541a553483cff7f92a055d17868d3da6e953e919081900360200190a25b5050505050505050565b614b14615f32565b614b1c615f32565b614b268484615983565b6001600160a01b03851660009081526070602090815260408083208784528252918290208251606081018452815481526001820154928101929092526002015491810191909152909150612aba9082615b16565b60828190556040805182815290517f2f273767369d76e1ecbee32ed26135f390df620f085feb7a6f2e3dd51985bd5f9181900360200190a150565b4290565b606c8054600101908190556130e18382846000614bd4612cda565b614bdc612a0e565b60008061495d565b607e8190556040805182815290517f12420e865335c7cfb225296eb0adaca14bfb1de93b3731ed1e0434746a4d91249181900360200190a150565b614c298484611ad6565b811115614c70576040805162461bcd60e51b815260206004820152601060248201526f6e6f7420656e6f756768207374616b6560801b604482015290519081900360640190fd5b60008381526069602052604090205415614cca576040805162461bcd60e51b815260206004820152601660248201527576616c696461746f722069736e27742061637469766560501b604482015290519081900360640190fd5b614cd2611a3b565b8210158015614ce85750614ce4611a30565b8211155b614d2e576040805162461bcd60e51b815260206004820152601260248201527134b731b7b93932b1ba10323ab930ba34b7b760711b604482015290519081900360640190fd5b6000614d3c83611925612a0e565b6000858152606960205260409020600601549091506001600160a01b039081169086168114614dca576001600160a01b0381166000908152607460209081526040808320888452909152902060020154821115614dca5760405162461bcd60e51b81526004018080602001828103825260288152602001806161816028913960400191505060405180910390fd5b614dd486866140a7565b506001600160a01b038616600090815260746020908152604080832088845290915290206003810154851015614e51576040805162461bcd60e51b815260206004820152601f60248201527f6c6f636b7570206475726174696f6e2063616e6e6f7420646563726561736500604482015290519081900360640190fd5b8054614e63908563ffffffff613c6316565b8155614e6d612cda565b600182015560028101839055600381018590556040805186815260208101869052815188926001600160a01b038b16927f138940e95abffcd789b497bf6188bba3afa5fbd22fb5c42c2f6018d1bf0f4e78929081900390910190a350505050505050565b600090815260696020526040902060050154151590565b607f8190556040805182815290517fcda2f8a6b9050afa9ac1f8d6ff9a123894f76a5530c6c29636332c995a1f97159181900360200190a150565b607b8190556040805182815290517fe9a0db1369c39eb7fc2ed3d7e122f9ee60952b075329b1e84bce8843367210f49181900360200190a150565b60838190556040805182815290517f9e85e6207a28e085f027a9b979cad850f4c36a581dd42c119e856c04b92d96119181900360200190a150565b60005b83518110156150a857607954828281518110614fb457fe5b6020026020010151118015614fde5750607a54838281518110614fd357fe5b602002602001015110155b1561501f57615001848281518110614ff257fe5b602002602001015160086144f3565b61501f84828151811061501057fe5b60200260200101516000613337565b82818151811061502b57fe5b602002602001015185600401600086848151811061504557fe5b602002602001015181526020019081526020016000208190555081818151811061506b57fe5b602002602001015185600501600086848151811061508557fe5b602090810291909101810151825281019190915260400160002055600101614f9c565b5050505050565b6150b761600c565b6040518060c0016040528085516040519080825280602002602001820160405280156150ed578160200160208202803883390190505b508152602001600081526020018551604051908082528060200260200182016040528015615125578160200160208202803883390190505b50815260200160008152602001600081526020016000815250905060006078600061515f6001615153612cda565b9063ffffffff613dba16565b81526020810191909152604001600020600160808401526007810154909150615186612a0e565b11156151a0578060070154615199612a0e565b0360808301525b60005b85518110156152a85760008260030160008884815181106151c057fe5b602002602001015181526020019081526020016000205490506000809050818684815181106151eb57fe5b60200260200101511115615212578186848151811061520657fe5b60200260200101510390505b846080015187848151811061522357fe5b602002602001015182028161523457fe5b048560400151848151811061524557fe5b60200260200101818152505061527f8560400151848151811061526457fe5b60200260200101518660600151613c6390919063ffffffff16565b606086015260a0850151615299908263ffffffff613c6316565b60a086015250506001016151a3565b5060005b85518110156153795782608001518582815181106152c657fe5b602002602001015184608001518784815181106152df57fe5b60200260200101518a60000160008b87815181106152f957fe5b6020026020010151815260200190815260200160002054028161531857fe5b04028161532157fe5b048360000151828151811061533257fe5b60200260200101818152505061536c8360000151828151811061535157fe5b60200260200101518460200151613c6390919063ffffffff16565b60208401526001016152ac565b5060005b85518110156156cd5760006153b58460800151607654866000015185815181106153a357fe5b60200260200101518760200151615c23565b90506153f16153e48560a00151866040015185815181106153d257fe5b60200260200101518760600151615c64565b829063ffffffff613c6316565b9050600087838151811061540157fe5b6020908102919091018101516000818152606990925260408220600601549092506001600160a01b03169061543d846154386130e6565b615cc1565b6001600160a01b038316600090815260736020908152604080832087845290915290205490915080156155e4576000816154778587612ae9565b84028161548057fe5b04905080830361548e615f32565b6001600160a01b03861660009081526074602090815260408083208a84529091529020600301546154c0908490615cde565b90506154ca615f32565b6154d5836000615cde565b6001600160a01b03881660009081526070602090815260408083208c8452825291829020825160608101845281548152600182015492810192909252600201549181019190915290915061552a908383615dcf565b6001600160a01b03881660008181526070602090815260408083208d84528252808320855181558583015160018083019190915595820151600291820155938352607582528083208d8452825291829020825160608101845281548152948101549185019190915290910154908201526155a5908383615dcf565b6001600160a01b03881660009081526075602090815260408083208c845282529182902083518155908301516001820155910151600290910155505050505b600084815260696020526040812060030154838703918115615616578161560961461d565b84028161561257fe5b0490505b808a600101600089815260200190815260200160002054018f6001016000898152602001908152602001600020819055508b898151811061565357fe5b60200260200101518f6003016000898152602001908152602001600020819055508c898151811061568057fe5b60200260200101518a600201600089815260200190815260200160002054018f6002016000898152602001908152602001600020819055505050505050505050808060010191505061537d565b505060a081015160088601556020810151600986015560600151600a90940193909355505050565b6001600160a01b03811661573a5760405162461bcd60e51b815260040180806020018281038252602681526020018061605d6026913960400191505060405180910390fd5b6033546040516001600160a01b038084169216907f8be0079c531659141344cd1fd0a4f28419497f9722a3daafe3b4186f6b6457e090600090a3603380546001600160a01b0319166001600160a01b0392909216919091179055565b6001600160a01b03821660009081526074602090815260408083208484529091528120600101546068546157cb858583615dea565b156157d9579150611b599050565b6157e4858584615dea565b6157f357600092505050611b59565b8082111561580657600092505050611b59565b808210156158395760028183010461581f868683615dea565b1561582f57806001019250615833565b8091505b50615806565b8061584957600092505050611b59565b60001901949350505050565b60818190556040805182815290517fd830c33dec392daf6dfeac9834107217392396bc333bcbb92e6c1c1a5e8726319181900360200190a150565b60006158bd61589d61461d565b6142ae6158a8611f73565b6158b186612a14565b9063ffffffff615b8816565b60008381526069602052604090206003015411159050919050565b600081848411156159675760405162461bcd60e51b81526004018080602001828103825283818151815260200191508051906020019080838360005b8381101561592c578181015183820152602001615914565b50505050905090810190601f1680156159595780820380516001836020036101000a031916815260200191505b509250505060405180910390fd5b505050900390565b6067546001600160a01b0390811691161490565b61598b615f32565b6001600160a01b0383166000908152607160209081526040808320858452909152812054906159b984615abb565b905060006159c78686615796565b9050818111156159d45750805b828110156159df5750815b6001600160a01b03861660008181526074602090815260408083208984528252808320938352607382528083208984529091528120548254909190615a2b90839063ffffffff613dba16565b90506000615a3f84600001548a8988615e55565b9050615a49615f32565b615a57828660030154615cde565b9050615a65838b8a89615e55565b9150615a6f615f32565b615a7a836000615cde565b9050615a88858c898b615e55565b9250615a92615f32565b615a9d846000615cde565b9050615aaa838383615dcf565b9d9c50505050505050505050505050565b60008181526069602052604081206002015415615b0e576000828152606960205260409020600201546068541015615af65750606854612a45565b50600081815260696020526040902060020154612a45565b505060685490565b615b1e615f32565b6040805160608101909152825184518291615b3f919063ffffffff613c6316565b8152602001615b5f84602001518660200151613c6390919063ffffffff16565b8152602001615b7f84604001518660400151613c6390919063ffffffff16565b90529392505050565b600082615b9757506000611b59565b82820282848281615ba457fe5b0414611b565760405162461bcd60e51b81526004018080602001828103825260218152602001806160ac6021913960400191505060405180910390fd5b6000611b5683836040518060400160405280601a81526020017f536166654d6174683a206469766973696f6e206279207a65726f000000000000815250615eb8565b600082615c3257506000612aba565b6000615c44868663ffffffff615b8816565b9050615c5a836142ae838763ffffffff615b8816565b9695505050505050565b600082615c7357506000614956565b6000615c89836142ae878763ffffffff615b8816565b9050615cb8615c9661461d565b6142ae615ca1611f8c565b615ca961461d565b8591900363ffffffff615b8816565b95945050505050565b6000611b56615cce61461d565b6142ae858563ffffffff615b8816565b615ce6615f32565b604051806060016040528060008152602001600081526020016000815250905081600014615da1576000615d18612a67565b615d2061461d565b0390506000615d40615d30611a30565b6142ae848763ffffffff615b8816565b90506000615d69615d4f61461d565b6142ae84615d5b612a67565b8a910163ffffffff615b8816565b9050615d8e615d7661461d565b6142ae615d81612a67565b899063ffffffff615b8816565b602085018190529003835250611b599050565b615dc4615dac61461d565b6142ae615db7612a67565b869063ffffffff615b8816565b604082015292915050565b615dd7615f32565b612aba615de48585615b16565b83615b16565b6001600160a01b03831660009081526074602090815260408083208584529091528120600101548210801590612aba57506001600160a01b0384166000908152607460209081526040808320868452909152902060020154615e4b83615f1d565b1115949350505050565b6000818310615e6657506000612aba565b600083815260786020818152604080842088855260019081018352818520548786529383528185208986520190915290912054614398615ea461461d565b6142ae896158b1858763ffffffff613dba16565b60008183615f075760405162461bcd60e51b815260206004820181815283516024840152835190928392604490910191908501908083836000831561592c578181015183820152602001615914565b506000838581615f1357fe5b0495945050505050565b60009081526078602052604090206007015490565b60405180606001604052806000815260200160008152602001600081525090565b828054828255906000526020600020908101928215615f8e579160200282015b82811115615f8e578235825591602001919060010190615f73565b50615f9a929150616042565b5090565b828054600181600116156101000203166002900490600052602060002090601f016020900481019282601f10615fdf57805160ff1916838001178555615f8e565b82800160010185558215615f8e579182015b82811115615f8e578251825591602001919060010190615ff1565b6040518060c001604052806060815260200160008152602001606081526020016000815260200160008152602001600081525090565b611a3891905b80821115615f9a576000815560010161604856fe4f776e61626c653a206e6577206f776e657220697320746865207a65726f206164647265737363616c6c6572206973206e6f7420746865204e6f64654472697665724175746820636f6e7472616374536166654d6174683a206d756c7469706c69636174696f6e206f766572666c6f774f776e61626c653a2063616c6c6572206973206e6f7420746865206f776e6572436f6e747261637420696e7374616e63652068617320616c7265616479206265656e20696e697469616c697a65645346433a20746869732066756e6374696f6e20697320636f6e74726f6c6c656420627920746865206f776e657220616e6420676f7665726e616e636520636f6e74726163746d757374206265206c657373207468616e206f7220657175616c20746f20312e3076616c696461746f72206c6f636b757020706572696f642077696c6c20656e64206561726c69657276616c696461746f7227732064656c65676174696f6e73206c696d69742069732065786365656465646c6f636b6564207374616b652069732067726561746572207468616e207468652077686f6c65207374616b65a265627a7a72315820f605390d206b457bf285da64ae7478967c2dc2d50c0cb2ebbae9a7fa2b8706d664736f6c63430005110032",
  "linkReferences": {},
  "deployedLinkReferences": {}
}