{
  "_format": "hh-sol-artifact-1",
  "contractName": "UnitTestSFC",
  "sourceName": "contracts/test/UnitTestSFC.sol",
  "abi": [
    {
      "anonymous": false,
      "inputs": [
        {
          "indexed": true,
          "internalType": "uint256",
          "name": "validatorID",
          "type": "uint256"
        },
        {
          "indexed": false,
          "internalType": "uint256",
          "name": "status",
          "type": "uint256"
        }
      ],
      "name": "ChangedValidatorStatus",
      "type": "event"
    },
    {
      "anonymous": false,
      "inputs": [
        {
          "indexed": true,
          "internalType": "address",
          "name": "delegator",
          "type": "address"
        },
        {
          "indexed": true,
          "internalType": "uint256",
          "name": "toValidatorID",
          "type": "uint256"
        },
        {
          "indexed": false,
          "internalType": "uint256",
          "name": "lockupExtraReward",
          "type": "uint256"
        },
        {
          "indexed": false,
          "internalType": "uint256",
          "name": "lockupBaseReward",
          "type": "uint256"
        },
        {
          "indexed": false,
          "internalType": "uint256",
          "name": "unlockedReward",
          "type": "uint256"
        }
      ],
      "name": "ClaimedRewards",
      "type": "event"
    },
    {
      "anonymous": false,
      "inputs": [
        {
          "indexed": true,
          "internalType": "uint256",
          "name": "validatorID",
          "type": "uint256"
        },
        {
          "indexed": true,
          "internalType": "address",
          "name": "auth",
          "type": "address"
        },
        {
          "indexed": false,
          "internalType": "uint256",
          "name": "createdEpoch",
          "type": "uint256"
        },
        {
          "indexed": false,
          "internalType": "uint256",
          "name": "createdTime",
          "type": "uint256"
        }
      ],
      "name": "CreatedValidator",
      "type": "event"
    },
    {
      "anonymous": false,
      "inputs": [
        {
          "indexed": true,
          "internalType": "uint256",
          "name": "validatorID",
          "type": "uint256"
        },
        {
          "indexed": false,
          "internalType": "uint256",
          "name": "deactivatedEpoch",
          "type": "uint256"
        },
        {
          "indexed": false,
          "internalType": "uint256",
          "name": "deactivatedTime",
          "type": "uint256"
        }
      ],
      "name": "DeactivatedValidator",
      "type": "event"
    },
    {
      "anonymous": false,
      "inputs": [
        {
          "indexed": true,
          "internalType": "address",
          "name": "delegator",
          "type": "address"
        },
        {
          "indexed": true,
          "internalType": "uint256",
          "name": "toValidatorID",
          "type": "uint256"
        },
        {
          "indexed": false,
          "internalType": "uint256",
          "name": "amount",
          "type": "uint256"
        }
      ],
      "name": "Delegated",
      "type": "event"
    },
    {
      "anonymous": false,
      "inputs": [
        {
          "indexed": true,
          "internalType": "address",
          "name": "previousAddress",
          "type": "address"
        },
        {
          "indexed": true,
          "internalType": "address",
          "name": "newAddress",
          "type": "address"
        }
      ],
      "name": "GovernanceUpdated",
      "type": "event"
    },
    {
      "anonymous": false,
      "inputs": [
        {
          "indexed": true,
          "internalType": "address",
          "name": "receiver",
          "type": "address"
        },
        {
          "indexed": false,
          "internalType": "uint256",
          "name": "amount",
          "type": "uint256"
        },
        {
          "indexed": false,
          "internalType": "string",
          "name": "justification",
          "type": "string"
        }
      ],
      "name": "InflatedFTM",
      "type": "event"
    },
    {
      "anonymous": false,
      "inputs": [
        {
          "indexed": true,
          "internalType": "address",
          "name": "delegator",
          "type": "address"
        },
        {
          "indexed": true,
          "internalType": "uint256",
          "name": "validatorID",
          "type": "uint256"
        },
        {
          "indexed": false,
          "internalType": "uint256",
          "name": "duration",
          "type": "uint256"
        },
        {
          "indexed": false,
          "internalType": "uint256",
          "name": "amount",
          "type": "uint256"
        }
      ],
      "name": "LockedUpStake",
      "type": "event"
    },
    {
      "anonymous": false,
      "inputs": [
        {
          "indexed": true,
          "internalType": "address",
          "name": "previousOwner",
          "type": "address"
        },
        {
          "indexed": true,
          "internalType": "address",
          "name": "newOwner",
          "type": "address"
        }
      ],
      "name": "OwnershipTransferred",
      "type": "event"
    },
    {
      "anonymous": false,
      "inputs": [
        {
          "indexed": true,
          "internalType": "address",
          "name": "delegator",
          "type": "address"
        },
        {
          "indexed": true,
          "internalType": "uint256",
          "name": "validatorID",
          "type": "uint256"
        },
        {
          "indexed": false,
          "internalType": "uint256",
          "name": "amount",
          "type": "uint256"
        }
      ],
      "name": "RefundedSlashedLegacyDelegation",
      "type": "event"
    },
    {
      "anonymous": false,
      "inputs": [
        {
          "indexed": true,
          "internalType": "address",
          "name": "delegator",
          "type": "address"
        },
        {
          "indexed": true,
          "internalType": "uint256",
          "name": "toValidatorID",
          "type": "uint256"
        },
        {
          "indexed": false,
          "internalType": "uint256",
          "name": "lockupExtraReward",
          "type": "uint256"
        },
        {
          "indexed": false,
          "internalType": "uint256",
          "name": "lockupBaseReward",
          "type": "uint256"
        },
        {
          "indexed": false,
          "internalType": "uint256",
          "name": "unlockedReward",
          "type": "uint256"
        }
      ],
      "name": "RestakedRewards",
      "type": "event"
    },
    {
      "anonymous": false,
      "inputs": [
        {
          "indexed": true,
          "internalType": "address",
          "name": "delegator",
          "type": "address"
        },
        {
          "indexed": true,
          "internalType": "uint256",
          "name": "toValidatorID",
          "type": "uint256"
        },
        {
          "indexed": true,
          "internalType": "uint256",
          "name": "wrID",
          "type": "uint256"
        },
        {
          "indexed": false,
          "internalType": "uint256",
          "name": "amount",
          "type": "uint256"
        }
      ],
      "name": "Undelegated",
      "type": "event"
    },
    {
      "anonymous": false,
      "inputs": [
        {
          "indexed": true,
          "internalType": "address",
          "name": "delegator",
          "type": "address"
        },
        {
          "indexed": true,
          "internalType": "uint256",
          "name": "validatorID",
          "type": "uint256"
        },
        {
          "indexed": false,
          "internalType": "uint256",
          "name": "amount",
          "type": "uint256"
        },
        {
          "indexed": false,
          "internalType": "uint256",
          "name": "penalty",
          "type": "uint256"
        }
      ],
      "name": "UnlockedStake",
      "type": "event"
    },
    {
      "anonymous": false,
      "inputs": [
        {
          "indexed": false,
          "internalType": "uint256",
          "name": "value",
          "type": "uint256"
        }
      ],
      "name": "UpdatedBaseRewardPerSec",
      "type": "event"
    },
    {
      "anonymous": false,
      "inputs": [
        {
          "indexed": false,
          "internalType": "uint256",
          "name": "contractCommission",
          "type": "uint256"
        }
      ],
      "name": "UpdatedContractCommission",
      "type": "event"
    },
    {
      "anonymous": false,
      "inputs": [
        {
          "indexed": false,
          "internalType": "uint256",
          "name": "maxDelegationRatio",
          "type": "uint256"
        }
      ],
      "name": "UpdatedMaxDelegationRatio",
      "type": "event"
    },
    {
      "anonymous": false,
      "inputs": [
        {
          "indexed": false,
          "internalType": "uint256",
          "name": "maxLockupDuration",
          "type": "uint256"
        }
      ],
      "name": "UpdatedMaxLockupDuration",
      "type": "event"
    },
    {
      "anonymous": false,
      "inputs": [
        {
          "indexed": false,
          "internalType": "uint256",
          "name": "minLockupDuration",
          "type": "uint256"
        }
      ],
      "name": "UpdatedMinLockupDuration",
      "type": "event"
    },
    {
      "anonymous": false,
      "inputs": [
        {
          "indexed": false,
          "internalType": "uint256",
          "name": "minSelfStake",
          "type": "uint256"
        }
      ],
      "name": "UpdatedMinSelfStake",
      "type": "event"
    },
    {
      "anonymous": false,
      "inputs": [
        {
          "indexed": false,
          "internalType": "uint256",
          "name": "blocksNum",
          "type": "uint256"
        },
        {
          "indexed": false,
          "internalType": "uint256",
          "name": "period",
          "type": "uint256"
        }
      ],
      "name": "UpdatedOfflinePenaltyThreshold",
      "type": "event"
    },
    {
      "anonymous": false,
      "inputs": [
        {
          "indexed": true,
          "internalType": "uint256",
          "name": "validatorID",
          "type": "uint256"
        },
        {
          "indexed": false,
          "internalType": "uint256",
          "name": "refundRatio",
          "type": "uint256"
        }
      ],
      "name": "UpdatedSlashingRefundRatio",
      "type": "event"
    },
    {
      "anonymous": false,
      "inputs": [
        {
          "indexed": false,
          "internalType": "uint256",
          "name": "unlockedRewardRatio",
          "type": "uint256"
        }
      ],
      "name": "UpdatedUnlockedRewardRatio",
      "type": "event"
    },
    {
      "anonymous": false,
      "inputs": [
        {
          "indexed": false,
          "internalType": "uint256",
          "name": "validatorCommission",
          "type": "uint256"
        }
      ],
      "name": "UpdatedValidatorCommission",
      "type": "event"
    },
    {
      "anonymous": false,
      "inputs": [
        {
          "indexed": false,
          "internalType": "uint256",
          "name": "Value",
          "type": "uint256"
        }
      ],
      "name": "UpdatedWithdrawalPeriodEpoch",
      "type": "event"
    },
    {
      "anonymous": false,
      "inputs": [
        {
          "indexed": false,
          "internalType": "uint256",
          "name": "withValuedrawalPeriodTime",
          "type": "uint256"
        }
      ],
      "name": "UpdatedWithdrawalPeriodTime",
      "type": "event"
    },
    {
      "anonymous": false,
      "inputs": [
        {
          "indexed": true,
          "internalType": "address",
          "name": "delegator",
          "type": "address"
        },
        {
          "indexed": true,
          "internalType": "uint256",
          "name": "toValidatorID",
          "type": "uint256"
        },
        {
          "indexed": true,
          "internalType": "uint256",
          "name": "wrID",
          "type": "uint256"
        },
        {
          "indexed": false,
          "internalType": "uint256",
          "name": "amount",
          "type": "uint256"
        }
      ],
      "name": "Withdrawn",
      "type": "event"
    },
    {
      "constant": false,
      "inputs": [
        {
          "internalType": "uint256",
          "name": "validatorID",
          "type": "uint256"
        },
        {
          "internalType": "bool",
          "name": "syncPubkey",
          "type": "bool"
        }
      ],
      "name": "_syncValidator",
      "outputs": [],
      "payable": false,
      "stateMutability": "nonpayable",
      "type": "function"
    },
    {
      "constant": true,
      "inputs": [],
      "name": "activeProposals",
      "outputs": [
        {
          "internalType": "uint256",
          "name": "",
          "type": "uint256"
        }
      ],
      "payable": false,
      "stateMutability": "view",
      "type": "function"
    },
    {
      "constant": false,
      "inputs": [
        {
          "internalType": "uint256",
          "name": "diff",
          "type": "uint256"
        }
      ],
      "name": "advanceTime",
      "outputs": [],
      "payable": false,
      "stateMutability": "nonpayable",
      "type": "function"
    },
    {
      "constant": true,
      "inputs": [],
      "name": "allowedNonNodeCalls",
      "outputs": [
        {
          "internalType": "bool",
          "name": "",
          "type": "bool"
        }
      ],
      "payable": false,
      "stateMutability": "view",
      "type": "function"
    },
    {
      "constant": true,
      "inputs": [],
      "name": "baseRewardPerSecond",
      "outputs": [
        {
          "internalType": "uint256",
          "name": "",
          "type": "uint256"
        }
      ],
      "payable": false,
      "stateMutability": "view",
      "type": "function"
    },
    {
      "constant": false,
      "inputs": [
        {
          "internalType": "uint256",
          "name": "toValidatorID",
          "type": "uint256"
        }
      ],
      "name": "claimRewards",
      "outputs": [],
      "payable": false,
      "stateMutability": "nonpayable",
      "type": "function"
    },
    {
      "constant": true,
      "inputs": [],
      "name": "contractCommission",
      "outputs": [
        {
          "internalType": "uint256",
          "name": "",
          "type": "uint256"
        }
      ],
      "payable": false,
      "stateMutability": "view",
      "type": "function"
    },
    {
      "constant": false,
      "inputs": [
        {
          "internalType": "bytes",
          "name": "pubkey",
          "type": "bytes"
        }
      ],
      "name": "createValidator",
      "outputs": [],
      "payable": true,
      "stateMutability": "payable",
      "type": "function"
    },
    {
      "constant": true,
      "inputs": [],
      "name": "currentEpoch",
      "outputs": [
        {
          "internalType": "uint256",
          "name": "",
          "type": "uint256"
        }
      ],
      "payable": false,
      "stateMutability": "view",
      "type": "function"
    },
    {
      "constant": true,
      "inputs": [],
      "name": "currentSealedEpoch",
      "outputs": [
        {
          "internalType": "uint256",
          "name": "",
          "type": "uint256"
        }
      ],
      "payable": false,
      "stateMutability": "view",
      "type": "function"
    },
    {
      "constant": false,
      "inputs": [
        {
          "internalType": "uint256",
          "name": "validatorID",
          "type": "uint256"
        },
        {
          "internalType": "uint256",
          "name": "status",
          "type": "uint256"
        }
      ],
      "name": "deactivateValidator",
      "outputs": [],
      "payable": false,
      "stateMutability": "nonpayable",
      "type": "function"
    },
    {
      "constant": false,
      "inputs": [
        {
          "internalType": "uint256",
          "name": "toValidatorID",
          "type": "uint256"
        }
      ],
      "name": "delegate",
      "outputs": [],
      "payable": true,
      "stateMutability": "payable",
      "type": "function"
    },
    {
      "constant": false,
      "inputs": [],
      "name": "disableNonNodeCalls",
      "outputs": [],
      "payable": false,
      "stateMutability": "nonpayable",
      "type": "function"
    },
    {
      "constant": false,
      "inputs": [],
      "name": "enableNonNodeCalls",
      "outputs": [],
      "payable": false,
      "stateMutability": "nonpayable",
      "type": "function"
    },
    {
      "constant": true,
      "inputs": [],
      "name": "getBlockTime",
      "outputs": [
        {
          "internalType": "uint256",
          "name": "",
          "type": "uint256"
        }
      ],
      "payable": false,
      "stateMutability": "view",
      "type": "function"
    },
    {
      "constant": true,
      "inputs": [
        {
          "internalType": "uint256",
          "name": "epoch",
          "type": "uint256"
        },
        {
          "internalType": "uint256",
          "name": "validatorID",
          "type": "uint256"
        }
      ],
      "name": "getEpochAccumulatedOriginatedTxsFee",
      "outputs": [
        {
          "internalType": "uint256",
          "name": "",
          "type": "uint256"
        }
      ],
      "payable": false,
      "stateMutability": "view",
      "type": "function"
    },
    {
      "constant": true,
      "inputs": [
        {
          "internalType": "uint256",
          "name": "epoch",
          "type": "uint256"
        },
        {
          "internalType": "uint256",
          "name": "validatorID",
          "type": "uint256"
        }
      ],
      "name": "getEpochAccumulatedRewardPerToken",
      "outputs": [
        {
          "internalType": "uint256",
          "name": "",
          "type": "uint256"
        }
      ],
      "payable": false,
      "stateMutability": "view",
      "type": "function"
    },
    {
      "constant": true,
      "inputs": [
        {
          "internalType": "uint256",
          "name": "epoch",
          "type": "uint256"
        },
        {
          "internalType": "uint256",
          "name": "validatorID",
          "type": "uint256"
        }
      ],
      "name": "getEpochAccumulatedUptime",
      "outputs": [
        {
          "internalType": "uint256",
          "name": "",
          "type": "uint256"
        }
      ],
      "payable": false,
      "stateMutability": "view",
      "type": "function"
    },
    {
      "constant": true,
      "inputs": [
        {
          "internalType": "uint256",
          "name": "epoch",
          "type": "uint256"
        },
        {
          "internalType": "uint256",
          "name": "validatorID",
          "type": "uint256"
        }
      ],
      "name": "getEpochOfflineBlocks",
      "outputs": [
        {
          "internalType": "uint256",
          "name": "",
          "type": "uint256"
        }
      ],
      "payable": false,
      "stateMutability": "view",
      "type": "function"
    },
    {
      "constant": true,
      "inputs": [
        {
          "internalType": "uint256",
          "name": "epoch",
          "type": "uint256"
        },
        {
          "internalType": "uint256",
          "name": "validatorID",
          "type": "uint256"
        }
      ],
      "name": "getEpochOfflineTime",
      "outputs": [
        {
          "internalType": "uint256",
          "name": "",
          "type": "uint256"
        }
      ],
      "payable": false,
      "stateMutability": "view",
      "type": "function"
    },
    {
      "constant": true,
      "inputs": [
        {
          "internalType": "uint256",
          "name": "epoch",
          "type": "uint256"
        },
        {
          "internalType": "uint256",
          "name": "validatorID",
          "type": "uint256"
        }
      ],
      "name": "getEpochReceivedStake",
      "outputs": [
        {
          "internalType": "uint256",
          "name": "",
          "type": "uint256"
        }
      ],
      "payable": false,
      "stateMutability": "view",
      "type": "function"
    },
    {
      "constant": true,
      "inputs": [
        {
          "internalType": "uint256",
          "name": "",
          "type": "uint256"
        }
      ],
      "name": "getEpochSnapshot",
      "outputs": [
        {
          "internalType": "uint256",
          "name": "endTime",
          "type": "uint256"
        },
        {
          "internalType": "uint256",
          "name": "epochFee",
          "type": "uint256"
        },
        {
          "internalType": "uint256",
          "name": "totalBaseRewardWeight",
          "type": "uint256"
        },
        {
          "internalType": "uint256",
          "name": "totalTxRewardWeight",
          "type": "uint256"
        },
        {
          "internalType": "uint256",
          "name": "baseRewardPerSecond",
          "type": "uint256"
        },
        {
          "internalType": "uint256",
          "name": "totalStake",
          "type": "uint256"
        },
        {
          "internalType": "uint256",
          "name": "totalSupply",
          "type": "uint256"
        }
      ],
      "payable": false,
      "stateMutability": "view",
      "type": "function"
    },
    {
      "constant": true,
      "inputs": [
        {
          "internalType": "uint256",
          "name": "epoch",
          "type": "uint256"
        }
      ],
      "name": "getEpochValidatorIDs",
      "outputs": [
        {
          "internalType": "uint256[]",
          "name": "",
          "type": "uint256[]"
        }
      ],
      "payable": false,
      "stateMutability": "view",
      "type": "function"
    },
    {
      "constant": true,
      "inputs": [],
      "name": "getGovernance",
      "outputs": [
        {
          "internalType": "address",
          "name": "",
          "type": "address"
        }
      ],
      "payable": false,
      "stateMutability": "view",
      "type": "function"
    },
    {
      "constant": true,
      "inputs": [
        {
          "internalType": "address",
          "name": "delegator",
          "type": "address"
        },
        {
          "internalType": "uint256",
          "name": "toValidatorID",
          "type": "uint256"
        }
      ],
      "name": "getLockedStake",
      "outputs": [
        {
          "internalType": "uint256",
          "name": "",
          "type": "uint256"
        }
      ],
      "payable": false,
      "stateMutability": "view",
      "type": "function"
    },
    {
      "constant": true,
      "inputs": [
        {
          "internalType": "address",
          "name": "",
          "type": "address"
        },
        {
          "internalType": "uint256",
          "name": "",
          "type": "uint256"
        }
      ],
      "name": "getLockupInfo",
      "outputs": [
        {
          "internalType": "uint256",
          "name": "lockedStake",
          "type": "uint256"
        },
        {
          "internalType": "uint256",
          "name": "fromEpoch",
          "type": "uint256"
        },
        {
          "internalType": "uint256",
          "name": "endTime",
          "type": "uint256"
        },
        {
          "internalType": "uint256",
          "name": "duration",
          "type": "uint256"
        }
      ],
      "payable": false,
      "stateMutability": "view",
      "type": "function"
    },
    {
      "constant": true,
      "inputs": [
        {
          "internalType": "uint256",
          "name": "validatorID",
          "type": "uint256"
        }
      ],
      "name": "getSelfStake",
      "outputs": [
        {
          "internalType": "uint256",
          "name": "",
          "type": "uint256"
        }
      ],
      "payable": false,
      "stateMutability": "view",
      "type": "function"
    },
    {
      "constant": true,
      "inputs": [
        {
          "internalType": "address",
          "name": "",
          "type": "address"
        },
        {
          "internalType": "uint256",
          "name": "",
          "type": "uint256"
        }
      ],
      "name": "getStake",
      "outputs": [
        {
          "internalType": "uint256",
          "name": "",
          "type": "uint256"
        }
      ],
      "payable": false,
      "stateMutability": "view",
      "type": "function"
    },
    {
      "constant": true,
      "inputs": [
        {
          "internalType": "address",
          "name": "",
          "type": "address"
        },
        {
          "internalType": "uint256",
          "name": "",
          "type": "uint256"
        }
      ],
      "name": "getStashedLockupRewards",
      "outputs": [
        {
          "internalType": "uint256",
          "name": "lockupExtraReward",
          "type": "uint256"
        },
        {
          "internalType": "uint256",
          "name": "lockupBaseReward",
          "type": "uint256"
        },
        {
          "internalType": "uint256",
          "name": "unlockedReward",
          "type": "uint256"
        }
      ],
      "payable": false,
      "stateMutability": "view",
      "type": "function"
    },
    {
      "constant": true,
      "inputs": [],
      "name": "getTime",
      "outputs": [
        {
          "internalType": "uint256",
          "name": "",
          "type": "uint256"
        }
      ],
      "payable": false,
      "stateMutability": "view",
      "type": "function"
    },
    {
      "constant": true,
      "inputs": [
        {
          "internalType": "address",
          "name": "delegator",
          "type": "address"
        },
        {
          "internalType": "uint256",
          "name": "toValidatorID",
          "type": "uint256"
        }
      ],
      "name": "getUnlockedStake",
      "outputs": [
        {
          "internalType": "uint256",
          "name": "",
          "type": "uint256"
        }
      ],
      "payable": false,
      "stateMutability": "view",
      "type": "function"
    },
    {
      "constant": true,
      "inputs": [
        {
          "internalType": "uint256",
          "name": "",
          "type": "uint256"
        }
      ],
      "name": "getValidator",
      "outputs": [
        {
          "internalType": "uint256",
          "name": "status",
          "type": "uint256"
        },
        {
          "internalType": "uint256",
          "name": "deactivatedTime",
          "type": "uint256"
        },
        {
          "internalType": "uint256",
          "name": "deactivatedEpoch",
          "type": "uint256"
        },
        {
          "internalType": "uint256",
          "name": "receivedStake",
          "type": "uint256"
        },
        {
          "internalType": "uint256",
          "name": "createdEpoch",
          "type": "uint256"
        },
        {
          "internalType": "uint256",
          "name": "createdTime",
          "type": "uint256"
        },
        {
          "internalType": "address",
          "name": "auth",
          "type": "address"
        }
      ],
      "payable": false,
      "stateMutability": "view",
      "type": "function"
    },
    {
      "constant": true,
      "inputs": [
        {
          "internalType": "address",
          "name": "",
          "type": "address"
        }
      ],
      "name": "getValidatorID",
      "outputs": [
        {
          "internalType": "uint256",
          "name": "",
          "type": "uint256"
        }
      ],
      "payable": false,
      "stateMutability": "view",
      "type": "function"
    },
    {
      "constant": true,
      "inputs": [
        {
          "internalType": "uint256",
          "name": "",
          "type": "uint256"
        }
      ],
      "name": "getValidatorPubkey",
      "outputs": [
        {
          "internalType": "bytes",
          "name": "",
          "type": "bytes"
        }
      ],
      "payable": false,
      "stateMutability": "view",
      "type": "function"
    },
    {
      "constant": true,
      "inputs": [
        {
          "internalType": "address",
          "name": "",
          "type": "address"
        },
        {
          "internalType": "uint256",
          "name": "",
          "type": "uint256"
        },
        {
          "internalType": "uint256",
          "name": "",
          "type": "uint256"
        }
      ],
      "name": "getWithdrawalRequest",
      "outputs": [
        {
          "internalType": "uint256",
          "name": "epoch",
          "type": "uint256"
        },
        {
          "internalType": "uint256",
          "name": "time",
          "type": "uint256"
        },
        {
          "internalType": "uint256",
          "name": "amount",
          "type": "uint256"
        }
      ],
      "payable": false,
      "stateMutability": "view",
      "type": "function"
    },
    {
      "constant": true,
      "inputs": [
        {
          "internalType": "address",
          "name": "delegator",
          "type": "address"
        },
        {
          "internalType": "uint256",
          "name": "validatorID",
          "type": "uint256"
        }
      ],
      "name": "highestLockupEpoch",
      "outputs": [
        {
          "internalType": "uint256",
          "name": "",
          "type": "uint256"
        }
      ],
      "payable": false,
      "stateMutability": "view",
      "type": "function"
    },
    {
      "constant": false,
      "inputs": [
        {
          "internalType": "uint256",
          "name": "sealedEpoch",
          "type": "uint256"
        },
        {
          "internalType": "uint256",
          "name": "_totalSupply",
          "type": "uint256"
        },
        {
          "internalType": "address",
          "name": "nodeDriver",
          "type": "address"
        },
        {
          "internalType": "address",
          "name": "owner",
          "type": "address"
        },
        {
          "internalType": "address",
          "name": "governance",
          "type": "address"
        }
      ],
      "name": "initialize",
      "outputs": [],
      "payable": false,
      "stateMutability": "nonpayable",
      "type": "function"
    },
    {
      "constant": true,
      "inputs": [
        {
          "internalType": "address",
          "name": "delegator",
          "type": "address"
        },
        {
          "internalType": "uint256",
          "name": "toValidatorID",
          "type": "uint256"
        }
      ],
      "name": "isLockedUp",
      "outputs": [
        {
          "internalType": "bool",
          "name": "",
          "type": "bool"
        }
      ],
      "payable": false,
      "stateMutability": "view",
      "type": "function"
    },
    {
      "constant": true,
      "inputs": [],
      "name": "isOwner",
      "outputs": [
        {
          "internalType": "bool",
          "name": "",
          "type": "bool"
        }
      ],
      "payable": false,
      "stateMutability": "view",
      "type": "function"
    },
    {
      "constant": true,
      "inputs": [
        {
          "internalType": "uint256",
          "name": "validatorID",
          "type": "uint256"
        }
      ],
      "name": "isSlashed",
      "outputs": [
        {
          "internalType": "bool",
          "name": "",
          "type": "bool"
        }
      ],
      "payable": false,
      "stateMutability": "view",
      "type": "function"
    },
    {
      "constant": true,
      "inputs": [],
      "name": "lastValidatorID",
      "outputs": [
        {
          "internalType": "uint256",
          "name": "",
          "type": "uint256"
        }
      ],
      "payable": false,
      "stateMutability": "view",
      "type": "function"
    },
    {
      "constant": false,
      "inputs": [
        {
          "internalType": "uint256",
          "name": "toValidatorID",
          "type": "uint256"
        },
        {
          "internalType": "uint256",
          "name": "lockupDuration",
          "type": "uint256"
        },
        {
          "internalType": "uint256",
          "name": "amount",
          "type": "uint256"
        }
      ],
      "name": "lockStake",
      "outputs": [],
      "payable": false,
      "stateMutability": "nonpayable",
      "type": "function"
    },
    {
      "constant": true,
      "inputs": [],
      "name": "maxDelegatedRatio",
      "outputs": [
        {
          "internalType": "uint256",
          "name": "",
          "type": "uint256"
        }
      ],
      "payable": false,
      "stateMutability": "view",
      "type": "function"
    },
    {
      "constant": true,
      "inputs": [],
      "name": "maxLockupDuration",
      "outputs": [
        {
          "internalType": "uint256",
          "name": "",
          "type": "uint256"
        }
      ],
      "payable": false,
      "stateMutability": "view",
      "type": "function"
    },
    {
      "constant": true,
      "inputs": [],
      "name": "minLockupDuration",
      "outputs": [
        {
          "internalType": "uint256",
          "name": "",
          "type": "uint256"
        }
      ],
      "payable": false,
      "stateMutability": "view",
      "type": "function"
    },
    {
      "constant": true,
      "inputs": [],
      "name": "minSelfStake",
      "outputs": [
        {
          "internalType": "uint256",
          "name": "",
          "type": "uint256"
        }
      ],
      "payable": false,
      "stateMutability": "view",
      "type": "function"
    },
    {
      "constant": false,
      "inputs": [
        {
          "internalType": "address payable",
          "name": "receiver",
          "type": "address"
        },
        {
          "internalType": "uint256",
          "name": "amount",
          "type": "uint256"
        },
        {
          "internalType": "string",
          "name": "justification",
          "type": "string"
        }
      ],
      "name": "mintFTM",
      "outputs": [],
      "payable": false,
      "stateMutability": "nonpayable",
      "type": "function"
    },
    {
      "constant": true,
      "inputs": [],
      "name": "offlinePenaltyThreshold",
      "outputs": [
        {
          "internalType": "uint256",
          "name": "blocksNum",
          "type": "uint256"
        },
        {
          "internalType": "uint256",
          "name": "time",
          "type": "uint256"
        }
      ],
      "payable": false,
      "stateMutability": "view",
      "type": "function"
    },
    {
      "constant": true,
      "inputs": [],
      "name": "owner",
      "outputs": [
        {
          "internalType": "address",
          "name": "",
          "type": "address"
        }
      ],
      "payable": false,
      "stateMutability": "view",
      "type": "function"
    },
    {
      "constant": true,
      "inputs": [
        {
          "internalType": "address",
          "name": "delegator",
          "type": "address"
        },
        {
          "internalType": "uint256",
          "name": "toValidatorID",
          "type": "uint256"
        }
      ],
      "name": "pendingRewards",
      "outputs": [
        {
          "internalType": "uint256",
          "name": "",
          "type": "uint256"
        }
      ],
      "payable": false,
      "stateMutability": "view",
      "type": "function"
    },
    {
      "constant": false,
      "inputs": [],
      "name": "rebaseTime",
      "outputs": [],
      "payable": false,
      "stateMutability": "nonpayable",
      "type": "function"
    },
    {
      "constant": false,
      "inputs": [
        {
          "internalType": "uint256",
          "name": "toValidatorID",
          "type": "uint256"
        },
        {
          "internalType": "uint256",
          "name": "lockupDuration",
          "type": "uint256"
        },
        {
          "internalType": "uint256",
          "name": "amount",
          "type": "uint256"
        }
      ],
      "name": "relockStake",
      "outputs": [],
      "payable": false,
      "stateMutability": "nonpayable",
      "type": "function"
    },
    {
      "constant": false,
      "inputs": [],
      "name": "renounceOwnership",
      "outputs": [],
      "payable": false,
      "stateMutability": "nonpayable",
      "type": "function"
    },
    {
      "constant": false,
      "inputs": [
        {
          "internalType": "uint256",
          "name": "toValidatorID",
          "type": "uint256"
        }
      ],
      "name": "restakeRewards",
      "outputs": [],
      "payable": false,
      "stateMutability": "nonpayable",
      "type": "function"
    },
    {
      "constant": true,
      "inputs": [
        {
          "internalType": "address",
          "name": "delegator",
          "type": "address"
        },
        {
          "internalType": "uint256",
          "name": "validatorID",
          "type": "uint256"
        }
      ],
      "name": "rewardsStash",
      "outputs": [
        {
          "internalType": "uint256",
          "name": "",
          "type": "uint256"
        }
      ],
      "payable": false,
      "stateMutability": "view",
      "type": "function"
    },
    {
      "constant": false,
      "inputs": [
        {
          "internalType": "uint256[]",
          "name": "offlineTime",
          "type": "uint256[]"
        },
        {
          "internalType": "uint256[]",
          "name": "offlineBlocks",
          "type": "uint256[]"
        },
        {
          "internalType": "uint256[]",
          "name": "uptimes",
          "type": "uint256[]"
        },
        {
          "internalType": "uint256[]",
          "name": "originatedTxsFee",
          "type": "uint256[]"
        }
      ],
      "name": "sealEpoch",
      "outputs": [],
      "payable": false,
      "stateMutability": "nonpayable",
      "type": "function"
    },
    {
      "constant": false,
      "inputs": [
        {
          "internalType": "uint256[]",
          "name": "nextValidatorIDs",
          "type": "uint256[]"
        }
      ],
      "name": "sealEpochValidators",
      "outputs": [],
      "payable": false,
      "stateMutability": "nonpayable",
      "type": "function"
    },
    {
      "constant": false,
      "inputs": [
        {
          "internalType": "uint256",
          "name": "_contractCommission",
          "type": "uint256"
        }
      ],
      "name": "setContractCommission",
      "outputs": [],
      "payable": false,
      "stateMutability": "nonpayable",
      "type": "function"
    },
    {
      "constant": false,
      "inputs": [
        {
          "internalType": "address",
          "name": "delegator",
          "type": "address"
        },
        {
          "internalType": "uint256",
          "name": "toValidatorID",
          "type": "uint256"
        },
        {
          "internalType": "uint256",
          "name": "stake",
          "type": "uint256"
        },
        {
          "internalType": "uint256",
          "name": "lockedStake",
          "type": "uint256"
        },
        {
          "internalType": "uint256",
          "name": "lockupFromEpoch",
          "type": "uint256"
        },
        {
          "internalType": "uint256",
          "name": "lockupEndTime",
          "type": "uint256"
        },
        {
          "internalType": "uint256",
          "name": "lockupDuration",
          "type": "uint256"
        },
        {
          "internalType": "uint256",
          "name": "earlyUnlockPenalty",
          "type": "uint256"
        },
        {
          "internalType": "uint256",
          "name": "rewards",
          "type": "uint256"
        }
      ],
      "name": "setGenesisDelegation",
      "outputs": [],
      "payable": false,
      "stateMutability": "nonpayable",
      "type": "function"
    },
    {
      "constant": false,
      "inputs": [
        {
          "internalType": "address",
          "name": "auth",
          "type": "address"
        },
        {
          "internalType": "uint256",
          "name": "validatorID",
          "type": "uint256"
        },
        {
          "internalType": "bytes",
          "name": "pubkey",
          "type": "bytes"
        },
        {
          "internalType": "uint256",
          "name": "status",
          "type": "uint256"
        },
        {
          "internalType": "uint256",
          "name": "createdEpoch",
          "type": "uint256"
        },
        {
          "internalType": "uint256",
          "name": "createdTime",
          "type": "uint256"
        },
        {
          "internalType": "uint256",
          "name": "deactivatedEpoch",
          "type": "uint256"
        },
        {
          "internalType": "uint256",
          "name": "deactivatedTime",
          "type": "uint256"
        }
      ],
      "name": "setGenesisValidator",
      "outputs": [],
      "payable": false,
      "stateMutability": "nonpayable",
      "type": "function"
    },
    {
      "constant": false,
      "inputs": [
        {
          "internalType": "uint256",
          "name": "_maxDelegationRatio",
          "type": "uint256"
        }
      ],
      "name": "setMaxDelegation",
      "outputs": [],
      "payable": false,
      "stateMutability": "nonpayable",
      "type": "function"
    },
    {
      "constant": false,
      "inputs": [
        {
          "internalType": "uint256",
          "name": "_maxLockupDuration",
          "type": "uint256"
        }
      ],
      "name": "setMaxLockupDuration",
      "outputs": [],
      "payable": false,
      "stateMutability": "nonpayable",
      "type": "function"
    },
    {
      "constant": false,
      "inputs": [
        {
          "internalType": "uint256",
          "name": "_minLockupDuration",
          "type": "uint256"
        }
      ],
      "name": "setMinLockupDuration",
      "outputs": [],
      "payable": false,
      "stateMutability": "nonpayable",
      "type": "function"
    },
    {
      "constant": false,
      "inputs": [
        {
          "internalType": "uint256",
          "name": "_minSelfStake",
          "type": "uint256"
        }
      ],
      "name": "setMinSelfStake",
      "outputs": [],
      "payable": false,
      "stateMutability": "nonpayable",
      "type": "function"
    },
    {
      "constant": false,
      "inputs": [
        {
          "internalType": "uint256",
          "name": "_unlockedReward",
          "type": "uint256"
        }
      ],
      "name": "setUnlockedRewardRatio",
      "outputs": [],
      "payable": false,
      "stateMutability": "nonpayable",
      "type": "function"
    },
    {
      "constant": false,
      "inputs": [
        {
          "internalType": "uint256",
          "name": "_validatorCommission",
          "type": "uint256"
        }
      ],
      "name": "setValidatorCommission",
      "outputs": [],
      "payable": false,
      "stateMutability": "nonpayable",
      "type": "function"
    },
    {
      "constant": false,
      "inputs": [
        {
          "internalType": "uint256",
          "name": "_withdrawalPeriodEpochs",
          "type": "uint256"
        }
      ],
      "name": "setWithdrawalPeriodEpoch",
      "outputs": [],
      "payable": false,
      "stateMutability": "nonpayable",
      "type": "function"
    },
    {
      "constant": false,
      "inputs": [
        {
          "internalType": "uint256",
          "name": "_withdrawalPeriodTime",
          "type": "uint256"
        }
      ],
      "name": "setWithdrawalPeriodTime",
      "outputs": [],
      "payable": false,
      "stateMutability": "nonpayable",
      "type": "function"
    },
    {
      "constant": true,
      "inputs": [
        {
          "internalType": "uint256",
          "name": "",
          "type": "uint256"
        }
      ],
      "name": "slashingRefundRatio",
      "outputs": [
        {
          "internalType": "uint256",
          "name": "",
          "type": "uint256"
        }
      ],
      "payable": false,
      "stateMutability": "view",
      "type": "function"
    },
    {
      "constant": true,
      "inputs": [],
      "name": "stakeTokenizerAddress",
      "outputs": [
        {
          "internalType": "address",
          "name": "",
          "type": "address"
        }
      ],
      "payable": false,
      "stateMutability": "view",
      "type": "function"
    },
    {
      "constant": false,
      "inputs": [
        {
          "internalType": "address",
          "name": "delegator",
          "type": "address"
        },
        {
          "internalType": "uint256",
          "name": "toValidatorID",
          "type": "uint256"
        }
      ],
      "name": "stashRewards",
      "outputs": [],
      "payable": false,
      "stateMutability": "nonpayable",
      "type": "function"
    },
    {
      "constant": true,
      "inputs": [
        {
          "internalType": "address",
          "name": "",
          "type": "address"
        },
        {
          "internalType": "uint256",
          "name": "",
          "type": "uint256"
        }
      ],
      "name": "stashedRewardsUntilEpoch",
      "outputs": [
        {
          "internalType": "uint256",
          "name": "",
          "type": "uint256"
        }
      ],
      "payable": false,
      "stateMutability": "view",
      "type": "function"
    },
    {
      "constant": true,
      "inputs": [],
      "name": "time",
      "outputs": [
        {
          "internalType": "uint256",
          "name": "",
          "type": "uint256"
        }
      ],
      "payable": false,
      "stateMutability": "view",
      "type": "function"
    },
    {
      "constant": true,
      "inputs": [],
      "name": "totalActiveStake",
      "outputs": [
        {
          "internalType": "uint256",
          "name": "",
          "type": "uint256"
        }
      ],
      "payable": false,
      "stateMutability": "view",
      "type": "function"
    },
    {
      "constant": true,
      "inputs": [],
      "name": "totalSlashedStake",
      "outputs": [
        {
          "internalType": "uint256",
          "name": "",
          "type": "uint256"
        }
      ],
      "payable": false,
      "stateMutability": "view",
      "type": "function"
    },
    {
      "constant": true,
      "inputs": [],
      "name": "totalStake",
      "outputs": [
        {
          "internalType": "uint256",
          "name": "",
          "type": "uint256"
        }
      ],
      "payable": false,
      "stateMutability": "view",
      "type": "function"
    },
    {
      "constant": true,
      "inputs": [],
      "name": "totalSupply",
      "outputs": [
        {
          "internalType": "uint256",
          "name": "",
          "type": "uint256"
        }
      ],
      "payable": false,
      "stateMutability": "view",
      "type": "function"
    },
    {
      "constant": false,
      "inputs": [
        {
          "internalType": "address",
          "name": "newOwner",
          "type": "address"
        }
      ],
      "name": "transferOwnership",
      "outputs": [],
      "payable": false,
      "stateMutability": "nonpayable",
      "type": "function"
    },
    {
      "constant": false,
      "inputs": [
        {
          "internalType": "uint256",
          "name": "toValidatorID",
          "type": "uint256"
        },
        {
          "internalType": "uint256",
          "name": "wrID",
          "type": "uint256"
        },
        {
          "internalType": "uint256",
          "name": "amount",
          "type": "uint256"
        }
      ],
      "name": "undelegate",
      "outputs": [],
      "payable": false,
      "stateMutability": "nonpayable",
      "type": "function"
    },
    {
      "constant": false,
      "inputs": [
        {
          "internalType": "uint256",
          "name": "toValidatorID",
          "type": "uint256"
        },
        {
          "internalType": "uint256",
          "name": "amount",
          "type": "uint256"
        }
      ],
      "name": "unlockStake",
      "outputs": [
        {
          "internalType": "uint256",
          "name": "",
          "type": "uint256"
        }
      ],
      "payable": false,
      "stateMutability": "nonpayable",
      "type": "function"
    },
    {
      "constant": true,
      "inputs": [],
      "name": "unlockedRewardRatio",
      "outputs": [
        {
          "internalType": "uint256",
          "name": "",
          "type": "uint256"
        }
      ],
      "payable": false,
      "stateMutability": "view",
      "type": "function"
    },
    {
      "constant": false,
      "inputs": [
        {
          "internalType": "uint256",
          "name": "value",
          "type": "uint256"
        }
      ],
      "name": "updateBaseRewardPerSecond",
      "outputs": [],
      "payable": false,
      "stateMutability": "nonpayable",
      "type": "function"
    },
    {
      "constant": false,
      "inputs": [
        {
          "internalType": "address",
          "name": "_governance",
          "type": "address"
        }
      ],
      "name": "updateGovernanceContract",
      "outputs": [],
      "payable": false,
      "stateMutability": "nonpayable",
      "type": "function"
    },
    {
      "constant": false,
      "inputs": [
        {
          "internalType": "uint256",
          "name": "blocksNum",
          "type": "uint256"
        },
        {
          "internalType": "uint256",
          "name": "time",
          "type": "uint256"
        }
      ],
      "name": "updateOfflinePenaltyThreshold",
      "outputs": [],
      "payable": false,
      "stateMutability": "nonpayable",
      "type": "function"
    },
    {
      "constant": false,
      "inputs": [
        {
          "internalType": "uint256",
          "name": "validatorID",
          "type": "uint256"
        },
        {
          "internalType": "uint256",
          "name": "refundRatio",
          "type": "uint256"
        }
      ],
      "name": "updateSlashingRefundRatio",
      "outputs": [],
      "payable": false,
      "stateMutability": "nonpayable",
      "type": "function"
    },
    {
      "constant": false,
      "inputs": [
        {
          "internalType": "address",
          "name": "addr",
          "type": "address"
        }
      ],
      "name": "updateStakeTokenizerAddress",
      "outputs": [],
      "payable": false,
      "stateMutability": "nonpayable",
      "type": "function"
    },
    {
      "constant": false,
      "inputs": [
        {
          "internalType": "int256",
          "name": "diff",
          "type": "int256"
        }
      ],
      "name": "updateTotalSupply",
      "outputs": [],
      "payable": false,
      "stateMutability": "nonpayable",
      "type": "function"
    },
    {
      "constant": true,
      "inputs": [],
      "name": "validatorCommission",
      "outputs": [
        {
          "internalType": "uint256",
          "name": "",
          "type": "uint256"
        }
      ],
      "payable": false,
      "stateMutability": "view",
      "type": "function"
    },
    {
      "constant": true,
      "inputs": [],
      "name": "version",
      "outputs": [
        {
          "internalType": "bytes3",
          "name": "",
          "type": "bytes3"
        }
      ],
      "payable": false,
      "stateMutability": "pure",
      "type": "function"
    },
    {
      "constant": false,
      "inputs": [
        {
          "internalType": "uint256",
          "name": "toValidatorID",
          "type": "uint256"
        },
        {
          "internalType": "uint256",
          "name": "wrID",
          "type": "uint256"
        }
      ],
      "name": "withdraw",
      "outputs": [],
      "payable": false,
      "stateMutability": "nonpayable",
      "type": "function"
    },
    {
      "constant": true,
      "inputs": [],
      "name": "withdrawalPeriodEpochs",
      "outputs": [
        {
          "internalType": "uint256",
          "name": "",
          "type": "uint256"
        }
      ],
      "payable": false,
      "stateMutability": "view",
      "type": "function"
    },
    {
      "constant": true,
      "inputs": [],
      "name": "withdrawalPeriodTime",
      "outputs": [
        {
          "internalType": "uint256",
          "name": "",
          "type": "uint256"
        }
      ],
      "payable": false,
      "stateMutability": "view",
      "type": "function"
    }
  ],
  "bytecode": "0x608060405234801561001057600080fd5b5061621580620000216000396000f3fe6080604052600436106104f75760003560e01c8063715018a61161028c578063bd14d9071161015a578063d9a7c1f9116100cc578063e2f8c33611610085578063e2f8c33614611511578063e4af78be146115a1578063ebdf104c146115cb578063f2fde38b14611736578063f5bd296814611769578063f78bf110146117a2576104f7565b8063d9a7c1f9146113bb578063dc31e1af146113d0578063de67f21514611400578063df00c92214611436578063e08d7e6614611466578063e261641a146114e1576104f7565b8063cc8343aa1161011e578063cc8343aa146112ae578063cefe9c18146112e0578063cfd476631461130a578063cfdbb7cd14611343578063d54b50991461137c578063d75629cf14611391576104f7565b8063bd14d907146111fa578063c3de580e14611230578063c5f530af1461125a578063c65ee0e11461126f578063c7be95de14611299576104f7565b80639fa6dd35116101fe578063ad9a4b5c116101b7578063ad9a4b5c14611073578063b5d896271461109d578063b6d9edd514611108578063b810e41114611132578063b82b84271461116b578063b88a37e214611180576104f7565b80639fa6dd3514610f37578063a198d22914610f54578063a2f6e6bc14610f84578063a5a470ad14610fb7578063a778651514611025578063a86a056f1461103a576104f7565b80638b0e9f3f116102505780638b0e9f3f14610e1c5780638b1a0d1114610e315780638cddb01514610e615780638da5cb5b14610e9a5780638f32d59b14610eaf57806396c7ee4614610ed8576104f7565b8063715018a614610d295780637667180814610d3e5780637cacb1d614610d53578063854873e114610d6857806387ceff0914610e07576104f7565b80632d2646ed116103c9578063557ed1ba1161033b57806361e53fcc116102f457806361e53fcc14610c15578063650acd6614610c45578063670322f814610c5a5780636ca6d6bc14610c935780636f49866314610cbd5780636faf60a014610cf6576104f7565b8063557ed1ba14610b435780635601fe0114610b5857806358f95b8014610b825780635e2308d214610bb25780635fab23a814610bc75780636099ecb214610bdc576104f7565b80634055f2731161038d5780634055f273146109a8578063441a3e70146109d25780634f7c4efb14610a025780634f864df414610a325780634feb92f314610a6857806354fd4d5014610b11576104f7565b80632d2646ed1461088c57806333469d3d146108b6578063346bdcfb146108cb57806339b80c00146108f55780633fbfd4df14610957576104f7565b806316ada5471161046d5780632265f284116104265780632265f284146107f557806324f3082a1461080a5780632709275e1461081f578063289b3c0d1461083457806328f73148146108495780632cedb0971461085e576104f7565b806316ada547146106a957806318160ddd146106be57806318f628d4146106d35780631d3ac42c146107385780631e702f83146107685780631f27015214610798576104f7565b806309fc49ab116104bf57806309fc49ab146105eb5780630d4955e3146106005780630d7b2609146106155780630e559d821461062a578063109c3d271461065b57806312622d0e14610670576104f7565b80630135b1db146104fc57806303c91ccd1461054157806307e32f0a1461056d57806308c36874146105975780630962ef79146105c1575b600080fd5b34801561050857600080fd5b5061052f6004803603602081101561051f57600080fd5b50356001600160a01b03166117cc565b60408051918252519081900360200190f35b34801561054d57600080fd5b5061056b6004803603602081101561056457600080fd5b50356117de565b005b34801561057957600080fd5b5061056b6004803603602081101561059057600080fd5b50356117f3565b3480156105a357600080fd5b5061056b600480360360208110156105ba57600080fd5b50356117fe565b3480156105cd57600080fd5b5061056b600480360360208110156105e457600080fd5b50356118ca565b3480156105f757600080fd5b5061056b611a0a565b34801561060c57600080fd5b5061052f611a19565b34801561062157600080fd5b5061052f611a24565b34801561063657600080fd5b5061063f611a2d565b604080516001600160a01b039092168252519081900360200190f35b34801561066757600080fd5b5061052f611a3c565b34801561067c57600080fd5b5061052f6004803603604081101561069357600080fd5b506001600160a01b038135169060200135611abf565b3480156106b557600080fd5b5061052f611b48565b3480156106ca57600080fd5b5061052f611b4e565b3480156106df57600080fd5b5061056b60048036036101208110156106f757600080fd5b506001600160a01b038135169060208101359060408101359060608101359060808101359060a08101359060c08101359060e0810135906101000135611b54565b34801561074457600080fd5b5061052f6004803603604081101561075b57600080fd5b5080359060200135611cb4565b34801561077457600080fd5b5061056b6004803603604081101561078b57600080fd5b5080359060200135611e8c565b3480156107a457600080fd5b506107d7600480360360608110156107bb57600080fd5b506001600160a01b038135169060208101359060400135611f2a565b60408051938452602084019290925282820152519081900360600190f35b34801561080157600080fd5b5061052f611f5c565b34801561081657600080fd5b5061056b611f6f565b34801561082b57600080fd5b5061052f611f75565b34801561084057600080fd5b5061063f611f92565b34801561085557600080fd5b5061052f611fa1565b34801561086a57600080fd5b50610873611fa7565b6040805192835260208301919091528051918290030190f35b34801561089857600080fd5b5061056b600480360360208110156108af57600080fd5b5035611fb1565b3480156108c257600080fd5b5061056b611fc3565b3480156108d757600080fd5b5061056b600480360360208110156108ee57600080fd5b5035611fcf565b34801561090157600080fd5b5061091f6004803603602081101561091857600080fd5b503561203b565b604080519788526020880196909652868601949094526060860192909252608085015260a084015260c0830152519081900360e00190f35b34801561096357600080fd5b5061056b600480360360a081101561097a57600080fd5b508035906020810135906001600160a01b03604082013581169160608101358216916080909101351661207d565b3480156109b457600080fd5b5061056b600480360360208110156109cb57600080fd5b503561218e565b3480156109de57600080fd5b5061056b600480360360408110156109f557600080fd5b50803590602001356121a0565b348015610a0e57600080fd5b5061056b60048036036040811015610a2557600080fd5b508035906020013561259d565b348015610a3e57600080fd5b5061056b60048036036060811015610a5557600080fd5b50803590602081013590604001356126cf565b348015610a7457600080fd5b5061056b6004803603610100811015610a8c57600080fd5b6001600160a01b0382351691602081013591810190606081016040820135600160201b811115610abb57600080fd5b820183602082011115610acd57600080fd5b803590602001918460018302840111600160201b83111715610aee57600080fd5b919350915080359060208101359060408101359060608101359060800135612947565b348015610b1d57600080fd5b50610b266129ed565b604080516001600160e81b03199092168252519081900360200190f35b348015610b4f57600080fd5b5061052f6129f7565b348015610b6457600080fd5b5061052f60048036036020811015610b7b57600080fd5b50356129fd565b348015610b8e57600080fd5b5061052f60048036036040811015610ba557600080fd5b5080359060200135612a33565b348015610bbe57600080fd5b5061052f612a50565b348015610bd357600080fd5b5061052f612a67565b348015610be857600080fd5b5061052f60048036036040811015610bff57600080fd5b506001600160a01b038135169060200135612a6d565b348015610c2157600080fd5b5061052f60048036036040811015610c3857600080fd5b5080359060200135612aab565b348015610c5157600080fd5b5061052f612acc565b348015610c6657600080fd5b5061052f60048036036040811015610c7d57600080fd5b506001600160a01b038135169060200135612ad2565b348015610c9f57600080fd5b5061056b60048036036020811015610cb657600080fd5b5035612b13565b348015610cc957600080fd5b5061052f60048036036040811015610ce057600080fd5b506001600160a01b038135169060200135612b25565b348015610d0257600080fd5b5061056b60048036036020811015610d1957600080fd5b50356001600160a01b0316612b8f565b348015610d3557600080fd5b5061056b612c32565b348015610d4a57600080fd5b5061052f612cc3565b348015610d5f57600080fd5b5061052f612ccc565b348015610d7457600080fd5b50610d9260048036036020811015610d8b57600080fd5b5035612cd2565b6040805160208082528351818301528351919283929083019185019080838360005b83811015610dcc578181015183820152602001610db4565b50505050905090810190601f168015610df95780820380516001836020036101000a031916815260200191505b509250505060405180910390f35b348015610e1357600080fd5b5061052f612d6d565b348015610e2857600080fd5b5061052f612d7c565b348015610e3d57600080fd5b5061056b60048036036040811015610e5457600080fd5b5080359060200135612d82565b348015610e6d57600080fd5b5061056b60048036036040811015610e8457600080fd5b506001600160a01b038135169060200135612e12565b348015610ea657600080fd5b5061063f612e60565b348015610ebb57600080fd5b50610ec4612e6f565b604080519115158252519081900360200190f35b348015610ee457600080fd5b50610f1160048036036040811015610efb57600080fd5b506001600160a01b038135169060200135612e80565b604080519485526020850193909352838301919091526060830152519081900360800190f35b61056b60048036036020811015610f4d57600080fd5b5035612eb2565b348015610f6057600080fd5b5061052f60048036036040811015610f7757600080fd5b5080359060200135612ebd565b348015610f9057600080fd5b5061056b60048036036020811015610fa757600080fd5b50356001600160a01b0316612ede565b61056b60048036036020811015610fcd57600080fd5b810190602081018135600160201b811115610fe757600080fd5b820183602082011115610ff957600080fd5b803590602001918460018302840111600160201b8311171561101a57600080fd5b509092509050612f47565b34801561103157600080fd5b5061052f6130c9565b34801561104657600080fd5b5061052f6004803603604081101561105d57600080fd5b506001600160a01b0381351690602001356130e0565b34801561107f57600080fd5b5061056b6004803603602081101561109657600080fd5b50356130fd565b3480156110a957600080fd5b506110c7600480360360208110156110c057600080fd5b503561310f565b604080519788526020880196909652868601949094526060860192909252608085015260a08401526001600160a01b031660c0830152519081900360e00190f35b34801561111457600080fd5b5061056b6004803603602081101561112b57600080fd5b5035613155565b34801561113e57600080fd5b506107d76004803603604081101561115557600080fd5b506001600160a01b038135169060200135613235565b34801561117757600080fd5b5061052f613261565b34801561118c57600080fd5b506111aa600480360360208110156111a357600080fd5b5035613267565b60408051602080825283518183015283519192839290830191858101910280838360005b838110156111e65781810151838201526020016111ce565b505050509050019250505060405180910390f35b34801561120657600080fd5b5061056b6004803603606081101561121d57600080fd5b50803590602081013590604001356132cc565b34801561123c57600080fd5b50610ec46004803603602081101561125357600080fd5b50356132df565b34801561126657600080fd5b5061052f6132f6565b34801561127b57600080fd5b5061052f6004803603602081101561129257600080fd5b5035613302565b3480156112a557600080fd5b5061052f613314565b3480156112ba57600080fd5b5061056b600480360360408110156112d157600080fd5b5080359060200135151561331a565b3480156112ec57600080fd5b5061056b6004803603602081101561130357600080fd5b50356134fc565b34801561131657600080fd5b5061052f6004803603604081101561132d57600080fd5b506001600160a01b03813516906020013561350e565b34801561134f57600080fd5b50610ec46004803603604081101561136657600080fd5b506001600160a01b03813516906020013561352b565b34801561138857600080fd5b50610ec46135c1565b34801561139d57600080fd5b5061056b600480360360208110156113b457600080fd5b50356135ca565b3480156113c757600080fd5b5061052f6135dc565b3480156113dc57600080fd5b5061052f600480360360408110156113f357600080fd5b50803590602001356135e2565b34801561140c57600080fd5b5061056b6004803603606081101561142357600080fd5b5080359060208101359060400135613603565b34801561144257600080fd5b5061052f6004803603604081101561145957600080fd5b50803590602001356136a0565b34801561147257600080fd5b5061056b6004803603602081101561148957600080fd5b810190602081018135600160201b8111156114a357600080fd5b8201836020820111156114b557600080fd5b803590602001918460208302840111600160201b831117156114d657600080fd5b5090925090506136c1565b3480156114ed57600080fd5b5061052f6004803603604081101561150457600080fd5b508035906020013561379b565b34801561151d57600080fd5b5061056b6004803603606081101561153457600080fd5b6001600160a01b0382351691602081013591810190606081016040820135600160201b81111561156357600080fd5b82018360208201111561157557600080fd5b803590602001918460018302840111600160201b8311171561159657600080fd5b5090925090506137bc565b3480156115ad57600080fd5b5061056b600480360360208110156115c457600080fd5b50356138bb565b3480156115d757600080fd5b5061056b600480360360808110156115ee57600080fd5b810190602081018135600160201b81111561160857600080fd5b82018360208201111561161a57600080fd5b803590602001918460208302840111600160201b8311171561163b57600080fd5b919390929091602081019035600160201b81111561165857600080fd5b82018360208201111561166a57600080fd5b803590602001918460208302840111600160201b8311171561168b57600080fd5b919390929091602081019035600160201b8111156116a857600080fd5b8201836020820111156116ba57600080fd5b803590602001918460208302840111600160201b831117156116db57600080fd5b919390929091602081019035600160201b8111156116f857600080fd5b82018360208201111561170a57600080fd5b803590602001918460208302840111600160201b8311171561172b57600080fd5b5090925090506138cd565b34801561174257600080fd5b5061056b6004803603602081101561175957600080fd5b50356001600160a01b0316613aa9565b34801561177557600080fd5b5061052f6004803603604081101561178c57600080fd5b506001600160a01b038135169060200135613af9565b3480156117ae57600080fd5b5061056b600480360360208110156117c557600080fd5b5035613b05565b606a6020526000908152604090205481565b6117e733613b17565b6117f081613b91565b50565b608680549091019055565b33611807615f15565b6118118284613bcc565b6020810151815191925060009161182d9163ffffffff613cc016565b9050611850838561184b856040015185613cc090919063ffffffff16565b613d1a565b6001600160a01b0383166000818152607460209081526040808320888452825291829020805485019055845185820151868401518451928352928201528083019190915290518692917f4119153d17a36f9597d40e3ab4148d03261a439dddbec4e91799ab7159608e26919081900360600190a350505050565b336118d3615f15565b6118dd8284613bcc565b90506000826001600160a01b031661191a836040015161190e85602001518660000151613cc090919063ffffffff16565b9063ffffffff613cc016565b604051600081818185875af1925050503d8060008114611956576040519150601f19603f3d011682016040523d82523d6000602084013e61195b565b606091505b50509050806119a6576040805162461bcd60e51b81526020600482015260126024820152714661696c656420746f2073656e642046544d60701b604482015290519081900360640190fd5b83836001600160a01b03167fc1d8eb6e444b89fb8ff0991c19311c070df704ccb009e210d1462d5b2410bf4584600001518560200151866040015160405180848152602001838152602001828152602001935050505060405180910390a350505050565b6087805460ff19166001179055565b60815461016d025b90565b608054600e0290565b6085546001600160a01b031681565b600080606660009054906101000a90046001600160a01b03166001600160a01b0316635584c4f96040518163ffffffff1660e01b815260040160206040518083038186803b158015611a8d57600080fd5b505afa158015611aa1573d6000803e3d6000fd5b505050506040513d6020811015611ab757600080fd5b505191505090565b6000611acb838361352b565b611af957506001600160a01b0382166000908152607360209081526040808320848452909152902054611b42565b6001600160a01b038316600081815260746020908152604080832086845282528083205493835260738252808320868452909152902054611b3f9163ffffffff613e1716565b90505b92915050565b60865481565b60775481565b611b5d33613e59565b611b985760405162461bcd60e51b81526004018080602001828103825260298152602001806160666029913960400191505060405180910390fd5b611ba3898989613e78565b6001600160a01b03891660009081526070602090815260408083208b84529091529020600201819055611bd587613fdd565b8515611ca95786861115611c1a5760405162461bcd60e51b815260040180806020018281038252602c8152602001806161b5602c913960400191505060405180910390fd5b6001600160a01b03891660008181526074602090815260408083208c845282528083208a8155600181018a90556002810189905560038101889055848452607583528184208d855283529281902086905580518781529182018a9052805192938c9390927f138940e95abffcd789b497bf6188bba3afa5fbd22fb5c42c2f6018d1bf0f4e7892908290030190a3505b505050505050505050565b336000818152607460209081526040808320868452909152812090919083611d11576040805162461bcd60e51b815260206004820152600b60248201526a1e995c9bc8185b5bdd5b9d60aa1b604482015290519081900360640190fd5b611d1b828661352b565b611d5c576040805162461bcd60e51b815260206004820152600d60248201526c06e6f74206c6f636b656420757609c1b604482015290519081900360640190fd5b8054841115611db2576040805162461bcd60e51b815260206004820152601760248201527f6e6f7420656e6f756768206c6f636b6564207374616b65000000000000000000604482015290519081900360640190fd5b611dbc8286614062565b611e08576040805162461bcd60e51b81526020600482015260186024820152776f75747374616e64696e67207346544d2062616c616e636560401b604482015290519081900360640190fd5b611e128286614104565b506000611e2583878785600001546142cf565b825486900383559050611e39838783614400565b85836001600160a01b03167fef6c0c14fe9aa51af36acd791464dec3badbde668b63189b47bfa4e25be9b2b98784604051808381526020018281526020019250505060405180910390a395945050505050565b611e9533613e59565b611ed05760405162461bcd60e51b81526004018080602001828103825260298152602001806160666029913960400191505060405180910390fd5b80611f11576040805162461bcd60e51b815260206004820152600c60248201526b77726f6e672073746174757360a01b604482015290519081900360640190fd5b611f1b8282614550565b611f2682600061331a565b5050565b607260209081526000938452604080852082529284528284209052825290208054600182015460029092015490919083565b6000611f6661467a565b607c5402905090565b42608655565b60006064611f8161467a565b607e540281611f8c57fe5b04905090565b6066546001600160a01b031690565b606e5481565b607954607a549091565b611fba33613b17565b6117f081614686565b6087805460ff19169055565b611fd7612e6f565b612016576040805162461bcd60e51b815260206004820181905260248201526000805160206160b0833981519152604482015290519081900360640190fd5b6000811261202b5760778054820190556117f0565b6077805460008390039003905550565b607860205280600052604060002060009150905080600701549080600801549080600901549080600a01549080600b01549080600c01549080600d0154905087565b600054610100900460ff168061209657506120966146c1565b806120a4575060005460ff16155b6120df5760405162461bcd60e51b815260040180806020018281038252602e8152602001806160d0602e913960400191505060405180910390fd5b600054610100900460ff1615801561210a576000805460ff1961ff0019909116610100171660011790555b612113836146c7565b61211c826147b8565b6068869055606780546001600160a01b0319166001600160a01b03861617905560778590556755cfe697852e904c6076556103e86079556203f480607a556121626129f7565b6000878152607860205260409020600701558015612186576000805461ff00191690555b505050505050565b61219733613b17565b6117f0816148a3565b336121a9615f15565b506001600160a01b038116600090815260726020908152604080832086845282528083208584528252918290208251606081018452815480825260018301549382019390935260029091015492810192909252612245576040805162461bcd60e51b81526020600482015260156024820152741c995c5d595cdd08191bd95cdb89dd08195e1a5cdd605a1b604482015290519081900360640190fd5b61224f8285614062565b61229b576040805162461bcd60e51b81526020600482015260186024820152776f75747374616e64696e67207346544d2062616c616e636560401b604482015290519081900360640190fd5b602080820151825160008781526069909352604090922060010154909190158015906122d7575060008681526069602052604090206001015482115b156122f8575050600084815260696020526040902060018101546002909101545b612300613261565b820161230a6129f7565b1015612356576040805162461bcd60e51b81526020600482015260166024820152751b9bdd08195b9bdd59da081d1a5b59481c185cdcd95960521b604482015290519081900360640190fd5b61235e612acc565b8101612368612cc3565b10156123bb576040805162461bcd60e51b815260206004820152601860248201527f6e6f7420656e6f7567682065706f636873207061737365640000000000000000604482015290519081900360640190fd5b6001600160a01b03841660009081526072602090815260408083208984528252808320888452909152812060020154906123f4886132df565b905060006124168383608460008d8152602001908152602001600020546148de565b6001600160a01b03881660009081526072602090815260408083208d845282528083208c845290915281208181556001810182905560020155606f80548201905590508083116124a6576040805162461bcd60e51b81526020600482015260166024820152751cdd185ad9481a5cc8199d5b1b1e481cdb185cda195960521b604482015290519081900360640190fd5b60006001600160a01b0388166124c2858463ffffffff613e1716565b604051600081818185875af1925050503d80600081146124fe576040519150601f19603f3d011682016040523d82523d6000602084013e612503565b606091505b505090508061254e576040805162461bcd60e51b81526020600482015260126024820152714661696c656420746f2073656e642046544d60701b604482015290519081900360640190fd5b888a896001600160a01b03167f75e161b3e824b114fc1a33274bd7091918dd4e639cede50b78b15a4eea956a21876040518082815260200191505060405180910390a450505050505050505050565b6125a5612e6f565b6125e4576040805162461bcd60e51b815260206004820181905260248201526000805160206160b0833981519152604482015290519081900360640190fd5b6125ed826132df565b61263e576040805162461bcd60e51b815260206004820152601760248201527f76616c696461746f722069736e277420736c6173686564000000000000000000604482015290519081900360640190fd5b61264661467a565b8111156126845760405162461bcd60e51b81526004018080602001828103825260218152602001806161436021913960400191505060405180910390fd5b6000828152608460209081526040918290208390558151838152915184927f047575f43f09a7a093d94ec483064acfc61b7e25c0de28017da442abf99cb91792908290030190a25050565b336126da8185614104565b506000821161271e576040805162461bcd60e51b815260206004820152600b60248201526a1e995c9bc8185b5bdd5b9d60aa1b604482015290519081900360640190fd5b6127288185611abf565b82111561277c576040805162461bcd60e51b815260206004820152601960248201527f6e6f7420656e6f75676820756e6c6f636b6564207374616b6500000000000000604482015290519081900360640190fd5b6127868185614062565b6127d2576040805162461bcd60e51b81526020600482015260186024820152776f75747374616e64696e67207346544d2062616c616e636560401b604482015290519081900360640190fd5b6001600160a01b0381166000908152607260209081526040808320878452825280832086845290915290206002015415612849576040805162461bcd60e51b81526020600482015260136024820152727772494420616c72656164792065786973747360681b604482015290519081900360640190fd5b612854818584614400565b6001600160a01b03811660009081526072602090815260408083208784528252808320868452909152902060020182905561288d612cc3565b6001600160a01b038216600090815260726020908152604080832088845282528083208784529091529020556128c16129f7565b6001600160a01b038216600090815260726020908152604080832088845282528083208784529091528120600101919091556128fe90859061331a565b8284826001600160a01b03167fd3bb4e423fbea695d16b982f9f682dc5f35152e5411646a8a5a79a6b02ba8d57856040518082815260200191505060405180910390a450505050565b61295033613e59565b61298b5760405162461bcd60e51b81526004018080602001828103825260298152602001806160666029913960400191505060405180910390fd5b6129d3898989898080601f0160208091040260200160405190810160405280939291908181526020018383808284376000920191909152508b92508a91508990508888614940565b606c54881115611ca957606c889055505050505050505050565b6219981960e91b90565b60865490565b6000818152606960209081526040808320600601546001600160a01b03168352607382528083208484529091529020545b919050565b600091825260786020908152604080842092845291905290205490565b60006064612a5c61467a565b607f540281611f8c57fe5b606f5481565b6000612a77615f15565b612a818484614aef565b805160208201516040830151929350612aa39261190e9163ffffffff613cc016565b949350505050565b60009182526078602090815260408084209284526001909201905290205490565b60825490565b6000612ade838361352b565b612aea57506000611b42565b506001600160a01b03919091166000908152607460209081526040808320938352929052205490565b612b1c33613b17565b6117f081614b5d565b6000612b2f615f15565b506001600160a01b038316600090815260706020908152604080832085845282529182902082516060810184528154808252600183015493820184905260029092015493810184905292612aa392909161190e919063ffffffff613cc016565b612b97612e6f565b612bd6576040805162461bcd60e51b815260206004820181905260248201526000805160206160b0833981519152604482015290519081900360640190fd5b6066546040516001600160a01b038084169216907f434a2db650703b36c824e745330d6397cdaa9ee2cc891a4938ae853e1c50b68d90600090a3606680546001600160a01b0319166001600160a01b0392909216919091179055565b612c3a612e6f565b612c79576040805162461bcd60e51b815260206004820181905260248201526000805160206160b0833981519152604482015290519081900360640190fd5b6033546040516000916001600160a01b0316907f8be0079c531659141344cd1fd0a4f28419497f9722a3daafe3b4186f6b6457e0908390a3603380546001600160a01b0319169055565b60685460010190565b60685481565b606b6020908152600091825260409182902080548351601f600260001961010060018616150201909316929092049182018490048402810184019094528084529091830182828015612d655780601f10612d3a57610100808354040283529160200191612d65565b820191906000526020600020905b815481529060010190602001808311612d4857829003601f168201915b505050505081565b6000612d77614b98565b905090565b606d5481565b612d8a612e6f565b612dc9576040805162461bcd60e51b815260206004820181905260248201526000805160206160b0833981519152604482015290519081900360640190fd5b607a8190556079829055604080518381526020810183905281517f702756a07c05d0bbfd06fc17b67951a5f4deb7bb6b088407e68a58969daf2a34929181900390910190a15050565b612e1c8282614104565b611f26576040805162461bcd60e51b815260206004820152601060248201526f0dcdee8d0d2dcce40e8de40e6e8c2e6d60831b604482015290519081900360640190fd5b6033546001600160a01b031690565b6033546001600160a01b0316331490565b607460209081526000928352604080842090915290825290208054600182015460028301546003909301549192909184565b6117f0338234613d1a565b60009182526078602090815260408084209284526005909201905290205490565b612ee6612e6f565b612f25576040805162461bcd60e51b815260206004820181905260248201526000805160206160b0833981519152604482015290519081900360640190fd5b608580546001600160a01b0319166001600160a01b0392909216919091179055565b612f4f6132f6565b341015612f9d576040805162461bcd60e51b8152602060048201526017602482015276696e73756666696369656e742073656c662d7374616b6560481b604482015290519081900360640190fd5b8015801590612fad575060428111155b612fed576040805162461bcd60e51b815260206004820152600c60248201526b656d707479207075626b657960a01b604482015290519081900360640190fd5b6000805b60048110156130305783838281016003190181811061300c57fe5b909101356001600160f81b031916159050613028578160010191505b600101612ff1565b5060008111613077576040805162461bcd60e51b815260206004820152600e60248201526d696e76616c6964207075626b657960901b604482015290519081900360640190fd5b6130b73384848080601f016020809104026020016040519081016040528093929190818152602001838380828437600092019190915250614b9c92505050565b6130c433606c5434613d1a565b505050565b600060646130d561467a565b607d540281611f8c57fe5b607160209081526000928352604080842090915290825290205481565b61310633613b17565b6117f081614bc7565b606960205260009081526040902080546001820154600283015460038401546004850154600586015460069096015494959394929391929091906001600160a01b031687565b61315d612e6f565b61319c576040805162461bcd60e51b815260206004820181905260248201526000805160206160b0833981519152604482015290519081900360640190fd5b6801c985c8903591eb208111156131fa576040805162461bcd60e51b815260206004820152601b60248201527f746f6f206c617267652072657761726420706572207365636f6e640000000000604482015290519081900360640190fd5b60768190556040805182815290517f8cd9dae1bbea2bc8a5e80ffce2c224727a25925130a03ae100619a8861ae23969181900360200190a150565b607560209081526000928352604080842090915290825290208054600182015460029092015490919083565b60835490565b6000818152607860209081526040918290206006018054835181840281018401909452808452606093928301828280156132c057602002820191906000526020600020905b8154815260200190600101908083116132ac575b50505050509050919050565b336132d981858585614c02565b50505050565b600090815260696020526040902054608016151590565b670467fc915c2fc00090565b60846020526000908152604090205481565b606c5481565b61332382614eb4565b61336e576040805162461bcd60e51b81526020600482015260176024820152761d985b1a59185d1bdc88191bd95cdb89dd08195e1a5cdd604a1b604482015290519081900360640190fd5b6000828152606960205260409020600381015490541561338c575060005b6067546040805163520337df60e11b8152600481018690526024810184905290516001600160a01b039092169163a4066fbe9160448082019260009290919082900301818387803b1580156133e057600080fd5b505af11580156133f4573d6000803e3d6000fd5b5050505081801561340457508015155b156130c4576067546000848152606b602052604090819020815163242a6e3f60e01b81526004810187815260248201938452825460026000196001831615610100020190911604604483018190526001600160a01b039095169463242a6e3f948994939091606490910190849080156134be5780601f10613493576101008083540402835291602001916134be565b820191906000526020600020905b8154815290600101906020018083116134a157829003601f168201915b50509350505050600060405180830381600087803b1580156134df57600080fd5b505af11580156134f3573d6000803e3d6000fd5b50505050505050565b61350533613b17565b6117f081614ecb565b607360209081526000928352604080842090915290825290205481565b6001600160a01b03821660009081526074602090815260408083208484529091528120600201541580159061358257506001600160a01b038316600090815260746020908152604080832085845290915290205415155b8015611b3f57506001600160a01b03831660009081526074602090815260408083208584529091529020600201546135b86129f7565b11159392505050565b60875460ff1681565b6135d333613b17565b6117f081614f06565b60765481565b60009182526078602090815260408084209284526003909201905290205490565b3381613644576040805162461bcd60e51b815260206004820152600b60248201526a1e995c9bc8185b5bdd5b9d60aa1b604482015290519081900360640190fd5b61364e818561352b565b15613694576040805162461bcd60e51b81526020600482015260116024820152700616c7265616479206c6f636b656420757607c1b604482015290519081900360640190fd5b6132d981858585614c02565b60009182526078602090815260408084209284526002909201905290205490565b6136ca33613e59565b6137055760405162461bcd60e51b81526004018080602001828103825260298152602001806160666029913960400191505060405180910390fd5b600060786000613713612cc3565b8152602001908152602001600020905060008090505b8281101561378c57600084848381811061373f57fe5b60209081029290920135600081815260698452604080822060030154948890529020839055600c86015490935061377d91508263ffffffff613cc016565b600c8501555050600101613729565b506132d9600682018484615f36565b60009182526078602090815260408084209284526004909201905290205490565b6137c4612e6f565b613803576040805162461bcd60e51b815260206004820181905260248201526000805160206160b0833981519152604482015290519081900360640190fd5b61380c83613fdd565b6040516001600160a01b0385169084156108fc029085906000818181858888f19350505050158015613842573d6000803e3d6000fd5b50836001600160a01b03167f9eec469b348bcf64bbfb60e46ce7b160e2e09bf5421496a2cdbc43714c28b8ad84848460405180848152602001806020018281038252848482818152602001925080828437600083820152604051601f909101601f1916909201829003965090945050505050a250505050565b6138c433613b17565b6117f081614f41565b6138d633613e59565b6139115760405162461bcd60e51b81526004018080602001828103825260298152602001806160666029913960400191505060405180910390fd5b60006078600061391f612cc3565b8152602001908152602001600020905060608160060180548060200260200160405190810160405280929190818152602001828054801561397f57602002820191906000526020600020905b81548152602001906001019080831161396b575b50505050509050613a0682828c8c80806020026020016040519081016040528093929190818152602001838360200280828437600081840152601f19601f820116905080830192505050505050508b8b80806020026020016040519081016040528093929190818152602001838360200280828437600092019190915250614f7c92505050565b613a75828288888080602002602001604051908101604052809392919081815260200183836020028082843760009201919091525050604080516020808c0282810182019093528b82529093508b92508a91829185019084908082843760009201919091525061509292505050565b613a7d612cc3565b606855613a886129f7565b600783015550607654600b820155607754600d909101555050505050505050565b613ab1612e6f565b613af0576040805162461bcd60e51b815260206004820181905260248201526000805160206160b0833981519152604482015290519081900360640190fd5b6117f0816156d8565b6000611b3f8383615779565b613b0e33613b17565b6117f081615838565b613b1f611f92565b6001600160a01b0316816001600160a01b03161480613b565750613b41612e60565b6001600160a01b0316816001600160a01b0316145b6117f05760405162461bcd60e51b81526004018080602001828103825260458152602001806160fe6045913960600191505060405180910390fd5b607c8190556040805182815290517fd3b49810855efc7d611424cd0a8cc519b92cf2e97bd3516921dff1a19b101e359181900360200190a150565b613bd4615f15565b613bde8383614104565b50506001600160a01b038216600090815260706020908152604080832084845282528083208151606081018352815480825260018301549482018590526002909201549281018390529392613c3c9261190e9163ffffffff613cc016565b905080613c7f576040805162461bcd60e51b815260206004820152600c60248201526b7a65726f207265776172647360a01b604482015290519081900360640190fd5b6001600160a01b038416600090815260706020908152604080832086845290915281208181556001810182905560020155613cb981613fdd565b5092915050565b600082820183811015611b3f576040805162461bcd60e51b815260206004820152601b60248201527f536166654d6174683a206164646974696f6e206f766572666c6f770000000000604482015290519081900360640190fd5b613d2382614eb4565b613d6e576040805162461bcd60e51b81526020600482015260176024820152761d985b1a59185d1bdc88191bd95cdb89dd08195e1a5cdd604a1b604482015290519081900360640190fd5b60008281526069602052604090205415613dc8576040805162461bcd60e51b815260206004820152601660248201527576616c696461746f722069736e27742061637469766560501b604482015290519081900360640190fd5b613dd3838383613e78565b613ddc82615873565b6130c45760405162461bcd60e51b815260040180806020018281038252602981526020018061618c6029913960400191505060405180910390fd5b6000611b3f83836040518060400160405280601e81526020017f536166654d6174683a207375627472616374696f6e206f766572666c6f7700008152506158bb565b60875460009060ff1615613e6f57506001612a2e565b611b4282615952565b60008111613ebb576040805162461bcd60e51b815260206004820152600b60248201526a1e995c9bc8185b5bdd5b9d60aa1b604482015290519081900360640190fd5b613ec58383614104565b506001600160a01b0383166000908152607360209081526040808320858452909152902054613efa908263ffffffff613cc016565b6001600160a01b0384166000908152607360209081526040808320868452825280832093909355606990522060030154613f3a818363ffffffff613cc016565b600084815260696020526040902060030155606d54613f5f908363ffffffff613cc016565b606d55600083815260696020526040902054613f8c57606e54613f88908363ffffffff613cc016565b606e555b613f9783821561331a565b60408051838152905184916001600160a01b038716917f9a8f44850296624dadfd9c246d17e47171d35727a181bd090aa14bbbe00238bb9181900360200190a350505050565b606754604080516366e7ea0f60e01b81523060048201526024810184905290516001600160a01b03909216916366e7ea0f9160448082019260009290919082900301818387803b15801561403057600080fd5b505af1158015614044573d6000803e3d6000fd5b505060775461405c925090508263ffffffff613cc016565b60775550565b6085546000906001600160a01b031661407d57506001611b42565b608554604080516321d585c360e01b81526001600160a01b03868116600483015260248201869052915191909216916321d585c3916044808301926020929190829003018186803b1580156140d157600080fd5b505afa1580156140e5573d6000803e3d6000fd5b505050506040513d60208110156140fb57600080fd5b50519392505050565b600061410e615f15565b6141188484615966565b905061412383615a9e565b6001600160a01b038516600081815260716020908152604080832088845282528083209490945591815260708252828120868252825282902082516060810184528154815260018201549281019290925260020154918101919091526141899082615af9565b6001600160a01b0385166000818152607060209081526040808320888452825280832085518155858301516001808301919091559582015160029182015593835260758252808320888452825291829020825160608101845281548152948101549185019190915290910154908201526142039082615af9565b6001600160a01b038516600090815260756020908152604080832087845282529182902083518155908301516001820155910151600290910155614247848461352b565b6142aa576001600160a01b0384166000818152607460209081526040808320878452825280832083815560018082018590556002808301869055600390920185905594845260758352818420888552909252822082815592830182905591909101555b60208101511515806142bc5750805115155b80612aa357506040015115159392505050565b6001600160a01b0384166000908152607560209081526040808320868452909152812054819061431790849061430b908763ffffffff615b6b16565b9063ffffffff615bc416565b6001600160a01b03871660009081526075602090815260408083208984529091528120600101549192509061435890859061430b908863ffffffff615b6b16565b6001600160a01b03881660009081526075602090815260408083208a8452909152902054909150600282048301906143909084613e17565b6001600160a01b03891660009081526075602090815260408083208b84529091529020908155600101546143c49083613e17565b6001600160a01b03891660009081526075602090815260408083208b84529091529020600101558581106143f55750845b979650505050505050565b6001600160a01b03831660009081526073602090815260408083208584528252808320805485900390556069909152902060030154614445908263ffffffff613e1716565b600083815260696020526040902060030155606d5461446a908263ffffffff613e1716565b606d5560008281526069602052604090205461449757606e54614493908263ffffffff613e1716565b606e555b60006144a2836129fd565b90508015614549576144b26132f6565b811015614500576040805162461bcd60e51b8152602060048201526017602482015276696e73756666696369656e742073656c662d7374616b6560481b604482015290519081900360640190fd5b61450983615873565b6145445760405162461bcd60e51b815260040180806020018281038252602981526020018061618c6029913960400191505060405180910390fd5b6132d9565b6132d98360015b60008281526069602052604090205415801561456b57508015155b1561459857600082815260696020526040902060030154606e546145949163ffffffff613e1716565b606e555b600082815260696020526040902054811115611f2657600082815260696020526040902081815560020154614640576145cf612cc3565b6000838152606960205260409020600201556145e96129f7565b6000838152606960209081526040918290206001810184905560020154825190815290810192909252805184927fac4801c32a6067ff757446524ee4e7a373797278ac3c883eac5c693b4ad72e4792908290030190a25b60408051828152905183917fcd35267e7654194727477d6c78b541a553483cff7f92a055d17868d3da6e953e919081900360200190a25050565b670de0b6b3a764000090565b607d8190556040805182815290517f969e21e21af49053b3bfee796b627ebc26e10328889e90a47da2f1205d3e8f139181900360200190a150565b303b1590565b600054610100900460ff16806146e057506146e06146c1565b806146ee575060005460ff16155b6147295760405162461bcd60e51b815260040180806020018281038252602e8152602001806160d0602e913960400191505060405180910390fd5b600054610100900460ff16158015614754576000805460ff1961ff0019909116610100171660011790555b603380546001600160a01b0319166001600160a01b0384811691909117918290556040519116906000907f8be0079c531659141344cd1fd0a4f28419497f9722a3daafe3b4186f6b6457e0908290a38015611f26576000805461ff00191690555050565b600054610100900460ff16806147d157506147d16146c1565b806147df575060005460ff16155b61481a5760405162461bcd60e51b815260040180806020018281038252602e8152602001806160d0602e913960400191505060405180910390fd5b600054610100900460ff16158015614845576000805460ff1961ff0019909116610100171660011790555b606680546001600160a01b0319166001600160a01b0384169081179091556040516000907f434a2db650703b36c824e745330d6397cdaa9ee2cc891a4938ae853e1c50b68d908290a38015611f26576000805461ff00191690555050565b60808190556040805182815290517f31d33f23d1e7fe45f7e898c070587ff0f2f519674e5e2a12f90b3a17c77f6ad19181900360200190a150565b60008215806148f457506148f061467a565b8210155b1561490157506000614939565b61492c600161190e61491161467a565b61430b8661491d61467a565b8a91900363ffffffff615b6b16565b9050838111156149395750825b9392505050565b6001600160a01b0388166000908152606a6020526040902054156149ab576040805162461bcd60e51b815260206004820152601860248201527f76616c696461746f7220616c7265616479206578697374730000000000000000604482015290519081900360640190fd5b6001600160a01b0388166000818152606a602090815260408083208b90558a8352606982528083208981556004810189905560058101889055600181018690556002810187905560060180546001600160a01b031916909417909355606b81529190208751614a1c92890190615f81565b50876001600160a01b0316877f49bca1ed2666922f9f1690c26a569e1299c2a715fe57647d77e81adfabbf25bf8686604051808381526020018281526020019250505060405180910390a38115614aa8576040805183815260208101839052815189927fac4801c32a6067ff757446524ee4e7a373797278ac3c883eac5c693b4ad72e47928290030190a25b8415614ae55760408051868152905188917fcd35267e7654194727477d6c78b541a553483cff7f92a055d17868d3da6e953e919081900360200190a25b5050505050505050565b614af7615f15565b614aff615f15565b614b098484615966565b6001600160a01b03851660009081526070602090815260408083208784528252918290208251606081018452815481526001820154928101929092526002015491810191909152909150612aa39082615af9565b60828190556040805182815290517f2f273767369d76e1ecbee32ed26135f390df620f085feb7a6f2e3dd51985bd5f9181900360200190a150565b4290565b606c8054600101908190556130c48382846000614bb7612cc3565b614bbf6129f7565b600080614940565b607e8190556040805182815290517f12420e865335c7cfb225296eb0adaca14bfb1de93b3731ed1e0434746a4d91249181900360200190a150565b614c0c8484611abf565b811115614c53576040805162461bcd60e51b815260206004820152601060248201526f6e6f7420656e6f756768207374616b6560801b604482015290519081900360640190fd5b60008381526069602052604090205415614cad576040805162461bcd60e51b815260206004820152601660248201527576616c696461746f722069736e27742061637469766560501b604482015290519081900360640190fd5b614cb5611a24565b8210158015614ccb5750614cc7611a19565b8211155b614d11576040805162461bcd60e51b815260206004820152601260248201527134b731b7b93932b1ba10323ab930ba34b7b760711b604482015290519081900360640190fd5b6000614d1f8361190e6129f7565b6000858152606960205260409020600601549091506001600160a01b039081169086168114614dad576001600160a01b0381166000908152607460209081526040808320888452909152902060020154821115614dad5760405162461bcd60e51b81526004018080602001828103825260288152602001806161646028913960400191505060405180910390fd5b614db78686614104565b506001600160a01b038616600090815260746020908152604080832088845290915290206003810154851015614e34576040805162461bcd60e51b815260206004820152601f60248201527f6c6f636b7570206475726174696f6e2063616e6e6f7420646563726561736500604482015290519081900360640190fd5b8054614e46908563ffffffff613cc016565b8155614e50612cc3565b600182015560028101839055600381018590556040805186815260208101869052815188926001600160a01b038b16927f138940e95abffcd789b497bf6188bba3afa5fbd22fb5c42c2f6018d1bf0f4e78929081900390910190a350505050505050565b600090815260696020526040902060050154151590565b607f8190556040805182815290517fcda2f8a6b9050afa9ac1f8d6ff9a123894f76a5530c6c29636332c995a1f97159181900360200190a150565b607b8190556040805182815290517fe9a0db1369c39eb7fc2ed3d7e122f9ee60952b075329b1e84bce8843367210f49181900360200190a150565b60838190556040805182815290517f9e85e6207a28e085f027a9b979cad850f4c36a581dd42c119e856c04b92d96119181900360200190a150565b60005b835181101561508b57607954828281518110614f9757fe5b6020026020010151118015614fc15750607a54838281518110614fb657fe5b602002602001015110155b1561500257614fe4848281518110614fd557fe5b60200260200101516008614550565b615002848281518110614ff357fe5b6020026020010151600061331a565b82818151811061500e57fe5b602002602001015185600401600086848151811061502857fe5b602002602001015181526020019081526020016000208190555081818151811061504e57fe5b602002602001015185600501600086848151811061506857fe5b602090810291909101810151825281019190915260400160002055600101614f7f565b5050505050565b61509a615fef565b6040518060c0016040528085516040519080825280602002602001820160405280156150d0578160200160208202803883390190505b508152602001600081526020018551604051908082528060200260200182016040528015615108578160200160208202803883390190505b5081526020016000815260200160008152602001600081525090506000607860006151426001615136612cc3565b9063ffffffff613e1716565b815260208101919091526040016000206001608084015260078101549091506151696129f7565b111561518357806007015461517c6129f7565b0360808301525b60005b855181101561528b5760008260030160008884815181106151a357fe5b602002602001015181526020019081526020016000205490506000809050818684815181106151ce57fe5b602002602001015111156151f557818684815181106151e957fe5b60200260200101510390505b846080015187848151811061520657fe5b602002602001015182028161521757fe5b048560400151848151811061522857fe5b6020026020010181815250506152628560400151848151811061524757fe5b60200260200101518660600151613cc090919063ffffffff16565b606086015260a085015161527c908263ffffffff613cc016565b60a08601525050600101615186565b5060005b855181101561535c5782608001518582815181106152a957fe5b602002602001015184608001518784815181106152c257fe5b60200260200101518a60000160008b87815181106152dc57fe5b602002602001015181526020019081526020016000205402816152fb57fe5b04028161530457fe5b048360000151828151811061531557fe5b60200260200101818152505061534f8360000151828151811061533457fe5b60200260200101518460200151613cc090919063ffffffff16565b602084015260010161528f565b5060005b85518110156156b057600061539884608001516076548660000151858151811061538657fe5b60200260200101518760200151615c06565b90506153d46153c78560a00151866040015185815181106153b557fe5b60200260200101518760600151615c47565b829063ffffffff613cc016565b905060008783815181106153e457fe5b6020908102919091018101516000818152606990925260408220600601549092506001600160a01b0316906154208461541b6130c9565b615ca4565b6001600160a01b038316600090815260736020908152604080832087845290915290205490915080156155c75760008161545a8587612ad2565b84028161546357fe5b049050808303615471615f15565b6001600160a01b03861660009081526074602090815260408083208a84529091529020600301546154a3908490615cc1565b90506154ad615f15565b6154b8836000615cc1565b6001600160a01b03881660009081526070602090815260408083208c8452825291829020825160608101845281548152600182015492810192909252600201549181019190915290915061550d908383615db2565b6001600160a01b03881660008181526070602090815260408083208d84528252808320855181558583015160018083019190915595820151600291820155938352607582528083208d845282529182902082516060810184528154815294810154918501919091529091015490820152615588908383615db2565b6001600160a01b03881660009081526075602090815260408083208c845282529182902083518155908301516001820155910151600290910155505050505b6000848152606960205260408120600301548387039181156155f957816155ec61467a565b8402816155f557fe5b0490505b808a600101600089815260200190815260200160002054018f6001016000898152602001908152602001600020819055508b898151811061563657fe5b60200260200101518f6003016000898152602001908152602001600020819055508c898151811061566357fe5b60200260200101518a600201600089815260200190815260200160002054018f60020160008981526020019081526020016000208190555050505050505050508080600101915050615360565b505060a081015160088601556020810151600986015560600151600a90940193909355505050565b6001600160a01b03811661571d5760405162461bcd60e51b81526004018080602001828103825260268152602001806160406026913960400191505060405180910390fd5b6033546040516001600160a01b038084169216907f8be0079c531659141344cd1fd0a4f28419497f9722a3daafe3b4186f6b6457e090600090a3603380546001600160a01b0319166001600160a01b0392909216919091179055565b6001600160a01b03821660009081526074602090815260408083208484529091528120600101546068546157ae858583615dcd565b156157bc579150611b429050565b6157c7858584615dcd565b6157d657600092505050611b42565b808211156157e957600092505050611b42565b8082101561581c57600281830104615802868683615dcd565b1561581257806001019250615816565b8091505b506157e9565b8061582c57600092505050611b42565b60001901949350505050565b60818190556040805182815290517fd830c33dec392daf6dfeac9834107217392396bc333bcbb92e6c1c1a5e8726319181900360200190a150565b60006158a061588061467a565b61430b61588b611f5c565b615894866129fd565b9063ffffffff615b6b16565b60008381526069602052604090206003015411159050919050565b6000818484111561594a5760405162461bcd60e51b81526004018080602001828103825283818151815260200191508051906020019080838360005b8381101561590f5781810151838201526020016158f7565b50505050905090810190601f16801561593c5780820380516001836020036101000a031916815260200191505b509250505060405180910390fd5b505050900390565b6067546001600160a01b0390811691161490565b61596e615f15565b6001600160a01b03831660009081526071602090815260408083208584529091528120549061599c84615a9e565b905060006159aa8686615779565b9050818111156159b75750805b828110156159c25750815b6001600160a01b03861660008181526074602090815260408083208984528252808320938352607382528083208984529091528120548254909190615a0e90839063ffffffff613e1716565b90506000615a2284600001548a8988615e38565b9050615a2c615f15565b615a3a828660030154615cc1565b9050615a48838b8a89615e38565b9150615a52615f15565b615a5d836000615cc1565b9050615a6b858c898b615e38565b9250615a75615f15565b615a80846000615cc1565b9050615a8d838383615db2565b9d9c50505050505050505050505050565b60008181526069602052604081206002015415615af1576000828152606960205260409020600201546068541015615ad95750606854612a2e565b50600081815260696020526040902060020154612a2e565b505060685490565b615b01615f15565b6040805160608101909152825184518291615b22919063ffffffff613cc016565b8152602001615b4284602001518660200151613cc090919063ffffffff16565b8152602001615b6284604001518660400151613cc090919063ffffffff16565b90529392505050565b600082615b7a57506000611b42565b82820282848281615b8757fe5b0414611b3f5760405162461bcd60e51b815260040180806020018281038252602181526020018061608f6021913960400191505060405180910390fd5b6000611b3f83836040518060400160405280601a81526020017f536166654d6174683a206469766973696f6e206279207a65726f000000000000815250615e9b565b600082615c1557506000612aa3565b6000615c27868663ffffffff615b6b16565b9050615c3d8361430b838763ffffffff615b6b16565b9695505050505050565b600082615c5657506000614939565b6000615c6c8361430b878763ffffffff615b6b16565b9050615c9b615c7961467a565b61430b615c84611f75565b615c8c61467a565b8591900363ffffffff615b6b16565b95945050505050565b6000611b3f615cb161467a565b61430b858563ffffffff615b6b16565b615cc9615f15565b604051806060016040528060008152602001600081526020016000815250905081600014615d84576000615cfb612a50565b615d0361467a565b0390506000615d23615d13611a19565b61430b848763ffffffff615b6b16565b90506000615d4c615d3261467a565b61430b84615d3e612a50565b8a910163ffffffff615b6b16565b9050615d71615d5961467a565b61430b615d64612a50565b899063ffffffff615b6b16565b602085018190529003835250611b429050565b615da7615d8f61467a565b61430b615d9a612a50565b869063ffffffff615b6b16565b604082015292915050565b615dba615f15565b612aa3615dc78585615af9565b83615af9565b6001600160a01b03831660009081526074602090815260408083208584529091528120600101548210801590612aa357506001600160a01b0384166000908152607460209081526040808320868452909152902060020154615e2e83615f00565b1115949350505050565b6000818310615e4957506000612aa3565b6000838152607860208181526040808420888552600190810183528185205487865293835281852089865201909152909120546143f5615e8761467a565b61430b89615894858763ffffffff613e1716565b60008183615eea5760405162461bcd60e51b815260206004820181815283516024840152835190928392604490910191908501908083836000831561590f5781810151838201526020016158f7565b506000838581615ef657fe5b0495945050505050565b60009081526078602052604090206007015490565b60405180606001604052806000815260200160008152602001600081525090565b828054828255906000526020600020908101928215615f71579160200282015b82811115615f71578235825591602001919060010190615f56565b50615f7d929150616025565b5090565b828054600181600116156101000203166002900490600052602060002090601f016020900481019282601f10615fc257805160ff1916838001178555615f71565b82800160010185558215615f71579182015b82811115615f71578251825591602001919060010190615fd4565b6040518060c001604052806060815260200160008152602001606081526020016000815260200160008152602001600081525090565b611a2191905b80821115615f7d576000815560010161602b56fe4f776e61626c653a206e6577206f776e657220697320746865207a65726f206164647265737363616c6c6572206973206e6f7420746865204e6f64654472697665724175746820636f6e7472616374536166654d6174683a206d756c7469706c69636174696f6e206f766572666c6f774f776e61626c653a2063616c6c6572206973206e6f7420746865206f776e6572436f6e747261637420696e7374616e63652068617320616c7265616479206265656e20696e697469616c697a65645346433a20746869732066756e6374696f6e20697320636f6e74726f6c6c656420627920746865206f776e657220616e6420676f7665726e616e636520636f6e74726163746d757374206265206c657373207468616e206f7220657175616c20746f20312e3076616c696461746f72206c6f636b757020706572696f642077696c6c20656e64206561726c69657276616c696461746f7227732064656c65676174696f6e73206c696d69742069732065786365656465646c6f636b6564207374616b652069732067726561746572207468616e207468652077686f6c65207374616b65a265627a7a723158204ea3d81638cb87c1260737aebb5371d807f09eac7fc8f06c5e73bd794340df5b64736f6c63430005110032",
  "linkReferences": {},
  "deployedLinkReferences": {}
}