{
  "_format": "hh-sol-artifact-1",
  "contractName": "UnitTestSFC",
  "sourceName": "contracts/test/UnitTestSFC.sol",
  "abi": [
    {
      "anonymous": false,
      "inputs": [
        {
          "indexed": true,
          "internalType": "uint256",
          "name": "validatorID",
          "type": "uint256"
        },
        {
          "indexed": false,
          "internalType": "uint256",
          "name": "status",
          "type": "uint256"
        }
      ],
      "name": "ChangedValidatorStatus",
      "type": "event"
    },
    {
      "anonymous": false,
      "inputs": [
        {
          "indexed": true,
          "internalType": "address",
          "name": "delegator",
          "type": "address"
        },
        {
          "indexed": true,
          "internalType": "uint256",
          "name": "toValidatorID",
          "type": "uint256"
        },
        {
          "indexed": false,
          "internalType": "uint256",
          "name": "lockupExtraReward",
          "type": "uint256"
        },
        {
          "indexed": false,
          "internalType": "uint256",
          "name": "lockupBaseReward",
          "type": "uint256"
        },
        {
          "indexed": false,
          "internalType": "uint256",
          "name": "unlockedReward",
          "type": "uint256"
        }
      ],
      "name": "ClaimedRewards",
      "type": "event"
    },
    {
      "anonymous": false,
      "inputs": [
        {
          "indexed": true,
          "internalType": "uint256",
          "name": "validatorID",
          "type": "uint256"
        },
        {
          "indexed": true,
          "internalType": "address",
          "name": "auth",
          "type": "address"
        },
        {
          "indexed": false,
          "internalType": "uint256",
          "name": "createdEpoch",
          "type": "uint256"
        },
        {
          "indexed": false,
          "internalType": "uint256",
          "name": "createdTime",
          "type": "uint256"
        }
      ],
      "name": "CreatedValidator",
      "type": "event"
    },
    {
      "anonymous": false,
      "inputs": [
        {
          "indexed": true,
          "internalType": "uint256",
          "name": "validatorID",
          "type": "uint256"
        },
        {
          "indexed": false,
          "internalType": "uint256",
          "name": "deactivatedEpoch",
          "type": "uint256"
        },
        {
          "indexed": false,
          "internalType": "uint256",
          "name": "deactivatedTime",
          "type": "uint256"
        }
      ],
      "name": "DeactivatedValidator",
      "type": "event"
    },
    {
      "anonymous": false,
      "inputs": [
        {
          "indexed": true,
          "internalType": "address",
          "name": "delegator",
          "type": "address"
        },
        {
          "indexed": true,
          "internalType": "uint256",
          "name": "toValidatorID",
          "type": "uint256"
        },
        {
          "indexed": false,
          "internalType": "uint256",
          "name": "amount",
          "type": "uint256"
        }
      ],
      "name": "Delegated",
      "type": "event"
    },
    {
      "anonymous": false,
      "inputs": [
        {
          "indexed": true,
          "internalType": "address",
          "name": "previousGovernance",
          "type": "address"
        },
        {
          "indexed": true,
          "internalType": "address",
          "name": "newGovernance",
          "type": "address"
        }
      ],
      "name": "GovernanceTransferred",
      "type": "event"
    },
    {
      "anonymous": false,
      "inputs": [
        {
          "indexed": true,
          "internalType": "address",
          "name": "receiver",
          "type": "address"
        },
        {
          "indexed": false,
          "internalType": "uint256",
          "name": "amount",
          "type": "uint256"
        },
        {
          "indexed": false,
          "internalType": "string",
          "name": "justification",
          "type": "string"
        }
      ],
      "name": "InflatedFTM",
      "type": "event"
    },
    {
      "anonymous": false,
      "inputs": [
        {
          "indexed": true,
          "internalType": "address",
          "name": "delegator",
          "type": "address"
        },
        {
          "indexed": true,
          "internalType": "uint256",
          "name": "validatorID",
          "type": "uint256"
        },
        {
          "indexed": false,
          "internalType": "uint256",
          "name": "duration",
          "type": "uint256"
        },
        {
          "indexed": false,
          "internalType": "uint256",
          "name": "amount",
          "type": "uint256"
        }
      ],
      "name": "LockedUpStake",
      "type": "event"
    },
    {
      "anonymous": false,
      "inputs": [
        {
          "indexed": true,
          "internalType": "address",
          "name": "previousOwner",
          "type": "address"
        },
        {
          "indexed": true,
          "internalType": "address",
          "name": "newOwner",
          "type": "address"
        }
      ],
      "name": "OwnershipTransferred",
      "type": "event"
    },
    {
      "anonymous": false,
      "inputs": [
        {
          "indexed": true,
          "internalType": "address",
          "name": "delegator",
          "type": "address"
        },
        {
          "indexed": true,
          "internalType": "uint256",
          "name": "validatorID",
          "type": "uint256"
        },
        {
          "indexed": false,
          "internalType": "uint256",
          "name": "amount",
          "type": "uint256"
        }
      ],
      "name": "RefundedSlashedLegacyDelegation",
      "type": "event"
    },
    {
      "anonymous": false,
      "inputs": [
        {
          "indexed": true,
          "internalType": "address",
          "name": "delegator",
          "type": "address"
        },
        {
          "indexed": true,
          "internalType": "uint256",
          "name": "toValidatorID",
          "type": "uint256"
        },
        {
          "indexed": false,
          "internalType": "uint256",
          "name": "lockupExtraReward",
          "type": "uint256"
        },
        {
          "indexed": false,
          "internalType": "uint256",
          "name": "lockupBaseReward",
          "type": "uint256"
        },
        {
          "indexed": false,
          "internalType": "uint256",
          "name": "unlockedReward",
          "type": "uint256"
        }
      ],
      "name": "RestakedRewards",
      "type": "event"
    },
    {
      "anonymous": false,
      "inputs": [
        {
          "indexed": true,
          "internalType": "address",
          "name": "delegator",
          "type": "address"
        },
        {
          "indexed": true,
          "internalType": "uint256",
          "name": "toValidatorID",
          "type": "uint256"
        },
        {
          "indexed": true,
          "internalType": "uint256",
          "name": "wrID",
          "type": "uint256"
        },
        {
          "indexed": false,
          "internalType": "uint256",
          "name": "amount",
          "type": "uint256"
        }
      ],
      "name": "Undelegated",
      "type": "event"
    },
    {
      "anonymous": false,
      "inputs": [
        {
          "indexed": true,
          "internalType": "address",
          "name": "delegator",
          "type": "address"
        },
        {
          "indexed": true,
          "internalType": "uint256",
          "name": "validatorID",
          "type": "uint256"
        },
        {
          "indexed": false,
          "internalType": "uint256",
          "name": "amount",
          "type": "uint256"
        },
        {
          "indexed": false,
          "internalType": "uint256",
          "name": "penalty",
          "type": "uint256"
        }
      ],
      "name": "UnlockedStake",
      "type": "event"
    },
    {
      "anonymous": false,
      "inputs": [
        {
          "indexed": false,
          "internalType": "uint256",
          "name": "value",
          "type": "uint256"
        }
      ],
      "name": "UpdatedBaseRewardPerSec",
      "type": "event"
    },
    {
      "anonymous": false,
      "inputs": [
        {
          "indexed": false,
          "internalType": "uint256",
          "name": "contractCommission",
          "type": "uint256"
        }
      ],
      "name": "UpdatedContractCommission",
      "type": "event"
    },
    {
      "anonymous": false,
      "inputs": [
        {
          "indexed": false,
          "internalType": "uint256",
          "name": "maxDelegationRatio",
          "type": "uint256"
        }
      ],
      "name": "UpdatedMaxDelegationRatio",
      "type": "event"
    },
    {
      "anonymous": false,
      "inputs": [
        {
          "indexed": false,
          "internalType": "uint256",
          "name": "maxLockupDuration",
          "type": "uint256"
        }
      ],
      "name": "UpdatedMaxLockupDuration",
      "type": "event"
    },
    {
      "anonymous": false,
      "inputs": [
        {
          "indexed": false,
          "internalType": "uint256",
          "name": "minLockupDuration",
          "type": "uint256"
        }
      ],
      "name": "UpdatedMinLockupDuration",
      "type": "event"
    },
    {
      "anonymous": false,
      "inputs": [
        {
          "indexed": false,
          "internalType": "uint256",
          "name": "minSelfStake",
          "type": "uint256"
        }
      ],
      "name": "UpdatedMinSelfStake",
      "type": "event"
    },
    {
      "anonymous": false,
      "inputs": [
        {
          "indexed": false,
          "internalType": "uint256",
          "name": "blocksNum",
          "type": "uint256"
        },
        {
          "indexed": false,
          "internalType": "uint256",
          "name": "period",
          "type": "uint256"
        }
      ],
      "name": "UpdatedOfflinePenaltyThreshold",
      "type": "event"
    },
    {
      "anonymous": false,
      "inputs": [
        {
          "indexed": true,
          "internalType": "uint256",
          "name": "validatorID",
          "type": "uint256"
        },
        {
          "indexed": false,
          "internalType": "uint256",
          "name": "refundRatio",
          "type": "uint256"
        }
      ],
      "name": "UpdatedSlashingRefundRatio",
      "type": "event"
    },
    {
      "anonymous": false,
      "inputs": [
        {
          "indexed": false,
          "internalType": "uint256",
          "name": "unlockedRewardRatio",
          "type": "uint256"
        }
      ],
      "name": "UpdatedUnlockedRewardRatio",
      "type": "event"
    },
    {
      "anonymous": false,
      "inputs": [
        {
          "indexed": false,
          "internalType": "uint256",
          "name": "validatorCommission",
          "type": "uint256"
        }
      ],
      "name": "UpdatedValidatorCommission",
      "type": "event"
    },
    {
      "anonymous": false,
      "inputs": [
        {
          "indexed": false,
          "internalType": "uint256",
          "name": "Value",
          "type": "uint256"
        }
      ],
      "name": "UpdatedWithdrawalPeriodEpoch",
      "type": "event"
    },
    {
      "anonymous": false,
      "inputs": [
        {
          "indexed": false,
          "internalType": "uint256",
          "name": "withValuedrawalPeriodTime",
          "type": "uint256"
        }
      ],
      "name": "UpdatedWithdrawalPeriodTime",
      "type": "event"
    },
    {
      "anonymous": false,
      "inputs": [
        {
          "indexed": true,
          "internalType": "address",
          "name": "delegator",
          "type": "address"
        },
        {
          "indexed": true,
          "internalType": "uint256",
          "name": "toValidatorID",
          "type": "uint256"
        },
        {
          "indexed": true,
          "internalType": "uint256",
          "name": "wrID",
          "type": "uint256"
        },
        {
          "indexed": false,
          "internalType": "uint256",
          "name": "amount",
          "type": "uint256"
        }
      ],
      "name": "Withdrawn",
      "type": "event"
    },
    {
      "constant": false,
      "inputs": [
        {
          "internalType": "uint256",
          "name": "validatorID",
          "type": "uint256"
        },
        {
          "internalType": "bool",
          "name": "syncPubkey",
          "type": "bool"
        }
      ],
      "name": "_syncValidator",
      "outputs": [],
      "payable": false,
      "stateMutability": "nonpayable",
      "type": "function"
    },
    {
      "constant": false,
      "inputs": [
        {
          "internalType": "uint256",
          "name": "diff",
          "type": "uint256"
        }
      ],
      "name": "advanceTime",
      "outputs": [],
      "payable": false,
      "stateMutability": "nonpayable",
      "type": "function"
    },
    {
      "constant": true,
      "inputs": [],
      "name": "allowedNonNodeCalls",
      "outputs": [
        {
          "internalType": "bool",
          "name": "",
          "type": "bool"
        }
      ],
      "payable": false,
      "stateMutability": "view",
      "type": "function"
    },
    {
      "constant": true,
      "inputs": [],
      "name": "baseRewardPerSecond",
      "outputs": [
        {
          "internalType": "uint256",
          "name": "",
          "type": "uint256"
        }
      ],
      "payable": false,
      "stateMutability": "view",
      "type": "function"
    },
    {
      "constant": false,
      "inputs": [
        {
          "internalType": "uint256",
          "name": "toValidatorID",
          "type": "uint256"
        }
      ],
      "name": "claimRewards",
      "outputs": [],
      "payable": false,
      "stateMutability": "nonpayable",
      "type": "function"
    },
    {
      "constant": true,
      "inputs": [],
      "name": "contractCommission",
      "outputs": [
        {
          "internalType": "uint256",
          "name": "",
          "type": "uint256"
        }
      ],
      "payable": false,
      "stateMutability": "view",
      "type": "function"
    },
    {
      "constant": false,
      "inputs": [
        {
          "internalType": "bytes",
          "name": "pubkey",
          "type": "bytes"
        }
      ],
      "name": "createValidator",
      "outputs": [],
      "payable": true,
      "stateMutability": "payable",
      "type": "function"
    },
    {
      "constant": true,
      "inputs": [],
      "name": "currentEpoch",
      "outputs": [
        {
          "internalType": "uint256",
          "name": "",
          "type": "uint256"
        }
      ],
      "payable": false,
      "stateMutability": "view",
      "type": "function"
    },
    {
      "constant": true,
      "inputs": [],
      "name": "currentSealedEpoch",
      "outputs": [
        {
          "internalType": "uint256",
          "name": "",
          "type": "uint256"
        }
      ],
      "payable": false,
      "stateMutability": "view",
      "type": "function"
    },
    {
      "constant": false,
      "inputs": [
        {
          "internalType": "uint256",
          "name": "validatorID",
          "type": "uint256"
        },
        {
          "internalType": "uint256",
          "name": "status",
          "type": "uint256"
        }
      ],
      "name": "deactivateValidator",
      "outputs": [],
      "payable": false,
      "stateMutability": "nonpayable",
      "type": "function"
    },
    {
      "constant": false,
      "inputs": [
        {
          "internalType": "uint256",
          "name": "toValidatorID",
          "type": "uint256"
        }
      ],
      "name": "delegate",
      "outputs": [],
      "payable": true,
      "stateMutability": "payable",
      "type": "function"
    },
    {
      "constant": false,
      "inputs": [],
      "name": "disableNonNodeCalls",
      "outputs": [],
      "payable": false,
      "stateMutability": "nonpayable",
      "type": "function"
    },
    {
      "constant": false,
      "inputs": [],
      "name": "enableNonNodeCalls",
      "outputs": [],
      "payable": false,
      "stateMutability": "nonpayable",
      "type": "function"
    },
    {
      "constant": true,
      "inputs": [],
      "name": "getBlockTime",
      "outputs": [
        {
          "internalType": "uint256",
          "name": "",
          "type": "uint256"
        }
      ],
      "payable": false,
      "stateMutability": "view",
      "type": "function"
    },
    {
      "constant": true,
      "inputs": [
        {
          "internalType": "uint256",
          "name": "epoch",
          "type": "uint256"
        },
        {
          "internalType": "uint256",
          "name": "validatorID",
          "type": "uint256"
        }
      ],
      "name": "getEpochAccumulatedOriginatedTxsFee",
      "outputs": [
        {
          "internalType": "uint256",
          "name": "",
          "type": "uint256"
        }
      ],
      "payable": false,
      "stateMutability": "view",
      "type": "function"
    },
    {
      "constant": true,
      "inputs": [
        {
          "internalType": "uint256",
          "name": "epoch",
          "type": "uint256"
        },
        {
          "internalType": "uint256",
          "name": "validatorID",
          "type": "uint256"
        }
      ],
      "name": "getEpochAccumulatedRewardPerToken",
      "outputs": [
        {
          "internalType": "uint256",
          "name": "",
          "type": "uint256"
        }
      ],
      "payable": false,
      "stateMutability": "view",
      "type": "function"
    },
    {
      "constant": true,
      "inputs": [
        {
          "internalType": "uint256",
          "name": "epoch",
          "type": "uint256"
        },
        {
          "internalType": "uint256",
          "name": "validatorID",
          "type": "uint256"
        }
      ],
      "name": "getEpochAccumulatedUptime",
      "outputs": [
        {
          "internalType": "uint256",
          "name": "",
          "type": "uint256"
        }
      ],
      "payable": false,
      "stateMutability": "view",
      "type": "function"
    },
    {
      "constant": true,
      "inputs": [
        {
          "internalType": "uint256",
          "name": "epoch",
          "type": "uint256"
        },
        {
          "internalType": "uint256",
          "name": "validatorID",
          "type": "uint256"
        }
      ],
      "name": "getEpochOfflineBlocks",
      "outputs": [
        {
          "internalType": "uint256",
          "name": "",
          "type": "uint256"
        }
      ],
      "payable": false,
      "stateMutability": "view",
      "type": "function"
    },
    {
      "constant": true,
      "inputs": [
        {
          "internalType": "uint256",
          "name": "epoch",
          "type": "uint256"
        },
        {
          "internalType": "uint256",
          "name": "validatorID",
          "type": "uint256"
        }
      ],
      "name": "getEpochOfflineTime",
      "outputs": [
        {
          "internalType": "uint256",
          "name": "",
          "type": "uint256"
        }
      ],
      "payable": false,
      "stateMutability": "view",
      "type": "function"
    },
    {
      "constant": true,
      "inputs": [
        {
          "internalType": "uint256",
          "name": "epoch",
          "type": "uint256"
        },
        {
          "internalType": "uint256",
          "name": "validatorID",
          "type": "uint256"
        }
      ],
      "name": "getEpochReceivedStake",
      "outputs": [
        {
          "internalType": "uint256",
          "name": "",
          "type": "uint256"
        }
      ],
      "payable": false,
      "stateMutability": "view",
      "type": "function"
    },
    {
      "constant": true,
      "inputs": [
        {
          "internalType": "uint256",
          "name": "",
          "type": "uint256"
        }
      ],
      "name": "getEpochSnapshot",
      "outputs": [
        {
          "internalType": "uint256",
          "name": "endTime",
          "type": "uint256"
        },
        {
          "internalType": "uint256",
          "name": "epochFee",
          "type": "uint256"
        },
        {
          "internalType": "uint256",
          "name": "totalBaseRewardWeight",
          "type": "uint256"
        },
        {
          "internalType": "uint256",
          "name": "totalTxRewardWeight",
          "type": "uint256"
        },
        {
          "internalType": "uint256",
          "name": "baseRewardPerSecond",
          "type": "uint256"
        },
        {
          "internalType": "uint256",
          "name": "totalStake",
          "type": "uint256"
        },
        {
          "internalType": "uint256",
          "name": "totalSupply",
          "type": "uint256"
        }
      ],
      "payable": false,
      "stateMutability": "view",
      "type": "function"
    },
    {
      "constant": true,
      "inputs": [
        {
          "internalType": "uint256",
          "name": "epoch",
          "type": "uint256"
        }
      ],
      "name": "getEpochValidatorIDs",
      "outputs": [
        {
          "internalType": "uint256[]",
          "name": "",
          "type": "uint256[]"
        }
      ],
      "payable": false,
      "stateMutability": "view",
      "type": "function"
    },
    {
      "constant": true,
      "inputs": [
        {
          "internalType": "address",
          "name": "delegator",
          "type": "address"
        },
        {
          "internalType": "uint256",
          "name": "toValidatorID",
          "type": "uint256"
        }
      ],
      "name": "getLockedStake",
      "outputs": [
        {
          "internalType": "uint256",
          "name": "",
          "type": "uint256"
        }
      ],
      "payable": false,
      "stateMutability": "view",
      "type": "function"
    },
    {
      "constant": true,
      "inputs": [
        {
          "internalType": "address",
          "name": "",
          "type": "address"
        },
        {
          "internalType": "uint256",
          "name": "",
          "type": "uint256"
        }
      ],
      "name": "getLockupInfo",
      "outputs": [
        {
          "internalType": "uint256",
          "name": "lockedStake",
          "type": "uint256"
        },
        {
          "internalType": "uint256",
          "name": "fromEpoch",
          "type": "uint256"
        },
        {
          "internalType": "uint256",
          "name": "endTime",
          "type": "uint256"
        },
        {
          "internalType": "uint256",
          "name": "duration",
          "type": "uint256"
        }
      ],
      "payable": false,
      "stateMutability": "view",
      "type": "function"
    },
    {
      "constant": true,
      "inputs": [
        {
          "internalType": "uint256",
          "name": "validatorID",
          "type": "uint256"
        }
      ],
      "name": "getSelfStake",
      "outputs": [
        {
          "internalType": "uint256",
          "name": "",
          "type": "uint256"
        }
      ],
      "payable": false,
      "stateMutability": "view",
      "type": "function"
    },
    {
      "constant": true,
      "inputs": [
        {
          "internalType": "address",
          "name": "",
          "type": "address"
        },
        {
          "internalType": "uint256",
          "name": "",
          "type": "uint256"
        }
      ],
      "name": "getStake",
      "outputs": [
        {
          "internalType": "uint256",
          "name": "",
          "type": "uint256"
        }
      ],
      "payable": false,
      "stateMutability": "view",
      "type": "function"
    },
    {
      "constant": true,
      "inputs": [
        {
          "internalType": "address",
          "name": "",
          "type": "address"
        },
        {
          "internalType": "uint256",
          "name": "",
          "type": "uint256"
        }
      ],
      "name": "getStashedLockupRewards",
      "outputs": [
        {
          "internalType": "uint256",
          "name": "lockupExtraReward",
          "type": "uint256"
        },
        {
          "internalType": "uint256",
          "name": "lockupBaseReward",
          "type": "uint256"
        },
        {
          "internalType": "uint256",
          "name": "unlockedReward",
          "type": "uint256"
        }
      ],
      "payable": false,
      "stateMutability": "view",
      "type": "function"
    },
    {
      "constant": true,
      "inputs": [],
      "name": "getTime",
      "outputs": [
        {
          "internalType": "uint256",
          "name": "",
          "type": "uint256"
        }
      ],
      "payable": false,
      "stateMutability": "view",
      "type": "function"
    },
    {
      "constant": true,
      "inputs": [
        {
          "internalType": "address",
          "name": "delegator",
          "type": "address"
        },
        {
          "internalType": "uint256",
          "name": "toValidatorID",
          "type": "uint256"
        }
      ],
      "name": "getUnlockedStake",
      "outputs": [
        {
          "internalType": "uint256",
          "name": "",
          "type": "uint256"
        }
      ],
      "payable": false,
      "stateMutability": "view",
      "type": "function"
    },
    {
      "constant": true,
      "inputs": [
        {
          "internalType": "uint256",
          "name": "",
          "type": "uint256"
        }
      ],
      "name": "getValidator",
      "outputs": [
        {
          "internalType": "uint256",
          "name": "status",
          "type": "uint256"
        },
        {
          "internalType": "uint256",
          "name": "deactivatedTime",
          "type": "uint256"
        },
        {
          "internalType": "uint256",
          "name": "deactivatedEpoch",
          "type": "uint256"
        },
        {
          "internalType": "uint256",
          "name": "receivedStake",
          "type": "uint256"
        },
        {
          "internalType": "uint256",
          "name": "createdEpoch",
          "type": "uint256"
        },
        {
          "internalType": "uint256",
          "name": "createdTime",
          "type": "uint256"
        },
        {
          "internalType": "address",
          "name": "auth",
          "type": "address"
        }
      ],
      "payable": false,
      "stateMutability": "view",
      "type": "function"
    },
    {
      "constant": true,
      "inputs": [
        {
          "internalType": "address",
          "name": "",
          "type": "address"
        }
      ],
      "name": "getValidatorID",
      "outputs": [
        {
          "internalType": "uint256",
          "name": "",
          "type": "uint256"
        }
      ],
      "payable": false,
      "stateMutability": "view",
      "type": "function"
    },
    {
      "constant": true,
      "inputs": [
        {
          "internalType": "uint256",
          "name": "",
          "type": "uint256"
        }
      ],
      "name": "getValidatorPubkey",
      "outputs": [
        {
          "internalType": "bytes",
          "name": "",
          "type": "bytes"
        }
      ],
      "payable": false,
      "stateMutability": "view",
      "type": "function"
    },
    {
      "constant": true,
      "inputs": [
        {
          "internalType": "address",
          "name": "",
          "type": "address"
        },
        {
          "internalType": "uint256",
          "name": "",
          "type": "uint256"
        },
        {
          "internalType": "uint256",
          "name": "",
          "type": "uint256"
        }
      ],
      "name": "getWithdrawalRequest",
      "outputs": [
        {
          "internalType": "uint256",
          "name": "epoch",
          "type": "uint256"
        },
        {
          "internalType": "uint256",
          "name": "time",
          "type": "uint256"
        },
        {
          "internalType": "uint256",
          "name": "amount",
          "type": "uint256"
        }
      ],
      "payable": false,
      "stateMutability": "view",
      "type": "function"
    },
    {
      "constant": true,
      "inputs": [],
      "name": "governance",
      "outputs": [
        {
          "internalType": "address",
          "name": "",
          "type": "address"
        }
      ],
      "payable": false,
      "stateMutability": "view",
      "type": "function"
    },
    {
      "constant": true,
      "inputs": [
        {
          "internalType": "address",
          "name": "delegator",
          "type": "address"
        },
        {
          "internalType": "uint256",
          "name": "validatorID",
          "type": "uint256"
        }
      ],
      "name": "highestLockupEpoch",
      "outputs": [
        {
          "internalType": "uint256",
          "name": "",
          "type": "uint256"
        }
      ],
      "payable": false,
      "stateMutability": "view",
      "type": "function"
    },
    {
      "constant": false,
      "inputs": [
        {
          "internalType": "uint256",
          "name": "sealedEpoch",
          "type": "uint256"
        },
        {
          "internalType": "uint256",
          "name": "_totalSupply",
          "type": "uint256"
        },
        {
          "internalType": "address",
          "name": "nodeDriver",
          "type": "address"
        },
        {
          "internalType": "address",
          "name": "owner",
          "type": "address"
        },
        {
          "internalType": "address",
          "name": "governance",
          "type": "address"
        }
      ],
      "name": "initialize",
      "outputs": [],
      "payable": false,
      "stateMutability": "nonpayable",
      "type": "function"
    },
    {
      "constant": true,
      "inputs": [],
      "name": "isGovernance",
      "outputs": [
        {
          "internalType": "bool",
          "name": "",
          "type": "bool"
        }
      ],
      "payable": false,
      "stateMutability": "view",
      "type": "function"
    },
    {
      "constant": true,
      "inputs": [
        {
          "internalType": "address",
          "name": "delegator",
          "type": "address"
        },
        {
          "internalType": "uint256",
          "name": "toValidatorID",
          "type": "uint256"
        }
      ],
      "name": "isLockedUp",
      "outputs": [
        {
          "internalType": "bool",
          "name": "",
          "type": "bool"
        }
      ],
      "payable": false,
      "stateMutability": "view",
      "type": "function"
    },
    {
      "constant": true,
      "inputs": [],
      "name": "isOwner",
      "outputs": [
        {
          "internalType": "bool",
          "name": "",
          "type": "bool"
        }
      ],
      "payable": false,
      "stateMutability": "view",
      "type": "function"
    },
    {
      "constant": true,
      "inputs": [
        {
          "internalType": "uint256",
          "name": "validatorID",
          "type": "uint256"
        }
      ],
      "name": "isSlashed",
      "outputs": [
        {
          "internalType": "bool",
          "name": "",
          "type": "bool"
        }
      ],
      "payable": false,
      "stateMutability": "view",
      "type": "function"
    },
    {
      "constant": true,
      "inputs": [],
      "name": "lastValidatorID",
      "outputs": [
        {
          "internalType": "uint256",
          "name": "",
          "type": "uint256"
        }
      ],
      "payable": false,
      "stateMutability": "view",
      "type": "function"
    },
    {
      "constant": false,
      "inputs": [
        {
          "internalType": "uint256",
          "name": "toValidatorID",
          "type": "uint256"
        },
        {
          "internalType": "uint256",
          "name": "lockupDuration",
          "type": "uint256"
        },
        {
          "internalType": "uint256",
          "name": "amount",
          "type": "uint256"
        }
      ],
      "name": "lockStake",
      "outputs": [],
      "payable": false,
      "stateMutability": "nonpayable",
      "type": "function"
    },
    {
      "constant": true,
      "inputs": [],
      "name": "maxDelegatedRatio",
      "outputs": [
        {
          "internalType": "uint256",
          "name": "",
          "type": "uint256"
        }
      ],
      "payable": false,
      "stateMutability": "view",
      "type": "function"
    },
    {
      "constant": true,
      "inputs": [],
      "name": "maxLockupDuration",
      "outputs": [
        {
          "internalType": "uint256",
          "name": "",
          "type": "uint256"
        }
      ],
      "payable": false,
      "stateMutability": "view",
      "type": "function"
    },
    {
      "constant": true,
      "inputs": [],
      "name": "minLockupDuration",
      "outputs": [
        {
          "internalType": "uint256",
          "name": "",
          "type": "uint256"
        }
      ],
      "payable": false,
      "stateMutability": "view",
      "type": "function"
    },
    {
      "constant": true,
      "inputs": [],
      "name": "minSelfStake",
      "outputs": [
        {
          "internalType": "uint256",
          "name": "",
          "type": "uint256"
        }
      ],
      "payable": false,
      "stateMutability": "view",
      "type": "function"
    },
    {
      "constant": false,
      "inputs": [
        {
          "internalType": "address payable",
          "name": "receiver",
          "type": "address"
        },
        {
          "internalType": "uint256",
          "name": "amount",
          "type": "uint256"
        },
        {
          "internalType": "string",
          "name": "justification",
          "type": "string"
        }
      ],
      "name": "mintFTM",
      "outputs": [],
      "payable": false,
      "stateMutability": "nonpayable",
      "type": "function"
    },
    {
      "constant": true,
      "inputs": [],
      "name": "offlinePenaltyThreshold",
      "outputs": [
        {
          "internalType": "uint256",
          "name": "blocksNum",
          "type": "uint256"
        },
        {
          "internalType": "uint256",
          "name": "time",
          "type": "uint256"
        }
      ],
      "payable": false,
      "stateMutability": "view",
      "type": "function"
    },
    {
      "constant": true,
      "inputs": [],
      "name": "owner",
      "outputs": [
        {
          "internalType": "address",
          "name": "",
          "type": "address"
        }
      ],
      "payable": false,
      "stateMutability": "view",
      "type": "function"
    },
    {
      "constant": true,
      "inputs": [
        {
          "internalType": "address",
          "name": "delegator",
          "type": "address"
        },
        {
          "internalType": "uint256",
          "name": "toValidatorID",
          "type": "uint256"
        }
      ],
      "name": "pendingRewards",
      "outputs": [
        {
          "internalType": "uint256",
          "name": "",
          "type": "uint256"
        }
      ],
      "payable": false,
      "stateMutability": "view",
      "type": "function"
    },
    {
      "constant": false,
      "inputs": [],
      "name": "rebaseTime",
      "outputs": [],
      "payable": false,
      "stateMutability": "nonpayable",
      "type": "function"
    },
    {
      "constant": false,
      "inputs": [
        {
          "internalType": "uint256",
          "name": "toValidatorID",
          "type": "uint256"
        },
        {
          "internalType": "uint256",
          "name": "lockupDuration",
          "type": "uint256"
        },
        {
          "internalType": "uint256",
          "name": "amount",
          "type": "uint256"
        }
      ],
      "name": "relockStake",
      "outputs": [],
      "payable": false,
      "stateMutability": "nonpayable",
      "type": "function"
    },
    {
      "constant": false,
      "inputs": [],
      "name": "renounceOwnership",
      "outputs": [],
      "payable": false,
      "stateMutability": "nonpayable",
      "type": "function"
    },
    {
      "constant": false,
      "inputs": [
        {
          "internalType": "uint256",
          "name": "toValidatorID",
          "type": "uint256"
        }
      ],
      "name": "restakeRewards",
      "outputs": [],
      "payable": false,
      "stateMutability": "nonpayable",
      "type": "function"
    },
    {
      "constant": true,
      "inputs": [
        {
          "internalType": "address",
          "name": "delegator",
          "type": "address"
        },
        {
          "internalType": "uint256",
          "name": "validatorID",
          "type": "uint256"
        }
      ],
      "name": "rewardsStash",
      "outputs": [
        {
          "internalType": "uint256",
          "name": "",
          "type": "uint256"
        }
      ],
      "payable": false,
      "stateMutability": "view",
      "type": "function"
    },
    {
      "constant": false,
      "inputs": [
        {
          "internalType": "uint256[]",
          "name": "offlineTime",
          "type": "uint256[]"
        },
        {
          "internalType": "uint256[]",
          "name": "offlineBlocks",
          "type": "uint256[]"
        },
        {
          "internalType": "uint256[]",
          "name": "uptimes",
          "type": "uint256[]"
        },
        {
          "internalType": "uint256[]",
          "name": "originatedTxsFee",
          "type": "uint256[]"
        }
      ],
      "name": "sealEpoch",
      "outputs": [],
      "payable": false,
      "stateMutability": "nonpayable",
      "type": "function"
    },
    {
      "constant": false,
      "inputs": [
        {
          "internalType": "uint256[]",
          "name": "nextValidatorIDs",
          "type": "uint256[]"
        }
      ],
      "name": "sealEpochValidators",
      "outputs": [],
      "payable": false,
      "stateMutability": "nonpayable",
      "type": "function"
    },
    {
      "constant": false,
      "inputs": [
        {
          "internalType": "uint256",
          "name": "_contractCommission",
          "type": "uint256"
        }
      ],
      "name": "setContractCommission",
      "outputs": [],
      "payable": false,
      "stateMutability": "nonpayable",
      "type": "function"
    },
    {
      "constant": false,
      "inputs": [
        {
          "internalType": "address",
          "name": "delegator",
          "type": "address"
        },
        {
          "internalType": "uint256",
          "name": "toValidatorID",
          "type": "uint256"
        },
        {
          "internalType": "uint256",
          "name": "stake",
          "type": "uint256"
        },
        {
          "internalType": "uint256",
          "name": "lockedStake",
          "type": "uint256"
        },
        {
          "internalType": "uint256",
          "name": "lockupFromEpoch",
          "type": "uint256"
        },
        {
          "internalType": "uint256",
          "name": "lockupEndTime",
          "type": "uint256"
        },
        {
          "internalType": "uint256",
          "name": "lockupDuration",
          "type": "uint256"
        },
        {
          "internalType": "uint256",
          "name": "earlyUnlockPenalty",
          "type": "uint256"
        },
        {
          "internalType": "uint256",
          "name": "rewards",
          "type": "uint256"
        }
      ],
      "name": "setGenesisDelegation",
      "outputs": [],
      "payable": false,
      "stateMutability": "nonpayable",
      "type": "function"
    },
    {
      "constant": false,
      "inputs": [
        {
          "internalType": "address",
          "name": "auth",
          "type": "address"
        },
        {
          "internalType": "uint256",
          "name": "validatorID",
          "type": "uint256"
        },
        {
          "internalType": "bytes",
          "name": "pubkey",
          "type": "bytes"
        },
        {
          "internalType": "uint256",
          "name": "status",
          "type": "uint256"
        },
        {
          "internalType": "uint256",
          "name": "createdEpoch",
          "type": "uint256"
        },
        {
          "internalType": "uint256",
          "name": "createdTime",
          "type": "uint256"
        },
        {
          "internalType": "uint256",
          "name": "deactivatedEpoch",
          "type": "uint256"
        },
        {
          "internalType": "uint256",
          "name": "deactivatedTime",
          "type": "uint256"
        }
      ],
      "name": "setGenesisValidator",
      "outputs": [],
      "payable": false,
      "stateMutability": "nonpayable",
      "type": "function"
    },
    {
      "constant": false,
      "inputs": [
        {
          "internalType": "uint256",
          "name": "_maxDelegationRatio",
          "type": "uint256"
        }
      ],
      "name": "setMaxDelegation",
      "outputs": [],
      "payable": false,
      "stateMutability": "nonpayable",
      "type": "function"
    },
    {
      "constant": false,
      "inputs": [
        {
          "internalType": "uint256",
          "name": "_maxLockupDuration",
          "type": "uint256"
        }
      ],
      "name": "setMaxLockupDuration",
      "outputs": [],
      "payable": false,
      "stateMutability": "nonpayable",
      "type": "function"
    },
    {
      "constant": false,
      "inputs": [
        {
          "internalType": "uint256",
          "name": "_minLockupDuration",
          "type": "uint256"
        }
      ],
      "name": "setMinLockupDuration",
      "outputs": [],
      "payable": false,
      "stateMutability": "nonpayable",
      "type": "function"
    },
    {
      "constant": false,
      "inputs": [
        {
          "internalType": "uint256",
          "name": "_minSelfStake",
          "type": "uint256"
        }
      ],
      "name": "setMinSelfStake",
      "outputs": [],
      "payable": false,
      "stateMutability": "nonpayable",
      "type": "function"
    },
    {
      "constant": false,
      "inputs": [
        {
          "internalType": "uint256",
          "name": "_unlockedReward",
          "type": "uint256"
        }
      ],
      "name": "setUnlockedRewardRatio",
      "outputs": [],
      "payable": false,
      "stateMutability": "nonpayable",
      "type": "function"
    },
    {
      "constant": false,
      "inputs": [
        {
          "internalType": "uint256",
          "name": "_validatorCommission",
          "type": "uint256"
        }
      ],
      "name": "setValidatorCommission",
      "outputs": [],
      "payable": false,
      "stateMutability": "nonpayable",
      "type": "function"
    },
    {
      "constant": false,
      "inputs": [
        {
          "internalType": "uint256",
          "name": "_withdrawalPeriodEpochs",
          "type": "uint256"
        }
      ],
      "name": "setWithdrawalPeriodEpoch",
      "outputs": [],
      "payable": false,
      "stateMutability": "nonpayable",
      "type": "function"
    },
    {
      "constant": false,
      "inputs": [
        {
          "internalType": "uint256",
          "name": "_withdrawalPeriodTime",
          "type": "uint256"
        }
      ],
      "name": "setWithdrawalPeriodTime",
      "outputs": [],
      "payable": false,
      "stateMutability": "nonpayable",
      "type": "function"
    },
    {
      "constant": true,
      "inputs": [
        {
          "internalType": "uint256",
          "name": "",
          "type": "uint256"
        }
      ],
      "name": "slashingRefundRatio",
      "outputs": [
        {
          "internalType": "uint256",
          "name": "",
          "type": "uint256"
        }
      ],
      "payable": false,
      "stateMutability": "view",
      "type": "function"
    },
    {
      "constant": true,
      "inputs": [],
      "name": "stakeTokenizerAddress",
      "outputs": [
        {
          "internalType": "address",
          "name": "",
          "type": "address"
        }
      ],
      "payable": false,
      "stateMutability": "view",
      "type": "function"
    },
    {
      "constant": false,
      "inputs": [
        {
          "internalType": "address",
          "name": "delegator",
          "type": "address"
        },
        {
          "internalType": "uint256",
          "name": "toValidatorID",
          "type": "uint256"
        }
      ],
      "name": "stashRewards",
      "outputs": [],
      "payable": false,
      "stateMutability": "nonpayable",
      "type": "function"
    },
    {
      "constant": true,
      "inputs": [
        {
          "internalType": "address",
          "name": "",
          "type": "address"
        },
        {
          "internalType": "uint256",
          "name": "",
          "type": "uint256"
        }
      ],
      "name": "stashedRewardsUntilEpoch",
      "outputs": [
        {
          "internalType": "uint256",
          "name": "",
          "type": "uint256"
        }
      ],
      "payable": false,
      "stateMutability": "view",
      "type": "function"
    },
    {
      "constant": true,
      "inputs": [],
      "name": "time",
      "outputs": [
        {
          "internalType": "uint256",
          "name": "",
          "type": "uint256"
        }
      ],
      "payable": false,
      "stateMutability": "view",
      "type": "function"
    },
    {
      "constant": true,
      "inputs": [],
      "name": "totalActiveStake",
      "outputs": [
        {
          "internalType": "uint256",
          "name": "",
          "type": "uint256"
        }
      ],
      "payable": false,
      "stateMutability": "view",
      "type": "function"
    },
    {
      "constant": true,
      "inputs": [],
      "name": "totalSlashedStake",
      "outputs": [
        {
          "internalType": "uint256",
          "name": "",
          "type": "uint256"
        }
      ],
      "payable": false,
      "stateMutability": "view",
      "type": "function"
    },
    {
      "constant": true,
      "inputs": [],
      "name": "totalStake",
      "outputs": [
        {
          "internalType": "uint256",
          "name": "",
          "type": "uint256"
        }
      ],
      "payable": false,
      "stateMutability": "view",
      "type": "function"
    },
    {
      "constant": true,
      "inputs": [],
      "name": "totalSupply",
      "outputs": [
        {
          "internalType": "uint256",
          "name": "",
          "type": "uint256"
        }
      ],
      "payable": false,
      "stateMutability": "view",
      "type": "function"
    },
    {
      "constant": false,
      "inputs": [
        {
          "internalType": "address",
          "name": "newGovernance",
          "type": "address"
        }
      ],
      "name": "transferGovernance",
      "outputs": [],
      "payable": false,
      "stateMutability": "nonpayable",
      "type": "function"
    },
    {
      "constant": false,
      "inputs": [
        {
          "internalType": "address",
          "name": "newOwner",
          "type": "address"
        }
      ],
      "name": "transferOwnership",
      "outputs": [],
      "payable": false,
      "stateMutability": "nonpayable",
      "type": "function"
    },
    {
      "constant": false,
      "inputs": [
        {
          "internalType": "uint256",
          "name": "toValidatorID",
          "type": "uint256"
        },
        {
          "internalType": "uint256",
          "name": "wrID",
          "type": "uint256"
        },
        {
          "internalType": "uint256",
          "name": "amount",
          "type": "uint256"
        }
      ],
      "name": "undelegate",
      "outputs": [],
      "payable": false,
      "stateMutability": "nonpayable",
      "type": "function"
    },
    {
      "constant": false,
      "inputs": [
        {
          "internalType": "uint256",
          "name": "toValidatorID",
          "type": "uint256"
        },
        {
          "internalType": "uint256",
          "name": "amount",
          "type": "uint256"
        }
      ],
      "name": "unlockStake",
      "outputs": [
        {
          "internalType": "uint256",
          "name": "",
          "type": "uint256"
        }
      ],
      "payable": false,
      "stateMutability": "nonpayable",
      "type": "function"
    },
    {
      "constant": true,
      "inputs": [],
      "name": "unlockedRewardRatio",
      "outputs": [
        {
          "internalType": "uint256",
          "name": "",
          "type": "uint256"
        }
      ],
      "payable": false,
      "stateMutability": "view",
      "type": "function"
    },
    {
      "constant": false,
      "inputs": [
        {
          "internalType": "uint256",
          "name": "value",
          "type": "uint256"
        }
      ],
      "name": "updateBaseRewardPerSecond",
      "outputs": [],
      "payable": false,
      "stateMutability": "nonpayable",
      "type": "function"
    },
    {
      "constant": false,
      "inputs": [
        {
          "internalType": "uint256",
          "name": "blocksNum",
          "type": "uint256"
        },
        {
          "internalType": "uint256",
          "name": "time",
          "type": "uint256"
        }
      ],
      "name": "updateOfflinePenaltyThreshold",
      "outputs": [],
      "payable": false,
      "stateMutability": "nonpayable",
      "type": "function"
    },
    {
      "constant": false,
      "inputs": [
        {
          "internalType": "uint256",
          "name": "validatorID",
          "type": "uint256"
        },
        {
          "internalType": "uint256",
          "name": "refundRatio",
          "type": "uint256"
        }
      ],
      "name": "updateSlashingRefundRatio",
      "outputs": [],
      "payable": false,
      "stateMutability": "nonpayable",
      "type": "function"
    },
    {
      "constant": false,
      "inputs": [
        {
          "internalType": "address",
          "name": "addr",
          "type": "address"
        }
      ],
      "name": "updateStakeTokenizerAddress",
      "outputs": [],
      "payable": false,
      "stateMutability": "nonpayable",
      "type": "function"
    },
    {
      "constant": false,
      "inputs": [
        {
          "internalType": "int256",
          "name": "diff",
          "type": "int256"
        }
      ],
      "name": "updateTotalSupply",
      "outputs": [],
      "payable": false,
      "stateMutability": "nonpayable",
      "type": "function"
    },
    {
      "constant": true,
      "inputs": [],
      "name": "validatorCommission",
      "outputs": [
        {
          "internalType": "uint256",
          "name": "",
          "type": "uint256"
        }
      ],
      "payable": false,
      "stateMutability": "view",
      "type": "function"
    },
    {
      "constant": true,
      "inputs": [],
      "name": "version",
      "outputs": [
        {
          "internalType": "bytes3",
          "name": "",
          "type": "bytes3"
        }
      ],
      "payable": false,
      "stateMutability": "pure",
      "type": "function"
    },
    {
      "constant": false,
      "inputs": [
        {
          "internalType": "uint256",
          "name": "toValidatorID",
          "type": "uint256"
        },
        {
          "internalType": "uint256",
          "name": "wrID",
          "type": "uint256"
        }
      ],
      "name": "withdraw",
      "outputs": [],
      "payable": false,
      "stateMutability": "nonpayable",
      "type": "function"
    },
    {
      "constant": true,
      "inputs": [],
      "name": "withdrawalPeriodEpochs",
      "outputs": [
        {
          "internalType": "uint256",
          "name": "",
          "type": "uint256"
        }
      ],
      "payable": false,
      "stateMutability": "view",
      "type": "function"
    },
    {
      "constant": true,
      "inputs": [],
      "name": "withdrawalPeriodTime",
      "outputs": [
        {
          "internalType": "uint256",
          "name": "",
          "type": "uint256"
        }
      ],
      "payable": false,
      "stateMutability": "view",
      "type": "function"
    }
  ],
  "bytecode": "0x608060405234801561001057600080fd5b506163e180620000216000396000f3fe6080604052600436106104f75760003560e01c80637cacb1d61161028c578063c5f530af1161015a578063db3a4bc6116100cc578063e2f8c33611610085578063e2f8c33614611511578063e4af78be146115a1578063ebdf104c146115cb578063f2fde38b14611736578063f5bd296814611769578063f78bf110146117a2576104f7565b8063db3a4bc6146113bb578063dc31e1af146113d0578063de67f21514611400578063df00c92214611436578063e08d7e6614611466578063e261641a146114e1576104f7565b8063cfd476631161011e578063cfd47663146112c2578063cfdbb7cd146112fb578063d38bfff414611334578063d54b509914611367578063d75629cf1461137c578063d9a7c1f9146113a6576104f7565b8063c5f530af14611212578063c65ee0e114611227578063c7be95de14611251578063cc8343aa14611266578063cefe9c1814611298576104f7565b8063a2f6e6bc116101fe578063b6d9edd5116101b7578063b6d9edd5146110c0578063b810e411146110ea578063b82b842714611123578063b88a37e214611138578063bd14d907146111b2578063c3de580e146111e8576104f7565b8063a2f6e6bc14610f3c578063a5a470ad14610f6f578063a778651514610fdd578063a86a056f14610ff2578063ad9a4b5c1461102b578063b5d8962714611055576104f7565b80638cddb015116102505780638cddb01514610e195780638da5cb5b14610e525780638f32d59b14610e6757806396c7ee4614610e905780639fa6dd3514610eef578063a198d22914610f0c576104f7565b80637cacb1d614610d0b578063854873e114610d2057806387ceff0914610dbf5780638b0e9f3f14610dd45780638b1a0d1114610de9576104f7565b8063346bdcfb116103c957806358f95b801161033b578063650acd66116102f4578063650acd6614610c30578063670322f814610c455780636ca6d6bc14610c7e5780636f49866314610ca8578063715018a614610ce15780637667180814610cf6576104f7565b806358f95b8014610b585780635aa6e67514610b885780635e2308d214610b9d5780635fab23a814610bb25780636099ecb214610bc757806361e53fcc14610c00576104f7565b80634f7c4efb1161038d5780634f7c4efb146109d85780634f864df414610a085780634feb92f314610a3e57806354fd4d5014610ae7578063557ed1ba14610b195780635601fe0114610b2e576104f7565b8063346bdcfb146108a157806339b80c00146108cb5780633fbfd4df1461092d5780634055f2731461097e578063441a3e70146109a8576104f7565b806318160ddd1161046d57806324f3082a1161042657806324f3082a146107f55780632709275e1461080a57806328f731481461081f5780632cedb097146108345780632d2646ed1461086257806333469d3d1461088c576104f7565b806318160ddd146106a957806318f628d4146106be5780631d3ac42c146107235780631e702f83146107535780631f270152146107835780632265f284146107e0576104f7565b806309fc49ab116104bf57806309fc49ab146105eb5780630d4955e3146106005780630d7b2609146106155780630e559d821461062a57806312622d0e1461065b57806316ada54714610694576104f7565b80630135b1db146104fc57806303c91ccd1461054157806307e32f0a1461056d57806308c36874146105975780630962ef79146105c1575b600080fd5b34801561050857600080fd5b5061052f6004803603602081101561051f57600080fd5b50356001600160a01b03166117cc565b60408051918252519081900360200190f35b34801561054d57600080fd5b5061056b6004803603602081101561056457600080fd5b50356117de565b005b34801561057957600080fd5b5061056b6004803603602081101561059057600080fd5b503561183b565b3480156105a357600080fd5b5061056b600480360360208110156105ba57600080fd5b5035611846565b3480156105cd57600080fd5b5061056b600480360360208110156105e457600080fd5b5035611912565b3480156105f757600080fd5b5061056b611a52565b34801561060c57600080fd5b5061052f611a61565b34801561062157600080fd5b5061052f611a6c565b34801561063657600080fd5b5061063f611a75565b604080516001600160a01b039092168252519081900360200190f35b34801561066757600080fd5b5061052f6004803603604081101561067e57600080fd5b506001600160a01b038135169060200135611a84565b3480156106a057600080fd5b5061052f611b0d565b3480156106b557600080fd5b5061052f611b13565b3480156106ca57600080fd5b5061056b60048036036101208110156106e257600080fd5b506001600160a01b038135169060208101359060408101359060608101359060808101359060a08101359060c08101359060e0810135906101000135611b19565b34801561072f57600080fd5b5061052f6004803603604081101561074657600080fd5b5080359060200135611c79565b34801561075f57600080fd5b5061056b6004803603604081101561077657600080fd5b5080359060200135611e51565b34801561078f57600080fd5b506107c2600480360360608110156107a657600080fd5b506001600160a01b038135169060208101359060400135611eef565b60408051938452602084019290925282820152519081900360600190f35b3480156107ec57600080fd5b5061052f611f21565b34801561080157600080fd5b5061056b611f34565b34801561081657600080fd5b5061052f611f3a565b34801561082b57600080fd5b5061052f611f57565b34801561084057600080fd5b50610849611f5d565b6040805192835260208301919091528051918290030190f35b34801561086e57600080fd5b5061056b6004803603602081101561088557600080fd5b5035611f67565b34801561089857600080fd5b5061056b611fc1565b3480156108ad57600080fd5b5061056b600480360360208110156108c457600080fd5b5035611fcd565b3480156108d757600080fd5b506108f5600480360360208110156108ee57600080fd5b5035612039565b604080519788526020880196909652868601949094526060860192909252608085015260a084015260c0830152519081900360e00190f35b34801561093957600080fd5b5061056b600480360360a081101561095057600080fd5b508035906020810135906001600160a01b03604082013581169160608101358216916080909101351661207b565b34801561098a57600080fd5b5061056b600480360360208110156109a157600080fd5b503561218d565b3480156109b457600080fd5b5061056b600480360360408110156109cb57600080fd5b50803590602001356121e7565b3480156109e457600080fd5b5061056b600480360360408110156109fb57600080fd5b50803590602001356125e4565b348015610a1457600080fd5b5061056b60048036036060811015610a2b57600080fd5b5080359060208101359060400135612716565b348015610a4a57600080fd5b5061056b6004803603610100811015610a6257600080fd5b6001600160a01b0382351691602081013591810190606081016040820135600160201b811115610a9157600080fd5b820183602082011115610aa357600080fd5b803590602001918460018302840111600160201b83111715610ac457600080fd5b91935091508035906020810135906040810135906060810135906080013561298e565b348015610af357600080fd5b50610afc612a34565b604080516001600160e81b03199092168252519081900360200190f35b348015610b2557600080fd5b5061052f612a3e565b348015610b3a57600080fd5b5061052f60048036036020811015610b5157600080fd5b5035612a44565b348015610b6457600080fd5b5061052f60048036036040811015610b7b57600080fd5b5080359060200135612a7a565b348015610b9457600080fd5b5061063f612a97565b348015610ba957600080fd5b5061052f612aa6565b348015610bbe57600080fd5b5061052f612abd565b348015610bd357600080fd5b5061052f60048036036040811015610bea57600080fd5b506001600160a01b038135169060200135612ac3565b348015610c0c57600080fd5b5061052f60048036036040811015610c2357600080fd5b5080359060200135612b01565b348015610c3c57600080fd5b5061052f612b22565b348015610c5157600080fd5b5061052f60048036036040811015610c6857600080fd5b506001600160a01b038135169060200135612b28565b348015610c8a57600080fd5b5061056b60048036036020811015610ca157600080fd5b5035612b69565b348015610cb457600080fd5b5061052f60048036036040811015610ccb57600080fd5b506001600160a01b038135169060200135612bc3565b348015610ced57600080fd5b5061056b612c2d565b348015610d0257600080fd5b5061052f612cac565b348015610d1757600080fd5b5061052f612cb5565b348015610d2c57600080fd5b50610d4a60048036036020811015610d4357600080fd5b5035612cbb565b6040805160208082528351818301528351919283929083019185019080838360005b83811015610d84578181015183820152602001610d6c565b50505050905090810190601f168015610db15780820380516001836020036101000a031916815260200191505b509250505060405180910390f35b348015610dcb57600080fd5b5061052f612d56565b348015610de057600080fd5b5061052f612d65565b348015610df557600080fd5b5061056b60048036036040811015610e0c57600080fd5b5080359060200135612d6b565b348015610e2557600080fd5b5061056b60048036036040811015610e3c57600080fd5b506001600160a01b038135169060200135612dfb565b348015610e5e57600080fd5b5061063f612e49565b348015610e7357600080fd5b50610e7c612e58565b604080519115158252519081900360200190f35b348015610e9c57600080fd5b50610ec960048036036040811015610eb357600080fd5b506001600160a01b038135169060200135612e69565b604080519485526020850193909352838301919091526060830152519081900360800190f35b61056b60048036036020811015610f0557600080fd5b5035612e9b565b348015610f1857600080fd5b5061052f60048036036040811015610f2f57600080fd5b5080359060200135612ea6565b348015610f4857600080fd5b5061056b60048036036020811015610f5f57600080fd5b50356001600160a01b0316612ec7565b61056b60048036036020811015610f8557600080fd5b810190602081018135600160201b811115610f9f57600080fd5b820183602082011115610fb157600080fd5b803590602001918460018302840111600160201b83111715610fd257600080fd5b509092509050612f30565b348015610fe957600080fd5b5061052f613023565b348015610ffe57600080fd5b5061052f6004803603604081101561101557600080fd5b506001600160a01b03813516906020013561303a565b34801561103757600080fd5b5061056b6004803603602081101561104e57600080fd5b5035613057565b34801561106157600080fd5b5061107f6004803603602081101561107857600080fd5b50356130b1565b604080519788526020880196909652868601949094526060860192909252608085015260a08401526001600160a01b031660c0830152519081900360e00190f35b3480156110cc57600080fd5b5061056b600480360360208110156110e357600080fd5b50356130f7565b3480156110f657600080fd5b506107c26004803603604081101561110d57600080fd5b506001600160a01b0381351690602001356131d7565b34801561112f57600080fd5b5061052f613203565b34801561114457600080fd5b506111626004803603602081101561115b57600080fd5b5035613209565b60408051602080825283518183015283519192839290830191858101910280838360005b8381101561119e578181015183820152602001611186565b505050509050019250505060405180910390f35b3480156111be57600080fd5b5061056b600480360360608110156111d557600080fd5b508035906020810135906040013561326e565b3480156111f457600080fd5b50610e7c6004803603602081101561120b57600080fd5b5035613281565b34801561121e57600080fd5b5061052f613298565b34801561123357600080fd5b5061052f6004803603602081101561124a57600080fd5b50356132a4565b34801561125d57600080fd5b5061052f6132b6565b34801561127257600080fd5b5061056b6004803603604081101561128957600080fd5b508035906020013515156132bc565b3480156112a457600080fd5b5061056b600480360360208110156112bb57600080fd5b503561349f565b3480156112ce57600080fd5b5061052f600480360360408110156112e557600080fd5b506001600160a01b0381351690602001356134f9565b34801561130757600080fd5b50610e7c6004803603604081101561131e57600080fd5b506001600160a01b038135169060200135613516565b34801561134057600080fd5b5061056b6004803603602081101561135757600080fd5b50356001600160a01b03166135ac565b34801561137357600080fd5b50610e7c613606565b34801561138857600080fd5b5061056b6004803603602081101561139f57600080fd5b503561360f565b3480156113b257600080fd5b5061052f613669565b3480156113c757600080fd5b50610e7c61366f565b3480156113dc57600080fd5b5061052f600480360360408110156113f357600080fd5b5080359060200135613680565b34801561140c57600080fd5b5061056b6004803603606081101561142357600080fd5b50803590602081013590604001356136a1565b34801561144257600080fd5b5061052f6004803603604081101561145957600080fd5b508035906020013561373e565b34801561147257600080fd5b5061056b6004803603602081101561148957600080fd5b810190602081018135600160201b8111156114a357600080fd5b8201836020820111156114b557600080fd5b803590602001918460208302840111600160201b831117156114d657600080fd5b50909250905061375f565b3480156114ed57600080fd5b5061052f6004803603604081101561150457600080fd5b5080359060200135613839565b34801561151d57600080fd5b5061056b6004803603606081101561153457600080fd5b6001600160a01b0382351691602081013591810190606081016040820135600160201b81111561156357600080fd5b82018360208201111561157557600080fd5b803590602001918460018302840111600160201b8311171561159657600080fd5b50909250905061385a565b3480156115ad57600080fd5b5061056b600480360360208110156115c457600080fd5b5035613959565b3480156115d757600080fd5b5061056b600480360360808110156115ee57600080fd5b810190602081018135600160201b81111561160857600080fd5b82018360208201111561161a57600080fd5b803590602001918460208302840111600160201b8311171561163b57600080fd5b919390929091602081019035600160201b81111561165857600080fd5b82018360208201111561166a57600080fd5b803590602001918460208302840111600160201b8311171561168b57600080fd5b919390929091602081019035600160201b8111156116a857600080fd5b8201836020820111156116ba57600080fd5b803590602001918460208302840111600160201b831117156116db57600080fd5b919390929091602081019035600160201b8111156116f857600080fd5b82018360208201111561170a57600080fd5b803590602001918460208302840111600160201b8311171561172b57600080fd5b5090925090506139b3565b34801561174257600080fd5b5061056b6004803603602081101561175957600080fd5b50356001600160a01b0316613b8f565b34801561177557600080fd5b5061052f6004803603604081101561178c57600080fd5b506001600160a01b038135169060200135613bdf565b3480156117ae57600080fd5b5061056b600480360360208110156117c557600080fd5b5035613beb565b609d6020526000908152604090205481565b6117e661366f565b806117f457506117f4612e58565b61182f5760405162461bcd60e51b81526004018080602001828103825260508152602001806162bf6050913960600191505060405180910390fd5b61183881613c45565b50565b60b980549091019055565b3361184f616084565b6118598284613c80565b602081015181519192506000916118759163ffffffff613d7416565b90506118988385611893856040015185613d7490919063ffffffff16565b613dce565b6001600160a01b038316600081815260a760209081526040808320888452825291829020805485019055845185820151868401518451928352928201528083019190915290518692917f4119153d17a36f9597d40e3ab4148d03261a439dddbec4e91799ab7159608e26919081900360600190a350505050565b3361191b616084565b6119258284613c80565b90506000826001600160a01b0316611962836040015161195685602001518660000151613d7490919063ffffffff16565b9063ffffffff613d7416565b604051600081818185875af1925050503d806000811461199e576040519150601f19603f3d011682016040523d82523d6000602084013e6119a3565b606091505b50509050806119ee576040805162461bcd60e51b81526020600482015260126024820152714661696c656420746f2073656e642046544d60701b604482015290519081900360640190fd5b83836001600160a01b03167fc1d8eb6e444b89fb8ff0991c19311c070df704ccb009e210d1462d5b2410bf4584600001518560200151866040015160405180848152602001838152602001828152602001935050505060405180910390a350505050565b60ba805460ff19166001179055565b60b45461016d025b90565b60b354600e0290565b60b8546001600160a01b031681565b6000611a908383613516565b611abe57506001600160a01b038216600090815260a660209081526040808320848452909152902054611b07565b6001600160a01b038316600081815260a76020908152604080832086845282528083205493835260a68252808320868452909152902054611b049163ffffffff613ecb16565b90505b92915050565b60b95481565b60aa5481565b611b2233613f0d565b611b5d5760405162461bcd60e51b81526004018080602001828103825260298152602001806161d56029913960400191505060405180910390fd5b611b68898989613f2c565b6001600160a01b038916600090815260a3602090815260408083208b84529091529020600201819055611b9a87614091565b8515611c6e5786861115611bdf5760405162461bcd60e51b815260040180806020018281038252602c815260200180616381602c913960400191505060405180910390fd5b6001600160a01b038916600081815260a7602090815260408083208c845282528083208a8155600181018a9055600281018990556003810188905584845260a883528184208d855283529281902086905580518781529182018a9052805192938c9390927f138940e95abffcd789b497bf6188bba3afa5fbd22fb5c42c2f6018d1bf0f4e7892908290030190a3505b505050505050505050565b33600081815260a760209081526040808320868452909152812090919083611cd6576040805162461bcd60e51b815260206004820152600b60248201526a1e995c9bc8185b5bdd5b9d60aa1b604482015290519081900360640190fd5b611ce08286613516565b611d21576040805162461bcd60e51b815260206004820152600d60248201526c06e6f74206c6f636b656420757609c1b604482015290519081900360640190fd5b8054841115611d77576040805162461bcd60e51b815260206004820152601760248201527f6e6f7420656e6f756768206c6f636b6564207374616b65000000000000000000604482015290519081900360640190fd5b611d818286614116565b611dcd576040805162461bcd60e51b81526020600482015260186024820152776f75747374616e64696e67207346544d2062616c616e636560401b604482015290519081900360640190fd5b611dd782866141b8565b506000611dea8387878560000154614383565b825486900383559050611dfe8387836144b4565b85836001600160a01b03167fef6c0c14fe9aa51af36acd791464dec3badbde668b63189b47bfa4e25be9b2b98784604051808381526020018281526020019250505060405180910390a395945050505050565b611e5a33613f0d565b611e955760405162461bcd60e51b81526004018080602001828103825260298152602001806161d56029913960400191505060405180910390fd5b80611ed6576040805162461bcd60e51b815260206004820152600c60248201526b77726f6e672073746174757360a01b604482015290519081900360640190fd5b611ee08282614604565b611eeb8260006132bc565b5050565b60a560209081526000938452604080852082529284528284209052825290208054600182015460029092015490919083565b6000611f2b61472e565b60af5402905090565b4260b955565b60006064611f4661472e565b60b1540281611f5157fe5b04905090565b60a15481565b60ac5460ad549091565b611f6f61366f565b80611f7d5750611f7d612e58565b611fb85760405162461bcd60e51b81526004018080602001828103825260508152602001806162bf6050913960600191505060405180910390fd5b6118388161473a565b60ba805460ff19169055565b611fd5612e58565b612014576040805162461bcd60e51b81526020600482018190526024820152600080516020616251833981519152604482015290519081900360640190fd5b600081126120295760aa805482019055611838565b60aa805460008390039003905550565b60ab60205280600052604060002060009150905080600701549080600801549080600901549080600a01549080600b01549080600c01549080600d0154905087565b600054610100900460ff16806120945750612094614775565b806120a2575060005460ff16155b6120dd5760405162461bcd60e51b815260040180806020018281038252602e815260200180616291602e913960400191505060405180910390fd5b600054610100900460ff16158015612108576000805460ff1961ff0019909116610100171660011790555b6121118361477b565b61211b828461485a565b609b869055609a80546001600160a01b0319166001600160a01b03861617905560aa8590556755cfe697852e904c60a9556103e860ac556203f48060ad55612161612a3e565b600087815260ab60205260409020600701558015612185576000805461ff00191690555b505050505050565b61219561366f565b806121a357506121a3612e58565b6121de5760405162461bcd60e51b81526004018080602001828103825260508152602001806162bf6050913960600191505060405180910390fd5b61183881614983565b336121f0616084565b506001600160a01b038116600090815260a5602090815260408083208684528252808320858452825291829020825160608101845281548082526001830154938201939093526002909101549281019290925261228c576040805162461bcd60e51b81526020600482015260156024820152741c995c5d595cdd08191bd95cdb89dd08195e1a5cdd605a1b604482015290519081900360640190fd5b6122968285614116565b6122e2576040805162461bcd60e51b81526020600482015260186024820152776f75747374616e64696e67207346544d2062616c616e636560401b604482015290519081900360640190fd5b60208082015182516000878152609c9093526040909220600101549091901580159061231e57506000868152609c602052604090206001015482115b1561233f5750506000848152609c6020526040902060018101546002909101545b612347613203565b8201612351612a3e565b101561239d576040805162461bcd60e51b81526020600482015260166024820152751b9bdd08195b9bdd59da081d1a5b59481c185cdcd95960521b604482015290519081900360640190fd5b6123a5612b22565b81016123af612cac565b1015612402576040805162461bcd60e51b815260206004820152601860248201527f6e6f7420656e6f7567682065706f636873207061737365640000000000000000604482015290519081900360640190fd5b6001600160a01b038416600090815260a56020908152604080832089845282528083208884529091528120600201549061243b88613281565b9050600061245d838360b760008d8152602001908152602001600020546149be565b6001600160a01b038816600090815260a5602090815260408083208d845282528083208c84529091528120818155600181018290556002015560a280548201905590508083116124ed576040805162461bcd60e51b81526020600482015260166024820152751cdd185ad9481a5cc8199d5b1b1e481cdb185cda195960521b604482015290519081900360640190fd5b60006001600160a01b038816612509858463ffffffff613ecb16565b604051600081818185875af1925050503d8060008114612545576040519150601f19603f3d011682016040523d82523d6000602084013e61254a565b606091505b5050905080612595576040805162461bcd60e51b81526020600482015260126024820152714661696c656420746f2073656e642046544d60701b604482015290519081900360640190fd5b888a896001600160a01b03167f75e161b3e824b114fc1a33274bd7091918dd4e639cede50b78b15a4eea956a21876040518082815260200191505060405180910390a450505050505050505050565b6125ec612e58565b61262b576040805162461bcd60e51b81526020600482018190526024820152600080516020616251833981519152604482015290519081900360640190fd5b61263482613281565b612685576040805162461bcd60e51b815260206004820152601760248201527f76616c696461746f722069736e277420736c6173686564000000000000000000604482015290519081900360640190fd5b61268d61472e565b8111156126cb5760405162461bcd60e51b815260040180806020018281038252602181526020018061630f6021913960400191505060405180910390fd5b600082815260b760209081526040918290208390558151838152915184927f047575f43f09a7a093d94ec483064acfc61b7e25c0de28017da442abf99cb91792908290030190a25050565b3361272181856141b8565b5060008211612765576040805162461bcd60e51b815260206004820152600b60248201526a1e995c9bc8185b5bdd5b9d60aa1b604482015290519081900360640190fd5b61276f8185611a84565b8211156127c3576040805162461bcd60e51b815260206004820152601960248201527f6e6f7420656e6f75676820756e6c6f636b6564207374616b6500000000000000604482015290519081900360640190fd5b6127cd8185614116565b612819576040805162461bcd60e51b81526020600482015260186024820152776f75747374616e64696e67207346544d2062616c616e636560401b604482015290519081900360640190fd5b6001600160a01b038116600090815260a560209081526040808320878452825280832086845290915290206002015415612890576040805162461bcd60e51b81526020600482015260136024820152727772494420616c72656164792065786973747360681b604482015290519081900360640190fd5b61289b8185846144b4565b6001600160a01b038116600090815260a560209081526040808320878452825280832086845290915290206002018290556128d4612cac565b6001600160a01b038216600090815260a5602090815260408083208884528252808320878452909152902055612908612a3e565b6001600160a01b038216600090815260a56020908152604080832088845282528083208784529091528120600101919091556129459085906132bc565b8284826001600160a01b03167fd3bb4e423fbea695d16b982f9f682dc5f35152e5411646a8a5a79a6b02ba8d57856040518082815260200191505060405180910390a450505050565b61299733613f0d565b6129d25760405162461bcd60e51b81526004018080602001828103825260298152602001806161d56029913960400191505060405180910390fd5b612a1a898989898080601f0160208091040260200160405190810160405280939291908181526020018383808284376000920191909152508b92508a91508990508888614a20565b609f54881115611c6e57609f889055505050505050505050565b6219981960e91b90565b60b95490565b6000818152609c60209081526040808320600601546001600160a01b0316835260a682528083208484529091529020545b919050565b600091825260ab6020908152604080842092845291905290205490565b6066546001600160a01b031690565b60006064612ab261472e565b60b2540281611f5157fe5b60a25481565b6000612acd616084565b612ad78484614bcf565b805160208201516040830151929350612af9926119569163ffffffff613d7416565b949350505050565b600091825260ab602090815260408084209284526001909201905290205490565b60b55490565b6000612b348383613516565b612b4057506000611b07565b506001600160a01b0391909116600090815260a760209081526040808320938352929052205490565b612b7161366f565b80612b7f5750612b7f612e58565b612bba5760405162461bcd60e51b81526004018080602001828103825260508152602001806162bf6050913960600191505060405180910390fd5b61183881614c3d565b6000612bcd616084565b506001600160a01b038316600090815260a36020908152604080832085845282529182902082516060810184528154808252600183015493820184905260029092015493810184905292612af9929091611956919063ffffffff613d7416565b612c35612e58565b612c74576040805162461bcd60e51b81526020600482018190526024820152600080516020616251833981519152604482015290519081900360640190fd5b6033546040516000916001600160a01b031690600080516020616271833981519152908390a3603380546001600160a01b0319169055565b609b5460010190565b609b5481565b609e6020908152600091825260409182902080548351601f600260001961010060018616150201909316929092049182018490048402810184019094528084529091830182828015612d4e5780601f10612d2357610100808354040283529160200191612d4e565b820191906000526020600020905b815481529060010190602001808311612d3157829003601f168201915b505050505081565b6000612d60614c78565b905090565b60a05481565b612d73612e58565b612db2576040805162461bcd60e51b81526020600482018190526024820152600080516020616251833981519152604482015290519081900360640190fd5b60ad81905560ac829055604080518381526020810183905281517f702756a07c05d0bbfd06fc17b67951a5f4deb7bb6b088407e68a58969daf2a34929181900390910190a15050565b612e0582826141b8565b611eeb576040805162461bcd60e51b815260206004820152601060248201526f0dcdee8d0d2dcce40e8de40e6e8c2e6d60831b604482015290519081900360640190fd5b6067546001600160a01b031690565b6067546001600160a01b0316331490565b60a760209081526000928352604080842090915290825290208054600182015460028301546003909301549192909184565b611838338234613dce565b600091825260ab602090815260408084209284526005909201905290205490565b612ecf612e58565b612f0e576040805162461bcd60e51b81526020600482018190526024820152600080516020616251833981519152604482015290519081900360640190fd5b60b880546001600160a01b0319166001600160a01b0392909216919091179055565b612f38613298565b341015612f86576040805162461bcd60e51b8152602060048201526017602482015276696e73756666696369656e742073656c662d7374616b6560481b604482015290519081900360640190fd5b8015801590612f96575060418111155b612fd6576040805162461bcd60e51b815260206004820152600c60248201526b656d707479207075626b657960a01b604482015290519081900360640190fd5b6130163383838080601f016020809104026020016040519081016040528093929190818152602001838380828437600092019190915250614c7c92505050565b611eeb33609f5434613dce565b6000606461302f61472e565b60b0540281611f5157fe5b60a460209081526000928352604080842090915290825290205481565b61305f61366f565b8061306d575061306d612e58565b6130a85760405162461bcd60e51b81526004018080602001828103825260508152602001806162bf6050913960600191505060405180910390fd5b61183881614ca7565b609c60205260009081526040902080546001820154600283015460038401546004850154600586015460069096015494959394929391929091906001600160a01b031687565b6130ff612e58565b61313e576040805162461bcd60e51b81526020600482018190526024820152600080516020616251833981519152604482015290519081900360640190fd5b6801c985c8903591eb2081111561319c576040805162461bcd60e51b815260206004820152601b60248201527f746f6f206c617267652072657761726420706572207365636f6e640000000000604482015290519081900360640190fd5b60a98190556040805182815290517f8cd9dae1bbea2bc8a5e80ffce2c224727a25925130a03ae100619a8861ae23969181900360200190a150565b60a860209081526000928352604080842090915290825290208054600182015460029092015490919083565b60b65490565b600081815260ab602090815260409182902060060180548351818402810184019094528084526060939283018282801561326257602002820191906000526020600020905b81548152602001906001019080831161324e575b50505050509050919050565b3361327b81858585614ce2565b50505050565b6000908152609c6020526040902054608016151590565b670467fc915c2fc00090565b60b76020526000908152604090205481565b609f5481565b6132c582614f94565b613310576040805162461bcd60e51b81526020600482015260176024820152761d985b1a59185d1bdc88191bd95cdb89dd08195e1a5cdd604a1b604482015290519081900360640190fd5b6000828152609c60205260409020600381015490541561332e575060005b609a546040805163520337df60e11b8152600481018690526024810184905290516001600160a01b039092169163a4066fbe9160448082019260009290919082900301818387803b15801561338257600080fd5b505af1158015613396573d6000803e3d6000fd5b505050508180156133a657508015155b1561349a57609a546000848152609e602052604090819020815163242a6e3f60e01b81526004810187815260248201938452825460026000196001831615610100020190911604604483018190526001600160a01b039095169463242a6e3f948994939091606490910190849080156134605780601f1061343557610100808354040283529160200191613460565b820191906000526020600020905b81548152906001019060200180831161344357829003601f168201915b50509350505050600060405180830381600087803b15801561348157600080fd5b505af1158015613495573d6000803e3d6000fd5b505050505b505050565b6134a761366f565b806134b557506134b5612e58565b6134f05760405162461bcd60e51b81526004018080602001828103825260508152602001806162bf6050913960600191505060405180910390fd5b61183881614fab565b60a660209081526000928352604080842090915290825290205481565b6001600160a01b038216600090815260a7602090815260408083208484529091528120600201541580159061356d57506001600160a01b038316600090815260a76020908152604080832085845290915290205415155b8015611b0457506001600160a01b038316600090815260a7602090815260408083208584529091529020600201546135a3612a3e565b11159392505050565b6135b461366f565b806135c257506135c2612e58565b6135fd5760405162461bcd60e51b81526004018080602001828103825260508152602001806162bf6050913960600191505060405180910390fd5b61183881614fe6565b60ba5460ff1681565b61361761366f565b806136255750613625612e58565b6136605760405162461bcd60e51b81526004018080602001828103825260508152602001806162bf6050913960600191505060405180910390fd5b61183881615087565b60a95481565b6066546001600160a01b0316331490565b600091825260ab602090815260408084209284526003909201905290205490565b33816136e2576040805162461bcd60e51b815260206004820152600b60248201526a1e995c9bc8185b5bdd5b9d60aa1b604482015290519081900360640190fd5b6136ec8185613516565b15613732576040805162461bcd60e51b81526020600482015260116024820152700616c7265616479206c6f636b656420757607c1b604482015290519081900360640190fd5b61327b81858585614ce2565b600091825260ab602090815260408084209284526002909201905290205490565b61376833613f0d565b6137a35760405162461bcd60e51b81526004018080602001828103825260298152602001806161d56029913960400191505060405180910390fd5b600060ab60006137b1612cac565b8152602001908152602001600020905060008090505b8281101561382a5760008484838181106137dd57fe5b602090810292909201356000818152609c8452604080822060030154948890529020839055600c86015490935061381b91508263ffffffff613d7416565b600c85015550506001016137c7565b5061327b6006820184846160a5565b600091825260ab602090815260408084209284526004909201905290205490565b613862612e58565b6138a1576040805162461bcd60e51b81526020600482018190526024820152600080516020616251833981519152604482015290519081900360640190fd5b6138aa83614091565b6040516001600160a01b0385169084156108fc029085906000818181858888f193505050501580156138e0573d6000803e3d6000fd5b50836001600160a01b03167f9eec469b348bcf64bbfb60e46ce7b160e2e09bf5421496a2cdbc43714c28b8ad84848460405180848152602001806020018281038252848482818152602001925080828437600083820152604051601f909101601f1916909201829003965090945050505050a250505050565b61396161366f565b8061396f575061396f612e58565b6139aa5760405162461bcd60e51b81526004018080602001828103825260508152602001806162bf6050913960600191505060405180910390fd5b611838816150c2565b6139bc33613f0d565b6139f75760405162461bcd60e51b81526004018080602001828103825260298152602001806161d56029913960400191505060405180910390fd5b600060ab6000613a05612cac565b81526020019081526020016000209050606081600601805480602002602001604051908101604052809291908181526020018280548015613a6557602002820191906000526020600020905b815481526020019060010190808311613a51575b50505050509050613aec82828c8c80806020026020016040519081016040528093929190818152602001838360200280828437600081840152601f19601f820116905080830192505050505050508b8b808060200260200160405190810160405280939291908181526020018383602002808284376000920191909152506150fd92505050565b613b5b828288888080602002602001604051908101604052809392919081815260200183836020028082843760009201919091525050604080516020808c0282810182019093528b82529093508b92508a91829185019084908082843760009201919091525061521392505050565b613b63612cac565b609b55613b6e612a3e565b60078301555060a954600b82015560aa54600d909101555050505050505050565b613b97612e58565b613bd6576040805162461bcd60e51b81526020600482018190526024820152600080516020616251833981519152604482015290519081900360640190fd5b61183881615859565b6000611b0483836158e8565b613bf361366f565b80613c015750613c01612e58565b613c3c5760405162461bcd60e51b81526004018080602001828103825260508152602001806162bf6050913960600191505060405180910390fd5b611838816159a7565b60af8190556040805182815290517fd3b49810855efc7d611424cd0a8cc519b92cf2e97bd3516921dff1a19b101e359181900360200190a150565b613c88616084565b613c9283836141b8565b50506001600160a01b038216600090815260a36020908152604080832084845282528083208151606081018352815480825260018301549482018590526002909201549281018390529392613cf0926119569163ffffffff613d7416565b905080613d33576040805162461bcd60e51b815260206004820152600c60248201526b7a65726f207265776172647360a01b604482015290519081900360640190fd5b6001600160a01b038416600090815260a36020908152604080832086845290915281208181556001810182905560020155613d6d81614091565b5092915050565b600082820183811015611b04576040805162461bcd60e51b815260206004820152601b60248201527f536166654d6174683a206164646974696f6e206f766572666c6f770000000000604482015290519081900360640190fd5b613dd782614f94565b613e22576040805162461bcd60e51b81526020600482015260176024820152761d985b1a59185d1bdc88191bd95cdb89dd08195e1a5cdd604a1b604482015290519081900360640190fd5b6000828152609c602052604090205415613e7c576040805162461bcd60e51b815260206004820152601660248201527576616c696461746f722069736e27742061637469766560501b604482015290519081900360640190fd5b613e87838383613f2c565b613e90826159e2565b61349a5760405162461bcd60e51b81526004018080602001828103825260298152602001806163586029913960400191505060405180910390fd5b6000611b0483836040518060400160405280601e81526020017f536166654d6174683a207375627472616374696f6e206f766572666c6f770000815250615a2a565b60ba5460009060ff1615613f2357506001612a75565b611b0782615ac1565b60008111613f6f576040805162461bcd60e51b815260206004820152600b60248201526a1e995c9bc8185b5bdd5b9d60aa1b604482015290519081900360640190fd5b613f7983836141b8565b506001600160a01b038316600090815260a660209081526040808320858452909152902054613fae908263ffffffff613d7416565b6001600160a01b038416600090815260a660209081526040808320868452825280832093909355609c90522060030154613fee818363ffffffff613d7416565b6000848152609c602052604090206003015560a054614013908363ffffffff613d7416565b60a0556000838152609c60205260409020546140405760a15461403c908363ffffffff613d7416565b60a1555b61404b8382156132bc565b60408051838152905184916001600160a01b038716917f9a8f44850296624dadfd9c246d17e47171d35727a181bd090aa14bbbe00238bb9181900360200190a350505050565b609a54604080516366e7ea0f60e01b81523060048201526024810184905290516001600160a01b03909216916366e7ea0f9160448082019260009290919082900301818387803b1580156140e457600080fd5b505af11580156140f8573d6000803e3d6000fd5b505060aa54614110925090508263ffffffff613d7416565b60aa5550565b60b8546000906001600160a01b031661413157506001611b07565b60b854604080516321d585c360e01b81526001600160a01b03868116600483015260248201869052915191909216916321d585c3916044808301926020929190829003018186803b15801561418557600080fd5b505afa158015614199573d6000803e3d6000fd5b505050506040513d60208110156141af57600080fd5b50519392505050565b60006141c2616084565b6141cc8484615ad5565b90506141d783615c0d565b6001600160a01b038516600081815260a46020908152604080832088845282528083209490945591815260a382528281208682528252829020825160608101845281548152600182015492810192909252600201549181019190915261423d9082615c68565b6001600160a01b038516600081815260a360209081526040808320888452825280832085518155858301516001808301919091559582015160029182015593835260a88252808320888452825291829020825160608101845281548152948101549185019190915290910154908201526142b79082615c68565b6001600160a01b038516600090815260a860209081526040808320878452825291829020835181559083015160018201559101516002909101556142fb8484613516565b61435e576001600160a01b038416600081815260a760209081526040808320878452825280832083815560018082018590556002808301869055600390920185905594845260a88352818420888552909252822082815592830182905591909101555b60208101511515806143705750805115155b80612af957506040015115159392505050565b6001600160a01b038416600090815260a86020908152604080832086845290915281205481906143cb9084906143bf908763ffffffff615cda16565b9063ffffffff615d3316565b6001600160a01b038716600090815260a8602090815260408083208984529091528120600101549192509061440c9085906143bf908863ffffffff615cda16565b6001600160a01b038816600090815260a8602090815260408083208a8452909152902054909150600282048301906144449084613ecb565b6001600160a01b038916600090815260a8602090815260408083208b84529091529020908155600101546144789083613ecb565b6001600160a01b038916600090815260a8602090815260408083208b84529091529020600101558581106144a95750845b979650505050505050565b6001600160a01b038316600090815260a660209081526040808320858452825280832080548590039055609c9091529020600301546144f9908263ffffffff613ecb16565b6000838152609c602052604090206003015560a05461451e908263ffffffff613ecb16565b60a0556000828152609c602052604090205461454b5760a154614547908263ffffffff613ecb16565b60a1555b600061455683612a44565b905080156145fd57614566613298565b8110156145b4576040805162461bcd60e51b8152602060048201526017602482015276696e73756666696369656e742073656c662d7374616b6560481b604482015290519081900360640190fd5b6145bd836159e2565b6145f85760405162461bcd60e51b81526004018080602001828103825260298152602001806163586029913960400191505060405180910390fd5b61327b565b61327b8360015b6000828152609c602052604090205415801561461f57508015155b1561464c576000828152609c602052604090206003015460a1546146489163ffffffff613ecb16565b60a1555b6000828152609c6020526040902054811115611eeb576000828152609c60205260409020818155600201546146f457614683612cac565b6000838152609c602052604090206002015561469d612a3e565b6000838152609c60209081526040918290206001810184905560020154825190815290810192909252805184927fac4801c32a6067ff757446524ee4e7a373797278ac3c883eac5c693b4ad72e4792908290030190a25b60408051828152905183917fcd35267e7654194727477d6c78b541a553483cff7f92a055d17868d3da6e953e919081900360200190a25050565b670de0b6b3a764000090565b60b08190556040805182815290517f969e21e21af49053b3bfee796b627ebc26e10328889e90a47da2f1205d3e8f139181900360200190a150565b303b1590565b600054610100900460ff16806147945750614794614775565b806147a2575060005460ff16155b6147dd5760405162461bcd60e51b815260040180806020018281038252602e815260200180616291602e913960400191505060405180910390fd5b600054610100900460ff16158015614808576000805460ff1961ff0019909116610100171660011790555b603380546001600160a01b0319166001600160a01b038481169190911791829055604051911690600090600080516020616271833981519152908290a38015611eeb576000805461ff00191690555050565b600054610100900460ff16806148735750614873614775565b80614881575060005460ff16155b6148bc5760405162461bcd60e51b815260040180806020018281038252602e815260200180616291602e913960400191505060405180910390fd5b600054610100900460ff161580156148e7576000805460ff1961ff0019909116610100171660011790555b606680546001600160a01b038086166001600160a01b03199283161792839055606780548683169316929092179091556040519116906000907f5f56bee8cffbe9a78652a74a60705edede02af10b0bbb888ca44b79a0d42ce80908290a36067546040516001600160a01b0390911690600090600080516020616271833981519152908290a3801561349a576000805461ff0019169055505050565b60b38190556040805182815290517f31d33f23d1e7fe45f7e898c070587ff0f2f519674e5e2a12f90b3a17c77f6ad19181900360200190a150565b60008215806149d457506149d061472e565b8210155b156149e157506000614a19565b614a0c60016119566149f161472e565b6143bf866149fd61472e565b8a91900363ffffffff615cda16565b905083811115614a195750825b9392505050565b6001600160a01b0388166000908152609d602052604090205415614a8b576040805162461bcd60e51b815260206004820152601860248201527f76616c696461746f7220616c7265616479206578697374730000000000000000604482015290519081900360640190fd5b6001600160a01b0388166000818152609d602090815260408083208b90558a8352609c82528083208981556004810189905560058101889055600181018690556002810187905560060180546001600160a01b031916909417909355609e81529190208751614afc928901906160f0565b50876001600160a01b0316877f49bca1ed2666922f9f1690c26a569e1299c2a715fe57647d77e81adfabbf25bf8686604051808381526020018281526020019250505060405180910390a38115614b88576040805183815260208101839052815189927fac4801c32a6067ff757446524ee4e7a373797278ac3c883eac5c693b4ad72e47928290030190a25b8415614bc55760408051868152905188917fcd35267e7654194727477d6c78b541a553483cff7f92a055d17868d3da6e953e919081900360200190a25b5050505050505050565b614bd7616084565b614bdf616084565b614be98484615ad5565b6001600160a01b038516600090815260a3602090815260408083208784528252918290208251606081018452815481526001820154928101929092526002015491810191909152909150612af99082615c68565b60b58190556040805182815290517f2f273767369d76e1ecbee32ed26135f390df620f085feb7a6f2e3dd51985bd5f9181900360200190a150565b4290565b609f80546001019081905561349a8382846000614c97612cac565b614c9f612a3e565b600080614a20565b60b18190556040805182815290517f12420e865335c7cfb225296eb0adaca14bfb1de93b3731ed1e0434746a4d91249181900360200190a150565b614cec8484611a84565b811115614d33576040805162461bcd60e51b815260206004820152601060248201526f6e6f7420656e6f756768207374616b6560801b604482015290519081900360640190fd5b6000838152609c602052604090205415614d8d576040805162461bcd60e51b815260206004820152601660248201527576616c696461746f722069736e27742061637469766560501b604482015290519081900360640190fd5b614d95611a6c565b8210158015614dab5750614da7611a61565b8211155b614df1576040805162461bcd60e51b815260206004820152601260248201527134b731b7b93932b1ba10323ab930ba34b7b760711b604482015290519081900360640190fd5b6000614dff83611956612a3e565b6000858152609c60205260409020600601549091506001600160a01b039081169086168114614e8d576001600160a01b038116600090815260a760209081526040808320888452909152902060020154821115614e8d5760405162461bcd60e51b81526004018080602001828103825260288152602001806163306028913960400191505060405180910390fd5b614e9786866141b8565b506001600160a01b038616600090815260a76020908152604080832088845290915290206003810154851015614f14576040805162461bcd60e51b815260206004820152601f60248201527f6c6f636b7570206475726174696f6e2063616e6e6f7420646563726561736500604482015290519081900360640190fd5b8054614f26908563ffffffff613d7416565b8155614f30612cac565b600182015560028101839055600381018590556040805186815260208101869052815188926001600160a01b038b16927f138940e95abffcd789b497bf6188bba3afa5fbd22fb5c42c2f6018d1bf0f4e78929081900390910190a350505050505050565b6000908152609c6020526040902060050154151590565b60b28190556040805182815290517fcda2f8a6b9050afa9ac1f8d6ff9a123894f76a5530c6c29636332c995a1f97159181900360200190a150565b6001600160a01b03811661502b5760405162461bcd60e51b81526004018080602001828103825260328152602001806161fe6032913960400191505060405180910390fd5b6066546040516001600160a01b038084169216907f5f56bee8cffbe9a78652a74a60705edede02af10b0bbb888ca44b79a0d42ce8090600090a3606680546001600160a01b0319166001600160a01b0392909216919091179055565b60ae8190556040805182815290517fe9a0db1369c39eb7fc2ed3d7e122f9ee60952b075329b1e84bce8843367210f49181900360200190a150565b60b68190556040805182815290517f9e85e6207a28e085f027a9b979cad850f4c36a581dd42c119e856c04b92d96119181900360200190a150565b60005b835181101561520c5760ac5482828151811061511857fe5b6020026020010151118015615142575060ad5483828151811061513757fe5b602002602001015110155b156151835761516584828151811061515657fe5b60200260200101516008614604565b61518384828151811061517457fe5b602002602001015160006132bc565b82818151811061518f57fe5b60200260200101518560040160008684815181106151a957fe5b60200260200101518152602001908152602001600020819055508181815181106151cf57fe5b60200260200101518560050160008684815181106151e957fe5b602090810291909101810151825281019190915260400160002055600101615100565b5050505050565b61521b61615e565b6040518060c001604052808551604051908082528060200260200182016040528015615251578160200160208202803883390190505b508152602001600081526020018551604051908082528060200260200182016040528015615289578160200160208202803883390190505b508152602001600081526020016000815260200160008152509050600060ab60006152c360016152b7612cac565b9063ffffffff613ecb16565b815260208101919091526040016000206001608084015260078101549091506152ea612a3e565b11156153045780600701546152fd612a3e565b0360808301525b60005b855181101561540c57600082600301600088848151811061532457fe5b6020026020010151815260200190815260200160002054905060008090508186848151811061534f57fe5b60200260200101511115615376578186848151811061536a57fe5b60200260200101510390505b846080015187848151811061538757fe5b602002602001015182028161539857fe5b04856040015184815181106153a957fe5b6020026020010181815250506153e3856040015184815181106153c857fe5b60200260200101518660600151613d7490919063ffffffff16565b606086015260a08501516153fd908263ffffffff613d7416565b60a08601525050600101615307565b5060005b85518110156154dd57826080015185828151811061542a57fe5b6020026020010151846080015187848151811061544357fe5b60200260200101518a60000160008b878151811061545d57fe5b6020026020010151815260200190815260200160002054028161547c57fe5b04028161548557fe5b048360000151828151811061549657fe5b6020026020010181815250506154d0836000015182815181106154b557fe5b60200260200101518460200151613d7490919063ffffffff16565b6020840152600101615410565b5060005b8551811015615831576000615519846080015160a9548660000151858151811061550757fe5b60200260200101518760200151615d75565b90506155556155488560a001518660400151858151811061553657fe5b60200260200101518760600151615db6565b829063ffffffff613d7416565b9050600087838151811061556557fe5b6020908102919091018101516000818152609c90925260408220600601549092506001600160a01b0316906155a18461559c613023565b615e13565b6001600160a01b038316600090815260a6602090815260408083208784529091529020549091508015615748576000816155db8587612b28565b8402816155e457fe5b0490508083036155f2616084565b6001600160a01b038616600090815260a7602090815260408083208a8452909152902060030154615624908490615e30565b905061562e616084565b615639836000615e30565b6001600160a01b038816600090815260a3602090815260408083208c8452825291829020825160608101845281548152600182015492810192909252600201549181019190915290915061568e908383615f21565b6001600160a01b038816600081815260a3602090815260408083208d8452825280832085518155858301516001808301919091559582015160029182015593835260a882528083208d845282529182902082516060810184528154815294810154918501919091529091015490820152615709908383615f21565b6001600160a01b038816600090815260a8602090815260408083208c845282529182902083518155908301516001820155910151600290910155505050505b6000848152609c602052604081206003015483870391811561577a578161576d61472e565b84028161577657fe5b0490505b808a600101600089815260200190815260200160002054018f6001016000898152602001908152602001600020819055508b89815181106157b757fe5b60200260200101518f6003016000898152602001908152602001600020819055508c89815181106157e457fe5b60200260200101518a600201600089815260200190815260200160002054018f600201600089815260200190815260200160002081905550505050505050505080806001019150506154e1565b505060a081015160088601556020810151600986015560600151600a90940193909355505050565b6001600160a01b03811661589e5760405162461bcd60e51b81526004018080602001828103825260268152602001806161af6026913960400191505060405180910390fd5b6067546040516001600160a01b0380841692169060008051602061627183398151915290600090a3606780546001600160a01b0319166001600160a01b0392909216919091179055565b6001600160a01b038216600090815260a760209081526040808320848452909152812060010154609b5461591d858583615f3c565b1561592b579150611b079050565b615936858584615f3c565b61594557600092505050611b07565b8082111561595857600092505050611b07565b8082101561598b57600281830104615971868683615f3c565b1561598157806001019250615985565b8091505b50615958565b8061599b57600092505050611b07565b60001901949350505050565b60b48190556040805182815290517fd830c33dec392daf6dfeac9834107217392396bc333bcbb92e6c1c1a5e8726319181900360200190a150565b6000615a0f6159ef61472e565b6143bf6159fa611f21565b615a0386612a44565b9063ffffffff615cda16565b6000838152609c602052604090206003015411159050919050565b60008184841115615ab95760405162461bcd60e51b81526004018080602001828103825283818151815260200191508051906020019080838360005b83811015615a7e578181015183820152602001615a66565b50505050905090810190601f168015615aab5780820380516001836020036101000a031916815260200191505b509250505060405180910390fd5b505050900390565b609a546001600160a01b0390811691161490565b615add616084565b6001600160a01b038316600090815260a46020908152604080832085845290915281205490615b0b84615c0d565b90506000615b1986866158e8565b905081811115615b265750805b82811015615b315750815b6001600160a01b038616600081815260a760209081526040808320898452825280832093835260a682528083208984529091528120548254909190615b7d90839063ffffffff613ecb16565b90506000615b9184600001548a8988615fa7565b9050615b9b616084565b615ba9828660030154615e30565b9050615bb7838b8a89615fa7565b9150615bc1616084565b615bcc836000615e30565b9050615bda858c898b615fa7565b9250615be4616084565b615bef846000615e30565b9050615bfc838383615f21565b9d9c50505050505050505050505050565b6000818152609c602052604081206002015415615c60576000828152609c6020526040902060020154609b541015615c485750609b54612a75565b506000818152609c6020526040902060020154612a75565b5050609b5490565b615c70616084565b6040805160608101909152825184518291615c91919063ffffffff613d7416565b8152602001615cb184602001518660200151613d7490919063ffffffff16565b8152602001615cd184604001518660400151613d7490919063ffffffff16565b90529392505050565b600082615ce957506000611b07565b82820282848281615cf657fe5b0414611b045760405162461bcd60e51b81526004018080602001828103825260218152602001806162306021913960400191505060405180910390fd5b6000611b0483836040518060400160405280601a81526020017f536166654d6174683a206469766973696f6e206279207a65726f00000000000081525061600a565b600082615d8457506000612af9565b6000615d96868663ffffffff615cda16565b9050615dac836143bf838763ffffffff615cda16565b9695505050505050565b600082615dc557506000614a19565b6000615ddb836143bf878763ffffffff615cda16565b9050615e0a615de861472e565b6143bf615df3611f3a565b615dfb61472e565b8591900363ffffffff615cda16565b95945050505050565b6000611b04615e2061472e565b6143bf858563ffffffff615cda16565b615e38616084565b604051806060016040528060008152602001600081526020016000815250905081600014615ef3576000615e6a612aa6565b615e7261472e565b0390506000615e92615e82611a61565b6143bf848763ffffffff615cda16565b90506000615ebb615ea161472e565b6143bf84615ead612aa6565b8a910163ffffffff615cda16565b9050615ee0615ec861472e565b6143bf615ed3612aa6565b899063ffffffff615cda16565b602085018190529003835250611b079050565b615f16615efe61472e565b6143bf615f09612aa6565b869063ffffffff615cda16565b604082015292915050565b615f29616084565b612af9615f368585615c68565b83615c68565b6001600160a01b038316600090815260a7602090815260408083208584529091528120600101548210801590612af957506001600160a01b038416600090815260a760209081526040808320868452909152902060020154615f9d8361606f565b1115949350505050565b6000818310615fb857506000612af9565b600083815260ab60208181526040808420888552600190810183528185205487865293835281852089865201909152909120546144a9615ff661472e565b6143bf89615a03858763ffffffff613ecb16565b600081836160595760405162461bcd60e51b8152602060048201818152835160248401528351909283926044909101919085019080838360008315615a7e578181015183820152602001615a66565b50600083858161606557fe5b0495945050505050565b600090815260ab602052604090206007015490565b60405180606001604052806000815260200160008152602001600081525090565b8280548282559060005260206000209081019282156160e0579160200282015b828111156160e05782358255916020019190600101906160c5565b506160ec929150616194565b5090565b828054600181600116156101000203166002900490600052602060002090601f016020900481019282601f1061613157805160ff19168380011785556160e0565b828001600101855582156160e0579182015b828111156160e0578251825591602001919060010190616143565b6040518060c001604052806060815260200160008152602001606081526020016000815260200160008152602001600081525090565b611a6991905b808211156160ec576000815560010161619a56fe4f776e61626c653a206e6577206f776e657220697320746865207a65726f206164647265737363616c6c6572206973206e6f7420746865204e6f64654472697665724175746820636f6e7472616374476f7665726e616e6365526f6c653a206e657720676f7665726e616e636520697320746865207a65726f2061646472657373536166654d6174683a206d756c7469706c69636174696f6e206f766572666c6f774f776e61626c653a2063616c6c6572206973206e6f7420746865206f776e65728be0079c531659141344cd1fd0a4f28419497f9722a3daafe3b4186f6b6457e0436f6e747261637420696e7374616e63652068617320616c7265616479206265656e20696e697469616c697a6564476f7665726e616e6365526f6c653a20746869732066756e6374696f6e20697320636f6e74726f6c6c656420627920746865206f776e657220616e6420676f7665726e616e636520636f6e74726163746d757374206265206c657373207468616e206f7220657175616c20746f20312e3076616c696461746f72206c6f636b757020706572696f642077696c6c20656e64206561726c69657276616c696461746f7227732064656c65676174696f6e73206c696d69742069732065786365656465646c6f636b6564207374616b652069732067726561746572207468616e207468652077686f6c65207374616b65a265627a7a7231582034e626b412d4f2ecdab4ff818eaf32164c2573b229a3d73d17e6c3fdf4eecaed64736f6c63430005110032",
  "linkReferences": {},
  "deployedLinkReferences": {}
}