{
  "_format": "hh-sol-artifact-1",
  "contractName": "UnitTestSFC",
  "sourceName": "contracts/test/UnitTestSFC.sol",
  "abi": [
    {
      "anonymous": false,
      "inputs": [
        {
          "indexed": true,
          "internalType": "uint256",
          "name": "validatorID",
          "type": "uint256"
        },
        {
          "indexed": false,
          "internalType": "uint256",
          "name": "status",
          "type": "uint256"
        }
      ],
      "name": "ChangedValidatorStatus",
      "type": "event"
    },
    {
      "anonymous": false,
      "inputs": [
        {
          "indexed": true,
          "internalType": "address",
          "name": "delegator",
          "type": "address"
        },
        {
          "indexed": true,
          "internalType": "uint256",
          "name": "toValidatorID",
          "type": "uint256"
        },
        {
          "indexed": false,
          "internalType": "uint256",
          "name": "lockupExtraReward",
          "type": "uint256"
        },
        {
          "indexed": false,
          "internalType": "uint256",
          "name": "lockupBaseReward",
          "type": "uint256"
        },
        {
          "indexed": false,
          "internalType": "uint256",
          "name": "unlockedReward",
          "type": "uint256"
        }
      ],
      "name": "ClaimedRewards",
      "type": "event"
    },
    {
      "anonymous": false,
      "inputs": [
        {
          "indexed": true,
          "internalType": "uint256",
          "name": "validatorID",
          "type": "uint256"
        },
        {
          "indexed": true,
          "internalType": "address",
          "name": "auth",
          "type": "address"
        },
        {
          "indexed": false,
          "internalType": "uint256",
          "name": "createdEpoch",
          "type": "uint256"
        },
        {
          "indexed": false,
          "internalType": "uint256",
          "name": "createdTime",
          "type": "uint256"
        }
      ],
      "name": "CreatedValidator",
      "type": "event"
    },
    {
      "anonymous": false,
      "inputs": [
        {
          "indexed": true,
          "internalType": "uint256",
          "name": "validatorID",
          "type": "uint256"
        },
        {
          "indexed": false,
          "internalType": "uint256",
          "name": "deactivatedEpoch",
          "type": "uint256"
        },
        {
          "indexed": false,
          "internalType": "uint256",
          "name": "deactivatedTime",
          "type": "uint256"
        }
      ],
      "name": "DeactivatedValidator",
      "type": "event"
    },
    {
      "anonymous": false,
      "inputs": [
        {
          "indexed": true,
          "internalType": "address",
          "name": "delegator",
          "type": "address"
        },
        {
          "indexed": true,
          "internalType": "uint256",
          "name": "toValidatorID",
          "type": "uint256"
        },
        {
          "indexed": false,
          "internalType": "uint256",
          "name": "amount",
          "type": "uint256"
        }
      ],
      "name": "Delegated",
      "type": "event"
    },
    {
      "anonymous": false,
      "inputs": [
        {
          "indexed": true,
          "internalType": "address",
          "name": "previousAddress",
          "type": "address"
        },
        {
          "indexed": true,
          "internalType": "address",
          "name": "newAddress",
          "type": "address"
        }
      ],
      "name": "GovernanceUpdated",
      "type": "event"
    },
    {
      "anonymous": false,
      "inputs": [
        {
          "indexed": true,
          "internalType": "address",
          "name": "receiver",
          "type": "address"
        },
        {
          "indexed": false,
          "internalType": "uint256",
          "name": "amount",
          "type": "uint256"
        },
        {
          "indexed": false,
          "internalType": "string",
          "name": "justification",
          "type": "string"
        }
      ],
      "name": "InflatedFTM",
      "type": "event"
    },
    {
      "anonymous": false,
      "inputs": [
        {
          "indexed": true,
          "internalType": "address",
          "name": "delegator",
          "type": "address"
        },
        {
          "indexed": true,
          "internalType": "uint256",
          "name": "validatorID",
          "type": "uint256"
        },
        {
          "indexed": false,
          "internalType": "uint256",
          "name": "duration",
          "type": "uint256"
        },
        {
          "indexed": false,
          "internalType": "uint256",
          "name": "amount",
          "type": "uint256"
        }
      ],
      "name": "LockedUpStake",
      "type": "event"
    },
    {
      "anonymous": false,
      "inputs": [
        {
          "indexed": true,
          "internalType": "address",
          "name": "previousOwner",
          "type": "address"
        },
        {
          "indexed": true,
          "internalType": "address",
          "name": "newOwner",
          "type": "address"
        }
      ],
      "name": "OwnershipTransferred",
      "type": "event"
    },
    {
      "anonymous": false,
      "inputs": [
        {
          "indexed": true,
          "internalType": "address",
          "name": "delegator",
          "type": "address"
        },
        {
          "indexed": true,
          "internalType": "uint256",
          "name": "validatorID",
          "type": "uint256"
        },
        {
          "indexed": false,
          "internalType": "uint256",
          "name": "amount",
          "type": "uint256"
        }
      ],
      "name": "RefundedSlashedLegacyDelegation",
      "type": "event"
    },
    {
      "anonymous": false,
      "inputs": [
        {
          "indexed": true,
          "internalType": "address",
          "name": "delegator",
          "type": "address"
        },
        {
          "indexed": true,
          "internalType": "uint256",
          "name": "toValidatorID",
          "type": "uint256"
        },
        {
          "indexed": false,
          "internalType": "uint256",
          "name": "lockupExtraReward",
          "type": "uint256"
        },
        {
          "indexed": false,
          "internalType": "uint256",
          "name": "lockupBaseReward",
          "type": "uint256"
        },
        {
          "indexed": false,
          "internalType": "uint256",
          "name": "unlockedReward",
          "type": "uint256"
        }
      ],
      "name": "RestakedRewards",
      "type": "event"
    },
    {
      "anonymous": false,
      "inputs": [
        {
          "indexed": true,
          "internalType": "address",
          "name": "delegator",
          "type": "address"
        },
        {
          "indexed": true,
          "internalType": "uint256",
          "name": "toValidatorID",
          "type": "uint256"
        },
        {
          "indexed": true,
          "internalType": "uint256",
          "name": "wrID",
          "type": "uint256"
        },
        {
          "indexed": false,
          "internalType": "uint256",
          "name": "amount",
          "type": "uint256"
        }
      ],
      "name": "Undelegated",
      "type": "event"
    },
    {
      "anonymous": false,
      "inputs": [
        {
          "indexed": true,
          "internalType": "address",
          "name": "delegator",
          "type": "address"
        },
        {
          "indexed": true,
          "internalType": "uint256",
          "name": "validatorID",
          "type": "uint256"
        },
        {
          "indexed": false,
          "internalType": "uint256",
          "name": "amount",
          "type": "uint256"
        },
        {
          "indexed": false,
          "internalType": "uint256",
          "name": "penalty",
          "type": "uint256"
        }
      ],
      "name": "UnlockedStake",
      "type": "event"
    },
    {
      "anonymous": false,
      "inputs": [
        {
          "indexed": false,
          "internalType": "uint256",
          "name": "value",
          "type": "uint256"
        }
      ],
      "name": "UpdatedBaseRewardPerSec",
      "type": "event"
    },
    {
      "anonymous": false,
      "inputs": [
        {
          "indexed": false,
          "internalType": "uint256",
          "name": "contractCommission",
          "type": "uint256"
        }
      ],
      "name": "UpdatedContractCommission",
      "type": "event"
    },
    {
      "anonymous": false,
      "inputs": [
        {
          "indexed": false,
          "internalType": "uint256",
          "name": "maxDelegationRatio",
          "type": "uint256"
        }
      ],
      "name": "UpdatedMaxDelegationRatio",
      "type": "event"
    },
    {
      "anonymous": false,
      "inputs": [
        {
          "indexed": false,
          "internalType": "uint256",
          "name": "maxLockupDuration",
          "type": "uint256"
        }
      ],
      "name": "UpdatedMaxLockupDuration",
      "type": "event"
    },
    {
      "anonymous": false,
      "inputs": [
        {
          "indexed": false,
          "internalType": "uint256",
          "name": "minLockupDuration",
          "type": "uint256"
        }
      ],
      "name": "UpdatedMinLockupDuration",
      "type": "event"
    },
    {
      "anonymous": false,
      "inputs": [
        {
          "indexed": false,
          "internalType": "uint256",
          "name": "minSelfStake",
          "type": "uint256"
        }
      ],
      "name": "UpdatedMinSelfStake",
      "type": "event"
    },
    {
      "anonymous": false,
      "inputs": [
        {
          "indexed": false,
          "internalType": "uint256",
          "name": "blocksNum",
          "type": "uint256"
        },
        {
          "indexed": false,
          "internalType": "uint256",
          "name": "period",
          "type": "uint256"
        }
      ],
      "name": "UpdatedOfflinePenaltyThreshold",
      "type": "event"
    },
    {
      "anonymous": false,
      "inputs": [
        {
          "indexed": true,
          "internalType": "uint256",
          "name": "validatorID",
          "type": "uint256"
        },
        {
          "indexed": false,
          "internalType": "uint256",
          "name": "refundRatio",
          "type": "uint256"
        }
      ],
      "name": "UpdatedSlashingRefundRatio",
      "type": "event"
    },
    {
      "anonymous": false,
      "inputs": [
        {
          "indexed": false,
          "internalType": "uint256",
          "name": "unlockedRewardRatio",
          "type": "uint256"
        }
      ],
      "name": "UpdatedUnlockedRewardRatio",
      "type": "event"
    },
    {
      "anonymous": false,
      "inputs": [
        {
          "indexed": false,
          "internalType": "uint256",
          "name": "validatorCommission",
          "type": "uint256"
        }
      ],
      "name": "UpdatedValidatorCommission",
      "type": "event"
    },
    {
      "anonymous": false,
      "inputs": [
        {
          "indexed": false,
          "internalType": "uint256",
          "name": "Value",
          "type": "uint256"
        }
      ],
      "name": "UpdatedWithdrawalPeriodEpoch",
      "type": "event"
    },
    {
      "anonymous": false,
      "inputs": [
        {
          "indexed": false,
          "internalType": "uint256",
          "name": "withValuedrawalPeriodTime",
          "type": "uint256"
        }
      ],
      "name": "UpdatedWithdrawalPeriodTime",
      "type": "event"
    },
    {
      "anonymous": false,
      "inputs": [
        {
          "indexed": true,
          "internalType": "address",
          "name": "delegator",
          "type": "address"
        },
        {
          "indexed": true,
          "internalType": "uint256",
          "name": "toValidatorID",
          "type": "uint256"
        },
        {
          "indexed": true,
          "internalType": "uint256",
          "name": "wrID",
          "type": "uint256"
        },
        {
          "indexed": false,
          "internalType": "uint256",
          "name": "amount",
          "type": "uint256"
        }
      ],
      "name": "Withdrawn",
      "type": "event"
    },
    {
      "constant": false,
      "inputs": [
        {
          "internalType": "uint256",
          "name": "validatorID",
          "type": "uint256"
        },
        {
          "internalType": "bool",
          "name": "syncPubkey",
          "type": "bool"
        }
      ],
      "name": "_syncValidator",
      "outputs": [],
      "payable": false,
      "stateMutability": "nonpayable",
      "type": "function"
    },
    {
      "constant": true,
      "inputs": [],
      "name": "activeProposals",
      "outputs": [
        {
          "internalType": "uint256",
          "name": "",
          "type": "uint256"
        }
      ],
      "payable": false,
      "stateMutability": "view",
      "type": "function"
    },
    {
      "constant": false,
      "inputs": [
        {
          "internalType": "uint256",
          "name": "diff",
          "type": "uint256"
        }
      ],
      "name": "advanceTime",
      "outputs": [],
      "payable": false,
      "stateMutability": "nonpayable",
      "type": "function"
    },
    {
      "constant": true,
      "inputs": [],
      "name": "allowedNonNodeCalls",
      "outputs": [
        {
          "internalType": "bool",
          "name": "",
          "type": "bool"
        }
      ],
      "payable": false,
      "stateMutability": "view",
      "type": "function"
    },
    {
      "constant": true,
      "inputs": [],
      "name": "baseRewardPerSecond",
      "outputs": [
        {
          "internalType": "uint256",
          "name": "",
          "type": "uint256"
        }
      ],
      "payable": false,
      "stateMutability": "view",
      "type": "function"
    },
    {
      "constant": false,
      "inputs": [
        {
          "internalType": "uint256",
          "name": "toValidatorID",
          "type": "uint256"
        }
      ],
      "name": "claimRewards",
      "outputs": [],
      "payable": false,
      "stateMutability": "nonpayable",
      "type": "function"
    },
    {
      "constant": true,
      "inputs": [],
      "name": "contractCommission",
      "outputs": [
        {
          "internalType": "uint256",
          "name": "",
          "type": "uint256"
        }
      ],
      "payable": false,
      "stateMutability": "view",
      "type": "function"
    },
    {
      "constant": false,
      "inputs": [
        {
          "internalType": "bytes",
          "name": "pubkey",
          "type": "bytes"
        }
      ],
      "name": "createValidator",
      "outputs": [],
      "payable": true,
      "stateMutability": "payable",
      "type": "function"
    },
    {
      "constant": true,
      "inputs": [],
      "name": "currentEpoch",
      "outputs": [
        {
          "internalType": "uint256",
          "name": "",
          "type": "uint256"
        }
      ],
      "payable": false,
      "stateMutability": "view",
      "type": "function"
    },
    {
      "constant": true,
      "inputs": [],
      "name": "currentSealedEpoch",
      "outputs": [
        {
          "internalType": "uint256",
          "name": "",
          "type": "uint256"
        }
      ],
      "payable": false,
      "stateMutability": "view",
      "type": "function"
    },
    {
      "constant": false,
      "inputs": [
        {
          "internalType": "uint256",
          "name": "validatorID",
          "type": "uint256"
        },
        {
          "internalType": "uint256",
          "name": "status",
          "type": "uint256"
        }
      ],
      "name": "deactivateValidator",
      "outputs": [],
      "payable": false,
      "stateMutability": "nonpayable",
      "type": "function"
    },
    {
      "constant": false,
      "inputs": [
        {
          "internalType": "uint256",
          "name": "toValidatorID",
          "type": "uint256"
        }
      ],
      "name": "delegate",
      "outputs": [],
      "payable": true,
      "stateMutability": "payable",
      "type": "function"
    },
    {
      "constant": false,
      "inputs": [],
      "name": "disableNonNodeCalls",
      "outputs": [],
      "payable": false,
      "stateMutability": "nonpayable",
      "type": "function"
    },
    {
      "constant": false,
      "inputs": [],
      "name": "enableNonNodeCalls",
      "outputs": [],
      "payable": false,
      "stateMutability": "nonpayable",
      "type": "function"
    },
    {
      "constant": true,
      "inputs": [],
      "name": "getBlockTime",
      "outputs": [
        {
          "internalType": "uint256",
          "name": "",
          "type": "uint256"
        }
      ],
      "payable": false,
      "stateMutability": "view",
      "type": "function"
    },
    {
      "constant": true,
      "inputs": [
        {
          "internalType": "uint256",
          "name": "epoch",
          "type": "uint256"
        },
        {
          "internalType": "uint256",
          "name": "validatorID",
          "type": "uint256"
        }
      ],
      "name": "getEpochAccumulatedOriginatedTxsFee",
      "outputs": [
        {
          "internalType": "uint256",
          "name": "",
          "type": "uint256"
        }
      ],
      "payable": false,
      "stateMutability": "view",
      "type": "function"
    },
    {
      "constant": true,
      "inputs": [
        {
          "internalType": "uint256",
          "name": "epoch",
          "type": "uint256"
        },
        {
          "internalType": "uint256",
          "name": "validatorID",
          "type": "uint256"
        }
      ],
      "name": "getEpochAccumulatedRewardPerToken",
      "outputs": [
        {
          "internalType": "uint256",
          "name": "",
          "type": "uint256"
        }
      ],
      "payable": false,
      "stateMutability": "view",
      "type": "function"
    },
    {
      "constant": true,
      "inputs": [
        {
          "internalType": "uint256",
          "name": "epoch",
          "type": "uint256"
        },
        {
          "internalType": "uint256",
          "name": "validatorID",
          "type": "uint256"
        }
      ],
      "name": "getEpochAccumulatedUptime",
      "outputs": [
        {
          "internalType": "uint256",
          "name": "",
          "type": "uint256"
        }
      ],
      "payable": false,
      "stateMutability": "view",
      "type": "function"
    },
    {
      "constant": true,
      "inputs": [
        {
          "internalType": "uint256",
          "name": "epoch",
          "type": "uint256"
        },
        {
          "internalType": "uint256",
          "name": "validatorID",
          "type": "uint256"
        }
      ],
      "name": "getEpochOfflineBlocks",
      "outputs": [
        {
          "internalType": "uint256",
          "name": "",
          "type": "uint256"
        }
      ],
      "payable": false,
      "stateMutability": "view",
      "type": "function"
    },
    {
      "constant": true,
      "inputs": [
        {
          "internalType": "uint256",
          "name": "epoch",
          "type": "uint256"
        },
        {
          "internalType": "uint256",
          "name": "validatorID",
          "type": "uint256"
        }
      ],
      "name": "getEpochOfflineTime",
      "outputs": [
        {
          "internalType": "uint256",
          "name": "",
          "type": "uint256"
        }
      ],
      "payable": false,
      "stateMutability": "view",
      "type": "function"
    },
    {
      "constant": true,
      "inputs": [
        {
          "internalType": "uint256",
          "name": "epoch",
          "type": "uint256"
        },
        {
          "internalType": "uint256",
          "name": "validatorID",
          "type": "uint256"
        }
      ],
      "name": "getEpochReceivedStake",
      "outputs": [
        {
          "internalType": "uint256",
          "name": "",
          "type": "uint256"
        }
      ],
      "payable": false,
      "stateMutability": "view",
      "type": "function"
    },
    {
      "constant": true,
      "inputs": [
        {
          "internalType": "uint256",
          "name": "",
          "type": "uint256"
        }
      ],
      "name": "getEpochSnapshot",
      "outputs": [
        {
          "internalType": "uint256",
          "name": "endTime",
          "type": "uint256"
        },
        {
          "internalType": "uint256",
          "name": "epochFee",
          "type": "uint256"
        },
        {
          "internalType": "uint256",
          "name": "totalBaseRewardWeight",
          "type": "uint256"
        },
        {
          "internalType": "uint256",
          "name": "totalTxRewardWeight",
          "type": "uint256"
        },
        {
          "internalType": "uint256",
          "name": "baseRewardPerSecond",
          "type": "uint256"
        },
        {
          "internalType": "uint256",
          "name": "totalStake",
          "type": "uint256"
        },
        {
          "internalType": "uint256",
          "name": "totalSupply",
          "type": "uint256"
        }
      ],
      "payable": false,
      "stateMutability": "view",
      "type": "function"
    },
    {
      "constant": true,
      "inputs": [
        {
          "internalType": "uint256",
          "name": "epoch",
          "type": "uint256"
        }
      ],
      "name": "getEpochValidatorIDs",
      "outputs": [
        {
          "internalType": "uint256[]",
          "name": "",
          "type": "uint256[]"
        }
      ],
      "payable": false,
      "stateMutability": "view",
      "type": "function"
    },
    {
      "constant": true,
      "inputs": [],
      "name": "getGovernance",
      "outputs": [
        {
          "internalType": "address",
          "name": "",
          "type": "address"
        }
      ],
      "payable": false,
      "stateMutability": "view",
      "type": "function"
    },
    {
      "constant": true,
      "inputs": [
        {
          "internalType": "address",
          "name": "delegator",
          "type": "address"
        },
        {
          "internalType": "uint256",
          "name": "toValidatorID",
          "type": "uint256"
        }
      ],
      "name": "getLockedStake",
      "outputs": [
        {
          "internalType": "uint256",
          "name": "",
          "type": "uint256"
        }
      ],
      "payable": false,
      "stateMutability": "view",
      "type": "function"
    },
    {
      "constant": true,
      "inputs": [
        {
          "internalType": "address",
          "name": "",
          "type": "address"
        },
        {
          "internalType": "uint256",
          "name": "",
          "type": "uint256"
        }
      ],
      "name": "getLockupInfo",
      "outputs": [
        {
          "internalType": "uint256",
          "name": "lockedStake",
          "type": "uint256"
        },
        {
          "internalType": "uint256",
          "name": "fromEpoch",
          "type": "uint256"
        },
        {
          "internalType": "uint256",
          "name": "endTime",
          "type": "uint256"
        },
        {
          "internalType": "uint256",
          "name": "duration",
          "type": "uint256"
        }
      ],
      "payable": false,
      "stateMutability": "view",
      "type": "function"
    },
    {
      "constant": true,
      "inputs": [
        {
          "internalType": "uint256",
          "name": "validatorID",
          "type": "uint256"
        }
      ],
      "name": "getSelfStake",
      "outputs": [
        {
          "internalType": "uint256",
          "name": "",
          "type": "uint256"
        }
      ],
      "payable": false,
      "stateMutability": "view",
      "type": "function"
    },
    {
      "constant": true,
      "inputs": [
        {
          "internalType": "address",
          "name": "",
          "type": "address"
        },
        {
          "internalType": "uint256",
          "name": "",
          "type": "uint256"
        }
      ],
      "name": "getStake",
      "outputs": [
        {
          "internalType": "uint256",
          "name": "",
          "type": "uint256"
        }
      ],
      "payable": false,
      "stateMutability": "view",
      "type": "function"
    },
    {
      "constant": true,
      "inputs": [
        {
          "internalType": "address",
          "name": "",
          "type": "address"
        },
        {
          "internalType": "uint256",
          "name": "",
          "type": "uint256"
        }
      ],
      "name": "getStashedLockupRewards",
      "outputs": [
        {
          "internalType": "uint256",
          "name": "lockupExtraReward",
          "type": "uint256"
        },
        {
          "internalType": "uint256",
          "name": "lockupBaseReward",
          "type": "uint256"
        },
        {
          "internalType": "uint256",
          "name": "unlockedReward",
          "type": "uint256"
        }
      ],
      "payable": false,
      "stateMutability": "view",
      "type": "function"
    },
    {
      "constant": true,
      "inputs": [],
      "name": "getTime",
      "outputs": [
        {
          "internalType": "uint256",
          "name": "",
          "type": "uint256"
        }
      ],
      "payable": false,
      "stateMutability": "view",
      "type": "function"
    },
    {
      "constant": true,
      "inputs": [
        {
          "internalType": "address",
          "name": "delegator",
          "type": "address"
        },
        {
          "internalType": "uint256",
          "name": "toValidatorID",
          "type": "uint256"
        }
      ],
      "name": "getUnlockedStake",
      "outputs": [
        {
          "internalType": "uint256",
          "name": "",
          "type": "uint256"
        }
      ],
      "payable": false,
      "stateMutability": "view",
      "type": "function"
    },
    {
      "constant": true,
      "inputs": [
        {
          "internalType": "uint256",
          "name": "",
          "type": "uint256"
        }
      ],
      "name": "getValidator",
      "outputs": [
        {
          "internalType": "uint256",
          "name": "status",
          "type": "uint256"
        },
        {
          "internalType": "uint256",
          "name": "deactivatedTime",
          "type": "uint256"
        },
        {
          "internalType": "uint256",
          "name": "deactivatedEpoch",
          "type": "uint256"
        },
        {
          "internalType": "uint256",
          "name": "receivedStake",
          "type": "uint256"
        },
        {
          "internalType": "uint256",
          "name": "createdEpoch",
          "type": "uint256"
        },
        {
          "internalType": "uint256",
          "name": "createdTime",
          "type": "uint256"
        },
        {
          "internalType": "address",
          "name": "auth",
          "type": "address"
        }
      ],
      "payable": false,
      "stateMutability": "view",
      "type": "function"
    },
    {
      "constant": true,
      "inputs": [
        {
          "internalType": "address",
          "name": "",
          "type": "address"
        }
      ],
      "name": "getValidatorID",
      "outputs": [
        {
          "internalType": "uint256",
          "name": "",
          "type": "uint256"
        }
      ],
      "payable": false,
      "stateMutability": "view",
      "type": "function"
    },
    {
      "constant": true,
      "inputs": [
        {
          "internalType": "uint256",
          "name": "",
          "type": "uint256"
        }
      ],
      "name": "getValidatorPubkey",
      "outputs": [
        {
          "internalType": "bytes",
          "name": "",
          "type": "bytes"
        }
      ],
      "payable": false,
      "stateMutability": "view",
      "type": "function"
    },
    {
      "constant": true,
      "inputs": [
        {
          "internalType": "address",
          "name": "",
          "type": "address"
        },
        {
          "internalType": "uint256",
          "name": "",
          "type": "uint256"
        },
        {
          "internalType": "uint256",
          "name": "",
          "type": "uint256"
        }
      ],
      "name": "getWithdrawalRequest",
      "outputs": [
        {
          "internalType": "uint256",
          "name": "epoch",
          "type": "uint256"
        },
        {
          "internalType": "uint256",
          "name": "time",
          "type": "uint256"
        },
        {
          "internalType": "uint256",
          "name": "amount",
          "type": "uint256"
        }
      ],
      "payable": false,
      "stateMutability": "view",
      "type": "function"
    },
    {
      "constant": true,
      "inputs": [
        {
          "internalType": "address",
          "name": "delegator",
          "type": "address"
        },
        {
          "internalType": "uint256",
          "name": "validatorID",
          "type": "uint256"
        }
      ],
      "name": "highestLockupEpoch",
      "outputs": [
        {
          "internalType": "uint256",
          "name": "",
          "type": "uint256"
        }
      ],
      "payable": false,
      "stateMutability": "view",
      "type": "function"
    },
    {
      "constant": false,
      "inputs": [
        {
          "internalType": "uint256",
          "name": "sealedEpoch",
          "type": "uint256"
        },
        {
          "internalType": "uint256",
          "name": "_totalSupply",
          "type": "uint256"
        },
        {
          "internalType": "address",
          "name": "nodeDriver",
          "type": "address"
        },
        {
          "internalType": "address",
          "name": "owner",
          "type": "address"
        },
        {
          "internalType": "address",
          "name": "governance",
          "type": "address"
        }
      ],
      "name": "initialize",
      "outputs": [],
      "payable": false,
      "stateMutability": "nonpayable",
      "type": "function"
    },
    {
      "constant": true,
      "inputs": [
        {
          "internalType": "address",
          "name": "delegator",
          "type": "address"
        },
        {
          "internalType": "uint256",
          "name": "toValidatorID",
          "type": "uint256"
        }
      ],
      "name": "isLockedUp",
      "outputs": [
        {
          "internalType": "bool",
          "name": "",
          "type": "bool"
        }
      ],
      "payable": false,
      "stateMutability": "view",
      "type": "function"
    },
    {
      "constant": true,
      "inputs": [],
      "name": "isOwner",
      "outputs": [
        {
          "internalType": "bool",
          "name": "",
          "type": "bool"
        }
      ],
      "payable": false,
      "stateMutability": "view",
      "type": "function"
    },
    {
      "constant": true,
      "inputs": [
        {
          "internalType": "uint256",
          "name": "validatorID",
          "type": "uint256"
        }
      ],
      "name": "isSlashed",
      "outputs": [
        {
          "internalType": "bool",
          "name": "",
          "type": "bool"
        }
      ],
      "payable": false,
      "stateMutability": "view",
      "type": "function"
    },
    {
      "constant": true,
      "inputs": [],
      "name": "lastValidatorID",
      "outputs": [
        {
          "internalType": "uint256",
          "name": "",
          "type": "uint256"
        }
      ],
      "payable": false,
      "stateMutability": "view",
      "type": "function"
    },
    {
      "constant": false,
      "inputs": [
        {
          "internalType": "uint256",
          "name": "toValidatorID",
          "type": "uint256"
        },
        {
          "internalType": "uint256",
          "name": "lockupDuration",
          "type": "uint256"
        },
        {
          "internalType": "uint256",
          "name": "amount",
          "type": "uint256"
        }
      ],
      "name": "lockStake",
      "outputs": [],
      "payable": false,
      "stateMutability": "nonpayable",
      "type": "function"
    },
    {
      "constant": true,
      "inputs": [],
      "name": "maxDelegatedRatio",
      "outputs": [
        {
          "internalType": "uint256",
          "name": "",
          "type": "uint256"
        }
      ],
      "payable": false,
      "stateMutability": "view",
      "type": "function"
    },
    {
      "constant": true,
      "inputs": [],
      "name": "maxLockupDuration",
      "outputs": [
        {
          "internalType": "uint256",
          "name": "",
          "type": "uint256"
        }
      ],
      "payable": false,
      "stateMutability": "view",
      "type": "function"
    },
    {
      "constant": true,
      "inputs": [],
      "name": "minLockupDuration",
      "outputs": [
        {
          "internalType": "uint256",
          "name": "",
          "type": "uint256"
        }
      ],
      "payable": false,
      "stateMutability": "view",
      "type": "function"
    },
    {
      "constant": true,
      "inputs": [],
      "name": "minSelfStake",
      "outputs": [
        {
          "internalType": "uint256",
          "name": "",
          "type": "uint256"
        }
      ],
      "payable": false,
      "stateMutability": "view",
      "type": "function"
    },
    {
      "constant": false,
      "inputs": [
        {
          "internalType": "address payable",
          "name": "receiver",
          "type": "address"
        },
        {
          "internalType": "uint256",
          "name": "amount",
          "type": "uint256"
        },
        {
          "internalType": "string",
          "name": "justification",
          "type": "string"
        }
      ],
      "name": "mintFTM",
      "outputs": [],
      "payable": false,
      "stateMutability": "nonpayable",
      "type": "function"
    },
    {
      "constant": true,
      "inputs": [],
      "name": "offlinePenaltyThreshold",
      "outputs": [
        {
          "internalType": "uint256",
          "name": "blocksNum",
          "type": "uint256"
        },
        {
          "internalType": "uint256",
          "name": "time",
          "type": "uint256"
        }
      ],
      "payable": false,
      "stateMutability": "view",
      "type": "function"
    },
    {
      "constant": true,
      "inputs": [],
      "name": "owner",
      "outputs": [
        {
          "internalType": "address",
          "name": "",
          "type": "address"
        }
      ],
      "payable": false,
      "stateMutability": "view",
      "type": "function"
    },
    {
      "constant": true,
      "inputs": [
        {
          "internalType": "address",
          "name": "delegator",
          "type": "address"
        },
        {
          "internalType": "uint256",
          "name": "toValidatorID",
          "type": "uint256"
        }
      ],
      "name": "pendingRewards",
      "outputs": [
        {
          "internalType": "uint256",
          "name": "",
          "type": "uint256"
        }
      ],
      "payable": false,
      "stateMutability": "view",
      "type": "function"
    },
    {
      "constant": false,
      "inputs": [],
      "name": "rebaseTime",
      "outputs": [],
      "payable": false,
      "stateMutability": "nonpayable",
      "type": "function"
    },
    {
      "constant": false,
      "inputs": [
        {
          "internalType": "uint256",
          "name": "toValidatorID",
          "type": "uint256"
        },
        {
          "internalType": "uint256",
          "name": "lockupDuration",
          "type": "uint256"
        },
        {
          "internalType": "uint256",
          "name": "amount",
          "type": "uint256"
        }
      ],
      "name": "relockStake",
      "outputs": [],
      "payable": false,
      "stateMutability": "nonpayable",
      "type": "function"
    },
    {
      "constant": false,
      "inputs": [],
      "name": "renounceOwnership",
      "outputs": [],
      "payable": false,
      "stateMutability": "nonpayable",
      "type": "function"
    },
    {
      "constant": false,
      "inputs": [
        {
          "internalType": "uint256",
          "name": "toValidatorID",
          "type": "uint256"
        }
      ],
      "name": "restakeRewards",
      "outputs": [],
      "payable": false,
      "stateMutability": "nonpayable",
      "type": "function"
    },
    {
      "constant": true,
      "inputs": [
        {
          "internalType": "address",
          "name": "delegator",
          "type": "address"
        },
        {
          "internalType": "uint256",
          "name": "validatorID",
          "type": "uint256"
        }
      ],
      "name": "rewardsStash",
      "outputs": [
        {
          "internalType": "uint256",
          "name": "",
          "type": "uint256"
        }
      ],
      "payable": false,
      "stateMutability": "view",
      "type": "function"
    },
    {
      "constant": false,
      "inputs": [
        {
          "internalType": "uint256[]",
          "name": "offlineTime",
          "type": "uint256[]"
        },
        {
          "internalType": "uint256[]",
          "name": "offlineBlocks",
          "type": "uint256[]"
        },
        {
          "internalType": "uint256[]",
          "name": "uptimes",
          "type": "uint256[]"
        },
        {
          "internalType": "uint256[]",
          "name": "originatedTxsFee",
          "type": "uint256[]"
        }
      ],
      "name": "sealEpoch",
      "outputs": [],
      "payable": false,
      "stateMutability": "nonpayable",
      "type": "function"
    },
    {
      "constant": false,
      "inputs": [
        {
          "internalType": "uint256[]",
          "name": "nextValidatorIDs",
          "type": "uint256[]"
        }
      ],
      "name": "sealEpochValidators",
      "outputs": [],
      "payable": false,
      "stateMutability": "nonpayable",
      "type": "function"
    },
    {
      "constant": false,
      "inputs": [
        {
          "internalType": "uint256",
          "name": "_contractCommission",
          "type": "uint256"
        }
      ],
      "name": "setContractCommission",
      "outputs": [],
      "payable": false,
      "stateMutability": "nonpayable",
      "type": "function"
    },
    {
      "constant": false,
      "inputs": [
        {
          "internalType": "address",
          "name": "delegator",
          "type": "address"
        },
        {
          "internalType": "uint256",
          "name": "toValidatorID",
          "type": "uint256"
        },
        {
          "internalType": "uint256",
          "name": "stake",
          "type": "uint256"
        },
        {
          "internalType": "uint256",
          "name": "lockedStake",
          "type": "uint256"
        },
        {
          "internalType": "uint256",
          "name": "lockupFromEpoch",
          "type": "uint256"
        },
        {
          "internalType": "uint256",
          "name": "lockupEndTime",
          "type": "uint256"
        },
        {
          "internalType": "uint256",
          "name": "lockupDuration",
          "type": "uint256"
        },
        {
          "internalType": "uint256",
          "name": "earlyUnlockPenalty",
          "type": "uint256"
        },
        {
          "internalType": "uint256",
          "name": "rewards",
          "type": "uint256"
        }
      ],
      "name": "setGenesisDelegation",
      "outputs": [],
      "payable": false,
      "stateMutability": "nonpayable",
      "type": "function"
    },
    {
      "constant": false,
      "inputs": [
        {
          "internalType": "address",
          "name": "auth",
          "type": "address"
        },
        {
          "internalType": "uint256",
          "name": "validatorID",
          "type": "uint256"
        },
        {
          "internalType": "bytes",
          "name": "pubkey",
          "type": "bytes"
        },
        {
          "internalType": "uint256",
          "name": "status",
          "type": "uint256"
        },
        {
          "internalType": "uint256",
          "name": "createdEpoch",
          "type": "uint256"
        },
        {
          "internalType": "uint256",
          "name": "createdTime",
          "type": "uint256"
        },
        {
          "internalType": "uint256",
          "name": "deactivatedEpoch",
          "type": "uint256"
        },
        {
          "internalType": "uint256",
          "name": "deactivatedTime",
          "type": "uint256"
        }
      ],
      "name": "setGenesisValidator",
      "outputs": [],
      "payable": false,
      "stateMutability": "nonpayable",
      "type": "function"
    },
    {
      "constant": false,
      "inputs": [
        {
          "internalType": "uint256",
          "name": "_maxDelegationRatio",
          "type": "uint256"
        }
      ],
      "name": "setMaxDelegation",
      "outputs": [],
      "payable": false,
      "stateMutability": "nonpayable",
      "type": "function"
    },
    {
      "constant": false,
      "inputs": [
        {
          "internalType": "uint256",
          "name": "_maxLockupDuration",
          "type": "uint256"
        }
      ],
      "name": "setMaxLockupDuration",
      "outputs": [],
      "payable": false,
      "stateMutability": "nonpayable",
      "type": "function"
    },
    {
      "constant": false,
      "inputs": [
        {
          "internalType": "uint256",
          "name": "_minLockupDuration",
          "type": "uint256"
        }
      ],
      "name": "setMinLockupDuration",
      "outputs": [],
      "payable": false,
      "stateMutability": "nonpayable",
      "type": "function"
    },
    {
      "constant": false,
      "inputs": [
        {
          "internalType": "uint256",
          "name": "_minSelfStake",
          "type": "uint256"
        }
      ],
      "name": "setMinSelfStake",
      "outputs": [],
      "payable": false,
      "stateMutability": "nonpayable",
      "type": "function"
    },
    {
      "constant": false,
      "inputs": [
        {
          "internalType": "uint256",
          "name": "_unlockedReward",
          "type": "uint256"
        }
      ],
      "name": "setUnlockedRewardRatio",
      "outputs": [],
      "payable": false,
      "stateMutability": "nonpayable",
      "type": "function"
    },
    {
      "constant": false,
      "inputs": [
        {
          "internalType": "uint256",
          "name": "_validatorCommission",
          "type": "uint256"
        }
      ],
      "name": "setValidatorCommission",
      "outputs": [],
      "payable": false,
      "stateMutability": "nonpayable",
      "type": "function"
    },
    {
      "constant": false,
      "inputs": [
        {
          "internalType": "uint256",
          "name": "_withdrawalPeriodEpochs",
          "type": "uint256"
        }
      ],
      "name": "setWithdrawalPeriodEpoch",
      "outputs": [],
      "payable": false,
      "stateMutability": "nonpayable",
      "type": "function"
    },
    {
      "constant": false,
      "inputs": [
        {
          "internalType": "uint256",
          "name": "_withdrawalPeriodTime",
          "type": "uint256"
        }
      ],
      "name": "setWithdrawalPeriodTime",
      "outputs": [],
      "payable": false,
      "stateMutability": "nonpayable",
      "type": "function"
    },
    {
      "constant": true,
      "inputs": [
        {
          "internalType": "uint256",
          "name": "",
          "type": "uint256"
        }
      ],
      "name": "slashingRefundRatio",
      "outputs": [
        {
          "internalType": "uint256",
          "name": "",
          "type": "uint256"
        }
      ],
      "payable": false,
      "stateMutability": "view",
      "type": "function"
    },
    {
      "constant": true,
      "inputs": [],
      "name": "stakeTokenizerAddress",
      "outputs": [
        {
          "internalType": "address",
          "name": "",
          "type": "address"
        }
      ],
      "payable": false,
      "stateMutability": "view",
      "type": "function"
    },
    {
      "constant": false,
      "inputs": [
        {
          "internalType": "address",
          "name": "delegator",
          "type": "address"
        },
        {
          "internalType": "uint256",
          "name": "toValidatorID",
          "type": "uint256"
        }
      ],
      "name": "stashRewards",
      "outputs": [],
      "payable": false,
      "stateMutability": "nonpayable",
      "type": "function"
    },
    {
      "constant": true,
      "inputs": [
        {
          "internalType": "address",
          "name": "",
          "type": "address"
        },
        {
          "internalType": "uint256",
          "name": "",
          "type": "uint256"
        }
      ],
      "name": "stashedRewardsUntilEpoch",
      "outputs": [
        {
          "internalType": "uint256",
          "name": "",
          "type": "uint256"
        }
      ],
      "payable": false,
      "stateMutability": "view",
      "type": "function"
    },
    {
      "constant": true,
      "inputs": [],
      "name": "time",
      "outputs": [
        {
          "internalType": "uint256",
          "name": "",
          "type": "uint256"
        }
      ],
      "payable": false,
      "stateMutability": "view",
      "type": "function"
    },
    {
      "constant": true,
      "inputs": [],
      "name": "totalActiveStake",
      "outputs": [
        {
          "internalType": "uint256",
          "name": "",
          "type": "uint256"
        }
      ],
      "payable": false,
      "stateMutability": "view",
      "type": "function"
    },
    {
      "constant": true,
      "inputs": [],
      "name": "totalSlashedStake",
      "outputs": [
        {
          "internalType": "uint256",
          "name": "",
          "type": "uint256"
        }
      ],
      "payable": false,
      "stateMutability": "view",
      "type": "function"
    },
    {
      "constant": true,
      "inputs": [],
      "name": "totalStake",
      "outputs": [
        {
          "internalType": "uint256",
          "name": "",
          "type": "uint256"
        }
      ],
      "payable": false,
      "stateMutability": "view",
      "type": "function"
    },
    {
      "constant": true,
      "inputs": [],
      "name": "totalSupply",
      "outputs": [
        {
          "internalType": "uint256",
          "name": "",
          "type": "uint256"
        }
      ],
      "payable": false,
      "stateMutability": "view",
      "type": "function"
    },
    {
      "constant": false,
      "inputs": [
        {
          "internalType": "address",
          "name": "newOwner",
          "type": "address"
        }
      ],
      "name": "transferOwnership",
      "outputs": [],
      "payable": false,
      "stateMutability": "nonpayable",
      "type": "function"
    },
    {
      "constant": false,
      "inputs": [
        {
          "internalType": "uint256",
          "name": "toValidatorID",
          "type": "uint256"
        },
        {
          "internalType": "uint256",
          "name": "wrID",
          "type": "uint256"
        },
        {
          "internalType": "uint256",
          "name": "amount",
          "type": "uint256"
        }
      ],
      "name": "undelegate",
      "outputs": [],
      "payable": false,
      "stateMutability": "nonpayable",
      "type": "function"
    },
    {
      "constant": false,
      "inputs": [
        {
          "internalType": "uint256",
          "name": "toValidatorID",
          "type": "uint256"
        },
        {
          "internalType": "uint256",
          "name": "amount",
          "type": "uint256"
        }
      ],
      "name": "unlockStake",
      "outputs": [
        {
          "internalType": "uint256",
          "name": "",
          "type": "uint256"
        }
      ],
      "payable": false,
      "stateMutability": "nonpayable",
      "type": "function"
    },
    {
      "constant": true,
      "inputs": [],
      "name": "unlockedRewardRatio",
      "outputs": [
        {
          "internalType": "uint256",
          "name": "",
          "type": "uint256"
        }
      ],
      "payable": false,
      "stateMutability": "view",
      "type": "function"
    },
    {
      "constant": false,
      "inputs": [
        {
          "internalType": "uint256",
          "name": "value",
          "type": "uint256"
        }
      ],
      "name": "updateBaseRewardPerSecond",
      "outputs": [],
      "payable": false,
      "stateMutability": "nonpayable",
      "type": "function"
    },
    {
      "constant": false,
      "inputs": [
        {
          "internalType": "address",
          "name": "_governance",
          "type": "address"
        }
      ],
      "name": "updateGovernanceContract",
      "outputs": [],
      "payable": false,
      "stateMutability": "nonpayable",
      "type": "function"
    },
    {
      "constant": false,
      "inputs": [
        {
          "internalType": "uint256",
          "name": "blocksNum",
          "type": "uint256"
        },
        {
          "internalType": "uint256",
          "name": "time",
          "type": "uint256"
        }
      ],
      "name": "updateOfflinePenaltyThreshold",
      "outputs": [],
      "payable": false,
      "stateMutability": "nonpayable",
      "type": "function"
    },
    {
      "constant": false,
      "inputs": [
        {
          "internalType": "uint256",
          "name": "validatorID",
          "type": "uint256"
        },
        {
          "internalType": "uint256",
          "name": "refundRatio",
          "type": "uint256"
        }
      ],
      "name": "updateSlashingRefundRatio",
      "outputs": [],
      "payable": false,
      "stateMutability": "nonpayable",
      "type": "function"
    },
    {
      "constant": false,
      "inputs": [
        {
          "internalType": "address",
          "name": "addr",
          "type": "address"
        }
      ],
      "name": "updateStakeTokenizerAddress",
      "outputs": [],
      "payable": false,
      "stateMutability": "nonpayable",
      "type": "function"
    },
    {
      "constant": false,
      "inputs": [
        {
          "internalType": "int256",
          "name": "diff",
          "type": "int256"
        }
      ],
      "name": "updateTotalSupply",
      "outputs": [],
      "payable": false,
      "stateMutability": "nonpayable",
      "type": "function"
    },
    {
      "constant": true,
      "inputs": [],
      "name": "validatorCommission",
      "outputs": [
        {
          "internalType": "uint256",
          "name": "",
          "type": "uint256"
        }
      ],
      "payable": false,
      "stateMutability": "view",
      "type": "function"
    },
    {
      "constant": true,
      "inputs": [],
      "name": "version",
      "outputs": [
        {
          "internalType": "bytes3",
          "name": "",
          "type": "bytes3"
        }
      ],
      "payable": false,
      "stateMutability": "pure",
      "type": "function"
    },
    {
      "constant": true,
      "inputs": [],
      "name": "viewMaxDelegation",
      "outputs": [
        {
          "internalType": "uint256",
          "name": "",
          "type": "uint256"
        }
      ],
      "payable": false,
      "stateMutability": "view",
      "type": "function"
    },
    {
      "constant": false,
      "inputs": [
        {
          "internalType": "uint256",
          "name": "toValidatorID",
          "type": "uint256"
        },
        {
          "internalType": "uint256",
          "name": "wrID",
          "type": "uint256"
        }
      ],
      "name": "withdraw",
      "outputs": [],
      "payable": false,
      "stateMutability": "nonpayable",
      "type": "function"
    },
    {
      "constant": true,
      "inputs": [],
      "name": "withdrawalPeriodEpochs",
      "outputs": [
        {
          "internalType": "uint256",
          "name": "",
          "type": "uint256"
        }
      ],
      "payable": false,
      "stateMutability": "view",
      "type": "function"
    },
    {
      "constant": true,
      "inputs": [],
      "name": "withdrawalPeriodTime",
      "outputs": [
        {
          "internalType": "uint256",
          "name": "",
          "type": "uint256"
        }
      ],
      "payable": false,
      "stateMutability": "view",
      "type": "function"
    }
  ],
  "bytecode": "0x608060405234801561001057600080fd5b5061623b80620000216000396000f3fe6080604052600436106105025760003560e01c8063715018a611610297578063b88a37e211610165578063d9a7c1f9116100cc578063e2f8c33611610085578063e2f8c33614611531578063e4af78be146115c1578063ebdf104c146115eb578063f2fde38b14611756578063f5bd296814611789578063f78bf110146117c257610502565b8063d9a7c1f9146113db578063dc31e1af146113f0578063de67f21514611420578063df00c92214611456578063e08d7e6614611486578063e261641a1461150157610502565b8063cc8343aa1161011e578063cc8343aa146112ce578063cefe9c1814611300578063cfd476631461132a578063cfdbb7cd14611363578063d54b50991461139c578063d75629cf146113b157610502565b8063b88a37e2146111a0578063bd14d9071461121a578063c3de580e14611250578063c5f530af1461127a578063c65ee0e11461128f578063c7be95de146112b957610502565b80639d0c3c0511610209578063a86a056f116101c2578063a86a056f1461105a578063ad9a4b5c14611093578063b5d89627146110bd578063b6d9edd514611128578063b810e41114611152578063b82b84271461118b57610502565b80639d0c3c0514610f425780639fa6dd3514610f57578063a198d22914610f74578063a2f6e6bc14610fa4578063a5a470ad14610fd7578063a77865151461104557610502565b80638b0e9f3f1161025b5780638b0e9f3f14610e275780638b1a0d1114610e3c5780638cddb01514610e6c5780638da5cb5b14610ea55780638f32d59b14610eba57806396c7ee4614610ee357610502565b8063715018a614610d345780637667180814610d495780637cacb1d614610d5e578063854873e114610d7357806387ceff0914610e1257610502565b80632d2646ed116103d4578063557ed1ba1161034657806361e53fcc116102ff57806361e53fcc14610c20578063650acd6614610c50578063670322f814610c655780636ca6d6bc14610c9e5780636f49866314610cc85780636faf60a014610d0157610502565b8063557ed1ba14610b4e5780635601fe0114610b6357806358f95b8014610b8d5780635e2308d214610bbd5780635fab23a814610bd25780636099ecb214610be757610502565b80634055f273116103985780634055f273146109b3578063441a3e70146109dd5780634f7c4efb14610a0d5780634f864df414610a3d5780634feb92f314610a7357806354fd4d5014610b1c57610502565b80632d2646ed1461089757806333469d3d146108c1578063346bdcfb146108d657806339b80c00146109005780633fbfd4df1461096257610502565b806316ada547116104785780632265f284116104315780632265f2841461080057806324f3082a146108155780632709275e1461082a578063289b3c0d1461083f57806328f73148146108545780632cedb0971461086957610502565b806316ada547146106b457806318160ddd146106c957806318f628d4146106de5780631d3ac42c146107435780631e702f83146107735780631f270152146107a357610502565b806309fc49ab116104ca57806309fc49ab146105f65780630d4955e31461060b5780630d7b2609146106205780630e559d8214610635578063109c3d271461066657806312622d0e1461067b57610502565b80630135b1db1461050757806303c91ccd1461054c57806307e32f0a1461057857806308c36874146105a25780630962ef79146105cc575b600080fd5b34801561051357600080fd5b5061053a6004803603602081101561052a57600080fd5b50356001600160a01b03166117ec565b60408051918252519081900360200190f35b34801561055857600080fd5b506105766004803603602081101561056f57600080fd5b50356117fe565b005b34801561058457600080fd5b506105766004803603602081101561059b57600080fd5b5035611813565b3480156105ae57600080fd5b50610576600480360360208110156105c557600080fd5b503561181e565b3480156105d857600080fd5b50610576600480360360208110156105ef57600080fd5b50356118ea565b34801561060257600080fd5b50610576611a2a565b34801561061757600080fd5b5061053a611a39565b34801561062c57600080fd5b5061053a611a44565b34801561064157600080fd5b5061064a611a4d565b604080516001600160a01b039092168252519081900360200190f35b34801561067257600080fd5b5061053a611a5c565b34801561068757600080fd5b5061053a6004803603604081101561069e57600080fd5b506001600160a01b038135169060200135611adf565b3480156106c057600080fd5b5061053a611b68565b3480156106d557600080fd5b5061053a611b6e565b3480156106ea57600080fd5b50610576600480360361012081101561070257600080fd5b506001600160a01b038135169060208101359060408101359060608101359060808101359060a08101359060c08101359060e0810135906101000135611b74565b34801561074f57600080fd5b5061053a6004803603604081101561076657600080fd5b5080359060200135611cd4565b34801561077f57600080fd5b506105766004803603604081101561079657600080fd5b5080359060200135611eac565b3480156107af57600080fd5b506107e2600480360360608110156107c657600080fd5b506001600160a01b038135169060208101359060400135611f4a565b60408051938452602084019290925282820152519081900360600190f35b34801561080c57600080fd5b5061053a611f7c565b34801561082157600080fd5b50610576611f8f565b34801561083657600080fd5b5061053a611f95565b34801561084b57600080fd5b5061064a611fb2565b34801561086057600080fd5b5061053a611fc1565b34801561087557600080fd5b5061087e611fc7565b6040805192835260208301919091528051918290030190f35b3480156108a357600080fd5b50610576600480360360208110156108ba57600080fd5b5035611fd1565b3480156108cd57600080fd5b50610576611fe3565b3480156108e257600080fd5b50610576600480360360208110156108f957600080fd5b5035611fef565b34801561090c57600080fd5b5061092a6004803603602081101561092357600080fd5b503561205b565b604080519788526020880196909652868601949094526060860192909252608085015260a084015260c0830152519081900360e00190f35b34801561096e57600080fd5b50610576600480360360a081101561098557600080fd5b508035906020810135906001600160a01b03604082013581169160608101358216916080909101351661209d565b3480156109bf57600080fd5b50610576600480360360208110156109d657600080fd5b50356121ae565b3480156109e957600080fd5b5061057660048036036040811015610a0057600080fd5b50803590602001356121c0565b348015610a1957600080fd5b5061057660048036036040811015610a3057600080fd5b50803590602001356125bd565b348015610a4957600080fd5b5061057660048036036060811015610a6057600080fd5b50803590602081013590604001356126ef565b348015610a7f57600080fd5b506105766004803603610100811015610a9757600080fd5b6001600160a01b0382351691602081013591810190606081016040820135600160201b811115610ac657600080fd5b820183602082011115610ad857600080fd5b803590602001918460018302840111600160201b83111715610af957600080fd5b919350915080359060208101359060408101359060608101359060800135612967565b348015610b2857600080fd5b50610b31612a0d565b604080516001600160e81b03199092168252519081900360200190f35b348015610b5a57600080fd5b5061053a612a17565b348015610b6f57600080fd5b5061053a60048036036020811015610b8657600080fd5b5035612a1d565b348015610b9957600080fd5b5061053a60048036036040811015610bb057600080fd5b5080359060200135612a53565b348015610bc957600080fd5b5061053a612a70565b348015610bde57600080fd5b5061053a612a87565b348015610bf357600080fd5b5061053a60048036036040811015610c0a57600080fd5b506001600160a01b038135169060200135612a8d565b348015610c2c57600080fd5b5061053a60048036036040811015610c4357600080fd5b5080359060200135612acb565b348015610c5c57600080fd5b5061053a612aec565b348015610c7157600080fd5b5061053a60048036036040811015610c8857600080fd5b506001600160a01b038135169060200135612af2565b348015610caa57600080fd5b5061057660048036036020811015610cc157600080fd5b5035612b33565b348015610cd457600080fd5b5061053a60048036036040811015610ceb57600080fd5b506001600160a01b038135169060200135612b45565b348015610d0d57600080fd5b5061057660048036036020811015610d2457600080fd5b50356001600160a01b0316612baf565b348015610d4057600080fd5b50610576612c52565b348015610d5557600080fd5b5061053a612ce3565b348015610d6a57600080fd5b5061053a612cec565b348015610d7f57600080fd5b50610d9d60048036036020811015610d9657600080fd5b5035612cf2565b6040805160208082528351818301528351919283929083019185019080838360005b83811015610dd7578181015183820152602001610dbf565b50505050905090810190601f168015610e045780820380516001836020036101000a031916815260200191505b509250505060405180910390f35b348015610e1e57600080fd5b5061053a612d8d565b348015610e3357600080fd5b5061053a612d9c565b348015610e4857600080fd5b5061057660048036036040811015610e5f57600080fd5b5080359060200135612da2565b348015610e7857600080fd5b5061057660048036036040811015610e8f57600080fd5b506001600160a01b038135169060200135612e32565b348015610eb157600080fd5b5061064a612e80565b348015610ec657600080fd5b50610ecf612e8f565b604080519115158252519081900360200190f35b348015610eef57600080fd5b50610f1c60048036036040811015610f0657600080fd5b506001600160a01b038135169060200135612ea0565b604080519485526020850193909352838301919091526060830152519081900360800190f35b348015610f4e57600080fd5b5061053a612ed2565b61057660048036036020811015610f6d57600080fd5b5035612ed8565b348015610f8057600080fd5b5061053a60048036036040811015610f9757600080fd5b5080359060200135612ee3565b348015610fb057600080fd5b5061057660048036036020811015610fc757600080fd5b50356001600160a01b0316612f04565b61057660048036036020811015610fed57600080fd5b810190602081018135600160201b81111561100757600080fd5b82018360208201111561101957600080fd5b803590602001918460018302840111600160201b8311171561103a57600080fd5b509092509050612f6d565b34801561105157600080fd5b5061053a6130ef565b34801561106657600080fd5b5061053a6004803603604081101561107d57600080fd5b506001600160a01b038135169060200135613106565b34801561109f57600080fd5b50610576600480360360208110156110b657600080fd5b5035613123565b3480156110c957600080fd5b506110e7600480360360208110156110e057600080fd5b5035613135565b604080519788526020880196909652868601949094526060860192909252608085015260a08401526001600160a01b031660c0830152519081900360e00190f35b34801561113457600080fd5b506105766004803603602081101561114b57600080fd5b503561317b565b34801561115e57600080fd5b506107e26004803603604081101561117557600080fd5b506001600160a01b03813516906020013561325b565b34801561119757600080fd5b5061053a613287565b3480156111ac57600080fd5b506111ca600480360360208110156111c357600080fd5b503561328d565b60408051602080825283518183015283519192839290830191858101910280838360005b838110156112065781810151838201526020016111ee565b505050509050019250505060405180910390f35b34801561122657600080fd5b506105766004803603606081101561123d57600080fd5b50803590602081013590604001356132f2565b34801561125c57600080fd5b50610ecf6004803603602081101561127357600080fd5b5035613305565b34801561128657600080fd5b5061053a61331c565b34801561129b57600080fd5b5061053a600480360360208110156112b257600080fd5b5035613328565b3480156112c557600080fd5b5061053a61333a565b3480156112da57600080fd5b50610576600480360360408110156112f157600080fd5b50803590602001351515613340565b34801561130c57600080fd5b506105766004803603602081101561132357600080fd5b5035613522565b34801561133657600080fd5b5061053a6004803603604081101561134d57600080fd5b506001600160a01b038135169060200135613534565b34801561136f57600080fd5b50610ecf6004803603604081101561138657600080fd5b506001600160a01b038135169060200135613551565b3480156113a857600080fd5b50610ecf6135e7565b3480156113bd57600080fd5b50610576600480360360208110156113d457600080fd5b50356135f0565b3480156113e757600080fd5b5061053a613602565b3480156113fc57600080fd5b5061053a6004803603604081101561141357600080fd5b5080359060200135613608565b34801561142c57600080fd5b506105766004803603606081101561144357600080fd5b5080359060208101359060400135613629565b34801561146257600080fd5b5061053a6004803603604081101561147957600080fd5b50803590602001356136c6565b34801561149257600080fd5b50610576600480360360208110156114a957600080fd5b810190602081018135600160201b8111156114c357600080fd5b8201836020820111156114d557600080fd5b803590602001918460208302840111600160201b831117156114f657600080fd5b5090925090506136e7565b34801561150d57600080fd5b5061053a6004803603604081101561152457600080fd5b50803590602001356137c1565b34801561153d57600080fd5b506105766004803603606081101561155457600080fd5b6001600160a01b0382351691602081013591810190606081016040820135600160201b81111561158357600080fd5b82018360208201111561159557600080fd5b803590602001918460018302840111600160201b831117156115b657600080fd5b5090925090506137e2565b3480156115cd57600080fd5b50610576600480360360208110156115e457600080fd5b50356138e1565b3480156115f757600080fd5b506105766004803603608081101561160e57600080fd5b810190602081018135600160201b81111561162857600080fd5b82018360208201111561163a57600080fd5b803590602001918460208302840111600160201b8311171561165b57600080fd5b919390929091602081019035600160201b81111561167857600080fd5b82018360208201111561168a57600080fd5b803590602001918460208302840111600160201b831117156116ab57600080fd5b919390929091602081019035600160201b8111156116c857600080fd5b8201836020820111156116da57600080fd5b803590602001918460208302840111600160201b831117156116fb57600080fd5b919390929091602081019035600160201b81111561171857600080fd5b82018360208201111561172a57600080fd5b803590602001918460208302840111600160201b8311171561174b57600080fd5b5090925090506138f3565b34801561176257600080fd5b506105766004803603602081101561177957600080fd5b50356001600160a01b0316613acf565b34801561179557600080fd5b5061053a600480360360408110156117ac57600080fd5b506001600160a01b038135169060200135613b1f565b3480156117ce57600080fd5b50610576600480360360208110156117e557600080fd5b5035613b2b565b606a6020526000908152604090205481565b61180733613b3d565b61181081613bb7565b50565b608680549091019055565b33611827615f3b565b6118318284613bf2565b6020810151815191925060009161184d9163ffffffff613ce616565b9050611870838561186b856040015185613ce690919063ffffffff16565b613d40565b6001600160a01b0383166000818152607460209081526040808320888452825291829020805485019055845185820151868401518451928352928201528083019190915290518692917f4119153d17a36f9597d40e3ab4148d03261a439dddbec4e91799ab7159608e26919081900360600190a350505050565b336118f3615f3b565b6118fd8284613bf2565b90506000826001600160a01b031661193a836040015161192e85602001518660000151613ce690919063ffffffff16565b9063ffffffff613ce616565b604051600081818185875af1925050503d8060008114611976576040519150601f19603f3d011682016040523d82523d6000602084013e61197b565b606091505b50509050806119c6576040805162461bcd60e51b81526020600482015260126024820152714661696c656420746f2073656e642046544d60701b604482015290519081900360640190fd5b83836001600160a01b03167fc1d8eb6e444b89fb8ff0991c19311c070df704ccb009e210d1462d5b2410bf4584600001518560200151866040015160405180848152602001838152602001828152602001935050505060405180910390a350505050565b6087805460ff19166001179055565b60815461016d025b90565b608054600e0290565b6085546001600160a01b031681565b600080606660009054906101000a90046001600160a01b03166001600160a01b0316635584c4f96040518163ffffffff1660e01b815260040160206040518083038186803b158015611aad57600080fd5b505afa158015611ac1573d6000803e3d6000fd5b505050506040513d6020811015611ad757600080fd5b505191505090565b6000611aeb8383613551565b611b1957506001600160a01b0382166000908152607360209081526040808320848452909152902054611b62565b6001600160a01b038316600081815260746020908152604080832086845282528083205493835260738252808320868452909152902054611b5f9163ffffffff613e3d16565b90505b92915050565b60865481565b60775481565b611b7d33613e7f565b611bb85760405162461bcd60e51b815260040180806020018281038252602981526020018061608c6029913960400191505060405180910390fd5b611bc3898989613e9e565b6001600160a01b03891660009081526070602090815260408083208b84529091529020600201819055611bf587614003565b8515611cc95786861115611c3a5760405162461bcd60e51b815260040180806020018281038252602c8152602001806161db602c913960400191505060405180910390fd5b6001600160a01b03891660008181526074602090815260408083208c845282528083208a8155600181018a90556002810189905560038101889055848452607583528184208d855283529281902086905580518781529182018a9052805192938c9390927f138940e95abffcd789b497bf6188bba3afa5fbd22fb5c42c2f6018d1bf0f4e7892908290030190a3505b505050505050505050565b336000818152607460209081526040808320868452909152812090919083611d31576040805162461bcd60e51b815260206004820152600b60248201526a1e995c9bc8185b5bdd5b9d60aa1b604482015290519081900360640190fd5b611d3b8286613551565b611d7c576040805162461bcd60e51b815260206004820152600d60248201526c06e6f74206c6f636b656420757609c1b604482015290519081900360640190fd5b8054841115611dd2576040805162461bcd60e51b815260206004820152601760248201527f6e6f7420656e6f756768206c6f636b6564207374616b65000000000000000000604482015290519081900360640190fd5b611ddc8286614088565b611e28576040805162461bcd60e51b81526020600482015260186024820152776f75747374616e64696e67207346544d2062616c616e636560401b604482015290519081900360640190fd5b611e32828661412a565b506000611e4583878785600001546142f5565b825486900383559050611e59838783614426565b85836001600160a01b03167fef6c0c14fe9aa51af36acd791464dec3badbde668b63189b47bfa4e25be9b2b98784604051808381526020018281526020019250505060405180910390a395945050505050565b611eb533613e7f565b611ef05760405162461bcd60e51b815260040180806020018281038252602981526020018061608c6029913960400191505060405180910390fd5b80611f31576040805162461bcd60e51b815260206004820152600c60248201526b77726f6e672073746174757360a01b604482015290519081900360640190fd5b611f3b8282614576565b611f46826000613340565b5050565b607260209081526000938452604080852082529284528284209052825290208054600182015460029092015490919083565b6000611f866146a0565b607c5402905090565b42608655565b60006064611fa16146a0565b607e540281611fac57fe5b04905090565b6066546001600160a01b031690565b606e5481565b607954607a549091565b611fda33613b3d565b611810816146ac565b6087805460ff19169055565b611ff7612e8f565b612036576040805162461bcd60e51b815260206004820181905260248201526000805160206160d6833981519152604482015290519081900360640190fd5b6000811261204b576077805482019055611810565b6077805460008390039003905550565b607860205280600052604060002060009150905080600701549080600801549080600901549080600a01549080600b01549080600c01549080600d0154905087565b600054610100900460ff16806120b657506120b66146e7565b806120c4575060005460ff16155b6120ff5760405162461bcd60e51b815260040180806020018281038252602e8152602001806160f6602e913960400191505060405180910390fd5b600054610100900460ff1615801561212a576000805460ff1961ff0019909116610100171660011790555b612133836146ed565b61213c826147de565b6068869055606780546001600160a01b0319166001600160a01b03861617905560778590556755cfe697852e904c6076556103e86079556203f480607a55612182612a17565b60008781526078602052604090206007015580156121a6576000805461ff00191690555b505050505050565b6121b733613b3d565b611810816148c9565b336121c9615f3b565b506001600160a01b038116600090815260726020908152604080832086845282528083208584528252918290208251606081018452815480825260018301549382019390935260029091015492810192909252612265576040805162461bcd60e51b81526020600482015260156024820152741c995c5d595cdd08191bd95cdb89dd08195e1a5cdd605a1b604482015290519081900360640190fd5b61226f8285614088565b6122bb576040805162461bcd60e51b81526020600482015260186024820152776f75747374616e64696e67207346544d2062616c616e636560401b604482015290519081900360640190fd5b602080820151825160008781526069909352604090922060010154909190158015906122f7575060008681526069602052604090206001015482115b15612318575050600084815260696020526040902060018101546002909101545b612320613287565b820161232a612a17565b1015612376576040805162461bcd60e51b81526020600482015260166024820152751b9bdd08195b9bdd59da081d1a5b59481c185cdcd95960521b604482015290519081900360640190fd5b61237e612aec565b8101612388612ce3565b10156123db576040805162461bcd60e51b815260206004820152601860248201527f6e6f7420656e6f7567682065706f636873207061737365640000000000000000604482015290519081900360640190fd5b6001600160a01b038416600090815260726020908152604080832089845282528083208884529091528120600201549061241488613305565b905060006124368383608460008d815260200190815260200160002054614904565b6001600160a01b03881660009081526072602090815260408083208d845282528083208c845290915281208181556001810182905560020155606f80548201905590508083116124c6576040805162461bcd60e51b81526020600482015260166024820152751cdd185ad9481a5cc8199d5b1b1e481cdb185cda195960521b604482015290519081900360640190fd5b60006001600160a01b0388166124e2858463ffffffff613e3d16565b604051600081818185875af1925050503d806000811461251e576040519150601f19603f3d011682016040523d82523d6000602084013e612523565b606091505b505090508061256e576040805162461bcd60e51b81526020600482015260126024820152714661696c656420746f2073656e642046544d60701b604482015290519081900360640190fd5b888a896001600160a01b03167f75e161b3e824b114fc1a33274bd7091918dd4e639cede50b78b15a4eea956a21876040518082815260200191505060405180910390a450505050505050505050565b6125c5612e8f565b612604576040805162461bcd60e51b815260206004820181905260248201526000805160206160d6833981519152604482015290519081900360640190fd5b61260d82613305565b61265e576040805162461bcd60e51b815260206004820152601760248201527f76616c696461746f722069736e277420736c6173686564000000000000000000604482015290519081900360640190fd5b6126666146a0565b8111156126a45760405162461bcd60e51b81526004018080602001828103825260218152602001806161696021913960400191505060405180910390fd5b6000828152608460209081526040918290208390558151838152915184927f047575f43f09a7a093d94ec483064acfc61b7e25c0de28017da442abf99cb91792908290030190a25050565b336126fa818561412a565b506000821161273e576040805162461bcd60e51b815260206004820152600b60248201526a1e995c9bc8185b5bdd5b9d60aa1b604482015290519081900360640190fd5b6127488185611adf565b82111561279c576040805162461bcd60e51b815260206004820152601960248201527f6e6f7420656e6f75676820756e6c6f636b6564207374616b6500000000000000604482015290519081900360640190fd5b6127a68185614088565b6127f2576040805162461bcd60e51b81526020600482015260186024820152776f75747374616e64696e67207346544d2062616c616e636560401b604482015290519081900360640190fd5b6001600160a01b0381166000908152607260209081526040808320878452825280832086845290915290206002015415612869576040805162461bcd60e51b81526020600482015260136024820152727772494420616c72656164792065786973747360681b604482015290519081900360640190fd5b612874818584614426565b6001600160a01b0381166000908152607260209081526040808320878452825280832086845290915290206002018290556128ad612ce3565b6001600160a01b038216600090815260726020908152604080832088845282528083208784529091529020556128e1612a17565b6001600160a01b0382166000908152607260209081526040808320888452825280832087845290915281206001019190915561291e908590613340565b8284826001600160a01b03167fd3bb4e423fbea695d16b982f9f682dc5f35152e5411646a8a5a79a6b02ba8d57856040518082815260200191505060405180910390a450505050565b61297033613e7f565b6129ab5760405162461bcd60e51b815260040180806020018281038252602981526020018061608c6029913960400191505060405180910390fd5b6129f3898989898080601f0160208091040260200160405190810160405280939291908181526020018383808284376000920191909152508b92508a91508990508888614966565b606c54881115611cc957606c889055505050505050505050565b6219981960e91b90565b60865490565b6000818152606960209081526040808320600601546001600160a01b03168352607382528083208484529091529020545b919050565b600091825260786020908152604080842092845291905290205490565b60006064612a7c6146a0565b607f540281611fac57fe5b606f5481565b6000612a97615f3b565b612aa18484614b15565b805160208201516040830151929350612ac39261192e9163ffffffff613ce616565b949350505050565b60009182526078602090815260408084209284526001909201905290205490565b60825490565b6000612afe8383613551565b612b0a57506000611b62565b506001600160a01b03919091166000908152607460209081526040808320938352929052205490565b612b3c33613b3d565b61181081614b83565b6000612b4f615f3b565b506001600160a01b038316600090815260706020908152604080832085845282529182902082516060810184528154808252600183015493820184905260029092015493810184905292612ac392909161192e919063ffffffff613ce616565b612bb7612e8f565b612bf6576040805162461bcd60e51b815260206004820181905260248201526000805160206160d6833981519152604482015290519081900360640190fd5b6066546040516001600160a01b038084169216907f434a2db650703b36c824e745330d6397cdaa9ee2cc891a4938ae853e1c50b68d90600090a3606680546001600160a01b0319166001600160a01b0392909216919091179055565b612c5a612e8f565b612c99576040805162461bcd60e51b815260206004820181905260248201526000805160206160d6833981519152604482015290519081900360640190fd5b6033546040516000916001600160a01b0316907f8be0079c531659141344cd1fd0a4f28419497f9722a3daafe3b4186f6b6457e0908390a3603380546001600160a01b0319169055565b60685460010190565b60685481565b606b6020908152600091825260409182902080548351601f600260001961010060018616150201909316929092049182018490048402810184019094528084529091830182828015612d855780601f10612d5a57610100808354040283529160200191612d85565b820191906000526020600020905b815481529060010190602001808311612d6857829003601f168201915b505050505081565b6000612d97614bbe565b905090565b606d5481565b612daa612e8f565b612de9576040805162461bcd60e51b815260206004820181905260248201526000805160206160d6833981519152604482015290519081900360640190fd5b607a8190556079829055604080518381526020810183905281517f702756a07c05d0bbfd06fc17b67951a5f4deb7bb6b088407e68a58969daf2a34929181900390910190a15050565b612e3c828261412a565b611f46576040805162461bcd60e51b815260206004820152601060248201526f0dcdee8d0d2dcce40e8de40e6e8c2e6d60831b604482015290519081900360640190fd5b6033546001600160a01b031690565b6033546001600160a01b0316331490565b607460209081526000928352604080842090915290825290208054600182015460028301546003909301549192909184565b607c5490565b611810338234613d40565b60009182526078602090815260408084209284526005909201905290205490565b612f0c612e8f565b612f4b576040805162461bcd60e51b815260206004820181905260248201526000805160206160d6833981519152604482015290519081900360640190fd5b608580546001600160a01b0319166001600160a01b0392909216919091179055565b612f7561331c565b341015612fc3576040805162461bcd60e51b8152602060048201526017602482015276696e73756666696369656e742073656c662d7374616b6560481b604482015290519081900360640190fd5b8015801590612fd3575060428111155b613013576040805162461bcd60e51b815260206004820152600c60248201526b656d707479207075626b657960a01b604482015290519081900360640190fd5b6000805b60048110156130565783838281016003190181811061303257fe5b909101356001600160f81b03191615905061304e578160010191505b600101613017565b506000811161309d576040805162461bcd60e51b815260206004820152600e60248201526d696e76616c6964207075626b657960901b604482015290519081900360640190fd5b6130dd3384848080601f016020809104026020016040519081016040528093929190818152602001838380828437600092019190915250614bc292505050565b6130ea33606c5434613d40565b505050565b600060646130fb6146a0565b607d540281611fac57fe5b607160209081526000928352604080842090915290825290205481565b61312c33613b3d565b61181081614bed565b606960205260009081526040902080546001820154600283015460038401546004850154600586015460069096015494959394929391929091906001600160a01b031687565b613183612e8f565b6131c2576040805162461bcd60e51b815260206004820181905260248201526000805160206160d6833981519152604482015290519081900360640190fd5b6801c985c8903591eb20811115613220576040805162461bcd60e51b815260206004820152601b60248201527f746f6f206c617267652072657761726420706572207365636f6e640000000000604482015290519081900360640190fd5b60768190556040805182815290517f8cd9dae1bbea2bc8a5e80ffce2c224727a25925130a03ae100619a8861ae23969181900360200190a150565b607560209081526000928352604080842090915290825290208054600182015460029092015490919083565b60835490565b6000818152607860209081526040918290206006018054835181840281018401909452808452606093928301828280156132e657602002820191906000526020600020905b8154815260200190600101908083116132d2575b50505050509050919050565b336132ff81858585614c28565b50505050565b600090815260696020526040902054608016151590565b670467fc915c2fc00090565b60846020526000908152604090205481565b606c5481565b61334982614eda565b613394576040805162461bcd60e51b81526020600482015260176024820152761d985b1a59185d1bdc88191bd95cdb89dd08195e1a5cdd604a1b604482015290519081900360640190fd5b600082815260696020526040902060038101549054156133b2575060005b6067546040805163520337df60e11b8152600481018690526024810184905290516001600160a01b039092169163a4066fbe9160448082019260009290919082900301818387803b15801561340657600080fd5b505af115801561341a573d6000803e3d6000fd5b5050505081801561342a57508015155b156130ea576067546000848152606b602052604090819020815163242a6e3f60e01b81526004810187815260248201938452825460026000196001831615610100020190911604604483018190526001600160a01b039095169463242a6e3f948994939091606490910190849080156134e45780601f106134b9576101008083540402835291602001916134e4565b820191906000526020600020905b8154815290600101906020018083116134c757829003601f168201915b50509350505050600060405180830381600087803b15801561350557600080fd5b505af1158015613519573d6000803e3d6000fd5b50505050505050565b61352b33613b3d565b61181081614ef1565b607360209081526000928352604080842090915290825290205481565b6001600160a01b0382166000908152607460209081526040808320848452909152812060020154158015906135a857506001600160a01b038316600090815260746020908152604080832085845290915290205415155b8015611b5f57506001600160a01b03831660009081526074602090815260408083208584529091529020600201546135de612a17565b11159392505050565b60875460ff1681565b6135f933613b3d565b61181081614f2c565b60765481565b60009182526078602090815260408084209284526003909201905290205490565b338161366a576040805162461bcd60e51b815260206004820152600b60248201526a1e995c9bc8185b5bdd5b9d60aa1b604482015290519081900360640190fd5b6136748185613551565b156136ba576040805162461bcd60e51b81526020600482015260116024820152700616c7265616479206c6f636b656420757607c1b604482015290519081900360640190fd5b6132ff81858585614c28565b60009182526078602090815260408084209284526002909201905290205490565b6136f033613e7f565b61372b5760405162461bcd60e51b815260040180806020018281038252602981526020018061608c6029913960400191505060405180910390fd5b600060786000613739612ce3565b8152602001908152602001600020905060008090505b828110156137b257600084848381811061376557fe5b60209081029290920135600081815260698452604080822060030154948890529020839055600c8601549093506137a391508263ffffffff613ce616565b600c850155505060010161374f565b506132ff600682018484615f5c565b60009182526078602090815260408084209284526004909201905290205490565b6137ea612e8f565b613829576040805162461bcd60e51b815260206004820181905260248201526000805160206160d6833981519152604482015290519081900360640190fd5b61383283614003565b6040516001600160a01b0385169084156108fc029085906000818181858888f19350505050158015613868573d6000803e3d6000fd5b50836001600160a01b03167f9eec469b348bcf64bbfb60e46ce7b160e2e09bf5421496a2cdbc43714c28b8ad84848460405180848152602001806020018281038252848482818152602001925080828437600083820152604051601f909101601f1916909201829003965090945050505050a250505050565b6138ea33613b3d565b61181081614f67565b6138fc33613e7f565b6139375760405162461bcd60e51b815260040180806020018281038252602981526020018061608c6029913960400191505060405180910390fd5b600060786000613945612ce3565b815260200190815260200160002090506060816006018054806020026020016040519081016040528092919081815260200182805480156139a557602002820191906000526020600020905b815481526020019060010190808311613991575b50505050509050613a2c82828c8c80806020026020016040519081016040528093929190818152602001838360200280828437600081840152601f19601f820116905080830192505050505050508b8b80806020026020016040519081016040528093929190818152602001838360200280828437600092019190915250614fa292505050565b613a9b828288888080602002602001604051908101604052809392919081815260200183836020028082843760009201919091525050604080516020808c0282810182019093528b82529093508b92508a9182918501908490808284376000920191909152506150b892505050565b613aa3612ce3565b606855613aae612a17565b600783015550607654600b820155607754600d909101555050505050505050565b613ad7612e8f565b613b16576040805162461bcd60e51b815260206004820181905260248201526000805160206160d6833981519152604482015290519081900360640190fd5b611810816156fe565b6000611b5f838361579f565b613b3433613b3d565b6118108161585e565b613b45611fb2565b6001600160a01b0316816001600160a01b03161480613b7c5750613b67612e80565b6001600160a01b0316816001600160a01b0316145b6118105760405162461bcd60e51b81526004018080602001828103825260458152602001806161246045913960600191505060405180910390fd5b607c8190556040805182815290517fd3b49810855efc7d611424cd0a8cc519b92cf2e97bd3516921dff1a19b101e359181900360200190a150565b613bfa615f3b565b613c04838361412a565b50506001600160a01b038216600090815260706020908152604080832084845282528083208151606081018352815480825260018301549482018590526002909201549281018390529392613c629261192e9163ffffffff613ce616565b905080613ca5576040805162461bcd60e51b815260206004820152600c60248201526b7a65726f207265776172647360a01b604482015290519081900360640190fd5b6001600160a01b038416600090815260706020908152604080832086845290915281208181556001810182905560020155613cdf81614003565b5092915050565b600082820183811015611b5f576040805162461bcd60e51b815260206004820152601b60248201527f536166654d6174683a206164646974696f6e206f766572666c6f770000000000604482015290519081900360640190fd5b613d4982614eda565b613d94576040805162461bcd60e51b81526020600482015260176024820152761d985b1a59185d1bdc88191bd95cdb89dd08195e1a5cdd604a1b604482015290519081900360640190fd5b60008281526069602052604090205415613dee576040805162461bcd60e51b815260206004820152601660248201527576616c696461746f722069736e27742061637469766560501b604482015290519081900360640190fd5b613df9838383613e9e565b613e0282615899565b6130ea5760405162461bcd60e51b81526004018080602001828103825260298152602001806161b26029913960400191505060405180910390fd5b6000611b5f83836040518060400160405280601e81526020017f536166654d6174683a207375627472616374696f6e206f766572666c6f7700008152506158e1565b60875460009060ff1615613e9557506001612a4e565b611b6282615978565b60008111613ee1576040805162461bcd60e51b815260206004820152600b60248201526a1e995c9bc8185b5bdd5b9d60aa1b604482015290519081900360640190fd5b613eeb838361412a565b506001600160a01b0383166000908152607360209081526040808320858452909152902054613f20908263ffffffff613ce616565b6001600160a01b0384166000908152607360209081526040808320868452825280832093909355606990522060030154613f60818363ffffffff613ce616565b600084815260696020526040902060030155606d54613f85908363ffffffff613ce616565b606d55600083815260696020526040902054613fb257606e54613fae908363ffffffff613ce616565b606e555b613fbd838215613340565b60408051838152905184916001600160a01b038716917f9a8f44850296624dadfd9c246d17e47171d35727a181bd090aa14bbbe00238bb9181900360200190a350505050565b606754604080516366e7ea0f60e01b81523060048201526024810184905290516001600160a01b03909216916366e7ea0f9160448082019260009290919082900301818387803b15801561405657600080fd5b505af115801561406a573d6000803e3d6000fd5b5050607754614082925090508263ffffffff613ce616565b60775550565b6085546000906001600160a01b03166140a357506001611b62565b608554604080516321d585c360e01b81526001600160a01b03868116600483015260248201869052915191909216916321d585c3916044808301926020929190829003018186803b1580156140f757600080fd5b505afa15801561410b573d6000803e3d6000fd5b505050506040513d602081101561412157600080fd5b50519392505050565b6000614134615f3b565b61413e848461598c565b905061414983615ac4565b6001600160a01b038516600081815260716020908152604080832088845282528083209490945591815260708252828120868252825282902082516060810184528154815260018201549281019290925260020154918101919091526141af9082615b1f565b6001600160a01b0385166000818152607060209081526040808320888452825280832085518155858301516001808301919091559582015160029182015593835260758252808320888452825291829020825160608101845281548152948101549185019190915290910154908201526142299082615b1f565b6001600160a01b03851660009081526075602090815260408083208784528252918290208351815590830151600182015591015160029091015561426d8484613551565b6142d0576001600160a01b0384166000818152607460209081526040808320878452825280832083815560018082018590556002808301869055600390920185905594845260758352818420888552909252822082815592830182905591909101555b60208101511515806142e25750805115155b80612ac357506040015115159392505050565b6001600160a01b0384166000908152607560209081526040808320868452909152812054819061433d908490614331908763ffffffff615b9116565b9063ffffffff615bea16565b6001600160a01b03871660009081526075602090815260408083208984529091528120600101549192509061437e908590614331908863ffffffff615b9116565b6001600160a01b03881660009081526075602090815260408083208a8452909152902054909150600282048301906143b69084613e3d565b6001600160a01b03891660009081526075602090815260408083208b84529091529020908155600101546143ea9083613e3d565b6001600160a01b03891660009081526075602090815260408083208b845290915290206001015585811061441b5750845b979650505050505050565b6001600160a01b0383166000908152607360209081526040808320858452825280832080548590039055606990915290206003015461446b908263ffffffff613e3d16565b600083815260696020526040902060030155606d54614490908263ffffffff613e3d16565b606d556000828152606960205260409020546144bd57606e546144b9908263ffffffff613e3d16565b606e555b60006144c883612a1d565b9050801561456f576144d861331c565b811015614526576040805162461bcd60e51b8152602060048201526017602482015276696e73756666696369656e742073656c662d7374616b6560481b604482015290519081900360640190fd5b61452f83615899565b61456a5760405162461bcd60e51b81526004018080602001828103825260298152602001806161b26029913960400191505060405180910390fd5b6132ff565b6132ff8360015b60008281526069602052604090205415801561459157508015155b156145be57600082815260696020526040902060030154606e546145ba9163ffffffff613e3d16565b606e555b600082815260696020526040902054811115611f4657600082815260696020526040902081815560020154614666576145f5612ce3565b60008381526069602052604090206002015561460f612a17565b6000838152606960209081526040918290206001810184905560020154825190815290810192909252805184927fac4801c32a6067ff757446524ee4e7a373797278ac3c883eac5c693b4ad72e4792908290030190a25b60408051828152905183917fcd35267e7654194727477d6c78b541a553483cff7f92a055d17868d3da6e953e919081900360200190a25050565b670de0b6b3a764000090565b607d8190556040805182815290517f969e21e21af49053b3bfee796b627ebc26e10328889e90a47da2f1205d3e8f139181900360200190a150565b303b1590565b600054610100900460ff168061470657506147066146e7565b80614714575060005460ff16155b61474f5760405162461bcd60e51b815260040180806020018281038252602e8152602001806160f6602e913960400191505060405180910390fd5b600054610100900460ff1615801561477a576000805460ff1961ff0019909116610100171660011790555b603380546001600160a01b0319166001600160a01b0384811691909117918290556040519116906000907f8be0079c531659141344cd1fd0a4f28419497f9722a3daafe3b4186f6b6457e0908290a38015611f46576000805461ff00191690555050565b600054610100900460ff16806147f757506147f76146e7565b80614805575060005460ff16155b6148405760405162461bcd60e51b815260040180806020018281038252602e8152602001806160f6602e913960400191505060405180910390fd5b600054610100900460ff1615801561486b576000805460ff1961ff0019909116610100171660011790555b606680546001600160a01b0319166001600160a01b0384169081179091556040516000907f434a2db650703b36c824e745330d6397cdaa9ee2cc891a4938ae853e1c50b68d908290a38015611f46576000805461ff00191690555050565b60808190556040805182815290517f31d33f23d1e7fe45f7e898c070587ff0f2f519674e5e2a12f90b3a17c77f6ad19181900360200190a150565b600082158061491a57506149166146a0565b8210155b156149275750600061495f565b614952600161192e6149376146a0565b614331866149436146a0565b8a91900363ffffffff615b9116565b90508381111561495f5750825b9392505050565b6001600160a01b0388166000908152606a6020526040902054156149d1576040805162461bcd60e51b815260206004820152601860248201527f76616c696461746f7220616c7265616479206578697374730000000000000000604482015290519081900360640190fd5b6001600160a01b0388166000818152606a602090815260408083208b90558a8352606982528083208981556004810189905560058101889055600181018690556002810187905560060180546001600160a01b031916909417909355606b81529190208751614a4292890190615fa7565b50876001600160a01b0316877f49bca1ed2666922f9f1690c26a569e1299c2a715fe57647d77e81adfabbf25bf8686604051808381526020018281526020019250505060405180910390a38115614ace576040805183815260208101839052815189927fac4801c32a6067ff757446524ee4e7a373797278ac3c883eac5c693b4ad72e47928290030190a25b8415614b0b5760408051868152905188917fcd35267e7654194727477d6c78b541a553483cff7f92a055d17868d3da6e953e919081900360200190a25b5050505050505050565b614b1d615f3b565b614b25615f3b565b614b2f848461598c565b6001600160a01b03851660009081526070602090815260408083208784528252918290208251606081018452815481526001820154928101929092526002015491810191909152909150612ac39082615b1f565b60828190556040805182815290517f2f273767369d76e1ecbee32ed26135f390df620f085feb7a6f2e3dd51985bd5f9181900360200190a150565b4290565b606c8054600101908190556130ea8382846000614bdd612ce3565b614be5612a17565b600080614966565b607e8190556040805182815290517f12420e865335c7cfb225296eb0adaca14bfb1de93b3731ed1e0434746a4d91249181900360200190a150565b614c328484611adf565b811115614c79576040805162461bcd60e51b815260206004820152601060248201526f6e6f7420656e6f756768207374616b6560801b604482015290519081900360640190fd5b60008381526069602052604090205415614cd3576040805162461bcd60e51b815260206004820152601660248201527576616c696461746f722069736e27742061637469766560501b604482015290519081900360640190fd5b614cdb611a44565b8210158015614cf15750614ced611a39565b8211155b614d37576040805162461bcd60e51b815260206004820152601260248201527134b731b7b93932b1ba10323ab930ba34b7b760711b604482015290519081900360640190fd5b6000614d458361192e612a17565b6000858152606960205260409020600601549091506001600160a01b039081169086168114614dd3576001600160a01b0381166000908152607460209081526040808320888452909152902060020154821115614dd35760405162461bcd60e51b815260040180806020018281038252602881526020018061618a6028913960400191505060405180910390fd5b614ddd868661412a565b506001600160a01b038616600090815260746020908152604080832088845290915290206003810154851015614e5a576040805162461bcd60e51b815260206004820152601f60248201527f6c6f636b7570206475726174696f6e2063616e6e6f7420646563726561736500604482015290519081900360640190fd5b8054614e6c908563ffffffff613ce616565b8155614e76612ce3565b600182015560028101839055600381018590556040805186815260208101869052815188926001600160a01b038b16927f138940e95abffcd789b497bf6188bba3afa5fbd22fb5c42c2f6018d1bf0f4e78929081900390910190a350505050505050565b600090815260696020526040902060050154151590565b607f8190556040805182815290517fcda2f8a6b9050afa9ac1f8d6ff9a123894f76a5530c6c29636332c995a1f97159181900360200190a150565b607b8190556040805182815290517fe9a0db1369c39eb7fc2ed3d7e122f9ee60952b075329b1e84bce8843367210f49181900360200190a150565b60838190556040805182815290517f9e85e6207a28e085f027a9b979cad850f4c36a581dd42c119e856c04b92d96119181900360200190a150565b60005b83518110156150b157607954828281518110614fbd57fe5b6020026020010151118015614fe75750607a54838281518110614fdc57fe5b602002602001015110155b156150285761500a848281518110614ffb57fe5b60200260200101516008614576565b61502884828151811061501957fe5b60200260200101516000613340565b82818151811061503457fe5b602002602001015185600401600086848151811061504e57fe5b602002602001015181526020019081526020016000208190555081818151811061507457fe5b602002602001015185600501600086848151811061508e57fe5b602090810291909101810151825281019190915260400160002055600101614fa5565b5050505050565b6150c0616015565b6040518060c0016040528085516040519080825280602002602001820160405280156150f6578160200160208202803883390190505b50815260200160008152602001855160405190808252806020026020018201604052801561512e578160200160208202803883390190505b508152602001600081526020016000815260200160008152509050600060786000615168600161515c612ce3565b9063ffffffff613e3d16565b8152602081019190915260400160002060016080840152600781015490915061518f612a17565b11156151a95780600701546151a2612a17565b0360808301525b60005b85518110156152b15760008260030160008884815181106151c957fe5b602002602001015181526020019081526020016000205490506000809050818684815181106151f457fe5b6020026020010151111561521b578186848151811061520f57fe5b60200260200101510390505b846080015187848151811061522c57fe5b602002602001015182028161523d57fe5b048560400151848151811061524e57fe5b6020026020010181815250506152888560400151848151811061526d57fe5b60200260200101518660600151613ce690919063ffffffff16565b606086015260a08501516152a2908263ffffffff613ce616565b60a086015250506001016151ac565b5060005b85518110156153825782608001518582815181106152cf57fe5b602002602001015184608001518784815181106152e857fe5b60200260200101518a60000160008b878151811061530257fe5b6020026020010151815260200190815260200160002054028161532157fe5b04028161532a57fe5b048360000151828151811061533b57fe5b6020026020010181815250506153758360000151828151811061535a57fe5b60200260200101518460200151613ce690919063ffffffff16565b60208401526001016152b5565b5060005b85518110156156d65760006153be8460800151607654866000015185815181106153ac57fe5b60200260200101518760200151615c2c565b90506153fa6153ed8560a00151866040015185815181106153db57fe5b60200260200101518760600151615c6d565b829063ffffffff613ce616565b9050600087838151811061540a57fe5b6020908102919091018101516000818152606990925260408220600601549092506001600160a01b031690615446846154416130ef565b615cca565b6001600160a01b038316600090815260736020908152604080832087845290915290205490915080156155ed576000816154808587612af2565b84028161548957fe5b049050808303615497615f3b565b6001600160a01b03861660009081526074602090815260408083208a84529091529020600301546154c9908490615ce7565b90506154d3615f3b565b6154de836000615ce7565b6001600160a01b03881660009081526070602090815260408083208c84528252918290208251606081018452815481526001820154928101929092526002015491810191909152909150615533908383615dd8565b6001600160a01b03881660008181526070602090815260408083208d84528252808320855181558583015160018083019190915595820151600291820155938352607582528083208d8452825291829020825160608101845281548152948101549185019190915290910154908201526155ae908383615dd8565b6001600160a01b03881660009081526075602090815260408083208c845282529182902083518155908301516001820155910151600290910155505050505b60008481526069602052604081206003015483870391811561561f57816156126146a0565b84028161561b57fe5b0490505b808a600101600089815260200190815260200160002054018f6001016000898152602001908152602001600020819055508b898151811061565c57fe5b60200260200101518f6003016000898152602001908152602001600020819055508c898151811061568957fe5b60200260200101518a600201600089815260200190815260200160002054018f60020160008981526020019081526020016000208190555050505050505050508080600101915050615386565b505060a081015160088601556020810151600986015560600151600a90940193909355505050565b6001600160a01b0381166157435760405162461bcd60e51b81526004018080602001828103825260268152602001806160666026913960400191505060405180910390fd5b6033546040516001600160a01b038084169216907f8be0079c531659141344cd1fd0a4f28419497f9722a3daafe3b4186f6b6457e090600090a3603380546001600160a01b0319166001600160a01b0392909216919091179055565b6001600160a01b03821660009081526074602090815260408083208484529091528120600101546068546157d4858583615df3565b156157e2579150611b629050565b6157ed858584615df3565b6157fc57600092505050611b62565b8082111561580f57600092505050611b62565b8082101561584257600281830104615828868683615df3565b156158385780600101925061583c565b8091505b5061580f565b8061585257600092505050611b62565b60001901949350505050565b60818190556040805182815290517fd830c33dec392daf6dfeac9834107217392396bc333bcbb92e6c1c1a5e8726319181900360200190a150565b60006158c66158a66146a0565b6143316158b1611f7c565b6158ba86612a1d565b9063ffffffff615b9116565b60008381526069602052604090206003015411159050919050565b600081848411156159705760405162461bcd60e51b81526004018080602001828103825283818151815260200191508051906020019080838360005b8381101561593557818101518382015260200161591d565b50505050905090810190601f1680156159625780820380516001836020036101000a031916815260200191505b509250505060405180910390fd5b505050900390565b6067546001600160a01b0390811691161490565b615994615f3b565b6001600160a01b0383166000908152607160209081526040808320858452909152812054906159c284615ac4565b905060006159d0868661579f565b9050818111156159dd5750805b828110156159e85750815b6001600160a01b03861660008181526074602090815260408083208984528252808320938352607382528083208984529091528120548254909190615a3490839063ffffffff613e3d16565b90506000615a4884600001548a8988615e5e565b9050615a52615f3b565b615a60828660030154615ce7565b9050615a6e838b8a89615e5e565b9150615a78615f3b565b615a83836000615ce7565b9050615a91858c898b615e5e565b9250615a9b615f3b565b615aa6846000615ce7565b9050615ab3838383615dd8565b9d9c50505050505050505050505050565b60008181526069602052604081206002015415615b17576000828152606960205260409020600201546068541015615aff5750606854612a4e565b50600081815260696020526040902060020154612a4e565b505060685490565b615b27615f3b565b6040805160608101909152825184518291615b48919063ffffffff613ce616565b8152602001615b6884602001518660200151613ce690919063ffffffff16565b8152602001615b8884604001518660400151613ce690919063ffffffff16565b90529392505050565b600082615ba057506000611b62565b82820282848281615bad57fe5b0414611b5f5760405162461bcd60e51b81526004018080602001828103825260218152602001806160b56021913960400191505060405180910390fd5b6000611b5f83836040518060400160405280601a81526020017f536166654d6174683a206469766973696f6e206279207a65726f000000000000815250615ec1565b600082615c3b57506000612ac3565b6000615c4d868663ffffffff615b9116565b9050615c6383614331838763ffffffff615b9116565b9695505050505050565b600082615c7c5750600061495f565b6000615c9283614331878763ffffffff615b9116565b9050615cc1615c9f6146a0565b614331615caa611f95565b615cb26146a0565b8591900363ffffffff615b9116565b95945050505050565b6000611b5f615cd76146a0565b614331858563ffffffff615b9116565b615cef615f3b565b604051806060016040528060008152602001600081526020016000815250905081600014615daa576000615d21612a70565b615d296146a0565b0390506000615d49615d39611a39565b614331848763ffffffff615b9116565b90506000615d72615d586146a0565b61433184615d64612a70565b8a910163ffffffff615b9116565b9050615d97615d7f6146a0565b614331615d8a612a70565b899063ffffffff615b9116565b602085018190529003835250611b629050565b615dcd615db56146a0565b614331615dc0612a70565b869063ffffffff615b9116565b604082015292915050565b615de0615f3b565b612ac3615ded8585615b1f565b83615b1f565b6001600160a01b03831660009081526074602090815260408083208584529091528120600101548210801590612ac357506001600160a01b0384166000908152607460209081526040808320868452909152902060020154615e5483615f26565b1115949350505050565b6000818310615e6f57506000612ac3565b60008381526078602081815260408084208885526001908101835281852054878652938352818520898652019091529091205461441b615ead6146a0565b614331896158ba858763ffffffff613e3d16565b60008183615f105760405162461bcd60e51b815260206004820181815283516024840152835190928392604490910191908501908083836000831561593557818101518382015260200161591d565b506000838581615f1c57fe5b0495945050505050565b60009081526078602052604090206007015490565b60405180606001604052806000815260200160008152602001600081525090565b828054828255906000526020600020908101928215615f97579160200282015b82811115615f97578235825591602001919060010190615f7c565b50615fa392915061604b565b5090565b828054600181600116156101000203166002900490600052602060002090601f016020900481019282601f10615fe857805160ff1916838001178555615f97565b82800160010185558215615f97579182015b82811115615f97578251825591602001919060010190615ffa565b6040518060c001604052806060815260200160008152602001606081526020016000815260200160008152602001600081525090565b611a4191905b80821115615fa3576000815560010161605156fe4f776e61626c653a206e6577206f776e657220697320746865207a65726f206164647265737363616c6c6572206973206e6f7420746865204e6f64654472697665724175746820636f6e7472616374536166654d6174683a206d756c7469706c69636174696f6e206f766572666c6f774f776e61626c653a2063616c6c6572206973206e6f7420746865206f776e6572436f6e747261637420696e7374616e63652068617320616c7265616479206265656e20696e697469616c697a65645346433a20746869732066756e6374696f6e20697320636f6e74726f6c6c656420627920746865206f776e657220616e6420676f7665726e616e636520636f6e74726163746d757374206265206c657373207468616e206f7220657175616c20746f20312e3076616c696461746f72206c6f636b757020706572696f642077696c6c20656e64206561726c69657276616c696461746f7227732064656c65676174696f6e73206c696d69742069732065786365656465646c6f636b6564207374616b652069732067726561746572207468616e207468652077686f6c65207374616b65a265627a7a7231582022d6a8f4da2e759f7e5143d21a0c5e3cac86a5883a3aa86cb887f024591ba47b64736f6c63430005110032",
  "linkReferences": {},
  "deployedLinkReferences": {}
}