{
  "_format": "hh-sol-artifact-1",
  "contractName": "UnitTestSFC",
  "sourceName": "contracts/test/UnitTestSFC.sol",
  "abi": [
    {
      "anonymous": false,
      "inputs": [
        {
          "indexed": true,
          "internalType": "uint256",
          "name": "validatorID",
          "type": "uint256"
        },
        {
          "indexed": false,
          "internalType": "uint256",
          "name": "status",
          "type": "uint256"
        }
      ],
      "name": "ChangedValidatorStatus",
      "type": "event"
    },
    {
      "anonymous": false,
      "inputs": [
        {
          "indexed": true,
          "internalType": "address",
          "name": "delegator",
          "type": "address"
        },
        {
          "indexed": true,
          "internalType": "uint256",
          "name": "toValidatorID",
          "type": "uint256"
        },
        {
          "indexed": false,
          "internalType": "uint256",
          "name": "lockupExtraReward",
          "type": "uint256"
        },
        {
          "indexed": false,
          "internalType": "uint256",
          "name": "lockupBaseReward",
          "type": "uint256"
        },
        {
          "indexed": false,
          "internalType": "uint256",
          "name": "unlockedReward",
          "type": "uint256"
        }
      ],
      "name": "ClaimedRewards",
      "type": "event"
    },
    {
      "anonymous": false,
      "inputs": [
        {
          "indexed": true,
          "internalType": "uint256",
          "name": "validatorID",
          "type": "uint256"
        },
        {
          "indexed": true,
          "internalType": "address",
          "name": "auth",
          "type": "address"
        },
        {
          "indexed": false,
          "internalType": "uint256",
          "name": "createdEpoch",
          "type": "uint256"
        },
        {
          "indexed": false,
          "internalType": "uint256",
          "name": "createdTime",
          "type": "uint256"
        }
      ],
      "name": "CreatedValidator",
      "type": "event"
    },
    {
      "anonymous": false,
      "inputs": [
        {
          "indexed": true,
          "internalType": "uint256",
          "name": "validatorID",
          "type": "uint256"
        },
        {
          "indexed": false,
          "internalType": "uint256",
          "name": "deactivatedEpoch",
          "type": "uint256"
        },
        {
          "indexed": false,
          "internalType": "uint256",
          "name": "deactivatedTime",
          "type": "uint256"
        }
      ],
      "name": "DeactivatedValidator",
      "type": "event"
    },
    {
      "anonymous": false,
      "inputs": [
        {
          "indexed": true,
          "internalType": "address",
          "name": "delegator",
          "type": "address"
        },
        {
          "indexed": true,
          "internalType": "uint256",
          "name": "toValidatorID",
          "type": "uint256"
        },
        {
          "indexed": false,
          "internalType": "uint256",
          "name": "amount",
          "type": "uint256"
        }
      ],
      "name": "Delegated",
      "type": "event"
    },
    {
      "anonymous": false,
      "inputs": [
        {
          "indexed": true,
          "internalType": "address",
          "name": "previousGovernance",
          "type": "address"
        },
        {
          "indexed": true,
          "internalType": "address",
          "name": "newGovernance",
          "type": "address"
        }
      ],
      "name": "GovernanceTransferred",
      "type": "event"
    },
    {
      "anonymous": false,
      "inputs": [
        {
          "indexed": true,
          "internalType": "address",
          "name": "previousAddress",
          "type": "address"
        },
        {
          "indexed": true,
          "internalType": "address",
          "name": "newAddress",
          "type": "address"
        }
      ],
      "name": "GovernanceUpdated",
      "type": "event"
    },
    {
      "anonymous": false,
      "inputs": [
        {
          "indexed": true,
          "internalType": "address",
          "name": "receiver",
          "type": "address"
        },
        {
          "indexed": false,
          "internalType": "uint256",
          "name": "amount",
          "type": "uint256"
        },
        {
          "indexed": false,
          "internalType": "string",
          "name": "justification",
          "type": "string"
        }
      ],
      "name": "InflatedFTM",
      "type": "event"
    },
    {
      "anonymous": false,
      "inputs": [
        {
          "indexed": true,
          "internalType": "address",
          "name": "delegator",
          "type": "address"
        },
        {
          "indexed": true,
          "internalType": "uint256",
          "name": "validatorID",
          "type": "uint256"
        },
        {
          "indexed": false,
          "internalType": "uint256",
          "name": "duration",
          "type": "uint256"
        },
        {
          "indexed": false,
          "internalType": "uint256",
          "name": "amount",
          "type": "uint256"
        }
      ],
      "name": "LockedUpStake",
      "type": "event"
    },
    {
      "anonymous": false,
      "inputs": [
        {
          "indexed": true,
          "internalType": "address",
          "name": "previousOwner",
          "type": "address"
        },
        {
          "indexed": true,
          "internalType": "address",
          "name": "newOwner",
          "type": "address"
        }
      ],
      "name": "OwnershipTransferred",
      "type": "event"
    },
    {
      "anonymous": false,
      "inputs": [
        {
          "indexed": true,
          "internalType": "address",
          "name": "delegator",
          "type": "address"
        },
        {
          "indexed": true,
          "internalType": "uint256",
          "name": "validatorID",
          "type": "uint256"
        },
        {
          "indexed": false,
          "internalType": "uint256",
          "name": "amount",
          "type": "uint256"
        }
      ],
      "name": "RefundedSlashedLegacyDelegation",
      "type": "event"
    },
    {
      "anonymous": false,
      "inputs": [
        {
          "indexed": true,
          "internalType": "address",
          "name": "delegator",
          "type": "address"
        },
        {
          "indexed": true,
          "internalType": "uint256",
          "name": "toValidatorID",
          "type": "uint256"
        },
        {
          "indexed": false,
          "internalType": "uint256",
          "name": "lockupExtraReward",
          "type": "uint256"
        },
        {
          "indexed": false,
          "internalType": "uint256",
          "name": "lockupBaseReward",
          "type": "uint256"
        },
        {
          "indexed": false,
          "internalType": "uint256",
          "name": "unlockedReward",
          "type": "uint256"
        }
      ],
      "name": "RestakedRewards",
      "type": "event"
    },
    {
      "anonymous": false,
      "inputs": [
        {
          "indexed": true,
          "internalType": "address",
          "name": "previousSecondaryOwner",
          "type": "address"
        },
        {
          "indexed": true,
          "internalType": "address",
          "name": "newSecondaryOwner",
          "type": "address"
        }
      ],
      "name": "SecondaryOwnershipTransferred",
      "type": "event"
    },
    {
      "anonymous": false,
      "inputs": [
        {
          "indexed": true,
          "internalType": "address",
          "name": "delegator",
          "type": "address"
        },
        {
          "indexed": true,
          "internalType": "uint256",
          "name": "toValidatorID",
          "type": "uint256"
        },
        {
          "indexed": true,
          "internalType": "uint256",
          "name": "wrID",
          "type": "uint256"
        },
        {
          "indexed": false,
          "internalType": "uint256",
          "name": "amount",
          "type": "uint256"
        }
      ],
      "name": "Undelegated",
      "type": "event"
    },
    {
      "anonymous": false,
      "inputs": [
        {
          "indexed": true,
          "internalType": "address",
          "name": "delegator",
          "type": "address"
        },
        {
          "indexed": true,
          "internalType": "uint256",
          "name": "validatorID",
          "type": "uint256"
        },
        {
          "indexed": false,
          "internalType": "uint256",
          "name": "amount",
          "type": "uint256"
        },
        {
          "indexed": false,
          "internalType": "uint256",
          "name": "penalty",
          "type": "uint256"
        }
      ],
      "name": "UnlockedStake",
      "type": "event"
    },
    {
      "anonymous": false,
      "inputs": [
        {
          "indexed": false,
          "internalType": "uint256",
          "name": "value",
          "type": "uint256"
        }
      ],
      "name": "UpdatedBaseRewardPerSec",
      "type": "event"
    },
    {
      "anonymous": false,
      "inputs": [
        {
          "indexed": false,
          "internalType": "uint256",
          "name": "contractCommission",
          "type": "uint256"
        }
      ],
      "name": "UpdatedContractCommission",
      "type": "event"
    },
    {
      "anonymous": false,
      "inputs": [
        {
          "indexed": false,
          "internalType": "uint256",
          "name": "maxDelegationRatio",
          "type": "uint256"
        }
      ],
      "name": "UpdatedMaxDelegationRatio",
      "type": "event"
    },
    {
      "anonymous": false,
      "inputs": [
        {
          "indexed": false,
          "internalType": "uint256",
          "name": "maxLockupDuration",
          "type": "uint256"
        }
      ],
      "name": "UpdatedMaxLockupDuration",
      "type": "event"
    },
    {
      "anonymous": false,
      "inputs": [
        {
          "indexed": false,
          "internalType": "uint256",
          "name": "minLockupDuration",
          "type": "uint256"
        }
      ],
      "name": "UpdatedMinLockupDuration",
      "type": "event"
    },
    {
      "anonymous": false,
      "inputs": [
        {
          "indexed": false,
          "internalType": "uint256",
          "name": "minSelfStake",
          "type": "uint256"
        }
      ],
      "name": "UpdatedMinSelfStake",
      "type": "event"
    },
    {
      "anonymous": false,
      "inputs": [
        {
          "indexed": false,
          "internalType": "uint256",
          "name": "blocksNum",
          "type": "uint256"
        },
        {
          "indexed": false,
          "internalType": "uint256",
          "name": "period",
          "type": "uint256"
        }
      ],
      "name": "UpdatedOfflinePenaltyThreshold",
      "type": "event"
    },
    {
      "anonymous": false,
      "inputs": [
        {
          "indexed": true,
          "internalType": "uint256",
          "name": "validatorID",
          "type": "uint256"
        },
        {
          "indexed": false,
          "internalType": "uint256",
          "name": "refundRatio",
          "type": "uint256"
        }
      ],
      "name": "UpdatedSlashingRefundRatio",
      "type": "event"
    },
    {
      "anonymous": false,
      "inputs": [
        {
          "indexed": false,
          "internalType": "uint256",
          "name": "unlockedRewardRatio",
          "type": "uint256"
        }
      ],
      "name": "UpdatedUnlockedRewardRatio",
      "type": "event"
    },
    {
      "anonymous": false,
      "inputs": [
        {
          "indexed": false,
          "internalType": "uint256",
          "name": "validatorCommission",
          "type": "uint256"
        }
      ],
      "name": "UpdatedValidatorCommission",
      "type": "event"
    },
    {
      "anonymous": false,
      "inputs": [
        {
          "indexed": false,
          "internalType": "uint256",
          "name": "Value",
          "type": "uint256"
        }
      ],
      "name": "UpdatedWithdrawalPeriodEpoch",
      "type": "event"
    },
    {
      "anonymous": false,
      "inputs": [
        {
          "indexed": false,
          "internalType": "uint256",
          "name": "withValuedrawalPeriodTime",
          "type": "uint256"
        }
      ],
      "name": "UpdatedWithdrawalPeriodTime",
      "type": "event"
    },
    {
      "anonymous": false,
      "inputs": [
        {
          "indexed": true,
          "internalType": "address",
          "name": "delegator",
          "type": "address"
        },
        {
          "indexed": true,
          "internalType": "uint256",
          "name": "toValidatorID",
          "type": "uint256"
        },
        {
          "indexed": true,
          "internalType": "uint256",
          "name": "wrID",
          "type": "uint256"
        },
        {
          "indexed": false,
          "internalType": "uint256",
          "name": "amount",
          "type": "uint256"
        }
      ],
      "name": "Withdrawn",
      "type": "event"
    },
    {
      "constant": false,
      "inputs": [
        {
          "internalType": "uint256",
          "name": "validatorID",
          "type": "uint256"
        },
        {
          "internalType": "bool",
          "name": "syncPubkey",
          "type": "bool"
        }
      ],
      "name": "_syncValidator",
      "outputs": [],
      "payable": false,
      "stateMutability": "nonpayable",
      "type": "function"
    },
    {
      "constant": false,
      "inputs": [
        {
          "internalType": "uint256",
          "name": "diff",
          "type": "uint256"
        }
      ],
      "name": "advanceTime",
      "outputs": [],
      "payable": false,
      "stateMutability": "nonpayable",
      "type": "function"
    },
    {
      "constant": true,
      "inputs": [],
      "name": "allowedNonNodeCalls",
      "outputs": [
        {
          "internalType": "bool",
          "name": "",
          "type": "bool"
        }
      ],
      "payable": false,
      "stateMutability": "view",
      "type": "function"
    },
    {
      "constant": true,
      "inputs": [],
      "name": "baseRewardPerSecond",
      "outputs": [
        {
          "internalType": "uint256",
          "name": "",
          "type": "uint256"
        }
      ],
      "payable": false,
      "stateMutability": "view",
      "type": "function"
    },
    {
      "constant": false,
      "inputs": [
        {
          "internalType": "uint256",
          "name": "toValidatorID",
          "type": "uint256"
        }
      ],
      "name": "claimRewards",
      "outputs": [],
      "payable": false,
      "stateMutability": "nonpayable",
      "type": "function"
    },
    {
      "constant": true,
      "inputs": [],
      "name": "contractCommission",
      "outputs": [
        {
          "internalType": "uint256",
          "name": "",
          "type": "uint256"
        }
      ],
      "payable": false,
      "stateMutability": "view",
      "type": "function"
    },
    {
      "constant": false,
      "inputs": [
        {
          "internalType": "bytes",
          "name": "pubkey",
          "type": "bytes"
        }
      ],
      "name": "createValidator",
      "outputs": [],
      "payable": true,
      "stateMutability": "payable",
      "type": "function"
    },
    {
      "constant": true,
      "inputs": [],
      "name": "currentEpoch",
      "outputs": [
        {
          "internalType": "uint256",
          "name": "",
          "type": "uint256"
        }
      ],
      "payable": false,
      "stateMutability": "view",
      "type": "function"
    },
    {
      "constant": true,
      "inputs": [],
      "name": "currentSealedEpoch",
      "outputs": [
        {
          "internalType": "uint256",
          "name": "",
          "type": "uint256"
        }
      ],
      "payable": false,
      "stateMutability": "view",
      "type": "function"
    },
    {
      "constant": false,
      "inputs": [
        {
          "internalType": "uint256",
          "name": "validatorID",
          "type": "uint256"
        },
        {
          "internalType": "uint256",
          "name": "status",
          "type": "uint256"
        }
      ],
      "name": "deactivateValidator",
      "outputs": [],
      "payable": false,
      "stateMutability": "nonpayable",
      "type": "function"
    },
    {
      "constant": false,
      "inputs": [
        {
          "internalType": "uint256",
          "name": "toValidatorID",
          "type": "uint256"
        }
      ],
      "name": "delegate",
      "outputs": [],
      "payable": true,
      "stateMutability": "payable",
      "type": "function"
    },
    {
      "constant": false,
      "inputs": [],
      "name": "disableNonNodeCalls",
      "outputs": [],
      "payable": false,
      "stateMutability": "nonpayable",
      "type": "function"
    },
    {
      "constant": false,
      "inputs": [],
      "name": "enableNonNodeCalls",
      "outputs": [],
      "payable": false,
      "stateMutability": "nonpayable",
      "type": "function"
    },
    {
      "constant": true,
      "inputs": [],
      "name": "getBlockTime",
      "outputs": [
        {
          "internalType": "uint256",
          "name": "",
          "type": "uint256"
        }
      ],
      "payable": false,
      "stateMutability": "view",
      "type": "function"
    },
    {
      "constant": true,
      "inputs": [
        {
          "internalType": "uint256",
          "name": "epoch",
          "type": "uint256"
        },
        {
          "internalType": "uint256",
          "name": "validatorID",
          "type": "uint256"
        }
      ],
      "name": "getEpochAccumulatedOriginatedTxsFee",
      "outputs": [
        {
          "internalType": "uint256",
          "name": "",
          "type": "uint256"
        }
      ],
      "payable": false,
      "stateMutability": "view",
      "type": "function"
    },
    {
      "constant": true,
      "inputs": [
        {
          "internalType": "uint256",
          "name": "epoch",
          "type": "uint256"
        },
        {
          "internalType": "uint256",
          "name": "validatorID",
          "type": "uint256"
        }
      ],
      "name": "getEpochAccumulatedRewardPerToken",
      "outputs": [
        {
          "internalType": "uint256",
          "name": "",
          "type": "uint256"
        }
      ],
      "payable": false,
      "stateMutability": "view",
      "type": "function"
    },
    {
      "constant": true,
      "inputs": [
        {
          "internalType": "uint256",
          "name": "epoch",
          "type": "uint256"
        },
        {
          "internalType": "uint256",
          "name": "validatorID",
          "type": "uint256"
        }
      ],
      "name": "getEpochAccumulatedUptime",
      "outputs": [
        {
          "internalType": "uint256",
          "name": "",
          "type": "uint256"
        }
      ],
      "payable": false,
      "stateMutability": "view",
      "type": "function"
    },
    {
      "constant": true,
      "inputs": [
        {
          "internalType": "uint256",
          "name": "epoch",
          "type": "uint256"
        },
        {
          "internalType": "uint256",
          "name": "validatorID",
          "type": "uint256"
        }
      ],
      "name": "getEpochOfflineBlocks",
      "outputs": [
        {
          "internalType": "uint256",
          "name": "",
          "type": "uint256"
        }
      ],
      "payable": false,
      "stateMutability": "view",
      "type": "function"
    },
    {
      "constant": true,
      "inputs": [
        {
          "internalType": "uint256",
          "name": "epoch",
          "type": "uint256"
        },
        {
          "internalType": "uint256",
          "name": "validatorID",
          "type": "uint256"
        }
      ],
      "name": "getEpochOfflineTime",
      "outputs": [
        {
          "internalType": "uint256",
          "name": "",
          "type": "uint256"
        }
      ],
      "payable": false,
      "stateMutability": "view",
      "type": "function"
    },
    {
      "constant": true,
      "inputs": [
        {
          "internalType": "uint256",
          "name": "epoch",
          "type": "uint256"
        },
        {
          "internalType": "uint256",
          "name": "validatorID",
          "type": "uint256"
        }
      ],
      "name": "getEpochReceivedStake",
      "outputs": [
        {
          "internalType": "uint256",
          "name": "",
          "type": "uint256"
        }
      ],
      "payable": false,
      "stateMutability": "view",
      "type": "function"
    },
    {
      "constant": true,
      "inputs": [
        {
          "internalType": "uint256",
          "name": "",
          "type": "uint256"
        }
      ],
      "name": "getEpochSnapshot",
      "outputs": [
        {
          "internalType": "uint256",
          "name": "endTime",
          "type": "uint256"
        },
        {
          "internalType": "uint256",
          "name": "epochFee",
          "type": "uint256"
        },
        {
          "internalType": "uint256",
          "name": "totalBaseRewardWeight",
          "type": "uint256"
        },
        {
          "internalType": "uint256",
          "name": "totalTxRewardWeight",
          "type": "uint256"
        },
        {
          "internalType": "uint256",
          "name": "baseRewardPerSecond",
          "type": "uint256"
        },
        {
          "internalType": "uint256",
          "name": "totalStake",
          "type": "uint256"
        },
        {
          "internalType": "uint256",
          "name": "totalSupply",
          "type": "uint256"
        }
      ],
      "payable": false,
      "stateMutability": "view",
      "type": "function"
    },
    {
      "constant": true,
      "inputs": [
        {
          "internalType": "uint256",
          "name": "epoch",
          "type": "uint256"
        }
      ],
      "name": "getEpochValidatorIDs",
      "outputs": [
        {
          "internalType": "uint256[]",
          "name": "",
          "type": "uint256[]"
        }
      ],
      "payable": false,
      "stateMutability": "view",
      "type": "function"
    },
    {
      "constant": true,
      "inputs": [],
      "name": "getGovernance",
      "outputs": [
        {
          "internalType": "address",
          "name": "",
          "type": "address"
        }
      ],
      "payable": false,
      "stateMutability": "view",
      "type": "function"
    },
    {
      "constant": true,
      "inputs": [
        {
          "internalType": "address",
          "name": "delegator",
          "type": "address"
        },
        {
          "internalType": "uint256",
          "name": "toValidatorID",
          "type": "uint256"
        }
      ],
      "name": "getLockedStake",
      "outputs": [
        {
          "internalType": "uint256",
          "name": "",
          "type": "uint256"
        }
      ],
      "payable": false,
      "stateMutability": "view",
      "type": "function"
    },
    {
      "constant": true,
      "inputs": [
        {
          "internalType": "address",
          "name": "",
          "type": "address"
        },
        {
          "internalType": "uint256",
          "name": "",
          "type": "uint256"
        }
      ],
      "name": "getLockupInfo",
      "outputs": [
        {
          "internalType": "uint256",
          "name": "lockedStake",
          "type": "uint256"
        },
        {
          "internalType": "uint256",
          "name": "fromEpoch",
          "type": "uint256"
        },
        {
          "internalType": "uint256",
          "name": "endTime",
          "type": "uint256"
        },
        {
          "internalType": "uint256",
          "name": "duration",
          "type": "uint256"
        }
      ],
      "payable": false,
      "stateMutability": "view",
      "type": "function"
    },
    {
      "constant": true,
      "inputs": [
        {
          "internalType": "uint256",
          "name": "validatorID",
          "type": "uint256"
        }
      ],
      "name": "getSelfStake",
      "outputs": [
        {
          "internalType": "uint256",
          "name": "",
          "type": "uint256"
        }
      ],
      "payable": false,
      "stateMutability": "view",
      "type": "function"
    },
    {
      "constant": true,
      "inputs": [
        {
          "internalType": "address",
          "name": "",
          "type": "address"
        },
        {
          "internalType": "uint256",
          "name": "",
          "type": "uint256"
        }
      ],
      "name": "getStake",
      "outputs": [
        {
          "internalType": "uint256",
          "name": "",
          "type": "uint256"
        }
      ],
      "payable": false,
      "stateMutability": "view",
      "type": "function"
    },
    {
      "constant": true,
      "inputs": [
        {
          "internalType": "address",
          "name": "",
          "type": "address"
        },
        {
          "internalType": "uint256",
          "name": "",
          "type": "uint256"
        }
      ],
      "name": "getStashedLockupRewards",
      "outputs": [
        {
          "internalType": "uint256",
          "name": "lockupExtraReward",
          "type": "uint256"
        },
        {
          "internalType": "uint256",
          "name": "lockupBaseReward",
          "type": "uint256"
        },
        {
          "internalType": "uint256",
          "name": "unlockedReward",
          "type": "uint256"
        }
      ],
      "payable": false,
      "stateMutability": "view",
      "type": "function"
    },
    {
      "constant": true,
      "inputs": [],
      "name": "getTime",
      "outputs": [
        {
          "internalType": "uint256",
          "name": "",
          "type": "uint256"
        }
      ],
      "payable": false,
      "stateMutability": "view",
      "type": "function"
    },
    {
      "constant": true,
      "inputs": [
        {
          "internalType": "address",
          "name": "delegator",
          "type": "address"
        },
        {
          "internalType": "uint256",
          "name": "toValidatorID",
          "type": "uint256"
        }
      ],
      "name": "getUnlockedStake",
      "outputs": [
        {
          "internalType": "uint256",
          "name": "",
          "type": "uint256"
        }
      ],
      "payable": false,
      "stateMutability": "view",
      "type": "function"
    },
    {
      "constant": true,
      "inputs": [
        {
          "internalType": "uint256",
          "name": "",
          "type": "uint256"
        }
      ],
      "name": "getValidator",
      "outputs": [
        {
          "internalType": "uint256",
          "name": "status",
          "type": "uint256"
        },
        {
          "internalType": "uint256",
          "name": "deactivatedTime",
          "type": "uint256"
        },
        {
          "internalType": "uint256",
          "name": "deactivatedEpoch",
          "type": "uint256"
        },
        {
          "internalType": "uint256",
          "name": "receivedStake",
          "type": "uint256"
        },
        {
          "internalType": "uint256",
          "name": "createdEpoch",
          "type": "uint256"
        },
        {
          "internalType": "uint256",
          "name": "createdTime",
          "type": "uint256"
        },
        {
          "internalType": "address",
          "name": "auth",
          "type": "address"
        }
      ],
      "payable": false,
      "stateMutability": "view",
      "type": "function"
    },
    {
      "constant": true,
      "inputs": [
        {
          "internalType": "address",
          "name": "",
          "type": "address"
        }
      ],
      "name": "getValidatorID",
      "outputs": [
        {
          "internalType": "uint256",
          "name": "",
          "type": "uint256"
        }
      ],
      "payable": false,
      "stateMutability": "view",
      "type": "function"
    },
    {
      "constant": true,
      "inputs": [
        {
          "internalType": "uint256",
          "name": "",
          "type": "uint256"
        }
      ],
      "name": "getValidatorPubkey",
      "outputs": [
        {
          "internalType": "bytes",
          "name": "",
          "type": "bytes"
        }
      ],
      "payable": false,
      "stateMutability": "view",
      "type": "function"
    },
    {
      "constant": true,
      "inputs": [
        {
          "internalType": "address",
          "name": "",
          "type": "address"
        },
        {
          "internalType": "uint256",
          "name": "",
          "type": "uint256"
        },
        {
          "internalType": "uint256",
          "name": "",
          "type": "uint256"
        }
      ],
      "name": "getWithdrawalRequest",
      "outputs": [
        {
          "internalType": "uint256",
          "name": "epoch",
          "type": "uint256"
        },
        {
          "internalType": "uint256",
          "name": "time",
          "type": "uint256"
        },
        {
          "internalType": "uint256",
          "name": "amount",
          "type": "uint256"
        }
      ],
      "payable": false,
      "stateMutability": "view",
      "type": "function"
    },
    {
      "constant": true,
      "inputs": [],
      "name": "gov",
      "outputs": [
        {
          "internalType": "contract Gov",
          "name": "",
          "type": "address"
        }
      ],
      "payable": false,
      "stateMutability": "view",
      "type": "function"
    },
    {
      "constant": true,
      "inputs": [],
      "name": "governance",
      "outputs": [
        {
          "internalType": "address",
          "name": "",
          "type": "address"
        }
      ],
      "payable": false,
      "stateMutability": "view",
      "type": "function"
    },
    {
      "constant": true,
      "inputs": [
        {
          "internalType": "address",
          "name": "delegator",
          "type": "address"
        },
        {
          "internalType": "uint256",
          "name": "validatorID",
          "type": "uint256"
        }
      ],
      "name": "highestLockupEpoch",
      "outputs": [
        {
          "internalType": "uint256",
          "name": "",
          "type": "uint256"
        }
      ],
      "payable": false,
      "stateMutability": "view",
      "type": "function"
    },
    {
      "constant": false,
      "inputs": [
        {
          "internalType": "uint256",
          "name": "sealedEpoch",
          "type": "uint256"
        },
        {
          "internalType": "uint256",
          "name": "_totalSupply",
          "type": "uint256"
        },
        {
          "internalType": "address",
          "name": "nodeDriver",
          "type": "address"
        },
        {
          "internalType": "address",
          "name": "owner",
          "type": "address"
        },
        {
          "internalType": "address",
          "name": "governance",
          "type": "address"
        }
      ],
      "name": "initialize",
      "outputs": [],
      "payable": false,
      "stateMutability": "nonpayable",
      "type": "function"
    },
    {
      "constant": true,
      "inputs": [],
      "name": "isGovernance",
      "outputs": [
        {
          "internalType": "bool",
          "name": "",
          "type": "bool"
        }
      ],
      "payable": false,
      "stateMutability": "view",
      "type": "function"
    },
    {
      "constant": true,
      "inputs": [
        {
          "internalType": "address",
          "name": "delegator",
          "type": "address"
        },
        {
          "internalType": "uint256",
          "name": "toValidatorID",
          "type": "uint256"
        }
      ],
      "name": "isLockedUp",
      "outputs": [
        {
          "internalType": "bool",
          "name": "",
          "type": "bool"
        }
      ],
      "payable": false,
      "stateMutability": "view",
      "type": "function"
    },
    {
      "constant": true,
      "inputs": [],
      "name": "isOwner",
      "outputs": [
        {
          "internalType": "bool",
          "name": "",
          "type": "bool"
        }
      ],
      "payable": false,
      "stateMutability": "view",
      "type": "function"
    },
    {
      "constant": true,
      "inputs": [],
      "name": "isSecondaryOwner",
      "outputs": [
        {
          "internalType": "bool",
          "name": "",
          "type": "bool"
        }
      ],
      "payable": false,
      "stateMutability": "view",
      "type": "function"
    },
    {
      "constant": true,
      "inputs": [
        {
          "internalType": "uint256",
          "name": "validatorID",
          "type": "uint256"
        }
      ],
      "name": "isSlashed",
      "outputs": [
        {
          "internalType": "bool",
          "name": "",
          "type": "bool"
        }
      ],
      "payable": false,
      "stateMutability": "view",
      "type": "function"
    },
    {
      "constant": true,
      "inputs": [],
      "name": "lastValidatorID",
      "outputs": [
        {
          "internalType": "uint256",
          "name": "",
          "type": "uint256"
        }
      ],
      "payable": false,
      "stateMutability": "view",
      "type": "function"
    },
    {
      "constant": false,
      "inputs": [
        {
          "internalType": "uint256",
          "name": "toValidatorID",
          "type": "uint256"
        },
        {
          "internalType": "uint256",
          "name": "lockupDuration",
          "type": "uint256"
        },
        {
          "internalType": "uint256",
          "name": "amount",
          "type": "uint256"
        }
      ],
      "name": "lockStake",
      "outputs": [],
      "payable": false,
      "stateMutability": "nonpayable",
      "type": "function"
    },
    {
      "constant": true,
      "inputs": [],
      "name": "maxDelegatedRatio",
      "outputs": [
        {
          "internalType": "uint256",
          "name": "",
          "type": "uint256"
        }
      ],
      "payable": false,
      "stateMutability": "view",
      "type": "function"
    },
    {
      "constant": true,
      "inputs": [],
      "name": "maxLockupDuration",
      "outputs": [
        {
          "internalType": "uint256",
          "name": "",
          "type": "uint256"
        }
      ],
      "payable": false,
      "stateMutability": "view",
      "type": "function"
    },
    {
      "constant": true,
      "inputs": [],
      "name": "minLockupDuration",
      "outputs": [
        {
          "internalType": "uint256",
          "name": "",
          "type": "uint256"
        }
      ],
      "payable": false,
      "stateMutability": "view",
      "type": "function"
    },
    {
      "constant": true,
      "inputs": [],
      "name": "minSelfStake",
      "outputs": [
        {
          "internalType": "uint256",
          "name": "",
          "type": "uint256"
        }
      ],
      "payable": false,
      "stateMutability": "view",
      "type": "function"
    },
    {
      "constant": false,
      "inputs": [
        {
          "internalType": "address payable",
          "name": "receiver",
          "type": "address"
        },
        {
          "internalType": "uint256",
          "name": "amount",
          "type": "uint256"
        },
        {
          "internalType": "string",
          "name": "justification",
          "type": "string"
        }
      ],
      "name": "mintFTM",
      "outputs": [],
      "payable": false,
      "stateMutability": "nonpayable",
      "type": "function"
    },
    {
      "constant": true,
      "inputs": [],
      "name": "offlinePenaltyThreshold",
      "outputs": [
        {
          "internalType": "uint256",
          "name": "blocksNum",
          "type": "uint256"
        },
        {
          "internalType": "uint256",
          "name": "time",
          "type": "uint256"
        }
      ],
      "payable": false,
      "stateMutability": "view",
      "type": "function"
    },
    {
      "constant": true,
      "inputs": [],
      "name": "owner",
      "outputs": [
        {
          "internalType": "address",
          "name": "",
          "type": "address"
        }
      ],
      "payable": false,
      "stateMutability": "view",
      "type": "function"
    },
    {
      "constant": true,
      "inputs": [
        {
          "internalType": "address",
          "name": "delegator",
          "type": "address"
        },
        {
          "internalType": "uint256",
          "name": "toValidatorID",
          "type": "uint256"
        }
      ],
      "name": "pendingRewards",
      "outputs": [
        {
          "internalType": "uint256",
          "name": "",
          "type": "uint256"
        }
      ],
      "payable": false,
      "stateMutability": "view",
      "type": "function"
    },
    {
      "constant": false,
      "inputs": [],
      "name": "rebaseTime",
      "outputs": [],
      "payable": false,
      "stateMutability": "nonpayable",
      "type": "function"
    },
    {
      "constant": false,
      "inputs": [
        {
          "internalType": "uint256",
          "name": "toValidatorID",
          "type": "uint256"
        },
        {
          "internalType": "uint256",
          "name": "lockupDuration",
          "type": "uint256"
        },
        {
          "internalType": "uint256",
          "name": "amount",
          "type": "uint256"
        }
      ],
      "name": "relockStake",
      "outputs": [],
      "payable": false,
      "stateMutability": "nonpayable",
      "type": "function"
    },
    {
      "constant": false,
      "inputs": [],
      "name": "renounceOwnership",
      "outputs": [],
      "payable": false,
      "stateMutability": "nonpayable",
      "type": "function"
    },
    {
      "constant": false,
      "inputs": [
        {
          "internalType": "uint256",
          "name": "toValidatorID",
          "type": "uint256"
        }
      ],
      "name": "restakeRewards",
      "outputs": [],
      "payable": false,
      "stateMutability": "nonpayable",
      "type": "function"
    },
    {
      "constant": true,
      "inputs": [
        {
          "internalType": "address",
          "name": "delegator",
          "type": "address"
        },
        {
          "internalType": "uint256",
          "name": "validatorID",
          "type": "uint256"
        }
      ],
      "name": "rewardsStash",
      "outputs": [
        {
          "internalType": "uint256",
          "name": "",
          "type": "uint256"
        }
      ],
      "payable": false,
      "stateMutability": "view",
      "type": "function"
    },
    {
      "constant": false,
      "inputs": [
        {
          "internalType": "uint256[]",
          "name": "offlineTime",
          "type": "uint256[]"
        },
        {
          "internalType": "uint256[]",
          "name": "offlineBlocks",
          "type": "uint256[]"
        },
        {
          "internalType": "uint256[]",
          "name": "uptimes",
          "type": "uint256[]"
        },
        {
          "internalType": "uint256[]",
          "name": "originatedTxsFee",
          "type": "uint256[]"
        }
      ],
      "name": "sealEpoch",
      "outputs": [],
      "payable": false,
      "stateMutability": "nonpayable",
      "type": "function"
    },
    {
      "constant": false,
      "inputs": [
        {
          "internalType": "uint256[]",
          "name": "nextValidatorIDs",
          "type": "uint256[]"
        }
      ],
      "name": "sealEpochValidators",
      "outputs": [],
      "payable": false,
      "stateMutability": "nonpayable",
      "type": "function"
    },
    {
      "constant": true,
      "inputs": [],
      "name": "secondaryOwner",
      "outputs": [
        {
          "internalType": "address",
          "name": "",
          "type": "address"
        }
      ],
      "payable": false,
      "stateMutability": "view",
      "type": "function"
    },
    {
      "constant": false,
      "inputs": [
        {
          "internalType": "uint256",
          "name": "_contractCommission",
          "type": "uint256"
        }
      ],
      "name": "setContractCommission",
      "outputs": [],
      "payable": false,
      "stateMutability": "nonpayable",
      "type": "function"
    },
    {
      "constant": false,
      "inputs": [
        {
          "internalType": "address",
          "name": "delegator",
          "type": "address"
        },
        {
          "internalType": "uint256",
          "name": "toValidatorID",
          "type": "uint256"
        },
        {
          "internalType": "uint256",
          "name": "stake",
          "type": "uint256"
        },
        {
          "internalType": "uint256",
          "name": "lockedStake",
          "type": "uint256"
        },
        {
          "internalType": "uint256",
          "name": "lockupFromEpoch",
          "type": "uint256"
        },
        {
          "internalType": "uint256",
          "name": "lockupEndTime",
          "type": "uint256"
        },
        {
          "internalType": "uint256",
          "name": "lockupDuration",
          "type": "uint256"
        },
        {
          "internalType": "uint256",
          "name": "earlyUnlockPenalty",
          "type": "uint256"
        },
        {
          "internalType": "uint256",
          "name": "rewards",
          "type": "uint256"
        }
      ],
      "name": "setGenesisDelegation",
      "outputs": [],
      "payable": false,
      "stateMutability": "nonpayable",
      "type": "function"
    },
    {
      "constant": false,
      "inputs": [
        {
          "internalType": "address",
          "name": "auth",
          "type": "address"
        },
        {
          "internalType": "uint256",
          "name": "validatorID",
          "type": "uint256"
        },
        {
          "internalType": "bytes",
          "name": "pubkey",
          "type": "bytes"
        },
        {
          "internalType": "uint256",
          "name": "status",
          "type": "uint256"
        },
        {
          "internalType": "uint256",
          "name": "createdEpoch",
          "type": "uint256"
        },
        {
          "internalType": "uint256",
          "name": "createdTime",
          "type": "uint256"
        },
        {
          "internalType": "uint256",
          "name": "deactivatedEpoch",
          "type": "uint256"
        },
        {
          "internalType": "uint256",
          "name": "deactivatedTime",
          "type": "uint256"
        }
      ],
      "name": "setGenesisValidator",
      "outputs": [],
      "payable": false,
      "stateMutability": "nonpayable",
      "type": "function"
    },
    {
      "constant": false,
      "inputs": [
        {
          "internalType": "uint256",
          "name": "_maxDelegationRatio",
          "type": "uint256"
        }
      ],
      "name": "setMaxDelegation",
      "outputs": [],
      "payable": false,
      "stateMutability": "nonpayable",
      "type": "function"
    },
    {
      "constant": false,
      "inputs": [
        {
          "internalType": "uint256",
          "name": "_maxLockupDuration",
          "type": "uint256"
        }
      ],
      "name": "setMaxLockupDuration",
      "outputs": [],
      "payable": false,
      "stateMutability": "nonpayable",
      "type": "function"
    },
    {
      "constant": false,
      "inputs": [
        {
          "internalType": "uint256",
          "name": "_minLockupDuration",
          "type": "uint256"
        }
      ],
      "name": "setMinLockupDuration",
      "outputs": [],
      "payable": false,
      "stateMutability": "nonpayable",
      "type": "function"
    },
    {
      "constant": false,
      "inputs": [
        {
          "internalType": "uint256",
          "name": "_minSelfStake",
          "type": "uint256"
        }
      ],
      "name": "setMinSelfStake",
      "outputs": [],
      "payable": false,
      "stateMutability": "nonpayable",
      "type": "function"
    },
    {
      "constant": false,
      "inputs": [
        {
          "internalType": "uint256",
          "name": "_unlockedReward",
          "type": "uint256"
        }
      ],
      "name": "setUnlockedRewardRatio",
      "outputs": [],
      "payable": false,
      "stateMutability": "nonpayable",
      "type": "function"
    },
    {
      "constant": false,
      "inputs": [
        {
          "internalType": "uint256",
          "name": "_validatorCommission",
          "type": "uint256"
        }
      ],
      "name": "setValidatorCommission",
      "outputs": [],
      "payable": false,
      "stateMutability": "nonpayable",
      "type": "function"
    },
    {
      "constant": false,
      "inputs": [
        {
          "internalType": "uint256",
          "name": "_withdrawalPeriodEpochs",
          "type": "uint256"
        }
      ],
      "name": "setWithdrawalPeriodEpoch",
      "outputs": [],
      "payable": false,
      "stateMutability": "nonpayable",
      "type": "function"
    },
    {
      "constant": false,
      "inputs": [
        {
          "internalType": "uint256",
          "name": "_withdrawalPeriodTime",
          "type": "uint256"
        }
      ],
      "name": "setWithdrawalPeriodTime",
      "outputs": [],
      "payable": false,
      "stateMutability": "nonpayable",
      "type": "function"
    },
    {
      "constant": true,
      "inputs": [
        {
          "internalType": "uint256",
          "name": "",
          "type": "uint256"
        }
      ],
      "name": "slashingRefundRatio",
      "outputs": [
        {
          "internalType": "uint256",
          "name": "",
          "type": "uint256"
        }
      ],
      "payable": false,
      "stateMutability": "view",
      "type": "function"
    },
    {
      "constant": true,
      "inputs": [],
      "name": "stakeTokenizerAddress",
      "outputs": [
        {
          "internalType": "address",
          "name": "",
          "type": "address"
        }
      ],
      "payable": false,
      "stateMutability": "view",
      "type": "function"
    },
    {
      "constant": false,
      "inputs": [
        {
          "internalType": "address",
          "name": "delegator",
          "type": "address"
        },
        {
          "internalType": "uint256",
          "name": "toValidatorID",
          "type": "uint256"
        }
      ],
      "name": "stashRewards",
      "outputs": [],
      "payable": false,
      "stateMutability": "nonpayable",
      "type": "function"
    },
    {
      "constant": true,
      "inputs": [
        {
          "internalType": "address",
          "name": "",
          "type": "address"
        },
        {
          "internalType": "uint256",
          "name": "",
          "type": "uint256"
        }
      ],
      "name": "stashedRewardsUntilEpoch",
      "outputs": [
        {
          "internalType": "uint256",
          "name": "",
          "type": "uint256"
        }
      ],
      "payable": false,
      "stateMutability": "view",
      "type": "function"
    },
    {
      "constant": true,
      "inputs": [],
      "name": "time",
      "outputs": [
        {
          "internalType": "uint256",
          "name": "",
          "type": "uint256"
        }
      ],
      "payable": false,
      "stateMutability": "view",
      "type": "function"
    },
    {
      "constant": true,
      "inputs": [],
      "name": "totalActiveStake",
      "outputs": [
        {
          "internalType": "uint256",
          "name": "",
          "type": "uint256"
        }
      ],
      "payable": false,
      "stateMutability": "view",
      "type": "function"
    },
    {
      "constant": true,
      "inputs": [],
      "name": "totalSlashedStake",
      "outputs": [
        {
          "internalType": "uint256",
          "name": "",
          "type": "uint256"
        }
      ],
      "payable": false,
      "stateMutability": "view",
      "type": "function"
    },
    {
      "constant": true,
      "inputs": [],
      "name": "totalStake",
      "outputs": [
        {
          "internalType": "uint256",
          "name": "",
          "type": "uint256"
        }
      ],
      "payable": false,
      "stateMutability": "view",
      "type": "function"
    },
    {
      "constant": true,
      "inputs": [],
      "name": "totalSupply",
      "outputs": [
        {
          "internalType": "uint256",
          "name": "",
          "type": "uint256"
        }
      ],
      "payable": false,
      "stateMutability": "view",
      "type": "function"
    },
    {
      "constant": false,
      "inputs": [
        {
          "internalType": "address",
          "name": "newGovernance",
          "type": "address"
        }
      ],
      "name": "transferGovernance",
      "outputs": [],
      "payable": false,
      "stateMutability": "nonpayable",
      "type": "function"
    },
    {
      "constant": false,
      "inputs": [
        {
          "internalType": "address",
          "name": "newOwner",
          "type": "address"
        }
      ],
      "name": "transferOwnership",
      "outputs": [],
      "payable": false,
      "stateMutability": "nonpayable",
      "type": "function"
    },
    {
      "constant": false,
      "inputs": [
        {
          "internalType": "address",
          "name": "newSecondaryOwner",
          "type": "address"
        }
      ],
      "name": "transferSecondaryOwnership",
      "outputs": [],
      "payable": false,
      "stateMutability": "nonpayable",
      "type": "function"
    },
    {
      "constant": false,
      "inputs": [
        {
          "internalType": "uint256",
          "name": "toValidatorID",
          "type": "uint256"
        },
        {
          "internalType": "uint256",
          "name": "wrID",
          "type": "uint256"
        },
        {
          "internalType": "uint256",
          "name": "amount",
          "type": "uint256"
        }
      ],
      "name": "undelegate",
      "outputs": [],
      "payable": false,
      "stateMutability": "nonpayable",
      "type": "function"
    },
    {
      "constant": false,
      "inputs": [
        {
          "internalType": "uint256",
          "name": "toValidatorID",
          "type": "uint256"
        },
        {
          "internalType": "uint256",
          "name": "amount",
          "type": "uint256"
        }
      ],
      "name": "unlockStake",
      "outputs": [
        {
          "internalType": "uint256",
          "name": "",
          "type": "uint256"
        }
      ],
      "payable": false,
      "stateMutability": "nonpayable",
      "type": "function"
    },
    {
      "constant": true,
      "inputs": [],
      "name": "unlockedRewardRatio",
      "outputs": [
        {
          "internalType": "uint256",
          "name": "",
          "type": "uint256"
        }
      ],
      "payable": false,
      "stateMutability": "view",
      "type": "function"
    },
    {
      "constant": false,
      "inputs": [
        {
          "internalType": "uint256",
          "name": "value",
          "type": "uint256"
        }
      ],
      "name": "updateBaseRewardPerSecond",
      "outputs": [],
      "payable": false,
      "stateMutability": "nonpayable",
      "type": "function"
    },
    {
      "constant": false,
      "inputs": [
        {
          "internalType": "address",
          "name": "_governance",
          "type": "address"
        }
      ],
      "name": "updateGovernanceContract",
      "outputs": [],
      "payable": false,
      "stateMutability": "nonpayable",
      "type": "function"
    },
    {
      "constant": false,
      "inputs": [
        {
          "internalType": "uint256",
          "name": "blocksNum",
          "type": "uint256"
        },
        {
          "internalType": "uint256",
          "name": "time",
          "type": "uint256"
        }
      ],
      "name": "updateOfflinePenaltyThreshold",
      "outputs": [],
      "payable": false,
      "stateMutability": "nonpayable",
      "type": "function"
    },
    {
      "constant": false,
      "inputs": [
        {
          "internalType": "uint256",
          "name": "validatorID",
          "type": "uint256"
        },
        {
          "internalType": "uint256",
          "name": "refundRatio",
          "type": "uint256"
        }
      ],
      "name": "updateSlashingRefundRatio",
      "outputs": [],
      "payable": false,
      "stateMutability": "nonpayable",
      "type": "function"
    },
    {
      "constant": false,
      "inputs": [
        {
          "internalType": "address",
          "name": "addr",
          "type": "address"
        }
      ],
      "name": "updateStakeTokenizerAddress",
      "outputs": [],
      "payable": false,
      "stateMutability": "nonpayable",
      "type": "function"
    },
    {
      "constant": false,
      "inputs": [
        {
          "internalType": "int256",
          "name": "diff",
          "type": "int256"
        }
      ],
      "name": "updateTotalSupply",
      "outputs": [],
      "payable": false,
      "stateMutability": "nonpayable",
      "type": "function"
    },
    {
      "constant": true,
      "inputs": [],
      "name": "validatorCommission",
      "outputs": [
        {
          "internalType": "uint256",
          "name": "",
          "type": "uint256"
        }
      ],
      "payable": false,
      "stateMutability": "view",
      "type": "function"
    },
    {
      "constant": true,
      "inputs": [],
      "name": "version",
      "outputs": [
        {
          "internalType": "bytes3",
          "name": "",
          "type": "bytes3"
        }
      ],
      "payable": false,
      "stateMutability": "pure",
      "type": "function"
    },
    {
      "constant": false,
      "inputs": [
        {
          "internalType": "uint256",
          "name": "toValidatorID",
          "type": "uint256"
        },
        {
          "internalType": "uint256",
          "name": "wrID",
          "type": "uint256"
        }
      ],
      "name": "withdraw",
      "outputs": [],
      "payable": false,
      "stateMutability": "nonpayable",
      "type": "function"
    },
    {
      "constant": true,
      "inputs": [],
      "name": "withdrawalPeriodEpochs",
      "outputs": [
        {
          "internalType": "uint256",
          "name": "",
          "type": "uint256"
        }
      ],
      "payable": false,
      "stateMutability": "view",
      "type": "function"
    },
    {
      "constant": true,
      "inputs": [],
      "name": "withdrawalPeriodTime",
      "outputs": [
        {
          "internalType": "uint256",
          "name": "",
          "type": "uint256"
        }
      ],
      "payable": false,
      "stateMutability": "view",
      "type": "function"
    }
  ],
  "bytecode": "0x608060405234801561001057600080fd5b5061694280620000216000396000f3fe6080604052600436106105595760003560e01c8063715018a6116102bd578063bd14d90711610180578063d9a7c1f9116100e7578063e261641a116100a0578063ebdf104c1161007a578063ebdf104c146116e7578063f2fde38b14611852578063f5bd296814611885578063f78bf110146118be57610559565b8063e261641a146115fd578063e2f8c3361461162d578063e4af78be146116bd57610559565b8063d9a7c1f9146114c2578063db3a4bc6146114d7578063dc31e1af146114ec578063de67f2151461151c578063df00c92214611552578063e08d7e661461158257610559565b8063cefe9c1811610139578063cefe9c18146113b4578063cfd47663146113de578063cfdbb7cd14611417578063d38bfff414611450578063d54b509914611483578063d75629cf1461149857610559565b8063bd14d907146112ce578063c3de580e14611304578063c5f530af1461132e578063c65ee0e114611343578063c7be95de1461136d578063cc8343aa1461138257610559565b8063a198d22911610224578063b5d89627116101dd578063b5d896271461115c578063b6d9edd5146111c7578063b810e411146111f1578063b82b84271461122a578063b88a37e21461123f578063bc4a3cc0146112b957610559565b8063a198d22914611013578063a2f6e6bc14611043578063a5a470ad14611076578063a7786515146110e4578063a86a056f146110f9578063ad9a4b5c1461113257610559565b80638b1a0d11116102765780638b1a0d1114610ef05780638cddb01514610f205780638da5cb5b14610f595780638f32d59b14610f6e57806396c7ee4614610f975780639fa6dd3514610ff657610559565b8063715018a614610de85780637667180814610dfd5780637cacb1d614610e12578063854873e114610e2757806387ceff0914610ec65780638b0e9f3f14610edb57610559565b806333469d3d116104205780635601fe011161038757806361e53fcc11610340578063670322f81161031a578063670322f814610d195780636ca6d6bc14610d525780636f49866314610d7c5780636faf60a014610db557610559565b806361e53fcc14610ca157806363bafc5614610cd1578063650acd6614610d0457610559565b80635601fe0114610bcf57806358f95b8014610bf95780635aa6e67514610c295780635e2308d214610c3e5780635fab23a814610c535780636099ecb214610c6857610559565b8063441a3e70116103d9578063441a3e7014610a495780634f7c4efb14610a795780634f864df414610aa95780634feb92f314610adf57806354fd4d5014610b88578063557ed1ba14610bba57610559565b806333469d3d14610918578063346bdcfb1461092d57806336a5a2311461095757806339b80c001461096c5780633fbfd4df146109ce5780634055f27314610a1f57610559565b806318160ddd116104c457806324f3082a1161047d57806324f3082a1461086c5780632709275e14610881578063289b3c0d1461089657806328f73148146108ab5780632cedb097146108c05780632d2646ed146108ee57610559565b806318160ddd1461072057806318f628d4146107355780631d3ac42c1461079a5780631e702f83146107ca5780631f270152146107fa5780632265f2841461085757610559565b80630d4955e3116105165780630d4955e3146106625780630d7b2609146106775780630e559d821461068c57806312622d0e146106bd57806312d43a51146106f657806316ada5471461070b57610559565b80630135b1db1461055e57806303c91ccd146105a357806307e32f0a146105cf57806308c36874146105f95780630962ef791461062357806309fc49ab1461064d575b600080fd5b34801561056a57600080fd5b506105916004803603602081101561058157600080fd5b50356001600160a01b03166118e8565b60408051918252519081900360200190f35b3480156105af57600080fd5b506105cd600480360360208110156105c657600080fd5b50356118fa565b005b3480156105db57600080fd5b506105cd600480360360208110156105f257600080fd5b503561199b565b34801561060557600080fd5b506105cd6004803603602081101561061c57600080fd5b50356119a6565b34801561062f57600080fd5b506105cd6004803603602081101561064657600080fd5b5035611a72565b34801561065957600080fd5b506105cd611bb2565b34801561066e57600080fd5b50610591611bc1565b34801561068357600080fd5b50610591611bcc565b34801561069857600080fd5b506106a1611bd5565b604080516001600160a01b039092168252519081900360200190f35b3480156106c957600080fd5b50610591600480360360408110156106e057600080fd5b506001600160a01b038135169060200135611be4565b34801561070257600080fd5b506106a1611c6d565b34801561071757600080fd5b50610591611c7c565b34801561072c57600080fd5b50610591611c82565b34801561074157600080fd5b506105cd600480360361012081101561075957600080fd5b506001600160a01b038135169060208101359060408101359060608101359060808101359060a08101359060c08101359060e0810135906101000135611c88565b3480156107a657600080fd5b50610591600480360360408110156107bd57600080fd5b5080359060200135611de8565b3480156107d657600080fd5b506105cd600480360360408110156107ed57600080fd5b5080359060200135611fc0565b34801561080657600080fd5b506108396004803603606081101561081d57600080fd5b506001600160a01b03813516906020810135906040013561205e565b60408051938452602084019290925282820152519081900360600190f35b34801561086357600080fd5b50610591612090565b34801561087857600080fd5b506105cd6120a3565b34801561088d57600080fd5b506105916120a9565b3480156108a257600080fd5b506106a16120c6565b3480156108b757600080fd5b506105916120d5565b3480156108cc57600080fd5b506108d56120db565b6040805192835260208301919091528051918290030190f35b3480156108fa57600080fd5b506105cd6004803603602081101561091157600080fd5b50356120e5565b34801561092457600080fd5b506105cd61213f565b34801561093957600080fd5b506105cd6004803603602081101561095057600080fd5b503561214b565b34801561096357600080fd5b506106a16121b7565b34801561097857600080fd5b506109966004803603602081101561098f57600080fd5b50356121c6565b604080519788526020880196909652868601949094526060860192909252608085015260a084015260c0830152519081900360e00190f35b3480156109da57600080fd5b506105cd600480360360a08110156109f157600080fd5b508035906020810135906001600160a01b036040820135811691606081013582169160809091013516612208565b348015610a2b57600080fd5b506105cd60048036036020811015610a4257600080fd5b5035612323565b348015610a5557600080fd5b506105cd60048036036040811015610a6c57600080fd5b508035906020013561237d565b348015610a8557600080fd5b506105cd60048036036040811015610a9c57600080fd5b508035906020013561277a565b348015610ab557600080fd5b506105cd60048036036060811015610acc57600080fd5b50803590602081013590604001356128ac565b348015610aeb57600080fd5b506105cd6004803603610100811015610b0357600080fd5b6001600160a01b0382351691602081013591810190606081016040820135600160201b811115610b3257600080fd5b820183602082011115610b4457600080fd5b803590602001918460018302840111600160201b83111715610b6557600080fd5b919350915080359060208101359060408101359060608101359060800135612b24565b348015610b9457600080fd5b50610b9d612bca565b604080516001600160e81b03199092168252519081900360200190f35b348015610bc657600080fd5b50610591612bd4565b348015610bdb57600080fd5b5061059160048036036020811015610bf257600080fd5b5035612bda565b348015610c0557600080fd5b5061059160048036036040811015610c1c57600080fd5b5080359060200135612c10565b348015610c3557600080fd5b506106a1612c2d565b348015610c4a57600080fd5b50610591612c3c565b348015610c5f57600080fd5b50610591612c53565b348015610c7457600080fd5b5061059160048036036040811015610c8b57600080fd5b506001600160a01b038135169060200135612c59565b348015610cad57600080fd5b5061059160048036036040811015610cc457600080fd5b5080359060200135612c97565b348015610cdd57600080fd5b506105cd60048036036020811015610cf457600080fd5b50356001600160a01b0316612cb8565b348015610d1057600080fd5b50610591612d04565b348015610d2557600080fd5b5061059160048036036040811015610d3c57600080fd5b506001600160a01b038135169060200135612d0a565b348015610d5e57600080fd5b506105cd60048036036020811015610d7557600080fd5b5035612d4b565b348015610d8857600080fd5b5061059160048036036040811015610d9f57600080fd5b506001600160a01b038135169060200135612da5565b348015610dc157600080fd5b506105cd60048036036020811015610dd857600080fd5b50356001600160a01b0316612e0f565b348015610df457600080fd5b506105cd612eb2565b348015610e0957600080fd5b50610591612f43565b348015610e1e57600080fd5b50610591612f4c565b348015610e3357600080fd5b50610e5160048036036020811015610e4a57600080fd5b5035612f52565b6040805160208082528351818301528351919283929083019185019080838360005b83811015610e8b578181015183820152602001610e73565b50505050905090810190601f168015610eb85780820380516001836020036101000a031916815260200191505b509250505060405180910390f35b348015610ed257600080fd5b50610591612fed565b348015610ee757600080fd5b50610591612ffc565b348015610efc57600080fd5b506105cd60048036036040811015610f1357600080fd5b5080359060200135613002565b348015610f2c57600080fd5b506105cd60048036036040811015610f4357600080fd5b506001600160a01b038135169060200135613092565b348015610f6557600080fd5b506106a16130e0565b348015610f7a57600080fd5b50610f836130ef565b604080519115158252519081900360200190f35b348015610fa357600080fd5b50610fd060048036036040811015610fba57600080fd5b506001600160a01b038135169060200135613100565b604080519485526020850193909352838301919091526060830152519081900360800190f35b6105cd6004803603602081101561100c57600080fd5b5035613132565b34801561101f57600080fd5b506105916004803603604081101561103657600080fd5b508035906020013561313d565b34801561104f57600080fd5b506105cd6004803603602081101561106657600080fd5b50356001600160a01b031661315e565b6105cd6004803603602081101561108c57600080fd5b810190602081018135600160201b8111156110a657600080fd5b8201836020820111156110b857600080fd5b803590602001918460018302840111600160201b831117156110d957600080fd5b5090925090506131c7565b3480156110f057600080fd5b506105916132ba565b34801561110557600080fd5b506105916004803603604081101561111c57600080fd5b506001600160a01b0381351690602001356132d1565b34801561113e57600080fd5b506105cd6004803603602081101561115557600080fd5b50356132ee565b34801561116857600080fd5b506111866004803603602081101561117f57600080fd5b5035613348565b604080519788526020880196909652868601949094526060860192909252608085015260a08401526001600160a01b031660c0830152519081900360e00190f35b3480156111d357600080fd5b506105cd600480360360208110156111ea57600080fd5b503561338e565b3480156111fd57600080fd5b506108396004803603604081101561121457600080fd5b506001600160a01b03813516906020013561346e565b34801561123657600080fd5b5061059161349a565b34801561124b57600080fd5b506112696004803603602081101561126257600080fd5b50356134a0565b60408051602080825283518183015283519192839290830191858101910280838360005b838110156112a557818101518382015260200161128d565b505050509050019250505060405180910390f35b3480156112c557600080fd5b50610f83613505565b3480156112da57600080fd5b506105cd600480360360608110156112f157600080fd5b5080359060208101359060400135613516565b34801561131057600080fd5b50610f836004803603602081101561132757600080fd5b5035613529565b34801561133a57600080fd5b50610591613540565b34801561134f57600080fd5b506105916004803603602081101561136657600080fd5b503561354c565b34801561137957600080fd5b5061059161355e565b34801561138e57600080fd5b506105cd600480360360408110156113a557600080fd5b50803590602001351515613564565b3480156113c057600080fd5b506105cd600480360360208110156113d757600080fd5b5035613747565b3480156113ea57600080fd5b506105916004803603604081101561140157600080fd5b506001600160a01b0381351690602001356137a1565b34801561142357600080fd5b50610f836004803603604081101561143a57600080fd5b506001600160a01b0381351690602001356137be565b34801561145c57600080fd5b506105cd6004803603602081101561147357600080fd5b50356001600160a01b0316613854565b34801561148f57600080fd5b50610f836138ae565b3480156114a457600080fd5b506105cd600480360360208110156114bb57600080fd5b50356138b7565b3480156114ce57600080fd5b50610591613911565b3480156114e357600080fd5b50610f83613917565b3480156114f857600080fd5b506105916004803603604081101561150f57600080fd5b5080359060200135613928565b34801561152857600080fd5b506105cd6004803603606081101561153f57600080fd5b5080359060208101359060400135613949565b34801561155e57600080fd5b506105916004803603604081101561157557600080fd5b50803590602001356139e6565b34801561158e57600080fd5b506105cd600480360360208110156115a557600080fd5b810190602081018135600160201b8111156115bf57600080fd5b8201836020820111156115d157600080fd5b803590602001918460208302840111600160201b831117156115f257600080fd5b509092509050613a07565b34801561160957600080fd5b506105916004803603604081101561162057600080fd5b5080359060200135613ae1565b34801561163957600080fd5b506105cd6004803603606081101561165057600080fd5b6001600160a01b0382351691602081013591810190606081016040820135600160201b81111561167f57600080fd5b82018360208201111561169157600080fd5b803590602001918460018302840111600160201b831117156116b257600080fd5b509092509050613b02565b3480156116c957600080fd5b506105cd600480360360208110156116e057600080fd5b5035613c01565b3480156116f357600080fd5b506105cd6004803603608081101561170a57600080fd5b810190602081018135600160201b81111561172457600080fd5b82018360208201111561173657600080fd5b803590602001918460208302840111600160201b8311171561175757600080fd5b919390929091602081019035600160201b81111561177457600080fd5b82018360208201111561178657600080fd5b803590602001918460208302840111600160201b831117156117a757600080fd5b919390929091602081019035600160201b8111156117c457600080fd5b8201836020820111156117d657600080fd5b803590602001918460208302840111600160201b831117156117f757600080fd5b919390929091602081019035600160201b81111561181457600080fd5b82018360208201111561182657600080fd5b803590602001918460208302840111600160201b8311171561184757600080fd5b509092509050613c5b565b34801561185e57600080fd5b506105cd6004803603602081101561187557600080fd5b50356001600160a01b0316613e37565b34801561189157600080fd5b50610591600480360360408110156118a857600080fd5b506001600160a01b038135169060200135613e87565b3480156118ca57600080fd5b506105cd600480360360208110156118e157600080fd5b5035613e93565b609e6020526000908152604090205481565b611902613917565b806119105750611910613505565b61194b5760405162461bcd60e51b81526004018080602001828103825260508152602001806167e96050913960600191505060405180910390fd5b611953613eed565b1561198f5760405162461bcd60e51b815260040180806020018281038252602c81526020018061674e602c913960400191505060405180910390fd5b61199881613f70565b50565b60ba80549091019055565b336119af616571565b6119b98284613fab565b602081015181519192506000916119d59163ffffffff61409f16565b90506119f883856119f385604001518561409f90919063ffffffff16565b6140f9565b6001600160a01b038316600081815260a860209081526040808320888452825291829020805485019055845185820151868401518451928352928201528083019190915290518692917f4119153d17a36f9597d40e3ab4148d03261a439dddbec4e91799ab7159608e26919081900360600190a350505050565b33611a7b616571565b611a858284613fab565b90506000826001600160a01b0316611ac28360400151611ab68560200151866000015161409f90919063ffffffff16565b9063ffffffff61409f16565b604051600081818185875af1925050503d8060008114611afe576040519150601f19603f3d011682016040523d82523d6000602084013e611b03565b606091505b5050905080611b4e576040805162461bcd60e51b81526020600482015260126024820152714661696c656420746f2073656e642046544d60701b604482015290519081900360640190fd5b83836001600160a01b03167fc1d8eb6e444b89fb8ff0991c19311c070df704ccb009e210d1462d5b2410bf4584600001518560200151866040015160405180848152602001838152602001828152602001935050505060405180910390a350505050565b60bb805460ff19166001179055565b60b55461016d025b90565b60b454600e0290565b60b9546001600160a01b031681565b6000611bf083836137be565b611c1e57506001600160a01b038216600090815260a760209081526040808320848452909152902054611c67565b6001600160a01b038316600081815260a86020908152604080832086845282528083205493835260a78252808320868452909152902054611c649163ffffffff6141f616565b90505b92915050565b609a546001600160a01b031681565b60ba5481565b60ab5481565b611c9133614238565b611ccc5760405162461bcd60e51b81526004018080602001828103825260298152602001806166c26029913960400191505060405180910390fd5b611cd7898989614257565b6001600160a01b038916600090815260a4602090815260408083208b84529091529020600201819055611d09876143bc565b8515611ddd5786861115611d4e5760405162461bcd60e51b815260040180806020018281038252602c8152602001806168e2602c913960400191505060405180910390fd5b6001600160a01b038916600081815260a8602090815260408083208c845282528083208a8155600181018a9055600281018990556003810188905584845260a983528184208d855283529281902086905580518781529182018a9052805192938c9390927f138940e95abffcd789b497bf6188bba3afa5fbd22fb5c42c2f6018d1bf0f4e7892908290030190a3505b505050505050505050565b33600081815260a860209081526040808320868452909152812090919083611e45576040805162461bcd60e51b815260206004820152600b60248201526a1e995c9bc8185b5bdd5b9d60aa1b604482015290519081900360640190fd5b611e4f82866137be565b611e90576040805162461bcd60e51b815260206004820152600d60248201526c06e6f74206c6f636b656420757609c1b604482015290519081900360640190fd5b8054841115611ee6576040805162461bcd60e51b815260206004820152601760248201527f6e6f7420656e6f756768206c6f636b6564207374616b65000000000000000000604482015290519081900360640190fd5b611ef08286614441565b611f3c576040805162461bcd60e51b81526020600482015260186024820152776f75747374616e64696e67207346544d2062616c616e636560401b604482015290519081900360640190fd5b611f4682866144e3565b506000611f5983878785600001546146ae565b825486900383559050611f6d8387836147df565b85836001600160a01b03167fef6c0c14fe9aa51af36acd791464dec3badbde668b63189b47bfa4e25be9b2b98784604051808381526020018281526020019250505060405180910390a395945050505050565b611fc933614238565b6120045760405162461bcd60e51b81526004018080602001828103825260298152602001806166c26029913960400191505060405180910390fd5b80612045576040805162461bcd60e51b815260206004820152600c60248201526b77726f6e672073746174757360a01b604482015290519081900360640190fd5b61204f828261492f565b61205a826000613564565b5050565b60a660209081526000938452604080852082529284528284209052825290208054600182015460029092015490919083565b600061209a614a59565b60b05402905090565b4260ba55565b600060646120b5614a59565b60b25402816120c057fe5b04905090565b609a546001600160a01b031690565b60a25481565b60ad5460ae549091565b6120ed613917565b806120fb57506120fb613505565b6121365760405162461bcd60e51b81526004018080602001828103825260508152602001806167e96050913960600191505060405180910390fd5b61199881614a65565b60bb805460ff19169055565b6121536130ef565b612192576040805162461bcd60e51b8152602060048201819052602482015260008051602061679b833981519152604482015290519081900360640190fd5b600081126121a75760ab805482019055611998565b60ab805460008390039003905550565b6067546001600160a01b031690565b60ac60205280600052604060002060009150905080600701549080600801549080600901549080600a01549080600b01549080600c01549080600d0154905087565b600054610100900460ff16806122215750612221614aa0565b8061222f575060005460ff16155b61226a5760405162461bcd60e51b815260040180806020018281038252602e8152602001806167bb602e913960400191505060405180910390fd5b600054610100900460ff16158015612295576000805460ff1961ff0019909116610100171660011790555b61229e83614aa6565b6122a88284614b97565b6122b182614cd2565b609c869055609b80546001600160a01b0319166001600160a01b03861617905560ab8590556755cfe697852e904c60aa556103e860ad556203f48060ae556122f7612bd4565b600087815260ac6020526040902060070155801561231b576000805461ff00191690555b505050505050565b61232b613917565b806123395750612339613505565b6123745760405162461bcd60e51b81526004018080602001828103825260508152602001806167e96050913960600191505060405180910390fd5b61199881614dbd565b33612386616571565b506001600160a01b038116600090815260a66020908152604080832086845282528083208584528252918290208251606081018452815480825260018301549382019390935260029091015492810192909252612422576040805162461bcd60e51b81526020600482015260156024820152741c995c5d595cdd08191bd95cdb89dd08195e1a5cdd605a1b604482015290519081900360640190fd5b61242c8285614441565b612478576040805162461bcd60e51b81526020600482015260186024820152776f75747374616e64696e67207346544d2062616c616e636560401b604482015290519081900360640190fd5b60208082015182516000878152609d909352604090922060010154909190158015906124b457506000868152609d602052604090206001015482115b156124d55750506000848152609d6020526040902060018101546002909101545b6124dd61349a565b82016124e7612bd4565b1015612533576040805162461bcd60e51b81526020600482015260166024820152751b9bdd08195b9bdd59da081d1a5b59481c185cdcd95960521b604482015290519081900360640190fd5b61253b612d04565b8101612545612f43565b1015612598576040805162461bcd60e51b815260206004820152601860248201527f6e6f7420656e6f7567682065706f636873207061737365640000000000000000604482015290519081900360640190fd5b6001600160a01b038416600090815260a6602090815260408083208984528252808320888452909152812060020154906125d188613529565b905060006125f3838360b860008d815260200190815260200160002054614df8565b6001600160a01b038816600090815260a6602090815260408083208d845282528083208c84529091528120818155600181018290556002015560a38054820190559050808311612683576040805162461bcd60e51b81526020600482015260166024820152751cdd185ad9481a5cc8199d5b1b1e481cdb185cda195960521b604482015290519081900360640190fd5b60006001600160a01b03881661269f858463ffffffff6141f616565b604051600081818185875af1925050503d80600081146126db576040519150601f19603f3d011682016040523d82523d6000602084013e6126e0565b606091505b505090508061272b576040805162461bcd60e51b81526020600482015260126024820152714661696c656420746f2073656e642046544d60701b604482015290519081900360640190fd5b888a896001600160a01b03167f75e161b3e824b114fc1a33274bd7091918dd4e639cede50b78b15a4eea956a21876040518082815260200191505060405180910390a450505050505050505050565b6127826130ef565b6127c1576040805162461bcd60e51b8152602060048201819052602482015260008051602061679b833981519152604482015290519081900360640190fd5b6127ca82613529565b61281b576040805162461bcd60e51b815260206004820152601760248201527f76616c696461746f722069736e277420736c6173686564000000000000000000604482015290519081900360640190fd5b612823614a59565b8111156128615760405162461bcd60e51b81526004018080602001828103825260218152602001806168396021913960400191505060405180910390fd5b600082815260b860209081526040918290208390558151838152915184927f047575f43f09a7a093d94ec483064acfc61b7e25c0de28017da442abf99cb91792908290030190a25050565b336128b781856144e3565b50600082116128fb576040805162461bcd60e51b815260206004820152600b60248201526a1e995c9bc8185b5bdd5b9d60aa1b604482015290519081900360640190fd5b6129058185611be4565b821115612959576040805162461bcd60e51b815260206004820152601960248201527f6e6f7420656e6f75676820756e6c6f636b6564207374616b6500000000000000604482015290519081900360640190fd5b6129638185614441565b6129af576040805162461bcd60e51b81526020600482015260186024820152776f75747374616e64696e67207346544d2062616c616e636560401b604482015290519081900360640190fd5b6001600160a01b038116600090815260a660209081526040808320878452825280832086845290915290206002015415612a26576040805162461bcd60e51b81526020600482015260136024820152727772494420616c72656164792065786973747360681b604482015290519081900360640190fd5b612a318185846147df565b6001600160a01b038116600090815260a66020908152604080832087845282528083208684529091529020600201829055612a6a612f43565b6001600160a01b038216600090815260a6602090815260408083208884528252808320878452909152902055612a9e612bd4565b6001600160a01b038216600090815260a6602090815260408083208884528252808320878452909152812060010191909155612adb908590613564565b8284826001600160a01b03167fd3bb4e423fbea695d16b982f9f682dc5f35152e5411646a8a5a79a6b02ba8d57856040518082815260200191505060405180910390a450505050565b612b2d33614238565b612b685760405162461bcd60e51b81526004018080602001828103825260298152602001806166c26029913960400191505060405180910390fd5b612bb0898989898080601f0160208091040260200160405190810160405280939291908181526020018383808284376000920191909152508b92508a91508990508888614e5a565b60a054881115611ddd5760a0889055505050505050505050565b6219981960e91b90565b60ba5490565b6000818152609d60209081526040808320600601546001600160a01b0316835260a782528083208484529091529020545b919050565b600091825260ac6020908152604080842092845291905290205490565b6066546001600160a01b031690565b60006064612c48614a59565b60b35402816120c057fe5b60a35481565b6000612c63616571565b612c6d8484615009565b805160208201516040830151929350612c8f92611ab69163ffffffff61409f16565b949350505050565b600091825260ac602090815260408084209284526001909201905290205490565b612cc0613505565b612cfb5760405162461bcd60e51b81526004018080602001828103825260318152602001806166eb6031913960400191505060405180910390fd5b61199881615077565b60b65490565b6000612d1683836137be565b612d2257506000611c67565b506001600160a01b0391909116600090815260a860209081526040808320938352929052205490565b612d53613917565b80612d615750612d61613505565b612d9c5760405162461bcd60e51b81526004018080602001828103825260508152602001806167e96050913960600191505060405180910390fd5b61199881615118565b6000612daf616571565b506001600160a01b038316600090815260a46020908152604080832085845282529182902082516060810184528154808252600183015493820184905260029092015493810184905292612c8f929091611ab6919063ffffffff61409f16565b612e176130ef565b612e56576040805162461bcd60e51b8152602060048201819052602482015260008051602061679b833981519152604482015290519081900360640190fd5b609a546040516001600160a01b038084169216907f434a2db650703b36c824e745330d6397cdaa9ee2cc891a4938ae853e1c50b68d90600090a3609a80546001600160a01b0319166001600160a01b0392909216919091179055565b612eba6130ef565b612ef9576040805162461bcd60e51b8152602060048201819052602482015260008051602061679b833981519152604482015290519081900360640190fd5b6033546040516000916001600160a01b0316907f8be0079c531659141344cd1fd0a4f28419497f9722a3daafe3b4186f6b6457e0908390a3603380546001600160a01b0319169055565b609c5460010190565b609c5481565b609f6020908152600091825260409182902080548351601f600260001961010060018616150201909316929092049182018490048402810184019094528084529091830182828015612fe55780601f10612fba57610100808354040283529160200191612fe5565b820191906000526020600020905b815481529060010190602001808311612fc857829003601f168201915b505050505081565b6000612ff7615153565b905090565b60a15481565b61300a6130ef565b613049576040805162461bcd60e51b8152602060048201819052602482015260008051602061679b833981519152604482015290519081900360640190fd5b60ae81905560ad829055604080518381526020810183905281517f702756a07c05d0bbfd06fc17b67951a5f4deb7bb6b088407e68a58969daf2a34929181900390910190a15050565b61309c82826144e3565b61205a576040805162461bcd60e51b815260206004820152601060248201526f0dcdee8d0d2dcce40e8de40e6e8c2e6d60831b604482015290519081900360640190fd5b6033546001600160a01b031690565b6033546001600160a01b0316331490565b60a860209081526000928352604080842090915290825290208054600182015460028301546003909301549192909184565b6119983382346140f9565b600091825260ac602090815260408084209284526005909201905290205490565b6131666130ef565b6131a5576040805162461bcd60e51b8152602060048201819052602482015260008051602061679b833981519152604482015290519081900360640190fd5b60b980546001600160a01b0319166001600160a01b0392909216919091179055565b6131cf613540565b34101561321d576040805162461bcd60e51b8152602060048201526017602482015276696e73756666696369656e742073656c662d7374616b6560481b604482015290519081900360640190fd5b801580159061322d575060418111155b61326d576040805162461bcd60e51b815260206004820152600c60248201526b656d707479207075626b657960a01b604482015290519081900360640190fd5b6132ad3383838080601f01602080910402602001604051908101604052809392919081815260200183838082843760009201919091525061515792505050565b61205a3360a054346140f9565b600060646132c6614a59565b60b15402816120c057fe5b60a560209081526000928352604080842090915290825290205481565b6132f6613917565b806133045750613304613505565b61333f5760405162461bcd60e51b81526004018080602001828103825260508152602001806167e96050913960600191505060405180910390fd5b61199881615182565b609d60205260009081526040902080546001820154600283015460038401546004850154600586015460069096015494959394929391929091906001600160a01b031687565b6133966130ef565b6133d5576040805162461bcd60e51b8152602060048201819052602482015260008051602061679b833981519152604482015290519081900360640190fd5b6801c985c8903591eb20811115613433576040805162461bcd60e51b815260206004820152601b60248201527f746f6f206c617267652072657761726420706572207365636f6e640000000000604482015290519081900360640190fd5b60aa8190556040805182815290517f8cd9dae1bbea2bc8a5e80ffce2c224727a25925130a03ae100619a8861ae23969181900360200190a150565b60a960209081526000928352604080842090915290825290208054600182015460029092015490919083565b60b75490565b600081815260ac60209081526040918290206006018054835181840281018401909452808452606093928301828280156134f957602002820191906000526020600020905b8154815260200190600101908083116134e5575b50505050509050919050565b6067546001600160a01b0316331490565b33613523818585856151bd565b50505050565b6000908152609d6020526040902054608016151590565b670467fc915c2fc00090565b60b86020526000908152604090205481565b60a05481565b61356d8261546f565b6135b8576040805162461bcd60e51b81526020600482015260176024820152761d985b1a59185d1bdc88191bd95cdb89dd08195e1a5cdd604a1b604482015290519081900360640190fd5b6000828152609d6020526040902060038101549054156135d6575060005b609b546040805163520337df60e11b8152600481018690526024810184905290516001600160a01b039092169163a4066fbe9160448082019260009290919082900301818387803b15801561362a57600080fd5b505af115801561363e573d6000803e3d6000fd5b5050505081801561364e57508015155b1561374257609b546000848152609f602052604090819020815163242a6e3f60e01b81526004810187815260248201938452825460026000196001831615610100020190911604604483018190526001600160a01b039095169463242a6e3f948994939091606490910190849080156137085780601f106136dd57610100808354040283529160200191613708565b820191906000526020600020905b8154815290600101906020018083116136eb57829003601f168201915b50509350505050600060405180830381600087803b15801561372957600080fd5b505af115801561373d573d6000803e3d6000fd5b505050505b505050565b61374f613917565b8061375d575061375d613505565b6137985760405162461bcd60e51b81526004018080602001828103825260508152602001806167e96050913960600191505060405180910390fd5b61199881615486565b60a760209081526000928352604080842090915290825290205481565b6001600160a01b038216600090815260a8602090815260408083208484529091528120600201541580159061381557506001600160a01b038316600090815260a86020908152604080832085845290915290205415155b8015611c6457506001600160a01b038316600090815260a86020908152604080832085845290915290206002015461384b612bd4565b11159392505050565b61385c613917565b8061386a575061386a613505565b6138a55760405162461bcd60e51b81526004018080602001828103825260508152602001806167e96050913960600191505060405180910390fd5b611998816154c1565b60bb5460ff1681565b6138bf613917565b806138cd57506138cd613505565b6139085760405162461bcd60e51b81526004018080602001828103825260508152602001806167e96050913960600191505060405180910390fd5b61199881615562565b60aa5481565b6066546001600160a01b0316331490565b600091825260ac602090815260408084209284526003909201905290205490565b338161398a576040805162461bcd60e51b815260206004820152600b60248201526a1e995c9bc8185b5bdd5b9d60aa1b604482015290519081900360640190fd5b61399481856137be565b156139da576040805162461bcd60e51b81526020600482015260116024820152700616c7265616479206c6f636b656420757607c1b604482015290519081900360640190fd5b613523818585856151bd565b600091825260ac602090815260408084209284526002909201905290205490565b613a1033614238565b613a4b5760405162461bcd60e51b81526004018080602001828103825260298152602001806166c26029913960400191505060405180910390fd5b600060ac6000613a59612f43565b8152602001908152602001600020905060008090505b82811015613ad2576000848483818110613a8557fe5b602090810292909201356000818152609d8452604080822060030154948890529020839055600c860154909350613ac391508263ffffffff61409f16565b600c8501555050600101613a6f565b50613523600682018484616592565b600091825260ac602090815260408084209284526004909201905290205490565b613b0a6130ef565b613b49576040805162461bcd60e51b8152602060048201819052602482015260008051602061679b833981519152604482015290519081900360640190fd5b613b52836143bc565b6040516001600160a01b0385169084156108fc029085906000818181858888f19350505050158015613b88573d6000803e3d6000fd5b50836001600160a01b03167f9eec469b348bcf64bbfb60e46ce7b160e2e09bf5421496a2cdbc43714c28b8ad84848460405180848152602001806020018281038252848482818152602001925080828437600083820152604051601f909101601f1916909201829003965090945050505050a250505050565b613c09613917565b80613c175750613c17613505565b613c525760405162461bcd60e51b81526004018080602001828103825260508152602001806167e96050913960600191505060405180910390fd5b6119988161559d565b613c6433614238565b613c9f5760405162461bcd60e51b81526004018080602001828103825260298152602001806166c26029913960400191505060405180910390fd5b600060ac6000613cad612f43565b81526020019081526020016000209050606081600601805480602002602001604051908101604052809291908181526020018280548015613d0d57602002820191906000526020600020905b815481526020019060010190808311613cf9575b50505050509050613d9482828c8c80806020026020016040519081016040528093929190818152602001838360200280828437600081840152601f19601f820116905080830192505050505050508b8b808060200260200160405190810160405280939291908181526020018383602002808284376000920191909152506155d892505050565b613e03828288888080602002602001604051908101604052809392919081815260200183836020028082843760009201919091525050604080516020808c0282810182019093528b82529093508b92508a9182918501908490808284376000920191909152506156ee92505050565b613e0b612f43565b609c55613e16612bd4565b60078301555060aa54600b82015560ab54600d909101555050505050505050565b613e3f6130ef565b613e7e576040805162461bcd60e51b8152602060048201819052602482015260008051602061679b833981519152604482015290519081900360640190fd5b61199881615d34565b6000611c648383615dd5565b613e9b613917565b80613ea95750613ea9613505565b613ee45760405162461bcd60e51b81526004018080602001828103825260508152602001806167e96050913960600191505060405180910390fd5b61199881615e94565b600080609a60009054906101000a90046001600160a01b03166001600160a01b0316635584c4f96040518163ffffffff1660e01b815260040160206040518083038186803b158015613f3e57600080fd5b505afa158015613f52573d6000803e3d6000fd5b505050506040513d6020811015613f6857600080fd5b505191505090565b60b08190556040805182815290517fd3b49810855efc7d611424cd0a8cc519b92cf2e97bd3516921dff1a19b101e359181900360200190a150565b613fb3616571565b613fbd83836144e3565b50506001600160a01b038216600090815260a4602090815260408083208484528252808320815160608101835281548082526001830154948201859052600290920154928101839052939261401b92611ab69163ffffffff61409f16565b90508061405e576040805162461bcd60e51b815260206004820152600c60248201526b7a65726f207265776172647360a01b604482015290519081900360640190fd5b6001600160a01b038416600090815260a46020908152604080832086845290915281208181556001810182905560020155614098816143bc565b5092915050565b600082820183811015611c64576040805162461bcd60e51b815260206004820152601b60248201527f536166654d6174683a206164646974696f6e206f766572666c6f770000000000604482015290519081900360640190fd5b6141028261546f565b61414d576040805162461bcd60e51b81526020600482015260176024820152761d985b1a59185d1bdc88191bd95cdb89dd08195e1a5cdd604a1b604482015290519081900360640190fd5b6000828152609d6020526040902054156141a7576040805162461bcd60e51b815260206004820152601660248201527576616c696461746f722069736e27742061637469766560501b604482015290519081900360640190fd5b6141b2838383614257565b6141bb82615ecf565b6137425760405162461bcd60e51b81526004018080602001828103825260298152602001806168826029913960400191505060405180910390fd5b6000611c6483836040518060400160405280601e81526020017f536166654d6174683a207375627472616374696f6e206f766572666c6f770000815250615f17565b60bb5460009060ff161561424e57506001612c0b565b611c6782615fae565b6000811161429a576040805162461bcd60e51b815260206004820152600b60248201526a1e995c9bc8185b5bdd5b9d60aa1b604482015290519081900360640190fd5b6142a483836144e3565b506001600160a01b038316600090815260a7602090815260408083208584529091529020546142d9908263ffffffff61409f16565b6001600160a01b038416600090815260a760209081526040808320868452825280832093909355609d90522060030154614319818363ffffffff61409f16565b6000848152609d602052604090206003015560a15461433e908363ffffffff61409f16565b60a1556000838152609d602052604090205461436b5760a254614367908363ffffffff61409f16565b60a2555b614376838215613564565b60408051838152905184916001600160a01b038716917f9a8f44850296624dadfd9c246d17e47171d35727a181bd090aa14bbbe00238bb9181900360200190a350505050565b609b54604080516366e7ea0f60e01b81523060048201526024810184905290516001600160a01b03909216916366e7ea0f9160448082019260009290919082900301818387803b15801561440f57600080fd5b505af1158015614423573d6000803e3d6000fd5b505060ab5461443b925090508263ffffffff61409f16565b60ab5550565b60b9546000906001600160a01b031661445c57506001611c67565b60b954604080516321d585c360e01b81526001600160a01b03868116600483015260248201869052915191909216916321d585c3916044808301926020929190829003018186803b1580156144b057600080fd5b505afa1580156144c4573d6000803e3d6000fd5b505050506040513d60208110156144da57600080fd5b50519392505050565b60006144ed616571565b6144f78484615fc2565b9050614502836160fa565b6001600160a01b038516600081815260a56020908152604080832088845282528083209490945591815260a48252828120868252825282902082516060810184528154815260018201549281019290925260020154918101919091526145689082616155565b6001600160a01b038516600081815260a460209081526040808320888452825280832085518155858301516001808301919091559582015160029182015593835260a98252808320888452825291829020825160608101845281548152948101549185019190915290910154908201526145e29082616155565b6001600160a01b038516600090815260a9602090815260408083208784528252918290208351815590830151600182015591015160029091015561462684846137be565b614689576001600160a01b038416600081815260a860209081526040808320878452825280832083815560018082018590556002808301869055600390920185905594845260a98352818420888552909252822082815592830182905591909101555b602081015115158061469b5750805115155b80612c8f57506040015115159392505050565b6001600160a01b038416600090815260a96020908152604080832086845290915281205481906146f69084906146ea908763ffffffff6161c716565b9063ffffffff61622016565b6001600160a01b038716600090815260a960209081526040808320898452909152812060010154919250906147379085906146ea908863ffffffff6161c716565b6001600160a01b038816600090815260a9602090815260408083208a84529091529020549091506002820483019061476f90846141f6565b6001600160a01b038916600090815260a9602090815260408083208b84529091529020908155600101546147a390836141f6565b6001600160a01b038916600090815260a9602090815260408083208b84529091529020600101558581106147d45750845b979650505050505050565b6001600160a01b038316600090815260a760209081526040808320858452825280832080548590039055609d909152902060030154614824908263ffffffff6141f616565b6000838152609d602052604090206003015560a154614849908263ffffffff6141f616565b60a1556000828152609d60205260409020546148765760a254614872908263ffffffff6141f616565b60a2555b600061488183612bda565b9050801561492857614891613540565b8110156148df576040805162461bcd60e51b8152602060048201526017602482015276696e73756666696369656e742073656c662d7374616b6560481b604482015290519081900360640190fd5b6148e883615ecf565b6149235760405162461bcd60e51b81526004018080602001828103825260298152602001806168826029913960400191505060405180910390fd5b613523565b6135238360015b6000828152609d602052604090205415801561494a57508015155b15614977576000828152609d602052604090206003015460a2546149739163ffffffff6141f616565b60a2555b6000828152609d602052604090205481111561205a576000828152609d6020526040902081815560020154614a1f576149ae612f43565b6000838152609d60205260409020600201556149c8612bd4565b6000838152609d60209081526040918290206001810184905560020154825190815290810192909252805184927fac4801c32a6067ff757446524ee4e7a373797278ac3c883eac5c693b4ad72e4792908290030190a25b60408051828152905183917fcd35267e7654194727477d6c78b541a553483cff7f92a055d17868d3da6e953e919081900360200190a25050565b670de0b6b3a764000090565b60b18190556040805182815290517f969e21e21af49053b3bfee796b627ebc26e10328889e90a47da2f1205d3e8f139181900360200190a150565b303b1590565b600054610100900460ff1680614abf5750614abf614aa0565b80614acd575060005460ff16155b614b085760405162461bcd60e51b815260040180806020018281038252602e8152602001806167bb602e913960400191505060405180910390fd5b600054610100900460ff16158015614b33576000805460ff1961ff0019909116610100171660011790555b603380546001600160a01b0319166001600160a01b0384811691909117918290556040519116906000907f8be0079c531659141344cd1fd0a4f28419497f9722a3daafe3b4186f6b6457e0908290a3801561205a576000805461ff00191690555050565b600054610100900460ff1680614bb05750614bb0614aa0565b80614bbe575060005460ff16155b614bf95760405162461bcd60e51b815260040180806020018281038252602e8152602001806167bb602e913960400191505060405180910390fd5b600054610100900460ff16158015614c24576000805460ff1961ff0019909116610100171660011790555b606680546001600160a01b038086166001600160a01b03199283161792839055606780548683169316929092179091556040519116906000907f5f56bee8cffbe9a78652a74a60705edede02af10b0bbb888ca44b79a0d42ce80908290a36067546040516001600160a01b03909116906000907fd91e5ba07efb2e532a3d502f5fb4451cf8fe4006f3b90283d8f2f51a06e5358c908290a38015613742576000805461ff0019169055505050565b600054610100900460ff1680614ceb5750614ceb614aa0565b80614cf9575060005460ff16155b614d345760405162461bcd60e51b815260040180806020018281038252602e8152602001806167bb602e913960400191505060405180910390fd5b600054610100900460ff16158015614d5f576000805460ff1961ff0019909116610100171660011790555b609a80546001600160a01b0319166001600160a01b0384169081179091556040516000907f434a2db650703b36c824e745330d6397cdaa9ee2cc891a4938ae853e1c50b68d908290a3801561205a576000805461ff00191690555050565b60b48190556040805182815290517f31d33f23d1e7fe45f7e898c070587ff0f2f519674e5e2a12f90b3a17c77f6ad19181900360200190a150565b6000821580614e0e5750614e0a614a59565b8210155b15614e1b57506000614e53565b614e466001611ab6614e2b614a59565b6146ea86614e37614a59565b8a91900363ffffffff6161c716565b905083811115614e535750825b9392505050565b6001600160a01b0388166000908152609e602052604090205415614ec5576040805162461bcd60e51b815260206004820152601860248201527f76616c696461746f7220616c7265616479206578697374730000000000000000604482015290519081900360640190fd5b6001600160a01b0388166000818152609e602090815260408083208b90558a8352609d82528083208981556004810189905560058101889055600181018690556002810187905560060180546001600160a01b031916909417909355609f81529190208751614f36928901906165dd565b50876001600160a01b0316877f49bca1ed2666922f9f1690c26a569e1299c2a715fe57647d77e81adfabbf25bf8686604051808381526020018281526020019250505060405180910390a38115614fc2576040805183815260208101839052815189927fac4801c32a6067ff757446524ee4e7a373797278ac3c883eac5c693b4ad72e47928290030190a25b8415614fff5760408051868152905188917fcd35267e7654194727477d6c78b541a553483cff7f92a055d17868d3da6e953e919081900360200190a25b5050505050505050565b615011616571565b615019616571565b6150238484615fc2565b6001600160a01b038516600090815260a4602090815260408083208784528252918290208251606081018452815481526001820154928101929092526002015491810191909152909150612c8f9082616155565b6001600160a01b0381166150bc5760405162461bcd60e51b81526004018080602001828103825260378152602001806168ab6037913960400191505060405180910390fd5b6067546040516001600160a01b038084169216907fd91e5ba07efb2e532a3d502f5fb4451cf8fe4006f3b90283d8f2f51a06e5358c90600090a3606780546001600160a01b0319166001600160a01b0392909216919091179055565b60b68190556040805182815290517f2f273767369d76e1ecbee32ed26135f390df620f085feb7a6f2e3dd51985bd5f9181900360200190a150565b4290565b60a08054600101908190556137428382846000615172612f43565b61517a612bd4565b600080614e5a565b60b28190556040805182815290517f12420e865335c7cfb225296eb0adaca14bfb1de93b3731ed1e0434746a4d91249181900360200190a150565b6151c78484611be4565b81111561520e576040805162461bcd60e51b815260206004820152601060248201526f6e6f7420656e6f756768207374616b6560801b604482015290519081900360640190fd5b6000838152609d602052604090205415615268576040805162461bcd60e51b815260206004820152601660248201527576616c696461746f722069736e27742061637469766560501b604482015290519081900360640190fd5b615270611bcc565b82101580156152865750615282611bc1565b8211155b6152cc576040805162461bcd60e51b815260206004820152601260248201527134b731b7b93932b1ba10323ab930ba34b7b760711b604482015290519081900360640190fd5b60006152da83611ab6612bd4565b6000858152609d60205260409020600601549091506001600160a01b039081169086168114615368576001600160a01b038116600090815260a8602090815260408083208884529091529020600201548211156153685760405162461bcd60e51b815260040180806020018281038252602881526020018061685a6028913960400191505060405180910390fd5b61537286866144e3565b506001600160a01b038616600090815260a860209081526040808320888452909152902060038101548510156153ef576040805162461bcd60e51b815260206004820152601f60248201527f6c6f636b7570206475726174696f6e2063616e6e6f7420646563726561736500604482015290519081900360640190fd5b8054615401908563ffffffff61409f16565b815561540b612f43565b600182015560028101839055600381018590556040805186815260208101869052815188926001600160a01b038b16927f138940e95abffcd789b497bf6188bba3afa5fbd22fb5c42c2f6018d1bf0f4e78929081900390910190a350505050505050565b6000908152609d6020526040902060050154151590565b60b38190556040805182815290517fcda2f8a6b9050afa9ac1f8d6ff9a123894f76a5530c6c29636332c995a1f97159181900360200190a150565b6001600160a01b0381166155065760405162461bcd60e51b815260040180806020018281038252603281526020018061671c6032913960400191505060405180910390fd5b6066546040516001600160a01b038084169216907f5f56bee8cffbe9a78652a74a60705edede02af10b0bbb888ca44b79a0d42ce8090600090a3606680546001600160a01b0319166001600160a01b0392909216919091179055565b60af8190556040805182815290517fe9a0db1369c39eb7fc2ed3d7e122f9ee60952b075329b1e84bce8843367210f49181900360200190a150565b60b78190556040805182815290517f9e85e6207a28e085f027a9b979cad850f4c36a581dd42c119e856c04b92d96119181900360200190a150565b60005b83518110156156e75760ad548282815181106155f357fe5b602002602001015111801561561d575060ae5483828151811061561257fe5b602002602001015110155b1561565e5761564084828151811061563157fe5b6020026020010151600861492f565b61565e84828151811061564f57fe5b60200260200101516000613564565b82818151811061566a57fe5b602002602001015185600401600086848151811061568457fe5b60200260200101518152602001908152602001600020819055508181815181106156aa57fe5b60200260200101518560050160008684815181106156c457fe5b6020908102919091018101518252810191909152604001600020556001016155db565b5050505050565b6156f661664b565b6040518060c00160405280855160405190808252806020026020018201604052801561572c578160200160208202803883390190505b508152602001600081526020018551604051908082528060200260200182016040528015615764578160200160208202803883390190505b508152602001600081526020016000815260200160008152509050600060ac600061579e6001615792612f43565b9063ffffffff6141f616565b815260208101919091526040016000206001608084015260078101549091506157c5612bd4565b11156157df5780600701546157d8612bd4565b0360808301525b60005b85518110156158e75760008260030160008884815181106157ff57fe5b6020026020010151815260200190815260200160002054905060008090508186848151811061582a57fe5b60200260200101511115615851578186848151811061584557fe5b60200260200101510390505b846080015187848151811061586257fe5b602002602001015182028161587357fe5b048560400151848151811061588457fe5b6020026020010181815250506158be856040015184815181106158a357fe5b6020026020010151866060015161409f90919063ffffffff16565b606086015260a08501516158d8908263ffffffff61409f16565b60a086015250506001016157e2565b5060005b85518110156159b857826080015185828151811061590557fe5b6020026020010151846080015187848151811061591e57fe5b60200260200101518a60000160008b878151811061593857fe5b6020026020010151815260200190815260200160002054028161595757fe5b04028161596057fe5b048360000151828151811061597157fe5b6020026020010181815250506159ab8360000151828151811061599057fe5b6020026020010151846020015161409f90919063ffffffff16565b60208401526001016158eb565b5060005b8551811015615d0c5760006159f4846080015160aa54866000015185815181106159e257fe5b60200260200101518760200151616262565b9050615a30615a238560a0015186604001518581518110615a1157fe5b602002602001015187606001516162a3565b829063ffffffff61409f16565b90506000878381518110615a4057fe5b6020908102919091018101516000818152609d90925260408220600601549092506001600160a01b031690615a7c84615a776132ba565b616300565b6001600160a01b038316600090815260a7602090815260408083208784529091529020549091508015615c2357600081615ab68587612d0a565b840281615abf57fe5b049050808303615acd616571565b6001600160a01b038616600090815260a8602090815260408083208a8452909152902060030154615aff90849061631d565b9050615b09616571565b615b1483600061631d565b6001600160a01b038816600090815260a4602090815260408083208c84528252918290208251606081018452815481526001820154928101929092526002015491810191909152909150615b6990838361640e565b6001600160a01b038816600081815260a4602090815260408083208d8452825280832085518155858301516001808301919091559582015160029182015593835260a982528083208d845282529182902082516060810184528154815294810154918501919091529091015490820152615be490838361640e565b6001600160a01b038816600090815260a9602090815260408083208c845282529182902083518155908301516001820155910151600290910155505050505b6000848152609d6020526040812060030154838703918115615c555781615c48614a59565b840281615c5157fe5b0490505b808a600101600089815260200190815260200160002054018f6001016000898152602001908152602001600020819055508b8981518110615c9257fe5b60200260200101518f6003016000898152602001908152602001600020819055508c8981518110615cbf57fe5b60200260200101518a600201600089815260200190815260200160002054018f600201600089815260200190815260200160002081905550505050505050505080806001019150506159bc565b505060a081015160088601556020810151600986015560600151600a90940193909355505050565b6001600160a01b038116615d795760405162461bcd60e51b815260040180806020018281038252602681526020018061669c6026913960400191505060405180910390fd5b6033546040516001600160a01b038084169216907f8be0079c531659141344cd1fd0a4f28419497f9722a3daafe3b4186f6b6457e090600090a3603380546001600160a01b0319166001600160a01b0392909216919091179055565b6001600160a01b038216600090815260a860209081526040808320848452909152812060010154609c54615e0a858583616429565b15615e18579150611c679050565b615e23858584616429565b615e3257600092505050611c67565b80821115615e4557600092505050611c67565b80821015615e7857600281830104615e5e868683616429565b15615e6e57806001019250615e72565b8091505b50615e45565b80615e8857600092505050611c67565b60001901949350505050565b60b58190556040805182815290517fd830c33dec392daf6dfeac9834107217392396bc333bcbb92e6c1c1a5e8726319181900360200190a150565b6000615efc615edc614a59565b6146ea615ee7612090565b615ef086612bda565b9063ffffffff6161c716565b6000838152609d602052604090206003015411159050919050565b60008184841115615fa65760405162461bcd60e51b81526004018080602001828103825283818151815260200191508051906020019080838360005b83811015615f6b578181015183820152602001615f53565b50505050905090810190601f168015615f985780820380516001836020036101000a031916815260200191505b509250505060405180910390fd5b505050900390565b609b546001600160a01b0390811691161490565b615fca616571565b6001600160a01b038316600090815260a56020908152604080832085845290915281205490615ff8846160fa565b905060006160068686615dd5565b9050818111156160135750805b8281101561601e5750815b6001600160a01b038616600081815260a860209081526040808320898452825280832093835260a78252808320898452909152812054825490919061606a90839063ffffffff6141f616565b9050600061607e84600001548a8988616494565b9050616088616571565b61609682866003015461631d565b90506160a4838b8a89616494565b91506160ae616571565b6160b983600061631d565b90506160c7858c898b616494565b92506160d1616571565b6160dc84600061631d565b90506160e983838361640e565b9d9c50505050505050505050505050565b6000818152609d60205260408120600201541561614d576000828152609d6020526040902060020154609c5410156161355750609c54612c0b565b506000818152609d6020526040902060020154612c0b565b5050609c5490565b61615d616571565b604080516060810190915282518451829161617e919063ffffffff61409f16565b815260200161619e8460200151866020015161409f90919063ffffffff16565b81526020016161be8460400151866040015161409f90919063ffffffff16565b90529392505050565b6000826161d657506000611c67565b828202828482816161e357fe5b0414611c645760405162461bcd60e51b815260040180806020018281038252602181526020018061677a6021913960400191505060405180910390fd5b6000611c6483836040518060400160405280601a81526020017f536166654d6174683a206469766973696f6e206279207a65726f0000000000008152506164f7565b60008261627157506000612c8f565b6000616283868663ffffffff6161c716565b9050616299836146ea838763ffffffff6161c716565b9695505050505050565b6000826162b257506000614e53565b60006162c8836146ea878763ffffffff6161c716565b90506162f76162d5614a59565b6146ea6162e06120a9565b6162e8614a59565b8591900363ffffffff6161c716565b95945050505050565b6000611c6461630d614a59565b6146ea858563ffffffff6161c716565b616325616571565b6040518060600160405280600081526020016000815260200160008152509050816000146163e0576000616357612c3c565b61635f614a59565b039050600061637f61636f611bc1565b6146ea848763ffffffff6161c716565b905060006163a861638e614a59565b6146ea8461639a612c3c565b8a910163ffffffff6161c716565b90506163cd6163b5614a59565b6146ea6163c0612c3c565b899063ffffffff6161c716565b602085018190529003835250611c679050565b6164036163eb614a59565b6146ea6163f6612c3c565b869063ffffffff6161c716565b604082015292915050565b616416616571565b612c8f6164238585616155565b83616155565b6001600160a01b038316600090815260a8602090815260408083208584529091528120600101548210801590612c8f57506001600160a01b038416600090815260a86020908152604080832086845290915290206002015461648a8361655c565b1115949350505050565b60008183106164a557506000612c8f565b600083815260ac60208181526040808420888552600190810183528185205487865293835281852089865201909152909120546147d46164e3614a59565b6146ea89615ef0858763ffffffff6141f616565b600081836165465760405162461bcd60e51b8152602060048201818152835160248401528351909283926044909101919085019080838360008315615f6b578181015183820152602001615f53565b50600083858161655257fe5b0495945050505050565b600090815260ac602052604090206007015490565b60405180606001604052806000815260200160008152602001600081525090565b8280548282559060005260206000209081019282156165cd579160200282015b828111156165cd5782358255916020019190600101906165b2565b506165d9929150616681565b5090565b828054600181600116156101000203166002900490600052602060002090601f016020900481019282601f1061661e57805160ff19168380011785556165cd565b828001600101855582156165cd579182015b828111156165cd578251825591602001919060010190616630565b6040518060c001604052806060815260200160008152602001606081526020016000815260200160008152602001600081525090565b611bc991905b808211156165d9576000815560010161668756fe4f776e61626c653a206e6577206f776e657220697320746865207a65726f206164647265737363616c6c6572206973206e6f7420746865204e6f64654472697665724175746820636f6e7472616374476f7665726e616e6365526f6c653a2063616c6c6572206973206e6f7420746865207365636f6e64617279206f776e6572476f7665726e616e6365526f6c653a206e657720676f7665726e616e636520697320746865207a65726f2061646472657373476f7665726e616e6365546f5346433a20546865726520617265206163746976652070726f706f73616c732e536166654d6174683a206d756c7469706c69636174696f6e206f766572666c6f774f776e61626c653a2063616c6c6572206973206e6f7420746865206f776e6572436f6e747261637420696e7374616e63652068617320616c7265616479206265656e20696e697469616c697a6564476f7665726e616e6365526f6c653a20746869732066756e6374696f6e20697320636f6e74726f6c6c656420627920746865206f776e657220616e6420676f7665726e616e636520636f6e74726163746d757374206265206c657373207468616e206f7220657175616c20746f20312e3076616c696461746f72206c6f636b757020706572696f642077696c6c20656e64206561726c69657276616c696461746f7227732064656c65676174696f6e73206c696d6974206973206578636565646564476f7665726e616e6365526f6c653a206e6577207365636f6e64617279206f776e657220697320746865207a65726f20616464726573736c6f636b6564207374616b652069732067726561746572207468616e207468652077686f6c65207374616b65a265627a7a72315820f0288154c017fc4ad70c7d2c7a3e7242b27fc72bb278f64bcb32029df095edb464736f6c63430005110032",
  "linkReferences": {},
  "deployedLinkReferences": {}
}