{
  "_format": "hh-sol-artifact-1",
  "contractName": "NetworkParameterProposal",
  "sourceName": "contracts/proposal/NetworkParameterProposal.sol",
  "abi": [
    {
      "inputs": [
        {
          "internalType": "string",
          "name": "__name",
          "type": "string"
        },
        {
          "internalType": "string",
          "name": "__description",
          "type": "string"
        },
        {
          "internalType": "bytes32[]",
          "name": "__options",
          "type": "bytes32[]"
        },
        {
          "internalType": "uint256",
          "name": "__minVotes",
          "type": "uint256"
        },
        {
          "internalType": "uint256",
          "name": "__minAgreement",
          "type": "uint256"
        },
        {
          "internalType": "uint256",
          "name": "__start",
          "type": "uint256"
        },
        {
          "internalType": "uint256",
          "name": "__minEnd",
          "type": "uint256"
        },
        {
          "internalType": "uint256",
          "name": "__maxEnd",
          "type": "uint256"
        },
        {
          "internalType": "address",
          "name": "_sfc",
          "type": "address"
        },
        {
          "internalType": "address",
          "name": "verifier",
          "type": "address"
        }
      ],
      "payable": false,
      "stateMutability": "nonpayable",
      "type": "constructor"
    },
    {
      "anonymous": false,
      "inputs": [
        {
          "indexed": false,
          "internalType": "uint256",
          "name": "newValue",
          "type": "uint256"
        }
      ],
      "name": "NetworkParameterUpgradeIsDone",
      "type": "event"
    },
    {
      "anonymous": false,
      "inputs": [
        {
          "indexed": true,
          "internalType": "address",
          "name": "previousOwner",
          "type": "address"
        },
        {
          "indexed": true,
          "internalType": "address",
          "name": "newOwner",
          "type": "address"
        }
      ],
      "name": "OwnershipTransferred",
      "type": "event"
    },
    {
      "constant": false,
      "inputs": [
        {
          "internalType": "uint256",
          "name": "myID",
          "type": "uint256"
        },
        {
          "internalType": "address",
          "name": "govAddress",
          "type": "address"
        }
      ],
      "name": "cancel",
      "outputs": [],
      "payable": false,
      "stateMutability": "nonpayable",
      "type": "function"
    },
    {
      "constant": true,
      "inputs": [],
      "name": "description",
      "outputs": [
        {
          "internalType": "string",
          "name": "",
          "type": "string"
        }
      ],
      "payable": false,
      "stateMutability": "view",
      "type": "function"
    },
    {
      "constant": true,
      "inputs": [],
      "name": "executable",
      "outputs": [
        {
          "internalType": "enum Proposal.ExecType",
          "name": "",
          "type": "uint8"
        }
      ],
      "payable": false,
      "stateMutability": "view",
      "type": "function"
    },
    {
      "constant": false,
      "inputs": [
        {
          "internalType": "uint256",
          "name": "",
          "type": "uint256"
        }
      ],
      "name": "execute_call",
      "outputs": [],
      "payable": false,
      "stateMutability": "nonpayable",
      "type": "function"
    },
    {
      "constant": false,
      "inputs": [
        {
          "internalType": "address",
          "name": "selfAddr",
          "type": "address"
        },
        {
          "internalType": "uint256",
          "name": "newValue",
          "type": "uint256"
        }
      ],
      "name": "execute_delegatecall",
      "outputs": [],
      "payable": false,
      "stateMutability": "nonpayable",
      "type": "function"
    },
    {
      "constant": true,
      "inputs": [],
      "name": "isOwner",
      "outputs": [
        {
          "internalType": "bool",
          "name": "",
          "type": "bool"
        }
      ],
      "payable": false,
      "stateMutability": "view",
      "type": "function"
    },
    {
      "constant": true,
      "inputs": [],
      "name": "minAgreement",
      "outputs": [
        {
          "internalType": "uint256",
          "name": "",
          "type": "uint256"
        }
      ],
      "payable": false,
      "stateMutability": "view",
      "type": "function"
    },
    {
      "constant": true,
      "inputs": [],
      "name": "minVotes",
      "outputs": [
        {
          "internalType": "uint256",
          "name": "",
          "type": "uint256"
        }
      ],
      "payable": false,
      "stateMutability": "view",
      "type": "function"
    },
    {
      "constant": true,
      "inputs": [],
      "name": "name",
      "outputs": [
        {
          "internalType": "string",
          "name": "",
          "type": "string"
        }
      ],
      "payable": false,
      "stateMutability": "view",
      "type": "function"
    },
    {
      "constant": true,
      "inputs": [],
      "name": "opinionScales",
      "outputs": [
        {
          "internalType": "uint256[]",
          "name": "",
          "type": "uint256[]"
        }
      ],
      "payable": false,
      "stateMutability": "view",
      "type": "function"
    },
    {
      "constant": true,
      "inputs": [],
      "name": "options",
      "outputs": [
        {
          "internalType": "bytes32[]",
          "name": "",
          "type": "bytes32[]"
        }
      ],
      "payable": false,
      "stateMutability": "view",
      "type": "function"
    },
    {
      "constant": true,
      "inputs": [],
      "name": "owner",
      "outputs": [
        {
          "internalType": "address",
          "name": "",
          "type": "address"
        }
      ],
      "payable": false,
      "stateMutability": "view",
      "type": "function"
    },
    {
      "constant": true,
      "inputs": [],
      "name": "pType",
      "outputs": [
        {
          "internalType": "uint256",
          "name": "",
          "type": "uint256"
        }
      ],
      "payable": false,
      "stateMutability": "view",
      "type": "function"
    },
    {
      "constant": false,
      "inputs": [],
      "name": "renounceOwnership",
      "outputs": [],
      "payable": false,
      "stateMutability": "nonpayable",
      "type": "function"
    },
    {
      "constant": true,
      "inputs": [],
      "name": "sfc",
      "outputs": [
        {
          "internalType": "contract SFC",
          "name": "",
          "type": "address"
        }
      ],
      "payable": false,
      "stateMutability": "view",
      "type": "function"
    },
    {
      "constant": false,
      "inputs": [
        {
          "internalType": "address",
          "name": "newOwner",
          "type": "address"
        }
      ],
      "name": "transferOwnership",
      "outputs": [],
      "payable": false,
      "stateMutability": "nonpayable",
      "type": "function"
    },
    {
      "constant": true,
      "inputs": [
        {
          "internalType": "address",
          "name": "verifier",
          "type": "address"
        }
      ],
      "name": "verifyProposalParams",
      "outputs": [
        {
          "internalType": "bool",
          "name": "",
          "type": "bool"
        }
      ],
      "payable": false,
      "stateMutability": "view",
      "type": "function"
    },
    {
      "constant": true,
      "inputs": [],
      "name": "votingMaxEndTime",
      "outputs": [
        {
          "internalType": "uint256",
          "name": "",
          "type": "uint256"
        }
      ],
      "payable": false,
      "stateMutability": "view",
      "type": "function"
    },
    {
      "constant": true,
      "inputs": [],
      "name": "votingMinEndTime",
      "outputs": [
        {
          "internalType": "uint256",
          "name": "",
          "type": "uint256"
        }
      ],
      "payable": false,
      "stateMutability": "view",
      "type": "function"
    },
    {
      "constant": true,
      "inputs": [],
      "name": "votingStartTime",
      "outputs": [
        {
          "internalType": "uint256",
          "name": "",
          "type": "uint256"
        }
      ],
      "payable": false,
      "stateMutability": "view",
      "type": "function"
    }
  ],
  "bytecode": "0x60806040523480156200001157600080fd5b50604051620013fb380380620013fb83398181016040526101408110156200003857600080fd5b81019080805160405193929190846401000000008211156200005957600080fd5b9083019060208201858111156200006f57600080fd5b82516401000000008111828201881017156200008a57600080fd5b82525081516020918201929091019080838360005b83811015620000b95781810151838201526020016200009f565b50505050905090810190601f168015620000e75780820380516001836020036101000a031916815260200191505b50604052602001805160405193929190846401000000008211156200010b57600080fd5b9083019060208201858111156200012157600080fd5b82516401000000008111828201881017156200013c57600080fd5b82525081516020918201929091019080838360005b838110156200016b57818101518382015260200162000151565b50505050905090810190601f168015620001995780820380516001836020036101000a031916815260200191505b5060405260200180516040519392919084640100000000821115620001bd57600080fd5b908301906020820185811115620001d357600080fd5b8251866020820283011164010000000082111715620001f157600080fd5b82525081516020918201928201910280838360005b838110156200022057818101518382015260200162000206565b50505050919091016040908152602083810151918401516060850151608086015160a087015160c088015160e0909801519599509297509095909450909290916200027690339062000a22620003aa821b17901c565b89516200028b9060009060208d0190620006f8565b508851620002a19060019060208c0190620006f8565b508751620002b79060029060208b01906200077d565b50600387815560048781556040805160a081018252600081526001602082015260029181019190915260608101929092526080820152620002fc9060059081620007ba565b50600685905560078490556008839055606f80546001600160a01b0319166001600160a01b03848116919091179091558116156200039a5762000348816001600160e01b03620004ad16565b6200039a576040805162461bcd60e51b815260206004820152601360248201527f6661696c656420766572696669636174696f6e00000000000000000000000000604482015290519081900360640190fd5b505050505050505050506200081a565b600954610100900460ff1680620003cf5750620003cf6001600160e01b036200064116565b80620003de575060095460ff16155b6200041b5760405162461bcd60e51b815260040180806020018281038252602e815260200180620013cd602e913960400191505060405180910390fd5b600954610100900460ff1615801562000447576009805460ff1961ff0019909116610100171660011790555b603c80546001600160a01b0319166001600160a01b0384811691909117918290556040519116906000907f8be0079c531659141344cd1fd0a4f28419497f9722a3daafe3b4186f6b6457e0908290a38015620004a9576009805461ff00191690555b5050565b6000816001600160a01b03811663f3f4ef79620004d26001600160e01b036200064816565b620004e56001600160e01b036200064d16565b620004f86001600160e01b036200065216565b6200050b6001600160e01b036200065816565b6200051e6001600160e01b036200065e16565b620005316001600160e01b03620006b816565b620005446001600160e01b03620006c016565b620005576001600160e01b03620006df16565b6040518963ffffffff1660e01b8152600401808981526020018860028111156200057d57fe5b60ff16815260200187815260200186815260200180602001858152602001848152602001838152602001828103825286818151815260200191508051906020019060200280838360005b83811015620005e1578181015183820152602001620005c7565b50505050905001995050505050505050505060206040518083038186803b1580156200060c57600080fd5b505afa15801562000621573d6000803e3d6000fd5b505050506040513d60208110156200063857600080fd5b50519392505050565b303b155b90565b600390565b600290565b60035490565b60045490565b60606005805480602002602001604051908101604052809291908181526020018280548015620006ae57602002820191906000526020600020905b81548152602001906001019080831162000699575b5050505050905090565b600654420190565b600754600090620006d96001600160e01b03620006b816565b01905090565b600854600090620006d96001600160e01b03620006b816565b828054600181600116156101000203166002900490600052602060002090601f016020900481019282601f106200073b57805160ff19168380011785556200076b565b828001600101855582156200076b579182015b828111156200076b5782518255916020019190600101906200074e565b5062000779929150620007fd565b5090565b8280548282559060005260206000209081019282156200076b57916020028201828111156200076b5782518255916020019190600101906200074e565b8280548282559060005260206000209081019282156200076b579160200282015b828111156200076b578251829060ff16905591602001919060010190620007db565b6200064591905b8082111562000779576000815560010162000804565b610ba3806200082a6000396000f3fe608060405234801561001057600080fd5b506004361061012c5760003560e01c8063715018a6116100ad5780639b3a8a07116100715780639b3a8a071461030f578063a61e393a14610317578063aa3daba91461031f578063cb00e7d31461034b578063f2fde38b146103715761012c565b8063715018a6146102b75780637284e416146102bf5780638992229f146102c75780638da5cb5b146102eb5780638f32d59b146102f35761012c565b80633cc228fd116100f45780633cc228fd1461025457806357d682c41461025c57806363012d011461028a5780636eb067a0146102a75780636f24f8a1146102af5761012c565b806306fdde03146101315780631069143a146101ae57806316131a18146102065780632019a60814610232578063216b91161461024c575b600080fd5b610139610397565b6040805160208082528351818301528351919283929083019185019080838360005b8381101561017357818101518382015260200161015b565b50505050905090810190601f1680156101a05780820380516001836020036101000a031916815260200191505b509250505060405180910390f35b6101b661042d565b60408051602080825283518183015283519192839290830191858101910280838360005b838110156101f25781810151838201526020016101da565b505050509050019250505060405180910390f35b61020e610484565b6040518082600281111561021e57fe5b60ff16815260200191505060405180910390f35b61023a610489565b60408051918252519081900360200190f35b61023a610491565b61023a610496565b6102886004803603604081101561027257600080fd5b50803590602001356001600160a01b031661049c565b005b610288600480360360208110156102a057600080fd5b503561055d565b61023a6105a3565b6101b66105a9565b6102886105ff565b6101396106a2565b6102cf610702565b604080516001600160a01b039092168252519081900360200190f35b6102cf610711565b6102fb610720565b604080519115158252519081900360200190f35b61023a610731565b61023a610744565b6102886004803603604081101561033557600080fd5b506001600160a01b038135169060200135610751565b6102fb6004803603602081101561036157600080fd5b50356001600160a01b03166107ee565b6102886004803603602081101561038757600080fd5b50356001600160a01b0316610924565b60008054604080516020601f60026000196101006001881615020190951694909404938401819004810282018101909252828152606093909290918301828280156104235780601f106103f857610100808354040283529160200191610423565b820191906000526020600020905b81548152906001019060200180831161040657829003601f168201915b5050505050905090565b6060600280548060200260200160405190810160405280929190818152602001828054801561042357602002820191906000526020600020905b815481526020019060010190808311610467575050505050905090565b600290565b600654420190565b600390565b60035490565b6104a4610720565b6104f5576040805162461bcd60e51b815260206004820181905260248201527f4f776e61626c653a2063616c6c6572206973206e6f7420746865206f776e6572604482015290519081900360640190fd5b6000819050806001600160a01b031663e0a8f6f5846040518263ffffffff1660e01b815260040180828152602001915050600060405180830381600087803b15801561054057600080fd5b505af1158015610554573d6000803e3d6000fd5b50505050505050565b6040805162461bcd60e51b81526020600482015260136024820152726e6f742063616c6c2d65786563757461626c6560681b604482015290519081900360640190fd5b50565b60045490565b606060058054806020026020016040519081016040528092919081815260200182805480156104235760200282019190600052602060002090815481526020019060010190808311610467575050505050905090565b610607610720565b610658576040805162461bcd60e51b815260206004820181905260248201527f4f776e61626c653a2063616c6c6572206973206e6f7420746865206f776e6572604482015290519081900360640190fd5b603c546040516000916001600160a01b0316907f8be0079c531659141344cd1fd0a4f28419497f9722a3daafe3b4186f6b6457e0908390a3603c80546001600160a01b0319169055565b60018054604080516020601f600260001961010087891615020190951694909404938401819004810282018101909252828152606093909290918301828280156104235780601f106103f857610100808354040283529160200191610423565b606f546001600160a01b031681565b603c546001600160a01b031690565b603c546001600160a01b0316331490565b600060075461073e610489565b01905090565b600060085461073e610489565b606f54604080516303c91ccd60e01b81526004810184905290516001600160a01b03909216916303c91ccd9160248082019260009290919082900301818387803b15801561079e57600080fd5b505af11580156107b2573d6000803e3d6000fd5b50506040805184815290517f429f0e2ca73311a31e395b735e0bff6a88fb01c4f53b8dcdde0a6f208ee2f6ce9350908190036020019150a15050565b6000816001600160a01b03811663f3f4ef79610808610491565b610810610484565b610818610496565b6108206105a3565b6108286105a9565b610830610489565b610838610731565b610840610744565b6040518963ffffffff1660e01b81526004018089815260200188600281111561086557fe5b60ff16815260200187815260200186815260200180602001858152602001848152602001838152602001828103825286818151815260200191508051906020019060200280838360005b838110156108c75781810151838201526020016108af565b50505050905001995050505050505050505060206040518083038186803b1580156108f157600080fd5b505afa158015610905573d6000803e3d6000fd5b505050506040513d602081101561091b57600080fd5b50519392505050565b61092c610720565b61097d576040805162461bcd60e51b815260206004820181905260248201527f4f776e61626c653a2063616c6c6572206973206e6f7420746865206f776e6572604482015290519081900360640190fd5b6105a0816001600160a01b0381166109c65760405162461bcd60e51b8152600401808060200182810382526026815260200180610b1b6026913960400191505060405180910390fd5b603c546040516001600160a01b038084169216907f8be0079c531659141344cd1fd0a4f28419497f9722a3daafe3b4186f6b6457e090600090a3603c80546001600160a01b0319166001600160a01b0392909216919091179055565b600954610100900460ff1680610a3b5750610a3b610b14565b80610a49575060095460ff16155b610a845760405162461bcd60e51b815260040180806020018281038252602e815260200180610b41602e913960400191505060405180910390fd5b600954610100900460ff16158015610aaf576009805460ff1961ff0019909116610100171660011790555b603c80546001600160a01b0319166001600160a01b0384811691909117918290556040519116906000907f8be0079c531659141344cd1fd0a4f28419497f9722a3daafe3b4186f6b6457e0908290a38015610b10576009805461ff00191690555b5050565b303b159056fe4f776e61626c653a206e6577206f776e657220697320746865207a65726f2061646472657373436f6e747261637420696e7374616e63652068617320616c7265616479206265656e20696e697469616c697a6564a265627a7a72315820701c16c512179625e1983d1a48eba7bb356838c8a38ed402d8c6b2965523371664736f6c63430005110032436f6e747261637420696e7374616e63652068617320616c7265616479206265656e20696e697469616c697a6564",
  "linkReferences": {},
  "deployedLinkReferences": {}
}