{
  "_format": "hh-sol-artifact-1",
  "contractName": "UnitTestGovernance",
  "sourceName": "contracts/test/UnitTestGovernance.sol",
  "abi": [
    {
      "anonymous": false,
      "inputs": [
        {
          "indexed": false,
          "internalType": "uint256",
          "name": "proposalID",
          "type": "uint256"
        }
      ],
      "name": "ProposalCanceled",
      "type": "event"
    },
    {
      "anonymous": false,
      "inputs": [
        {
          "indexed": false,
          "internalType": "uint256",
          "name": "proposalID",
          "type": "uint256"
        }
      ],
      "name": "ProposalCreated",
      "type": "event"
    },
    {
      "anonymous": false,
      "inputs": [
        {
          "indexed": false,
          "internalType": "uint256",
          "name": "proposalID",
          "type": "uint256"
        }
      ],
      "name": "ProposalExecutionExpired",
      "type": "event"
    },
    {
      "anonymous": false,
      "inputs": [
        {
          "indexed": false,
          "internalType": "uint256",
          "name": "proposalID",
          "type": "uint256"
        }
      ],
      "name": "ProposalRejected",
      "type": "event"
    },
    {
      "anonymous": false,
      "inputs": [
        {
          "indexed": false,
          "internalType": "uint256",
          "name": "proposalID",
          "type": "uint256"
        }
      ],
      "name": "ProposalResolved",
      "type": "event"
    },
    {
      "anonymous": false,
      "inputs": [
        {
          "indexed": false,
          "internalType": "uint256",
          "name": "quantity",
          "type": "uint256"
        }
      ],
      "name": "TasksErased",
      "type": "event"
    },
    {
      "anonymous": false,
      "inputs": [
        {
          "indexed": false,
          "internalType": "uint256",
          "name": "startIdx",
          "type": "uint256"
        },
        {
          "indexed": false,
          "internalType": "uint256",
          "name": "endIdx",
          "type": "uint256"
        },
        {
          "indexed": false,
          "internalType": "uint256",
          "name": "handled",
          "type": "uint256"
        }
      ],
      "name": "TasksHandled",
      "type": "event"
    },
    {
      "anonymous": false,
      "inputs": [
        {
          "indexed": false,
          "internalType": "address",
          "name": "voter",
          "type": "address"
        },
        {
          "indexed": false,
          "internalType": "address",
          "name": "delegatedTo",
          "type": "address"
        },
        {
          "indexed": false,
          "internalType": "uint256",
          "name": "proposalID",
          "type": "uint256"
        }
      ],
      "name": "VoteCanceled",
      "type": "event"
    },
    {
      "anonymous": false,
      "inputs": [
        {
          "indexed": false,
          "internalType": "address",
          "name": "voter",
          "type": "address"
        },
        {
          "indexed": false,
          "internalType": "uint256",
          "name": "diff",
          "type": "uint256"
        }
      ],
      "name": "VoteWeightOverridden",
      "type": "event"
    },
    {
      "anonymous": false,
      "inputs": [
        {
          "indexed": false,
          "internalType": "address",
          "name": "voter",
          "type": "address"
        },
        {
          "indexed": false,
          "internalType": "uint256",
          "name": "diff",
          "type": "uint256"
        }
      ],
      "name": "VoteWeightUnOverridden",
      "type": "event"
    },
    {
      "anonymous": false,
      "inputs": [
        {
          "indexed": false,
          "internalType": "address",
          "name": "voter",
          "type": "address"
        },
        {
          "indexed": false,
          "internalType": "address",
          "name": "delegatedTo",
          "type": "address"
        },
        {
          "indexed": false,
          "internalType": "uint256",
          "name": "proposalID",
          "type": "uint256"
        },
        {
          "indexed": false,
          "internalType": "uint256[]",
          "name": "choices",
          "type": "uint256[]"
        },
        {
          "indexed": false,
          "internalType": "uint256",
          "name": "weight",
          "type": "uint256"
        }
      ],
      "name": "Voted",
      "type": "event"
    },
    {
      "constant": true,
      "inputs": [
        {
          "internalType": "bytes32",
          "name": "_bytes32",
          "type": "bytes32"
        }
      ],
      "name": "bytes32ToString",
      "outputs": [
        {
          "internalType": "string",
          "name": "",
          "type": "string"
        }
      ],
      "payable": false,
      "stateMutability": "pure",
      "type": "function"
    },
    {
      "constant": true,
      "inputs": [
        {
          "internalType": "uint256",
          "name": "proposalID",
          "type": "uint256"
        }
      ],
      "name": "calculateVotingTally",
      "outputs": [
        {
          "internalType": "bool",
          "name": "proposalResolved",
          "type": "bool"
        },
        {
          "internalType": "uint256",
          "name": "winnerID",
          "type": "uint256"
        },
        {
          "internalType": "uint256",
          "name": "votes",
          "type": "uint256"
        }
      ],
      "payable": false,
      "stateMutability": "view",
      "type": "function"
    },
    {
      "constant": false,
      "inputs": [
        {
          "internalType": "uint256",
          "name": "proposalID",
          "type": "uint256"
        }
      ],
      "name": "cancelProposal",
      "outputs": [],
      "payable": false,
      "stateMutability": "nonpayable",
      "type": "function"
    },
    {
      "constant": false,
      "inputs": [
        {
          "internalType": "address",
          "name": "delegatedTo",
          "type": "address"
        },
        {
          "internalType": "uint256",
          "name": "proposalID",
          "type": "uint256"
        }
      ],
      "name": "cancelVote",
      "outputs": [],
      "payable": false,
      "stateMutability": "nonpayable",
      "type": "function"
    },
    {
      "constant": false,
      "inputs": [
        {
          "internalType": "address",
          "name": "proposalContract",
          "type": "address"
        }
      ],
      "name": "createProposal",
      "outputs": [],
      "payable": true,
      "stateMutability": "payable",
      "type": "function"
    },
    {
      "constant": true,
      "inputs": [
        {
          "internalType": "uint256",
          "name": "i",
          "type": "uint256"
        }
      ],
      "name": "getTask",
      "outputs": [
        {
          "internalType": "bool",
          "name": "active",
          "type": "bool"
        },
        {
          "internalType": "uint256",
          "name": "assignment",
          "type": "uint256"
        },
        {
          "internalType": "uint256",
          "name": "proposalID",
          "type": "uint256"
        }
      ],
      "payable": false,
      "stateMutability": "view",
      "type": "function"
    },
    {
      "constant": true,
      "inputs": [
        {
          "internalType": "address",
          "name": "from",
          "type": "address"
        },
        {
          "internalType": "address",
          "name": "delegatedTo",
          "type": "address"
        },
        {
          "internalType": "uint256",
          "name": "proposalID",
          "type": "uint256"
        }
      ],
      "name": "getVote",
      "outputs": [
        {
          "internalType": "uint256",
          "name": "weight",
          "type": "uint256"
        },
        {
          "internalType": "uint256[]",
          "name": "choices",
          "type": "uint256[]"
        }
      ],
      "payable": false,
      "stateMutability": "view",
      "type": "function"
    },
    {
      "constant": false,
      "inputs": [
        {
          "internalType": "uint256",
          "name": "startIdx",
          "type": "uint256"
        },
        {
          "internalType": "uint256",
          "name": "quantity",
          "type": "uint256"
        }
      ],
      "name": "handleTasks",
      "outputs": [],
      "payable": false,
      "stateMutability": "nonpayable",
      "type": "function"
    },
    {
      "constant": false,
      "inputs": [
        {
          "internalType": "address",
          "name": "_governableContract",
          "type": "address"
        },
        {
          "internalType": "address",
          "name": "_proposalVerifier",
          "type": "address"
        }
      ],
      "name": "initialize",
      "outputs": [],
      "payable": false,
      "stateMutability": "nonpayable",
      "type": "function"
    },
    {
      "constant": true,
      "inputs": [],
      "name": "lastProposalID",
      "outputs": [
        {
          "internalType": "uint256",
          "name": "",
          "type": "uint256"
        }
      ],
      "payable": false,
      "stateMutability": "view",
      "type": "function"
    },
    {
      "constant": true,
      "inputs": [],
      "name": "maxExecutionPeriod",
      "outputs": [
        {
          "internalType": "uint256",
          "name": "",
          "type": "uint256"
        }
      ],
      "payable": false,
      "stateMutability": "pure",
      "type": "function"
    },
    {
      "constant": true,
      "inputs": [],
      "name": "maxOptions",
      "outputs": [
        {
          "internalType": "uint256",
          "name": "",
          "type": "uint256"
        }
      ],
      "payable": false,
      "stateMutability": "pure",
      "type": "function"
    },
    {
      "constant": true,
      "inputs": [
        {
          "internalType": "uint256",
          "name": "totalWeight",
          "type": "uint256"
        },
        {
          "internalType": "uint256",
          "name": "minVotesRatio",
          "type": "uint256"
        }
      ],
      "name": "minVotesAbsolute",
      "outputs": [
        {
          "internalType": "uint256",
          "name": "",
          "type": "uint256"
        }
      ],
      "payable": false,
      "stateMutability": "pure",
      "type": "function"
    },
    {
      "constant": true,
      "inputs": [
        {
          "internalType": "address",
          "name": "",
          "type": "address"
        },
        {
          "internalType": "uint256",
          "name": "",
          "type": "uint256"
        }
      ],
      "name": "overriddenWeight",
      "outputs": [
        {
          "internalType": "uint256",
          "name": "",
          "type": "uint256"
        }
      ],
      "payable": false,
      "stateMutability": "view",
      "type": "function"
    },
    {
      "constant": true,
      "inputs": [],
      "name": "proposalBurntFee",
      "outputs": [
        {
          "internalType": "uint256",
          "name": "",
          "type": "uint256"
        }
      ],
      "payable": false,
      "stateMutability": "pure",
      "type": "function"
    },
    {
      "constant": true,
      "inputs": [],
      "name": "proposalFee",
      "outputs": [
        {
          "internalType": "uint256",
          "name": "",
          "type": "uint256"
        }
      ],
      "payable": false,
      "stateMutability": "pure",
      "type": "function"
    },
    {
      "constant": true,
      "inputs": [
        {
          "internalType": "uint256",
          "name": "proposalID",
          "type": "uint256"
        },
        {
          "internalType": "uint256",
          "name": "optionID",
          "type": "uint256"
        }
      ],
      "name": "proposalOptionState",
      "outputs": [
        {
          "internalType": "uint256",
          "name": "votes",
          "type": "uint256"
        },
        {
          "internalType": "uint256",
          "name": "agreementRatio",
          "type": "uint256"
        },
        {
          "internalType": "uint256",
          "name": "agreement",
          "type": "uint256"
        }
      ],
      "payable": false,
      "stateMutability": "view",
      "type": "function"
    },
    {
      "constant": true,
      "inputs": [
        {
          "internalType": "uint256",
          "name": "proposalID",
          "type": "uint256"
        }
      ],
      "name": "proposalParams",
      "outputs": [
        {
          "internalType": "uint256",
          "name": "pType",
          "type": "uint256"
        },
        {
          "internalType": "enum Proposal.ExecType",
          "name": "executable",
          "type": "uint8"
        },
        {
          "internalType": "uint256",
          "name": "minVotes",
          "type": "uint256"
        },
        {
          "internalType": "uint256",
          "name": "minAgreement",
          "type": "uint256"
        },
        {
          "internalType": "uint256[]",
          "name": "opinionScales",
          "type": "uint256[]"
        },
        {
          "internalType": "bytes32[]",
          "name": "options",
          "type": "bytes32[]"
        },
        {
          "internalType": "address",
          "name": "proposalContract",
          "type": "address"
        },
        {
          "internalType": "uint256",
          "name": "votingStartTime",
          "type": "uint256"
        },
        {
          "internalType": "uint256",
          "name": "votingMinEndTime",
          "type": "uint256"
        },
        {
          "internalType": "uint256",
          "name": "votingMaxEndTime",
          "type": "uint256"
        }
      ],
      "payable": false,
      "stateMutability": "view",
      "type": "function"
    },
    {
      "constant": true,
      "inputs": [
        {
          "internalType": "uint256",
          "name": "proposalID",
          "type": "uint256"
        }
      ],
      "name": "proposalState",
      "outputs": [
        {
          "internalType": "uint256",
          "name": "winnerOptionID",
          "type": "uint256"
        },
        {
          "internalType": "uint256",
          "name": "votes",
          "type": "uint256"
        },
        {
          "internalType": "uint256",
          "name": "status",
          "type": "uint256"
        }
      ],
      "payable": false,
      "stateMutability": "view",
      "type": "function"
    },
    {
      "constant": false,
      "inputs": [
        {
          "internalType": "address",
          "name": "voterAddr",
          "type": "address"
        },
        {
          "internalType": "address",
          "name": "delegatedTo",
          "type": "address"
        },
        {
          "internalType": "uint256",
          "name": "proposalID",
          "type": "uint256"
        }
      ],
      "name": "recountVote",
      "outputs": [],
      "payable": false,
      "stateMutability": "nonpayable",
      "type": "function"
    },
    {
      "constant": true,
      "inputs": [],
      "name": "taskErasingReward",
      "outputs": [
        {
          "internalType": "uint256",
          "name": "",
          "type": "uint256"
        }
      ],
      "payable": false,
      "stateMutability": "pure",
      "type": "function"
    },
    {
      "constant": true,
      "inputs": [],
      "name": "taskHandlingReward",
      "outputs": [
        {
          "internalType": "uint256",
          "name": "",
          "type": "uint256"
        }
      ],
      "payable": false,
      "stateMutability": "pure",
      "type": "function"
    },
    {
      "constant": false,
      "inputs": [
        {
          "internalType": "uint256",
          "name": "quantity",
          "type": "uint256"
        }
      ],
      "name": "tasksCleanup",
      "outputs": [],
      "payable": false,
      "stateMutability": "nonpayable",
      "type": "function"
    },
    {
      "constant": true,
      "inputs": [],
      "name": "tasksCount",
      "outputs": [
        {
          "internalType": "uint256",
          "name": "",
          "type": "uint256"
        }
      ],
      "payable": false,
      "stateMutability": "view",
      "type": "function"
    },
    {
      "constant": true,
      "inputs": [],
      "name": "version",
      "outputs": [
        {
          "internalType": "bytes3",
          "name": "",
          "type": "bytes3"
        }
      ],
      "payable": false,
      "stateMutability": "pure",
      "type": "function"
    },
    {
      "constant": false,
      "inputs": [
        {
          "internalType": "address",
          "name": "delegatedTo",
          "type": "address"
        },
        {
          "internalType": "uint256",
          "name": "proposalID",
          "type": "uint256"
        },
        {
          "internalType": "uint256[]",
          "name": "choices",
          "type": "uint256[]"
        }
      ],
      "name": "vote",
      "outputs": [],
      "payable": false,
      "stateMutability": "nonpayable",
      "type": "function"
    }
  ],
  "bytecode": "0x608060405234801561001057600080fd5b50613b8b806100206000396000f3fe6080604052600436106101815760003560e01c80636b2ad7d8116100d1578063bb6a0f071161008a578063cfa1afa311610064578063cfa1afa314610690578063d26331d4146107ab578063e0a8f6f5146107d5578063e3a4d709146107ff57610181565b8063bb6a0f0714610651578063c25c2f2614610666578063c27cabb51461067b57610181565b80636b2ad7d8146104a55780638a444bd7146104d55780639201de55146104ea578063a1d373d714610589578063aea2ddbd1461059e578063b9e6842b146105b357610181565b806321edf2eb1161013e57806354fd4d501161011857806354fd4d50146103cd5780635df17077146103ff5780635f89801e14610414578063699215061461046257610181565b806321edf2eb1461032f578063485cc95514610368578063491adeee146103a357610181565b806307eecaf5146101865780631191e270146101ae57806314262d79146101f0578063172c18b11461023a5780631d65e77e146102cc5780632177d6fc146102f6575b600080fd5b6101ac6004803603602081101561019c57600080fd5b50356001600160a01b0316610814565b005b3480156101ba57600080fd5b506101de600480360360408110156101d157600080fd5b5080359060200135610927565b60408051918252519081900360200190f35b3480156101fc57600080fd5b5061021a6004803603602081101561021357600080fd5b5035610945565b604080519315158452602084019290925282820152519081900360600190f35b34801561024657600080fd5b506101ac6004803603606081101561025d57600080fd5b6001600160a01b038235169160208101359181019060608101604082013564010000000081111561028d57600080fd5b82018360208201111561029f57600080fd5b803590602001918460208302840111640100000000831117156102c157600080fd5b509092509050610973565b3480156102d857600080fd5b5061021a600480360360208110156102ef57600080fd5b5035610c32565b34801561030257600080fd5b506101de6004803603604081101561031957600080fd5b506001600160a01b038135169060200135610c98565b34801561033b57600080fd5b506101ac6004803603604081101561035257600080fd5b506001600160a01b038135169060200135610cb5565b34801561037457600080fd5b506101ac6004803603604081101561038b57600080fd5b506001600160a01b0381358116916020013516610e68565b3480156103af57600080fd5b506101ac600480360360208110156103c657600080fd5b5035610f43565b3480156103d957600080fd5b506103e26110ba565b604080516001600160e81b03199092168252519081900360200190f35b34801561040b57600080fd5b506101de6110c5565b34801561042057600080fd5b506104446004803603604081101561043757600080fd5b50803590602001356110ca565b60408051938452602084019290925282820152519081900360600190f35b34801561046e57600080fd5b506101ac6004803603606081101561048557600080fd5b506001600160a01b0381358116916020810135909116906040013561110c565b3480156104b157600080fd5b506101ac600480360360408110156104c857600080fd5b50803590602001356112c0565b3480156104e157600080fd5b506101de611413565b3480156104f657600080fd5b506105146004803603602081101561050d57600080fd5b503561141f565b6040805160208082528351818301528351919283929083019185019080838360005b8381101561054e578181015183820152602001610536565b50505050905090810190601f16801561057b5780820380516001836020036101000a031916815260200191505b509250505060405180910390f35b34801561059557600080fd5b506101de611493565b3480156105aa57600080fd5b506101de611499565b3480156105bf57600080fd5b506105f6600480360360608110156105d657600080fd5b506001600160a01b038135811691602081013590911690604001356114a5565b6040518083815260200180602001828103825283818151815260200191508051906020019060200280838360005b8381101561063c578181015183820152602001610624565b50505050905001935050505060405180910390f35b34801561065d57600080fd5b506101de61155a565b34801561067257600080fd5b506101de611560565b34801561068757600080fd5b506101de611567565b34801561069c57600080fd5b506106ba600480360360208110156106b357600080fd5b5035611588565b604051808b81526020018a60028111156106d057fe5b60ff1681526020018981526020018881526020018060200180602001876001600160a01b03166001600160a01b03168152602001868152602001858152602001848152602001838103835289818151815260200191508051906020019060200280838360005b8381101561074e578181015183820152602001610736565b50505050905001838103825288818151815260200191508051906020019060200280838360005b8381101561078d578181015183820152602001610775565b505050509050019c5050505050505050505050505060405180910390f35b3480156107b757600080fd5b50610444600480360360208110156107ce57600080fd5b5035611754565b3480156107e157600080fd5b506101ac600480360360208110156107f857600080fd5b50356118f7565b34801561080b57600080fd5b506101de611ad6565b6033805460010190819055610827611567565b341461087a576040805162461bcd60e51b815260206004820152601a60248201527f706169642070726f706f73616c206665652069732077726f6e67000000000000604482015290519081900360640190fd5b606880546001019081905561088f9083611ae2565b61089a6068546123a2565b6108aa6108a5611413565b612453565b60685460408051918252517fc2c021f5d73c63c481d336fbbafec58f694fc45095f00b02d2deb8cca59afe079181900360200190a16033548114610923576040805162461bcd60e51b815260206004820152601f6024820152600080516020613a20833981519152604482015290519081900360640190fd5b5050565b6000610931612480565b8284028161093b57fe5b0490505b92915050565b6000818152606a60205260408120819081906109608161248c565b600c929092015490969195509350915050565b60338054600101908190556001600160a01b038516610990573394505b6000848152606a6020526040902060058101546001600160a01b03166109e75760405162461bcd60e51b8152600401808060200182810382526025815260200180613add6025913960400191505060405180910390fd5b6109f481600d01546125b6565b610a3d576040805162461bcd60e51b815260206004820152601560248201527470726f706f73616c2069736e27742061637469766560581b604482015290519081900360640190fd5b6007810154421015610a96576040805162461bcd60e51b815260206004820152601c60248201527f70726f706f73616c20766f74696e67206861736e277420626567756e00000000604482015290519081900360640190fd5b336000908152606c602090815260408083206001600160a01b038a168452825280832088845290915290205415610b0a576040805162461bcd60e51b8152602060048201526013602482015272766f746520616c72656164792065786973747360681b604482015290519081900360640190fd5b60068101548314610b62576040805162461bcd60e51b815260206004820152601760248201527f77726f6e67206e756d626572206f662063686f69636573000000000000000000604482015290519081900360640190fd5b6000610ba38633898888808060200260200160405190810160405280939291908181526020018383602002808284376000920191909152506125ba92505050565b905080610be5576040805162461bcd60e51b815260206004820152600b60248201526a1e995c9bc81dd95a59da1d60aa1b604482015290519081900360640190fd5b50506033548114610c2b576040805162461bcd60e51b815260206004820152601f6024820152600080516020613a20833981519152604482015290519081900360640190fd5b5050505050565b6000806000610c3f613864565b60698581548110610c4c57fe5b600091825260209182902060408051606081018252600393909302909101805460ff16151580845260018201549484018590526002909101549290910182905297919650945092505050565b606b60209081526000928352604080842090915290825290205481565b60338054600101908190556001600160a01b038316610cd2573392505b610cda613887565b336000908152606c602090815260408083206001600160a01b03881684528252808320868452825291829020825180840184528154815260018201805485518186028101860190965280865291949293858101939290830182828015610d5f57602002820191906000526020600020905b815481526020019060010190808311610d4b575b505050919092525050815191925050610daf576040805162461bcd60e51b815260206004820152600d60248201526c191bd95cdb89dd08195e1a5cdd609a1b604482015290519081900360640190fd5b6000838152606a60205260409020600d0154610dca906125b6565b610e13576040805162461bcd60e51b815260206004820152601560248201527470726f706f73616c2069736e27742061637469766560581b604482015290519081900360640190fd5b610e1e3385856127ad565b506033548114610e63576040805162461bcd60e51b815260206004820152601f6024820152600080516020613a20833981519152604482015290519081900360640190fd5b505050565b600054610100900460ff1680610e815750610e81612901565b80610e8f575060005460ff16155b610eca5760405162461bcd60e51b815260040180806020018281038252602e815260200180613aaf602e913960400191505060405180910390fd5b600054610100900460ff16158015610ef5576000805460ff1961ff0019909116610100171660011790555b610efd612907565b606680546001600160a01b038086166001600160a01b03199283161790925560678054928516929091169190911790558015610e63576000805461ff0019169055505050565b603380546001019081905560005b60695415801590610f6157508281105b15610fb657606980546000198101908110610f7857fe5b600091825260209091206003909102015460ff16610fa9576069805490610fa39060001983016138a1565b50610fae565b610fb6565b600101610f51565b60008111610ffd576040805162461bcd60e51b815260206004820152600f60248201526e1b9bc81d185cdadcc8195c985cd959608a1b604482015290519081900360640190fd5b6040805182815290517fdd64b087b4726a6d5006bfae34869d1044e415cd6fc53054b69619ee337b730d9181900360200190a1336108fc61104c61103f611499565b849063ffffffff6129ae16565b6040518115909202916000818181858888f19350505050158015611074573d6000803e3d6000fd5b50506033548114610923576040805162461bcd60e51b815260206004820152601f6024820152600080516020613a20833981519152604482015290519081900360640190fd5b6219981960e91b5b90565b600a90565b6000828152606a60209081526040808320848452600a8101909252822080548392839290916110f882612a0e565b826001015494509450945050509250925092565b603380546001908101918290556001600160a01b038086166000908152606c602081815260408084209489168085529482528084208885528252808420948452918152818320815281832087845290529020918101549091906111a6576040805162461bcd60e51b815260206004820152600d60248201526c191bd95cdb89dd08195e1a5cdd609a1b604482015290519081900360640190fd5b6000848152606a60205260409020600d01546111c1906125b6565b61120a576040805162461bcd60e51b815260206004820152601560248201527470726f706f73616c2069736e27742061637469766560581b604482015290519081900360640190fd5b81548154611219888888612a4d565b5083548354838214158061122d5750808314155b611270576040805162461bcd60e51b815260206004820152600f60248201526e1b9bdd1a1a5b99c818da185b99d959608a1b604482015290519081900360640190fd5b50505050505060335481146112ba576040805162461bcd60e51b815260206004820152601f6024820152600080516020613a20833981519152604482015290519081900360640190fd5b50505050565b60338054600101908190556000835b606954811080156112e1575083850181105b15611303576112ef81612aed565b156112fb576001820191505b6001016112cf565b81611348576040805162461bcd60e51b815260206004820152601060248201526f1b9bc81d185cdadcc81a185b991b195960821b604482015290519081900360640190fd5b604080518681526020810183905280820184905290517f010b51ac92c2d2e8fe9c84de31065ca878ff8274a1e5e6d31799520b7d16bb589181900360600190a1336108fc6113a4611397611ad6565b859063ffffffff6129ae16565b6040518115909202916000818181858888f193505050501580156113cc573d6000803e3d6000fd5b5050506033548114610e63576040805162461bcd60e51b815260206004820152601f6024820152600080516020613a20833981519152604482015290519081900360640190fd5b6706f05b59d3b2000090565b60408051602080825281830190925260609182919060208201818038833901905050905060005b602081101561148a5783816020811061145b57fe5b1a60f81b82828151811061146b57fe5b60200101906001600160f81b031916908160001a905350600101611446565b5090505b919050565b60685481565b67016345785d8a000090565b600060606114b1613887565b6001600160a01b038087166000908152606c60209081526040808320938916835292815282822087835281529082902082518084018452815481526001820180548551818602810186019096528086529194929385810193929083018282801561153a57602002820191906000526020600020905b815481526020019060010190808311611526575b505050919092525050815160209092015191989197509095505050505050565b60695490565b6203f48090565b6000611571611499565b611579611ad6565b611581611413565b0101905090565b60008060008060608060008060008061159f6138cd565b60008c8152606a602090815260409182902082516101008101909352805483526001810154909183019060ff1660028111156115d757fe5b60028111156115e257fe5b815260200160028201548152602001600382015481526020016004820180548060200260200160405190810160405280929190818152602001828054801561164957602002820191906000526020600020905b815481526020019060010190808311611635575b505050918352505060058201546001600160a01b031660208083019190915260068301805460408051828502810185018252828152940193928301828280156116b157602002820191906000526020600020905b81548152602001906001019080831161169d575b50505050508152602001600782016040518060600160405290816000820154815260200160018201548152602001600282015481525050815250509050806000015181602001518260400151836060015184608001518560c001518660a001518760e00151600001518860e00151602001518960e00151604001518595508494509a509a509a509a509a509a509a509a509a509a50509193959799509193959799565b6000806000611761613921565b6000858152606a602052604090819020815161018081019092528054608083019081526001820154839190839060a084019060ff1660028111156117a157fe5b60028111156117ac57fe5b815260200160028201548152602001600382015481526020016004820180548060200260200160405190810160405280929190818152602001828054801561181357602002820191906000526020600020905b8154815260200190600101908083116117ff575b505050918352505060058201546001600160a01b0316602080830191909152600683018054604080518285028101850182528281529401939283018282801561187b57602002820191906000526020600020905b815481526020019060010190808311611867575b50505050508152602001600782016040518060600160405290816000820154815260200160018201548152602001600282015481525050815250508152602001600b8201548152602001600c8201548152602001600d820154815250509050806020015181604001518260600151935093509350509193909250565b60338054600101908190556000828152606a6020526040902060058101546001600160a01b03166119595760405162461bcd60e51b8152600401808060200182810382526025815260200180613add6025913960400191505060405180910390fd5b61196681600d01546125b6565b6119af576040805162461bcd60e51b815260206004820152601560248201527470726f706f73616c2069736e27742061637469766560581b604482015290519081900360640190fd5b600c81015415611a06576040805162461bcd60e51b815260206004820152601860248201527f766f74696e672068617320616c726561647920626567756e0000000000000000604482015290519081900360640190fd5b60058101546001600160a01b03163314611a515760405162461bcd60e51b8152600401808060200182810382526027815260200180613a676027913960400191505060405180910390fd5b611a59612bb5565b600d8201556040805184815290517f789cf55be980739dad1d0699b93b58e806b51c9d96619bfa8fe0a28abaa7b30c9181900360200190a1506033548114610923576040805162461bcd60e51b815260206004820152601f6024820152600080516020613a20833981519152604482015290519081900360640190fd5b67058d15e17628000090565b6001600160a01b038116611b36576040805162461bcd60e51b8152602060048201526016602482015275656d7074792070726f706f73616c206164647265737360501b604482015290519081900360640190fd5b60008190506000816001600160a01b031663216b91166040518163ffffffff1660e01b815260040160206040518083038186803b158015611b7657600080fd5b505afa158015611b8a573d6000803e3d6000fd5b505050506040513d6020811015611ba057600080fd5b5051604080516302c2634360e31b815290519192506000916001600160a01b038516916316131a18916004808301926020929190829003018186803b158015611be857600080fd5b505afa158015611bfc573d6000803e3d6000fd5b505050506040513d6020811015611c1257600080fd5b505160408051633cc228fd60e01b815290519192506000916001600160a01b03861691633cc228fd916004808301926020929190829003018186803b158015611c5a57600080fd5b505afa158015611c6e573d6000803e3d6000fd5b505050506040513d6020811015611c8457600080fd5b505160408051630375833d60e51b815290519192506000916001600160a01b03871691636eb067a0916004808301926020929190829003018186803b158015611ccc57600080fd5b505afa158015611ce0573d6000803e3d6000fd5b505050506040513d6020811015611cf657600080fd5b505160408051636f24f8a160e01b815290519192506060916001600160a01b03881691636f24f8a1916004808301926000929190829003018186803b158015611d3e57600080fd5b505afa158015611d52573d6000803e3d6000fd5b505050506040513d6000823e601f3d908101601f191682016040526020811015611d7b57600080fd5b8101908080516040519392919084640100000000821115611d9b57600080fd5b908301906020820185811115611db057600080fd5b8251866020820283011164010000000082111715611dcd57600080fd5b82525081516020918201928201910280838360005b83811015611dfa578181015183820152602001611de2565b5050505090500160405250505090506000866001600160a01b0316632019a6086040518163ffffffff1660e01b815260040160206040518083038186803b158015611e4457600080fd5b505afa158015611e58573d6000803e3d6000fd5b505050506040513d6020811015611e6e57600080fd5b505160408051639b3a8a0760e01b815290519192506000916001600160a01b038a1691639b3a8a07916004808301926020929190829003018186803b158015611eb657600080fd5b505afa158015611eca573d6000803e3d6000fd5b505050506040513d6020811015611ee057600080fd5b50516040805163530f1c9d60e11b815290519192506000916001600160a01b038b169163a61e393a916004808301926020929190829003018186803b158015611f2857600080fd5b505afa158015611f3c573d6000803e3d6000fd5b505050506040513d6020811015611f5257600080fd5b5051604080516308348a1d60e11b815290519192506060916001600160a01b038c1691631069143a916004808301926000929190829003018186803b158015611f9a57600080fd5b505afa158015611fae573d6000803e3d6000fd5b505050506040513d6000823e601f3d908101601f191682016040526020811015611fd757600080fd5b8101908080516040519392919084640100000000821115611ff757600080fd5b90830190602082018581111561200c57600080fd5b825186602082028301116401000000008211171561202957600080fd5b82525081516020918201928201910280838360005b8381101561205657818101518382015260200161203e565b5050505090500160405250505090508051600014156120a65760405162461bcd60e51b8152600401808060200182810382526030815260200180613b026030913960400191505060405180910390fd5b6120ae6110c5565b815111156120f6576040805162461bcd60e51b815260206004820152601060248201526f746f6f206d616e79206f7074696f6e7360801b604482015290519081900360640190fd5b60675460405163f3f4ef7960e01b8152600481018b81526000926001600160a01b03169163f3f4ef79918d918d918d918d918d918d918d918d919060240188600281111561214057fe5b60ff16815260200187815260200186815260200180602001858152602001848152602001838152602001828103825286818151815260200191508051906020019060200280838360005b838110156121a257818101518382015260200161218a565b50505050905001995050505050505050505060206040518083038186803b1580156121cc57600080fd5b505afa1580156121e0573d6000803e3d6000fd5b505050506040513d60208110156121f657600080fd5b50519050806122365760405162461bcd60e51b8152600401808060200182810382526027815260200180613a406027913960400191505060405180910390fd5b60675460408051631a529da560e31b8152600481018d90526001600160a01b038f811660248301529151919092169163d294ed28916044808301926020929190829003018186803b15801561228a57600080fd5b505afa15801561229e573d6000803e3d6000fd5b505050506040513d60208110156122b457600080fd5b50519050806122f45760405162461bcd60e51b8152600401808060200182810382526025815260200180613b326025913960400191505060405180910390fd5b60008d8152606a602052604090208a8155600180820180548c9260ff199091169083600281111561232157fe5b02179055506002810189905560038101889055865161234990600483019060208a019061394f565b506005810180546001600160a01b0319166001600160a01b038f161790556007810186905560088101859055600981018490558251612391906006830190602086019061394f565b505050505050505050505050505050565b6040805160608101825260018082526020820181815292820193845260698054918201815560005290517f7fb4302e8e91f9110a6554c2c0a24601252c2a42c2220ca988efcfe3999143086003909202918201805460ff191691151591909117905590517f7fb4302e8e91f9110a6554c2c0a24601252c2a42c2220ca988efcfe39991430982015590517f7fb4302e8e91f9110a6554c2c0a24601252c2a42c2220ca988efcfe39991430a90910155565b60405160009082156108fc0290839083818181858288f19350505050158015610923573d6000803e3d6000fd5b670de0b6b3a764000090565b6000806000612518606660009054906101000a90046001600160a01b03166001600160a01b03166306aba0e16040518163ffffffff1660e01b815260040160206040518083038186803b1580156124e257600080fd5b505afa1580156124f6573d6000803e3d6000fd5b505050506040513d602081101561250c57600080fd5b50516002860154610927565b6006850154600c86015491925060009183111561253d576000945092506125b1915050565b60005b60068701548110156125a1576000818152600a88016020526040812082919061256890612a0e565b60038a015490915081101561257e575050612599565b84158061258a57508481115b15612596578094508293505b50505b600101612540565b5060068601548114159450925050505b915091565b1590565b6000836001600160a01b0316836001600160a01b031614156126b65760665460408051636833935760e01b81526001600160a01b03878116600483015291516000939290921691636833935791602480820192602092909190829003018186803b15801561262757600080fd5b505afa15801561263b573d6000803e3d6000fd5b505050506040513d602081101561265157600080fd5b50516001600160a01b0386166000908152606b602090815260408083208a84529091529020549091508082111561268c578082039150612691565b600091505b816126a1576000925050506127a5565b6126ae8787888786612bba565b5090506127a5565b6001600160a01b0383166000908152606c602090815260408083208252808320888452909152902060010154156126f4576126f2838487612a4d565b505b6066546040805163a481732160e01b81526001600160a01b03878116600483015286811660248301529151600093929092169163a481732191604480820192602092909190829003018186803b15801561274d57600080fd5b505afa158015612761573d6000803e3d6000fd5b505050506040513d602081101561277757600080fd5b50519050612786848783612ce3565b806127955760009150506127a5565b6127a28686868685612bba565b90505b949350505050565b6001600160a01b038084166000908152606c60209081526040808320938616835292815282822084835290522080546127e65750610e63565b826001600160a01b0316846001600160a01b03161461280e5761280e83838360000154612e1d565b61286f828260010180548060200260200160405190810160405280929190818152602001828054801561286057602002820191906000526020600020905b81548152602001906001019080831161284c575b50505050508360000154612f57565b6001600160a01b038085166000908152606c6020908152604080832093871683529281528282208583529052908120818155906128af600183018261399a565b5050604080516001600160a01b0380871682528516602082015280820184905290517f666685d133047310e2a2e8c4f6794b6dccb4e9ad9c6903ac753fb10d8918b6499181900360600190a150505050565b303b1590565b600054610100900460ff16806129205750612920612901565b8061292e575060005460ff16155b6129695760405162461bcd60e51b815260040180806020018281038252602e815260200180613aaf602e913960400191505060405180910390fd5b600054610100900460ff16158015612994576000805460ff1961ff0019909116610100171660011790555b600160335580156129ab576000805461ff00191690555b50565b6000826129bd5750600061093f565b828202828482816129ca57fe5b0414612a075760405162461bcd60e51b8152600401808060200182810382526021815260200180613a8e6021913960400191505060405180910390fd5b9392505050565b8054600090612a1f5750600061148e565b815461093f90612a41612a30612480565b60018601549063ffffffff6129ae16565b9063ffffffff612fd316565b6001600160a01b038084166000908152606c6020908152604080832093861683529281528282208483528152828220600101805484518184028101840190955280855292936060939092830182828015612ac657602002820191906000526020600020905b815481526020019060010190808311612ab2575b50505050509050612ad88585856127ad565b612ae4838686846125ba565b95945050505050565b6069546000908210612b3d576040805162461bcd60e51b81526020600482015260146024820152730d2dcc6dee4e4cac6e840e8c2e6d640d2dcc8caf60631b604482015290519081900360640190fd5b600060698381548110612b4c57fe5b60009182526020909120600390910201805490915060ff16612b7257600091505061148e565b612b9e60698481548110612b8257fe5b9060005260206000209060030201600201548260010154613015565b91508115612baf57805460ff191681555b50919050565b600490565b60408051808201825282815260208082018581526001600160a01b038089166000908152606c845285812091891681529083528481208a82528352939093208251815592518051929392612c14926001850192019061394f565b50905050612c23858383613064565b7f6e5f0f6e0ce2bdcdb0a82952fc6eb90c4c22f0b6228e4619b5dc2118e1166a12848487858560405180866001600160a01b03166001600160a01b03168152602001856001600160a01b03166001600160a01b0316815260200184815260200180602001838152602001828103825284818151815260200191508051906020019060200280838360005b83811015612cc5578181015183820152602001612cad565b50505050905001965050505050505060405180910390a15050505050565b6001600160a01b0383166000908152606b60209081526040808320858452909152902054612d17818363ffffffff6130e016565b6001600160a01b0385166000818152606b602090815260408083208884528252808320859055928252606c8152828220815282822087835290522060018101549192509015612dd2578054612d72908463ffffffff61313a16565b815560018101805460408051602080840282018101909252828152612dd29388939192909190830182828015612dc757602002820191906000526020600020905b815481526020019060010190808311612db3575b505050505085612f57565b604080516001600160a01b03871681526020810185905281517f68fe85c5f71a2900fddf574935a27d4f1cb28af34d4fa2742b202684b45d3d14929181900390910190a15050505050565b6001600160a01b0383166000908152606b60209081526040808320858452909152902054612e51818363ffffffff61313a16565b6001600160a01b0385166000818152606b602090815260408083208884528252808320859055928252606c8152828220815282822087835290522060018101549192509015612f0c578054612eac908463ffffffff6130e016565b815560018101805460408051602080840282018101909252828152612f0c9388939192909190830182828015612f0157602002820191906000526020600020905b815481526020019060010190808311612eed575b505050505085613064565b604080516001600160a01b03871681526020810185905281517f11d7313426c62d856bd4ea20cdef8b93af4b40d2ea5b8f6f962fc705dbdcdbef929181900390910190a15050505050565b6000838152606a60205260409020600c810154612f7a908363ffffffff61313a16565b600c82015560005b6006820154811015610c2b57612fcb848281518110612f9d57fe5b6020908102919091018101516000848152600a8601909252604090912090856004860163ffffffff61317c16565b600101612f82565b6000612a0783836040518060400160405280601a81526020017f536166654d6174683a206469766973696f6e206279207a65726f000000000000815250613234565b6000828152606a60205260408120600d810154613031906125b6565b61303f57600191505061093f565b600183141561305a5761305284826132d6565b91505061093f565b5060009392505050565b6000838152606a60205260409020600c810154613087908363ffffffff6130e016565b600c82015560005b6006820154811015610c2b576130d88482815181106130aa57fe5b6020908102919091018101516000848152600a8601909252604090912090856004860163ffffffff6134c416565b60010161308f565b600082820183811015612a07576040805162461bcd60e51b815260206004820152601b60248201527f536166654d6174683a206164646974696f6e206f766572666c6f770000000000604482015290519081900360640190fd5b6000612a0783836040518060400160405280601e81526020017f536166654d6174683a207375627472616374696f6e206f766572666c6f77000081525061355d565b805483106131c4576040805162461bcd60e51b815260206004820152601060248201526f1ddc9bdb99c81bdc1a5b9a5bdb88125160821b604482015290519081900360640190fd5b60008184815481106131d257fe5b60009182526020909120015485549091506131f3908463ffffffff61313a16565b8555613225613214613204846135b7565b612a41868563ffffffff6129ae16565b60018701549063ffffffff61313a16565b85600101819055505050505050565b600081836132c05760405162461bcd60e51b81526004018080602001828103825283818151815260200191508051906020019080838360005b8381101561328557818101518382015260200161326d565b50505050905090810190601f1680156132b25780820380516001836020036101000a031916815260200191505b509250505060405180910390fd5b5060008385816132cc57fe5b0495945050505050565b600080613360606660009054906101000a90046001600160a01b03166001600160a01b03166306aba0e16040518163ffffffff1660e01b815260040160206040518083038186803b15801561332a57600080fd5b505afa15801561333e573d6000803e3d6000fd5b505050506040513d602081101561335457600080fd5b50516002850154610927565b600984015460088501549192504290811015916000911080159061338857508285600c015410155b905081158015613396575080155b156133a7576000935050505061093f565b6000806133b38761248c565b915091508115613475576000806133ca89846135de565b91509150816133e357600097505050505050505061093f565b8061342d576133f0613855565b600d8a0155604080518b815290517f663674d96fd5c2a954bf75ad2e6795f9c9701eb687a7a8f3297c7a299467c9419181900360200190a161346e565b61343561385a565b600d8a0155604080518b815290517fe8365dd25802fb5113a4ebd6fbe5fee885b5ea470b6b1467f3f4df69e490ed879181900360200190a15b50506134b6565b61347d61385f565b600d8801556040805189815290517fd92fba445edb3153b571e6df782d7a66fd0ce668519273670820ee3a86da0ef49181900360200190a15b506001979650505050505050565b8054831061350c576040805162461bcd60e51b815260206004820152601060248201526f1ddc9bdb99c81bdc1a5b9a5bdb88125160821b604482015290519081900360640190fd5b600081848154811061351a57fe5b600091825260209091200154855490915061353b908463ffffffff6130e016565b855561322561354c613204846135b7565b60018701549063ffffffff6130e016565b600081848411156135af5760405162461bcd60e51b815260206004820181815283516024840152835190928392604490910191908501908083836000831561328557818101518382015260200161326d565b505050900390565b8054600090829060001981019081106135cc57fe5b90600052602060002001549050919050565b6000808060018086015460ff1660028111156135f657fe5b148061361457506002600186015460ff16600281111561361257fe5b145b9050806136295760016000925092505061384e565b600b8501849055600061363a611560565b6009870154014211905080156136585760018093509350505061384e565b60058601546001600160a01b0316600060606001808a015460ff16600281111561367e57fe5b1415613761576040805160248082018b905282518083039091018152604490910182526020810180516001600160e01b03166363012d0160e01b178152915181516001600160a01b0387169382918083835b602083106136ef5780518252601f1990920191602091820191016136d0565b6001836020036101000a0380198251168184511680821785525050505050509050019150506000604051808303816000865af19150503d8060008114613751576040519150601f19603f3d011682016040523d82523d6000602084013e613756565b606091505b509092509050613843565b604080516001600160a01b0385166024820181905260448083018c905283518084039091018152606490920183526020820180516001600160e01b031663aa3daba960e01b17815292518251919390918291908083835b602083106137d75780518252601f1990920191602091820191016137b8565b6001836020036101000a038019825116818451168082178552505050505050905001915050600060405180830381855af49150503d8060008114613837576040519150601f19603f3d011682016040523d82523d6000602084013e61383c565b606091505b5090925090505b509450600093505050505b9250929050565b600190565b600890565b600290565b604051806060016040528060001515815260200160008152602001600081525090565b604051806040016040528060008152602001606081525090565b815481835581811115610e6357600302816003028360005260206000209182019101610e6391906139b8565b60408051610100810190915260008082526020820190815260200160008152602001600081526020016060815260200160006001600160a01b031681526020016060815260200161391c6139e4565b905290565b60405180608001604052806139346138cd565b81526020016000815260200160008152602001600081525090565b82805482825590600052602060002090810192821561398a579160200282015b8281111561398a57825182559160200191906001019061396f565b50613996929150613a05565b5090565b50805460008255906000526020600020908101906129ab9190613a05565b6110c291905b8082111561399657805460ff1916815560006001820181905560028201556003016139be565b60405180606001604052806000815260200160008152602001600081525090565b6110c291905b808211156139965760008155600101613a0b56fe5265656e7472616e637947756172643a207265656e7472616e742063616c6c0070726f706f73616c20706172616d6574657273206661696c656420766572696669636174696f6e6d7573742062652073656e742066726f6d207468652070726f706f73616c20636f6e7472616374536166654d6174683a206d756c7469706c69636174696f6e206f766572666c6f77436f6e747261637420696e7374616e63652068617320616c7265616479206265656e20696e697469616c697a656470726f706f73616c2077697468206120676976656e20494420646f65736e7420657869737470726f706f73616c206f7074696f6e732061726520656d707479202d206e6f7468696e6720746f20766f746520666f7270726f706f73616c20636f6e7472616374206661696c656420766572696669636174696f6ea265627a7a72315820e8a18e0160e4474041358da05ae23f0f4bc61378a7b38622baf4d6f51753ac0764736f6c63430005110032",
  "linkReferences": {},
  "deployedLinkReferences": {}
}