{
  "_format": "hh-sol-artifact-1",
  "contractName": "UnitTestGovernance",
  "sourceName": "contracts/test/UnitTestGovernance.sol",
  "abi": [
    {
      "anonymous": false,
      "inputs": [
        {
          "indexed": false,
          "internalType": "uint256",
          "name": "proposalID",
          "type": "uint256"
        }
      ],
      "name": "ProposalCanceled",
      "type": "event"
    },
    {
      "anonymous": false,
      "inputs": [
        {
          "indexed": false,
          "internalType": "uint256",
          "name": "proposalID",
          "type": "uint256"
        }
      ],
      "name": "ProposalCreated",
      "type": "event"
    },
    {
      "anonymous": false,
      "inputs": [
        {
          "indexed": false,
          "internalType": "uint256",
          "name": "proposalID",
          "type": "uint256"
        }
      ],
      "name": "ProposalExecutionExpired",
      "type": "event"
    },
    {
      "anonymous": false,
      "inputs": [
        {
          "indexed": false,
          "internalType": "uint256",
          "name": "proposalID",
          "type": "uint256"
        }
      ],
      "name": "ProposalRejected",
      "type": "event"
    },
    {
      "anonymous": false,
      "inputs": [
        {
          "indexed": false,
          "internalType": "uint256",
          "name": "proposalID",
          "type": "uint256"
        }
      ],
      "name": "ProposalResolved",
      "type": "event"
    },
    {
      "anonymous": false,
      "inputs": [
        {
          "indexed": false,
          "internalType": "uint256",
          "name": "quantity",
          "type": "uint256"
        }
      ],
      "name": "TasksErased",
      "type": "event"
    },
    {
      "anonymous": false,
      "inputs": [
        {
          "indexed": false,
          "internalType": "uint256",
          "name": "startIdx",
          "type": "uint256"
        },
        {
          "indexed": false,
          "internalType": "uint256",
          "name": "endIdx",
          "type": "uint256"
        },
        {
          "indexed": false,
          "internalType": "uint256",
          "name": "handled",
          "type": "uint256"
        }
      ],
      "name": "TasksHandled",
      "type": "event"
    },
    {
      "anonymous": false,
      "inputs": [
        {
          "indexed": false,
          "internalType": "address",
          "name": "voter",
          "type": "address"
        },
        {
          "indexed": false,
          "internalType": "address",
          "name": "delegatedTo",
          "type": "address"
        },
        {
          "indexed": false,
          "internalType": "uint256",
          "name": "proposalID",
          "type": "uint256"
        }
      ],
      "name": "VoteCanceled",
      "type": "event"
    },
    {
      "anonymous": false,
      "inputs": [
        {
          "indexed": false,
          "internalType": "address",
          "name": "voter",
          "type": "address"
        },
        {
          "indexed": false,
          "internalType": "uint256",
          "name": "diff",
          "type": "uint256"
        }
      ],
      "name": "VoteWeightOverridden",
      "type": "event"
    },
    {
      "anonymous": false,
      "inputs": [
        {
          "indexed": false,
          "internalType": "address",
          "name": "voter",
          "type": "address"
        },
        {
          "indexed": false,
          "internalType": "uint256",
          "name": "diff",
          "type": "uint256"
        }
      ],
      "name": "VoteWeightUnOverridden",
      "type": "event"
    },
    {
      "anonymous": false,
      "inputs": [
        {
          "indexed": false,
          "internalType": "address",
          "name": "voter",
          "type": "address"
        },
        {
          "indexed": false,
          "internalType": "address",
          "name": "delegatedTo",
          "type": "address"
        },
        {
          "indexed": false,
          "internalType": "uint256",
          "name": "proposalID",
          "type": "uint256"
        },
        {
          "indexed": false,
          "internalType": "uint256[]",
          "name": "choices",
          "type": "uint256[]"
        },
        {
          "indexed": false,
          "internalType": "uint256",
          "name": "weight",
          "type": "uint256"
        }
      ],
      "name": "Voted",
      "type": "event"
    },
    {
      "constant": true,
      "inputs": [],
      "name": "activeProposals",
      "outputs": [
        {
          "internalType": "uint256",
          "name": "",
          "type": "uint256"
        }
      ],
      "payable": false,
      "stateMutability": "view",
      "type": "function"
    },
    {
      "constant": true,
      "inputs": [
        {
          "internalType": "bytes32",
          "name": "_bytes32",
          "type": "bytes32"
        }
      ],
      "name": "bytes32ToString",
      "outputs": [
        {
          "internalType": "string",
          "name": "",
          "type": "string"
        }
      ],
      "payable": false,
      "stateMutability": "pure",
      "type": "function"
    },
    {
      "constant": true,
      "inputs": [
        {
          "internalType": "uint256",
          "name": "proposalID",
          "type": "uint256"
        }
      ],
      "name": "calculateVotingTally",
      "outputs": [
        {
          "internalType": "bool",
          "name": "proposalResolved",
          "type": "bool"
        },
        {
          "internalType": "uint256",
          "name": "winnerID",
          "type": "uint256"
        },
        {
          "internalType": "uint256",
          "name": "votes",
          "type": "uint256"
        }
      ],
      "payable": false,
      "stateMutability": "view",
      "type": "function"
    },
    {
      "constant": false,
      "inputs": [
        {
          "internalType": "uint256",
          "name": "proposalID",
          "type": "uint256"
        }
      ],
      "name": "cancelProposal",
      "outputs": [],
      "payable": false,
      "stateMutability": "nonpayable",
      "type": "function"
    },
    {
      "constant": false,
      "inputs": [
        {
          "internalType": "address",
          "name": "delegatedTo",
          "type": "address"
        },
        {
          "internalType": "uint256",
          "name": "proposalID",
          "type": "uint256"
        }
      ],
      "name": "cancelVote",
      "outputs": [],
      "payable": false,
      "stateMutability": "nonpayable",
      "type": "function"
    },
    {
      "constant": false,
      "inputs": [
        {
          "internalType": "address",
          "name": "proposalContract",
          "type": "address"
        }
      ],
      "name": "createProposal",
      "outputs": [],
      "payable": true,
      "stateMutability": "payable",
      "type": "function"
    },
    {
      "constant": true,
      "inputs": [],
      "name": "getActiveProposals",
      "outputs": [
        {
          "internalType": "uint256",
          "name": "",
          "type": "uint256"
        }
      ],
      "payable": false,
      "stateMutability": "view",
      "type": "function"
    },
    {
      "constant": true,
      "inputs": [
        {
          "internalType": "uint256",
          "name": "i",
          "type": "uint256"
        }
      ],
      "name": "getTask",
      "outputs": [
        {
          "internalType": "bool",
          "name": "active",
          "type": "bool"
        },
        {
          "internalType": "uint256",
          "name": "assignment",
          "type": "uint256"
        },
        {
          "internalType": "uint256",
          "name": "proposalID",
          "type": "uint256"
        }
      ],
      "payable": false,
      "stateMutability": "view",
      "type": "function"
    },
    {
      "constant": true,
      "inputs": [
        {
          "internalType": "address",
          "name": "from",
          "type": "address"
        },
        {
          "internalType": "address",
          "name": "delegatedTo",
          "type": "address"
        },
        {
          "internalType": "uint256",
          "name": "proposalID",
          "type": "uint256"
        }
      ],
      "name": "getVote",
      "outputs": [
        {
          "internalType": "uint256",
          "name": "weight",
          "type": "uint256"
        },
        {
          "internalType": "uint256[]",
          "name": "choices",
          "type": "uint256[]"
        }
      ],
      "payable": false,
      "stateMutability": "view",
      "type": "function"
    },
    {
      "constant": false,
      "inputs": [
        {
          "internalType": "uint256",
          "name": "startIdx",
          "type": "uint256"
        },
        {
          "internalType": "uint256",
          "name": "quantity",
          "type": "uint256"
        }
      ],
      "name": "handleTasks",
      "outputs": [],
      "payable": false,
      "stateMutability": "nonpayable",
      "type": "function"
    },
    {
      "constant": false,
      "inputs": [
        {
          "internalType": "address",
          "name": "_governableContract",
          "type": "address"
        },
        {
          "internalType": "address",
          "name": "_proposalVerifier",
          "type": "address"
        }
      ],
      "name": "initialize",
      "outputs": [],
      "payable": false,
      "stateMutability": "nonpayable",
      "type": "function"
    },
    {
      "constant": true,
      "inputs": [],
      "name": "lastProposalID",
      "outputs": [
        {
          "internalType": "uint256",
          "name": "",
          "type": "uint256"
        }
      ],
      "payable": false,
      "stateMutability": "view",
      "type": "function"
    },
    {
      "constant": true,
      "inputs": [],
      "name": "maxExecutionPeriod",
      "outputs": [
        {
          "internalType": "uint256",
          "name": "",
          "type": "uint256"
        }
      ],
      "payable": false,
      "stateMutability": "pure",
      "type": "function"
    },
    {
      "constant": true,
      "inputs": [],
      "name": "maxOptions",
      "outputs": [
        {
          "internalType": "uint256",
          "name": "",
          "type": "uint256"
        }
      ],
      "payable": false,
      "stateMutability": "pure",
      "type": "function"
    },
    {
      "constant": true,
      "inputs": [
        {
          "internalType": "uint256",
          "name": "totalWeight",
          "type": "uint256"
        },
        {
          "internalType": "uint256",
          "name": "minVotesRatio",
          "type": "uint256"
        }
      ],
      "name": "minVotesAbsolute",
      "outputs": [
        {
          "internalType": "uint256",
          "name": "",
          "type": "uint256"
        }
      ],
      "payable": false,
      "stateMutability": "pure",
      "type": "function"
    },
    {
      "constant": true,
      "inputs": [
        {
          "internalType": "address",
          "name": "",
          "type": "address"
        },
        {
          "internalType": "uint256",
          "name": "",
          "type": "uint256"
        }
      ],
      "name": "overriddenWeight",
      "outputs": [
        {
          "internalType": "uint256",
          "name": "",
          "type": "uint256"
        }
      ],
      "payable": false,
      "stateMutability": "view",
      "type": "function"
    },
    {
      "constant": true,
      "inputs": [],
      "name": "proposalBurntFee",
      "outputs": [
        {
          "internalType": "uint256",
          "name": "",
          "type": "uint256"
        }
      ],
      "payable": false,
      "stateMutability": "pure",
      "type": "function"
    },
    {
      "constant": true,
      "inputs": [],
      "name": "proposalFee",
      "outputs": [
        {
          "internalType": "uint256",
          "name": "",
          "type": "uint256"
        }
      ],
      "payable": false,
      "stateMutability": "pure",
      "type": "function"
    },
    {
      "constant": true,
      "inputs": [
        {
          "internalType": "uint256",
          "name": "proposalID",
          "type": "uint256"
        },
        {
          "internalType": "uint256",
          "name": "optionID",
          "type": "uint256"
        }
      ],
      "name": "proposalOptionState",
      "outputs": [
        {
          "internalType": "uint256",
          "name": "votes",
          "type": "uint256"
        },
        {
          "internalType": "uint256",
          "name": "agreementRatio",
          "type": "uint256"
        },
        {
          "internalType": "uint256",
          "name": "agreement",
          "type": "uint256"
        }
      ],
      "payable": false,
      "stateMutability": "view",
      "type": "function"
    },
    {
      "constant": true,
      "inputs": [
        {
          "internalType": "uint256",
          "name": "proposalID",
          "type": "uint256"
        }
      ],
      "name": "proposalParams",
      "outputs": [
        {
          "internalType": "uint256",
          "name": "pType",
          "type": "uint256"
        },
        {
          "internalType": "enum Proposal.ExecType",
          "name": "executable",
          "type": "uint8"
        },
        {
          "internalType": "uint256",
          "name": "minVotes",
          "type": "uint256"
        },
        {
          "internalType": "uint256",
          "name": "minAgreement",
          "type": "uint256"
        },
        {
          "internalType": "uint256[]",
          "name": "opinionScales",
          "type": "uint256[]"
        },
        {
          "internalType": "bytes32[]",
          "name": "options",
          "type": "bytes32[]"
        },
        {
          "internalType": "address",
          "name": "proposalContract",
          "type": "address"
        },
        {
          "internalType": "uint256",
          "name": "votingStartTime",
          "type": "uint256"
        },
        {
          "internalType": "uint256",
          "name": "votingMinEndTime",
          "type": "uint256"
        },
        {
          "internalType": "uint256",
          "name": "votingMaxEndTime",
          "type": "uint256"
        }
      ],
      "payable": false,
      "stateMutability": "view",
      "type": "function"
    },
    {
      "constant": true,
      "inputs": [
        {
          "internalType": "uint256",
          "name": "proposalID",
          "type": "uint256"
        }
      ],
      "name": "proposalState",
      "outputs": [
        {
          "internalType": "uint256",
          "name": "winnerOptionID",
          "type": "uint256"
        },
        {
          "internalType": "uint256",
          "name": "votes",
          "type": "uint256"
        },
        {
          "internalType": "uint256",
          "name": "status",
          "type": "uint256"
        }
      ],
      "payable": false,
      "stateMutability": "view",
      "type": "function"
    },
    {
      "constant": false,
      "inputs": [
        {
          "internalType": "address",
          "name": "voterAddr",
          "type": "address"
        },
        {
          "internalType": "address",
          "name": "delegatedTo",
          "type": "address"
        },
        {
          "internalType": "uint256",
          "name": "proposalID",
          "type": "uint256"
        }
      ],
      "name": "recountVote",
      "outputs": [],
      "payable": false,
      "stateMutability": "nonpayable",
      "type": "function"
    },
    {
      "constant": true,
      "inputs": [],
      "name": "taskErasingReward",
      "outputs": [
        {
          "internalType": "uint256",
          "name": "",
          "type": "uint256"
        }
      ],
      "payable": false,
      "stateMutability": "pure",
      "type": "function"
    },
    {
      "constant": true,
      "inputs": [],
      "name": "taskHandlingReward",
      "outputs": [
        {
          "internalType": "uint256",
          "name": "",
          "type": "uint256"
        }
      ],
      "payable": false,
      "stateMutability": "pure",
      "type": "function"
    },
    {
      "constant": false,
      "inputs": [
        {
          "internalType": "uint256",
          "name": "quantity",
          "type": "uint256"
        }
      ],
      "name": "tasksCleanup",
      "outputs": [],
      "payable": false,
      "stateMutability": "nonpayable",
      "type": "function"
    },
    {
      "constant": true,
      "inputs": [],
      "name": "tasksCount",
      "outputs": [
        {
          "internalType": "uint256",
          "name": "",
          "type": "uint256"
        }
      ],
      "payable": false,
      "stateMutability": "view",
      "type": "function"
    },
    {
      "constant": true,
      "inputs": [],
      "name": "version",
      "outputs": [
        {
          "internalType": "bytes3",
          "name": "",
          "type": "bytes3"
        }
      ],
      "payable": false,
      "stateMutability": "pure",
      "type": "function"
    },
    {
      "constant": false,
      "inputs": [
        {
          "internalType": "address",
          "name": "delegatedTo",
          "type": "address"
        },
        {
          "internalType": "uint256",
          "name": "proposalID",
          "type": "uint256"
        },
        {
          "internalType": "uint256[]",
          "name": "choices",
          "type": "uint256[]"
        }
      ],
      "name": "vote",
      "outputs": [],
      "payable": false,
      "stateMutability": "nonpayable",
      "type": "function"
    }
  ],
  "bytecode": "0x608060405234801561001057600080fd5b50613c1e806100206000396000f3fe6080604052600436106101b75760003560e01c806369921506116100ec578063bb6a0f071161008a578063cfa1afa311610064578063cfa1afa3146106f0578063d26331d41461080b578063e0a8f6f514610835578063e3a4d7091461085f576101b7565b8063bb6a0f07146106b1578063c25c2f26146106c6578063c27cabb5146106db576101b7565b80639201de55116100c65780639201de551461054a578063a1d373d7146105e9578063aea2ddbd146105fe578063b9e6842b14610613576101b7565b806369921506146104c25780636b2ad7d8146105055780638a444bd714610535576101b7565b806321edf2eb1161015957806354fd4d501161013357806354fd4d50146104185780635584c4f91461044a5780635df170771461045f5780635f89801e14610474576101b7565b806321edf2eb1461037a578063485cc955146103b3578063491adeee146103ee576101b7565b806314262d791161019557806314262d791461023b578063172c18b1146102855780631d65e77e146103175780632177d6fc14610341576101b7565b806307eecaf5146101bc578063109c3d27146101e45780631191e2701461020b575b600080fd5b6101e2600480360360208110156101d257600080fd5b50356001600160a01b0316610874565b005b3480156101f057600080fd5b506101f9610990565b60408051918252519081900360200190f35b34801561021757600080fd5b506101f96004803603604081101561022e57600080fd5b5080359060200135610996565b34801561024757600080fd5b506102656004803603602081101561025e57600080fd5b50356109b4565b604080519315158452602084019290925282820152519081900360600190f35b34801561029157600080fd5b506101e2600480360360608110156102a857600080fd5b6001600160a01b03823516916020810135918101906060810160408201356401000000008111156102d857600080fd5b8201836020820111156102ea57600080fd5b8035906020019184602083028401116401000000008311171561030c57600080fd5b5090925090506109e2565b34801561032357600080fd5b506102656004803603602081101561033a57600080fd5b5035610ca1565b34801561034d57600080fd5b506101f96004803603604081101561036457600080fd5b506001600160a01b038135169060200135610d07565b34801561038657600080fd5b506101e26004803603604081101561039d57600080fd5b506001600160a01b038135169060200135610d24565b3480156103bf57600080fd5b506101e2600480360360408110156103d657600080fd5b506001600160a01b0381358116916020013516610ed7565b3480156103fa57600080fd5b506101e26004803603602081101561041157600080fd5b5035610fb2565b34801561042457600080fd5b5061042d611129565b604080516001600160e81b03199092168252519081900360200190f35b34801561045657600080fd5b506101f9611134565b34801561046b57600080fd5b506101f961113a565b34801561048057600080fd5b506104a46004803603604081101561049757600080fd5b508035906020013561113f565b60408051938452602084019290925282820152519081900360600190f35b3480156104ce57600080fd5b506101e2600480360360608110156104e557600080fd5b506001600160a01b03813581169160208101359091169060400135611181565b34801561051157600080fd5b506101e26004803603604081101561052857600080fd5b5080359060200135611335565b34801561054157600080fd5b506101f9611488565b34801561055657600080fd5b506105746004803603602081101561056d57600080fd5b5035611494565b6040805160208082528351818301528351919283929083019185019080838360005b838110156105ae578181015183820152602001610596565b50505050905090810190601f1680156105db5780820380516001836020036101000a031916815260200191505b509250505060405180910390f35b3480156105f557600080fd5b506101f9611508565b34801561060a57600080fd5b506101f961150e565b34801561061f57600080fd5b506106566004803603606081101561063657600080fd5b506001600160a01b0381358116916020810135909116906040013561151a565b6040518083815260200180602001828103825283818151815260200191508051906020019060200280838360005b8381101561069c578181015183820152602001610684565b50505050905001935050505060405180910390f35b3480156106bd57600080fd5b506101f96115cf565b3480156106d257600080fd5b506101f96115d5565b3480156106e757600080fd5b506101f96115dc565b3480156106fc57600080fd5b5061071a6004803603602081101561071357600080fd5b50356115fd565b604051808b81526020018a600281111561073057fe5b60ff1681526020018981526020018881526020018060200180602001876001600160a01b03166001600160a01b03168152602001868152602001858152602001848152602001838103835289818151815260200191508051906020019060200280838360005b838110156107ae578181015183820152602001610796565b50505050905001838103825288818151815260200191508051906020019060200280838360005b838110156107ed5781810151838201526020016107d5565b505050509050019c5050505050505050505050505060405180910390f35b34801561081757600080fd5b506104a46004803603602081101561082e57600080fd5b50356117c9565b34801561084157600080fd5b506101e26004803603602081101561085857600080fd5b503561196c565b34801561086b57600080fd5b506101f9611b55565b60338054600101908190556108876115dc565b34146108da576040805162461bcd60e51b815260206004820152601a60248201527f706169642070726f706f73616c206665652069732077726f6e67000000000000604482015290519081900360640190fd5b60688054600101908190556108ef9083611b61565b6108fa606854612421565b61090a610905611488565b6124d2565b60685460408051918252517fc2c021f5d73c63c481d336fbbafec58f694fc45095f00b02d2deb8cca59afe079181900360200190a1606980546001019055603354811461098c576040805162461bcd60e51b815260206004820152601f6024820152600080516020613ab3833981519152604482015290519081900360640190fd5b5050565b60695481565b60006109a06124ff565b828402816109aa57fe5b0490505b92915050565b6000818152606b60205260408120819081906109cf8161250b565b600c929092015490969195509350915050565b60338054600101908190556001600160a01b0385166109ff573394505b6000848152606b6020526040902060058101546001600160a01b0316610a565760405162461bcd60e51b8152600401808060200182810382526025815260200180613b706025913960400191505060405180910390fd5b610a6381600d0154612635565b610aac576040805162461bcd60e51b815260206004820152601560248201527470726f706f73616c2069736e27742061637469766560581b604482015290519081900360640190fd5b6007810154421015610b05576040805162461bcd60e51b815260206004820152601c60248201527f70726f706f73616c20766f74696e67206861736e277420626567756e00000000604482015290519081900360640190fd5b336000908152606d602090815260408083206001600160a01b038a168452825280832088845290915290205415610b79576040805162461bcd60e51b8152602060048201526013602482015272766f746520616c72656164792065786973747360681b604482015290519081900360640190fd5b60068101548314610bd1576040805162461bcd60e51b815260206004820152601760248201527f77726f6e67206e756d626572206f662063686f69636573000000000000000000604482015290519081900360640190fd5b6000610c1286338988888080602002602001604051908101604052809392919081815260200183836020028082843760009201919091525061263992505050565b905080610c54576040805162461bcd60e51b815260206004820152600b60248201526a1e995c9bc81dd95a59da1d60aa1b604482015290519081900360640190fd5b50506033548114610c9a576040805162461bcd60e51b815260206004820152601f6024820152600080516020613ab3833981519152604482015290519081900360640190fd5b5050505050565b6000806000610cae6138f7565b606a8581548110610cbb57fe5b600091825260209182902060408051606081018252600393909302909101805460ff16151580845260018201549484018590526002909101549290910182905297919650945092505050565b606c60209081526000928352604080842090915290825290205481565b60338054600101908190556001600160a01b038316610d41573392505b610d4961391a565b336000908152606d602090815260408083206001600160a01b03881684528252808320868452825291829020825180840184528154815260018201805485518186028101860190965280865291949293858101939290830182828015610dce57602002820191906000526020600020905b815481526020019060010190808311610dba575b505050919092525050815191925050610e1e576040805162461bcd60e51b815260206004820152600d60248201526c191bd95cdb89dd08195e1a5cdd609a1b604482015290519081900360640190fd5b6000838152606b60205260409020600d0154610e3990612635565b610e82576040805162461bcd60e51b815260206004820152601560248201527470726f706f73616c2069736e27742061637469766560581b604482015290519081900360640190fd5b610e8d33858561282c565b506033548114610ed2576040805162461bcd60e51b815260206004820152601f6024820152600080516020613ab3833981519152604482015290519081900360640190fd5b505050565b600054610100900460ff1680610ef05750610ef0612980565b80610efe575060005460ff16155b610f395760405162461bcd60e51b815260040180806020018281038252602e815260200180613b42602e913960400191505060405180910390fd5b600054610100900460ff16158015610f64576000805460ff1961ff0019909116610100171660011790555b610f6c612986565b606680546001600160a01b038086166001600160a01b03199283161790925560678054928516929091169190911790558015610ed2576000805461ff0019169055505050565b603380546001019081905560005b606a5415801590610fd057508281105b1561102557606a80546000198101908110610fe757fe5b600091825260209091206003909102015460ff1661101857606a805490611012906000198301613934565b5061101d565b611025565b600101610fc0565b6000811161106c576040805162461bcd60e51b815260206004820152600f60248201526e1b9bc81d185cdadcc8195c985cd959608a1b604482015290519081900360640190fd5b6040805182815290517fdd64b087b4726a6d5006bfae34869d1044e415cd6fc53054b69619ee337b730d9181900360200190a1336108fc6110bb6110ae61150e565b849063ffffffff612a2d16565b6040518115909202916000818181858888f193505050501580156110e3573d6000803e3d6000fd5b5050603354811461098c576040805162461bcd60e51b815260206004820152601f6024820152600080516020613ab3833981519152604482015290519081900360640190fd5b6219981960e91b5b90565b60695490565b600a90565b6000828152606b60209081526040808320848452600a81019092528220805483928392909161116d82612a8d565b826001015494509450945050509250925092565b603380546001908101918290556001600160a01b038086166000908152606d6020818152604080842094891680855294825280842088855282528084209484529181528183208152818320878452905290209181015490919061121b576040805162461bcd60e51b815260206004820152600d60248201526c191bd95cdb89dd08195e1a5cdd609a1b604482015290519081900360640190fd5b6000848152606b60205260409020600d015461123690612635565b61127f576040805162461bcd60e51b815260206004820152601560248201527470726f706f73616c2069736e27742061637469766560581b604482015290519081900360640190fd5b8154815461128e888888612acc565b508354835483821415806112a25750808314155b6112e5576040805162461bcd60e51b815260206004820152600f60248201526e1b9bdd1a1a5b99c818da185b99d959608a1b604482015290519081900360640190fd5b505050505050603354811461132f576040805162461bcd60e51b815260206004820152601f6024820152600080516020613ab3833981519152604482015290519081900360640190fd5b50505050565b60338054600101908190556000835b606a5481108015611356575083850181105b156113785761136481612b6c565b15611370576001820191505b600101611344565b816113bd576040805162461bcd60e51b815260206004820152601060248201526f1b9bc81d185cdadcc81a185b991b195960821b604482015290519081900360640190fd5b604080518681526020810183905280820184905290517f010b51ac92c2d2e8fe9c84de31065ca878ff8274a1e5e6d31799520b7d16bb589181900360600190a1336108fc61141961140c611b55565b859063ffffffff612a2d16565b6040518115909202916000818181858888f19350505050158015611441573d6000803e3d6000fd5b5050506033548114610ed2576040805162461bcd60e51b815260206004820152601f6024820152600080516020613ab3833981519152604482015290519081900360640190fd5b6706f05b59d3b2000090565b60408051602080825281830190925260609182919060208201818038833901905050905060005b60208110156114ff578381602081106114d057fe5b1a60f81b8282815181106114e057fe5b60200101906001600160f81b031916908160001a9053506001016114bb565b5090505b919050565b60685481565b67016345785d8a000090565b6000606061152661391a565b6001600160a01b038087166000908152606d6020908152604080832093891683529281528282208783528152908290208251808401845281548152600182018054855181860281018601909652808652919492938581019392908301828280156115af57602002820191906000526020600020905b81548152602001906001019080831161159b575b505050919092525050815160209092015191989197509095505050505050565b606a5490565b6203f48090565b60006115e661150e565b6115ee611b55565b6115f6611488565b0101905090565b600080600080606080600080600080611614613960565b60008c8152606b602090815260409182902082516101008101909352805483526001810154909183019060ff16600281111561164c57fe5b600281111561165757fe5b81526020016002820154815260200160038201548152602001600482018054806020026020016040519081016040528092919081815260200182805480156116be57602002820191906000526020600020905b8154815260200190600101908083116116aa575b505050918352505060058201546001600160a01b0316602080830191909152600683018054604080518285028101850182528281529401939283018282801561172657602002820191906000526020600020905b815481526020019060010190808311611712575b50505050508152602001600782016040518060600160405290816000820154815260200160018201548152602001600282015481525050815250509050806000015181602001518260400151836060015184608001518560c001518660a001518760e00151600001518860e00151602001518960e00151604001518595508494509a509a509a509a509a509a509a509a509a509a50509193959799509193959799565b60008060006117d66139b4565b6000858152606b602052604090819020815161018081019092528054608083019081526001820154839190839060a084019060ff16600281111561181657fe5b600281111561182157fe5b815260200160028201548152602001600382015481526020016004820180548060200260200160405190810160405280929190818152602001828054801561188857602002820191906000526020600020905b815481526020019060010190808311611874575b505050918352505060058201546001600160a01b031660208083019190915260068301805460408051828502810185018252828152940193928301828280156118f057602002820191906000526020600020905b8154815260200190600101908083116118dc575b50505050508152602001600782016040518060600160405290816000820154815260200160018201548152602001600282015481525050815250508152602001600b8201548152602001600c8201548152602001600d820154815250509050806020015181604001518260600151935093509350509193909250565b60338054600101908190556000828152606b6020526040902060058101546001600160a01b03166119ce5760405162461bcd60e51b8152600401808060200182810382526025815260200180613b706025913960400191505060405180910390fd5b6119db81600d0154612635565b611a24576040805162461bcd60e51b815260206004820152601560248201527470726f706f73616c2069736e27742061637469766560581b604482015290519081900360640190fd5b600c81015415611a7b576040805162461bcd60e51b815260206004820152601860248201527f766f74696e672068617320616c726561647920626567756e0000000000000000604482015290519081900360640190fd5b60058101546001600160a01b03163314611ac65760405162461bcd60e51b8152600401808060200182810382526027815260200180613afa6027913960400191505060405180910390fd5b611ace612c34565b600d8201556040805184815290517f789cf55be980739dad1d0699b93b58e806b51c9d96619bfa8fe0a28abaa7b30c9181900360200190a15060698054600019019055603354811461098c576040805162461bcd60e51b815260206004820152601f6024820152600080516020613ab3833981519152604482015290519081900360640190fd5b67058d15e17628000090565b6001600160a01b038116611bb5576040805162461bcd60e51b8152602060048201526016602482015275656d7074792070726f706f73616c206164647265737360501b604482015290519081900360640190fd5b60008190506000816001600160a01b031663216b91166040518163ffffffff1660e01b815260040160206040518083038186803b158015611bf557600080fd5b505afa158015611c09573d6000803e3d6000fd5b505050506040513d6020811015611c1f57600080fd5b5051604080516302c2634360e31b815290519192506000916001600160a01b038516916316131a18916004808301926020929190829003018186803b158015611c6757600080fd5b505afa158015611c7b573d6000803e3d6000fd5b505050506040513d6020811015611c9157600080fd5b505160408051633cc228fd60e01b815290519192506000916001600160a01b03861691633cc228fd916004808301926020929190829003018186803b158015611cd957600080fd5b505afa158015611ced573d6000803e3d6000fd5b505050506040513d6020811015611d0357600080fd5b505160408051630375833d60e51b815290519192506000916001600160a01b03871691636eb067a0916004808301926020929190829003018186803b158015611d4b57600080fd5b505afa158015611d5f573d6000803e3d6000fd5b505050506040513d6020811015611d7557600080fd5b505160408051636f24f8a160e01b815290519192506060916001600160a01b03881691636f24f8a1916004808301926000929190829003018186803b158015611dbd57600080fd5b505afa158015611dd1573d6000803e3d6000fd5b505050506040513d6000823e601f3d908101601f191682016040526020811015611dfa57600080fd5b8101908080516040519392919084640100000000821115611e1a57600080fd5b908301906020820185811115611e2f57600080fd5b8251866020820283011164010000000082111715611e4c57600080fd5b82525081516020918201928201910280838360005b83811015611e79578181015183820152602001611e61565b5050505090500160405250505090506000866001600160a01b0316632019a6086040518163ffffffff1660e01b815260040160206040518083038186803b158015611ec357600080fd5b505afa158015611ed7573d6000803e3d6000fd5b505050506040513d6020811015611eed57600080fd5b505160408051639b3a8a0760e01b815290519192506000916001600160a01b038a1691639b3a8a07916004808301926020929190829003018186803b158015611f3557600080fd5b505afa158015611f49573d6000803e3d6000fd5b505050506040513d6020811015611f5f57600080fd5b50516040805163530f1c9d60e11b815290519192506000916001600160a01b038b169163a61e393a916004808301926020929190829003018186803b158015611fa757600080fd5b505afa158015611fbb573d6000803e3d6000fd5b505050506040513d6020811015611fd157600080fd5b5051604080516308348a1d60e11b815290519192506060916001600160a01b038c1691631069143a916004808301926000929190829003018186803b15801561201957600080fd5b505afa15801561202d573d6000803e3d6000fd5b505050506040513d6000823e601f3d908101601f19168201604052602081101561205657600080fd5b810190808051604051939291908464010000000082111561207657600080fd5b90830190602082018581111561208b57600080fd5b82518660208202830111640100000000821117156120a857600080fd5b82525081516020918201928201910280838360005b838110156120d55781810151838201526020016120bd565b5050505090500160405250505090508051600014156121255760405162461bcd60e51b8152600401808060200182810382526030815260200180613b956030913960400191505060405180910390fd5b61212d61113a565b81511115612175576040805162461bcd60e51b815260206004820152601060248201526f746f6f206d616e79206f7074696f6e7360801b604482015290519081900360640190fd5b60675460405163f3f4ef7960e01b8152600481018b81526000926001600160a01b03169163f3f4ef79918d918d918d918d918d918d918d918d91906024018860028111156121bf57fe5b60ff16815260200187815260200186815260200180602001858152602001848152602001838152602001828103825286818151815260200191508051906020019060200280838360005b83811015612221578181015183820152602001612209565b50505050905001995050505050505050505060206040518083038186803b15801561224b57600080fd5b505afa15801561225f573d6000803e3d6000fd5b505050506040513d602081101561227557600080fd5b50519050806122b55760405162461bcd60e51b8152600401808060200182810382526027815260200180613ad36027913960400191505060405180910390fd5b60675460408051631a529da560e31b8152600481018d90526001600160a01b038f811660248301529151919092169163d294ed28916044808301926020929190829003018186803b15801561230957600080fd5b505afa15801561231d573d6000803e3d6000fd5b505050506040513d602081101561233357600080fd5b50519050806123735760405162461bcd60e51b8152600401808060200182810382526025815260200180613bc56025913960400191505060405180910390fd5b60008d8152606b602052604090208a8155600180820180548c9260ff19909116908360028111156123a057fe5b0217905550600281018990556003810188905586516123c890600483019060208a01906139e2565b506005810180546001600160a01b0319166001600160a01b038f16179055600781018690556008810185905560098101849055825161241090600683019060208601906139e2565b505050505050505050505050505050565b60408051606081018252600180825260208201818152928201938452606a8054918201815560005290517f116fea137db6e131133e7f2bab296045d8f41cc5607279db17b218cab0929a516003909202918201805460ff191691151591909117905590517f116fea137db6e131133e7f2bab296045d8f41cc5607279db17b218cab0929a5282015590517f116fea137db6e131133e7f2bab296045d8f41cc5607279db17b218cab0929a5390910155565b60405160009082156108fc0290839083818181858288f1935050505015801561098c573d6000803e3d6000fd5b670de0b6b3a764000090565b6000806000612597606660009054906101000a90046001600160a01b03166001600160a01b03166306aba0e16040518163ffffffff1660e01b815260040160206040518083038186803b15801561256157600080fd5b505afa158015612575573d6000803e3d6000fd5b505050506040513d602081101561258b57600080fd5b50516002860154610996565b6006850154600c8601549192506000918311156125bc57600094509250612630915050565b60005b6006870154811015612620576000818152600a8801602052604081208291906125e790612a8d565b60038a01549091508110156125fd575050612618565b84158061260957508481115b15612615578094508293505b50505b6001016125bf565b5060068601548114159450925050505b915091565b1590565b6000836001600160a01b0316836001600160a01b031614156127355760665460408051636833935760e01b81526001600160a01b03878116600483015291516000939290921691636833935791602480820192602092909190829003018186803b1580156126a657600080fd5b505afa1580156126ba573d6000803e3d6000fd5b505050506040513d60208110156126d057600080fd5b50516001600160a01b0386166000908152606c602090815260408083208a84529091529020549091508082111561270b578082039150612710565b600091505b8161272057600092505050612824565b61272d8787888786612c39565b509050612824565b6001600160a01b0383166000908152606d6020908152604080832082528083208884529091529020600101541561277357612771838487612acc565b505b6066546040805163a481732160e01b81526001600160a01b03878116600483015286811660248301529151600093929092169163a481732191604480820192602092909190829003018186803b1580156127cc57600080fd5b505afa1580156127e0573d6000803e3d6000fd5b505050506040513d60208110156127f657600080fd5b50519050612805848783612d62565b80612814576000915050612824565b6128218686868685612c39565b90505b949350505050565b6001600160a01b038084166000908152606d60209081526040808320938616835292815282822084835290522080546128655750610ed2565b826001600160a01b0316846001600160a01b03161461288d5761288d83838360000154612e9c565b6128ee82826001018054806020026020016040519081016040528092919081815260200182805480156128df57602002820191906000526020600020905b8154815260200190600101908083116128cb575b50505050508360000154612fd6565b6001600160a01b038085166000908152606d60209081526040808320938716835292815282822085835290529081208181559061292e6001830182613a2d565b5050604080516001600160a01b0380871682528516602082015280820184905290517f666685d133047310e2a2e8c4f6794b6dccb4e9ad9c6903ac753fb10d8918b6499181900360600190a150505050565b303b1590565b600054610100900460ff168061299f575061299f612980565b806129ad575060005460ff16155b6129e85760405162461bcd60e51b815260040180806020018281038252602e815260200180613b42602e913960400191505060405180910390fd5b600054610100900460ff16158015612a13576000805460ff1961ff0019909116610100171660011790555b60016033558015612a2a576000805461ff00191690555b50565b600082612a3c575060006109ae565b82820282848281612a4957fe5b0414612a865760405162461bcd60e51b8152600401808060200182810382526021815260200180613b216021913960400191505060405180910390fd5b9392505050565b8054600090612a9e57506000611503565b81546109ae90612ac0612aaf6124ff565b60018601549063ffffffff612a2d16565b9063ffffffff61305216565b6001600160a01b038084166000908152606d6020908152604080832093861683529281528282208483528152828220600101805484518184028101840190955280855292936060939092830182828015612b4557602002820191906000526020600020905b815481526020019060010190808311612b31575b50505050509050612b5785858561282c565b612b6383868684612639565b95945050505050565b606a546000908210612bbc576040805162461bcd60e51b81526020600482015260146024820152730d2dcc6dee4e4cac6e840e8c2e6d640d2dcc8caf60631b604482015290519081900360640190fd5b6000606a8381548110612bcb57fe5b60009182526020909120600390910201805490915060ff16612bf1576000915050611503565b612c1d606a8481548110612c0157fe5b9060005260206000209060030201600201548260010154613094565b91508115612c2e57805460ff191681555b50919050565b600490565b60408051808201825282815260208082018581526001600160a01b038089166000908152606d845285812091891681529083528481208a82528352939093208251815592518051929392612c9392600185019201906139e2565b50905050612ca28583836130e3565b7f6e5f0f6e0ce2bdcdb0a82952fc6eb90c4c22f0b6228e4619b5dc2118e1166a12848487858560405180866001600160a01b03166001600160a01b03168152602001856001600160a01b03166001600160a01b0316815260200184815260200180602001838152602001828103825284818151815260200191508051906020019060200280838360005b83811015612d44578181015183820152602001612d2c565b50505050905001965050505050505060405180910390a15050505050565b6001600160a01b0383166000908152606c60209081526040808320858452909152902054612d96818363ffffffff61315f16565b6001600160a01b0385166000818152606c602090815260408083208884528252808320859055928252606d8152828220815282822087835290522060018101549192509015612e51578054612df1908463ffffffff6131b916565b815560018101805460408051602080840282018101909252828152612e519388939192909190830182828015612e4657602002820191906000526020600020905b815481526020019060010190808311612e32575b505050505085612fd6565b604080516001600160a01b03871681526020810185905281517f68fe85c5f71a2900fddf574935a27d4f1cb28af34d4fa2742b202684b45d3d14929181900390910190a15050505050565b6001600160a01b0383166000908152606c60209081526040808320858452909152902054612ed0818363ffffffff6131b916565b6001600160a01b0385166000818152606c602090815260408083208884528252808320859055928252606d8152828220815282822087835290522060018101549192509015612f8b578054612f2b908463ffffffff61315f16565b815560018101805460408051602080840282018101909252828152612f8b9388939192909190830182828015612f8057602002820191906000526020600020905b815481526020019060010190808311612f6c575b5050505050856130e3565b604080516001600160a01b03871681526020810185905281517f11d7313426c62d856bd4ea20cdef8b93af4b40d2ea5b8f6f962fc705dbdcdbef929181900390910190a15050505050565b6000838152606b60205260409020600c810154612ff9908363ffffffff6131b916565b600c82015560005b6006820154811015610c9a5761304a84828151811061301c57fe5b6020908102919091018101516000848152600a8601909252604090912090856004860163ffffffff6131fb16565b600101613001565b6000612a8683836040518060400160405280601a81526020017f536166654d6174683a206469766973696f6e206279207a65726f0000000000008152506132b3565b6000828152606b60205260408120600d8101546130b090612635565b6130be5760019150506109ae565b60018314156130d9576130d18482613355565b9150506109ae565b5060009392505050565b6000838152606b60205260409020600c810154613106908363ffffffff61315f16565b600c82015560005b6006820154811015610c9a5761315784828151811061312957fe5b6020908102919091018101516000848152600a8601909252604090912090856004860163ffffffff61355716565b60010161310e565b600082820183811015612a86576040805162461bcd60e51b815260206004820152601b60248201527f536166654d6174683a206164646974696f6e206f766572666c6f770000000000604482015290519081900360640190fd5b6000612a8683836040518060400160405280601e81526020017f536166654d6174683a207375627472616374696f6e206f766572666c6f7700008152506135f0565b80548310613243576040805162461bcd60e51b815260206004820152601060248201526f1ddc9bdb99c81bdc1a5b9a5bdb88125160821b604482015290519081900360640190fd5b600081848154811061325157fe5b6000918252602090912001548554909150613272908463ffffffff6131b916565b85556132a46132936132838461364a565b612ac0868563ffffffff612a2d16565b60018701549063ffffffff6131b916565b85600101819055505050505050565b6000818361333f5760405162461bcd60e51b81526004018080602001828103825283818151815260200191508051906020019080838360005b838110156133045781810151838201526020016132ec565b50505050905090810190601f1680156133315780820380516001836020036101000a031916815260200191505b509250505060405180910390fd5b50600083858161334b57fe5b0495945050505050565b6000806133df606660009054906101000a90046001600160a01b03166001600160a01b03166306aba0e16040518163ffffffff1660e01b815260040160206040518083038186803b1580156133a957600080fd5b505afa1580156133bd573d6000803e3d6000fd5b505050506040513d60208110156133d357600080fd5b50516002850154610996565b600984015460088501549192504290811015916000911080159061340757508285600c015410155b905081158015613415575080155b1561342657600093505050506109ae565b6000806134328761250b565b9150915081156134fe576000806134498984613671565b91509150816134625760009750505050505050506109ae565b806134b65761346f6138e8565b600d8a0155604080518b815290517f663674d96fd5c2a954bf75ad2e6795f9c9701eb687a7a8f3297c7a299467c9419181900360200190a1606980546000190190556134f7565b6134be6138ed565b600d8a0155604080518b815290517fe8365dd25802fb5113a4ebd6fbe5fee885b5ea470b6b1467f3f4df69e490ed879181900360200190a15b5050613549565b6135066138f2565b600d8801556040805189815290517fd92fba445edb3153b571e6df782d7a66fd0ce668519273670820ee3a86da0ef49181900360200190a1606980546000190190555b506001979650505050505050565b8054831061359f576040805162461bcd60e51b815260206004820152601060248201526f1ddc9bdb99c81bdc1a5b9a5bdb88125160821b604482015290519081900360640190fd5b60008184815481106135ad57fe5b60009182526020909120015485549091506135ce908463ffffffff61315f16565b85556132a46135df6132838461364a565b60018701549063ffffffff61315f16565b600081848411156136425760405162461bcd60e51b81526020600482018181528351602484015283519092839260449091019190850190808383600083156133045781810151838201526020016132ec565b505050900390565b80546000908290600019810190811061365f57fe5b90600052602060002001549050919050565b6000808060018086015460ff16600281111561368957fe5b14806136a757506002600186015460ff1660028111156136a557fe5b145b9050806136bc576001600092509250506138e1565b600b850184905560006136cd6115d5565b6009870154014211905080156136eb576001809350935050506138e1565b60058601546001600160a01b0316600060606001808a015460ff16600281111561371157fe5b14156137f4576040805160248082018b905282518083039091018152604490910182526020810180516001600160e01b03166363012d0160e01b178152915181516001600160a01b0387169382918083835b602083106137825780518252601f199092019160209182019101613763565b6001836020036101000a0380198251168184511680821785525050505050509050019150506000604051808303816000865af19150503d80600081146137e4576040519150601f19603f3d011682016040523d82523d6000602084013e6137e9565b606091505b5090925090506138d6565b604080516001600160a01b0385166024820181905260448083018c905283518084039091018152606490920183526020820180516001600160e01b031663aa3daba960e01b17815292518251919390918291908083835b6020831061386a5780518252601f19909201916020918201910161384b565b6001836020036101000a038019825116818451168082178552505050505050905001915050600060405180830381855af49150503d80600081146138ca576040519150601f19603f3d011682016040523d82523d6000602084013e6138cf565b606091505b5090925090505b509450600093505050505b9250929050565b600190565b600890565b600290565b604051806060016040528060001515815260200160008152602001600081525090565b604051806040016040528060008152602001606081525090565b815481835581811115610ed257600302816003028360005260206000209182019101610ed29190613a4b565b60408051610100810190915260008082526020820190815260200160008152602001600081526020016060815260200160006001600160a01b03168152602001606081526020016139af613a77565b905290565b60405180608001604052806139c7613960565b81526020016000815260200160008152602001600081525090565b828054828255906000526020600020908101928215613a1d579160200282015b82811115613a1d578251825591602001919060010190613a02565b50613a29929150613a98565b5090565b5080546000825590600052602060002090810190612a2a9190613a98565b61113191905b80821115613a2957805460ff191681556000600182018190556002820155600301613a51565b60405180606001604052806000815260200160008152602001600081525090565b61113191905b80821115613a295760008155600101613a9e56fe5265656e7472616e637947756172643a207265656e7472616e742063616c6c0070726f706f73616c20706172616d6574657273206661696c656420766572696669636174696f6e6d7573742062652073656e742066726f6d207468652070726f706f73616c20636f6e7472616374536166654d6174683a206d756c7469706c69636174696f6e206f766572666c6f77436f6e747261637420696e7374616e63652068617320616c7265616479206265656e20696e697469616c697a656470726f706f73616c2077697468206120676976656e20494420646f65736e7420657869737470726f706f73616c206f7074696f6e732061726520656d707479202d206e6f7468696e6720746f20766f746520666f7270726f706f73616c20636f6e7472616374206661696c656420766572696669636174696f6ea265627a7a72315820592fe3d08e68e9948251e801235eb2be665090262209fbe7d77a628da272bba464736f6c63430005110032",
  "linkReferences": {},
  "deployedLinkReferences": {}
}