{
  "_format": "hh-sol-artifact-1",
  "contractName": "UnitTestGovernance",
  "sourceName": "contracts/test/UnitTestGovernance.sol",
  "abi": [
    {
      "anonymous": false,
      "inputs": [
        {
          "indexed": false,
          "internalType": "uint256",
          "name": "proposalID",
          "type": "uint256"
        }
      ],
      "name": "ProposalCanceled",
      "type": "event"
    },
    {
      "anonymous": false,
      "inputs": [
        {
          "indexed": false,
          "internalType": "uint256",
          "name": "proposalID",
          "type": "uint256"
        }
      ],
      "name": "ProposalCreated",
      "type": "event"
    },
    {
      "anonymous": false,
      "inputs": [
        {
          "indexed": false,
          "internalType": "uint256",
          "name": "proposalID",
          "type": "uint256"
        }
      ],
      "name": "ProposalExecutionExpired",
      "type": "event"
    },
    {
      "anonymous": false,
      "inputs": [
        {
          "indexed": false,
          "internalType": "uint256",
          "name": "proposalID",
          "type": "uint256"
        }
      ],
      "name": "ProposalRejected",
      "type": "event"
    },
    {
      "anonymous": false,
      "inputs": [
        {
          "indexed": false,
          "internalType": "uint256",
          "name": "proposalID",
          "type": "uint256"
        }
      ],
      "name": "ProposalResolved",
      "type": "event"
    },
    {
      "anonymous": false,
      "inputs": [
        {
          "indexed": false,
          "internalType": "uint256",
          "name": "quantity",
          "type": "uint256"
        }
      ],
      "name": "TasksErased",
      "type": "event"
    },
    {
      "anonymous": false,
      "inputs": [
        {
          "indexed": false,
          "internalType": "uint256",
          "name": "startIdx",
          "type": "uint256"
        },
        {
          "indexed": false,
          "internalType": "uint256",
          "name": "endIdx",
          "type": "uint256"
        },
        {
          "indexed": false,
          "internalType": "uint256",
          "name": "handled",
          "type": "uint256"
        }
      ],
      "name": "TasksHandled",
      "type": "event"
    },
    {
      "anonymous": false,
      "inputs": [
        {
          "indexed": false,
          "internalType": "address",
          "name": "voter",
          "type": "address"
        },
        {
          "indexed": false,
          "internalType": "address",
          "name": "delegatedTo",
          "type": "address"
        },
        {
          "indexed": false,
          "internalType": "uint256",
          "name": "proposalID",
          "type": "uint256"
        }
      ],
      "name": "VoteCanceled",
      "type": "event"
    },
    {
      "anonymous": false,
      "inputs": [
        {
          "indexed": false,
          "internalType": "address",
          "name": "voter",
          "type": "address"
        },
        {
          "indexed": false,
          "internalType": "uint256",
          "name": "diff",
          "type": "uint256"
        }
      ],
      "name": "VoteWeightOverridden",
      "type": "event"
    },
    {
      "anonymous": false,
      "inputs": [
        {
          "indexed": false,
          "internalType": "address",
          "name": "voter",
          "type": "address"
        },
        {
          "indexed": false,
          "internalType": "uint256",
          "name": "diff",
          "type": "uint256"
        }
      ],
      "name": "VoteWeightUnOverridden",
      "type": "event"
    },
    {
      "anonymous": false,
      "inputs": [
        {
          "indexed": false,
          "internalType": "address",
          "name": "voter",
          "type": "address"
        },
        {
          "indexed": false,
          "internalType": "address",
          "name": "delegatedTo",
          "type": "address"
        },
        {
          "indexed": false,
          "internalType": "uint256",
          "name": "proposalID",
          "type": "uint256"
        },
        {
          "indexed": false,
          "internalType": "uint256[]",
          "name": "choices",
          "type": "uint256[]"
        },
        {
          "indexed": false,
          "internalType": "uint256",
          "name": "weight",
          "type": "uint256"
        }
      ],
      "name": "Voted",
      "type": "event"
    },
    {
      "constant": true,
      "inputs": [],
      "name": "activeProposals",
      "outputs": [
        {
          "internalType": "uint256",
          "name": "",
          "type": "uint256"
        }
      ],
      "payable": false,
      "stateMutability": "view",
      "type": "function"
    },
    {
      "constant": true,
      "inputs": [
        {
          "internalType": "bytes32",
          "name": "_bytes32",
          "type": "bytes32"
        }
      ],
      "name": "bytes32ToString",
      "outputs": [
        {
          "internalType": "string",
          "name": "",
          "type": "string"
        }
      ],
      "payable": false,
      "stateMutability": "pure",
      "type": "function"
    },
    {
      "constant": true,
      "inputs": [
        {
          "internalType": "uint256",
          "name": "proposalID",
          "type": "uint256"
        }
      ],
      "name": "calculateVotingTally",
      "outputs": [
        {
          "internalType": "bool",
          "name": "proposalResolved",
          "type": "bool"
        },
        {
          "internalType": "uint256",
          "name": "winnerID",
          "type": "uint256"
        },
        {
          "internalType": "uint256",
          "name": "votes",
          "type": "uint256"
        }
      ],
      "payable": false,
      "stateMutability": "view",
      "type": "function"
    },
    {
      "constant": false,
      "inputs": [
        {
          "internalType": "uint256",
          "name": "proposalID",
          "type": "uint256"
        }
      ],
      "name": "cancelProposal",
      "outputs": [],
      "payable": false,
      "stateMutability": "nonpayable",
      "type": "function"
    },
    {
      "constant": false,
      "inputs": [
        {
          "internalType": "address",
          "name": "delegatedTo",
          "type": "address"
        },
        {
          "internalType": "uint256",
          "name": "proposalID",
          "type": "uint256"
        }
      ],
      "name": "cancelVote",
      "outputs": [],
      "payable": false,
      "stateMutability": "nonpayable",
      "type": "function"
    },
    {
      "constant": false,
      "inputs": [
        {
          "internalType": "address",
          "name": "proposalContract",
          "type": "address"
        }
      ],
      "name": "createProposal",
      "outputs": [],
      "payable": true,
      "stateMutability": "payable",
      "type": "function"
    },
    {
      "constant": true,
      "inputs": [],
      "name": "getActiveProposals",
      "outputs": [
        {
          "internalType": "uint256",
          "name": "",
          "type": "uint256"
        }
      ],
      "payable": false,
      "stateMutability": "view",
      "type": "function"
    },
    {
      "constant": true,
      "inputs": [
        {
          "internalType": "uint256",
          "name": "i",
          "type": "uint256"
        }
      ],
      "name": "getTask",
      "outputs": [
        {
          "internalType": "bool",
          "name": "active",
          "type": "bool"
        },
        {
          "internalType": "uint256",
          "name": "assignment",
          "type": "uint256"
        },
        {
          "internalType": "uint256",
          "name": "proposalID",
          "type": "uint256"
        }
      ],
      "payable": false,
      "stateMutability": "view",
      "type": "function"
    },
    {
      "constant": true,
      "inputs": [
        {
          "internalType": "address",
          "name": "from",
          "type": "address"
        },
        {
          "internalType": "address",
          "name": "delegatedTo",
          "type": "address"
        },
        {
          "internalType": "uint256",
          "name": "proposalID",
          "type": "uint256"
        }
      ],
      "name": "getVote",
      "outputs": [
        {
          "internalType": "uint256",
          "name": "weight",
          "type": "uint256"
        },
        {
          "internalType": "uint256[]",
          "name": "choices",
          "type": "uint256[]"
        }
      ],
      "payable": false,
      "stateMutability": "view",
      "type": "function"
    },
    {
      "constant": false,
      "inputs": [
        {
          "internalType": "uint256",
          "name": "startIdx",
          "type": "uint256"
        },
        {
          "internalType": "uint256",
          "name": "quantity",
          "type": "uint256"
        }
      ],
      "name": "handleTasks",
      "outputs": [],
      "payable": false,
      "stateMutability": "nonpayable",
      "type": "function"
    },
    {
      "constant": false,
      "inputs": [
        {
          "internalType": "address",
          "name": "_governableContract",
          "type": "address"
        },
        {
          "internalType": "address",
          "name": "_proposalVerifier",
          "type": "address"
        },
        {
          "internalType": "address",
          "name": "_sfcAddress",
          "type": "address"
        }
      ],
      "name": "initialize",
      "outputs": [],
      "payable": false,
      "stateMutability": "nonpayable",
      "type": "function"
    },
    {
      "constant": true,
      "inputs": [],
      "name": "lastProposalID",
      "outputs": [
        {
          "internalType": "uint256",
          "name": "",
          "type": "uint256"
        }
      ],
      "payable": false,
      "stateMutability": "view",
      "type": "function"
    },
    {
      "constant": true,
      "inputs": [],
      "name": "maxExecutionPeriod",
      "outputs": [
        {
          "internalType": "uint256",
          "name": "",
          "type": "uint256"
        }
      ],
      "payable": false,
      "stateMutability": "pure",
      "type": "function"
    },
    {
      "constant": true,
      "inputs": [],
      "name": "maxOptions",
      "outputs": [
        {
          "internalType": "uint256",
          "name": "",
          "type": "uint256"
        }
      ],
      "payable": false,
      "stateMutability": "pure",
      "type": "function"
    },
    {
      "constant": true,
      "inputs": [
        {
          "internalType": "uint256",
          "name": "totalWeight",
          "type": "uint256"
        },
        {
          "internalType": "uint256",
          "name": "minVotesRatio",
          "type": "uint256"
        }
      ],
      "name": "minVotesAbsolute",
      "outputs": [
        {
          "internalType": "uint256",
          "name": "",
          "type": "uint256"
        }
      ],
      "payable": false,
      "stateMutability": "pure",
      "type": "function"
    },
    {
      "constant": true,
      "inputs": [
        {
          "internalType": "address",
          "name": "",
          "type": "address"
        },
        {
          "internalType": "uint256",
          "name": "",
          "type": "uint256"
        }
      ],
      "name": "overriddenWeight",
      "outputs": [
        {
          "internalType": "uint256",
          "name": "",
          "type": "uint256"
        }
      ],
      "payable": false,
      "stateMutability": "view",
      "type": "function"
    },
    {
      "constant": true,
      "inputs": [],
      "name": "proposalBurntFee",
      "outputs": [
        {
          "internalType": "uint256",
          "name": "",
          "type": "uint256"
        }
      ],
      "payable": false,
      "stateMutability": "pure",
      "type": "function"
    },
    {
      "constant": true,
      "inputs": [],
      "name": "proposalFee",
      "outputs": [
        {
          "internalType": "uint256",
          "name": "",
          "type": "uint256"
        }
      ],
      "payable": false,
      "stateMutability": "pure",
      "type": "function"
    },
    {
      "constant": true,
      "inputs": [
        {
          "internalType": "uint256",
          "name": "proposalID",
          "type": "uint256"
        },
        {
          "internalType": "uint256",
          "name": "optionID",
          "type": "uint256"
        }
      ],
      "name": "proposalOptionState",
      "outputs": [
        {
          "internalType": "uint256",
          "name": "votes",
          "type": "uint256"
        },
        {
          "internalType": "uint256",
          "name": "agreementRatio",
          "type": "uint256"
        },
        {
          "internalType": "uint256",
          "name": "agreement",
          "type": "uint256"
        }
      ],
      "payable": false,
      "stateMutability": "view",
      "type": "function"
    },
    {
      "constant": true,
      "inputs": [
        {
          "internalType": "uint256",
          "name": "proposalID",
          "type": "uint256"
        }
      ],
      "name": "proposalParams",
      "outputs": [
        {
          "internalType": "uint256",
          "name": "pType",
          "type": "uint256"
        },
        {
          "internalType": "enum Proposal.ExecType",
          "name": "executable",
          "type": "uint8"
        },
        {
          "internalType": "uint256",
          "name": "minVotes",
          "type": "uint256"
        },
        {
          "internalType": "uint256",
          "name": "minAgreement",
          "type": "uint256"
        },
        {
          "internalType": "uint256[]",
          "name": "opinionScales",
          "type": "uint256[]"
        },
        {
          "internalType": "bytes32[]",
          "name": "options",
          "type": "bytes32[]"
        },
        {
          "internalType": "address",
          "name": "proposalContract",
          "type": "address"
        },
        {
          "internalType": "uint256",
          "name": "votingStartTime",
          "type": "uint256"
        },
        {
          "internalType": "uint256",
          "name": "votingMinEndTime",
          "type": "uint256"
        },
        {
          "internalType": "uint256",
          "name": "votingMaxEndTime",
          "type": "uint256"
        }
      ],
      "payable": false,
      "stateMutability": "view",
      "type": "function"
    },
    {
      "constant": true,
      "inputs": [
        {
          "internalType": "uint256",
          "name": "proposalID",
          "type": "uint256"
        }
      ],
      "name": "proposalState",
      "outputs": [
        {
          "internalType": "uint256",
          "name": "winnerOptionID",
          "type": "uint256"
        },
        {
          "internalType": "uint256",
          "name": "votes",
          "type": "uint256"
        },
        {
          "internalType": "uint256",
          "name": "status",
          "type": "uint256"
        }
      ],
      "payable": false,
      "stateMutability": "view",
      "type": "function"
    },
    {
      "constant": false,
      "inputs": [
        {
          "internalType": "address",
          "name": "voterAddr",
          "type": "address"
        },
        {
          "internalType": "address",
          "name": "delegatedTo",
          "type": "address"
        },
        {
          "internalType": "uint256",
          "name": "proposalID",
          "type": "uint256"
        }
      ],
      "name": "recountVote",
      "outputs": [],
      "payable": false,
      "stateMutability": "nonpayable",
      "type": "function"
    },
    {
      "constant": true,
      "inputs": [],
      "name": "sfc",
      "outputs": [
        {
          "internalType": "address",
          "name": "",
          "type": "address"
        }
      ],
      "payable": false,
      "stateMutability": "view",
      "type": "function"
    },
    {
      "constant": true,
      "inputs": [],
      "name": "taskErasingReward",
      "outputs": [
        {
          "internalType": "uint256",
          "name": "",
          "type": "uint256"
        }
      ],
      "payable": false,
      "stateMutability": "pure",
      "type": "function"
    },
    {
      "constant": true,
      "inputs": [],
      "name": "taskHandlingReward",
      "outputs": [
        {
          "internalType": "uint256",
          "name": "",
          "type": "uint256"
        }
      ],
      "payable": false,
      "stateMutability": "pure",
      "type": "function"
    },
    {
      "constant": false,
      "inputs": [
        {
          "internalType": "uint256",
          "name": "quantity",
          "type": "uint256"
        }
      ],
      "name": "tasksCleanup",
      "outputs": [],
      "payable": false,
      "stateMutability": "nonpayable",
      "type": "function"
    },
    {
      "constant": true,
      "inputs": [],
      "name": "tasksCount",
      "outputs": [
        {
          "internalType": "uint256",
          "name": "",
          "type": "uint256"
        }
      ],
      "payable": false,
      "stateMutability": "view",
      "type": "function"
    },
    {
      "constant": true,
      "inputs": [],
      "name": "version",
      "outputs": [
        {
          "internalType": "bytes3",
          "name": "",
          "type": "bytes3"
        }
      ],
      "payable": false,
      "stateMutability": "pure",
      "type": "function"
    },
    {
      "constant": false,
      "inputs": [
        {
          "internalType": "address",
          "name": "delegatedTo",
          "type": "address"
        },
        {
          "internalType": "uint256",
          "name": "proposalID",
          "type": "uint256"
        },
        {
          "internalType": "uint256[]",
          "name": "choices",
          "type": "uint256[]"
        }
      ],
      "name": "vote",
      "outputs": [],
      "payable": false,
      "stateMutability": "nonpayable",
      "type": "function"
    }
  ],
  "bytecode": "0x608060405234801561001057600080fd5b50613e92806100206000396000f3fe6080604052600436106101c25760003560e01c80636b2ad7d8116100f7578063bb6a0f0711610095578063cfa1afa311610064578063cfa1afa314610736578063d26331d414610851578063e0a8f6f51461087b578063e3a4d709146108a5576101c2565b8063bb6a0f07146106b2578063c0c53b8b146106c7578063c25c2f261461070c578063c27cabb514610721576101c2565b80639201de55116100d15780639201de551461054b578063a1d373d7146105ea578063aea2ddbd146105ff578063b9e6842b14610614576101c2565b80636b2ad7d8146104d55780638992229f146105055780638a444bd714610536576101c2565b806321edf2eb116101645780635584c4f91161013e5780635584c4f91461041a5780635df170771461042f5780635f89801e146104445780636992150614610492576101c2565b806321edf2eb14610385578063491adeee146103be57806354fd4d50146103e8576101c2565b806314262d79116101a057806314262d7914610246578063172c18b1146102905780631d65e77e146103225780632177d6fc1461034c576101c2565b806307eecaf5146101c7578063109c3d27146101ef5780631191e27014610216575b600080fd5b6101ed600480360360208110156101dd57600080fd5b50356001600160a01b03166108ba565b005b3480156101fb57600080fd5b506102046109d6565b60408051918252519081900360200190f35b34801561022257600080fd5b506102046004803603604081101561023957600080fd5b50803590602001356109dc565b34801561025257600080fd5b506102706004803603602081101561026957600080fd5b50356109fa565b604080519315158452602084019290925282820152519081900360600190f35b34801561029c57600080fd5b506101ed600480360360608110156102b357600080fd5b6001600160a01b03823516916020810135918101906060810160408201356401000000008111156102e357600080fd5b8201836020820111156102f557600080fd5b8035906020019184602083028401116401000000008311171561031757600080fd5b509092509050610a28565b34801561032e57600080fd5b506102706004803603602081101561034557600080fd5b5035610ce7565b34801561035857600080fd5b506102046004803603604081101561036f57600080fd5b506001600160a01b038135169060200135610d4d565b34801561039157600080fd5b506101ed600480360360408110156103a857600080fd5b506001600160a01b038135169060200135610d6a565b3480156103ca57600080fd5b506101ed600480360360208110156103e157600080fd5b5035610f1d565b3480156103f457600080fd5b506103fd611094565b604080516001600160e81b03199092168252519081900360200190f35b34801561042657600080fd5b5061020461109f565b34801561043b57600080fd5b506102046110a5565b34801561045057600080fd5b506104746004803603604081101561046757600080fd5b50803590602001356110aa565b60408051938452602084019290925282820152519081900360600190f35b34801561049e57600080fd5b506101ed600480360360608110156104b557600080fd5b506001600160a01b038135811691602081013590911690604001356110ec565b3480156104e157600080fd5b506101ed600480360360408110156104f857600080fd5b50803590602001356112a0565b34801561051157600080fd5b5061051a6113f3565b604080516001600160a01b039092168252519081900360200190f35b34801561054257600080fd5b50610204611402565b34801561055757600080fd5b506105756004803603602081101561056e57600080fd5b503561140e565b6040805160208082528351818301528351919283929083019185019080838360005b838110156105af578181015183820152602001610597565b50505050905090810190601f1680156105dc5780820380516001836020036101000a031916815260200191505b509250505060405180910390f35b3480156105f657600080fd5b50610204611482565b34801561060b57600080fd5b50610204611488565b34801561062057600080fd5b506106576004803603606081101561063757600080fd5b506001600160a01b03813581169160208101359091169060400135611494565b6040518083815260200180602001828103825283818151815260200191508051906020019060200280838360005b8381101561069d578181015183820152602001610685565b50505050905001935050505060405180910390f35b3480156106be57600080fd5b50610204611549565b3480156106d357600080fd5b506101ed600480360360608110156106ea57600080fd5b506001600160a01b03813581169160208101358216916040909101351661154f565b34801561071857600080fd5b50610204611638565b34801561072d57600080fd5b5061020461163f565b34801561074257600080fd5b506107606004803603602081101561075957600080fd5b5035611660565b604051808b81526020018a600281111561077657fe5b60ff1681526020018981526020018881526020018060200180602001876001600160a01b03166001600160a01b03168152602001868152602001858152602001848152602001838103835289818151815260200191508051906020019060200280838360005b838110156107f45781810151838201526020016107dc565b50505050905001838103825288818151815260200191508051906020019060200280838360005b8381101561083357818101518382015260200161081b565b505050509050019c5050505050505050505050505060405180910390f35b34801561085d57600080fd5b506104746004803603602081101561087457600080fd5b503561182c565b34801561088757600080fd5b506101ed6004803603602081101561089e57600080fd5b50356119cf565b3480156108b157600080fd5b50610204611bb8565b60338054600101908190556108cd61163f565b3414610920576040805162461bcd60e51b815260206004820152601a60248201527f706169642070726f706f73616c206665652069732077726f6e67000000000000604482015290519081900360640190fd5b60688054600101908190556109359083611bc4565b610940606854612484565b61095061094b611402565b612535565b60685460408051918252517fc2c021f5d73c63c481d336fbbafec58f694fc45095f00b02d2deb8cca59afe079181900360200190a160698054600101905560335481146109d2576040805162461bcd60e51b815260206004820152601f6024820152600080516020613cff833981519152604482015290519081900360640190fd5b5050565b60695481565b60006109e6612562565b828402816109f057fe5b0490505b92915050565b6000818152606c6020526040812081908190610a158161256e565b600c929092015490969195509350915050565b60338054600101908190556001600160a01b038516610a45573394505b6000848152606c6020526040902060058101546001600160a01b0316610a9c5760405162461bcd60e51b8152600401808060200182810382526025815260200180613dbc6025913960400191505060405180910390fd5b610aa981600d0154612698565b610af2576040805162461bcd60e51b815260206004820152601560248201527470726f706f73616c2069736e27742061637469766560581b604482015290519081900360640190fd5b6007810154421015610b4b576040805162461bcd60e51b815260206004820152601c60248201527f70726f706f73616c20766f74696e67206861736e277420626567756e00000000604482015290519081900360640190fd5b336000908152606e602090815260408083206001600160a01b038a168452825280832088845290915290205415610bbf576040805162461bcd60e51b8152602060048201526013602482015272766f746520616c72656164792065786973747360681b604482015290519081900360640190fd5b60068101548314610c17576040805162461bcd60e51b815260206004820152601760248201527f77726f6e67206e756d626572206f662063686f69636573000000000000000000604482015290519081900360640190fd5b6000610c5886338988888080602002602001604051908101604052809392919081815260200183836020028082843760009201919091525061269c92505050565b905080610c9a576040805162461bcd60e51b815260206004820152600b60248201526a1e995c9bc81dd95a59da1d60aa1b604482015290519081900360640190fd5b50506033548114610ce0576040805162461bcd60e51b815260206004820152601f6024820152600080516020613cff833981519152604482015290519081900360640190fd5b5050505050565b6000806000610cf4613b20565b606b8581548110610d0157fe5b600091825260209182902060408051606081018252600393909302909101805460ff16151580845260018201549484018590526002909101549290910182905297919650945092505050565b606d60209081526000928352604080842090915290825290205481565b60338054600101908190556001600160a01b038316610d87573392505b610d8f613b43565b336000908152606e602090815260408083206001600160a01b03881684528252808320868452825291829020825180840184528154815260018201805485518186028101860190965280865291949293858101939290830182828015610e1457602002820191906000526020600020905b815481526020019060010190808311610e00575b505050919092525050815191925050610e64576040805162461bcd60e51b815260206004820152600d60248201526c191bd95cdb89dd08195e1a5cdd609a1b604482015290519081900360640190fd5b6000838152606c60205260409020600d0154610e7f90612698565b610ec8576040805162461bcd60e51b815260206004820152601560248201527470726f706f73616c2069736e27742061637469766560581b604482015290519081900360640190fd5b610ed333858561288f565b506033548114610f18576040805162461bcd60e51b815260206004820152601f6024820152600080516020613cff833981519152604482015290519081900360640190fd5b505050565b603380546001019081905560005b606b5415801590610f3b57508281105b15610f9057606b80546000198101908110610f5257fe5b600091825260209091206003909102015460ff16610f8357606b805490610f7d906000198301613b5d565b50610f88565b610f90565b600101610f2b565b60008111610fd7576040805162461bcd60e51b815260206004820152600f60248201526e1b9bc81d185cdadcc8195c985cd959608a1b604482015290519081900360640190fd5b6040805182815290517fdd64b087b4726a6d5006bfae34869d1044e415cd6fc53054b69619ee337b730d9181900360200190a1336108fc611026611019611488565b849063ffffffff6129e316565b6040518115909202916000818181858888f1935050505015801561104e573d6000803e3d6000fd5b505060335481146109d2576040805162461bcd60e51b815260206004820152601f6024820152600080516020613cff833981519152604482015290519081900360640190fd5b6219981960e91b5b90565b60695490565b600a90565b6000828152606c60209081526040808320848452600a8101909252822080548392839290916110d882612a43565b826001015494509450945050509250925092565b603380546001908101918290556001600160a01b038086166000908152606e60208181526040808420948916808552948252808420888552825280842094845291815281832081528183208784529052902091810154909190611186576040805162461bcd60e51b815260206004820152600d60248201526c191bd95cdb89dd08195e1a5cdd609a1b604482015290519081900360640190fd5b6000848152606c60205260409020600d01546111a190612698565b6111ea576040805162461bcd60e51b815260206004820152601560248201527470726f706f73616c2069736e27742061637469766560581b604482015290519081900360640190fd5b815481546111f9888888612a82565b5083548354838214158061120d5750808314155b611250576040805162461bcd60e51b815260206004820152600f60248201526e1b9bdd1a1a5b99c818da185b99d959608a1b604482015290519081900360640190fd5b505050505050603354811461129a576040805162461bcd60e51b815260206004820152601f6024820152600080516020613cff833981519152604482015290519081900360640190fd5b50505050565b60338054600101908190556000835b606b54811080156112c1575083850181105b156112e3576112cf81612b22565b156112db576001820191505b6001016112af565b81611328576040805162461bcd60e51b815260206004820152601060248201526f1b9bc81d185cdadcc81a185b991b195960821b604482015290519081900360640190fd5b604080518681526020810183905280820184905290517f010b51ac92c2d2e8fe9c84de31065ca878ff8274a1e5e6d31799520b7d16bb589181900360600190a1336108fc611384611377611bb8565b859063ffffffff6129e316565b6040518115909202916000818181858888f193505050501580156113ac573d6000803e3d6000fd5b5050506033548114610f18576040805162461bcd60e51b815260206004820152601f6024820152600080516020613cff833981519152604482015290519081900360640190fd5b606a546001600160a01b031681565b6706f05b59d3b2000090565b60408051602080825281830190925260609182919060208201818038833901905050905060005b60208110156114795783816020811061144a57fe5b1a60f81b82828151811061145a57fe5b60200101906001600160f81b031916908160001a905350600101611435565b5090505b919050565b60685481565b67016345785d8a000090565b600060606114a0613b43565b6001600160a01b038087166000908152606e60209081526040808320938916835292815282822087835281529082902082518084018452815481526001820180548551818602810186019096528086529194929385810193929083018282801561152957602002820191906000526020600020905b815481526020019060010190808311611515575b505050919092525050815160209092015191989197509095505050505050565b606b5490565b600054610100900460ff16806115685750611568612c27565b80611576575060005460ff16155b6115b15760405162461bcd60e51b815260040180806020018281038252602e815260200180613d8e602e913960400191505060405180910390fd5b600054610100900460ff161580156115dc576000805460ff1961ff0019909116610100171660011790555b6115e4612c2d565b606680546001600160a01b038087166001600160a01b03199283161790925560678054868416908316179055606a805492851692909116919091179055801561129a576000805461ff001916905550505050565b6203f48090565b6000611649611488565b611651611bb8565b611659611402565b0101905090565b600080600080606080600080600080611677613b89565b60008c8152606c602090815260409182902082516101008101909352805483526001810154909183019060ff1660028111156116af57fe5b60028111156116ba57fe5b815260200160028201548152602001600382015481526020016004820180548060200260200160405190810160405280929190818152602001828054801561172157602002820191906000526020600020905b81548152602001906001019080831161170d575b505050918352505060058201546001600160a01b0316602080830191909152600683018054604080518285028101850182528281529401939283018282801561178957602002820191906000526020600020905b815481526020019060010190808311611775575b50505050508152602001600782016040518060600160405290816000820154815260200160018201548152602001600282015481525050815250509050806000015181602001518260400151836060015184608001518560c001518660a001518760e00151600001518860e00151602001518960e00151604001518595508494509a509a509a509a509a509a509a509a509a509a50509193959799509193959799565b6000806000611839613bdd565b6000858152606c602052604090819020815161018081019092528054608083019081526001820154839190839060a084019060ff16600281111561187957fe5b600281111561188457fe5b81526020016002820154815260200160038201548152602001600482018054806020026020016040519081016040528092919081815260200182805480156118eb57602002820191906000526020600020905b8154815260200190600101908083116118d7575b505050918352505060058201546001600160a01b0316602080830191909152600683018054604080518285028101850182528281529401939283018282801561195357602002820191906000526020600020905b81548152602001906001019080831161193f575b50505050508152602001600782016040518060600160405290816000820154815260200160018201548152602001600282015481525050815250508152602001600b8201548152602001600c8201548152602001600d820154815250509050806020015181604001518260600151935093509350509193909250565b60338054600101908190556000828152606c6020526040902060058101546001600160a01b0316611a315760405162461bcd60e51b8152600401808060200182810382526025815260200180613dbc6025913960400191505060405180910390fd5b611a3e81600d0154612698565b611a87576040805162461bcd60e51b815260206004820152601560248201527470726f706f73616c2069736e27742061637469766560581b604482015290519081900360640190fd5b600c81015415611ade576040805162461bcd60e51b815260206004820152601860248201527f766f74696e672068617320616c726561647920626567756e0000000000000000604482015290519081900360640190fd5b60058101546001600160a01b03163314611b295760405162461bcd60e51b8152600401808060200182810382526027815260200180613d466027913960400191505060405180910390fd5b611b31612cd4565b600d8201556040805184815290517f789cf55be980739dad1d0699b93b58e806b51c9d96619bfa8fe0a28abaa7b30c9181900360200190a1506069805460001901905560335481146109d2576040805162461bcd60e51b815260206004820152601f6024820152600080516020613cff833981519152604482015290519081900360640190fd5b67058d15e17628000090565b6001600160a01b038116611c18576040805162461bcd60e51b8152602060048201526016602482015275656d7074792070726f706f73616c206164647265737360501b604482015290519081900360640190fd5b60008190506000816001600160a01b031663216b91166040518163ffffffff1660e01b815260040160206040518083038186803b158015611c5857600080fd5b505afa158015611c6c573d6000803e3d6000fd5b505050506040513d6020811015611c8257600080fd5b5051604080516302c2634360e31b815290519192506000916001600160a01b038516916316131a18916004808301926020929190829003018186803b158015611cca57600080fd5b505afa158015611cde573d6000803e3d6000fd5b505050506040513d6020811015611cf457600080fd5b505160408051633cc228fd60e01b815290519192506000916001600160a01b03861691633cc228fd916004808301926020929190829003018186803b158015611d3c57600080fd5b505afa158015611d50573d6000803e3d6000fd5b505050506040513d6020811015611d6657600080fd5b505160408051630375833d60e51b815290519192506000916001600160a01b03871691636eb067a0916004808301926020929190829003018186803b158015611dae57600080fd5b505afa158015611dc2573d6000803e3d6000fd5b505050506040513d6020811015611dd857600080fd5b505160408051636f24f8a160e01b815290519192506060916001600160a01b03881691636f24f8a1916004808301926000929190829003018186803b158015611e2057600080fd5b505afa158015611e34573d6000803e3d6000fd5b505050506040513d6000823e601f3d908101601f191682016040526020811015611e5d57600080fd5b8101908080516040519392919084640100000000821115611e7d57600080fd5b908301906020820185811115611e9257600080fd5b8251866020820283011164010000000082111715611eaf57600080fd5b82525081516020918201928201910280838360005b83811015611edc578181015183820152602001611ec4565b5050505090500160405250505090506000866001600160a01b0316632019a6086040518163ffffffff1660e01b815260040160206040518083038186803b158015611f2657600080fd5b505afa158015611f3a573d6000803e3d6000fd5b505050506040513d6020811015611f5057600080fd5b505160408051639b3a8a0760e01b815290519192506000916001600160a01b038a1691639b3a8a07916004808301926020929190829003018186803b158015611f9857600080fd5b505afa158015611fac573d6000803e3d6000fd5b505050506040513d6020811015611fc257600080fd5b50516040805163530f1c9d60e11b815290519192506000916001600160a01b038b169163a61e393a916004808301926020929190829003018186803b15801561200a57600080fd5b505afa15801561201e573d6000803e3d6000fd5b505050506040513d602081101561203457600080fd5b5051604080516308348a1d60e11b815290519192506060916001600160a01b038c1691631069143a916004808301926000929190829003018186803b15801561207c57600080fd5b505afa158015612090573d6000803e3d6000fd5b505050506040513d6000823e601f3d908101601f1916820160405260208110156120b957600080fd5b81019080805160405193929190846401000000008211156120d957600080fd5b9083019060208201858111156120ee57600080fd5b825186602082028301116401000000008211171561210b57600080fd5b82525081516020918201928201910280838360005b83811015612138578181015183820152602001612120565b5050505090500160405250505090508051600014156121885760405162461bcd60e51b8152600401808060200182810382526030815260200180613de16030913960400191505060405180910390fd5b6121906110a5565b815111156121d8576040805162461bcd60e51b815260206004820152601060248201526f746f6f206d616e79206f7074696f6e7360801b604482015290519081900360640190fd5b60675460405163f3f4ef7960e01b8152600481018b81526000926001600160a01b03169163f3f4ef79918d918d918d918d918d918d918d918d919060240188600281111561222257fe5b60ff16815260200187815260200186815260200180602001858152602001848152602001838152602001828103825286818151815260200191508051906020019060200280838360005b8381101561228457818101518382015260200161226c565b50505050905001995050505050505050505060206040518083038186803b1580156122ae57600080fd5b505afa1580156122c2573d6000803e3d6000fd5b505050506040513d60208110156122d857600080fd5b50519050806123185760405162461bcd60e51b8152600401808060200182810382526027815260200180613d1f6027913960400191505060405180910390fd5b60675460408051631a529da560e31b8152600481018d90526001600160a01b038f811660248301529151919092169163d294ed28916044808301926020929190829003018186803b15801561236c57600080fd5b505afa158015612380573d6000803e3d6000fd5b505050506040513d602081101561239657600080fd5b50519050806123d65760405162461bcd60e51b8152600401808060200182810382526025815260200180613e116025913960400191505060405180910390fd5b60008d8152606c602052604090208a8155600180820180548c9260ff199091169083600281111561240357fe5b02179055506002810189905560038101889055865161242b90600483019060208a0190613c0b565b506005810180546001600160a01b0319166001600160a01b038f1617905560078101869055600881018590556009810184905582516124739060068301906020860190613c0b565b505050505050505050505050505050565b60408051606081018252600180825260208201818152928201938452606b8054918201815560005290517fbd43cb8ece8cd1863bcd6082d65c5b0d25665b1ce17980f0da43c0ed545f98b46003909202918201805460ff191691151591909117905590517fbd43cb8ece8cd1863bcd6082d65c5b0d25665b1ce17980f0da43c0ed545f98b582015590517fbd43cb8ece8cd1863bcd6082d65c5b0d25665b1ce17980f0da43c0ed545f98b690910155565b60405160009082156108fc0290839083818181858288f193505050501580156109d2573d6000803e3d6000fd5b670de0b6b3a764000090565b60008060006125fa606660009054906101000a90046001600160a01b03166001600160a01b03166306aba0e16040518163ffffffff1660e01b815260040160206040518083038186803b1580156125c457600080fd5b505afa1580156125d8573d6000803e3d6000fd5b505050506040513d60208110156125ee57600080fd5b505160028601546109dc565b6006850154600c86015491925060009183111561261f57600094509250612693915050565b60005b6006870154811015612683576000818152600a88016020526040812082919061264a90612a43565b60038a015490915081101561266057505061267b565b84158061266c57508481115b15612678578094508293505b50505b600101612622565b5060068601548114159450925050505b915091565b1590565b6000836001600160a01b0316836001600160a01b031614156127985760665460408051636833935760e01b81526001600160a01b03878116600483015291516000939290921691636833935791602480820192602092909190829003018186803b15801561270957600080fd5b505afa15801561271d573d6000803e3d6000fd5b505050506040513d602081101561273357600080fd5b50516001600160a01b0386166000908152606d602090815260408083208a84529091529020549091508082111561276e578082039150612773565b600091505b8161278357600092505050612887565b6127908787888786612cd9565b509050612887565b6001600160a01b0383166000908152606e602090815260408083208252808320888452909152902060010154156127d6576127d4838487612a82565b505b6066546040805163a481732160e01b81526001600160a01b03878116600483015286811660248301529151600093929092169163a481732191604480820192602092909190829003018186803b15801561282f57600080fd5b505afa158015612843573d6000803e3d6000fd5b505050506040513d602081101561285957600080fd5b50519050612868848783612e02565b80612877576000915050612887565b6128848686868685612cd9565b90505b949350505050565b6001600160a01b038084166000908152606e60209081526040808320938616835292815282822084835290522080546128c85750610f18565b826001600160a01b0316846001600160a01b0316146128f0576128f083838360000154612f3c565b612951828260010180548060200260200160405190810160405280929190818152602001828054801561294257602002820191906000526020600020905b81548152602001906001019080831161292e575b50505050508360000154613076565b6001600160a01b038085166000908152606e6020908152604080832093871683529281528282208583529052908120818155906129916001830182613c56565b5050604080516001600160a01b0380871682528516602082015280820184905290517f666685d133047310e2a2e8c4f6794b6dccb4e9ad9c6903ac753fb10d8918b6499181900360600190a150505050565b6000826129f2575060006109f4565b828202828482816129ff57fe5b0414612a3c5760405162461bcd60e51b8152600401808060200182810382526021815260200180613d6d6021913960400191505060405180910390fd5b9392505050565b8054600090612a545750600061147d565b81546109f490612a76612a65612562565b60018601549063ffffffff6129e316565b9063ffffffff6130f216565b6001600160a01b038084166000908152606e6020908152604080832093861683529281528282208483528152828220600101805484518184028101840190955280855292936060939092830182828015612afb57602002820191906000526020600020905b815481526020019060010190808311612ae7575b50505050509050612b0d85858561288f565b612b198386868461269c565b95945050505050565b6000612b626040518060400160405280601881526020017f476f7665726e616e63653a2068616e646c655461736b28290000000000000000815250613134565b606b548210612baf576040805162461bcd60e51b81526020600482015260146024820152730d2dcc6dee4e4cac6e840e8c2e6d640d2dcc8caf60631b604482015290519081900360640190fd5b6000606b8381548110612bbe57fe5b60009182526020909120600390910201805490915060ff16612be457600091505061147d565b612c10606b8481548110612bf457fe5b90600052602060002090600302016002015482600101546131da565b91508115612c2157805460ff191681555b50919050565b303b1590565b600054610100900460ff1680612c465750612c46612c27565b80612c54575060005460ff16155b612c8f5760405162461bcd60e51b815260040180806020018281038252602e815260200180613d8e602e913960400191505060405180910390fd5b600054610100900460ff16158015612cba576000805460ff1961ff0019909116610100171660011790555b60016033558015612cd1576000805461ff00191690555b50565b600490565b60408051808201825282815260208082018581526001600160a01b038089166000908152606e845285812091891681529083528481208a82528352939093208251815592518051929392612d339260018501920190613c0b565b50905050612d4285838361324c565b7f6e5f0f6e0ce2bdcdb0a82952fc6eb90c4c22f0b6228e4619b5dc2118e1166a12848487858560405180866001600160a01b03166001600160a01b03168152602001856001600160a01b03166001600160a01b0316815260200184815260200180602001838152602001828103825284818151815260200191508051906020019060200280838360005b83811015612de4578181015183820152602001612dcc565b50505050905001965050505050505060405180910390a15050505050565b6001600160a01b0383166000908152606d60209081526040808320858452909152902054612e36818363ffffffff6132c816565b6001600160a01b0385166000818152606d602090815260408083208884528252808320859055928252606e8152828220815282822087835290522060018101549192509015612ef1578054612e91908463ffffffff61332216565b815560018101805460408051602080840282018101909252828152612ef19388939192909190830182828015612ee657602002820191906000526020600020905b815481526020019060010190808311612ed2575b505050505085613076565b604080516001600160a01b03871681526020810185905281517f68fe85c5f71a2900fddf574935a27d4f1cb28af34d4fa2742b202684b45d3d14929181900390910190a15050505050565b6001600160a01b0383166000908152606d60209081526040808320858452909152902054612f70818363ffffffff61332216565b6001600160a01b0385166000818152606d602090815260408083208884528252808320859055928252606e815282822081528282208783529052206001810154919250901561302b578054612fcb908463ffffffff6132c816565b81556001810180546040805160208084028201810190925282815261302b938893919290919083018282801561302057602002820191906000526020600020905b81548152602001906001019080831161300c575b50505050508561324c565b604080516001600160a01b03871681526020810185905281517f11d7313426c62d856bd4ea20cdef8b93af4b40d2ea5b8f6f962fc705dbdcdbef929181900390910190a15050505050565b6000838152606c60205260409020600c810154613099908363ffffffff61332216565b600c82015560005b6006820154811015610ce0576130ea8482815181106130bc57fe5b6020908102919091018101516000848152600a8601909252604090912090856004860163ffffffff61336416565b6001016130a1565b6000612a3c83836040518060400160405280601a81526020017f536166654d6174683a206469766973696f6e206279207a65726f00000000000081525061341c565b612cd1816040516024018080602001828103825283818151815260200191508051906020019080838360005b83811015613178578181015183820152602001613160565b50505050905090810190601f1680156131a55780820380516001836020036101000a031916815260200191505b5060408051601f198184030181529190526020810180516001600160e01b031663104c13eb60e21b17905292506134be915050565b60006131fd604051806060016040528060238152602001613cdc60239139613134565b6000838152606c60205260409020600d81015461321990612698565b6132275760019150506109f4565b60018314156132425761323a84826134df565b9150506109f4565b5060009392505050565b6000838152606c60205260409020600c81015461326f908363ffffffff6132c816565b600c82015560005b6006820154811015610ce0576132c084828151811061329257fe5b6020908102919091018101516000848152600a8601909252604090912090856004860163ffffffff61372016565b600101613277565b600082820183811015612a3c576040805162461bcd60e51b815260206004820152601b60248201527f536166654d6174683a206164646974696f6e206f766572666c6f770000000000604482015290519081900360640190fd5b6000612a3c83836040518060400160405280601e81526020017f536166654d6174683a207375627472616374696f6e206f766572666c6f7700008152506137b9565b805483106133ac576040805162461bcd60e51b815260206004820152601060248201526f1ddc9bdb99c81bdc1a5b9a5bdb88125160821b604482015290519081900360640190fd5b60008184815481106133ba57fe5b60009182526020909120015485549091506133db908463ffffffff61332216565b855561340d6133fc6133ec84613813565b612a76868563ffffffff6129e316565b60018701549063ffffffff61332216565b85600101819055505050505050565b600081836134a85760405162461bcd60e51b81526004018080602001828103825283818151815260200191508051906020019080838360005b8381101561346d578181015183820152602001613455565b50505050905090810190601f16801561349a5780820380516001836020036101000a031916815260200191505b509250505060405180910390fd5b5060008385816134b457fe5b0495945050505050565b80516a636f6e736f6c652e6c6f67602083016000808483855afa5050505050565b600061351f6040518060400160405280601e81526020017f476f7665726e616e63653a2068616e646c65566f74696e675461736b28290000815250613134565b60006135a8606660009054906101000a90046001600160a01b03166001600160a01b03166306aba0e16040518163ffffffff1660e01b815260040160206040518083038186803b15801561357257600080fd5b505afa158015613586573d6000803e3d6000fd5b505050506040513d602081101561359c57600080fd5b505160028501546109dc565b60098401546008850154919250429081101591600091108015906135d057508285600c015410155b9050811580156135de575080155b156135ef57600093505050506109f4565b6000806135fb8761256e565b9150915081156136c757600080613612898461383a565b915091508161362b5760009750505050505050506109f4565b8061367f57613638613b11565b600d8a0155604080518b815290517f663674d96fd5c2a954bf75ad2e6795f9c9701eb687a7a8f3297c7a299467c9419181900360200190a1606980546000190190556136c0565b613687613b16565b600d8a0155604080518b815290517fe8365dd25802fb5113a4ebd6fbe5fee885b5ea470b6b1467f3f4df69e490ed879181900360200190a15b5050613712565b6136cf613b1b565b600d8801556040805189815290517fd92fba445edb3153b571e6df782d7a66fd0ce668519273670820ee3a86da0ef49181900360200190a1606980546000190190555b506001979650505050505050565b80548310613768576040805162461bcd60e51b815260206004820152601060248201526f1ddc9bdb99c81bdc1a5b9a5bdb88125160821b604482015290519081900360640190fd5b600081848154811061377657fe5b6000918252602090912001548554909150613797908463ffffffff6132c816565b855561340d6137a86133ec84613813565b60018701549063ffffffff6132c816565b6000818484111561380b5760405162461bcd60e51b815260206004820181815283516024840152835190928392604490910191908501908083836000831561346d578181015183820152602001613455565b505050900390565b80546000908290600019810190811061382857fe5b90600052602060002001549050919050565b60008061387b6040518060400160405280601d81526020017f476f7665726e616e63653a206578656375746550726f706f73616c2829000000815250613134565b600060018086015460ff16600281111561389157fe5b14806138af57506002600186015460ff1660028111156138ad57fe5b145b9050806138c457600160009250925050613b0a565b600b850184905560006138d5611638565b6009870154014211905080156138f357600180935093505050613b0a565b60058601546001600160a01b0316600060606001808a015460ff16600281111561391957fe5b14156139fc576040805160248082018b905282518083039091018152604490910182526020810180516001600160e01b03166363012d0160e01b178152915181516001600160a01b0387169382918083835b6020831061398a5780518252601f19909201916020918201910161396b565b6001836020036101000a0380198251168184511680821785525050505050509050019150506000604051808303816000865af19150503d80600081146139ec576040519150601f19603f3d011682016040523d82523d6000602084013e6139f1565b606091505b509092509050613aff565b613a1d604051806060016040528060288152602001613e3660289139613134565b604080516001600160a01b0385166024820181905260448083018c905283518084039091018152606490920183526020820180516001600160e01b031663aa3daba960e01b17815292518251919390918291908083835b60208310613a935780518252601f199092019160209182019101613a74565b6001836020036101000a038019825116818451168082178552505050505050905001915050600060405180830381855af49150503d8060008114613af3576040519150601f19603f3d011682016040523d82523d6000602084013e613af8565b606091505b5090925090505b509450600093505050505b9250929050565b600190565b600890565b600290565b604051806060016040528060001515815260200160008152602001600081525090565b604051806040016040528060008152602001606081525090565b815481835581811115610f1857600302816003028360005260206000209182019101610f189190613c74565b60408051610100810190915260008082526020820190815260200160008152602001600081526020016060815260200160006001600160a01b0316815260200160608152602001613bd8613ca0565b905290565b6040518060800160405280613bf0613b89565b81526020016000815260200160008152602001600081525090565b828054828255906000526020600020908101928215613c46579160200282015b82811115613c46578251825591602001919060010190613c2b565b50613c52929150613cc1565b5090565b5080546000825590600052602060002090810190612cd19190613cc1565b61109c91905b80821115613c5257805460ff191681556000600182018190556002820155600301613c7a565b60405180606001604052806000815260200160008152602001600081525090565b61109c91905b80821115613c525760008155600101613cc756fe476f7665726e616e63653a2068616e646c655461736b41737369676e6d656e747328295265656e7472616e637947756172643a207265656e7472616e742063616c6c0070726f706f73616c20706172616d6574657273206661696c656420766572696669636174696f6e6d7573742062652073656e742066726f6d207468652070726f706f73616c20636f6e7472616374536166654d6174683a206d756c7469706c69636174696f6e206f766572666c6f77436f6e747261637420696e7374616e63652068617320616c7265616479206265656e20696e697469616c697a656470726f706f73616c2077697468206120676976656e20494420646f65736e7420657869737470726f706f73616c206f7074696f6e732061726520656d707479202d206e6f7468696e6720746f20766f746520666f7270726f706f73616c20636f6e7472616374206661696c656420766572696669636174696f6e476f7665726e616e63653a206578656375746550726f706f73616c2064656c656761746563616c6ca265627a7a7231582090ce887edaac7ff525c28cb99ae5572d176ec72930b1474bbecd2c0eb412b30d64736f6c63430005110032",
  "linkReferences": {},
  "deployedLinkReferences": {}
}