{
  "_format": "hh-sol-artifact-1",
  "contractName": "ExecLoggingProposal",
  "sourceName": "contracts/proposal/test/ExecLoggingProposal.sol",
  "abi": [
    {
      "inputs": [
        {
          "internalType": "string",
          "name": "v1",
          "type": "string"
        },
        {
          "internalType": "string",
          "name": "v2",
          "type": "string"
        },
        {
          "internalType": "bytes32[]",
          "name": "v3",
          "type": "bytes32[]"
        },
        {
          "internalType": "uint256",
          "name": "v4",
          "type": "uint256"
        },
        {
          "internalType": "uint256",
          "name": "v5",
          "type": "uint256"
        },
        {
          "internalType": "uint256",
          "name": "v6",
          "type": "uint256"
        },
        {
          "internalType": "uint256",
          "name": "v7",
          "type": "uint256"
        },
        {
          "internalType": "uint256",
          "name": "v8",
          "type": "uint256"
        },
        {
          "internalType": "address",
          "name": "v9",
          "type": "address"
        },
        {
          "internalType": "address",
          "name": "v10",
          "type": "address"
        }
      ],
      "payable": false,
      "stateMutability": "nonpayable",
      "type": "constructor"
    },
    {
      "anonymous": false,
      "inputs": [
        {
          "indexed": false,
          "internalType": "uint256",
          "name": "newValue",
          "type": "uint256"
        }
      ],
      "name": "NetworkParameterUpgradeIsDone",
      "type": "event"
    },
    {
      "anonymous": false,
      "inputs": [
        {
          "indexed": true,
          "internalType": "address",
          "name": "previousOwner",
          "type": "address"
        },
        {
          "indexed": true,
          "internalType": "address",
          "name": "newOwner",
          "type": "address"
        }
      ],
      "name": "OwnershipTransferred",
      "type": "event"
    },
    {
      "constant": false,
      "inputs": [
        {
          "internalType": "uint256",
          "name": "myID",
          "type": "uint256"
        },
        {
          "internalType": "address",
          "name": "govAddress",
          "type": "address"
        }
      ],
      "name": "cancel",
      "outputs": [],
      "payable": false,
      "stateMutability": "nonpayable",
      "type": "function"
    },
    {
      "constant": true,
      "inputs": [],
      "name": "description",
      "outputs": [
        {
          "internalType": "string",
          "name": "",
          "type": "string"
        }
      ],
      "payable": false,
      "stateMutability": "view",
      "type": "function"
    },
    {
      "constant": true,
      "inputs": [],
      "name": "executable",
      "outputs": [
        {
          "internalType": "enum Proposal.ExecType",
          "name": "",
          "type": "uint8"
        }
      ],
      "payable": false,
      "stateMutability": "view",
      "type": "function"
    },
    {
      "constant": false,
      "inputs": [
        {
          "internalType": "address",
          "name": "_executedAs",
          "type": "address"
        },
        {
          "internalType": "address",
          "name": "_executedMsgSender",
          "type": "address"
        },
        {
          "internalType": "uint256",
          "name": "optionID",
          "type": "uint256"
        }
      ],
      "name": "executeNonDelegateCall",
      "outputs": [],
      "payable": false,
      "stateMutability": "nonpayable",
      "type": "function"
    },
    {
      "constant": false,
      "inputs": [
        {
          "internalType": "uint256",
          "name": "optionID",
          "type": "uint256"
        }
      ],
      "name": "execute_call",
      "outputs": [],
      "payable": false,
      "stateMutability": "nonpayable",
      "type": "function"
    },
    {
      "constant": false,
      "inputs": [
        {
          "internalType": "address",
          "name": "selfAddr",
          "type": "address"
        },
        {
          "internalType": "uint256",
          "name": "optionID",
          "type": "uint256"
        }
      ],
      "name": "execute_delegatecall",
      "outputs": [],
      "payable": false,
      "stateMutability": "nonpayable",
      "type": "function"
    },
    {
      "constant": true,
      "inputs": [],
      "name": "executedAs",
      "outputs": [
        {
          "internalType": "address",
          "name": "",
          "type": "address"
        }
      ],
      "payable": false,
      "stateMutability": "view",
      "type": "function"
    },
    {
      "constant": true,
      "inputs": [],
      "name": "executedCounter",
      "outputs": [
        {
          "internalType": "uint256",
          "name": "",
          "type": "uint256"
        }
      ],
      "payable": false,
      "stateMutability": "view",
      "type": "function"
    },
    {
      "constant": true,
      "inputs": [],
      "name": "executedMsgSender",
      "outputs": [
        {
          "internalType": "address",
          "name": "",
          "type": "address"
        }
      ],
      "payable": false,
      "stateMutability": "view",
      "type": "function"
    },
    {
      "constant": true,
      "inputs": [],
      "name": "executedOption",
      "outputs": [
        {
          "internalType": "uint256",
          "name": "",
          "type": "uint256"
        }
      ],
      "payable": false,
      "stateMutability": "view",
      "type": "function"
    },
    {
      "constant": true,
      "inputs": [],
      "name": "isOwner",
      "outputs": [
        {
          "internalType": "bool",
          "name": "",
          "type": "bool"
        }
      ],
      "payable": false,
      "stateMutability": "view",
      "type": "function"
    },
    {
      "constant": true,
      "inputs": [],
      "name": "minAgreement",
      "outputs": [
        {
          "internalType": "uint256",
          "name": "",
          "type": "uint256"
        }
      ],
      "payable": false,
      "stateMutability": "view",
      "type": "function"
    },
    {
      "constant": true,
      "inputs": [],
      "name": "minVotes",
      "outputs": [
        {
          "internalType": "uint256",
          "name": "",
          "type": "uint256"
        }
      ],
      "payable": false,
      "stateMutability": "view",
      "type": "function"
    },
    {
      "constant": true,
      "inputs": [],
      "name": "name",
      "outputs": [
        {
          "internalType": "string",
          "name": "",
          "type": "string"
        }
      ],
      "payable": false,
      "stateMutability": "view",
      "type": "function"
    },
    {
      "constant": true,
      "inputs": [],
      "name": "opinionScales",
      "outputs": [
        {
          "internalType": "uint256[]",
          "name": "",
          "type": "uint256[]"
        }
      ],
      "payable": false,
      "stateMutability": "view",
      "type": "function"
    },
    {
      "constant": true,
      "inputs": [],
      "name": "options",
      "outputs": [
        {
          "internalType": "bytes32[]",
          "name": "",
          "type": "bytes32[]"
        }
      ],
      "payable": false,
      "stateMutability": "view",
      "type": "function"
    },
    {
      "constant": true,
      "inputs": [],
      "name": "owner",
      "outputs": [
        {
          "internalType": "address",
          "name": "",
          "type": "address"
        }
      ],
      "payable": false,
      "stateMutability": "view",
      "type": "function"
    },
    {
      "constant": true,
      "inputs": [],
      "name": "pType",
      "outputs": [
        {
          "internalType": "uint256",
          "name": "",
          "type": "uint256"
        }
      ],
      "payable": false,
      "stateMutability": "view",
      "type": "function"
    },
    {
      "constant": false,
      "inputs": [],
      "name": "renounceOwnership",
      "outputs": [],
      "payable": false,
      "stateMutability": "nonpayable",
      "type": "function"
    },
    {
      "constant": false,
      "inputs": [
        {
          "internalType": "enum Proposal.ExecType",
          "name": "__exec",
          "type": "uint8"
        }
      ],
      "name": "setExecutable",
      "outputs": [],
      "payable": false,
      "stateMutability": "nonpayable",
      "type": "function"
    },
    {
      "constant": false,
      "inputs": [
        {
          "internalType": "uint256[]",
          "name": "v",
          "type": "uint256[]"
        }
      ],
      "name": "setOpinionScales",
      "outputs": [],
      "payable": false,
      "stateMutability": "nonpayable",
      "type": "function"
    },
    {
      "constant": true,
      "inputs": [],
      "name": "sfc",
      "outputs": [
        {
          "internalType": "contract SFC",
          "name": "",
          "type": "address"
        }
      ],
      "payable": false,
      "stateMutability": "view",
      "type": "function"
    },
    {
      "constant": false,
      "inputs": [
        {
          "internalType": "address",
          "name": "newOwner",
          "type": "address"
        }
      ],
      "name": "transferOwnership",
      "outputs": [],
      "payable": false,
      "stateMutability": "nonpayable",
      "type": "function"
    },
    {
      "constant": true,
      "inputs": [
        {
          "internalType": "address",
          "name": "verifier",
          "type": "address"
        }
      ],
      "name": "verifyProposalParams",
      "outputs": [
        {
          "internalType": "bool",
          "name": "",
          "type": "bool"
        }
      ],
      "payable": false,
      "stateMutability": "view",
      "type": "function"
    },
    {
      "constant": true,
      "inputs": [],
      "name": "votingMaxEndTime",
      "outputs": [
        {
          "internalType": "uint256",
          "name": "",
          "type": "uint256"
        }
      ],
      "payable": false,
      "stateMutability": "view",
      "type": "function"
    },
    {
      "constant": true,
      "inputs": [],
      "name": "votingMinEndTime",
      "outputs": [
        {
          "internalType": "uint256",
          "name": "",
          "type": "uint256"
        }
      ],
      "payable": false,
      "stateMutability": "view",
      "type": "function"
    },
    {
      "constant": true,
      "inputs": [],
      "name": "votingStartTime",
      "outputs": [
        {
          "internalType": "uint256",
          "name": "",
          "type": "uint256"
        }
      ],
      "payable": false,
      "stateMutability": "view",
      "type": "function"
    }
  ],
  "bytecode": "0x60806040523480156200001157600080fd5b50604051620015f9380380620015f983398181016040526101408110156200003857600080fd5b81019080805160405193929190846401000000008211156200005957600080fd5b9083019060208201858111156200006f57600080fd5b82516401000000008111828201881017156200008a57600080fd5b82525081516020918201929091019080838360005b83811015620000b95781810151838201526020016200009f565b50505050905090810190601f168015620000e75780820380516001836020036101000a031916815260200191505b50604052602001805160405193929190846401000000008211156200010b57600080fd5b9083019060208201858111156200012157600080fd5b82516401000000008111828201881017156200013c57600080fd5b82525081516020918201929091019080838360005b838110156200016b57818101518382015260200162000151565b50505050905090810190601f168015620001995780820380516001836020036101000a031916815260200191505b5060405260200180516040519392919084640100000000821115620001bd57600080fd5b908301906020820185811115620001d357600080fd5b8251866020820283011164010000000082111715620001f157600080fd5b82525081516020918201928201910280838360005b838110156200022057818101518382015260200162000206565b50505050919091016040908152602083810151918401516060850151608086015160a087015160c088015160e0909801519599509297509095909450909290918a908a908a908a908a908a908a908a908a908a906200028a90339062000bf8620003c8821b17901c565b89516200029f9060009060208d019062000721565b508851620002b59060019060208c019062000721565b508751620002cb9060029060208b0190620007a6565b50600387815560048781556040805160a081018252600081526001602082015260029181019190915260608101929092526080820152620003109060059081620007e3565b50600685905560078490556008839055606f80546001600160a01b0319166001600160a01b0384811691909117909155811615620003ae576200035c816001600160e01b03620004cb16565b620003ae576040805162461bcd60e51b815260206004820152601360248201527f6661696c656420766572696669636174696f6e00000000000000000000000000604482015290519081900360640190fd5b505050505050505050505050505050505050505062000843565b600954610100900460ff1680620003ed5750620003ed6001600160e01b036200065f16565b80620003fc575060095460ff16155b620004395760405162461bcd60e51b815260040180806020018281038252602e815260200180620015cb602e913960400191505060405180910390fd5b600954610100900460ff1615801562000465576009805460ff1961ff0019909116610100171660011790555b603c80546001600160a01b0319166001600160a01b0384811691909117918290556040519116906000907f8be0079c531659141344cd1fd0a4f28419497f9722a3daafe3b4186f6b6457e0908290a38015620004c7576009805461ff00191690555b5050565b6000816001600160a01b03811663f3f4ef79620004f06001600160e01b036200066616565b620005036001600160e01b036200066b16565b620005166001600160e01b036200067b16565b620005296001600160e01b036200068116565b6200053c6001600160e01b036200068716565b6200054f6001600160e01b03620006e116565b620005626001600160e01b03620006e916565b620005756001600160e01b036200070816565b6040518963ffffffff1660e01b8152600401808981526020018860028111156200059b57fe5b60ff16815260200187815260200186815260200180602001858152602001848152602001838152602001828103825286818151815260200191508051906020019060200280838360005b83811015620005ff578181015183820152602001620005e5565b50505050905001995050505050505050505060206040518083038186803b1580156200062a57600080fd5b505afa1580156200063f573d6000803e3d6000fd5b505050506040513d60208110156200065657600080fd5b50519392505050565b303b155b90565b600f90565b606f54600160a01b900460ff1690565b60035490565b60045490565b60606005805480602002602001604051908101604052809291908181526020018280548015620006d757602002820191906000526020600020905b815481526020019060010190808311620006c2575b5050505050905090565b600654420190565b600754600090620007026001600160e01b03620006e116565b01905090565b600854600090620007026001600160e01b03620006e116565b828054600181600116156101000203166002900490600052602060002090601f016020900481019282601f106200076457805160ff191683800117855562000794565b8280016001018555821562000794579182015b828111156200079457825182559160200191906001019062000777565b50620007a292915062000826565b5090565b8280548282559060005260206000209081019282156200079457916020028201828111156200079457825182559160200191906001019062000777565b82805482825590600052602060002090810192821562000794579160200282015b8281111562000794578251829060ff1690559160200191906001019062000804565b6200066391905b80821115620007a257600081556001016200082d565b610d7880620008536000396000f3fe608060405234801561001057600080fd5b50600436106101a95760003560e01c80638992229f116100f9578063aa3daba911610097578063bf405d6c11610071578063bf405d6c146104d1578063cb00e7d3146104d9578063ef0c3978146104ff578063f2fde38b14610507576101a9565b8063aa3daba914610467578063b3fd87d214610493578063b71cbc08146104c9576101a9565b80638f32d59b116100d35780638f32d59b146103985780639b3a8a07146103b4578063a61e393a146103bc578063a84b9f40146103c4576101a9565b80638992229f146103645780638ba3dbb7146103885780638da5cb5b14610390576101a9565b80633cc228fd116101665780636eb067a0116101405780636eb067a0146103445780636f24f8a11461034c578063715018a6146103545780637284e4161461035c576101a9565b80633cc228fd146102f357806357d682c4146102fb57806363012d0114610327576101a9565b806306fdde03146101ae5780631069143a1461022b57806316131a18146102835780632019a608146102af578063216b9116146102c957806337952c0a146102d1575b600080fd5b6101b661052d565b6040805160208082528351818301528351919283929083019185019080838360005b838110156101f05781810151838201526020016101d8565b50505050905090810190601f16801561021d5780820380516001836020036101000a031916815260200191505b509250505060405180910390f35b6102336105c4565b60408051602080825283518183015283519192839290830191858101910280838360005b8381101561026f578181015183820152602001610257565b505050509050019250505060405180910390f35b61028b61061b565b6040518082600281111561029b57fe5b60ff16815260200191505060405180910390f35b6102b761062b565b60408051918252519081900360200190f35b6102b7610633565b6102f1600480360360208110156102e757600080fd5b503560ff16610638565b005b6102b761065f565b6102f16004803603604081101561031157600080fd5b50803590602001356001600160a01b0316610665565b6102f16004803603602081101561033d57600080fd5b50356106cd565b6102b76106db565b6102336106e1565b6102f1610737565b6101b66107da565b61036c61083a565b604080516001600160a01b039092168252519081900360200190f35b61036c610849565b61036c610858565b6103a0610867565b604080519115158252519081900360200190f35b6102b7610878565b6102b761088b565b6102f1600480360360208110156103da57600080fd5b8101906020810181356401000000008111156103f557600080fd5b82018360208201111561040757600080fd5b8035906020019184602083028401116401000000008311171561042957600080fd5b919080806020026020016040519081016040528093929190818152602001838360200280828437600092019190915250929550610898945050505050565b6102f16004803603604081101561047d57600080fd5b506001600160a01b0381351690602001356108af565b6102f1600480360360608110156104a957600080fd5b506001600160a01b03813581169160208101359091169060400135610906565b6102b7610944565b6102b761094a565b6103a0600480360360208110156104ef57600080fd5b50356001600160a01b0316610950565b61036c610a86565b6102f16004803603602081101561051d57600080fd5b50356001600160a01b0316610a95565b60008054604080516020601f60026000196101006001881615020190951694909404938401819004810282018101909252828152606093909290918301828280156105b95780601f1061058e576101008083540402835291602001916105b9565b820191906000526020600020905b81548152906001019060200180831161059c57829003601f168201915b505050505090505b90565b606060028054806020026020016040519081016040528092919081815260200182805480156105b957602002820191906000526020600020905b8154815260200190600101908083116105fe575050505050905090565b606f54600160a01b900460ff1690565b600654420190565b600f90565b606f805482919060ff60a01b1916600160a01b83600281111561065757fe5b021790555050565b60035490565b6000819050806001600160a01b031663e0a8f6f5846040518263ffffffff1660e01b815260040180828152602001915050600060405180830381600087803b1580156106b057600080fd5b505af11580156106c4573d6000803e3d6000fd5b50505050505050565b6106d8303383610906565b50565b60045490565b606060058054806020026020016040519081016040528092919081815260200182805480156105b957602002820191906000526020600020908154815260200190600101908083116105fe575050505050905090565b61073f610867565b610790576040805162461bcd60e51b815260206004820181905260248201527f4f776e61626c653a2063616c6c6572206973206e6f7420746865206f776e6572604482015290519081900360640190fd5b603c546040516000916001600160a01b0316907f8be0079c531659141344cd1fd0a4f28419497f9722a3daafe3b4186f6b6457e0908390a3603c80546001600160a01b0319169055565b60018054604080516020601f600260001961010087891615020190951694909404938401819004810282018101909252828152606093909290918301828280156105b95780601f1061058e576101008083540402835291602001916105b9565b606f546001600160a01b031681565b6071546001600160a01b031681565b603c546001600160a01b031690565b603c546001600160a01b0316331490565b600060075461088561062b565b01905090565b600060085461088561062b565b80516108ab906005906020840190610b93565b5050565b604080516359fec3e960e11b815230600482015233602482015260448101839052905183916001600160a01b0383169163b3fd87d29160648082019260009290919082900301818387803b1580156106b057600080fd5b607280546001600160a01b039485166001600160a01b0319918216179091556071805493909416921691909117909155607080546001019055607355565b60705481565b60735481565b6000816001600160a01b03811663f3f4ef7961096a610633565b61097261061b565b61097a61065f565b6109826106db565b61098a6106e1565b61099261062b565b61099a610878565b6109a261088b565b6040518963ffffffff1660e01b8152600401808981526020018860028111156109c757fe5b60ff16815260200187815260200186815260200180602001858152602001848152602001838152602001828103825286818151815260200191508051906020019060200280838360005b83811015610a29578181015183820152602001610a11565b50505050905001995050505050505050505060206040518083038186803b158015610a5357600080fd5b505afa158015610a67573d6000803e3d6000fd5b505050506040513d6020811015610a7d57600080fd5b50519392505050565b6072546001600160a01b031681565b610a9d610867565b610aee576040805162461bcd60e51b815260206004820181905260248201527f4f776e61626c653a2063616c6c6572206973206e6f7420746865206f776e6572604482015290519081900360640190fd5b6106d8816001600160a01b038116610b375760405162461bcd60e51b8152600401808060200182810382526026815260200180610cf06026913960400191505060405180910390fd5b603c546040516001600160a01b038084169216907f8be0079c531659141344cd1fd0a4f28419497f9722a3daafe3b4186f6b6457e090600090a3603c80546001600160a01b0319166001600160a01b0392909216919091179055565b828054828255906000526020600020908101928215610bce579160200282015b82811115610bce578251825591602001919060010190610bb3565b50610bda929150610bde565b5090565b6105c191905b80821115610bda5760008155600101610be4565b600954610100900460ff1680610c115750610c11610ce9565b80610c1f575060095460ff16155b610c5a5760405162461bcd60e51b815260040180806020018281038252602e815260200180610d16602e913960400191505060405180910390fd5b600954610100900460ff16158015610c85576009805460ff1961ff0019909116610100171660011790555b603c80546001600160a01b0319166001600160a01b0384811691909117918290556040519116906000907f8be0079c531659141344cd1fd0a4f28419497f9722a3daafe3b4186f6b6457e0908290a380156108ab576009805461ff00191690555050565b303b159056fe4f776e61626c653a206e6577206f776e657220697320746865207a65726f2061646472657373436f6e747261637420696e7374616e63652068617320616c7265616479206265656e20696e697469616c697a6564a265627a7a723158202b36d421e2d91e9a1bddbd08e674a4358929793d387f30afb2729a7ea15535bf64736f6c63430005110032436f6e747261637420696e7374616e63652068617320616c7265616479206265656e20696e697469616c697a6564",
  "linkReferences": {},
  "deployedLinkReferences": {}
}