{
  "_format": "hh-sol-artifact-1",
  "contractName": "ExecLoggingProposal",
  "sourceName": "contracts/proposal/test/ExecLoggingProposal.sol",
  "abi": [
    {
      "inputs": [
        {
          "internalType": "string",
          "name": "v1",
          "type": "string"
        },
        {
          "internalType": "string",
          "name": "v2",
          "type": "string"
        },
        {
          "internalType": "bytes32[]",
          "name": "v3",
          "type": "bytes32[]"
        },
        {
          "internalType": "uint256",
          "name": "v4",
          "type": "uint256"
        },
        {
          "internalType": "uint256",
          "name": "v5",
          "type": "uint256"
        },
        {
          "internalType": "uint256",
          "name": "v6",
          "type": "uint256"
        },
        {
          "internalType": "uint256",
          "name": "v7",
          "type": "uint256"
        },
        {
          "internalType": "uint256",
          "name": "v8",
          "type": "uint256"
        },
        {
          "internalType": "address",
          "name": "v9",
          "type": "address"
        },
        {
          "internalType": "address",
          "name": "v10",
          "type": "address"
        }
      ],
      "payable": false,
      "stateMutability": "nonpayable",
      "type": "constructor"
    },
    {
      "anonymous": false,
      "inputs": [
        {
          "indexed": false,
          "internalType": "uint256",
          "name": "newValue",
          "type": "uint256"
        }
      ],
      "name": "NetworkParameterUpgradeIsDone",
      "type": "event"
    },
    {
      "anonymous": false,
      "inputs": [
        {
          "indexed": true,
          "internalType": "address",
          "name": "previousOwner",
          "type": "address"
        },
        {
          "indexed": true,
          "internalType": "address",
          "name": "newOwner",
          "type": "address"
        }
      ],
      "name": "OwnershipTransferred",
      "type": "event"
    },
    {
      "constant": false,
      "inputs": [
        {
          "internalType": "uint256",
          "name": "myID",
          "type": "uint256"
        },
        {
          "internalType": "address",
          "name": "govAddress",
          "type": "address"
        }
      ],
      "name": "cancel",
      "outputs": [],
      "payable": false,
      "stateMutability": "nonpayable",
      "type": "function"
    },
    {
      "constant": true,
      "inputs": [],
      "name": "description",
      "outputs": [
        {
          "internalType": "string",
          "name": "",
          "type": "string"
        }
      ],
      "payable": false,
      "stateMutability": "view",
      "type": "function"
    },
    {
      "constant": true,
      "inputs": [],
      "name": "executable",
      "outputs": [
        {
          "internalType": "enum Proposal.ExecType",
          "name": "",
          "type": "uint8"
        }
      ],
      "payable": false,
      "stateMutability": "view",
      "type": "function"
    },
    {
      "constant": false,
      "inputs": [
        {
          "internalType": "address",
          "name": "_executedAs",
          "type": "address"
        },
        {
          "internalType": "address",
          "name": "_executedMsgSender",
          "type": "address"
        },
        {
          "internalType": "uint256",
          "name": "optionID",
          "type": "uint256"
        }
      ],
      "name": "executeNonDelegateCall",
      "outputs": [],
      "payable": false,
      "stateMutability": "nonpayable",
      "type": "function"
    },
    {
      "constant": false,
      "inputs": [
        {
          "internalType": "uint256",
          "name": "optionID",
          "type": "uint256"
        }
      ],
      "name": "execute_call",
      "outputs": [],
      "payable": false,
      "stateMutability": "nonpayable",
      "type": "function"
    },
    {
      "constant": false,
      "inputs": [
        {
          "internalType": "address",
          "name": "selfAddr",
          "type": "address"
        },
        {
          "internalType": "uint256",
          "name": "optionID",
          "type": "uint256"
        }
      ],
      "name": "execute_delegatecall",
      "outputs": [],
      "payable": false,
      "stateMutability": "nonpayable",
      "type": "function"
    },
    {
      "constant": true,
      "inputs": [],
      "name": "executedAs",
      "outputs": [
        {
          "internalType": "address",
          "name": "",
          "type": "address"
        }
      ],
      "payable": false,
      "stateMutability": "view",
      "type": "function"
    },
    {
      "constant": true,
      "inputs": [],
      "name": "executedCounter",
      "outputs": [
        {
          "internalType": "uint256",
          "name": "",
          "type": "uint256"
        }
      ],
      "payable": false,
      "stateMutability": "view",
      "type": "function"
    },
    {
      "constant": true,
      "inputs": [],
      "name": "executedMsgSender",
      "outputs": [
        {
          "internalType": "address",
          "name": "",
          "type": "address"
        }
      ],
      "payable": false,
      "stateMutability": "view",
      "type": "function"
    },
    {
      "constant": true,
      "inputs": [],
      "name": "executedOption",
      "outputs": [
        {
          "internalType": "uint256",
          "name": "",
          "type": "uint256"
        }
      ],
      "payable": false,
      "stateMutability": "view",
      "type": "function"
    },
    {
      "constant": true,
      "inputs": [],
      "name": "isOwner",
      "outputs": [
        {
          "internalType": "bool",
          "name": "",
          "type": "bool"
        }
      ],
      "payable": false,
      "stateMutability": "view",
      "type": "function"
    },
    {
      "constant": true,
      "inputs": [],
      "name": "minAgreement",
      "outputs": [
        {
          "internalType": "uint256",
          "name": "",
          "type": "uint256"
        }
      ],
      "payable": false,
      "stateMutability": "view",
      "type": "function"
    },
    {
      "constant": true,
      "inputs": [],
      "name": "minVotes",
      "outputs": [
        {
          "internalType": "uint256",
          "name": "",
          "type": "uint256"
        }
      ],
      "payable": false,
      "stateMutability": "view",
      "type": "function"
    },
    {
      "constant": true,
      "inputs": [],
      "name": "name",
      "outputs": [
        {
          "internalType": "string",
          "name": "",
          "type": "string"
        }
      ],
      "payable": false,
      "stateMutability": "view",
      "type": "function"
    },
    {
      "constant": true,
      "inputs": [],
      "name": "opinionScales",
      "outputs": [
        {
          "internalType": "uint256[]",
          "name": "",
          "type": "uint256[]"
        }
      ],
      "payable": false,
      "stateMutability": "view",
      "type": "function"
    },
    {
      "constant": true,
      "inputs": [],
      "name": "options",
      "outputs": [
        {
          "internalType": "bytes32[]",
          "name": "",
          "type": "bytes32[]"
        }
      ],
      "payable": false,
      "stateMutability": "view",
      "type": "function"
    },
    {
      "constant": true,
      "inputs": [],
      "name": "owner",
      "outputs": [
        {
          "internalType": "address",
          "name": "",
          "type": "address"
        }
      ],
      "payable": false,
      "stateMutability": "view",
      "type": "function"
    },
    {
      "constant": true,
      "inputs": [],
      "name": "pType",
      "outputs": [
        {
          "internalType": "uint256",
          "name": "",
          "type": "uint256"
        }
      ],
      "payable": false,
      "stateMutability": "view",
      "type": "function"
    },
    {
      "constant": false,
      "inputs": [],
      "name": "renounceOwnership",
      "outputs": [],
      "payable": false,
      "stateMutability": "nonpayable",
      "type": "function"
    },
    {
      "constant": false,
      "inputs": [
        {
          "internalType": "enum Proposal.ExecType",
          "name": "__exec",
          "type": "uint8"
        }
      ],
      "name": "setExecutable",
      "outputs": [],
      "payable": false,
      "stateMutability": "nonpayable",
      "type": "function"
    },
    {
      "constant": false,
      "inputs": [
        {
          "internalType": "uint256[]",
          "name": "v",
          "type": "uint256[]"
        }
      ],
      "name": "setOpinionScales",
      "outputs": [],
      "payable": false,
      "stateMutability": "nonpayable",
      "type": "function"
    },
    {
      "constant": true,
      "inputs": [],
      "name": "sfc",
      "outputs": [
        {
          "internalType": "address",
          "name": "",
          "type": "address"
        }
      ],
      "payable": false,
      "stateMutability": "view",
      "type": "function"
    },
    {
      "constant": false,
      "inputs": [
        {
          "internalType": "address",
          "name": "newOwner",
          "type": "address"
        }
      ],
      "name": "transferOwnership",
      "outputs": [],
      "payable": false,
      "stateMutability": "nonpayable",
      "type": "function"
    },
    {
      "constant": true,
      "inputs": [
        {
          "internalType": "address",
          "name": "verifier",
          "type": "address"
        }
      ],
      "name": "verifyProposalParams",
      "outputs": [
        {
          "internalType": "bool",
          "name": "",
          "type": "bool"
        }
      ],
      "payable": false,
      "stateMutability": "view",
      "type": "function"
    },
    {
      "constant": true,
      "inputs": [],
      "name": "votingMaxEndTime",
      "outputs": [
        {
          "internalType": "uint256",
          "name": "",
          "type": "uint256"
        }
      ],
      "payable": false,
      "stateMutability": "view",
      "type": "function"
    },
    {
      "constant": true,
      "inputs": [],
      "name": "votingMinEndTime",
      "outputs": [
        {
          "internalType": "uint256",
          "name": "",
          "type": "uint256"
        }
      ],
      "payable": false,
      "stateMutability": "view",
      "type": "function"
    },
    {
      "constant": true,
      "inputs": [],
      "name": "votingStartTime",
      "outputs": [
        {
          "internalType": "uint256",
          "name": "",
          "type": "uint256"
        }
      ],
      "payable": false,
      "stateMutability": "view",
      "type": "function"
    }
  ],
  "bytecode": "0x60806040523480156200001157600080fd5b506040516200183a3803806200183a83398181016040526101408110156200003857600080fd5b81019080805160405193929190846401000000008211156200005957600080fd5b9083019060208201858111156200006f57600080fd5b82516401000000008111828201881017156200008a57600080fd5b82525081516020918201929091019080838360005b83811015620000b95781810151838201526020016200009f565b50505050905090810190601f168015620000e75780820380516001836020036101000a031916815260200191505b50604052602001805160405193929190846401000000008211156200010b57600080fd5b9083019060208201858111156200012157600080fd5b82516401000000008111828201881017156200013c57600080fd5b82525081516020918201929091019080838360005b838110156200016b57818101518382015260200162000151565b50505050905090810190601f168015620001995780820380516001836020036101000a031916815260200191505b5060405260200180516040519392919084640100000000821115620001bd57600080fd5b908301906020820185811115620001d357600080fd5b8251866020820283011164010000000082111715620001f157600080fd5b82525081516020918201928201910280838360005b838110156200022057818101518382015260200162000206565b50505050919091016040908152602083810151918401516060850151608086015160a087015160c088015160e0909801519599509297509095909450909290916200027690339062000e01620003b1821b17901c565b89516200028b9060009060208d019062000703565b508851620002a19060019060208c019062000703565b508751620002b79060029060208b019062000788565b50600387815560048781556040805160a081018252600081526001602082015260029181019190915260608101929092526080820152620002fc9060059081620007c5565b50600685905560078490556008839055606f80546001600160a01b0380851661010002610100600160a81b031990921691909117909155811615620003a1576200034f826001600160e01b03620004b416565b620003a1576040805162461bcd60e51b815260206004820152601360248201527f6661696c656420766572696669636174696f6e00000000000000000000000000604482015290519081900360640190fd5b5050505050505050505062000825565b600954610100900460ff1680620003d65750620003d66001600160e01b036200064816565b80620003e5575060095460ff16155b620004225760405162461bcd60e51b815260040180806020018281038252602e8152602001806200180c602e913960400191505060405180910390fd5b600954610100900460ff161580156200044e576009805460ff1961ff0019909116610100171660011790555b603c80546001600160a01b0319166001600160a01b0384811691909117918290556040519116906000907f8be0079c531659141344cd1fd0a4f28419497f9722a3daafe3b4186f6b6457e0908290a38015620004b0576009805461ff00191690555b5050565b6000816001600160a01b03811663f3f4ef79620004d96001600160e01b036200064f16565b620004ec6001600160e01b036200065416565b620004ff6001600160e01b036200065d16565b620005126001600160e01b036200066316565b620005256001600160e01b036200066916565b620005386001600160e01b03620006c316565b6200054b6001600160e01b03620006cb16565b6200055e6001600160e01b03620006ea16565b6040518963ffffffff1660e01b8152600401808981526020018860028111156200058457fe5b60ff16815260200187815260200186815260200180602001858152602001848152602001838152602001828103825286818151815260200191508051906020019060200280838360005b83811015620005e8578181015183820152602001620005ce565b50505050905001995050505050505050505060206040518083038186803b1580156200061357600080fd5b505afa15801562000628573d6000803e3d6000fd5b505050506040513d60208110156200063f57600080fd5b50519392505050565b303b155b90565b600f90565b606f5460ff1690565b60035490565b60045490565b60606005805480602002602001604051908101604052809291908181526020018280548015620006b957602002820191906000526020600020905b815481526020019060010190808311620006a4575b5050505050905090565b600654420190565b600754600090620006e46001600160e01b03620006c316565b01905090565b600854600090620006e46001600160e01b03620006c316565b828054600181600116156101000203166002900490600052602060002090601f016020900481019282601f106200074657805160ff191683800117855562000776565b8280016001018555821562000776579182015b828111156200077657825182559160200191906001019062000759565b506200078492915062000808565b5090565b8280548282559060005260206000209081019282156200077657916020028201828111156200077657825182559160200191906001019062000759565b82805482825590600052602060002090810192821562000776579160200282015b8281111562000776578251829060ff16905591602001919060010190620007e6565b6200064c91905b808211156200078457600081556001016200080f565b610fd780620008356000396000f3fe608060405234801561001057600080fd5b50600436106101a95760003560e01c80638992229f116100f9578063aa3daba911610097578063bf405d6c11610071578063bf405d6c146104d1578063cb00e7d3146104d9578063ef0c3978146104ff578063f2fde38b14610507576101a9565b8063aa3daba914610467578063b3fd87d214610493578063b71cbc08146104c9576101a9565b80638f32d59b116100d35780638f32d59b146103985780639b3a8a07146103b4578063a61e393a146103bc578063a84b9f40146103c4576101a9565b80638992229f146103645780638ba3dbb7146103885780638da5cb5b14610390576101a9565b80633cc228fd116101665780636eb067a0116101405780636eb067a0146103445780636f24f8a11461034c578063715018a6146103545780637284e4161461035c576101a9565b80633cc228fd146102f357806357d682c4146102fb57806363012d0114610327576101a9565b806306fdde03146101ae5780631069143a1461022b57806316131a18146102835780632019a608146102af578063216b9116146102c957806337952c0a146102d1575b600080fd5b6101b661052d565b6040805160208082528351818301528351919283929083019185019080838360005b838110156101f05781810151838201526020016101d8565b50505050905090810190601f16801561021d5780820380516001836020036101000a031916815260200191505b509250505060405180910390f35b6102336105c4565b60408051602080825283518183015283519192839290830191858101910280838360005b8381101561026f578181015183820152602001610257565b505050509050019250505060405180910390f35b61028b61061b565b6040518082600281111561029b57fe5b60ff16815260200191505060405180910390f35b6102b7610624565b60408051918252519081900360200190f35b6102b761062c565b6102f1600480360360208110156102e757600080fd5b503560ff16610631565b005b6102b7610652565b6102f16004803603604081101561031157600080fd5b50803590602001356001600160a01b0316610658565b6102f16004803603602081101561033d57600080fd5b50356106c0565b6102b76106ce565b6102336106d4565b6102f161072a565b6101b66107cd565b61036c61082d565b604080516001600160a01b039092168252519081900360200190f35b61036c610841565b61036c610850565b6103a061085f565b604080519115158252519081900360200190f35b6102b7610870565b6102b7610883565b6102f1600480360360208110156103da57600080fd5b8101906020810181356401000000008111156103f557600080fd5b82018360208201111561040757600080fd5b8035906020019184602083028401116401000000008311171561042957600080fd5b919080806020026020016040519081016040528093929190818152602001838360200280828437600092019190915250929550610890945050505050565b6102f16004803603604081101561047d57600080fd5b506001600160a01b0381351690602001356108a7565b6102f1600480360360608110156104a957600080fd5b506001600160a01b03813581169160208101359091169060400135610a43565b6102b7610a81565b6102b7610a87565b6103a0600480360360208110156104ef57600080fd5b50356001600160a01b0316610a8d565b61036c610bc3565b6102f16004803603602081101561051d57600080fd5b50356001600160a01b0316610bd2565b60008054604080516020601f60026000196101006001881615020190951694909404938401819004810282018101909252828152606093909290918301828280156105b95780601f1061058e576101008083540402835291602001916105b9565b820191906000526020600020905b81548152906001019060200180831161059c57829003601f168201915b505050505090505b90565b606060028054806020026020016040519081016040528092919081815260200182805480156105b957602002820191906000526020600020905b8154815260200190600101908083116105fe575050505050905090565b606f5460ff1690565b600654420190565b600f90565b606f805482919060ff1916600183600281111561064a57fe5b021790555050565b60035490565b6000819050806001600160a01b031663e0a8f6f5846040518263ffffffff1660e01b815260040180828152602001915050600060405180830381600087803b1580156106a357600080fd5b505af11580156106b7573d6000803e3d6000fd5b50505050505050565b6106cb303383610a43565b50565b60045490565b606060058054806020026020016040519081016040528092919081815260200182805480156105b957602002820191906000526020600020908154815260200190600101908083116105fe575050505050905090565b61073261085f565b610783576040805162461bcd60e51b815260206004820181905260248201527f4f776e61626c653a2063616c6c6572206973206e6f7420746865206f776e6572604482015290519081900360640190fd5b603c546040516000916001600160a01b0316907f8be0079c531659141344cd1fd0a4f28419497f9722a3daafe3b4186f6b6457e0908390a3603c80546001600160a01b0319169055565b60018054604080516020601f600260001961010087891615020190951694909404938401819004810282018101909252828152606093909290918301828280156105b95780601f1061058e576101008083540402835291602001916105b9565b606f5461010090046001600160a01b031681565b6071546001600160a01b031681565b603c546001600160a01b031690565b603c546001600160a01b0316331490565b600060075461087d610624565b01905090565b600060085461087d610624565b80516108a3906005906020840190610d9c565b5050565b6108c8604051806060016040528060298152602001610f7a60299139610c34565b606f5460408051606460248083019190915282518083039091018152604490910182526020810180516303c91ccd60e01b6001600160e01b03909116178152915181516101009094046001600160a01b031693919290918291908083835b602083106109455780518252601f199092019160209182019101610926565b6001836020036101000a0380198251168184511680821785525050505050509050019150506000604051808303816000865af19150503d80600081146109a7576040519150601f19603f3d011682016040523d82523d6000602084013e6109ac565b606091505b5050604080516359fec3e960e11b81523060048201523360248201526044810184905290518492506001600160a01b0383169163b3fd87d291606480830192600092919082900301818387803b158015610a0557600080fd5b505af1158015610a19573d6000803e3d6000fd5b50505050610a3e6040518060600160405280602d8152602001610f4d602d9139610c34565b505050565b607280546001600160a01b039485166001600160a01b0319918216179091556071805493909416921691909117909155607080546001019055607355565b60705481565b60735481565b6000816001600160a01b03811663f3f4ef79610aa761062c565b610aaf61061b565b610ab7610652565b610abf6106ce565b610ac76106d4565b610acf610624565b610ad7610870565b610adf610883565b6040518963ffffffff1660e01b815260040180898152602001886002811115610b0457fe5b60ff16815260200187815260200186815260200180602001858152602001848152602001838152602001828103825286818151815260200191508051906020019060200280838360005b83811015610b66578181015183820152602001610b4e565b50505050905001995050505050505050505060206040518083038186803b158015610b9057600080fd5b505afa158015610ba4573d6000803e3d6000fd5b505050506040513d6020811015610bba57600080fd5b50519392505050565b6072546001600160a01b031681565b610bda61085f565b610c2b576040805162461bcd60e51b815260206004820181905260248201527f4f776e61626c653a2063616c6c6572206973206e6f7420746865206f776e6572604482015290519081900360640190fd5b6106cb81610cda565b6106cb816040516024018080602001828103825283818151815260200191508051906020019080838360005b83811015610c78578181015183820152602001610c60565b50505050905090810190601f168015610ca55780820380516001836020036101000a031916815260200191505b5060408051601f198184030181529190526020810180516001600160e01b031663104c13eb60e21b1790529250610d7b915050565b6001600160a01b038116610d1f5760405162461bcd60e51b8152600401808060200182810382526026815260200180610ef96026913960400191505060405180910390fd5b603c546040516001600160a01b038084169216907f8be0079c531659141344cd1fd0a4f28419497f9722a3daafe3b4186f6b6457e090600090a3603c80546001600160a01b0319166001600160a01b0392909216919091179055565b80516a636f6e736f6c652e6c6f67602083016000808483855afa5050505050565b828054828255906000526020600020908101928215610dd7579160200282015b82811115610dd7578251825591602001919060010190610dbc565b50610de3929150610de7565b5090565b6105c191905b80821115610de35760008155600101610ded565b600954610100900460ff1680610e1a5750610e1a610ef2565b80610e28575060095460ff16155b610e635760405162461bcd60e51b815260040180806020018281038252602e815260200180610f1f602e913960400191505060405180910390fd5b600954610100900460ff16158015610e8e576009805460ff1961ff0019909116610100171660011790555b603c80546001600160a01b0319166001600160a01b0384811691909117918290556040519116906000907f8be0079c531659141344cd1fd0a4f28419497f9722a3daafe3b4186f6b6457e0908290a380156108a3576009805461ff00191690555050565b303b159056fe4f776e61626c653a206e6577206f776e657220697320746865207a65726f2061646472657373436f6e747261637420696e7374616e63652068617320616c7265616479206265656e20696e697469616c697a6564457865634c6f6767696e6750726f706f73616c3a20657865637574655f64656c656761746563616c6c20656e64457865634c6f6767696e6750726f706f73616c3a20657865637574655f64656c656761746563616c6ca265627a7a72315820d4d88254c490b74bf752356090168a36e2b1b33e11df5f23562d4d553b30873564736f6c63430005110032436f6e747261637420696e7374616e63652068617320616c7265616479206265656e20696e697469616c697a6564",
  "linkReferences": {},
  "deployedLinkReferences": {}
}