{
  "_format": "hh-sol-artifact-1",
  "contractName": "NetworkInitializer",
  "sourceName": "contracts/sfc/NetworkInitializer.sol",
  "abi": [
    {
      "constant": false,
      "inputs": [
        {
          "internalType": "uint256",
          "name": "sealedEpoch",
          "type": "uint256"
        },
        {
          "internalType": "uint256",
          "name": "totalSupply",
          "type": "uint256"
        },
        {
          "internalType": "address",
          "name": "_sfc",
          "type": "address"
        },
        {
          "internalType": "address",
          "name": "_auth",
          "type": "address"
        },
        {
          "internalType": "address",
          "name": "_driver",
          "type": "address"
        },
        {
          "internalType": "address",
          "name": "_evmWriter",
          "type": "address"
        },
        {
          "internalType": "address",
          "name": "_owner",
          "type": "address"
        },
        {
          "internalType": "address",
          "name": "_governance",
          "type": "address"
        }
      ],
      "name": "initializeAll",
      "outputs": [],
      "payable": false,
      "stateMutability": "nonpayable",
      "type": "function"
    }
  ],
  "bytecode": "0x608060405234801561001057600080fd5b50610226806100206000396000f3fe608060405234801561001057600080fd5b506004361061002b5760003560e01c806329e83e2914610030575b600080fd5b61008b600480360361010081101561004757600080fd5b508035906020810135906001600160a01b0360408201358116916060810135821691608082013581169160a081013582169160c082013581169160e001351661008d565b005b6040805163485cc95560e01b81526001600160a01b038781166004830152858116602483015291519186169163485cc9559160448082019260009290919082900301818387803b1580156100e057600080fd5b505af11580156100f4573d6000803e3d6000fd5b50506040805163c0c53b8b60e01b81526001600160a01b038a81166004830152888116602483015286811660448301529151918916935063c0c53b8b925060648082019260009290919082900301818387803b15801561015357600080fd5b505af1158015610167573d6000803e3d6000fd5b505060408051633fbfd4df60e01b8152600481018c9052602481018b90526001600160a01b038981166044830152868116606483015285811660848301529151918a169350633fbfd4df925060a48082019260009290919082900301818387803b1580156101d457600080fd5b505af11580156101e8573d6000803e3d6000fd5b50600092505050fffea265627a7a72315820c8ca7471ea9ed9ec95c866b97db85bacff74c3ff7ff8fbcdc6f78106477d8a4564736f6c63430005110032",
  "linkReferences": {},
  "deployedLinkReferences": {}
}